{
  "_format": "hh-sol-artifact-1",
  "contractName": "AddressUtilsMock",
  "sourceName": "contracts/utils/AddressUtilsMock.sol",
  "abi": [
    {
      "inputs": [],
      "name": "AddressUtils__InsufficientBalance",
      "type": "error"
    },
    {
      "inputs": [],
      "name": "AddressUtils__NotContract",
      "type": "error"
    },
    {
      "inputs": [],
      "name": "AddressUtils__SendValueFailed",
      "type": "error"
    },
    {
      "inputs": [],
      "name": "UintUtils__InsufficientHexLength",
      "type": "error"
    },
    {
      "inputs": [
        {
          "internalType": "address",
          "name": "target",
          "type": "address"
        },
        {
          "internalType": "bytes",
          "name": "data",
          "type": "bytes"
        },
        {
          "internalType": "string",
          "name": "error",
          "type": "string"
        }
      ],
      "name": "functionCall",
      "outputs": [
        {
          "internalType": "bytes",
          "name": "",
          "type": "bytes"
        }
      ],
      "stateMutability": "nonpayable",
      "type": "function"
    },
    {
      "inputs": [
        {
          "internalType": "address",
          "name": "target",
          "type": "address"
        },
        {
          "internalType": "bytes",
          "name": "data",
          "type": "bytes"
        }
      ],
      "name": "functionCall",
      "outputs": [
        {
          "internalType": "bytes",
          "name": "",
          "type": "bytes"
        }
      ],
      "stateMutability": "nonpayable",
      "type": "function"
    },
    {
      "inputs": [
        {
          "internalType": "address",
          "name": "target",
          "type": "address"
        },
        {
          "internalType": "bytes",
          "name": "data",
          "type": "bytes"
        },
        {
          "internalType": "uint256",
          "name": "value",
          "type": "uint256"
        }
      ],
      "name": "functionCallWithValue",
      "outputs": [
        {
          "internalType": "bytes",
          "name": "",
          "type": "bytes"
        }
      ],
      "stateMutability": "nonpayable",
      "type": "function"
    },
    {
      "inputs": [
        {
          "internalType": "address",
          "name": "target",
          "type": "address"
        },
        {
          "internalType": "bytes",
          "name": "data",
          "type": "bytes"
        },
        {
          "internalType": "uint256",
          "name": "value",
          "type": "uint256"
        },
        {
          "internalType": "string",
          "name": "error",
          "type": "string"
        }
      ],
      "name": "functionCallWithValue",
      "outputs": [
        {
          "internalType": "bytes",
          "name": "",
          "type": "bytes"
        }
      ],
      "stateMutability": "nonpayable",
      "type": "function"
    },
    {
      "inputs": [
        {
          "internalType": "address",
          "name": "account",
          "type": "address"
        }
      ],
      "name": "isContract",
      "outputs": [
        {
          "internalType": "bool",
          "name": "",
          "type": "bool"
        }
      ],
      "stateMutability": "view",
      "type": "function"
    },
    {
      "inputs": [
        {
          "internalType": "address payable",
          "name": "account",
          "type": "address"
        },
        {
          "internalType": "uint256",
          "name": "amount",
          "type": "uint256"
        }
      ],
      "name": "sendValue",
      "outputs": [],
      "stateMutability": "nonpayable",
      "type": "function"
    },
    {
      "inputs": [
        {
          "internalType": "address",
          "name": "account",
          "type": "address"
        }
      ],
      "name": "toString",
      "outputs": [
        {
          "internalType": "string",
          "name": "",
          "type": "string"
        }
      ],
      "stateMutability": "pure",
      "type": "function"
    }
  ],
  "bytecode": "0x608060405234801561001057600080fd5b506109cb806100206000396000f3fe608060405234801561001057600080fd5b506004361061007d5760003560e01c80632a0115941161005b5780632a011594146100df57806356ca623e146100f2578063a0b5ffb014610105578063d525ab8a1461011857600080fd5b80631627905514610082578063241b5886146100aa57806324a084df146100ca575b600080fd5b6100956100903660046105e4565b61012b565b60405190151581526020015b60405180910390f35b6100bd6100b83660046106a4565b610141565b6040516100a1919061076a565b6100dd6100d836600461077d565b61015f565b005b6100bd6100ed3660046107a9565b610176565b6100bd6101003660046105e4565b61018c565b6100bd610113366004610802565b6101a0565b6100bd610126366004610852565b6101bc565b60006001600160a01b0382163b15155b92915050565b60606101576001600160a01b03851684846101dc565b949350505050565b6101726001600160a01b038316826101eb565b5050565b60606101576001600160a01b038516848461027d565b606061013b826001600160a01b03166102a3565b60606101b56001600160a01b038416836102b9565b9392505050565b60606101d36001600160a01b0386168585856102de565b95945050505050565b60606101578484600085610322565b6000826001600160a01b03168260405160006040518083038185875af1925050503d8060008114610238576040519150601f19603f3d011682016040523d82523d6000602084013e61023d565b606091505b5050905080610278576040517fc6d73c5500000000000000000000000000000000000000000000000000000000815260040160405180910390fd5b505050565b60606101578484846040518060600160405280602e8152602001610945602e91396102de565b606061013b6001600160a01b038316601461041b565b60606101b58383604051806060016040528060238152602001610973602391396101dc565b60604783111561031a576040517fc052e61b00000000000000000000000000000000000000000000000000000000815260040160405180910390fd5b6101d3858585855b6060843b61035c576040517f89c35afc00000000000000000000000000000000000000000000000000000000815260040160405180910390fd5b600080866001600160a01b0316858760405161037891906108d2565b60006040518083038185875af1925050503d80600081146103b5576040519150601f19603f3d011682016040523d82523d6000602084013e6103ba565b606091505b509150915081156103ce5791506101579050565b8051156103de5780518082602001fd5b836040517f08c379a0000000000000000000000000000000000000000000000000000000008152600401610412919061076a565b60405180910390fd5b6060600061042a836002610904565b61043590600261091b565b67ffffffffffffffff81111561044d5761044d610601565b6040519080825280601f01601f191660200182016040528015610477576020820181803683370190505b5090507f3000000000000000000000000000000000000000000000000000000000000000816000815181106104ae576104ae61092e565b60200101906001600160f81b031916908160001a9053507f7800000000000000000000000000000000000000000000000000000000000000816001815181106104f9576104f961092e565b60200101906001600160f81b031916908160001a905350600160028402015b6001811115610593577f303132333435363738396162636465660000000000000000000000000000000085600f16601081106105565761055661092e565b1a60f81b82828151811061056c5761056c61092e565b60200101906001600160f81b031916908160001a90535060049490941c9360001901610518565b5083156101b5576040517fc913478500000000000000000000000000000000000000000000000000000000815260040160405180910390fd5b6001600160a01b03811681146105e157600080fd5b50565b6000602082840312156105f657600080fd5b81356101b5816105cc565b634e487b7160e01b600052604160045260246000fd5b600082601f83011261062857600080fd5b813567ffffffffffffffff8082111561064357610643610601565b604051601f8301601f19908116603f0116810190828211818310171561066b5761066b610601565b8160405283815286602085880101111561068457600080fd5b836020870160208301376000602085830101528094505050505092915050565b6000806000606084860312156106b957600080fd5b83356106c4816105cc565b9250602084013567ffffffffffffffff808211156106e157600080fd5b6106ed87838801610617565b9350604086013591508082111561070357600080fd5b5061071086828701610617565b9150509250925092565b60005b8381101561073557818101518382015260200161071d565b50506000910152565b6000815180845261075681602086016020860161071a565b601f01601f19169290920160200192915050565b6020815260006101b5602083018461073e565b6000806040838503121561079057600080fd5b823561079b816105cc565b946020939093013593505050565b6000806000606084860312156107be57600080fd5b83356107c9816105cc565b9250602084013567ffffffffffffffff8111156107e557600080fd5b6107f186828701610617565b925050604084013590509250925092565b6000806040838503121561081557600080fd5b8235610820816105cc565b9150602083013567ffffffffffffffff81111561083c57600080fd5b61084885828601610617565b9150509250929050565b6000806000806080858703121561086857600080fd5b8435610873816105cc565b9350602085013567ffffffffffffffff8082111561089057600080fd5b61089c88838901610617565b94506040870135935060608701359150808211156108b957600080fd5b506108c687828801610617565b91505092959194509250565b600082516108e481846020870161071a565b9190910192915050565b634e487b7160e01b600052601160045260246000fd5b808202811582820484141761013b5761013b6108ee565b8082018082111561013b5761013b6108ee565b634e487b7160e01b600052603260045260246000fdfe416464726573735574696c733a206661696c6564206c6f772d6c6576656c2063616c6c20776974682076616c7565416464726573735574696c733a206661696c6564206c6f772d6c6576656c2063616c6ca264697066735822122046386014ed95508a56ce0fa6dd9efe0617280235cfba820e67b537fa0163027464736f6c63430008140033",
  "linkReferences": {},
  "deployedLinkReferences": {}
}