{
  "_format": "hh-sol-artifact-1",
  "contractName": "IBANCalculator",
  "sourceName": "src/utilities/IBAN.sol",
  "abi": [
    {
      "inputs": [
        {
          "internalType": "string",
          "name": "bankCode5",
          "type": "string"
        },
        {
          "internalType": "string",
          "name": "branchCode5",
          "type": "string"
        },
        {
          "internalType": "string",
          "name": "accountNumber11",
          "type": "string"
        }
      ],
      "name": "calculateFrenchIBAN",
      "outputs": [
        {
          "internalType": "string",
          "name": "",
          "type": "string"
        }
      ],
      "stateMutability": "pure",
      "type": "function"
    },
    {
      "inputs": [
        {
          "internalType": "string",
          "name": "countryCode",
          "type": "string"
        },
        {
          "internalType": "string",
          "name": "bban",
          "type": "string"
        }
      ],
      "name": "calculateIBAN",
      "outputs": [
        {
          "internalType": "string",
          "name": "",
          "type": "string"
        }
      ],
      "stateMutability": "pure",
      "type": "function"
    },
    {
      "inputs": [
        {
          "internalType": "string",
          "name": "iban",
          "type": "string"
        }
      ],
      "name": "extractFrenchIBAN",
      "outputs": [
        {
          "internalType": "bool",
          "name": "valid",
          "type": "bool"
        },
        {
          "internalType": "string",
          "name": "bankCode5",
          "type": "string"
        },
        {
          "internalType": "string",
          "name": "branchCode5",
          "type": "string"
        },
        {
          "internalType": "string",
          "name": "accountNumber11",
          "type": "string"
        },
        {
          "internalType": "uint16",
          "name": "ribKey",
          "type": "uint16"
        }
      ],
      "stateMutability": "pure",
      "type": "function"
    },
    {
      "inputs": [
        {
          "internalType": "string",
          "name": "bankCode5",
          "type": "string"
        },
        {
          "internalType": "string",
          "name": "branchCode5",
          "type": "string"
        },
        {
          "internalType": "string",
          "name": "accountNumber11",
          "type": "string"
        }
      ],
      "name": "frenchBBAN",
      "outputs": [
        {
          "internalType": "string",
          "name": "",
          "type": "string"
        }
      ],
      "stateMutability": "pure",
      "type": "function"
    },
    {
      "inputs": [
        {
          "internalType": "uint256",
          "name": "bankCode",
          "type": "uint256"
        },
        {
          "internalType": "uint256",
          "name": "branchCode",
          "type": "uint256"
        },
        {
          "internalType": "uint256",
          "name": "accountNumber",
          "type": "uint256"
        }
      ],
      "name": "frenchRIBKey",
      "outputs": [
        {
          "internalType": "uint16",
          "name": "",
          "type": "uint16"
        }
      ],
      "stateMutability": "pure",
      "type": "function"
    },
    {
      "inputs": [
        {
          "internalType": "string",
          "name": "s",
          "type": "string"
        }
      ],
      "name": "frenchStringToNumber",
      "outputs": [
        {
          "internalType": "uint256",
          "name": "",
          "type": "uint256"
        }
      ],
      "stateMutability": "pure",
      "type": "function"
    },
    {
      "inputs": [
        {
          "internalType": "uint256",
          "name": "fakeIbanValue",
          "type": "uint256"
        }
      ],
      "name": "ibanKey",
      "outputs": [
        {
          "internalType": "uint16",
          "name": "",
          "type": "uint16"
        }
      ],
      "stateMutability": "pure",
      "type": "function"
    },
    {
      "inputs": [
        {
          "internalType": "string",
          "name": "s",
          "type": "string"
        }
      ],
      "name": "ibanStringToNumber",
      "outputs": [
        {
          "internalType": "uint256",
          "name": "",
          "type": "uint256"
        }
      ],
      "stateMutability": "pure",
      "type": "function"
    },
    {
      "inputs": [
        {
          "internalType": "string",
          "name": "s",
          "type": "string"
        },
        {
          "internalType": "uint8",
          "name": "length",
          "type": "uint8"
        }
      ],
      "name": "padWithZeros",
      "outputs": [
        {
          "internalType": "string",
          "name": "",
          "type": "string"
        }
      ],
      "stateMutability": "pure",
      "type": "function"
    },
    {
      "inputs": [
        {
          "internalType": "uint256",
          "name": "v",
          "type": "uint256"
        }
      ],
      "name": "uintToString",
      "outputs": [
        {
          "internalType": "string",
          "name": "str",
          "type": "string"
        }
      ],
      "stateMutability": "pure",
      "type": "function"
    }
  ],
  "bytecode": "0x608060405234801561001057600080fd5b506115d6806100206000396000f3fe608060405234801561001057600080fd5b50600436106100be5760003560e01c80639c6497a811610076578063b7f25bfe1161005b578063b7f25bfe1461017f578063e9395679146101a3578063fa09eae1146101b657600080fd5b80639c6497a814610159578063af3da9571461016c57600080fd5b80634a534937116100a75780634a5349371461010d5780636e619ebb14610133578063830a35bf1461014657600080fd5b80632dccf56a146100c3578063342cb582146100ec575b600080fd5b6100d66100d136600461109b565b6101c9565b6040516100e3919061114f565b60405180910390f35b6100ff6100fa366004611162565b610257565b6040519081526020016100e3565b61012061011b36600461119f565b610377565b60405161ffff90911681526020016100e3565b6101206101413660046111b8565b610397565b6100d66101543660046111e4565b6103f0565b6100d661016736600461123c565b6104e7565b6100d661017a36600461123c565b610577565b61019261018d366004611162565b6105c7565b6040516100e39594939291906112c4565b6100d66101b136600461119f565b610cbb565b6100ff6101c4366004611162565b610e88565b6060600082846040516020016101e092919061131c565b604051602081830303815290604052905060006101fc82610257565b9050600061020982610377565b9050600061022461021d8361ffff16610cbb565b60026103f0565b905086818760405160200161023b93929190611373565b6040516020818303038152906040529450505050505b92915050565b600080805b8351811015610370576000848281518110610279576102796113b6565b016020015160f81c9050603081106102af57603085838151811061029f5761029f6113b6565b016020015160f81c0390506102b3565b5060ff5b60098160ff16116102de5760ff81166102cd84600a6113e2565b6102d791906113f9565b925061035d565b60318160ff16101580156102f65750604a8160ff1611155b1561030057601f19015b60118160ff16101580156103185750602a8160ff1611155b15610344577ffffffffffffffffffffffffffffffffffffffffffffffffffffffffffffffff901610348565b5060005b60ff81161561035d578060ff16836064020192505b50806103688161140c565b91505061025c565b5092915050565b60008061038560618461145a565b61039090606261146e565b9392505050565b6000806103a58360036113e2565b6103b085600f6113e2565b6103bb8760596113e2565b6103c591906113f9565b6103cf91906113f9565b90506103dc60618261145a565b6103e790606161146e565b95945050505050565b60608160ff16835110610404575081610251565b82518203915060008260ff1667ffffffffffffffff81111561042857610428610ff8565b6040519080825280601f01601f191660200182016040528015610452576020820181803683370190505b50905060005b8360ff168110156104bb57603060f81b82828151811061047a5761047a6113b6565b60200101907effffffffffffffffffffffffffffffffffffffffffffffffffffffffffffff1916908160001a905350806104b38161140c565b915050610458565b5080846040516020016104cf929190611481565b60405160208183030381529060405291505092915050565b606060006105096104f786610e88565b61050086610e88565b61014186610e88565b90506105168560056103f0565b94506105238460056103f0565b935061053083600b6103f0565b9250600061054461021d8361ffff16610cbb565b90508585858360405160200161055d94939291906114b0565b604051602081830303815290604052925050509392505050565b606060006105868585856104e7565b90506103e76040518060400160405280600281526020017f4652000000000000000000000000000000000000000000000000000000000000815250826101c9565b60006060806060600080869050604660f81b7effffffffffffffffffffffffffffffffffffffffffffffffffffffffffffff19168160008151811061060e5761060e6113b6565b01602001516001600160f81b03191614158061066e575080517f5200000000000000000000000000000000000000000000000000000000000000908290600190811061065c5761065c6113b6565b01602001516001600160f81b03191614155b156106aa575050604080516020808201835260008083528351808301855281815284519283019094528082529650909450909250905083610cb2565b601b815110156106eb575050604080516020808201835260008083528351808301855281815284519283019094528082529650909450909250905083610cb2565b601b8151111561077957601b5b8151811015610777578151600090839083908110610718576107186113b6565b01602001516001600160f81b031916146107655750506040805160208082018352600080835283518083018552818152845192830190945280825297509095509093509150849050610cb2565b8061076f8161140c565b9150506106f8565b505b60006107ec82600281518110610791576107916113b6565b602001015160f81c60f81b836003815181106107af576107af6113b6565b016020908101516040516001600160f81b031993841692810192909252919091166021820152602201604051602081830303815290604052610257565b905061085f82601981518110610804576108046113b6565b602001015160f81c60f81b83601a81518110610822576108226113b6565b016020908101516040516001600160f81b031993841692810192909252919091166021820152602201604051602081830303815290604052610e88565b925081600481518110610874576108746113b6565b602001015160f81c60f81b82600581518110610892576108926113b6565b602001015160f81c60f81b836006815181106108b0576108b06113b6565b602001015160f81c60f81b846007815181106108ce576108ce6113b6565b602001015160f81c60f81b856008815181106108ec576108ec6113b6565b016020908101516040516001600160f81b03199687169281019290925293851660218201529184166022830152831660238201529116602482015260250160405160208183030381529060405295508160098151811061094e5761094e6113b6565b602001015160f81c60f81b82600a8151811061096c5761096c6113b6565b602001015160f81c60f81b83600b8151811061098a5761098a6113b6565b602001015160f81c60f81b84600c815181106109a8576109a86113b6565b602001015160f81c60f81b85600d815181106109c6576109c66113b6565b016020908101516040516001600160f81b031996871692810192909252938516602182015291841660228301528316602382015291166024820152602501604051602081830303815290604052945081600e81518110610a2857610a286113b6565b602001015160f81c60f81b82600f81518110610a4657610a466113b6565b602001015160f81c60f81b83601081518110610a6457610a646113b6565b602001015160f81c60f81b84601181518110610a8257610a826113b6565b602001015160f81c60f81b85601281518110610aa057610aa06113b6565b602001015160f81c60f81b86601381518110610abe57610abe6113b6565b602001015160f81c60f81b87601481518110610adc57610adc6113b6565b602001015160f81c60f81b88601581518110610afa57610afa6113b6565b602001015160f81c60f81b89601681518110610b1857610b186113b6565b602001015160f81c60f81b8a601781518110610b3657610b366113b6565b602001015160f81c60f81b8b601881518110610b5457610b546113b6565b016020908101516040516001600160f81b03199c8d1692810192909252998b166021820152978a166022890152958916602388015293881660248701529187166025860152861660268501528516602784015284166028830152831660298201529116602a820152602b0160405160208183030381529060405293506000610bf0610bde88610e88565b610be788610e88565b61014188610e88565b90508361ffff168161ffff1614610c0d5760009750505050610cb2565b600087878786601981518110610c2557610c256113b6565b602001015160f81c60f81b87601a81518110610c4357610c436113b6565b602001015160f81c60f81b604051602001610c62959493929190611507565b60405160208183030381529060405290506000610c7e82610257565b90506000610c8b82610377565b9050848161ffff1614610ca75760009a50505050505050610cb2565b60019a505050505050505b91939590929450565b606081600003610cfe57505060408051808201909152600181527f3000000000000000000000000000000000000000000000000000000000000000602082015290565b60408051606480825260a082019092526000908260208201818036833701905050905060005b8415610da6576000610d37600a8761145a565b9050610d44600a8761158c565b9550610d518160306113f9565b60f81b8383610d5f8161140c565b945081518110610d7157610d716113b6565b60200101907effffffffffffffffffffffffffffffffffffffffffffffffffffffffffffff1916908160001a90535050610d24565b60008167ffffffffffffffff811115610dc157610dc1610ff8565b6040519080825280601f01601f191660200182016040528015610deb576020820181803683370190505b50905060005b82811015610e7e578381610e0660018661146e565b610e10919061146e565b81518110610e2057610e206113b6565b602001015160f81c60f81b828281518110610e3d57610e3d6113b6565b60200101907effffffffffffffffffffffffffffffffffffffffffffffffffffffffffffff1916908160001a90535080610e768161140c565b915050610df1565b5095945050505050565b600080805b8351811015610370576000848281518110610eaa57610eaa6113b6565b016020015160f81c905060308110610ee0576030858381518110610ed057610ed06113b6565b016020015160f81c039050610ee4565b5060ff5b60098160ff1611610f0f5760ff8116610efe84600a6113e2565b610f0891906113f9565b9250610fe5565b60318160ff1610158015610f275750604a8160ff1611155b15610f3157601f19015b60118160ff1610158015610f49575060228160ff1611155b15610f8257600960ff7fffffffffffffffffffffffffffffffffffffffffffffffffffffffffffffffef8301165b066001019050610fd0565b60238160ff1610158015610f9a5750602a8160ff1611155b15610fcc57600960ff7ffffffffffffffffffffffffffffffffffffffffffffffffffffffffffffffff0830116610f77565b5060005b60ff811615610fe5578060ff1683600a020192505b5080610ff08161140c565b915050610e8d565b634e487b7160e01b600052604160045260246000fd5b600082601f83011261101f57600080fd5b813567ffffffffffffffff8082111561103a5761103a610ff8565b604051601f8301601f19908116603f0116810190828211818310171561106257611062610ff8565b8160405283815286602085880101111561107b57600080fd5b836020870160208301376000602085830101528094505050505092915050565b600080604083850312156110ae57600080fd5b823567ffffffffffffffff808211156110c657600080fd5b6110d28683870161100e565b935060208501359150808211156110e857600080fd5b506110f58582860161100e565b9150509250929050565b60005b8381101561111a578181015183820152602001611102565b50506000910152565b6000815180845261113b8160208601602086016110ff565b601f01601f19169290920160200192915050565b6020815260006103906020830184611123565b60006020828403121561117457600080fd5b813567ffffffffffffffff81111561118b57600080fd5b6111978482850161100e565b949350505050565b6000602082840312156111b157600080fd5b5035919050565b6000806000606084860312156111cd57600080fd5b505081359360208301359350604090920135919050565b600080604083850312156111f757600080fd5b823567ffffffffffffffff81111561120e57600080fd5b61121a8582860161100e565b925050602083013560ff8116811461123157600080fd5b809150509250929050565b60008060006060848603121561125157600080fd5b833567ffffffffffffffff8082111561126957600080fd5b6112758783880161100e565b9450602086013591508082111561128b57600080fd5b6112978783880161100e565b935060408601359150808211156112ad57600080fd5b506112ba8682870161100e565b9150509250925092565b851515815260a0602082015260006112df60a0830187611123565b82810360408401526112f18187611123565b905082810360608401526113058186611123565b91505061ffff831660808301529695505050505050565b6000835161132e8184602088016110ff565b8351908301906113428183602088016110ff565b7f30300000000000000000000000000000000000000000000000000000000000009101908152600201949350505050565b600084516113858184602089016110ff565b8451908301906113998183602089016110ff565b84519101906113ac8183602088016110ff565b0195945050505050565b634e487b7160e01b600052603260045260246000fd5b634e487b7160e01b600052601160045260246000fd5b8082028115828204841417610251576102516113cc565b80820180821115610251576102516113cc565b60007fffffffffffffffffffffffffffffffffffffffffffffffffffffffffffffffff820361143d5761143d6113cc565b5060010190565b634e487b7160e01b600052601260045260246000fd5b60008261146957611469611444565b500690565b81810381811115610251576102516113cc565b600083516114938184602088016110ff565b8351908301906114a78183602088016110ff565b01949350505050565b600085516114c2818460208a016110ff565b8551908301906114d6818360208a016110ff565b85519101906114e98183602089016110ff565b84519101906114fc8183602088016110ff565b019695505050505050565b60008651611519818460208b016110ff565b86519083019061152d818360208b016110ff565b8651910190611540818360208a016110ff565b6001600160f81b03199586169101908152929093166001830152507f46523030000000000000000000000000000000000000000000000000000000006002820152600601949350505050565b60008261159b5761159b611444565b50049056fea26469706673582212200c3f92d72a231e0d1ae49400e42831c262e9cc96de8de6b03f8ae3bb23b10c6d64736f6c63430008110033",
  "linkReferences": {},
  "deployedLinkReferences": {}
}