{
  "_format": "hh-sol-artifact-1",
  "contractName": "UintUtilsMock",
  "sourceName": "contracts/utils/UintUtilsMock.sol",
  "abi": [
    {
      "inputs": [],
      "name": "UintUtils__InsufficientHexLength",
      "type": "error"
    },
    {
      "inputs": [
        {
          "internalType": "uint256",
          "name": "a",
          "type": "uint256"
        },
        {
          "internalType": "int256",
          "name": "b",
          "type": "int256"
        }
      ],
      "name": "add",
      "outputs": [
        {
          "internalType": "uint256",
          "name": "",
          "type": "uint256"
        }
      ],
      "stateMutability": "pure",
      "type": "function"
    },
    {
      "inputs": [
        {
          "internalType": "uint256",
          "name": "a",
          "type": "uint256"
        },
        {
          "internalType": "int256",
          "name": "b",
          "type": "int256"
        }
      ],
      "name": "sub",
      "outputs": [
        {
          "internalType": "uint256",
          "name": "",
          "type": "uint256"
        }
      ],
      "stateMutability": "pure",
      "type": "function"
    },
    {
      "inputs": [
        {
          "internalType": "uint256",
          "name": "value",
          "type": "uint256"
        },
        {
          "internalType": "uint256",
          "name": "length",
          "type": "uint256"
        }
      ],
      "name": "toHexString",
      "outputs": [
        {
          "internalType": "string",
          "name": "",
          "type": "string"
        }
      ],
      "stateMutability": "pure",
      "type": "function"
    },
    {
      "inputs": [
        {
          "internalType": "uint256",
          "name": "value",
          "type": "uint256"
        }
      ],
      "name": "toHexString",
      "outputs": [
        {
          "internalType": "string",
          "name": "",
          "type": "string"
        }
      ],
      "stateMutability": "pure",
      "type": "function"
    },
    {
      "inputs": [
        {
          "internalType": "uint256",
          "name": "number",
          "type": "uint256"
        }
      ],
      "name": "toString",
      "outputs": [
        {
          "internalType": "string",
          "name": "",
          "type": "string"
        }
      ],
      "stateMutability": "pure",
      "type": "function"
    }
  ],
  "bytecode": "0x608060405234801561001057600080fd5b50610655806100206000396000f3fe608060405234801561001057600080fd5b50600436106100675760003560e01c80636900a3ae116100505780636900a3ae146100b2578063784cfccd146100c55780638fba8d5c146100d857600080fd5b80632835a36d1461006c57806363e1cbea14610092575b600080fd5b61007f61007a366004610488565b6100eb565b6040519081526020015b60405180910390f35b6100a56100a0366004610488565b610100565b60405161008991906104aa565b6100a56100c03660046104f8565b61010c565b61007f6100d3366004610488565b610117565b6100a56100e63660046104f8565b610123565b60006100f7838361012e565b90505b92915050565b60606100f78383610158565b60606100fa826102ed565b60006100f783836103f6565b60606100fa8261041b565b6000808212610146576101418284610527565b6100f7565b6100f7836101538461053a565b6103f6565b60606000610167836002610572565b610172906002610527565b67ffffffffffffffff81111561018a5761018a610589565b6040519080825280601f01601f1916602001820160405280156101b4576020820181803683370190505b509050600360fc1b816000815181106101cf576101cf61059f565b60200101906001600160f81b031916908160001a9053507f78000000000000000000000000000000000000000000000000000000000000008160018151811061021a5761021a61059f565b60200101906001600160f81b031916908160001a905350600160028402015b60018111156102b4577f303132333435363738396162636465660000000000000000000000000000000085600f16601081106102775761027761059f565b1a60f81b82828151811061028d5761028d61059f565b60200101906001600160f81b031916908160001a90535060049490941c9360001901610239565b5083156100f7576040517fc913478500000000000000000000000000000000000000000000000000000000815260040160405180910390fd5b6060816000036103145750506040805180820190915260018152600360fc1b602082015290565b8160005b811561033e5780610328816105b5565b91506103379050600a836105e4565b9150610318565b60008167ffffffffffffffff81111561035957610359610589565b6040519080825280601f01601f191660200182016040528015610383576020820181803683370190505b5090505b84156103ee576103986001836105f8565b91506103a5600a8661060b565b6103b0906030610527565b60f81b8183815181106103c5576103c561059f565b60200101906001600160f81b031916908160001a9053506103e7600a866105e4565b9450610387565b949350505050565b60008082126104095761014182846105f8565b6100f7836104168461053a565b61012e565b60608160000361045e57505060408051808201909152600481527f3078303000000000000000000000000000000000000000000000000000000000602082015290565b6000825b80156104765760019091019060081c610462565b506104818382610158565b9392505050565b6000806040838503121561049b57600080fd5b50508035926020909101359150565b600060208083528351808285015260005b818110156104d7578581018301518582016040015282016104bb565b506000604082860101526040601f19601f8301168501019250505092915050565b60006020828403121561050a57600080fd5b5035919050565b634e487b7160e01b600052601160045260246000fd5b808201808211156100fa576100fa610511565b60007f8000000000000000000000000000000000000000000000000000000000000000820361056b5761056b610511565b5060000390565b80820281158282048414176100fa576100fa610511565b634e487b7160e01b600052604160045260246000fd5b634e487b7160e01b600052603260045260246000fd5b6000600182016105c7576105c7610511565b5060010190565b634e487b7160e01b600052601260045260246000fd5b6000826105f3576105f36105ce565b500490565b818103818111156100fa576100fa610511565b60008261061a5761061a6105ce565b50069056fea26469706673582212205c65824bbe60978493ba094bbf57e0c4ccbe1f067115e911b16bd40f097ab18164736f6c63430008140033",
  "linkReferences": {},
  "deployedLinkReferences": {}
}