{
  "_format": "hh-sol-artifact-1",
  "contractName": "ECDSAMock",
  "sourceName": "contracts/cryptography/ECDSAMock.sol",
  "abi": [
    {
      "inputs": [],
      "name": "ECDSA__InvalidS",
      "type": "error"
    },
    {
      "inputs": [],
      "name": "ECDSA__InvalidSignature",
      "type": "error"
    },
    {
      "inputs": [],
      "name": "ECDSA__InvalidSignatureLength",
      "type": "error"
    },
    {
      "inputs": [],
      "name": "ECDSA__InvalidV",
      "type": "error"
    },
    {
      "inputs": [
        {
          "internalType": "bytes32",
          "name": "hash",
          "type": "bytes32"
        },
        {
          "internalType": "bytes",
          "name": "signature",
          "type": "bytes"
        }
      ],
      "name": "recover",
      "outputs": [
        {
          "internalType": "address",
          "name": "",
          "type": "address"
        }
      ],
      "stateMutability": "pure",
      "type": "function"
    },
    {
      "inputs": [
        {
          "internalType": "bytes32",
          "name": "hash",
          "type": "bytes32"
        },
        {
          "internalType": "uint8",
          "name": "v",
          "type": "uint8"
        },
        {
          "internalType": "bytes32",
          "name": "r",
          "type": "bytes32"
        },
        {
          "internalType": "bytes32",
          "name": "s",
          "type": "bytes32"
        }
      ],
      "name": "recover",
      "outputs": [
        {
          "internalType": "address",
          "name": "",
          "type": "address"
        }
      ],
      "stateMutability": "pure",
      "type": "function"
    },
    {
      "inputs": [
        {
          "internalType": "bytes32",
          "name": "hash",
          "type": "bytes32"
        }
      ],
      "name": "toEthSignedMessageHash",
      "outputs": [
        {
          "internalType": "bytes32",
          "name": "",
          "type": "bytes32"
        }
      ],
      "stateMutability": "pure",
      "type": "function"
    }
  ],
  "bytecode": "0x608060405234801561001057600080fd5b5061047a806100206000396000f3fe608060405234801561001057600080fd5b50600436106100415760003560e01c806319045a2514610046578063918a15cf14610083578063c2bf17b0146100a4575b600080fd5b61005961005436600461032d565b6100b7565b60405173ffffffffffffffffffffffffffffffffffffffff90911681526020015b60405180910390f35b6100966100913660046103e8565b6100ca565b60405190815260200161007a565b6100596100b2366004610401565b610129565b60006100c38383610140565b9392505050565b6000610123826040517f19457468657265756d205369676e6564204d6573736167653a0a3332000000006020820152603c8101829052600090605c01604051602081830303815290604052805190602001209050919050565b92915050565b6000610137858585856101a5565b95945050505050565b6000815160411461017d576040517f4fc237b800000000000000000000000000000000000000000000000000000000815260040160405180910390fd5b60208201516040830151606084015160001a61019b868285856101a5565b9695505050505050565b60007f7fffffffffffffffffffffffffffffff5d576e7357a4501ddfe92f46681b20a0821115610201576040517fe4a61add00000000000000000000000000000000000000000000000000000000815260040160405180910390fd5b8360ff16601b1415801561021957508360ff16601c14155b15610250576040517facd54a9000000000000000000000000000000000000000000000000000000000815260040160405180910390fd5b6040805160008082526020820180845288905260ff871692820192909252606081018590526080810184905260019060a0016020604051602081039080840390855afa1580156102a4573d6000803e3d6000fd5b5050604051601f19015191505073ffffffffffffffffffffffffffffffffffffffff8116610137576040517f8fe7664e00000000000000000000000000000000000000000000000000000000815260040160405180910390fd5b7f4e487b7100000000000000000000000000000000000000000000000000000000600052604160045260246000fd5b6000806040838503121561034057600080fd5b82359150602083013567ffffffffffffffff8082111561035f57600080fd5b818501915085601f83011261037357600080fd5b813581811115610385576103856102fe565b604051601f8201601f19908116603f011681019083821181831017156103ad576103ad6102fe565b816040528281528860208487010111156103c657600080fd5b8260208601602083013760006020848301015280955050505050509250929050565b6000602082840312156103fa57600080fd5b5035919050565b6000806000806080858703121561041757600080fd5b84359350602085013560ff8116811461042f57600080fd5b9396939550505050604082013591606001359056fea2646970667358221220511870c04cd7683f4b16ad695fa3076a5d7cae4c1218e4adf2dade966c8721b964736f6c63430008140033",
  "linkReferences": {},
  "deployedLinkReferences": {}
}