{
  "_format": "hh-sol-artifact-1",
  "contractName": "EnumerableSetUintMock",
  "sourceName": "contracts/data/EnumerableSetUintMock.sol",
  "abi": [
    {
      "inputs": [],
      "name": "EnumerableSet__IndexOutOfBounds",
      "type": "error"
    },
    {
      "inputs": [
        {
          "internalType": "uint256",
          "name": "value",
          "type": "uint256"
        }
      ],
      "name": "add",
      "outputs": [
        {
          "internalType": "bool",
          "name": "",
          "type": "bool"
        }
      ],
      "stateMutability": "nonpayable",
      "type": "function"
    },
    {
      "inputs": [
        {
          "internalType": "uint256",
          "name": "index",
          "type": "uint256"
        }
      ],
      "name": "at",
      "outputs": [
        {
          "internalType": "uint256",
          "name": "",
          "type": "uint256"
        }
      ],
      "stateMutability": "view",
      "type": "function"
    },
    {
      "inputs": [
        {
          "internalType": "uint256",
          "name": "value",
          "type": "uint256"
        }
      ],
      "name": "contains",
      "outputs": [
        {
          "internalType": "bool",
          "name": "",
          "type": "bool"
        }
      ],
      "stateMutability": "view",
      "type": "function"
    },
    {
      "inputs": [
        {
          "internalType": "uint256",
          "name": "value",
          "type": "uint256"
        }
      ],
      "name": "indexOf",
      "outputs": [
        {
          "internalType": "uint256",
          "name": "",
          "type": "uint256"
        }
      ],
      "stateMutability": "view",
      "type": "function"
    },
    {
      "inputs": [],
      "name": "length",
      "outputs": [
        {
          "internalType": "uint256",
          "name": "",
          "type": "uint256"
        }
      ],
      "stateMutability": "view",
      "type": "function"
    },
    {
      "inputs": [
        {
          "internalType": "uint256",
          "name": "value",
          "type": "uint256"
        }
      ],
      "name": "remove",
      "outputs": [
        {
          "internalType": "bool",
          "name": "",
          "type": "bool"
        }
      ],
      "stateMutability": "nonpayable",
      "type": "function"
    },
    {
      "inputs": [],
      "name": "toArray",
      "outputs": [
        {
          "internalType": "uint256[]",
          "name": "",
          "type": "uint256[]"
        }
      ],
      "stateMutability": "view",
      "type": "function"
    }
  ],
  "bytecode": "0x608060405234801561001057600080fd5b5061046f806100206000396000f3fe608060405234801561001057600080fd5b506004361061007d5760003560e01c8063908ff3031161005b578063908ff303146100d357806391ac7e65146100e8578063c34052e0146100fb578063e0886f901461010e57600080fd5b80631003e2d2146100825780631f7b6d32146100aa5780634cc82215146100c0575b600080fd5b6100956100903660046103b0565b610121565b60405190151581526020015b60405180910390f35b6100b2610133565b6040519081526020016100a1565b6100956100ce3660046103b0565b610144565b6100db610150565b6040516100a191906103c9565b6100b26100f63660046103b0565b61015c565b6100956101093660046103b0565b610168565b6100b261011c3660046103b0565b610174565b600061012d8183610180565b92915050565b600061013f6000610193565b905090565b600061012d818361019d565b606061013f60006101a9565b600061012d8183610205565b600061012d818361021f565b600061012d8183610237565b600061018c8383610243565b9392505050565b600061012d825490565b600061018c8383610286565b805460408051602080840282018101909252828152606092849283929183918301828280156101f757602002820191906000526020600020905b8154815260200190600101908083116101e3575b505050505092505050919050565b60008181526001830160205260408120546000190161018c565b6000818152600183016020526040812054151561018c565b600061018c838361034b565b600081815260018301602052604081205461012d575081546001808201845560008481526020808220909301849055845493815293810190915260409092205590565b60008181526001830160205260408120548015610344578354600090859060001981019081106102b8576102b861040d565b90600052602060002001549050808560000160018403815481106102de576102de61040d565b600091825260208083209091019290925591825260018601905260409020819055835484908061031057610310610423565b6001900381819060005260206000200160009055905583600101600084815260200190815260200160002060009055600191505b5092915050565b81546000908210610388576040517fe637bf3b00000000000000000000000000000000000000000000000000000000815260040160405180910390fd5b82600001828154811061039d5761039d61040d565b9060005260206000200154905092915050565b6000602082840312156103c257600080fd5b5035919050565b6020808252825182820181905260009190848201906040850190845b81811015610401578351835292840192918401916001016103e5565b50909695505050505050565b634e487b7160e01b600052603260045260246000fd5b634e487b7160e01b600052603160045260246000fdfea2646970667358221220f5d817c32da85a64556e7423f6fc2d3d6f8d13c4adf13c727214fb27147f8f2464736f6c63430008140033",
  "linkReferences": {},
  "deployedLinkReferences": {}
}