{
  "_format": "hh-sol-artifact-1",
  "contractName": "EnumerableSetBytes32Mock",
  "sourceName": "contracts/data/EnumerableSetBytes32Mock.sol",
  "abi": [
    {
      "inputs": [],
      "name": "EnumerableSet__IndexOutOfBounds",
      "type": "error"
    },
    {
      "inputs": [
        {
          "internalType": "bytes32",
          "name": "value",
          "type": "bytes32"
        }
      ],
      "name": "add",
      "outputs": [
        {
          "internalType": "bool",
          "name": "",
          "type": "bool"
        }
      ],
      "stateMutability": "nonpayable",
      "type": "function"
    },
    {
      "inputs": [
        {
          "internalType": "uint256",
          "name": "index",
          "type": "uint256"
        }
      ],
      "name": "at",
      "outputs": [
        {
          "internalType": "bytes32",
          "name": "",
          "type": "bytes32"
        }
      ],
      "stateMutability": "view",
      "type": "function"
    },
    {
      "inputs": [
        {
          "internalType": "bytes32",
          "name": "value",
          "type": "bytes32"
        }
      ],
      "name": "contains",
      "outputs": [
        {
          "internalType": "bool",
          "name": "",
          "type": "bool"
        }
      ],
      "stateMutability": "view",
      "type": "function"
    },
    {
      "inputs": [
        {
          "internalType": "bytes32",
          "name": "value",
          "type": "bytes32"
        }
      ],
      "name": "indexOf",
      "outputs": [
        {
          "internalType": "uint256",
          "name": "",
          "type": "uint256"
        }
      ],
      "stateMutability": "view",
      "type": "function"
    },
    {
      "inputs": [],
      "name": "length",
      "outputs": [
        {
          "internalType": "uint256",
          "name": "",
          "type": "uint256"
        }
      ],
      "stateMutability": "view",
      "type": "function"
    },
    {
      "inputs": [
        {
          "internalType": "bytes32",
          "name": "value",
          "type": "bytes32"
        }
      ],
      "name": "remove",
      "outputs": [
        {
          "internalType": "bool",
          "name": "",
          "type": "bool"
        }
      ],
      "stateMutability": "nonpayable",
      "type": "function"
    },
    {
      "inputs": [],
      "name": "toArray",
      "outputs": [
        {
          "internalType": "bytes32[]",
          "name": "",
          "type": "bytes32[]"
        }
      ],
      "stateMutability": "view",
      "type": "function"
    }
  ],
  "bytecode": "0x608060405234801561001057600080fd5b50610467806100206000396000f3fe608060405234801561001057600080fd5b506004361061007d5760003560e01c80636f4ce56a1161005b5780636f4ce56a146100d3578063908ff303146100e657806395bc2673146100fb578063e0886f901461010e57600080fd5b80631d1a696d146100825780631f7b6d32146100aa578063446bffba146100c0575b600080fd5b6100956100903660046103a8565b610121565b60405190151581526020015b60405180910390f35b6100b2610133565b6040519081526020016100a1565b6100956100ce3660046103a8565b610144565b6100b26100e13660046103a8565b610150565b6100ee61015c565b6040516100a191906103c1565b6100956101093660046103a8565b610168565b6100b261011c3660046103a8565b610174565b600061012d8183610180565b92915050565b600061013f600061019b565b905090565b600061012d81836101a5565b600061012d81836101b1565b606061013f60006101cb565b600061012d8183610223565b600061012d818361022f565b600081815260018301602052604081205415155b9392505050565b600061012d825490565b6000610194838361023b565b600081815260018301602052604081205460001901610194565b805460408051602080840282018101909252828152606092909184919083018282801561021757602002820191906000526020600020905b815481526020019060010190808311610203575b50505050509050919050565b6000610194838361027e565b60006101948383610343565b600081815260018301602052604081205461012d575081546001808201845560008481526020808220909301849055845493815293810190915260409092205590565b6000818152600183016020526040812054801561033c578354600090859060001981019081106102b0576102b0610405565b90600052602060002001549050808560000160018403815481106102d6576102d6610405565b60009182526020808320909101929092559182526001860190526040902081905583548490806103085761030861041b565b6001900381819060005260206000200160009055905583600101600084815260200190815260200160002060009055600191505b5092915050565b81546000908210610380576040517fe637bf3b00000000000000000000000000000000000000000000000000000000815260040160405180910390fd5b82600001828154811061039557610395610405565b9060005260206000200154905092915050565b6000602082840312156103ba57600080fd5b5035919050565b6020808252825182820181905260009190848201906040850190845b818110156103f9578351835292840192918401916001016103dd565b50909695505050505050565b634e487b7160e01b600052603260045260246000fd5b634e487b7160e01b600052603160045260246000fdfea2646970667358221220633a9c1717ac1540e13b6503faa52371343a5927d0df04958d5ef1a6f9964b4c64736f6c63430008140033",
  "linkReferences": {},
  "deployedLinkReferences": {}
}