{
  "_format": "hh-sol-artifact-1",
  "contractName": "ESGIntegration",
  "sourceName": "contracts/ESGIntegration.sol",
  "abi": [
    {
      "inputs": [
        {
          "internalType": "uint256",
          "name": "tokenId",
          "type": "uint256"
        }
      ],
      "name": "getESGCriteria",
      "outputs": [
        {
          "components": [
            {
              "internalType": "uint8",
              "name": "environmental",
              "type": "uint8"
            },
            {
              "internalType": "uint8",
              "name": "social",
              "type": "uint8"
            },
            {
              "internalType": "uint8",
              "name": "governance",
              "type": "uint8"
            }
          ],
          "internalType": "struct ESGIntegration.ESGCriteria",
          "name": "",
          "type": "tuple"
        }
      ],
      "stateMutability": "view",
      "type": "function"
    },
    {
      "inputs": [
        {
          "internalType": "uint256",
          "name": "tokenId",
          "type": "uint256"
        },
        {
          "internalType": "uint8",
          "name": "environmental",
          "type": "uint8"
        },
        {
          "internalType": "uint8",
          "name": "social",
          "type": "uint8"
        },
        {
          "internalType": "uint8",
          "name": "governance",
          "type": "uint8"
        }
      ],
      "name": "setESGCriteria",
      "outputs": [],
      "stateMutability": "nonpayable",
      "type": "function"
    }
  ],
  "bytecode": "0x6080604052348015600f57600080fd5b506103808061001f6000396000f3fe608060405234801561001057600080fd5b50600436106100365760003560e01c80634f7fcd3a1461003b578063ab59432c14610057575b600080fd5b6100556004803603810190610050919061024a565b610087565b005b610071600480360381019061006c91906102b1565b610129565b60405161007e919061032f565b60405180910390f35b60405180606001604052808460ff1681526020018360ff1681526020018260ff1681525060008086815260200190815260200160002060008201518160000160006101000a81548160ff021916908360ff16021790555060208201518160000160016101000a81548160ff021916908360ff16021790555060408201518160000160026101000a81548160ff021916908360ff16021790555090505050505050565b6101316101ac565b6000808381526020019081526020016000206040518060600160405290816000820160009054906101000a900460ff1660ff1660ff1681526020016000820160019054906101000a900460ff1660ff1660ff1681526020016000820160029054906101000a900460ff1660ff1660ff16815250509050919050565b6040518060600160405280600060ff168152602001600060ff168152602001600060ff1681525090565b600080fd5b6000819050919050565b6101ee816101db565b81146101f957600080fd5b50565b60008135905061020b816101e5565b92915050565b600060ff82169050919050565b61022781610211565b811461023257600080fd5b50565b6000813590506102448161021e565b92915050565b60008060008060808587031215610264576102636101d6565b5b6000610272878288016101fc565b945050602061028387828801610235565b935050604061029487828801610235565b92505060606102a587828801610235565b91505092959194509250565b6000602082840312156102c7576102c66101d6565b5b60006102d5848285016101fc565b91505092915050565b6102e781610211565b82525050565b60608201600082015161030360008501826102de565b50602082015161031660208501826102de565b50604082015161032960408501826102de565b50505050565b600060608201905061034460008301846102ed565b9291505056fea2646970667358221220842562c7c34ff63092b3092c4df23f444def0c2418e82487fb28030208f904df64736f6c634300081b0033",
  "linkReferences": {},
  "deployedLinkReferences": {}
}