{
  "_format": "hh-sol-artifact-1",
  "contractName": "SoCashAccount",
  "sourceName": "src/impl/so-cash-account-impl.sol",
  "abi": [
    {
      "inputs": [
        {
          "internalType": "string",
          "name": "name_",
          "type": "string"
        }
      ],
      "stateMutability": "nonpayable",
      "type": "constructor"
    },
    {
      "anonymous": false,
      "inputs": [
        {
          "indexed": true,
          "internalType": "address",
          "name": "owner",
          "type": "address"
        },
        {
          "indexed": true,
          "internalType": "address",
          "name": "spender",
          "type": "address"
        },
        {
          "indexed": false,
          "internalType": "uint256",
          "name": "value",
          "type": "uint256"
        }
      ],
      "name": "Approval",
      "type": "event"
    },
    {
      "anonymous": false,
      "inputs": [
        {
          "indexed": true,
          "internalType": "bytes32",
          "name": "id",
          "type": "bytes32"
        },
        {
          "indexed": true,
          "internalType": "bytes32",
          "name": "hashlockPaid",
          "type": "bytes32"
        },
        {
          "components": [
            {
              "components": [
                {
                  "internalType": "contract ISoCashAccount",
                  "name": "account",
                  "type": "address"
                },
                {
                  "internalType": "BIC",
                  "name": "bic",
                  "type": "bytes11"
                },
                {
                  "internalType": "IBAN",
                  "name": "iban",
                  "type": "bytes32"
                }
              ],
              "internalType": "struct RecipentInfo",
              "name": "recipient",
              "type": "tuple"
            },
            {
              "internalType": "uint256",
              "name": "amount",
              "type": "uint256"
            },
            {
              "internalType": "uint256",
              "name": "deadline",
              "type": "uint256"
            },
            {
              "internalType": "bytes32",
              "name": "hashlockPaid",
              "type": "bytes32"
            },
            {
              "internalType": "bytes32",
              "name": "hashlockCancel",
              "type": "bytes32"
            },
            {
              "internalType": "string",
              "name": "opaque",
              "type": "string"
            },
            {
              "internalType": "enum IHTLCPayment.HTLCState",
              "name": "state",
              "type": "uint8"
            }
          ],
          "indexed": false,
          "internalType": "struct IHTLCPayment.HTLC",
          "name": "htlc",
          "type": "tuple"
        }
      ],
      "name": "HTLCPaymentCreated",
      "type": "event"
    },
    {
      "anonymous": false,
      "inputs": [
        {
          "indexed": true,
          "internalType": "bytes32",
          "name": "id",
          "type": "bytes32"
        },
        {
          "indexed": false,
          "internalType": "uint256",
          "name": "amount",
          "type": "uint256"
        },
        {
          "indexed": false,
          "internalType": "uint256",
          "name": "deadline",
          "type": "uint256"
        },
        {
          "indexed": false,
          "internalType": "string",
          "name": "usingSecret",
          "type": "string"
        },
        {
          "indexed": false,
          "internalType": "string",
          "name": "opaque",
          "type": "string"
        },
        {
          "indexed": false,
          "internalType": "bool",
          "name": "cancelled",
          "type": "bool"
        }
      ],
      "name": "HTLCPaymentRemoved",
      "type": "event"
    },
    {
      "anonymous": false,
      "inputs": [
        {
          "indexed": true,
          "internalType": "address",
          "name": "previousOwner",
          "type": "address"
        },
        {
          "indexed": true,
          "internalType": "address",
          "name": "newOwner",
          "type": "address"
        }
      ],
      "name": "OwnershipTransferred",
      "type": "event"
    },
    {
      "anonymous": false,
      "inputs": [
        {
          "indexed": true,
          "internalType": "address",
          "name": "from",
          "type": "address"
        },
        {
          "indexed": true,
          "internalType": "address",
          "name": "to",
          "type": "address"
        },
        {
          "indexed": false,
          "internalType": "uint256",
          "name": "value",
          "type": "uint256"
        }
      ],
      "name": "Transfer",
      "type": "event"
    },
    {
      "anonymous": false,
      "inputs": [
        {
          "indexed": true,
          "internalType": "address",
          "name": "account",
          "type": "address"
        },
        {
          "indexed": false,
          "internalType": "bool",
          "name": "status",
          "type": "bool"
        }
      ],
      "name": "Whitelisted",
      "type": "event"
    },
    {
      "inputs": [],
      "name": "accountNumber",
      "outputs": [
        {
          "internalType": "AccountNumber",
          "name": "",
          "type": "uint32"
        }
      ],
      "stateMutability": "view",
      "type": "function"
    },
    {
      "inputs": [
        {
          "internalType": "address",
          "name": "",
          "type": "address"
        },
        {
          "internalType": "address",
          "name": "spender",
          "type": "address"
        }
      ],
      "name": "allowance",
      "outputs": [
        {
          "internalType": "uint256",
          "name": "",
          "type": "uint256"
        }
      ],
      "stateMutability": "view",
      "type": "function"
    },
    {
      "inputs": [
        {
          "internalType": "address",
          "name": "spender",
          "type": "address"
        },
        {
          "internalType": "uint256",
          "name": "amount",
          "type": "uint256"
        }
      ],
      "name": "approve",
      "outputs": [
        {
          "internalType": "bool",
          "name": "",
          "type": "bool"
        }
      ],
      "stateMutability": "nonpayable",
      "type": "function"
    },
    {
      "inputs": [],
      "name": "balance",
      "outputs": [
        {
          "internalType": "uint256",
          "name": "",
          "type": "uint256"
        }
      ],
      "stateMutability": "view",
      "type": "function"
    },
    {
      "inputs": [
        {
          "internalType": "address",
          "name": "",
          "type": "address"
        }
      ],
      "name": "balanceOf",
      "outputs": [
        {
          "internalType": "uint256",
          "name": "",
          "type": "uint256"
        }
      ],
      "stateMutability": "view",
      "type": "function"
    },
    {
      "inputs": [],
      "name": "bank",
      "outputs": [
        {
          "internalType": "contract ISoCashBank",
          "name": "",
          "type": "address"
        }
      ],
      "stateMutability": "view",
      "type": "function"
    },
    {
      "inputs": [
        {
          "internalType": "address",
          "name": "oldSender",
          "type": "address"
        }
      ],
      "name": "blacklist",
      "outputs": [],
      "stateMutability": "nonpayable",
      "type": "function"
    },
    {
      "inputs": [],
      "name": "decimals",
      "outputs": [
        {
          "internalType": "uint8",
          "name": "",
          "type": "uint8"
        }
      ],
      "stateMutability": "view",
      "type": "function"
    },
    {
      "inputs": [],
      "name": "fullBalance",
      "outputs": [
        {
          "internalType": "int256",
          "name": "",
          "type": "int256"
        }
      ],
      "stateMutability": "view",
      "type": "function"
    },
    {
      "inputs": [
        {
          "internalType": "bytes32",
          "name": "_name",
          "type": "bytes32"
        }
      ],
      "name": "getAttributeNum",
      "outputs": [
        {
          "internalType": "int256",
          "name": "",
          "type": "int256"
        }
      ],
      "stateMutability": "view",
      "type": "function"
    },
    {
      "inputs": [
        {
          "internalType": "bytes32",
          "name": "_name",
          "type": "bytes32"
        }
      ],
      "name": "getAttributeStr",
      "outputs": [
        {
          "internalType": "string",
          "name": "",
          "type": "string"
        }
      ],
      "stateMutability": "view",
      "type": "function"
    },
    {
      "inputs": [
        {
          "internalType": "bytes32",
          "name": "id",
          "type": "bytes32"
        }
      ],
      "name": "getHTLCPayment",
      "outputs": [
        {
          "components": [
            {
              "components": [
                {
                  "internalType": "contract ISoCashAccount",
                  "name": "account",
                  "type": "address"
                },
                {
                  "internalType": "BIC",
                  "name": "bic",
                  "type": "bytes11"
                },
                {
                  "internalType": "IBAN",
                  "name": "iban",
                  "type": "bytes32"
                }
              ],
              "internalType": "struct RecipentInfo",
              "name": "recipient",
              "type": "tuple"
            },
            {
              "internalType": "uint256",
              "name": "amount",
              "type": "uint256"
            },
            {
              "internalType": "uint256",
              "name": "deadline",
              "type": "uint256"
            },
            {
              "internalType": "bytes32",
              "name": "hashlockPaid",
              "type": "bytes32"
            },
            {
              "internalType": "bytes32",
              "name": "hashlockCancel",
              "type": "bytes32"
            },
            {
              "internalType": "string",
              "name": "opaque",
              "type": "string"
            },
            {
              "internalType": "enum IHTLCPayment.HTLCState",
              "name": "state",
              "type": "uint8"
            }
          ],
          "internalType": "struct IHTLCPayment.HTLC",
          "name": "",
          "type": "tuple"
        }
      ],
      "stateMutability": "view",
      "type": "function"
    },
    {
      "inputs": [],
      "name": "iban",
      "outputs": [
        {
          "internalType": "string",
          "name": "",
          "type": "string"
        }
      ],
      "stateMutability": "view",
      "type": "function"
    },
    {
      "inputs": [
        {
          "internalType": "address",
          "name": "a",
          "type": "address"
        }
      ],
      "name": "isWhitelisted",
      "outputs": [
        {
          "internalType": "bool",
          "name": "",
          "type": "bool"
        }
      ],
      "stateMutability": "view",
      "type": "function"
    },
    {
      "inputs": [
        {
          "components": [
            {
              "internalType": "contract ISoCashAccount",
              "name": "account",
              "type": "address"
            },
            {
              "internalType": "BIC",
              "name": "bic",
              "type": "bytes11"
            },
            {
              "internalType": "IBAN",
              "name": "iban",
              "type": "bytes32"
            }
          ],
          "internalType": "struct RecipentInfo",
          "name": "recipient",
          "type": "tuple"
        },
        {
          "internalType": "uint256",
          "name": "amount",
          "type": "uint256"
        },
        {
          "internalType": "uint256",
          "name": "deadline",
          "type": "uint256"
        },
        {
          "internalType": "bytes32",
          "name": "hashlockPaid",
          "type": "bytes32"
        },
        {
          "internalType": "bytes32",
          "name": "hashlockCancel",
          "type": "bytes32"
        },
        {
          "internalType": "string",
          "name": "opaque",
          "type": "string"
        }
      ],
      "name": "lockFunds",
      "outputs": [
        {
          "internalType": "bytes32",
          "name": "key",
          "type": "bytes32"
        }
      ],
      "stateMutability": "nonpayable",
      "type": "function"
    },
    {
      "inputs": [],
      "name": "lockedBalance",
      "outputs": [
        {
          "internalType": "uint256",
          "name": "",
          "type": "uint256"
        }
      ],
      "stateMutability": "view",
      "type": "function"
    },
    {
      "inputs": [],
      "name": "name",
      "outputs": [
        {
          "internalType": "string",
          "name": "",
          "type": "string"
        }
      ],
      "stateMutability": "view",
      "type": "function"
    },
    {
      "inputs": [],
      "name": "owner",
      "outputs": [
        {
          "internalType": "address",
          "name": "",
          "type": "address"
        }
      ],
      "stateMutability": "view",
      "type": "function"
    },
    {
      "inputs": [],
      "name": "renounceOwnership",
      "outputs": [],
      "stateMutability": "nonpayable",
      "type": "function"
    },
    {
      "inputs": [
        {
          "internalType": "bytes32",
          "name": "_name",
          "type": "bytes32"
        },
        {
          "internalType": "int256",
          "name": "value",
          "type": "int256"
        }
      ],
      "name": "setAttributeNum",
      "outputs": [],
      "stateMutability": "nonpayable",
      "type": "function"
    },
    {
      "inputs": [
        {
          "internalType": "bytes32",
          "name": "_name",
          "type": "bytes32"
        },
        {
          "internalType": "string",
          "name": "value",
          "type": "string"
        }
      ],
      "name": "setAttributeStr",
      "outputs": [],
      "stateMutability": "nonpayable",
      "type": "function"
    },
    {
      "inputs": [],
      "name": "symbol",
      "outputs": [
        {
          "internalType": "string",
          "name": "",
          "type": "string"
        }
      ],
      "stateMutability": "view",
      "type": "function"
    },
    {
      "inputs": [],
      "name": "totalSupply",
      "outputs": [
        {
          "internalType": "uint256",
          "name": "",
          "type": "uint256"
        }
      ],
      "stateMutability": "view",
      "type": "function"
    },
    {
      "inputs": [
        {
          "internalType": "address",
          "name": "to",
          "type": "address"
        },
        {
          "internalType": "uint256",
          "name": "amount",
          "type": "uint256"
        }
      ],
      "name": "transfer",
      "outputs": [
        {
          "internalType": "bool",
          "name": "",
          "type": "bool"
        }
      ],
      "stateMutability": "nonpayable",
      "type": "function"
    },
    {
      "inputs": [
        {
          "components": [
            {
              "internalType": "contract ISoCashAccount",
              "name": "account",
              "type": "address"
            },
            {
              "internalType": "BIC",
              "name": "bic",
              "type": "bytes11"
            },
            {
              "internalType": "IBAN",
              "name": "iban",
              "type": "bytes32"
            }
          ],
          "internalType": "struct RecipentInfo",
          "name": "recipient",
          "type": "tuple"
        },
        {
          "internalType": "uint256",
          "name": "amount",
          "type": "uint256"
        },
        {
          "internalType": "string",
          "name": "details",
          "type": "string"
        }
      ],
      "name": "transferEx",
      "outputs": [
        {
          "internalType": "bool",
          "name": "",
          "type": "bool"
        }
      ],
      "stateMutability": "nonpayable",
      "type": "function"
    },
    {
      "inputs": [
        {
          "internalType": "address",
          "name": "",
          "type": "address"
        },
        {
          "internalType": "address",
          "name": "recipient",
          "type": "address"
        },
        {
          "internalType": "uint256",
          "name": "amount",
          "type": "uint256"
        }
      ],
      "name": "transferFrom",
      "outputs": [
        {
          "internalType": "bool",
          "name": "",
          "type": "bool"
        }
      ],
      "stateMutability": "nonpayable",
      "type": "function"
    },
    {
      "inputs": [
        {
          "internalType": "bytes32",
          "name": "key",
          "type": "bytes32"
        },
        {
          "components": [
            {
              "internalType": "contract ISoCashAccount",
              "name": "account",
              "type": "address"
            },
            {
              "internalType": "BIC",
              "name": "bic",
              "type": "bytes11"
            },
            {
              "internalType": "IBAN",
              "name": "iban",
              "type": "bytes32"
            }
          ],
          "internalType": "struct RecipentInfo",
          "name": "recipient",
          "type": "tuple"
        },
        {
          "internalType": "string",
          "name": "secret",
          "type": "string"
        },
        {
          "internalType": "string",
          "name": "details",
          "type": "string"
        }
      ],
      "name": "transferLockedFunds",
      "outputs": [
        {
          "internalType": "bool",
          "name": "",
          "type": "bool"
        }
      ],
      "stateMutability": "nonpayable",
      "type": "function"
    },
    {
      "inputs": [
        {
          "internalType": "address",
          "name": "newOwner",
          "type": "address"
        }
      ],
      "name": "transferOwnership",
      "outputs": [],
      "stateMutability": "nonpayable",
      "type": "function"
    },
    {
      "inputs": [
        {
          "internalType": "bytes32",
          "name": "key",
          "type": "bytes32"
        },
        {
          "internalType": "string",
          "name": "secret",
          "type": "string"
        }
      ],
      "name": "unlockFunds",
      "outputs": [
        {
          "internalType": "bool",
          "name": "",
          "type": "bool"
        }
      ],
      "stateMutability": "nonpayable",
      "type": "function"
    },
    {
      "inputs": [],
      "name": "unlockedBalance",
      "outputs": [
        {
          "internalType": "uint256",
          "name": "",
          "type": "uint256"
        }
      ],
      "stateMutability": "view",
      "type": "function"
    },
    {
      "inputs": [
        {
          "internalType": "bytes32",
          "name": "id",
          "type": "bytes32"
        },
        {
          "internalType": "string",
          "name": "secret",
          "type": "string"
        }
      ],
      "name": "verifyHTLC",
      "outputs": [
        {
          "internalType": "bool",
          "name": "ok",
          "type": "bool"
        },
        {
          "internalType": "string",
          "name": "reason",
          "type": "string"
        }
      ],
      "stateMutability": "view",
      "type": "function"
    },
    {
      "inputs": [
        {
          "internalType": "bytes32",
          "name": "id",
          "type": "bytes32"
        },
        {
          "internalType": "string",
          "name": "secret",
          "type": "string"
        }
      ],
      "name": "verifyHTLCCancel",
      "outputs": [
        {
          "internalType": "bool",
          "name": "ok",
          "type": "bool"
        },
        {
          "internalType": "string",
          "name": "reason",
          "type": "string"
        }
      ],
      "stateMutability": "view",
      "type": "function"
    },
    {
      "inputs": [
        {
          "internalType": "address",
          "name": "newSender",
          "type": "address"
        }
      ],
      "name": "whitelist",
      "outputs": [],
      "stateMutability": "nonpayable",
      "type": "function"
    }
  ],
  "bytecode": "0x608060405260006002553480156200001657600080fd5b5060405162003391380380620033918339810160408190526200003991620000ef565b620000443362000089565b636e616d6560e01b60005260046020527f7111ae4bdf4ebd69a2b73564eb6122d02bf092309501b4d967dfa93080c1711c62000081828262000253565b50506200031f565b600080546001600160a01b038381166001600160a01b0319831681178455604051919092169283917f8be0079c531659141344cd1fd0a4f28419497f9722a3daafe3b4186f6b6457e09190a35050565b634e487b7160e01b600052604160045260246000fd5b600060208083850312156200010357600080fd5b82516001600160401b03808211156200011b57600080fd5b818501915085601f8301126200013057600080fd5b815181811115620001455762000145620000d9565b604051601f8201601f19908116603f01168101908382118183101715620001705762000170620000d9565b8160405282815288868487010111156200018957600080fd5b600093505b82841015620001ad57848401860151818501870152928501926200018e565b600086848301015280965050505050505092915050565b600181811c90821680620001d957607f821691505b602082108103620001fa57634e487b7160e01b600052602260045260246000fd5b50919050565b601f8211156200024e57600081815260208120601f850160051c81016020861015620002295750805b601f850160051c820191505b818110156200024a5782815560010162000235565b5050505b505050565b81516001600160401b038111156200026f576200026f620000d9565b6200028781620002808454620001c4565b8462000200565b602080601f831160018114620002bf5760008415620002a65750858301515b600019600386901b1c1916600185901b1785556200024a565b600085815260208120601f198616915b82811015620002f057888601518255948401946001909101908401620002cf565b50858210156200030f5787850151600019600388901b60f8161c191681555b5050505050600190811b01905550565b613062806200032f6000396000f3fe608060405234801561001057600080fd5b506004361061020b5760003560e01c80638da5cb5b1161012a578063b69ef8a8116100bd578063f2d5a7141161008c578063f9f92be411610071578063f9f92be41461047e578063fcf96f1a14610491578063ffd15035146104a457600080fd5b8063f2d5a71414610458578063f2fde38b1461046b57600080fd5b8063b69ef8a81461040a578063bcb7838814610412578063da958ae91461041a578063dd62ed3e1461042d57600080fd5b8063a5472f85116100f9578063a5472f85146103c9578063a7a6f1f1146103dc578063a9059cbb146103ef578063ab6ad4521461040257600080fd5b80638da5cb5b1461038a57806395d89b411461039b5780639696283f146103a35780639b19251a146103b657600080fd5b80633af32abf116101a257806376cdb03b1161017157806376cdb03b1461031d57806376fc300514610342578063777b71ff146103625780637b80889b1461038257600080fd5b80633af32abf146102e5578063613672b1146102f857806370a0823114610300578063715018a61461031357600080fd5b806323b872dd116101de57806323b872dd14610288578063313ce5671461029b578063375974eb146102b5578063393d4f5f146102d257600080fd5b806306fdde0314610210578063095ea7b31461022e578063164096821461025157806318160ddd14610272575b600080fd5b6102186104b7565b6040516102259190612545565b60405180910390f35b61024161023c36600461256d565b6104e7565b6040519015158152602001610225565b61026461025f3660046125e2565b61058a565b60405161022592919061262e565b61027a6106ab565b604051908152602001610225565b610241610296366004612649565b6106b5565b6102a3610723565b60405160ff9091168152602001610225565b6102bd610791565b60405163ffffffff9091168152602001610225565b61027a6102e03660046126a2565b610821565b6102416102f336600461271f565b6109a6565b6102186109e1565b61027a61030e36600461271f565b610a7c565b61031b610b0c565b005b6000546001600160a01b03165b6040516001600160a01b039091168152602001610225565b61027a61035036600461273c565b60009081526005602052604090205490565b61037561037036600461273c565b610b20565b604051610225919061278d565b61027a610cbf565b6000546001600160a01b031661032a565b610218610d46565b61031b6103b136600461282a565b610d97565b61031b6103c436600461271f565b610e33565b6102416103d736600461284c565b610fa1565b61031b6103ea366004612916565b611081565b6102416103fd36600461256d565b611128565b61027a611298565b61027a6112e2565b61027a61132c565b6102416104283660046125e2565b611376565b61027a61043b3660046129a0565b6001600160a01b0316600090815260066020526040902054919050565b6102416104663660046129d9565b61149f565b61031b61047936600461271f565b61160a565b61031b61048c36600461271f565b61169a565b61021861049f36600461273c565b6117fd565b6102646104b23660046125e2565b6118a2565b60606104e27f6e616d65000000000000000000000000000000000000000000000000000000006117fd565b905090565b600080546001600160a01b031633148061051057503360009081526001602052604090205460ff165b6105775760405162461bcd60e51b815260206004820152602d60248201527f574c533a2043616c6c6572206e6f7420616c6c6f77656420746f20706572666f60448201526c3936903a34329030b1ba34b7b760991b60648201526084015b60405180910390fd5b6105818383611a04565b50600192915050565b600083815260036020526040812060048101546060919083036105cc576000604051806060016040528060288152602001612f986028913992509250506106a3565b6000428260030154111590506000600287876040516020016105ef929190612a64565b60408051601f198184030181529082905261060991612a74565b602060405180830381855afa158015610626573d6000803e3d6000fd5b5050506040513d601f19601f820116820180604052508101906106499190612a90565b83600501541490508115801561065d575080155b15610689576000604051806060016040528060378152602001612fc060379139945094505050506106a3565b600160405180602001604052806000815250945094505050505b935093915050565b60006104e26112e2565b600061071b33604080516060810182526001600160a01b038716815260006020808301829052828401919091528251808401909352601283527f4552433230205472616e7366657246726f6d000000000000000000000000000090830152908590611adb565b949350505050565b600080546001600160a01b03166001600160a01b031663313ce5676040518163ffffffff1660e01b8152600401602060405180830381865afa15801561076d573d6000803e3d6000fd5b505050506040513d601f19601f820116820180604052508101906104e29190612aa9565b600080546001600160a01b03166040517fe1fb7e230000000000000000000000000000000000000000000000000000000081523060048201526001600160a01b03919091169063e1fb7e2390602401602060405180830381865afa1580156107fd573d6000803e3d6000fd5b505050506040513d601f19601f820116820180604052508101906104e29190612acc565b600080546001600160a01b031633148061084a57503360009081526001602052604090205460ff165b6108ac5760405162461bcd60e51b815260206004820152602d60248201527f574c533a2043616c6c6572206e6f7420616c6c6f77656420746f20706572666f60448201526c3936903a34329030b1ba34b7b760991b606482015260840161056e565b6108cb6108be368a90038a018a612b0f565b8888888888886000611bf7565b90506108df6000546001600160a01b031690565b6001600160a01b0316638c8f95fb886040518263ffffffff1660e01b815260040161090c91815260200190565b6020604051808303816000875af115801561092b573d6000803e3d6000fd5b505050506040513d601f19601f8201168201806040525081019061094f9190612b79565b61099b5760405162461bcd60e51b815260206004820152601560248201527f536f433a206c6f636b46756e6473206661696c65640000000000000000000000604482015260640161056e565b979650505050505050565b600080546001600160a01b03838116911614806109db57506001600160a01b03821660009081526001602052604090205460ff165b92915050565b60606109f56000546001600160a01b031690565b6040517ff59bcbe50000000000000000000000000000000000000000000000000000000081523060048201526001600160a01b03919091169063f59bcbe590602401600060405180830381865afa158015610a54573d6000803e3d6000fd5b505050506040513d6000823e601f3d908101601f191682016040526104e29190810190612b9b565b600080546001600160a01b03166040517f70a082310000000000000000000000000000000000000000000000000000000081523060048201526001600160a01b0391909116906370a0823190602401602060405180830381865afa158015610ae8573d6000803e3d6000fd5b505050506040513d601f19601f820116820180604052508101906109db9190612a90565b610b14611ec8565b610b1e6000611f22565b565b6040805161014081018252600060e082018181526101008301829052610120830182905282526020820181905291810182905260608082018390526080820183905260a082015260c081019190915260008281526003602081815260409283902083516101408101855281546001600160a01b03811660e08301908152600160a01b90910460a81b6001600160a81b031916610100830152600183015461012083015281526002820154928101929092529182015492810192909252600481015460608301526005810154608083015260068101805460a084019190610c0590612c09565b80601f0160208091040260200160405190810160405280929190818152602001828054610c3190612c09565b8015610c7e5780601f10610c5357610100808354040283529160200191610c7e565b820191906000526020600020905b815481529060010190602001808311610c6157829003601f168201915b5050509183525050600782015460209091019060ff166002811115610ca557610ca5612755565b6002811115610cb657610cb6612755565b90525092915050565b600080546040517f593557360000000000000000000000000000000000000000000000000000000081523060048201526001600160a01b03909116906359355736906024015b602060405180830381865afa158015610d22573d6000803e3d6000fd5b505050506040513d601f19601f820116820180604052508101906104e29190612a90565b6060610d5a6000546001600160a01b031690565b6001600160a01b03166395d89b416040518163ffffffff1660e01b8152600401600060405180830381865afa158015610a54573d6000803e3d6000fd5b6000546001600160a01b0316331480610dbf57503360009081526001602052604090205460ff165b610e215760405162461bcd60e51b815260206004820152602d60248201527f574c533a2043616c6c6572206e6f7420616c6c6f77656420746f20706572666f60448201526c3936903a34329030b1ba34b7b760991b606482015260840161056e565b60009182526005602052604090912055565b6000546001600160a01b0316331480610e5b57503360009081526001602052604090205460ff165b610ebd5760405162461bcd60e51b815260206004820152602d60248201527f574c533a2043616c6c6572206e6f7420616c6c6f77656420746f20706572666f60448201526c3936903a34329030b1ba34b7b760991b606482015260840161056e565b6000546001600160a01b0316331480610ee557503360009081526001602052604090205460ff165b610f475760405162461bcd60e51b815260206004820152602d60248201527f574c533a2043616c6c6572206e6f7420616c6c6f77656420746f20706572666f60448201526c3936903a34329030b1ba34b7b760991b606482015260840161056e565b6001600160a01b038116600081815260016020818152604092839020805460ff19168317905591519081527fa54714518c5d275fdcd3d2a461e4858e4e8cb04fb93cd0bca9d6d34115f2644091015b60405180910390a250565b6000610fac336109a6565b156110315760005460405163d7aa216760e01b81526001600160a01b039091169063d7aa216790610fe7908890889088908890600401612c68565b6020604051808303816000875af1158015611006573d6000803e3d6000fd5b505050506040513d601f19601f8201168201806040525081019061102a9190612b79565b905061071b565b61102a3361104436889003880188612b0f565b8686868080601f016020809104026020016040519081016040528093929190818152602001838380828437600092019190915250611adb92505050565b6000546001600160a01b03163314806110a957503360009081526001602052604090205460ff165b61110b5760405162461bcd60e51b815260206004820152602d60248201527f574c533a2043616c6c6572206e6f7420616c6c6f77656420746f20706572666f60448201526c3936903a34329030b1ba34b7b760991b606482015260840161056e565b60008281526004602052604090206111238282612d0e565b505050565b600080546001600160a01b031633148061115157503360009081526001602052604090205460ff165b6111b35760405162461bcd60e51b815260206004820152602d60248201527f574c533a2043616c6c6572206e6f7420616c6c6f77656420746f20706572666f60448201526c3936903a34329030b1ba34b7b760991b606482015260840161056e565b60008054604080516060810182526001600160a01b03878116825260208201858152828401958652925163d7aa216760e01b815291518116600483015291516001600160a81b0319166024820152925160448401526064830185905260a06084840152600e60a48401527f4552433230205472616e7366657200000000000000000000000000000000000060c4840152169063d7aa21679060e4016020604051808303816000875af115801561126d573d6000803e3d6000fd5b505050506040513d601f19601f820116820180604052508101906112919190612b79565b9392505050565b600080546040517f84955c880000000000000000000000000000000000000000000000000000000081523060048201526001600160a01b03909116906384955c8890602401610d05565b600080546040517f70a082310000000000000000000000000000000000000000000000000000000081523060048201526001600160a01b03909116906370a0823190602401610d05565b600080546040517f58b5dd720000000000000000000000000000000000000000000000000000000081523060048201526001600160a01b03909116906358b5dd7290602401610d05565b600080546001600160a01b031633148061139f57503360009081526001602052604090205460ff165b6114015760405162461bcd60e51b815260206004820152602d60248201527f574c533a2043616c6c6572206e6f7420616c6c6f77656420746f20706572666f60448201526c3936903a34329030b1ba34b7b760991b606482015260840161056e565b600061140e858585611f8a565b90506114226000546001600160a01b031690565b6001600160a01b0316636894c95082602001516040518263ffffffff1660e01b815260040161145391815260200190565b6020604051808303816000875af1158015611472573d6000803e3d6000fd5b505050506040513d601f19601f820116820180604052508101906114969190612b79565b95945050505050565b6000806114ad888787612221565b90506114c16000546001600160a01b031690565b6001600160a01b0316636894c95082602001516040518263ffffffff1660e01b81526004016114f291815260200190565b6020604051808303816000875af1158015611511573d6000803e3d6000fd5b505050506040513d601f19601f820116820180604052508101906115359190612b79565b6115815760405162461bcd60e51b815260206004820152601760248201527f536f433a20756e6c6f636b46756e6473206661696c6564000000000000000000604482015260640161056e565b600054602082015160405163d7aa216760e01b81526001600160a01b039092169163d7aa2167916115bb918b919089908990600401612c68565b6020604051808303816000875af11580156115da573d6000803e3d6000fd5b505050506040513d601f19601f820116820180604052508101906115fe9190612b79565b98975050505050505050565b611612611ec8565b6001600160a01b03811661168e5760405162461bcd60e51b815260206004820152602660248201527f4f776e61626c653a206e6577206f776e657220697320746865207a65726f206160448201527f6464726573730000000000000000000000000000000000000000000000000000606482015260840161056e565b61169781611f22565b50565b6000546001600160a01b03163314806116c257503360009081526001602052604090205460ff165b6117245760405162461bcd60e51b815260206004820152602d60248201527f574c533a2043616c6c6572206e6f7420616c6c6f77656420746f20706572666f60448201526c3936903a34329030b1ba34b7b760991b606482015260840161056e565b6000546001600160a01b031633148061174c57503360009081526001602052604090205460ff165b6117ae5760405162461bcd60e51b815260206004820152602d60248201527f574c533a2043616c6c6572206e6f7420616c6c6f77656420746f20706572666f60448201526c3936903a34329030b1ba34b7b760991b606482015260840161056e565b6001600160a01b0381166000818152600160209081526040808320805460ff19169055519182527fa54714518c5d275fdcd3d2a461e4858e4e8cb04fb93cd0bca9d6d34115f264409101610f96565b6000818152600460205260409020805460609190819061181c90612c09565b80601f016020809104026020016040519081016040528092919081815260200182805461184890612c09565b80156118955780601f1061186a57610100808354040283529160200191611895565b820191906000526020600020905b81548152906001019060200180831161187857829003601f168201915b5050505050915050919050565b600083815260036020526040812060048101546060919083036118e4576000604051806060016040528060368152602001612ff76036913992509250506106a3565b428160030154101561192f57505060408051808201909152601681527f48544c433a20646561646c696e652065787069726564000000000000000000006020820152600091506106a3565b60028585604051602001611944929190612a64565b60408051601f198184030181529082905261195e91612a74565b602060405180830381855afa15801561197b573d6000803e3d6000fd5b5050506040513d601f19601f8201168201806040525081019061199e9190612a90565b8160040154146119e757505060408051808201909152601581527f48544c433a20736563726574206d69736d6174636800000000000000000000006020820152600091506106a3565b505060408051602081019091526000815260019150935093915050565b6001600160a01b038216611a805760405162461bcd60e51b815260206004820152602260248201527f45524332303a20617070726f766520746f20746865207a65726f20616464726560448201527f7373000000000000000000000000000000000000000000000000000000000000606482015260840161056e565b6001600160a01b038216600081815260066020526040908190208390555130907f8c5be1e5ebec7d5bd14f71427d1e84f3dd0314c0f7b2291e5b200ac8c7c3b92590611acf9085815260200190565b60405180910390a35050565b6001600160a01b03841660009081526006602052604081205483811015611b6a5760405162461bcd60e51b815260206004820152602660248201527f536f433a207472616e7366657220616d6f756e74206578636565647320616c6c60448201527f6f77616e63650000000000000000000000000000000000000000000000000000606482015260840161056e565b611b7686858303611a04565b60005460405163d7aa216760e01b81526001600160a01b039091169063d7aa216790611baa90889088908890600401612dce565b6020604051808303816000875af1158015611bc9573d6000803e3d6000fd5b505050506040513d601f19601f82011682018060405250810190611bed9190612b79565b9695505050505050565b6000808811611c485760405162461bcd60e51b815260206004820152601b60248201527f48544c433a20616d6f756e742063616e6e6f74206265207a65726f0000000000604482015260640161056e565b42871015611cbd5760405162461bcd60e51b8152602060048201526024808201527f48544c433a20646561646c696e652063616e6e6f7420626520696e207468652060448201527f7061737400000000000000000000000000000000000000000000000000000000606482015260840161056e565b6002805433918a91906000611cd183612e15565b9091555060405160609390931b7fffffffffffffffffffffffffffffffffffffffff000000000000000000000000166020840152603483019190915260548201524360748201526094016040516020818303038152906040528051906020012090506040518060e001604052808a815260200189815260200188815260200187815260200186815260200185858080601f016020809104026020016040519081016040528093929190818152602001838380828437600092019190915250505090825250602001836002811115611daa57611daa612755565b90526000828152600360208181526040928390208451805182548285015160a81c600160a01b027fff000000000000000000000000000000000000000000000000000000000000009091166001600160a01b039092169190911717825584015160018201559084015160028201559183015190820155606082015160048201556080820151600582015560a08201516006820190611e489082612d0e565b5060c082015160078201805460ff19166001836002811115611e6c57611e6c612755565b02179055505050600081815260036020526040908190209051879183917f3b55fff6a695af9c4ea75659d4e2bfd804f9ba670823c066d47657cbfc3b03d191611eb491612eba565b60405180910390a398975050505050505050565b6000546001600160a01b03163314610b1e5760405162461bcd60e51b815260206004820181905260248201527f4f776e61626c653a2063616c6c6572206973206e6f7420746865206f776e6572604482015260640161056e565b600080546001600160a01b038381167fffffffffffffffffffffffff0000000000000000000000000000000000000000831681178455604051919092169283917f8be0079c531659141344cd1fd0a4f28419497f9722a3daafe3b4186f6b6457e09190a35050565b6040805161014081018252600060e082018181526101008301829052610120830182905282526020820181905291810182905260608082018390526080820183905260a082015260c081018290529080611fe586868661058a565b915091508181906120095760405162461bcd60e51b815260040161056e9190612545565b5060008681526003602081815260409283902083516101408101855281546001600160a01b03811660e08301908152600160a01b90910460a81b6001600160a81b031916610100830152600183015461012083015281526002820154928101929092529182015492810192909252600481015460608301526005810154608083015260068101805460a0840191906120a090612c09565b80601f01602080910402602001604051908101604052809291908181526020018280546120cc90612c09565b80156121195780601f106120ee57610100808354040283529160200191612119565b820191906000526020600020905b8154815290600101906020018083116120fc57829003601f168201915b5050509183525050600782015460209091019060ff16600281111561214057612140612755565b600281111561215157612151612755565b9052506000878152600360208190526040822080547fff00000000000000000000000000000000000000000000000000000000000000168155600181018390556002810183905590810182905560048101829055600581018290559194506121bc60068301826124a7565b50600701805460ff19169055602083015160408085015160a0860151915189937fc8d88ad778e32555fb2095f4a83d5b39a164fca896a492f613f77512f4b9185c936122109391928b918b91600190612f4f565b60405180910390a250509392505050565b6040805161014081018252600060e082018181526101008301829052610120830182905282526020820181905291810182905260608082018390526080820183905260a082015260c08101829052908061227c8686866118a2565b915091508181906122a05760405162461bcd60e51b815260040161056e9190612545565b5060008681526003602081815260409283902083516101408101855281546001600160a01b03811660e08301908152600160a01b90910460a81b6001600160a81b031916610100830152600183015461012083015281526002820154928101929092529182015492810192909252600481015460608301526005810154608083015260068101805460a08401919061233790612c09565b80601f016020809104026020016040519081016040528092919081815260200182805461236390612c09565b80156123b05780601f10612385576101008083540402835291602001916123b0565b820191906000526020600020905b81548152906001019060200180831161239357829003601f168201915b5050509183525050600782015460209091019060ff1660028111156123d7576123d7612755565b60028111156123e8576123e8612755565b9052506000878152600360208190526040822080547fff000000000000000000000000000000000000000000000000000000000000001681556001810183905560028101839055908101829055600481018290556005810182905591945061245360068301826124a7565b50600701805460ff19169055602083015160408085015160a0860151915189937fc8d88ad778e32555fb2095f4a83d5b39a164fca896a492f613f77512f4b9185c936122109391928b918b91600090612f4f565b5080546124b390612c09565b6000825580601f106124c3575050565b601f01602090049060005260206000209081019061169791905b808211156124f157600081556001016124dd565b5090565b60005b838110156125105781810151838201526020016124f8565b50506000910152565b600081518084526125318160208601602086016124f5565b601f01601f19169290920160200192915050565b6020815260006112916020830184612519565b6001600160a01b038116811461169757600080fd5b6000806040838503121561258057600080fd5b823561258b81612558565b946020939093013593505050565b60008083601f8401126125ab57600080fd5b50813567ffffffffffffffff8111156125c357600080fd5b6020830191508360208285010111156125db57600080fd5b9250929050565b6000806000604084860312156125f757600080fd5b83359250602084013567ffffffffffffffff81111561261557600080fd5b61262186828701612599565b9497909650939450505050565b821515815260406020820152600061071b6040830184612519565b60008060006060848603121561265e57600080fd5b833561266981612558565b9250602084013561267981612558565b929592945050506040919091013590565b60006060828403121561269c57600080fd5b50919050565b6000806000806000806000610100888a0312156126be57600080fd5b6126c8898961268a565b9650606088013595506080880135945060a0880135935060c0880135925060e088013567ffffffffffffffff81111561270057600080fd5b61270c8a828b01612599565b989b979a50959850939692959293505050565b60006020828403121561273157600080fd5b813561129181612558565b60006020828403121561274e57600080fd5b5035919050565b634e487b7160e01b600052602160045260246000fd5b6003811061278957634e487b7160e01b600052602160045260246000fd5b9052565b602081526127c660208201835180516001600160a01b031682526020808201516001600160a81b03191690830152604090810151910152565b60208201516080820152604082015160a0820152606082015160c0820152608082015160e0820152600060a08301516101208061010085015261280d610140850183612519565b915060c08501516128208286018261276b565b5090949350505050565b6000806040838503121561283d57600080fd5b50508035926020909101359150565b60008060008060a0858703121561286257600080fd5b61286c868661268a565b935060608501359250608085013567ffffffffffffffff81111561288f57600080fd5b61289b87828801612599565b95989497509550505050565b634e487b7160e01b600052604160045260246000fd5b604051601f8201601f1916810167ffffffffffffffff811182821017156128e6576128e66128a7565b604052919050565b600067ffffffffffffffff821115612908576129086128a7565b50601f01601f191660200190565b6000806040838503121561292957600080fd5b82359150602083013567ffffffffffffffff81111561294757600080fd5b8301601f8101851361295857600080fd5b803561296b612966826128ee565b6128bd565b81815286602083850101111561298057600080fd5b816020840160208301376000602083830101528093505050509250929050565b600080604083850312156129b357600080fd5b82356129be81612558565b915060208301356129ce81612558565b809150509250929050565b60008060008060008060c087890312156129f257600080fd5b86359550612a03886020890161268a565b9450608087013567ffffffffffffffff80821115612a2057600080fd5b612a2c8a838b01612599565b909650945060a0890135915080821115612a4557600080fd5b50612a5289828a01612599565b979a9699509497509295939492505050565b8183823760009101908152919050565b60008251612a868184602087016124f5565b9190910192915050565b600060208284031215612aa257600080fd5b5051919050565b600060208284031215612abb57600080fd5b815160ff8116811461129157600080fd5b600060208284031215612ade57600080fd5b815163ffffffff8116811461129157600080fd5b80356001600160a81b031981168114612b0a57600080fd5b919050565b600060608284031215612b2157600080fd5b6040516060810181811067ffffffffffffffff82111715612b4457612b446128a7565b6040528235612b5281612558565b8152612b6060208401612af2565b6020820152604083013560408201528091505092915050565b600060208284031215612b8b57600080fd5b8151801515811461129157600080fd5b600060208284031215612bad57600080fd5b815167ffffffffffffffff811115612bc457600080fd5b8201601f81018413612bd557600080fd5b8051612be3612966826128ee565b818152856020838501011115612bf857600080fd5b6114968260208301602086016124f5565b600181811c90821680612c1d57607f821691505b60208210810361269c57634e487b7160e01b600052602260045260246000fd5b818352818160208501375060006020828401015260006020601f19601f840116840101905092915050565b60008535612c7581612558565b6001600160a01b031682526001600160a81b0319612c9560208801612af2565b1660208301526040860135604083015284606083015260a06080830152611bed60a083018486612c3d565b601f82111561112357600081815260208120601f850160051c81016020861015612ce75750805b601f850160051c820191505b81811015612d0657828155600101612cf3565b505050505050565b815167ffffffffffffffff811115612d2857612d286128a7565b612d3c81612d368454612c09565b84612cc0565b602080601f831160018114612d715760008415612d595750858301515b600019600386901b1c1916600185901b178555612d06565b600085815260208120601f198616915b82811015612da057888601518255948401946001909101908401612d81565b5085821015612dbe5787850151600019600388901b60f8161c191681555b5050505050600190811b01905550565b83516001600160a01b031681526020808501516001600160a81b031916908201526040808501519082015282606082015260a06080820152600061149660a0830184612519565b60006000198203612e3657634e487b7160e01b600052601160045260246000fd5b5060010190565b60008154612e4a81612c09565b808552602060018381168015612e675760018114612e8157612eaf565b60ff198516838901528284151560051b8901019550612eaf565b866000528260002060005b85811015612ea75781548a8201860152908301908401612e8c565b890184019650505b505050505092915050565b60208152600082546001600160a01b03811660208401526001600160a81b03198160081b166040840152506001830154606083015260028301546080830152600383015460a0830152600483015460c0830152600583015460e083015261012080610100840152612f32610140840160068601612e3d565b600785015460ff16612f468386018261276b565b50949350505050565b86815285602082015260a060408201526000612f6f60a083018688612c3d565b8281036060840152612f818186612519565b915050821515608083015297965050505050505056fe48544c433a20696e76616c6964206964206f72206465627420616c726561647920636c656172656448544c433a20646561646c696e65206e6f74207965742065787069726564206f7220696e76616c69642063616e63656c2073656372657448544c433a20696e76616c6964206964206f72206465627420616c726561647920636c6561726564207768696c6520636c6f73696e67a2646970667358221220d8b992dd14f0ebd434be33d66ebdf0d517646b7d09b5d584638c1c5321ac1e2764736f6c63430008110033",
  "linkReferences": {},
  "deployedLinkReferences": {}
}