{
  "_format": "hh-sol-artifact-1",
  "contractName": "Redemption",
  "sourceName": "src/Redemption.sol",
  "abi": [
    {
      "inputs": [
        {
          "internalType": "address",
          "name": "_registerContract",
          "type": "address"
        },
        {
          "internalType": "uint256",
          "name": "_maturityDate",
          "type": "uint256"
        },
        {
          "internalType": "uint256",
          "name": "_nbDays",
          "type": "uint256"
        },
        {
          "internalType": "uint256",
          "name": "_recordDate",
          "type": "uint256"
        },
        {
          "internalType": "uint256",
          "name": "_cutOfTime",
          "type": "uint256"
        }
      ],
      "stateMutability": "nonpayable",
      "type": "constructor"
    },
    {
      "anonymous": false,
      "inputs": [
        {
          "indexed": true,
          "internalType": "contract IRegister",
          "name": "register",
          "type": "address"
        },
        {
          "indexed": true,
          "internalType": "uint256",
          "name": "couponDate",
          "type": "uint256"
        },
        {
          "indexed": true,
          "internalType": "enum Coupon.CouponStatus",
          "name": "status",
          "type": "uint8"
        }
      ],
      "name": "CouponChanged",
      "type": "event"
    },
    {
      "anonymous": false,
      "inputs": [
        {
          "indexed": true,
          "internalType": "contract IRegister",
          "name": "register",
          "type": "address"
        },
        {
          "indexed": true,
          "internalType": "uint256",
          "name": "couponDate",
          "type": "uint256"
        },
        {
          "indexed": true,
          "internalType": "address",
          "name": "investor",
          "type": "address"
        },
        {
          "indexed": false,
          "internalType": "enum Coupon.PaymentStatus",
          "name": "status",
          "type": "uint8"
        },
        {
          "indexed": false,
          "internalType": "enum Coupon.PaymentStatus",
          "name": "previousStatus",
          "type": "uint8"
        }
      ],
      "name": "CouponPaymentStatusChanged",
      "type": "event"
    },
    {
      "anonymous": false,
      "inputs": [
        {
          "indexed": true,
          "internalType": "contract IRegister",
          "name": "register",
          "type": "address"
        },
        {
          "indexed": true,
          "internalType": "uint256",
          "name": "couponDate",
          "type": "uint256"
        },
        {
          "indexed": true,
          "internalType": "enum Coupon.CouponStatus",
          "name": "status",
          "type": "uint8"
        }
      ],
      "name": "RedemptionChanged",
      "type": "event"
    },
    {
      "anonymous": false,
      "inputs": [
        {
          "indexed": true,
          "internalType": "contract IRegister",
          "name": "register",
          "type": "address"
        },
        {
          "indexed": true,
          "internalType": "uint256",
          "name": "couponDate",
          "type": "uint256"
        },
        {
          "indexed": true,
          "internalType": "address",
          "name": "investor",
          "type": "address"
        },
        {
          "indexed": false,
          "internalType": "enum Coupon.PaymentStatus",
          "name": "status",
          "type": "uint8"
        },
        {
          "indexed": false,
          "internalType": "enum Coupon.PaymentStatus",
          "name": "previousStatus",
          "type": "uint8"
        }
      ],
      "name": "RedemptionPaymentStatusChanged",
      "type": "event"
    },
    {
      "inputs": [],
      "name": "couponDate",
      "outputs": [
        {
          "internalType": "uint256",
          "name": "",
          "type": "uint256"
        }
      ],
      "stateMutability": "view",
      "type": "function"
    },
    {
      "inputs": [],
      "name": "cutOfTime",
      "outputs": [
        {
          "internalType": "uint256",
          "name": "",
          "type": "uint256"
        }
      ],
      "stateMutability": "view",
      "type": "function"
    },
    {
      "inputs": [
        {
          "internalType": "address",
          "name": "_investor",
          "type": "address"
        }
      ],
      "name": "getInvestorPayments",
      "outputs": [
        {
          "internalType": "enum Coupon.PaymentStatus",
          "name": "",
          "type": "uint8"
        }
      ],
      "stateMutability": "view",
      "type": "function"
    },
    {
      "inputs": [
        {
          "internalType": "address",
          "name": "_investor",
          "type": "address"
        }
      ],
      "name": "getInvestorRedemptionPayments",
      "outputs": [
        {
          "internalType": "enum Coupon.PaymentStatus",
          "name": "",
          "type": "uint8"
        }
      ],
      "stateMutability": "view",
      "type": "function"
    },
    {
      "inputs": [
        {
          "internalType": "address",
          "name": "_investor",
          "type": "address"
        }
      ],
      "name": "getMaturityAmountForInvestor",
      "outputs": [
        {
          "internalType": "uint256",
          "name": "paymentAmount",
          "type": "uint256"
        }
      ],
      "stateMutability": "view",
      "type": "function"
    },
    {
      "inputs": [
        {
          "internalType": "address",
          "name": "_investor",
          "type": "address"
        }
      ],
      "name": "getPaymentAmountForInvestor",
      "outputs": [
        {
          "internalType": "uint256",
          "name": "paymentAmount",
          "type": "uint256"
        }
      ],
      "stateMutability": "view",
      "type": "function"
    },
    {
      "inputs": [],
      "name": "getTotalMaturityAmount",
      "outputs": [
        {
          "internalType": "uint256",
          "name": "paymentAmount",
          "type": "uint256"
        }
      ],
      "stateMutability": "view",
      "type": "function"
    },
    {
      "inputs": [],
      "name": "getTotalPaymentAmount",
      "outputs": [
        {
          "internalType": "uint256",
          "name": "paymentAmount",
          "type": "uint256"
        }
      ],
      "stateMutability": "view",
      "type": "function"
    },
    {
      "inputs": [
        {
          "internalType": "address",
          "name": "",
          "type": "address"
        }
      ],
      "name": "investorPayments",
      "outputs": [
        {
          "internalType": "enum Coupon.PaymentStatus",
          "name": "",
          "type": "uint8"
        }
      ],
      "stateMutability": "view",
      "type": "function"
    },
    {
      "inputs": [
        {
          "internalType": "address",
          "name": "",
          "type": "address"
        }
      ],
      "name": "investorRedemptionPayments",
      "outputs": [
        {
          "internalType": "enum Coupon.PaymentStatus",
          "name": "",
          "type": "uint8"
        }
      ],
      "stateMutability": "view",
      "type": "function"
    },
    {
      "inputs": [],
      "name": "nbDays",
      "outputs": [
        {
          "internalType": "uint256",
          "name": "",
          "type": "uint256"
        }
      ],
      "stateMutability": "view",
      "type": "function"
    },
    {
      "inputs": [],
      "name": "payingAgent",
      "outputs": [
        {
          "internalType": "address",
          "name": "",
          "type": "address"
        }
      ],
      "stateMutability": "view",
      "type": "function"
    },
    {
      "inputs": [
        {
          "internalType": "address",
          "name": "_investor",
          "type": "address"
        }
      ],
      "name": "paymentIdForInvest",
      "outputs": [
        {
          "internalType": "bytes8",
          "name": "",
          "type": "bytes8"
        }
      ],
      "stateMutability": "view",
      "type": "function"
    },
    {
      "inputs": [
        {
          "internalType": "address",
          "name": "_investor",
          "type": "address"
        }
      ],
      "name": "paymentIdRedemptionForInvest",
      "outputs": [
        {
          "internalType": "bytes8",
          "name": "",
          "type": "bytes8"
        }
      ],
      "stateMutability": "view",
      "type": "function"
    },
    {
      "inputs": [],
      "name": "recordDate",
      "outputs": [
        {
          "internalType": "uint256",
          "name": "",
          "type": "uint256"
        }
      ],
      "stateMutability": "view",
      "type": "function"
    },
    {
      "inputs": [],
      "name": "register",
      "outputs": [
        {
          "internalType": "contract IRegister",
          "name": "",
          "type": "address"
        }
      ],
      "stateMutability": "view",
      "type": "function"
    },
    {
      "inputs": [],
      "name": "rejectCoupon",
      "outputs": [],
      "stateMutability": "nonpayable",
      "type": "function"
    },
    {
      "inputs": [
        {
          "internalType": "uint256",
          "name": "_recordDate",
          "type": "uint256"
        },
        {
          "internalType": "uint256",
          "name": "_cutOfTime",
          "type": "uint256"
        }
      ],
      "name": "setCutOffTime",
      "outputs": [],
      "stateMutability": "nonpayable",
      "type": "function"
    },
    {
      "inputs": [],
      "name": "setDateAsCurrentCoupon",
      "outputs": [],
      "stateMutability": "nonpayable",
      "type": "function"
    },
    {
      "inputs": [
        {
          "internalType": "uint256",
          "name": "_nbDays",
          "type": "uint256"
        }
      ],
      "name": "setNbDays",
      "outputs": [],
      "stateMutability": "nonpayable",
      "type": "function"
    },
    {
      "inputs": [],
      "name": "status",
      "outputs": [
        {
          "internalType": "enum Coupon.CouponStatus",
          "name": "",
          "type": "uint8"
        }
      ],
      "stateMutability": "view",
      "type": "function"
    },
    {
      "inputs": [
        {
          "internalType": "address",
          "name": "_investor",
          "type": "address"
        }
      ],
      "name": "toggleCouponPayment",
      "outputs": [],
      "stateMutability": "nonpayable",
      "type": "function"
    },
    {
      "inputs": [
        {
          "internalType": "address",
          "name": "_investor",
          "type": "address"
        }
      ],
      "name": "toggleRedemptionPayment",
      "outputs": [],
      "stateMutability": "nonpayable",
      "type": "function"
    }
  ],
  "bytecode": "0x60806040523480156200001157600080fd5b5060405162002825380380620028258339810160408190526200003491620003df565b6001600055600780546001600160a01b0387166001600160a01b0319918216811790925560088054909116821790556040516338e5975560e21b8152336004820152869186918691869186919063e3965d5490602401602060405180830381865afa158015620000a8573d6000803e3d6000fd5b505050506040513d601f19601f82011682018060405250810190620000ce919062000436565b620001325760405162461bcd60e51b815260206004820152602960248201527f53656e646572206d757374206265206120506179696e672063616c63756c61746044820152681a5bdb881859d95b9d60ba1b60648201526084015b60405180910390fd5b6007546040516338e20fc560e11b8152600481018690526001600160a01b03909116906371c41f8a906024016020604051808303816000875af11580156200017e573d6000803e3d6000fd5b505050506040513d601f19601f82011682018060405250810190620001a4919062000436565b620001f25760405162461bcd60e51b815260206004820152601f60248201527f7468697320636f75706f6e4461746520646f6573206e6f742065786973747300604482015260640162000129565b600184905560028390556200020b620151808362000461565b62000217908362000484565b60035562000229620151808262000461565b6004908155600580546001600160a01b031916331790556008805460ff60a01b191690819055600160a01b900460ff16908111156200026c576200026c620004ac565b6001546007546040516001600160a01b03909116907fee1a084aa36acdbc1c32f808f87c6ef8ae26d4ad59293c32244b1b72466bb76090600090a4505060075460405163d4cdda9160e01b8152600481018990526001600160a01b03909116935063d4cdda91925060240190506020604051808303816000875af1158015620002f9573d6000803e3d6000fd5b505050506040513d601f19601f820116820180604052508101906200031f919062000436565b620003785760405162461bcd60e51b815260206004820152602260248201527f74686973206d61747572697479204461746520646f6573206e6f742065786973604482015261747360f01b606482015260840162000129565b600854600160a01b900460ff166004811115620003995762000399620004ac565b6001546007546040516001600160a01b03909116907f6f3decef32bc5575fa4154c177d28de83ad12af68ef61bf36ad7c5be081654df90600090a45050505050620004c2565b600080600080600060a08688031215620003f857600080fd5b85516001600160a01b03811681146200041057600080fd5b602087015160408801516060890151608090990151929a91995097965090945092505050565b6000602082840312156200044957600080fd5b815180151581146200045a57600080fd5b9392505050565b6000826200047f57634e487b7160e01b600052601260045260246000fd5b500690565b81810381811115620004a657634e487b7160e01b600052601160045260246000fd5b92915050565b634e487b7160e01b600052602160045260246000fd5b61235380620004d26000396000f3fe608060405234801561001057600080fd5b506004361061018d5760003560e01c806384cd8c86116100e3578063d64c05871161008c578063f4bcf20911610066578063f4bcf2091461039a578063f68a3ab4146103a2578063fd3b4442146103b557600080fd5b8063d64c058714610348578063d927a6061461035b578063e505222b1461038757600080fd5b8063b77fea01116100bd578063b77fea0114610309578063c4fa96b01461031c578063ccc5d7e91461032557600080fd5b806384cd8c86146102d557806386d49f77146102f85780639d5d5fa41461030157600080fd5b8063532e91cc116101455780636969a06f1161011f5780636969a06f146102a557806369fb125e146102af5780637c610024146102c257600080fd5b8063532e91cc1461023b5780635e4795a91461027f578063683fffd51461029257600080fd5b8063200d2ed211610176578063200d2ed2146101fb57806323bfa0f01461021c57806350cc45321461023257600080fd5b80631aa3a008146101925780631dd5fc63146101c2575b600080fd5b6007546101a5906001600160a01b031681565b6040516001600160a01b0390911681526020015b60405180910390f35b6101ee6101d0366004612162565b6001600160a01b03166000908152600a602052604090205460ff1690565b6040516101b991906121b0565b60085461020f90600160a01b900460ff1681565b6040516101b991906121c4565b6102246103be565b6040519081526020016101b9565b61022460035481565b61024e610249366004612162565b61056c565b6040517fffffffffffffffff00000000000000000000000000000000000000000000000090911681526020016101b9565b6005546101a5906001600160a01b031681565b6102246102a0366004612162565b6105b7565b6102ad6106d6565b005b6102246102bd366004612162565b610aca565b6102ad6102d03660046121de565b610c95565b6101ee6102e3366004612162565b600a6020526000908152604090205460ff1681565b61022460025481565b610224610e05565b6102ad610317366004612162565b610f10565b61022460015481565b6101ee610333366004612162565b60096020526000908152604090205460ff1681565b6102ad610356366004612162565b6117b5565b6101ee610369366004612162565b6001600160a01b031660009081526009602052604090205460ff1690565b61024e610395366004612162565b611da0565b6102ad611df8565b6102ad6103b03660046121f7565b611f5b565b61022460045481565b600080600760009054906101000a90046001600160a01b03166001600160a01b031663a7f2f6ec6040518163ffffffff1660e01b8152600401602060405180830381865afa158015610414573d6000803e3d6000fd5b505050506040513d601f19601f820116820180604052508101906104389190612219565b90506000600760009054906101000a90046001600160a01b03166001600160a01b03166339027f7c6040518163ffffffff1660e01b8152600401602060405180830381865afa15801561048f573d6000803e3d6000fd5b505050506040513d601f19601f820116820180604052508101906104b39190612219565b90506000600760009054906101000a90046001600160a01b03166001600160a01b03166318160ddd6040518163ffffffff1660e01b8152600401602060405180830381865afa15801561050a573d6000803e3d6000fd5b505050506040513d601f19601f8201168201806040525081019061052e9190612219565b905060006101686002548484876105459190612248565b61054f9190612248565b6105599190612248565b6105639190612275565b95945050505050565b6040516bffffffffffffffffffffffff1930606090811b8216602084015283901b1660348201526000906048015b604051602081830303815290604052805190602001209050919050565b600080600760009054906101000a90046001600160a01b03166001600160a01b031663a7f2f6ec6040518163ffffffff1660e01b8152600401602060405180830381865afa15801561060d573d6000803e3d6000fd5b505050506040513d601f19601f820116820180604052508101906106319190612219565b6008546001546040517f07b2d9e30000000000000000000000000000000000000000000000000000000081526001600160a01b03878116600483015260248201929092529293506000929116906307b2d9e390604401602060405180830381865afa1580156106a4573d6000803e3d6000fd5b505050506040513d601f19601f820116820180604052508101906106c89190612219565b905060006105638284612248565b6106de6120f4565b6007546040516338e5975560e21b81523360048201526001600160a01b039091169063e3965d5490602401602060405180830381865afa158015610726573d6000803e3d6000fd5b505050506040513d601f19601f8201168201806040525081019061074a9190612289565b6107ad5760405162461bcd60e51b815260206004820152602960248201527f53656e646572206d757374206265206120506179696e672063616c63756c61746044820152681a5bdb881859d95b9d60ba1b60648201526084015b60405180910390fd5b6000600854600160a01b900460ff1660048111156107cd576107cd612186565b1461084e5760405162461bcd60e51b8152602060048201526044602482018190527f54686520636f75706f6e20646174652063616e206265206d6f64696669656420908201527f6f6e6c792069662074686520636f6e74726163742073746174757320697320446064820152631c98599d60e21b608482015260a4016107a4565b6007546001546040517f71c41f8a0000000000000000000000000000000000000000000000000000000081526001600160a01b03909216916371c41f8a9161089c9160040190815260200190565b6020604051808303816000875af11580156108bb573d6000803e3d6000fd5b505050506040513d601f19601f820116820180604052508101906108df9190612289565b61092b5760405162461bcd60e51b815260206004820152601f60248201527f7468697320636f75706f6e4461746520646f6573206e6f74206578697374730060448201526064016107a4565b6007546001546004546003546001600160a01b0390931692633052974c9291610953916122ab565b6040517fffffffff0000000000000000000000000000000000000000000000000000000060e085901b16815260048101929092526024820152604401600060405180830381600087803b1580156109a957600080fd5b505af11580156109bd573d6000803e3d6000fd5b50505050600860009054906101000a90046001600160a01b03166001600160a01b0316639ef986de6040518163ffffffff1660e01b8152600401602060405180830381865afa158015610a14573d6000803e3d6000fd5b505050506040513d601f19601f82011682018060405250810190610a389190612219565b600655600880547fffffffffffffffffffffff00ffffffffffffffffffffffffffffffffffffffff16600160a01b90811791829055900460ff166004811115610a8357610a83612186565b6001546007546040516001600160a01b03909116907fee1a084aa36acdbc1c32f808f87c6ef8ae26d4ad59293c32244b1b72466bb76090600090a4610ac86001600055565b565b600080600760009054906101000a90046001600160a01b03166001600160a01b031663a7f2f6ec6040518163ffffffff1660e01b8152600401602060405180830381865afa158015610b20573d6000803e3d6000fd5b505050506040513d601f19601f82011682018060405250810190610b449190612219565b90506000600760009054906101000a90046001600160a01b03166001600160a01b03166339027f7c6040518163ffffffff1660e01b8152600401602060405180830381865afa158015610b9b573d6000803e3d6000fd5b505050506040513d601f19601f82011682018060405250810190610bbf9190612219565b6008546001546040517f07b2d9e30000000000000000000000000000000000000000000000000000000081526001600160a01b03888116600483015260248201929092529293506000929116906307b2d9e390604401602060405180830381865afa158015610c32573d6000803e3d6000fd5b505050506040513d601f19601f82011682018060405250810190610c569190612219565b90506000610168600254848487610c6d9190612248565b610c779190612248565b610c819190612248565b610c8b9190612275565b9695505050505050565b6007546040516338e5975560e21b81523360048201526001600160a01b039091169063e3965d5490602401602060405180830381865afa158015610cdd573d6000803e3d6000fd5b505050506040513d601f19601f82011682018060405250810190610d019190612289565b610d5f5760405162461bcd60e51b815260206004820152602960248201527f53656e646572206d757374206265206120506179696e672063616c63756c61746044820152681a5bdb881859d95b9d60ba1b60648201526084016107a4565b6000600854600160a01b900460ff166004811115610d7f57610d7f612186565b14610e005760405162461bcd60e51b8152602060048201526044602482018190527f54686520636f75706f6e20646174652063616e206265206d6f64696669656420908201527f6f6e6c792069662074686520636f6e74726163742073746174757320697320446064820152631c98599d60e21b608482015260a4016107a4565b600255565b600080600760009054906101000a90046001600160a01b03166001600160a01b031663a7f2f6ec6040518163ffffffff1660e01b8152600401602060405180830381865afa158015610e5b573d6000803e3d6000fd5b505050506040513d601f19601f82011682018060405250810190610e7f9190612219565b90506000600760009054906101000a90046001600160a01b03166001600160a01b03166318160ddd6040518163ffffffff1660e01b8152600401602060405180830381865afa158015610ed6573d6000803e3d6000fd5b505050506040513d601f19601f82011682018060405250810190610efa9190612219565b90506000610f088284612248565b949350505050565b610f186120f4565b6007546040517fc41251a10000000000000000000000000000000000000000000000000000000081526001600160a01b0383811660048301529091169063c41251a190602401602060405180830381865afa158015610f7b573d6000803e3d6000fd5b505050506040513d601f19601f82011682018060405250810190610f9f9190612289565b610feb5760405162461bcd60e51b815260206004820152601c60248201527f5468697320696e766573746f72206973206e6f7420616c6c6f7765640000000060448201526064016107a4565b6001600854600160a01b900460ff16600481111561100b5761100b612186565b1461107e5760405162461bcd60e51b815260206004820152602c60248201527f54686520737461747573206f662074686520526564656d7074696f6e2073686f60448201527f756c64206265205265616479000000000000000000000000000000000000000060648201526084016107a4565b6001600160a01b038181166000908152600a6020526040908190205460075491517f4361f92a00000000000000000000000000000000000000000000000000000000815233600482015260ff909116929190911690634361f92a90602401602060405180830381865afa1580156110f9573d6000803e3d6000fd5b505050506040513d601f19601f8201168201806040525081019061111d9190612289565b15611447576001600160a01b0382166000908152600a602052604081205460ff16600281111561114f5761114f612186565b036113775760065442116111cb5760405162461bcd60e51b815260206004820152602760248201527f746865206d6174757269747920637574206f662074696d6520686173206e6f7460448201527f207061737365640000000000000000000000000000000000000000000000000060648201526084016107a4565b6001600160a01b038281166000818152600a6020526040808220805460ff1916600117905560075490517f70a082310000000000000000000000000000000000000000000000000000000081526004810193909352909216906370a0823190602401602060405180830381865afa15801561124a573d6000803e3d6000fd5b505050506040513d601f19601f8201168201806040525081019061126e9190612219565b90508015611371576007546040517fabc2cf2a0000000000000000000000000000000000000000000000000000000081526001600160a01b0385811660048301529091169063abc2cf2a906024016020604051808303816000875af11580156112db573d6000803e3d6000fd5b505050506040513d601f19601f820116820180604052508101906112ff9190612289565b6113715760405162461bcd60e51b815260206004820152602260248201527f72657475726e2062616c616e636520657870656374656420627574206661696c60448201527f656400000000000000000000000000000000000000000000000000000000000060648201526084016107a4565b50611743565b60016001600160a01b0383166000908152600a602052604090205460ff1660028111156113a6576113a6612186565b036113d7576001600160a01b0382166000908152600a60205260408120805460ff19166001835b0217905550611743565b6040805162461bcd60e51b81526020600482015260248101919091527f54686520737461747573206f66207468697320696e766573746f72277320706160448201527f796d656e742073686f756c642062652050616964206f7220546f42655061696460648201526084016107a4565b6007546040517f35c80c8c0000000000000000000000000000000000000000000000000000000081523360048201526001600160a01b03909116906335c80c8c90602401602060405180830381865afa1580156114a8573d6000803e3d6000fd5b505050506040513d601f19601f820116820180604052508101906114cc9190612289565b156116d5576007546040517f8f92f4900000000000000000000000000000000000000000000000000000000081526001600160a01b03848116600483015233921690638f92f49090602401602060405180830381865afa158015611534573d6000803e3d6000fd5b505050506040513d601f19601f8201168201806040525081019061155891906122be565b6001600160a01b0316146115d45760405162461bcd60e51b815260206004820152602660248201527f596f7520617265206e6f7420637573746f6469616e206f66207468697320696e60448201527f766573746f72000000000000000000000000000000000000000000000000000060648201526084016107a4565b60016001600160a01b0383166000908152600a602052604090205460ff16600281111561160357611603612186565b03611630576001600160a01b0382166000908152600a60205260409020805460ff19166002179055611743565b60026001600160a01b0383166000908152600a602052604090205460ff16600281111561165f5761165f612186565b0361168d576001600160a01b0382166000908152600a6020526040902080546001919060ff191682806113cd565b60405162461bcd60e51b815260206004820152601d60248201527f496e76616c696420436f75706f6e207061796d656e742073746174757300000060448201526064016107a4565b60405162461bcd60e51b815260206004820152603260248201527f73656e646572206d7573742062652043656e7472616c204163636f756e74204b60448201527f6565706572206f7220437573746f6469616e000000000000000000000000000060648201526084016107a4565b6001546007546001600160a01b038085166000818152600a602052604090819020549051919493909216917f5015a18308d4635883292e9e27e8d94d9fc784749d47aa7f18d6f3ad2ad97e739161179f9160ff169087906122db565b60405180910390a4506117b26001600055565b50565b6007546040517fc41251a10000000000000000000000000000000000000000000000000000000081526001600160a01b0383811660048301529091169063c41251a190602401602060405180830381865afa158015611818573d6000803e3d6000fd5b505050506040513d601f19601f8201168201806040525081019061183c9190612289565b6118885760405162461bcd60e51b815260206004820152601c60248201527f5468697320696e766573746f72206973206e6f7420616c6c6f7765640000000060448201526064016107a4565b6001600854600160a01b900460ff1660048111156118a8576118a8612186565b1461191b5760405162461bcd60e51b815260206004820152602860248201527f54686520737461747573206f662074686520636f75706f6e2073686f756c642060448201527f626520526561647900000000000000000000000000000000000000000000000060648201526084016107a4565b6001600160a01b03818116600090815260096020526040908190205460075491517f4361f92a00000000000000000000000000000000000000000000000000000000815233600482015260ff909116929190911690634361f92a90602401602060405180830381865afa158015611996573d6000803e3d6000fd5b505050506040513d601f19601f820116820180604052508101906119ba9190612289565b15611af0576001600160a01b03821660009081526009602052604081205460ff1660028111156119ec576119ec612186565b03611a97576006544211611a685760405162461bcd60e51b815260206004820152602560248201527f74686520636f75706f6e20637574206f662074696d6520686173206e6f74207060448201527f617373656400000000000000000000000000000000000000000000000000000060648201526084016107a4565b6001600160a01b038216600090815260096020526040902080546001919060ff191682805b0217905550611d38565b60016001600160a01b03831660009081526009602052604090205460ff166002811115611ac657611ac6612186565b036113d7576001600160a01b0382166000908152600960205260409020805460ff19169055611d38565b6007546040517f35c80c8c0000000000000000000000000000000000000000000000000000000081523360048201526001600160a01b03909116906335c80c8c90602401602060405180830381865afa158015611b51573d6000803e3d6000fd5b505050506040513d601f19601f82011682018060405250810190611b759190612289565b156116d5576007546040517f8f92f4900000000000000000000000000000000000000000000000000000000081526001600160a01b03848116600483015233921690638f92f49090602401602060405180830381865afa158015611bdd573d6000803e3d6000fd5b505050506040513d601f19601f82011682018060405250810190611c0191906122be565b6001600160a01b031614611c7d5760405162461bcd60e51b815260206004820152602660248201527f596f7520617265206e6f7420637573746f6469616e206f66207468697320696e60448201527f766573746f72000000000000000000000000000000000000000000000000000060648201526084016107a4565b60016001600160a01b03831660009081526009602052604090205460ff166002811115611cac57611cac612186565b03611cdb576001600160a01b038216600090815260096020526040902080546002919060ff1916600183611a8d565b60026001600160a01b03831660009081526009602052604090205460ff166002811115611d0a57611d0a612186565b0361168d576001600160a01b038216600090815260096020526040902080546001919060ff19168280611a8d565b6001546007546001600160a01b0380851660008181526009602052604090819020549051919493909216917f71a813fb36e2b43b4fcd5b541937f3501c4bb733759aa470d700efb9b7fd5b1491611d949160ff169087906122db565b60405180910390a45050565b6040516bffffffffffffffffffffffff1930606090811b8216602084015283901b1660348201527f726564656d7074696f6e00000000000000000000000000000000000000000000604882015260009060520161059a565b6007546040516338e5975560e21b81523360048201526001600160a01b039091169063e3965d5490602401602060405180830381865afa158015611e40573d6000803e3d6000fd5b505050506040513d601f19601f82011682018060405250810190611e649190612289565b611ec25760405162461bcd60e51b815260206004820152602960248201527f53656e646572206d757374206265206120506179696e672063616c63756c61746044820152681a5bdb881859d95b9d60ba1b60648201526084016107a4565b600880547fffffffffffffffffffffff00ffffffffffffffffffffffffffffffffffffffff16740200000000000000000000000000000000000000001790819055600160a01b900460ff166004811115611f1e57611f1e612186565b6001546007546040516001600160a01b03909116907fee1a084aa36acdbc1c32f808f87c6ef8ae26d4ad59293c32244b1b72466bb76090600090a4565b6007546040516338e5975560e21b81523360048201526001600160a01b039091169063e3965d5490602401602060405180830381865afa158015611fa3573d6000803e3d6000fd5b505050506040513d601f19601f82011682018060405250810190611fc79190612289565b6120255760405162461bcd60e51b815260206004820152602960248201527f53656e646572206d757374206265206120506179696e672063616c63756c61746044820152681a5bdb881859d95b9d60ba1b60648201526084016107a4565b6000600854600160a01b900460ff16600481111561204557612045612186565b146120c65760405162461bcd60e51b8152602060048201526044602482018190527f54686520636f75706f6e20646174652063616e206265206d6f64696669656420908201527f6f6e6c792069662074686520636f6e74726163742073746174757320697320446064820152631c98599d60e21b608482015260a4016107a4565b6120d362015180836122f6565b6120dd908361230a565b6003556120ed62015180826122f6565b6004555050565b6002600054036121465760405162461bcd60e51b815260206004820152601f60248201527f5265656e7472616e637947756172643a207265656e7472616e742063616c6c0060448201526064016107a4565b6002600055565b6001600160a01b03811681146117b257600080fd5b60006020828403121561217457600080fd5b813561217f8161214d565b9392505050565b634e487b7160e01b600052602160045260246000fd5b600381106121ac576121ac612186565b9052565b602081016121be828461219c565b92915050565b60208101600583106121d8576121d8612186565b91905290565b6000602082840312156121f057600080fd5b5035919050565b6000806040838503121561220a57600080fd5b50508035926020909101359150565b60006020828403121561222b57600080fd5b5051919050565b634e487b7160e01b600052601160045260246000fd5b80820281158282048414176121be576121be612232565b634e487b7160e01b600052601260045260246000fd5b6000826122845761228461225f565b500490565b60006020828403121561229b57600080fd5b8151801515811461217f57600080fd5b808201808211156121be576121be612232565b6000602082840312156122d057600080fd5b815161217f8161214d565b604081016122e9828561219c565b61217f602083018461219c565b6000826123055761230561225f565b500690565b818103818111156121be576121be61223256fea2646970667358221220987b0bcdeb4329a32be3ef3d1c634220dbd3435ea2cfb71a1b7d3640694643aa64736f6c63430008110033",
  "linkReferences": {},
  "deployedLinkReferences": {}
}