{
  "_format": "hh-sol-artifact-1",
  "contractName": "InvestorManagementInternal",
  "sourceName": "contracts/register/investors/InvestorManagementInternal.sol",
  "abi": [
    {
      "inputs": [],
      "name": "EnumerableSet__IndexOutOfBounds",
      "type": "error"
    },
    {
      "inputs": [],
      "name": "UintUtils__InsufficientHexLength",
      "type": "error"
    },
    {
      "anonymous": false,
      "inputs": [
        {
          "indexed": true,
          "internalType": "address",
          "name": "_addressForNewAdmin",
          "type": "address"
        }
      ],
      "name": "AdminChanged",
      "type": "event"
    },
    {
      "anonymous": false,
      "inputs": [
        {
          "indexed": false,
          "internalType": "address",
          "name": "investor",
          "type": "address"
        }
      ],
      "name": "DisableInvestor",
      "type": "event"
    },
    {
      "anonymous": false,
      "inputs": [
        {
          "indexed": false,
          "internalType": "address",
          "name": "investor",
          "type": "address"
        }
      ],
      "name": "EnableInvestor",
      "type": "event"
    },
    {
      "anonymous": false,
      "inputs": [
        {
          "indexed": false,
          "internalType": "uint64",
          "name": "version",
          "type": "uint64"
        }
      ],
      "name": "Initialized",
      "type": "event"
    },
    {
      "anonymous": false,
      "inputs": [
        {
          "indexed": true,
          "internalType": "bytes32",
          "name": "role",
          "type": "bytes32"
        },
        {
          "indexed": true,
          "internalType": "bytes32",
          "name": "previousAdminRole",
          "type": "bytes32"
        },
        {
          "indexed": true,
          "internalType": "bytes32",
          "name": "newAdminRole",
          "type": "bytes32"
        }
      ],
      "name": "RoleAdminChanged",
      "type": "event"
    },
    {
      "anonymous": false,
      "inputs": [
        {
          "indexed": true,
          "internalType": "bytes32",
          "name": "role",
          "type": "bytes32"
        },
        {
          "indexed": true,
          "internalType": "address",
          "name": "account",
          "type": "address"
        },
        {
          "indexed": true,
          "internalType": "address",
          "name": "sender",
          "type": "address"
        }
      ],
      "name": "RoleGranted",
      "type": "event"
    },
    {
      "anonymous": false,
      "inputs": [
        {
          "indexed": true,
          "internalType": "bytes32",
          "name": "role",
          "type": "bytes32"
        },
        {
          "indexed": true,
          "internalType": "address",
          "name": "account",
          "type": "address"
        },
        {
          "indexed": true,
          "internalType": "address",
          "name": "sender",
          "type": "address"
        }
      ],
      "name": "RoleRevoked",
      "type": "event"
    },
    {
      "anonymous": false,
      "inputs": [
        {
          "indexed": true,
          "internalType": "address",
          "name": "toBeAdded",
          "type": "address"
        }
      ],
      "name": "WalletAddedToWhitelist",
      "type": "event"
    },
    {
      "anonymous": false,
      "inputs": [
        {
          "indexed": true,
          "internalType": "address",
          "name": "toBeDeleted",
          "type": "address"
        }
      ],
      "name": "WalletDeletedFromWhitelist",
      "type": "event"
    },
    {
      "inputs": [],
      "name": "BND_ROLE",
      "outputs": [
        {
          "internalType": "bytes32",
          "name": "",
          "type": "bytes32"
        }
      ],
      "stateMutability": "view",
      "type": "function"
    },
    {
      "inputs": [],
      "name": "CAK_ROLE",
      "outputs": [
        {
          "internalType": "bytes32",
          "name": "",
          "type": "bytes32"
        }
      ],
      "stateMutability": "view",
      "type": "function"
    },
    {
      "inputs": [],
      "name": "CST_ROLE",
      "outputs": [
        {
          "internalType": "bytes32",
          "name": "",
          "type": "bytes32"
        }
      ],
      "stateMutability": "view",
      "type": "function"
    },
    {
      "inputs": [],
      "name": "PAY_ROLE",
      "outputs": [
        {
          "internalType": "bytes32",
          "name": "",
          "type": "bytes32"
        }
      ],
      "stateMutability": "view",
      "type": "function"
    },
    {
      "inputs": [
        {
          "internalType": "bytes32",
          "name": "role",
          "type": "bytes32"
        }
      ],
      "name": "getRoleAdmin",
      "outputs": [
        {
          "internalType": "bytes32",
          "name": "",
          "type": "bytes32"
        }
      ],
      "stateMutability": "view",
      "type": "function"
    },
    {
      "inputs": [
        {
          "internalType": "bytes32",
          "name": "role",
          "type": "bytes32"
        },
        {
          "internalType": "uint256",
          "name": "index",
          "type": "uint256"
        }
      ],
      "name": "getRoleMember",
      "outputs": [
        {
          "internalType": "address",
          "name": "",
          "type": "address"
        }
      ],
      "stateMutability": "view",
      "type": "function"
    },
    {
      "inputs": [
        {
          "internalType": "bytes32",
          "name": "role",
          "type": "bytes32"
        }
      ],
      "name": "getRoleMemberCount",
      "outputs": [
        {
          "internalType": "uint256",
          "name": "",
          "type": "uint256"
        }
      ],
      "stateMutability": "view",
      "type": "function"
    },
    {
      "inputs": [
        {
          "internalType": "bytes32",
          "name": "role",
          "type": "bytes32"
        },
        {
          "internalType": "address",
          "name": "account",
          "type": "address"
        }
      ],
      "name": "grantRole",
      "outputs": [],
      "stateMutability": "nonpayable",
      "type": "function"
    },
    {
      "inputs": [
        {
          "internalType": "bytes32",
          "name": "role",
          "type": "bytes32"
        },
        {
          "internalType": "address",
          "name": "account",
          "type": "address"
        }
      ],
      "name": "hasRole",
      "outputs": [
        {
          "internalType": "bool",
          "name": "",
          "type": "bool"
        }
      ],
      "stateMutability": "view",
      "type": "function"
    },
    {
      "inputs": [
        {
          "internalType": "bytes32",
          "name": "role",
          "type": "bytes32"
        }
      ],
      "name": "renounceRole",
      "outputs": [],
      "stateMutability": "nonpayable",
      "type": "function"
    },
    {
      "inputs": [
        {
          "internalType": "bytes32",
          "name": "role",
          "type": "bytes32"
        },
        {
          "internalType": "address",
          "name": "account",
          "type": "address"
        }
      ],
      "name": "revokeRole",
      "outputs": [],
      "stateMutability": "nonpayable",
      "type": "function"
    }
  ],
  "bytecode": "0x608060405234801561001057600080fd5b50610e24806100206000396000f3fe608060405234801561001057600080fd5b50600436106100c95760003560e01c80638865f1e21161008157806391d148541161005b57806391d14854146101e3578063ca15c87314610206578063d547741f1461021957600080fd5b80638865f1e21461017e5780638bb9c5bf146101a55780639010d07c146101b857600080fd5b80632682ac91116100b25780632682ac911461011b5780632f2ff15d146101425780633bf2a9f41461015757600080fd5b80631c67a363146100ce578063248a9ca314610108575b600080fd5b6100f57f6ba6f588bcdc2df8426603a466c98ab15e79f7fb7f37b53581ce39c1d01b724981565b6040519081526020015b60405180910390f35b6100f5610116366004610c1d565b61022c565b6100f57ff698af62c65280e4949bceec64b760f3b7738217cbc536cdfc4c9463676b05c281565b610155610150366004610c36565b610264565b005b6100f57fd7aa2ddfa4e381128202bf365b7e0a176f2fca6cdf2f23c2b0a6f4393769589081565b6100f57fa75205b8583660bdad375c0ccde11af17668d76a408a9a5e739251b0f7c5987081565b6101556101b3366004610c1d565b6102ad565b6101cb6101c6366004610c72565b6102b9565b6040516001600160a01b0390911681526020016100ff565b6101f66101f1366004610c36565b6102cc565b60405190151581526020016100ff565b6100f5610214366004610c1d565b6102d8565b610155610227366004610c36565b6102e3565b60008181527f2e59e4c2e927cdddbb64e181e0668d9a0fa70dd88f94d999cd87d5496a20da6260205260408120600201545b92915050565b60008281527f2e59e4c2e927cdddbb64e181e0668d9a0fa70dd88f94d999cd87d5496a20da62602052604090206002015461029e81610327565b6102a88383610331565b505050565b6102b6816104ec565b50565b60006102c583836104f6565b9392505050565b60006102c5838361052d565b600061025e82610564565b60008281527f2e59e4c2e927cdddbb64e181e0668d9a0fa70dd88f94d999cd87d5496a20da62602052604090206002015461031d81610327565b6102a8838361059a565b6102b68133610741565b816103945760405162461bcd60e51b8152602060048201526024808201527f5573652066756e6374696f6e206368616e676541646d696e526f6c6520696e736044820152631d19585960e21b60648201526084015b60405180910390fd5b6104de565b7fa75205b8583660bdad375c0ccde11af17668d76a408a9a5e739251b0f7c598708203610468576103e57fa75205b8583660bdad375c0ccde11af17668d76a408a9a5e739251b0f7c598703361052d565b806103f657506103f660003361052d565b61038f5760405162461bcd60e51b815260206004820152602e60248201527f43616c6c6572206d7573742062652043414b206f722041444d494e20746f207360448201527f657420616e6f746865722043414b0000000000000000000000000000000000006064820152608401610386565b6104927fa75205b8583660bdad375c0ccde11af17668d76a408a9a5e739251b0f7c598703361052d565b6104de5760405162461bcd60e51b815260206004820181905260248201527f43616c6c6572206d7573742062652043414b20746f20736574206120726f6c656044820152606401610386565b6104e882826107a3565b5050565b6102b6813361059a565b60008281527f2e59e4c2e927cdddbb64e181e0668d9a0fa70dd88f94d999cd87d5496a20da62602052604081206102c59083610817565b60008281527f2e59e4c2e927cdddbb64e181e0668d9a0fa70dd88f94d999cd87d5496a20da62602052604081206102c59083610823565b60008181527f2e59e4c2e927cdddbb64e181e0668d9a0fa70dd88f94d999cd87d5496a20da626020526040812061025e90610845565b816105f35760405162461bcd60e51b8152602060048201526024808201527f5573652066756e6374696f6e206368616e676541646d696e526f6c6520696e736044820152631d19585960e21b6064820152608401610386565b7fa75205b8583660bdad375c0ccde11af17668d76a408a9a5e739251b0f7c59870820361069b5761062560003361052d565b6106965760405162461bcd60e51b8152602060048201526024808201527f43616c6c6572206d7573742062652041444d494e20746f2072656d6f7665206160448201527f2043414b000000000000000000000000000000000000000000000000000000006064820152608401610386565b610737565b6106c57fa75205b8583660bdad375c0ccde11af17668d76a408a9a5e739251b0f7c598703361052d565b6107375760405162461bcd60e51b815260206004820152602360248201527f43616c6c6572206d7573742062652043414b20746f2072656d6f76652061207260448201527f6f6c6500000000000000000000000000000000000000000000000000000000006064820152608401610386565b6104e8828261084f565b61074b828261052d565b6104e857610761816001600160a01b03166108c3565b61076c8360206108d5565b60405160200161077d929190610cb8565b60408051601f198184030181529082905262461bcd60e51b825261038691600401610d39565b60008281527f2e59e4c2e927cdddbb64e181e0668d9a0fa70dd88f94d999cd87d5496a20da62602052604090206107da9082610a86565b5060405133906001600160a01b0383169084907f2f8788117e7eff1d82e926ec794901d17c78024a50270940304540a733656f0d90600090a45050565b60006102c58383610a9b565b6001600160a01b038116600090815260018301602052604081205415156102c5565b600061025e825490565b60008281527f2e59e4c2e927cdddbb64e181e0668d9a0fa70dd88f94d999cd87d5496a20da62602052604090206108869082610b00565b5060405133906001600160a01b0383169084907ff6391f5c32d9c69d2a47ea670b442974b53935d1edc7fd64eb21e047a839171b90600090a45050565b606061025e6001600160a01b03831660145b606060006108e4836002610d82565b6108ef906002610d99565b67ffffffffffffffff81111561090757610907610dac565b6040519080825280601f01601f191660200182016040528015610931576020820181803683370190505b5090507f30000000000000000000000000000000000000000000000000000000000000008160008151811061096857610968610dc2565b60200101906001600160f81b031916908160001a9053507f7800000000000000000000000000000000000000000000000000000000000000816001815181106109b3576109b3610dc2565b60200101906001600160f81b031916908160001a905350600160028402015b6001811115610a4d577f303132333435363738396162636465660000000000000000000000000000000085600f1660108110610a1057610a10610dc2565b1a60f81b828281518110610a2657610a26610dc2565b60200101906001600160f81b031916908160001a90535060049490941c93600019016109d2565b5083156102c5576040517fc913478500000000000000000000000000000000000000000000000000000000815260040160405180910390fd5b60006102c5836001600160a01b038416610b15565b81546000908210610ad8576040517fe637bf3b00000000000000000000000000000000000000000000000000000000815260040160405180910390fd5b826000018281548110610aed57610aed610dc2565b9060005260206000200154905092915050565b60006102c5836001600160a01b038416610b58565b600081815260018301602052604081205461025e575081546001808201845560008481526020808220909301849055845493815293810190915260409092205590565b60008181526001830160205260408120548015610c1657835460009085906000198101908110610b8a57610b8a610dc2565b9060005260206000200154905080856000016001840381548110610bb057610bb0610dc2565b6000918252602080832090910192909255918252600186019052604090208190558354849080610be257610be2610dd8565b6001900381819060005260206000200160009055905583600101600084815260200190815260200160002060009055600191505b5092915050565b600060208284031215610c2f57600080fd5b5035919050565b60008060408385031215610c4957600080fd5b8235915060208301356001600160a01b0381168114610c6757600080fd5b809150509250929050565b60008060408385031215610c8557600080fd5b50508035926020909101359150565b60005b83811015610caf578181015183820152602001610c97565b50506000910152565b7f416363657373436f6e74726f6c3a206163636f756e7420000000000000000000815260008351610cf0816017850160208801610c94565b7f206973206d697373696e6720726f6c65200000000000000000000000000000006017918401918201528351610d2d816028840160208801610c94565b01602801949350505050565b6020815260008251806020840152610d58816040850160208701610c94565b601f01601f19169190910160400192915050565b634e487b7160e01b600052601160045260246000fd5b808202811582820484141761025e5761025e610d6c565b8082018082111561025e5761025e610d6c565b634e487b7160e01b600052604160045260246000fd5b634e487b7160e01b600052603260045260246000fd5b634e487b7160e01b600052603160045260246000fdfea264697066735822122063a42a9ebfc40171e8454b014d308c713473d075f5dae7312c7d1dd55d1efc4464736f6c63430008140033",
  "linkReferences": {},
  "deployedLinkReferences": {}
}