{
	"data": {
		"bytecode": {
			"linkReferences": {},
			"object": "608060405230602160006101000a81548173ffffffffffffffffffffffffffffffffffffffff021916908373ffffffffffffffffffffffffffffffffffffffff1602179055503480156200005257600080fd5b506040516200b08e3803806200b08e833981810160405281019062000078919062000f38565b8a8a6200008f6000801b33620003f260201b60201c565b620000c17fa75205b8583660bdad375c0ccde11af17668d76a408a9a5e739251b0f7c59870806200040860201b60201c565b33600160006101000a81548173ffffffffffffffffffffffffffffffffffffffff021916908373ffffffffffffffffffffffffffffffffffffffff160217905550620001347fa75205b8583660bdad375c0ccde11af17668d76a408a9a5e739251b0f7c5987033620003f260201b60201c565b620001867ff698af62c65280e4949bceec64b760f3b7738217cbc536cdfc4c9463676b05c27fa75205b8583660bdad375c0ccde11af17668d76a408a9a5e739251b0f7c598706200040860201b60201c565b620001d87f6ba6f588bcdc2df8426603a466c98ab15e79f7fb7f37b53581ce39c1d01b72497fa75205b8583660bdad375c0ccde11af17668d76a408a9a5e739251b0f7c598706200040860201b60201c565b6200022a7fd7aa2ddfa4e381128202bf365b7e0a176f2fca6cdf2f23c2b0a6f439376958907fa75205b8583660bdad375c0ccde11af17668d76a408a9a5e739251b0f7c598706200040860201b60201c565b81600790816200023b9190620012e3565b5080600890816200024d9190620012e3565b5050508a60166000019081620002649190620012e3565b508960166001019081620002799190620012e3565b50886016600201819055508760166003018190555086601660040181905550856016600501819055508460166006018190555083601660070181905550826016600801819055508160166009019080519060200190620002db92919062000be3565b50806016600a0181905550620002f66200046b60201b60201c565b6000601560006101000a81548160ff021916908360048111156200031f576200031e620013ca565b5b02179055503373ffffffffffffffffffffffffffffffffffffffff167f9c99cfc2b1740648876aee40ef245ae7527339df99966fd618b900e61bc76e758c8c6040516200036e9291906200144b565b60405180910390a23373ffffffffffffffffffffffffffffffffffffffff167fda2010acfda7a262372331cb3b57e3f648f63eb009a423a2b5602cfa4f9bff5160166000016016600101601560009054906101000a900460ff16604051620003d99392919062001567565b60405180910390a25050505050505050505050620019c8565b6200040482826200055d60201b60201c565b5050565b60006200041b836200064e60201b60201c565b905081600080858152602001908152602001600020600101819055508181847fbd79b86ffe0ab8e8776151514217cd7cacd52c909f66475c3af44e129f0b00ff60405160405180910390a4505050565b60006200047e426200066d60201b60201c565b509050600080601660090180549050831015620005255760166009018381548110620004af57620004ae620015b2565b5b90600052602060002001549150601660090180549050600184620004d4919062001610565b101562000516576016600901600184620004ef919062001610565b81548110620005035762000502620015b2565b5b906000526020600020015490506200051f565b60166008015490505b62000532565b6016600801549150600090505b62000557826016600a0154846200054a919062001610565b836200072560201b60201c565b50505050565b6200056f82826200078a60201b60201c565b6200064a57600160008084815260200190815260200160002060000160008373ffffffffffffffffffffffffffffffffffffffff1673ffffffffffffffffffffffffffffffffffffffff16815260200190815260200160002060006101000a81548160ff021916908315150217905550620005ef620007f460201b60201c565b73ffffffffffffffffffffffffffffffffffffffff168173ffffffffffffffffffffffffffffffffffffffff16837f2f8788117e7eff1d82e926ec794901d17c78024a50270940304540a733656f0d60405160405180910390a45b5050565b6000806000838152602001908152602001600020600101549050919050565b60008060005b6016600901805490508110156200070f5783601660090182815481106200069f576200069e620015b2565b5b906000526020600020015403620006be57806001925092505062000720565b8360166009018281548110620006d957620006d8620015b2565b5b90600052602060002001541115620006f957806000925092505062000720565b808062000706906200164b565b91505062000673565b506016600901805490506000915091505b915091565b600060105484146200074a5762000744848484620007fc60201b60201c565b6200077f565b6200075f600f546000620009e660201b60201c565b82146200077e576200077d601054600e5484620007fc60201b60201c565b5b5b600190509392505050565b600080600084815260200190815260200160002060000160008373ffffffffffffffffffffffffffffffffffffffff1673ffffffffffffffffffffffffffffffffffffffff16815260200190815260200160002060009054906101000a900460ff16905092915050565b600033905090565b600062000811836000620009e660201b60201c565b90508381111562000859576040517f08c379a000000000000000000000000000000000000000000000000000000000815260040162000850906200170e565b60405180910390fd5b60008214806200086857508382115b620008aa576040517f08c379a0000000000000000000000000000000000000000000000000000000008152600401620008a190620017a6565b60405180910390fd5b6000620008bf856000620009e660201b60201c565b905060008390506000811115620008e557620008e28186620009e660201b60201c565b90505b6000600d600084815260200190815260200160002054146200093e576040517f08c379a000000000000000000000000000000000000000000000000000000000815260040162000935906200183e565b60405180910390fd5b84421062000983576040517f08c379a00000000000000000000000000000000000000000000000000000000081526004016200097a90620018d6565b60405180910390fd5b6200099362000a3660201b60201c565b5084600e819055508160108190555080600f81905550600f54600e546010547f4d1d74d5cbfc13e02ef05af3a30d8721e87a00d20bc3dc42198917139944def360405160405180910390a4505050505050565b6000806201518084620009fa919062001927565b9050808462000a0a91906200195f565b9150620151808362000a1d919062001927565b9050808262000a2d919062001610565b91505092915050565b600080600e5411801562000a5f57506000600d6000601054815260200190815260200160002054145b801562000a6e5750600e544210155b1562000b2c57600062000a8662000b3460201b60201c565b905080600d60006010548152602001908152602001600020819055506000600f541162000ab557600062000acc565b62000acb600f54600e54620009e660201b60201c565b5b600e8190555062000ae7600e546000620009e660201b60201c565b601081905550600f54600e546010547f4d1d74d5cbfc13e02ef05af3a30d8721e87a00d20bc3dc42198917139944def360405160405180910390a48091505062000b31565b600090505b90565b600062000b4d600c62000ba160201b62004adf1760201c565b600062000b5f62000bb760201b60201c565b90507f8030e83b04d87bef53480e26263266d6ca66863aa8506aca6f2559d18aa1cb678160405162000b929190620019ab565b60405180910390a18091505090565b6001816000016000828254019250508190555050565b600062000bd0600c62000bd560201b62004af51760201c565b905090565b600081600001549050919050565b82805482825590600052602060002090810192821562000c22579160200282015b8281111562000c2157825182559160200191906001019062000c04565b5b50905062000c31919062000c35565b5090565b5b8082111562000c5057600081600090555060010162000c36565b5090565b6000604051905090565b600080fd5b600080fd5b600080fd5b600080fd5b6000601f19601f8301169050919050565b7f4e487b7100000000000000000000000000000000000000000000000000000000600052604160045260246000fd5b62000cbd8262000c72565b810181811067ffffffffffffffff8211171562000cdf5762000cde62000c83565b5b80604052505050565b600062000cf462000c54565b905062000d02828262000cb2565b919050565b600067ffffffffffffffff82111562000d255762000d2462000c83565b5b62000d308262000c72565b9050602081019050919050565b60005b8381101562000d5d57808201518184015260208101905062000d40565b60008484015250505050565b600062000d8062000d7a8462000d07565b62000ce8565b90508281526020810184848401111562000d9f5762000d9e62000c6d565b5b62000dac84828562000d3d565b509392505050565b600082601f83011262000dcc5762000dcb62000c68565b5b815162000dde84826020860162000d69565b91505092915050565b6000819050919050565b62000dfc8162000de7565b811462000e0857600080fd5b50565b60008151905062000e1c8162000df1565b92915050565b6000819050919050565b62000e378162000e22565b811462000e4357600080fd5b50565b60008151905062000e578162000e2c565b92915050565b600067ffffffffffffffff82111562000e7b5762000e7a62000c83565b5b602082029050602081019050919050565b600080fd5b600062000ea862000ea28462000e5d565b62000ce8565b9050808382526020820190506020840283018581111562000ece5762000ecd62000e8c565b5b835b8181101562000efb578062000ee6888262000e0b565b84526020840193505060208101905062000ed0565b5050509392505050565b600082601f83011262000f1d5762000f1c62000c68565b5b815162000f2f84826020860162000e91565b91505092915050565b60008060008060008060008060008060006101608c8e03121562000f615762000f6062000c5e565b5b60008c015167ffffffffffffffff81111562000f825762000f8162000c63565b5b62000f908e828f0162000db4565b9b505060208c015167ffffffffffffffff81111562000fb45762000fb362000c63565b5b62000fc28e828f0162000db4565b9a5050604062000fd58e828f0162000e0b565b995050606062000fe88e828f0162000e46565b985050608062000ffb8e828f0162000e0b565b97505060a06200100e8e828f0162000e0b565b96505060c0620010218e828f0162000e0b565b95505060e0620010348e828f0162000e0b565b945050610100620010488e828f0162000e0b565b9350506101208c015167ffffffffffffffff8111156200106d576200106c62000c63565b5b6200107b8e828f0162000f05565b9250506101406200108f8e828f0162000e0b565b9150509295989b509295989b9093969950565b600081519050919050565b7f4e487b7100000000000000000000000000000000000000000000000000000000600052602260045260246000fd5b60006002820490506001821680620010f557607f821691505b6020821081036200110b576200110a620010ad565b5b50919050565b60008190508160005260206000209050919050565b60006020601f8301049050919050565b600082821b905092915050565b600060088302620011757fffffffffffffffffffffffffffffffffffffffffffffffffffffffffffffffff8262001136565b62001181868362001136565b95508019841693508086168417925050509392505050565b6000819050919050565b6000620011c4620011be620011b88462000de7565b62001199565b62000de7565b9050919050565b6000819050919050565b620011e083620011a3565b620011f8620011ef82620011cb565b84845462001143565b825550505050565b600090565b6200120f62001200565b6200121c818484620011d5565b505050565b5b8181101562001244576200123860008262001205565b60018101905062001222565b5050565b601f82111562001293576200125d8162001111565b620012688462001126565b8101602085101562001278578190505b62001290620012878562001126565b83018262001221565b50505b505050565b600082821c905092915050565b6000620012b86000198460080262001298565b1980831691505092915050565b6000620012d38383620012a5565b9150826002028217905092915050565b620012ee82620010a2565b67ffffffffffffffff8111156200130a576200130962000c83565b5b620013168254620010dc565b6200132382828562001248565b600060209050601f8311600181146200135b576000841562001346578287015190505b620013528582620012c5565b865550620013c2565b601f1984166200136b8662001111565b60005b8281101562001395578489015182556001820191506020850194506020810190506200136e565b86831015620013b55784890151620013b1601f891682620012a5565b8355505b6001600288020188555050505b505050505050565b7f4e487b7100000000000000000000000000000000000000000000000000000000600052602160045260246000fd5b600082825260208201905092915050565b60006200141782620010a2565b620014238185620013f9565b93506200143581856020860162000d3d565b620014408162000c72565b840191505092915050565b600060408201905081810360008301526200146781856200140a565b905081810360208301526200147d81846200140a565b90509392505050565b600081546200149581620010dc565b620014a18186620013f9565b94506001821660008114620014bf5760018114620014d6576200150d565b60ff1983168652811515602002860193506200150d565b620014e18562001111565b60005b838110156200150557815481890152600182019150602081019050620014e4565b808801955050505b50505092915050565b600581106200152a5762001529620013ca565b5b50565b60008190506200153d8262001516565b919050565b60006200154f826200152d565b9050919050565b620015618162001542565b82525050565b6000606082019050818103600083015262001583818662001486565b9050818103602083015262001599818562001486565b9050620015aa604083018462001556565b949350505050565b7f4e487b7100000000000000000000000000000000000000000000000000000000600052603260045260246000fd5b7f4e487b7100000000000000000000000000000000000000000000000000000000600052601160045260246000fd5b60006200161d8262000de7565b91506200162a8362000de7565b9250828201905080821115620016455762001644620015e1565b5b92915050565b6000620016588262000de7565b91507fffffffffffffffffffffffffffffffffffffffffffffffffffffffffffffffff82036200168d576200168c620015e1565b5b600182019050919050565b7f746865207265636f726420646174652063616e6e6f742062652061667465722060008201527f74686520736574746c656d656e74206461746500000000000000000000000000602082015250565b6000620016f6603383620013f9565b9150620017038262001698565b604082019050919050565b600060208201905081810360008301526200172981620016e7565b9050919050565b7f696e76616c6964206e6578742064617465207768656e2073657474696e67207460008201527f68652063757272656e7420736e617073686f74206461746574696d6500000000602082015250565b60006200178e603c83620013f9565b91506200179b8262001730565b604082019050919050565b60006020820190508181036000830152620017c1816200177f565b9050919050565b7f44617465206f6620636f75706f6e206f72206d6174757269747920616c72656160008201527f64792074616b656e000000000000000000000000000000000000000000000000602082015250565b600062001826602883620013f9565b91506200183382620017c8565b604082019050919050565b60006020820190508181036000830152620018598162001817565b9050919050565b7f796f75206861766520746f20646566696e652061206e657720706572696f642060008201527f656e64696e67206166746572207468652063757272656e742074696d65000000602082015250565b6000620018be603d83620013f9565b9150620018cb8262001860565b604082019050919050565b60006020820190508181036000830152620018f181620018af565b9050919050565b7f4e487b7100000000000000000000000000000000000000000000000000000000600052601260045260246000fd5b6000620019348262000de7565b9150620019418362000de7565b925082620019545762001953620018f8565b5b828206905092915050565b60006200196c8262000de7565b9150620019798362000de7565b9250828203905081811115620019945762001993620015e1565b5b92915050565b620019a58162000de7565b82525050565b6000602082019050620019c260008301846200199a565b92915050565b6196b680620019d86000396000f3fe608060405234801561001057600080fd5b50600436106104ab5760003560e01c80638f92f4901161026d578063cc80473c11610151578063d696fb0b116100ce578063e336c59011610092578063e336c59014610f24578063e3965d5414610f42578063e5bf6dc814610f72578063eeb4cee914610f90578063f60d9ea114610fae578063f690c6c514610fca576104ab565b8063d696fb0b14610e96578063d8eab9a514610eb2578063d9a7997814610ece578063dc16722b14610eea578063dd62ed3e14610ef4576104ab565b8063d4cdda9111610115578063d4cdda9114610df6578063d547741f14610e26578063d58c80b414610e42578063d5c0beeb14610e5e578063d614284a14610e7a576104ab565b8063cc80473c14610d66578063cf5b362814610d82578063d0a2f2c414610db2578063d1ec6de814610dd0578063d46be60814610dec576104ab565b8063a457c2d7116101ea578063aed054d5116101ae578063aed054d514610ca4578063b90c1dbb14610cc2578063c1f4250b14610ce0578063c2faae5914610cfc578063c41251a114610d1a578063c47f002714610d4a576104ab565b8063a457c2d714610bc6578063a55234b814610bf6578063a7f2f6ec14610c26578063a9059cbb14610c44578063abc2cf2a14610c74576104ab565b80639ef986de116102315780639ef986de14610b22578063a0712d6814610b40578063a196218314610b5c578063a217fddf14610b8c578063a28f78f814610baa576104ab565b80638f92f49014610a5857806391d1485414610a8857806393c3939314610ab857806395d89b4114610ad4578063981b24d014610af2576104ab565b806336568abe116103945780635ab6f71b116103115780637cc7bcce116102d55780637cc7bcce146109825780637dc35505146109b2578063806ba100146109d05780638784ff1814610a005780638865f1e214610a1e5780638e1305de14610a3c576104ab565b80635ab6f71b146108ca57806363896d19146108e857806370a082311461090657806371c41f8a146109365780637469538a14610966576104ab565b80633e7e8713116103585780633e7e87131461081657806342966c68146108325780634361f92a1461084e5780634e0b0dcf1461087e5780634ee2cd7e1461089a576104ab565b806336568abe1461078457806339027f7c146107a057806339509351146107be5780633bf2a9f4146107ee5780633e4be6391461080c576104ab565b8063200d2ed21161042d5780632877d473116103f15780632877d473146106c25780632f2ff15d146106e05780632f962866146106fc5780633052974c1461071a578063313ce5671461073657806335c80c8c14610754576104ab565b8063200d2ed21461060a578063222ca3401461062857806323b872dd14610644578063248a9ca3146106745780632682ac91146106a4576104ab565b806307b2d9e31161047457806307b2d9e314610552578063095ea7b31461058257806317559df0146105b257806318160ddd146105ce5780631c67a363146105ec576104ab565b8062a9303d146104b057806301ffc9a7146104cc57806304b8c471146104fc57806306ec8ca61461051857806306fdde0314610534575b600080fd5b6104ca60048036038101906104c59190616704565b610fe6565b005b6104e660048036038101906104e19190616789565b611013565b6040516104f391906167d1565b60405180910390f35b61051660048036038101906105119190616704565b61108d565b005b610532600480360381019061052d9190616822565b6116fb565b005b61053c611733565b60405161054991906168df565b60405180910390f35b61056c60048036038101906105679190616937565b6117c8565b6040516105799190616986565b60405180910390f35b61059c60048036038101906105979190616937565b61180f565b6040516105a991906167d1565b60405180910390f35b6105cc60048036038101906105c79190616ad6565b61184c565b005b6105d6611a05565b6040516105e39190616986565b60405180910390f35b6105f4611a0f565b6040516106019190616bb7565b60405180910390f35b610612611a33565b60405161061f9190616c49565b60405180910390f35b610642600480360381019061063d9190616704565b611a46565b005b61065e60048036038101906106599190616c64565b611a73565b60405161066b91906167d1565b60405180910390f35b61068e60048036038101906106899190616822565b611dee565b60405161069b9190616bb7565b60405180910390f35b6106ac611e0d565b6040516106b99190616bb7565b60405180910390f35b6106ca611e31565b6040516106d79190616986565b60405180910390f35b6106fa60048036038101906106f59190616cb7565b611e3e565b005b610704611fb0565b6040516107119190616d06565b60405180910390f35b610734600480360381019061072f9190616d21565b611fd6565b005b61073e6120ab565b60405161074b9190616d7d565b60405180910390f35b61076e60048036038101906107699190616704565b6120b0565b60405161077b91906167d1565b60405180910390f35b61079e60048036038101906107999190616cb7565b6120e3565b005b6107a8612166565b6040516107b59190616986565b60405180910390f35b6107d860048036038101906107d39190616937565b612173565b6040516107e591906167d1565b60405180910390f35b6107f66121b0565b6040516108039190616bb7565b60405180910390f35b6108146121d4565b005b610830600480360381019061082b9190616d98565b6123c0565b005b61084c60048036038101906108479190616d98565b612566565b005b61086860048036038101906108639190616704565b6126e2565b60405161087591906167d1565b60405180910390f35b61089860048036038101906108939190616dc5565b612715565b005b6108b460048036038101906108af9190616937565b612794565b6040516108c19190616986565b60405180910390f35b6108d2612804565b6040516108df9190616d06565b60405180910390f35b6108f061282a565b6040516108fd9190617022565b60405180910390f35b610920600480360381019061091b9190616704565b612a11565b60405161092d9190616986565b60405180910390f35b610950600480360381019061094b9190616d98565b612a5a565b60405161095d91906167d1565b60405180910390f35b610980600480360381019061097b9190616d98565b612a9a565b005b61099c60048036038101906109979190616d98565b612d68565b6040516109a99190617102565b60405180910390f35b6109ba612fab565b6040516109c79190616d7d565b60405180910390f35b6109ea60048036038101906109e59190616822565b612fbe565b6040516109f791906167d1565b60405180910390f35b610a08612fde565b604051610a159190616d06565b60405180910390f35b610a26613008565b604051610a339190616bb7565b60405180910390f35b610a566004803603810190610a519190616704565b61302c565b005b610a726004803603810190610a6d9190616704565b613059565b604051610a7f9190616d06565b60405180910390f35b610aa26004803603810190610a9d9190616cb7565b6130c5565b604051610aaf91906167d1565b60405180910390f35b610ad26004803603810190610acd9190616d98565b61312f565b005b610adc6131a5565b604051610ae991906168df565b60405180910390f35b610b0c6004803603810190610b079190616d98565b61323a565b604051610b199190616986565b60405180910390f35b610b2a61326b565b604051610b379190616986565b60405180910390f35b610b5a6004803603810190610b559190616d98565b613275565b005b610b766004803603810190610b719190616704565b61339e565b604051610b839190616bb7565b60405180910390f35b610b946133d6565b604051610ba19190616bb7565b60405180910390f35b610bc46004803603810190610bbf9190616704565b6133dd565b005b610be06004803603810190610bdb9190616937565b61340a565b604051610bed91906167d1565b60405180910390f35b610c106004803603810190610c0b9190616704565b613447565b604051610c1d91906167d1565b60405180910390f35b610c2e61347a565b604051610c3b9190616986565b60405180910390f35b610c5e6004803603810190610c599190616937565b613487565b604051610c6b91906167d1565b60405180910390f35b610c8e6004803603810190610c899190616704565b6134c4565b604051610c9b91906167d1565b60405180910390f35b610cac6137a7565b604051610cb99190616d06565b60405180910390f35b610cca6137cd565b604051610cd79190616986565b60405180910390f35b610cfa6004803603810190610cf59190616704565b6137da565b005b610d04613807565b604051610d1191906167d1565b60405180910390f35b610d346004803603810190610d2f9190616704565b61383c565b604051610d4191906167d1565b60405180910390f35b610d646004803603810190610d5f9190616dc5565b613895565b005b610d806004803603810190610d7b9190616704565b613914565b005b610d9c6004803603810190610d979190616d98565b613941565b604051610da99190616986565b60405180910390f35b610dba613985565b604051610dc79190617102565b60405180910390f35b610dea6004803603810190610de59190616704565b613a13565b005b610df4613c60565b005b610e106004803603810190610e0b9190616d98565b613e06565b604051610e1d91906167d1565b60405180910390f35b610e406004803603810190610e3b9190616cb7565b613e17565b005b610e5c6004803603810190610e579190616d98565b613f53565b005b610e786004803603810190610e739190616704565b61403f565b005b610e946004803603810190610e8f9190616822565b6143dd565b005b610eb06004803603810190610eab9190616822565b61448a565b005b610ecc6004803603810190610ec79190616d98565b614537565b005b610ee86004803603810190610ee39190617124565b6145ad565b005b610ef2614712565b005b610f0e6004803603810190610f099190617180565b614991565b604051610f1b9190616986565b60405180910390f35b610f2c614a18565b604051610f399190616d06565b60405180910390f35b610f5c6004803603810190610f579190616704565b614a3e565b604051610f6991906167d1565b60405180910390f35b610f7a614a71565b604051610f879190616986565b60405180910390f35b610f98614a7b565b604051610fa59190616986565b60405180910390f35b610fc86004803603810190610fc39190616704565b614a85565b005b610fe46004803603810190610fdf9190616704565b614ab2565b005b6110107fd7aa2ddfa4e381128202bf365b7e0a176f2fca6cdf2f23c2b0a6f4393769589082611e3e565b50565b60007f7965db0b000000000000000000000000000000000000000000000000000000007bffffffffffffffffffffffffffffffffffffffffffffffffffffffff1916827bffffffffffffffffffffffffffffffffffffffffffffffffffffffff19161480611086575061108582614b03565b5b9050919050565b6110b77fa75205b8583660bdad375c0ccde11af17668d76a408a9a5e739251b0f7c59870336130c5565b6110f6576040517f08c379a00000000000000000000000000000000000000000000000000000000081526004016110ed9061720c565b60405180910390fd5b600160009054906101000a900473ffffffffffffffffffffffffffffffffffffffff1673ffffffffffffffffffffffffffffffffffffffff168173ffffffffffffffffffffffffffffffffffffffff1603611186576040517f08c379a000000000000000000000000000000000000000000000000000000000815260040161117d9061729e565b60405180910390fd5b600073ffffffffffffffffffffffffffffffffffffffff168173ffffffffffffffffffffffffffffffffffffffff161480156111d3575060018060149054906101000a900460ff1660ff16145b1561127c576000600160146101000a81548160ff021916908360ff1602179055506000600360006101000a81548173ffffffffffffffffffffffffffffffffffffffff021916908373ffffffffffffffffffffffffffffffffffffffff16021790555080600260006101000a81548173ffffffffffffffffffffffffffffffffffffffff021916908373ffffffffffffffffffffffffffffffffffffffff1602179055506116f8565b600073ffffffffffffffffffffffffffffffffffffffff168173ffffffffffffffffffffffffffffffffffffffff16036112eb576040517f08c379a00000000000000000000000000000000000000000000000000000000081526004016112e290617330565b60405180910390fd5b6000600160149054906101000a900460ff1660ff16036113a75760018060146101000a81548160ff021916908360ff16021790555033600360006101000a81548173ffffffffffffffffffffffffffffffffffffffff021916908373ffffffffffffffffffffffffffffffffffffffff16021790555080600260006101000a81548173ffffffffffffffffffffffffffffffffffffffff021916908373ffffffffffffffffffffffffffffffffffffffff1602179055506116f8565b60018060149054906101000a900460ff1660ff16036116f757600260009054906101000a900473ffffffffffffffffffffffffffffffffffffffff1673ffffffffffffffffffffffffffffffffffffffff168173ffffffffffffffffffffffffffffffffffffffff161461149c5733600360006101000a81548173ffffffffffffffffffffffffffffffffffffffff021916908373ffffffffffffffffffffffffffffffffffffffff16021790555080600260006101000a81548173ffffffffffffffffffffffffffffffffffffffff021916908373ffffffffffffffffffffffffffffffffffffffff1602179055506116f8565b3373ffffffffffffffffffffffffffffffffffffffff16600360009054906101000a900473ffffffffffffffffffffffffffffffffffffffff1673ffffffffffffffffffffffffffffffffffffffff160361152c576040517f08c379a00000000000000000000000000000000000000000000000000000000081526004016115239061739c565b60405180910390fd5b61155b6000801b600160009054906101000a900473ffffffffffffffffffffffffffffffffffffffff16614b6d565b61158a6000801b600260009054906101000a900473ffffffffffffffffffffffffffffffffffffffff16614c4e565b600260009054906101000a900473ffffffffffffffffffffffffffffffffffffffff16600160006101000a81548173ffffffffffffffffffffffffffffffffffffffff021916908373ffffffffffffffffffffffffffffffffffffffff1602179055506000600160146101000a81548160ff021916908360ff1602179055506000600360006101000a81548173ffffffffffffffffffffffffffffffffffffffff021916908373ffffffffffffffffffffffffffffffffffffffff1602179055506000600260006101000a81548173ffffffffffffffffffffffffffffffffffffffff021916908373ffffffffffffffffffffffffffffffffffffffff160217905550600160009054906101000a900473ffffffffffffffffffffffffffffffffffffffff1673ffffffffffffffffffffffffffffffffffffffff167f7ce7ec0b50378fb6c0186ffb5f48325f6593fcb4ca4386f21861af3129188f5c60405160405180910390a26116f8565b5b50565b7fa75205b8583660bdad375c0ccde11af17668d76a408a9a5e739251b0f7c5987061172581614c5c565b816016600301819055505050565b606060166000018054611745906173eb565b80601f0160208091040260200160405190810160405280929190818152602001828054611771906173eb565b80156117be5780601f10611793576101008083540402835291602001916117be565b820191906000526020600020905b8154815290600101906020018083116117a157829003601f168201915b5050505050905090565b600080600d600084815260200190815260200160002054905060008111156117fc576117f48482612794565b915050611809565b61180584612a11565b9150505b92915050565b60006040517f08c379a000000000000000000000000000000000000000000000000000000000815260040161184390617468565b60405180910390fd5b6118767fa75205b8583660bdad375c0ccde11af17668d76a408a9a5e739251b0f7c59870336130c5565b6118b5576040517f08c379a00000000000000000000000000000000000000000000000000000000081526004016118ac9061720c565b60405180910390fd5b600060166009018054905011156119a2578260166009016000815481106118df576118de617488565b5b90600052602060002001541161192a576040517f08c379a000000000000000000000000000000000000000000000000000000000815260040161192190617529565b60405180910390fd5b81601660090160016016600901805490506119459190617578565b8154811061195657611955617488565b5b9060005260206000200154106119a1576040517f08c379a00000000000000000000000000000000000000000000000000000000081526004016119989061761e565b60405180910390fd5b5b87601660000190816119b491906177ea565b50866016600201819055508560166003018190555084601660040181905550836016600501819055508260166007018190555081601660080181905550806016600a01819055505050505050505050565b6000600654905090565b7f6ba6f588bcdc2df8426603a466c98ab15e79f7fb7f37b53581ce39c1d01b724981565b601560009054906101000a900460ff1681565b611a707f6ba6f588bcdc2df8426603a466c98ab15e79f7fb7f37b53581ce39c1d01b724982613e17565b50565b6000611a9f7fa75205b8583660bdad375c0ccde11af17668d76a408a9a5e739251b0f7c59870336130c5565b15611ab857611aaf848484614c70565b60019050611de7565b6000611ac33361339e565b90506012600082815260200190815260200160002060009054906101000a900460ff16611b25576040517f08c379a0000000000000000000000000000000000000000000000000000000008152600401611b1c90617908565b60405180910390fd5b600480811115611b3857611b37616bd2565b5b601560009054906101000a900460ff166004811115611b5a57611b59616bd2565b5b03611b9a576040517f08c379a0000000000000000000000000000000000000000000000000000000008152600401611b919061799a565b60405180910390fd5b60016004811115611bae57611bad616bd2565b5b601560009054906101000a900460ff166004811115611bd057611bcf616bd2565b5b148015611c035750611c027ff698af62c65280e4949bceec64b760f3b7738217cbc536cdfc4c9463676b05c2856130c5565b5b8015611c5c5750602160009054906101000a900473ffffffffffffffffffffffffffffffffffffffff1673ffffffffffffffffffffffffffffffffffffffff168573ffffffffffffffffffffffffffffffffffffffff16145b15611d06576002601560006101000a81548160ff02191690836004811115611c8757611c86616bd2565b5b0217905550611c9884600080614ee9565b3373ffffffffffffffffffffffffffffffffffffffff167fda2010acfda7a262372331cb3b57e3f648f63eb009a423a2b5602cfa4f9bff5160166000016016600101601560009054906101000a900460ff16604051611cf993929190617a3e565b60405180910390a2611dd6565b60011515611d138561383c565b151514611d55576040517f08c379a0000000000000000000000000000000000000000000000000000000008152600401611d4c90617acf565b60405180910390fd5b60011515611d628661383c565b15151480611d965750611d957ff698af62c65280e4949bceec64b760f3b7738217cbc536cdfc4c9463676b05c2866130c5565b5b611dd5576040517f08c379a0000000000000000000000000000000000000000000000000000000008152600401611dcc90617b3b565b60405180910390fd5b5b611de1858585614c70565b60019150505b9392505050565b6000806000838152602001908152602001600020600101549050919050565b7ff698af62c65280e4949bceec64b760f3b7738217cbc536cdfc4c9463676b05c281565b6000601660070154905090565b6000801b8203611e8e576000611e89576040517f08c379a0000000000000000000000000000000000000000000000000000000008152600401611e8090617bcd565b60405180910390fd5b611fa2565b7fa75205b8583660bdad375c0ccde11af17668d76a408a9a5e739251b0f7c598708203611f3757611edf7fa75205b8583660bdad375c0ccde11af17668d76a408a9a5e739251b0f7c59870336130c5565b80611ef35750611ef26000801b336130c5565b5b611f32576040517f08c379a0000000000000000000000000000000000000000000000000000000008152600401611f2990617c5f565b60405180910390fd5b611fa1565b611f617fa75205b8583660bdad375c0ccde11af17668d76a408a9a5e739251b0f7c59870336130c5565b611fa0576040517f08c379a0000000000000000000000000000000000000000000000000000000008152600401611f9790617ccb565b60405180910390fd5b5b5b611fac82826150ff565b5050565b600360009054906101000a900473ffffffffffffffffffffffffffffffffffffffff1681565b6000611fe13361339e565b90506012600082815260200190815260200160002060009054906101000a900460ff16612043576040517f08c379a000000000000000000000000000000000000000000000000000000000815260040161203a90617908565b60405180910390fd5b82620d2f00836120539190617ceb565b11612093576040517f08c379a000000000000000000000000000000000000000000000000000000000815260040161208a90617db7565b60405180910390fd5b6120a683836120a1866151df565b61529d565b505050565b600090565b60006120dc7f6ba6f588bcdc2df8426603a466c98ab15e79f7fb7f37b53581ce39c1d01b7249836130c5565b9050919050565b6120eb615459565b73ffffffffffffffffffffffffffffffffffffffff168173ffffffffffffffffffffffffffffffffffffffff1614612158576040517f08c379a000000000000000000000000000000000000000000000000000000000815260040161214f90617e49565b60405180910390fd5b6121628282614b6d565b5050565b6000601660050154905090565b60006040517f08c379a00000000000000000000000000000000000000000000000000000000081526004016121a790617eb5565b60405180910390fd5b7fd7aa2ddfa4e381128202bf365b7e0a176f2fca6cdf2f23c2b0a6f4393769589081565b6121fe7fa75205b8583660bdad375c0ccde11af17668d76a408a9a5e739251b0f7c59870336130c5565b61223d576040517f08c379a00000000000000000000000000000000000000000000000000000000081526004016122349061720c565b60405180910390fd5b6002600481111561225157612250616bd2565b5b601560009054906101000a900460ff16600481111561227357612272616bd2565b5b036122a8576004601560006101000a81548160ff0219169083600481111561229e5761229d616bd2565b5b0217905550612355565b6004808111156122bb576122ba616bd2565b5b601560009054906101000a900460ff1660048111156122dd576122dc616bd2565b5b03612312576002601560006101000a81548160ff0219169083600481111561230857612307616bd2565b5b0217905550612354565b6000612353576040517f08c379a000000000000000000000000000000000000000000000000000000000815260040161234a90617f6d565b60405180910390fd5b5b5b3373ffffffffffffffffffffffffffffffffffffffff167fda2010acfda7a262372331cb3b57e3f648f63eb009a423a2b5602cfa4f9bff5160166000016016600101601560009054906101000a900460ff166040516123b693929190617a3e565b60405180910390a2565b6123ea7fa75205b8583660bdad375c0ccde11af17668d76a408a9a5e739251b0f7c59870336130c5565b612429576040517f08c379a00000000000000000000000000000000000000000000000000000000081526004016124209061720c565b60405180910390fd5b60008061243583615461565b915091508015612561576124488361550b565b612487576040517f08c379a000000000000000000000000000000000000000000000000000000000815260040161247e90617fff565b60405180910390fd5b600160166009018054905061249c9190617578565b82101561252d5760008290505b60016016600901805490506124be9190617578565b81101561252b5760166009016001826124d79190617ceb565b815481106124e8576124e7617488565b5b90600052602060002001546016600901828154811061250a57612509617488565b5b906000526020600020018190555080806125239061801f565b9150506124a9565b505b601660090180548061254257612541618067565b5b60019003818190600052602060002001600090559055612560615540565b5b505050565b6125907fa75205b8583660bdad375c0ccde11af17668d76a408a9a5e739251b0f7c59870336130c5565b6125cf576040517f08c379a00000000000000000000000000000000000000000000000000000000081526004016125c69061720c565b60405180910390fd5b6125d7615612565b50612604602160009054906101000a900473ffffffffffffffffffffffffffffffffffffffff1682615686565b6000612631602160009054906101000a900473ffffffffffffffffffffffffffffffffffffffff16612a11565b14801561264557506000612643611a05565b145b156126df576003601560006101000a81548160ff021916908360048111156126705761266f616bd2565b5b02179055503373ffffffffffffffffffffffffffffffffffffffff167fda2010acfda7a262372331cb3b57e3f648f63eb009a423a2b5602cfa4f9bff5160166000016016600101601560009054906101000a900460ff166040516126d693929190617a3e565b60405180910390a25b50565b600061270e7fa75205b8583660bdad375c0ccde11af17668d76a408a9a5e739251b0f7c59870836130c5565b9050919050565b61273f7fa75205b8583660bdad375c0ccde11af17668d76a408a9a5e739251b0f7c59870336130c5565b61277e576040517f08c379a00000000000000000000000000000000000000000000000000000000081526004016127759061720c565b60405180910390fd5b806016600101908161279091906177ea565b5050565b60008060006127e184600960008873ffffffffffffffffffffffffffffffffffffffff1673ffffffffffffffffffffffffffffffffffffffff168152602001908152602001600020615855565b91509150816127f8576127f385612a11565b6127fa565b805b9250505092915050565b600160009054906101000a900473ffffffffffffffffffffffffffffffffffffffff1681565b612832616635565b601660405180610160016040529081600082018054612850906173eb565b80601f016020809104026020016040519081016040528092919081815260200182805461287c906173eb565b80156128c95780601f1061289e576101008083540402835291602001916128c9565b820191906000526020600020905b8154815290600101906020018083116128ac57829003601f168201915b505050505081526020016001820180546128e2906173eb565b80601f016020809104026020016040519081016040528092919081815260200182805461290e906173eb565b801561295b5780601f106129305761010080835404028352916020019161295b565b820191906000526020600020905b81548152906001019060200180831161293e57829003601f168201915b5050505050815260200160028201548152602001600382015481526020016004820154815260200160058201548152602001600682015481526020016007820154815260200160088201548152602001600982018054806020026020016040519081016040528092919081815260200182805480156129f957602002820191906000526020600020905b8154815260200190600101908083116129e5575b50505050508152602001600a82015481525050905090565b6000600460008373ffffffffffffffffffffffffffffffffffffffff1673ffffffffffffffffffffffffffffffffffffffff168152602001908152602001600020549050919050565b600080612a6683615461565b9150508015612a79576001915050612a95565b8260166008015403612a8f576001915050612a95565b60009150505b919050565b612ac47fa75205b8583660bdad375c0ccde11af17668d76a408a9a5e739251b0f7c59870336130c5565b612b03576040517f08c379a0000000000000000000000000000000000000000000000000000000008152600401612afa9061720c565b60405180910390fd5b6016600701548111612b4a576040517f08c379a0000000000000000000000000000000000000000000000000000000008152600401612b4190618108565b60405180910390fd5b6016600801548110612b91576040517f08c379a0000000000000000000000000000000000000000000000000000000008152600401612b889061819a565b60405180910390fd5b600080612b9d83615461565b9150915080612d6357612baf8361594a565b612bee576040517f08c379a0000000000000000000000000000000000000000000000000000000008152600401612be59061822c565b60405180910390fd5b60006016600901805490501115612d2d57601660090160166009016001601660090180549050612c1e9190617578565b81548110612c2f57612c2e617488565b5b90600052602060002001549080600181540180825580915050600190039060005260206000200160009091909190915055600360166009018054905010612d025760006003601660090180549050612c879190617578565b90505b828110612d005760166009018181548110612ca857612ca7617488565b5b90600052602060002001546016600901600183612cc59190617ceb565b81548110612cd657612cd5617488565b5b90600052602060002001819055506000810315612d00578080612cf89061824c565b915050612c8a565b505b8260166009018381548110612d1a57612d19617488565b5b9060005260206000200181905550612d5a565b60166009018390806001815401808255809150506001900390600052602060002001600090919091909150555b612d62615540565b5b505050565b6060600060148054905067ffffffffffffffff811115612d8b57612d8a6169ab565b5b604051908082528060200260200182016040528015612db95781602001602082028036833780820191505090505b5090506000805b601480549050811015612ecb576000612e1760148381548110612de657612de5617488565b5b9060005260206000200160009054906101000a900473ffffffffffffffffffffffffffffffffffffffff16876117c8565b1115612eb85760148181548110612e3157612e30617488565b5b9060005260206000200160009054906101000a900473ffffffffffffffffffffffffffffffffffffffff16838381518110612e6f57612e6e617488565b5b602002602001019073ffffffffffffffffffffffffffffffffffffffff16908173ffffffffffffffffffffffffffffffffffffffff16815250508180612eb49061801f565b9250505b8080612ec39061801f565b915050612dc0565b5060008167ffffffffffffffff811115612ee857612ee76169ab565b5b604051908082528060200260200182016040528015612f165781602001602082028036833780820191505090505b50905060005b82811015612f9f57838181518110612f3757612f36617488565b5b6020026020010151828281518110612f5257612f51617488565b5b602002602001019073ffffffffffffffffffffffffffffffffffffffff16908173ffffffffffffffffffffffffffffffffffffffff16815250508080612f979061801f565b915050612f1c565b50809350505050919050565b600160149054906101000a900460ff1681565b60126020528060005260406000206000915054906101000a900460ff1681565b6000602160009054906101000a900473ffffffffffffffffffffffffffffffffffffffff16905090565b7fa75205b8583660bdad375c0ccde11af17668d76a408a9a5e739251b0f7c5987081565b6130567fa75205b8583660bdad375c0ccde11af17668d76a408a9a5e739251b0f7c5987082613e17565b50565b6000601360008373ffffffffffffffffffffffffffffffffffffffff1673ffffffffffffffffffffffffffffffffffffffff16815260200190815260200160002060020160009054906101000a900473ffffffffffffffffffffffffffffffffffffffff169050919050565b600080600084815260200190815260200160002060000160008373ffffffffffffffffffffffffffffffffffffffff1673ffffffffffffffffffffffffffffffffffffffff16815260200190815260200160002060009054906101000a900460ff16905092915050565b6131597fa75205b8583660bdad375c0ccde11af17668d76a408a9a5e739251b0f7c59870336130c5565b613198576040517f08c379a000000000000000000000000000000000000000000000000000000000815260040161318f9061720c565b60405180910390fd5b8060166006018190555050565b6060601660010180546131b7906173eb565b80601f01602080910402602001604051908101604052809291908181526020018280546131e3906173eb565b80156132305780601f1061320557610100808354040283529160200191613230565b820191906000526020600020905b81548152906001019060200180831161321357829003601f168201915b5050505050905090565b600080600061324a84600a615855565b91509150816132605761325b611a05565b613262565b805b92505050919050565b6000600e54905090565b61329f7fa75205b8583660bdad375c0ccde11af17668d76a408a9a5e739251b0f7c59870336130c5565b6132de576040517f08c379a00000000000000000000000000000000000000000000000000000000081526004016132d59061720c565b60405180910390fd5b600073ffffffffffffffffffffffffffffffffffffffff16602160009054906101000a900473ffffffffffffffffffffffffffffffffffffffff1673ffffffffffffffffffffffffffffffffffffffff160361336f576040517f08c379a0000000000000000000000000000000000000000000000000000000008152600401613366906182e7565b60405180910390fd5b61339b602160009054906101000a900473ffffffffffffffffffffffffffffffffffffffff1682615960565b50565b60006060823b6040519150601f19601f602083010116820160405280825280600060208401863c508080519060200120915050919050565b6000801b81565b6134077fa75205b8583660bdad375c0ccde11af17668d76a408a9a5e739251b0f7c5987082611e3e565b50565b60006040517f08c379a000000000000000000000000000000000000000000000000000000000815260040161343e90618353565b60405180910390fd5b60006134737ff698af62c65280e4949bceec64b760f3b7738217cbc536cdfc4c9463676b05c2836130c5565b9050919050565b6000601660040154905090565b60006040517f08c379a00000000000000000000000000000000000000000000000000000000081526004016134bb906183bf565b60405180910390fd5b6000806134d03361339e565b90506012600082815260200190815260200160002060009054906101000a900460ff16613532576040517f08c379a000000000000000000000000000000000000000000000000000000000815260040161352990617908565b60405180910390fd5b6001151561353f8461383c565b151514613581576040517f08c379a00000000000000000000000000000000000000000000000000000000081526004016135789061842b565b60405180910390fd5b60003073ffffffffffffffffffffffffffffffffffffffff1663e5bf6dc86040518163ffffffff1660e01b8152600401602060405180830381865afa1580156135ce573d6000803e3d6000fd5b505050506040513d601f19601f820116820180604052508101906135f29190618460565b90506016600801548114806136075750600081145b801561368057503073ffffffffffffffffffffffffffffffffffffffff16639ef986de6040518163ffffffff1660e01b8152600401602060405180830381865afa158015613659573d6000803e3d6000fd5b505050506040513d601f19601f8201168201806040525081019061367d9190618460565b42115b6136bf576040517f08c379a00000000000000000000000000000000000000000000000000000000081526004016136b690618525565b60405180910390fd5b60003073ffffffffffffffffffffffffffffffffffffffff166370a08231866040518263ffffffff1660e01b81526004016136fa9190616d06565b602060405180830381865afa158015613717573d6000803e3d6000fd5b505050506040513d601f19601f8201168201806040525081019061373b9190618460565b905060008111613780576040517f08c379a0000000000000000000000000000000000000000000000000000000008152600401613777906185b7565b60405180910390fd5b613788615612565b5061379b85613795612fde565b83614c70565b60019350505050919050565b602160009054906101000a900473ffffffffffffffffffffffffffffffffffffffff1681565b6000601660060154905090565b6138047ff698af62c65280e4949bceec64b760f3b7738217cbc536cdfc4c9463676b05c282613e17565b50565b6000806138133361339e565b90506012600082815260200190815260200160002060009054906101000a900460ff1691505090565b6000601360008373ffffffffffffffffffffffffffffffffffffffff1673ffffffffffffffffffffffffffffffffffffffff16815260200190815260200160002060000160149054906101000a900460ff169050919050565b6138bf7fa75205b8583660bdad375c0ccde11af17668d76a408a9a5e739251b0f7c59870336130c5565b6138fe576040517f08c379a00000000000000000000000000000000000000000000000000000000081526004016138f59061720c565b60405180910390fd5b806016600001908161391091906177ea565b5050565b61393e7ff698af62c65280e4949bceec64b760f3b7738217cbc536cdfc4c9463676b05c282611e3e565b50565b600080600d600084815260200190815260200160002054905060008111156139745761396c8161323a565b915050613980565b61397c611a05565b9150505b919050565b60606014805480602002602001604051908101604052809291908181526020018280548015613a0957602002820191906000526020600020905b8160009054906101000a900473ffffffffffffffffffffffffffffffffffffffff1673ffffffffffffffffffffffffffffffffffffffff16815260200190600101908083116139bf575b5050505050905090565b600073ffffffffffffffffffffffffffffffffffffffff168173ffffffffffffffffffffffffffffffffffffffff1603613a82576040517f08c379a0000000000000000000000000000000000000000000000000000000008152600401613a7990618623565b60405180910390fd5b60008073ffffffffffffffffffffffffffffffffffffffff16601360008473ffffffffffffffffffffffffffffffffffffffff1673ffffffffffffffffffffffffffffffffffffffff16815260200190815260200160002060020160009054906101000a900473ffffffffffffffffffffffffffffffffffffffff1673ffffffffffffffffffffffffffffffffffffffff16149050613b417fa75205b8583660bdad375c0ccde11af17668d76a408a9a5e739251b0f7c59870336130c5565b15613be8578015613b87576040517f08c379a0000000000000000000000000000000000000000000000000000000008152600401613b7e9061868f565b60405180910390fd5b6001601360008473ffffffffffffffffffffffffffffffffffffffff1673ffffffffffffffffffffffffffffffffffffffff16815260200190815260200160002060000160146101000a81548160ff02191690831515021790555050613c5d565b613c127f6ba6f588bcdc2df8426603a466c98ab15e79f7fb7f37b53581ce39c1d01b7249336130c5565b613c51576040517f08c379a0000000000000000000000000000000000000000000000000000000008152600401613c48906186fb565b60405180910390fd5b613c5b8233615ab7565b505b50565b613c8a7fa75205b8583660bdad375c0ccde11af17668d76a408a9a5e739251b0f7c59870336130c5565b613cc9576040517f08c379a0000000000000000000000000000000000000000000000000000000008152600401613cc09061720c565b60405180910390fd5b60016004811115613cdd57613cdc616bd2565b5b601560009054906101000a900460ff166004811115613cff57613cfe616bd2565b5b14613d3f576040517f08c379a0000000000000000000000000000000000000000000000000000000008152600401613d369061878d565b60405180910390fd5b613d70602160009054906101000a900473ffffffffffffffffffffffffffffffffffffffff16601660020154615686565b6000601560006101000a81548160ff02191690836004811115613d9657613d95616bd2565b5b02179055503373ffffffffffffffffffffffffffffffffffffffff167fda2010acfda7a262372331cb3b57e3f648f63eb009a423a2b5602cfa4f9bff5160166000016016600101601560009054906101000a900460ff16604051613dfc93929190617a3e565b60405180910390a2565b600081601660080154149050919050565b6000801b8203613e63576000613e62576040517f08c379a0000000000000000000000000000000000000000000000000000000008152600401613e5990617bcd565b60405180910390fd5b5b7fa75205b8583660bdad375c0ccde11af17668d76a408a9a5e739251b0f7c598708203613edb57613e976000801b336130c5565b613ed6576040517f08c379a0000000000000000000000000000000000000000000000000000000008152600401613ecd9061881f565b60405180910390fd5b613f45565b613f057fa75205b8583660bdad375c0ccde11af17668d76a408a9a5e739251b0f7c59870336130c5565b613f44576040517f08c379a0000000000000000000000000000000000000000000000000000000008152600401613f3b906188b1565b60405180910390fd5b5b613f4f8282614b6d565b5050565b613f7d7fa75205b8583660bdad375c0ccde11af17668d76a408a9a5e739251b0f7c59870336130c5565b613fbc576040517f08c379a0000000000000000000000000000000000000000000000000000000008152600401613fb39061720c565b60405180910390fd5b60006004811115613fd057613fcf616bd2565b5b601560009054906101000a900460ff166004811115613ff257613ff1616bd2565b5b14614032576040517f08c379a000000000000000000000000000000000000000000000000000000000815260040161402990618943565b60405180910390fd5b8060166002018190555050565b600073ffffffffffffffffffffffffffffffffffffffff168173ffffffffffffffffffffffffffffffffffffffff16036140ae576040517f08c379a00000000000000000000000000000000000000000000000000000000081526004016140a590618623565b60405180910390fd5b6140d87fa75205b8583660bdad375c0ccde11af17668d76a408a9a5e739251b0f7c59870336130c5565b1561420e57600073ffffffffffffffffffffffffffffffffffffffff16601360008373ffffffffffffffffffffffffffffffffffffffff1673ffffffffffffffffffffffffffffffffffffffff16815260200190815260200160002060020160009054906101000a900473ffffffffffffffffffffffffffffffffffffffff1673ffffffffffffffffffffffffffffffffffffffff16036141ae576040517f08c379a00000000000000000000000000000000000000000000000000000000081526004016141a59061868f565b60405180910390fd5b6000601360008373ffffffffffffffffffffffffffffffffffffffff1673ffffffffffffffffffffffffffffffffffffffff16815260200190815260200160002060000160146101000a81548160ff0219169083151502179055506143da565b6142387f6ba6f588bcdc2df8426603a466c98ab15e79f7fb7f37b53581ce39c1d01b7249336130c5565b614277576040517f08c379a000000000000000000000000000000000000000000000000000000000815260040161426e906186fb565b60405180910390fd5b3373ffffffffffffffffffffffffffffffffffffffff16601360008373ffffffffffffffffffffffffffffffffffffffff1673ffffffffffffffffffffffffffffffffffffffff16815260200190815260200160002060020160009054906101000a900473ffffffffffffffffffffffffffffffffffffffff1673ffffffffffffffffffffffffffffffffffffffff1614614347576040517f08c379a000000000000000000000000000000000000000000000000000000000815260040161433e906189d5565b60405180910390fd5b6000601360008373ffffffffffffffffffffffffffffffffffffffff1673ffffffffffffffffffffffffffffffffffffffff16815260200190815260200160002060000160146101000a81548160ff0219169083151502179055507ffeae65559f65b7c3f804001ac3371fbb83cf05e8344bc2b66588084bfe9250a8816040516143d19190616d06565b60405180910390a15b50565b6143e5615cd9565b614424576040517f08c379a000000000000000000000000000000000000000000000000000000000815260040161441b9061720c565b60405180910390fd5b60016012600083815260200190815260200160002060006101000a81548160ff0219169083151502179055507fbaf2f827de189827a9b5ea8781dbbffcad675a367dccaad8b9ada866795598d78160405161447f9190616bb7565b60405180910390a150565b614492615cd9565b6144d1576040517f08c379a00000000000000000000000000000000000000000000000000000000081526004016144c89061720c565b60405180910390fd5b60006012600083815260200190815260200160002060006101000a81548160ff0219169083151502179055507f2876b9bd97a638025f28a0d50cb5f3cd9e5c0b85624fb7ee15267149452c2d748160405161452c9190616bb7565b60405180910390a150565b6145617fa75205b8583660bdad375c0ccde11af17668d76a408a9a5e739251b0f7c59870336130c5565b6145a0576040517f08c379a00000000000000000000000000000000000000000000000000000000081526004016145979061720c565b60405180910390fd5b8060166007018190555050565b6145d77fa75205b8583660bdad375c0ccde11af17668d76a408a9a5e739251b0f7c59870336130c5565b8061460857506146077ff698af62c65280e4949bceec64b760f3b7738217cbc536cdfc4c9463676b05c2336130c5565b5b8061463957506146387f6ba6f588bcdc2df8426603a466c98ab15e79f7fb7f37b53581ce39c1d01b7249336130c5565b5b8061466a57506146697fd7aa2ddfa4e381128202bf365b7e0a176f2fca6cdf2f23c2b0a6f43937695890336130c5565b5b6146a9576040517f08c379a00000000000000000000000000000000000000000000000000000000081526004016146a090618a67565b60405180910390fd5b8173ffffffffffffffffffffffffffffffffffffffff163373ffffffffffffffffffffffffffffffffffffffff167fa923df1773651806246e73e1e43342c4845d608ad54e2606d3c1a50124d66e718360405161470691906168df565b60405180910390a35050565b61473c7fa75205b8583660bdad375c0ccde11af17668d76a408a9a5e739251b0f7c59870336130c5565b61477b576040517f08c379a00000000000000000000000000000000000000000000000000000000081526004016147729061720c565b60405180910390fd5b6000600481111561478f5761478e616bd2565b5b601560009054906101000a900460ff1660048111156147b1576147b0616bd2565b5b146147f1576040517f08c379a00000000000000000000000000000000000000000000000000000000081526004016147e890618af9565b60405180910390fd5b600060166002015411614839576040517f08c379a000000000000000000000000000000000000000000000000000000000815260040161483090618b65565b60405180910390fd5b600073ffffffffffffffffffffffffffffffffffffffff16602160009054906101000a900473ffffffffffffffffffffffffffffffffffffffff1673ffffffffffffffffffffffffffffffffffffffff16036148ca576040517f08c379a00000000000000000000000000000000000000000000000000000000081526004016148c1906182e7565b60405180910390fd5b6148fb602160009054906101000a900473ffffffffffffffffffffffffffffffffffffffff16601660020154615960565b6001601560006101000a81548160ff0219169083600481111561492157614920616bd2565b5b02179055503373ffffffffffffffffffffffffffffffffffffffff167fda2010acfda7a262372331cb3b57e3f648f63eb009a423a2b5602cfa4f9bff5160166000016016600101601560009054906101000a900460ff1660405161498793929190617a3e565b60405180910390a2565b6000600560008473ffffffffffffffffffffffffffffffffffffffff1673ffffffffffffffffffffffffffffffffffffffff16815260200190815260200160002060008373ffffffffffffffffffffffffffffffffffffffff1673ffffffffffffffffffffffffffffffffffffffff16815260200190815260200160002054905092915050565b600260009054906101000a900473ffffffffffffffffffffffffffffffffffffffff1681565b6000614a6a7fd7aa2ddfa4e381128202bf365b7e0a176f2fca6cdf2f23c2b0a6f43937695890836130c5565b9050919050565b6000601054905090565b6000600f54905090565b614aaf7fd7aa2ddfa4e381128202bf365b7e0a176f2fca6cdf2f23c2b0a6f4393769589082613e17565b50565b614adc7f6ba6f588bcdc2df8426603a466c98ab15e79f7fb7f37b53581ce39c1d01b724982611e3e565b50565b6001816000016000828254019250508190555050565b600081600001549050919050565b60007f01ffc9a7000000000000000000000000000000000000000000000000000000007bffffffffffffffffffffffffffffffffffffffffffffffffffffffff1916827bffffffffffffffffffffffffffffffffffffffffffffffffffffffff1916149050919050565b614b7782826130c5565b15614c4a57600080600084815260200190815260200160002060000160008373ffffffffffffffffffffffffffffffffffffffff1673ffffffffffffffffffffffffffffffffffffffff16815260200190815260200160002060006101000a81548160ff021916908315150217905550614bef615459565b73ffffffffffffffffffffffffffffffffffffffff168173ffffffffffffffffffffffffffffffffffffffff16837ff6391f5c32d9c69d2a47ea670b442974b53935d1edc7fd64eb21e047a839171b60405160405180910390a45b5050565b614c5882826150ff565b5050565b614c6d81614c68615459565b615d0a565b50565b600073ffffffffffffffffffffffffffffffffffffffff168373ffffffffffffffffffffffffffffffffffffffff1603614cdf576040517f08c379a0000000000000000000000000000000000000000000000000000000008152600401614cd690618bf7565b60405180910390fd5b600073ffffffffffffffffffffffffffffffffffffffff168273ffffffffffffffffffffffffffffffffffffffff1603614d4e576040517f08c379a0000000000000000000000000000000000000000000000000000000008152600401614d4590618c89565b60405180910390fd5b614d59838383615d8f565b6000600460008573ffffffffffffffffffffffffffffffffffffffff1673ffffffffffffffffffffffffffffffffffffffff16815260200190815260200160002054905081811015614de0576040517f08c379a0000000000000000000000000000000000000000000000000000000008152600401614dd790618d1b565b60405180910390fd5b818103600460008673ffffffffffffffffffffffffffffffffffffffff1673ffffffffffffffffffffffffffffffffffffffff1681526020019081526020016000208190555081600460008573ffffffffffffffffffffffffffffffffffffffff1673ffffffffffffffffffffffffffffffffffffffff168152602001908152602001600020600082825401925050819055508273ffffffffffffffffffffffffffffffffffffffff168473ffffffffffffffffffffffffffffffffffffffff167fddf252ad1be2c89b69c2b068fc378daa952ba7f163c4a11628f55a4df523b3ef84604051614ed09190616986565b60405180910390a3614ee3848484615e15565b50505050565b600060148054905090506014849080600181540180825580915050600190039060005260206000200160009091909190916101000a81548173ffffffffffffffffffffffffffffffffffffffff021916908373ffffffffffffffffffffffffffffffffffffffff16021790555080601360008673ffffffffffffffffffffffffffffffffffffffff1673ffffffffffffffffffffffffffffffffffffffff1681526020019081526020016000206001018190555083601360008673ffffffffffffffffffffffffffffffffffffffff1673ffffffffffffffffffffffffffffffffffffffff16815260200190815260200160002060000160006101000a81548173ffffffffffffffffffffffffffffffffffffffff021916908373ffffffffffffffffffffffffffffffffffffffff16021790555082601360008673ffffffffffffffffffffffffffffffffffffffff1673ffffffffffffffffffffffffffffffffffffffff16815260200190815260200160002060020160006101000a81548173ffffffffffffffffffffffffffffffffffffffff021916908373ffffffffffffffffffffffffffffffffffffffff16021790555081601360008673ffffffffffffffffffffffffffffffffffffffff1673ffffffffffffffffffffffffffffffffffffffff16815260200190815260200160002060000160146101000a81548160ff02191690831515021790555050505050565b61510982826130c5565b6151db57600160008084815260200190815260200160002060000160008373ffffffffffffffffffffffffffffffffffffffff1673ffffffffffffffffffffffffffffffffffffffff16815260200190815260200160002060006101000a81548160ff021916908315150217905550615180615459565b73ffffffffffffffffffffffffffffffffffffffff168173ffffffffffffffffffffffffffffffffffffffff16837f2f8788117e7eff1d82e926ec794901d17c78024a50270940304540a733656f0d60405160405180910390a45b5050565b600080600090505b60166009018054905081101561529257826016600901828154811061520f5761520e617488565b5b90600052602060002001540361527f576016600901805490506001826152359190617ceb565b101561527157601660090160018261524d9190617ceb565b8154811061525e5761525d617488565b5b9060005260206000200154915050615298565b601660080154915050615298565b808061528a9061801f565b9150506151e7565b50600090505b919050565b60006152aa836000615e1a565b9050838111156152ef576040517f08c379a00000000000000000000000000000000000000000000000000000000081526004016152e690618dad565b60405180910390fd5b60008214806152fd57508382115b61533c576040517f08c379a000000000000000000000000000000000000000000000000000000000815260040161533390618e3f565b60405180910390fd5b6000615349856000615e1a565b905060008390506000811115615366576153638186615e1a565b90505b6000600d600084815260200190815260200160002054146153bc576040517f08c379a00000000000000000000000000000000000000000000000000000000081526004016153b390618ed1565b60405180910390fd5b8442106153fe576040517f08c379a00000000000000000000000000000000000000000000000000000000081526004016153f590618f63565b60405180910390fd5b615406615e62565b5084600e819055508160108190555080600f81905550600f54600e546010547f4d1d74d5cbfc13e02ef05af3a30d8721e87a00d20bc3dc42198917139944def360405160405180910390a4505050505050565b600033905090565b60008060005b6016600901805490508110156154f557836016600901828154811061548f5761548e617488565b5b9060005260206000200154036154ac578060019250925050615506565b83601660090182815481106154c4576154c3617488565b5b906000526020600020015411156154e2578060009250925050615506565b80806154ed9061801f565b915050615467565b506016600901805490506000915091505b915091565b6000615518426000615e1a565b8211801561553957506000600d600084815260200190815260200160002054145b9050919050565b600061554b42615461565b5090506000806016600901805490508310156155e4576016600901838154811061557857615577617488565b5b9060005260206000200154915060166009018054905060018461559b9190617ceb565b10156155d65760166009016001846155b39190617ceb565b815481106155c4576155c3617488565b5b906000526020600020015490506155df565b60166008015490505b6155f1565b6016600801549150600090505b61560c826016600a0154846156069190617ceb565b83615f42565b50505050565b6000601160009054906101000a900460ff1615615664576040517f08c379a000000000000000000000000000000000000000000000000000000000815260040161565b90618ff5565b60405180910390fd5b6001601160006101000a81548160ff0219169083151502179055506001905090565b600073ffffffffffffffffffffffffffffffffffffffff168273ffffffffffffffffffffffffffffffffffffffff16036156f5576040517f08c379a00000000000000000000000000000000000000000000000000000000081526004016156ec90619087565b60405180910390fd5b61570182600083615d8f565b6000600460008473ffffffffffffffffffffffffffffffffffffffff1673ffffffffffffffffffffffffffffffffffffffff16815260200190815260200160002054905081811015615788576040517f08c379a000000000000000000000000000000000000000000000000000000000815260040161577f90619119565b60405180910390fd5b818103600460008573ffffffffffffffffffffffffffffffffffffffff1673ffffffffffffffffffffffffffffffffffffffff1681526020019081526020016000208190555081600660008282540392505081905550600073ffffffffffffffffffffffffffffffffffffffff168373ffffffffffffffffffffffffffffffffffffffff167fddf252ad1be2c89b69c2b068fc378daa952ba7f163c4a11628f55a4df523b3ef8460405161583c9190616986565b60405180910390a361585083600084615e15565b505050565b6000806000841161589b576040517f08c379a000000000000000000000000000000000000000000000000000000000815260040161589290619185565b60405180910390fd5b6158a3615f8c565b8411156158e5576040517f08c379a00000000000000000000000000000000000000000000000000000000081526004016158dc906191f1565b60405180910390fd5b60006158fd8585600001615f9d90919063ffffffff16565b90508360000180549050810361591a576000809250925050615943565b600184600101828154811061593257615931617488565b5b906000526020600020015492509250505b9250929050565b6000615957426000615e1a565b82119050919050565b600073ffffffffffffffffffffffffffffffffffffffff168273ffffffffffffffffffffffffffffffffffffffff16036159cf576040517f08c379a00000000000000000000000000000000000000000000000000000000081526004016159c69061925d565b60405180910390fd5b6159db60008383615d8f565b80600660008282546159ed9190617ceb565b9250508190555080600460008473ffffffffffffffffffffffffffffffffffffffff1673ffffffffffffffffffffffffffffffffffffffff168152602001908152602001600020600082825401925050819055508173ffffffffffffffffffffffffffffffffffffffff16600073ffffffffffffffffffffffffffffffffffffffff167fddf252ad1be2c89b69c2b068fc378daa952ba7f163c4a11628f55a4df523b3ef83604051615a9f9190616986565b60405180910390a3615ab360008383615e15565b5050565b615ac08261383c565b615cd55760008073ffffffffffffffffffffffffffffffffffffffff16601360008573ffffffffffffffffffffffffffffffffffffffff1673ffffffffffffffffffffffffffffffffffffffff16815260200190815260200160002060020160009054906101000a900473ffffffffffffffffffffffffffffffffffffffff1673ffffffffffffffffffffffffffffffffffffffff161490508015615b7057615b6b83836001614ee9565b615c9c565b8173ffffffffffffffffffffffffffffffffffffffff16601360008573ffffffffffffffffffffffffffffffffffffffff1673ffffffffffffffffffffffffffffffffffffffff16815260200190815260200160002060020160009054906101000a900473ffffffffffffffffffffffffffffffffffffffff1673ffffffffffffffffffffffffffffffffffffffff1614615c40576040517f08c379a0000000000000000000000000000000000000000000000000000000008152600401615c37906189d5565b60405180910390fd5b6001601360008573ffffffffffffffffffffffffffffffffffffffff1673ffffffffffffffffffffffffffffffffffffffff16815260200190815260200160002060000160146101000a81548160ff0219169083151502179055505b7ff96a35a7272aecca4e6ac04b9ecbc33e3c2655f1fa104a4604d8f50370e6beb383604051615ccb9190616d06565b60405180910390a1505b5050565b6000615d057fa75205b8583660bdad375c0ccde11af17668d76a408a9a5e739251b0f7c59870336130c5565b905090565b615d1482826130c5565b615d8b57615d2181616056565b615d2f8360001c6020616083565b604051602001615d40929190619351565b6040516020818303038152906040526040517f08c379a0000000000000000000000000000000000000000000000000000000008152600401615d8291906168df565b60405180910390fd5b5050565b60036004811115615da357615da2616bd2565b5b601560009054906101000a900460ff166004811115615dc557615dc4616bd2565b5b03615e05576040517f08c379a0000000000000000000000000000000000000000000000000000000008152600401615dfc906193d7565b60405180910390fd5b615e108383836162bf565b505050565b505050565b6000806201518084615e2c9190619426565b90508084615e3a9190617578565b91506201518083615e4b9190619426565b90508082615e599190617ceb565b91505092915050565b600080600e54118015615e8a57506000600d6000601054815260200190815260200160002054145b8015615e985750600e544210155b15615f3a576000615ea76163a2565b905080600d60006010548152602001908152602001600020819055506000600f5411615ed4576000615ee3565b615ee2600f54600e54615e1a565b5b600e81905550615ef6600e546000615e1a565b601081905550600f54600e546010547f4d1d74d5cbfc13e02ef05af3a30d8721e87a00d20bc3dc42198917139944def360405160405180910390a480915050615f3f565b600090505b90565b60006010548414615f5d57615f5884848461529d565b615f81565b615f6a600f546000615e1a565b8214615f8057615f7f601054600e548461529d565b5b5b600190509392505050565b6000615f98600c614af5565b905090565b600080838054905003615fb35760009050616050565b600080848054905090505b80821015616007576000615fd283836163f8565b905084615fdf878361641e565b600001541115615ff157809150616001565b600181615ffe9190617ceb565b92505b50615fbe565b60008211801561602f575083616029866001856160249190617578565b61641e565b60000154145b1561604a576001826160419190617578565b92505050616050565b81925050505b92915050565b606061607c8273ffffffffffffffffffffffffffffffffffffffff16601460ff16616083565b9050919050565b6060600060028360026160969190619457565b6160a09190617ceb565b67ffffffffffffffff8111156160b9576160b86169ab565b5b6040519080825280601f01601f1916602001820160405280156160eb5781602001600182028036833780820191505090505b5090507f30000000000000000000000000000000000000000000000000000000000000008160008151811061612357616122617488565b5b60200101907effffffffffffffffffffffffffffffffffffffffffffffffffffffffffffff1916908160001a9053507f78000000000000000000000000000000000000000000000000000000000000008160018151811061618757616186617488565b5b60200101907effffffffffffffffffffffffffffffffffffffffffffffffffffffffffffff1916908160001a905350600060018460026161c79190619457565b6161d19190617ceb565b90505b6001811115616271577f3031323334353637383961626364656600000000000000000000000000000000600f86166010811061621357616212617488565b5b1a60f81b82828151811061622a57616229617488565b5b60200101907effffffffffffffffffffffffffffffffffffffffffffffffffffffffffffff1916908160001a905350600485901c94508061626a9061824c565b90506161d4565b50600084146162b5576040517f08c379a00000000000000000000000000000000000000000000000000000000081526004016162ac906194e5565b60405180910390fd5b8091505092915050565b601160009054906101000a900460ff16156162f4576000601160006101000a81548160ff021916908315150217905550616389565b6000600e5411616339576040517f08c379a00000000000000000000000000000000000000000000000000000000081526004016163309061959d565b60405180910390fd5b600e544210616388576000600f5411616387576040517f08c379a000000000000000000000000000000000000000000000000000000000815260040161637e9061962f565b60405180910390fd5b5b5b616391615e62565b5061639d838383616440565b505050565b60006163ae600c614adf565b60006163b8615f8c565b90507f8030e83b04d87bef53480e26263266d6ca66863aa8506aca6f2559d18aa1cb67816040516163e99190616986565b60405180910390a18091505090565b60006002828418616409919061964f565b8284166164169190617ceb565b905092915050565b60008083600052826020600020019050616437816164f8565b91505092915050565b61644b838383616502565b600073ffffffffffffffffffffffffffffffffffffffff168373ffffffffffffffffffffffffffffffffffffffff16036164955761648882616507565b61649061655a565b6164f3565b600073ffffffffffffffffffffffffffffffffffffffff168273ffffffffffffffffffffffffffffffffffffffff16036164df576164d283616507565b6164da61655a565b6164f2565b6164e883616507565b6164f182616507565b5b5b505050565b6000819050919050565b505050565b616557600960008373ffffffffffffffffffffffffffffffffffffffff1673ffffffffffffffffffffffffffffffffffffffff16815260200190815260200160002061655283612a11565b61656e565b50565b61656c600a616567611a05565b61656e565b565b6000616578615f8c565b905080616587846000016165e9565b10156165e45782600001819080600181540180825580915050600190039060005260206000200160009091909190915055826001018290806001815401808255809150506001900390600052602060002001600090919091909150555b505050565b6000808280549050036165ff5760009050616630565b81600183805490506166119190617578565b8154811061662257616621617488565b5b906000526020600020015490505b919050565b60405180610160016040528060608152602001606081526020016000815260200160008019168152602001600081526020016000815260200160008152602001600081526020016000815260200160608152602001600081525090565b6000604051905090565b600080fd5b600080fd5b600073ffffffffffffffffffffffffffffffffffffffff82169050919050565b60006166d1826166a6565b9050919050565b6166e1816166c6565b81146166ec57600080fd5b50565b6000813590506166fe816166d8565b92915050565b60006020828403121561671a5761671961669c565b5b6000616728848285016166ef565b91505092915050565b60007fffffffff0000000000000000000000000000000000000000000000000000000082169050919050565b61676681616731565b811461677157600080fd5b50565b6000813590506167838161675d565b92915050565b60006020828403121561679f5761679e61669c565b5b60006167ad84828501616774565b91505092915050565b60008115159050919050565b6167cb816167b6565b82525050565b60006020820190506167e660008301846167c2565b92915050565b6000819050919050565b6167ff816167ec565b811461680a57600080fd5b50565b60008135905061681c816167f6565b92915050565b6000602082840312156168385761683761669c565b5b60006168468482850161680d565b91505092915050565b600081519050919050565b600082825260208201905092915050565b60005b8381101561688957808201518184015260208101905061686e565b60008484015250505050565b6000601f19601f8301169050919050565b60006168b18261684f565b6168bb818561685a565b93506168cb81856020860161686b565b6168d481616895565b840191505092915050565b600060208201905081810360008301526168f981846168a6565b905092915050565b6000819050919050565b61691481616901565b811461691f57600080fd5b50565b6000813590506169318161690b565b92915050565b6000806040838503121561694e5761694d61669c565b5b600061695c858286016166ef565b925050602061696d85828601616922565b9150509250929050565b61698081616901565b82525050565b600060208201905061699b6000830184616977565b92915050565b600080fd5b600080fd5b7f4e487b7100000000000000000000000000000000000000000000000000000000600052604160045260246000fd5b6169e382616895565b810181811067ffffffffffffffff82111715616a0257616a016169ab565b5b80604052505050565b6000616a15616692565b9050616a2182826169da565b919050565b600067ffffffffffffffff821115616a4157616a406169ab565b5b616a4a82616895565b9050602081019050919050565b82818337600083830152505050565b6000616a79616a7484616a26565b616a0b565b905082815260208101848484011115616a9557616a946169a6565b5b616aa0848285616a57565b509392505050565b600082601f830112616abd57616abc6169a1565b5b8135616acd848260208601616a66565b91505092915050565b600080600080600080600080610100898b031215616af757616af661669c565b5b600089013567ffffffffffffffff811115616b1557616b146166a1565b5b616b218b828c01616aa8565b9850506020616b328b828c01616922565b9750506040616b438b828c0161680d565b9650506060616b548b828c01616922565b9550506080616b658b828c01616922565b94505060a0616b768b828c01616922565b93505060c0616b878b828c01616922565b92505060e0616b988b828c01616922565b9150509295985092959890939650565b616bb1816167ec565b82525050565b6000602082019050616bcc6000830184616ba8565b92915050565b7f4e487b7100000000000000000000000000000000000000000000000000000000600052602160045260246000fd5b60058110616c1257616c11616bd2565b5b50565b6000819050616c2382616c01565b919050565b6000616c3382616c15565b9050919050565b616c4381616c28565b82525050565b6000602082019050616c5e6000830184616c3a565b92915050565b600080600060608486031215616c7d57616c7c61669c565b5b6000616c8b868287016166ef565b9350506020616c9c868287016166ef565b9250506040616cad86828701616922565b9150509250925092565b60008060408385031215616cce57616ccd61669c565b5b6000616cdc8582860161680d565b9250506020616ced858286016166ef565b9150509250929050565b616d00816166c6565b82525050565b6000602082019050616d1b6000830184616cf7565b92915050565b60008060408385031215616d3857616d3761669c565b5b6000616d4685828601616922565b9250506020616d5785828601616922565b9150509250929050565b600060ff82169050919050565b616d7781616d61565b82525050565b6000602082019050616d926000830184616d6e565b92915050565b600060208284031215616dae57616dad61669c565b5b6000616dbc84828501616922565b91505092915050565b600060208284031215616ddb57616dda61669c565b5b600082013567ffffffffffffffff811115616df957616df86166a1565b5b616e0584828501616aa8565b91505092915050565b600082825260208201905092915050565b6000616e2a8261684f565b616e348185616e0e565b9350616e4481856020860161686b565b616e4d81616895565b840191505092915050565b616e6181616901565b82525050565b616e70816167ec565b82525050565b600081519050919050565b600082825260208201905092915050565b6000819050602082019050919050565b6000616eae8383616e58565b60208301905092915050565b6000602082019050919050565b6000616ed282616e76565b616edc8185616e81565b9350616ee783616e92565b8060005b83811015616f18578151616eff8882616ea2565b9750616f0a83616eba565b925050600181019050616eeb565b5085935050505092915050565b6000610160830160008301518482036000860152616f438282616e1f565b91505060208301518482036020860152616f5d8282616e1f565b9150506040830151616f726040860182616e58565b506060830151616f856060860182616e67565b506080830151616f986080860182616e58565b5060a0830151616fab60a0860182616e58565b5060c0830151616fbe60c0860182616e58565b5060e0830151616fd160e0860182616e58565b50610100830151616fe6610100860182616e58565b506101208301518482036101208601526170008282616ec7565b915050610140830151617017610140860182616e58565b508091505092915050565b6000602082019050818103600083015261703c8184616f25565b905092915050565b600081519050919050565b600082825260208201905092915050565b6000819050602082019050919050565b617079816166c6565b82525050565b600061708b8383617070565b60208301905092915050565b6000602082019050919050565b60006170af82617044565b6170b9818561704f565b93506170c483617060565b8060005b838110156170f55781516170dc888261707f565b97506170e783617097565b9250506001810190506170c8565b5085935050505092915050565b6000602082019050818103600083015261711c81846170a4565b905092915050565b6000806040838503121561713b5761713a61669c565b5b6000617149858286016166ef565b925050602083013567ffffffffffffffff81111561716a576171696166a1565b5b61717685828601616aa8565b9150509250929050565b600080604083850312156171975761719661669c565b5b60006171a5858286016166ef565b92505060206171b6858286016166ef565b9150509250929050565b7f43616c6c6572206d7573742062652043414b0000000000000000000000000000600082015250565b60006171f660128361685a565b9150617201826171c0565b602082019050919050565b60006020820190508181036000830152617225816171e9565b9050919050565b7f4e65772061646d696e206973207468652073616d652061732063757272656e7460008201527f206f6e6500000000000000000000000000000000000000000000000000000000602082015250565b600061728860248361685a565b91506172938261722c565b604082019050919050565b600060208201905081810360008301526172b78161727b565b9050919050565b7f5468652070726f706f736564206e65772061646d696e2063616e6e6f7420626560008201527f20746865207a65726f2061646472657373000000000000000000000000000000602082015250565b600061731a60318361685a565b9150617325826172be565b604082019050919050565b600060208201905081810360008301526173498161730d565b9050919050565b7f546869732043414b2068617320616c726561647920766f746564000000000000600082015250565b6000617386601a8361685a565b915061739182617350565b602082019050919050565b600060208201905081810360008301526173b581617379565b9050919050565b7f4e487b7100000000000000000000000000000000000000000000000000000000600052602260045260246000fd5b6000600282049050600182168061740357607f821691505b602082108103617416576174156173bc565b5b50919050565b7f617070726f76652069732064697361626c656400000000000000000000000000600082015250565b600061745260138361685a565b915061745d8261741c565b602082019050919050565b6000602082019050818103600083015261748181617445565b9050919050565b7f4e487b7100000000000000000000000000000000000000000000000000000000600052603260045260246000fd5b7f43616e6e6f742073657420612069737375616e6365206461746520616674657260008201527f2074686520666972737420636f75706f6e206461746500000000000000000000602082015250565b600061751360368361685a565b915061751e826174b7565b604082019050919050565b6000602082019050818103600083015261754281617506565b9050919050565b7f4e487b7100000000000000000000000000000000000000000000000000000000600052601160045260246000fd5b600061758382616901565b915061758e83616901565b92508282039050818111156175a6576175a5617549565b5b92915050565b7f43616e6e6f74207365742061206d617475726974792064617465206265666f7260008201527f6520746865206c61737420636f75706f6e206461746500000000000000000000602082015250565b600061760860368361685a565b9150617613826175ac565b604082019050919050565b60006020820190508181036000830152617637816175fb565b9050919050565b60008190508160005260206000209050919050565b60006020601f8301049050919050565b600082821b905092915050565b6000600883026176a07fffffffffffffffffffffffffffffffffffffffffffffffffffffffffffffffff82617663565b6176aa8683617663565b95508019841693508086168417925050509392505050565b6000819050919050565b60006176e76176e26176dd84616901565b6176c2565b616901565b9050919050565b6000819050919050565b617701836176cc565b61771561770d826176ee565b848454617670565b825550505050565b600090565b61772a61771d565b6177358184846176f8565b505050565b5b818110156177595761774e600082617722565b60018101905061773b565b5050565b601f82111561779e5761776f8161763e565b61777884617653565b81016020851015617787578190505b61779b61779385617653565b83018261773a565b50505b505050565b600082821c905092915050565b60006177c1600019846008026177a3565b1980831691505092915050565b60006177da83836177b0565b9150826002028217905092915050565b6177f38261684f565b67ffffffffffffffff81111561780c5761780b6169ab565b5b61781682546173eb565b61782182828561775d565b600060209050601f8311600181146178545760008415617842578287015190505b61784c85826177ce565b8655506178b4565b601f1984166178628661763e565b60005b8281101561788a57848901518255600182019150602085019450602081019050617865565b868310156178a757848901516178a3601f8916826177b0565b8355505b6001600288020188555050505b505050505050565b7f5468697320636f6e7472616374206973206e6f742077686974656c6973746564600082015250565b60006178f260208361685a565b91506178fd826178bc565b602082019050919050565b60006020820190508181036000830152617921816178e5565b9050919050565b7f4e6f207472616e736665722063616e20626520646f6e65207768656e2074686560008201527f2072656769737465722069732046726f7a656e00000000000000000000000000602082015250565b600061798460338361685a565b915061798f82617928565b604082019050919050565b600060208201905081810360008301526179b381617977565b9050919050565b600081546179c7816173eb565b6179d1818661685a565b945060018216600081146179ec5760018114617a0257617a35565b60ff198316865281151560200286019350617a35565b617a0b8561763e565b60005b83811015617a2d57815481890152600182019150602081019050617a0e565b808801955050505b50505092915050565b60006060820190508181036000830152617a5881866179ba565b90508181036020830152617a6c81856179ba565b9050617a7b6040830184616c3a565b949350505050565b7f546865207265636569766572206973206e6f7420616c6c6f7765640000000000600082015250565b6000617ab9601b8361685a565b9150617ac482617a83565b602082019050919050565b60006020820190508181036000830152617ae881617aac565b9050919050565b7f5468652073656e646572206973206e6f7420616c6c6f77656400000000000000600082015250565b6000617b2560198361685a565b9150617b3082617aef565b602082019050919050565b60006020820190508181036000830152617b5481617b18565b9050919050565b7f5573652066756e6374696f6e206368616e676541646d696e526f6c6520696e7360008201527f7465616400000000000000000000000000000000000000000000000000000000602082015250565b6000617bb760248361685a565b9150617bc282617b5b565b604082019050919050565b60006020820190508181036000830152617be681617baa565b9050919050565b7f43616c6c6572206d7573742062652043414b206f722041444d494e20746f207360008201527f657420616e6f746865722043414b000000000000000000000000000000000000602082015250565b6000617c49602e8361685a565b9150617c5482617bed565b604082019050919050565b60006020820190508181036000830152617c7881617c3c565b9050919050565b7f43616c6c6572206d7573742062652043414b20746f20736574206120726f6c65600082015250565b6000617cb560208361685a565b9150617cc082617c7f565b602082019050919050565b60006020820190508181036000830152617ce481617ca8565b9050919050565b6000617cf682616901565b9150617d0183616901565b9250828201905080821115617d1957617d18617549565b5b92915050565b7f496e636f6e73697374656e74207265636f72642064617465206d6f726520746860008201527f616e2031302064617973206265666f726520736574746c656d656e742064617460208201527f6500000000000000000000000000000000000000000000000000000000000000604082015250565b6000617da160418361685a565b9150617dac82617d1f565b606082019050919050565b60006020820190508181036000830152617dd081617d94565b9050919050565b7f416363657373436f6e74726f6c3a2063616e206f6e6c792072656e6f756e636560008201527f20726f6c657320666f722073656c660000000000000000000000000000000000602082015250565b6000617e33602f8361685a565b9150617e3e82617dd7565b604082019050919050565b60006020820190508181036000830152617e6281617e26565b9050919050565b7f696e637265617365416c6c6f77616e63652069732064697361626c6564000000600082015250565b6000617e9f601d8361685a565b9150617eaa82617e69565b602082019050919050565b60006020820190508181036000830152617ece81617e92565b9050919050565b7f43616e6e6f7420467265657a65202f20556e667265657a65207468652072656760008201527f69737465722061732074686520737461747573206973206e6f7420497373756560208201527f64206f722046726f7a656e000000000000000000000000000000000000000000604082015250565b6000617f57604b8361685a565b9150617f6282617ed5565b606082019050919050565b60006020820190508181036000830152617f8681617f4a565b9050919050565b7f5468697320636f75706f6e20646174652063616e6e6f742062652064656c657460008201527f6564000000000000000000000000000000000000000000000000000000000000602082015250565b6000617fe960228361685a565b9150617ff482617f8d565b604082019050919050565b6000602082019050818103600083015261801881617fdc565b9050919050565b600061802a82616901565b91507fffffffffffffffffffffffffffffffffffffffffffffffffffffffffffffffff820361805c5761805b617549565b5b600182019050919050565b7f4e487b7100000000000000000000000000000000000000000000000000000000600052603160045260246000fd5b7f43616e6e6f7420736574206120636f75706f6e206461746520736d616c6c657260008201527f206f7220657175616c20746f207468652069737375616e636520646174650000602082015250565b60006180f2603e8361685a565b91506180fd82618096565b604082019050919050565b60006020820190508181036000830152618121816180e5565b9050919050565b7f43616e6e6f7420736574206120636f75706f6e2064617465206772656174657260008201527f206f7220657175616c20746f20746865206d6174757269747920646174650000602082015250565b6000618184603e8361685a565b915061818f82618128565b604082019050919050565b600060208201905081810360008301526181b381618177565b9050919050565b7f43616e6e6f7420696e73657274207468697320646174652c206974206973206960008201527f6e20746865207061737400000000000000000000000000000000000000000000602082015250565b6000618216602a8361685a565b9150618221826181ba565b604082019050919050565b6000602082019050818103600083015261824581618209565b9050919050565b600061825782616901565b91506000820361826a57618269617549565b5b600182039050919050565b7f596f75206d7573742073657420746865206d696e74207265636569766572206160008201527f6464726573730000000000000000000000000000000000000000000000000000602082015250565b60006182d160268361685a565b91506182dc82618275565b604082019050919050565b60006020820190508181036000830152618300816182c4565b9050919050565b7f6465637265617365416c6c6f77616e63652069732064697361626c6564000000600082015250565b600061833d601d8361685a565b915061834882618307565b602082019050919050565b6000602082019050818103600083015261836c81618330565b9050919050565b7f7472616e736665722069732064697361626c6564000000000000000000000000600082015250565b60006183a960148361685a565b91506183b482618373565b602082019050919050565b600060208201905081810360008301526183d88161839c565b9050919050565b7f54686520696e766573746f72206973206e6f742077686974656c697374656400600082015250565b6000618415601f8361685a565b9150618420826183df565b602082019050919050565b6000602082019050818103600083015261844481618408565b9050919050565b60008151905061845a8161690b565b92915050565b6000602082840312156184765761847561669c565b5b60006184848482850161844b565b91505092915050565b7f72657475726e696e67207468652062616c616e636520746f207468652070726960008201527f6d6172792069737375616e63652063616e206f6e6c7920626520646f6e65206160208201527f6674657220746865206d6174757269747920637574206f66662074696d650000604082015250565b600061850f605e8361685a565b915061851a8261848d565b606082019050919050565b6000602082019050818103600083015261853e81618502565b9050919050565b7f6e6f2062616c616e636520746f2072657475726e20666f72207468697320696e60008201527f766573746f720000000000000000000000000000000000000000000000000000602082015250565b60006185a160268361685a565b91506185ac82618545565b604082019050919050565b600060208201905081810360008301526185d081618594565b9050919050565b7f696e766573746f7220616464726573732063616e6e6f74206265207a65726f00600082015250565b600061860d601f8361685a565b9150618618826185d7565b602082019050919050565b6000602082019050818103600083015261863c81618600565b9050919050565b7f696e766573746f72206d75737420626520736574207570206669727374000000600082015250565b6000618679601d8361685a565b915061868482618643565b602082019050919050565b600060208201905081810360008301526186a88161866c565b9050919050565b7f43616c6c6572206d757374206265204353540000000000000000000000000000600082015250565b60006186e560128361685a565b91506186f0826186af565b602082019050919050565b60006020820190508181036000830152618714816186d8565b9050919050565b7f52656769737465722073686f756c6420626520696e205265616479207374617460008201527f6500000000000000000000000000000000000000000000000000000000000000602082015250565b600061877760218361685a565b91506187828261871b565b604082019050919050565b600060208201905081810360008301526187a68161876a565b9050919050565b7f43616c6c6572206d7573742062652041444d494e20746f2072656d6f7665206160008201527f2043414b00000000000000000000000000000000000000000000000000000000602082015250565b600061880960248361685a565b9150618814826187ad565b604082019050919050565b60006020820190508181036000830152618838816187fc565b9050919050565b7f43616c6c6572206d7573742062652043414b20746f2072656d6f76652061207260008201527f6f6c650000000000000000000000000000000000000000000000000000000000602082015250565b600061889b60238361685a565b91506188a68261883f565b604082019050919050565b600060208201905081810360008301526188ca8161888e565b9050919050565b7f6c6966656379636c652076696f6c6174696f6e202d206f6e6c7920616c6c6f7760008201527f6564207768656e2073746174757320697320696e206472616674000000000000602082015250565b600061892d603a8361685a565b9150618938826188d1565b604082019050919050565b6000602082019050818103600083015261895c81618920565b9050919050565b7f6f6e6c792074686520637573746f6469616e2063616e20646973616c6c6f772060008201527f74686520696e766573746f720000000000000000000000000000000000000000602082015250565b60006189bf602c8361685a565b91506189ca82618963565b604082019050919050565b600060208201905081810360008301526189ee816189b2565b9050919050565b7f5468652063616c6c6572206d7573742068617665206120726f6c6520696e207460008201527f6865207472616e73616374696f6e000000000000000000000000000000000000602082015250565b6000618a51602e8361685a565b9150618a5c826189f5565b604082019050919050565b60006020820190508181036000830152618a8081618a44565b9050919050565b7f52656769737465722073686f756c6420626520696e204472616674207374617460008201527f6500000000000000000000000000000000000000000000000000000000000000602082015250565b6000618ae360218361685a565b9150618aee82618a87565b604082019050919050565b60006020820190508181036000830152618b1281618ad6565b9050919050565b7f657870656374656420737570706c792063616e6e6f74206265207a65726f0000600082015250565b6000618b4f601e8361685a565b9150618b5a82618b19565b602082019050919050565b60006020820190508181036000830152618b7e81618b42565b9050919050565b7f45524332303a207472616e736665722066726f6d20746865207a65726f20616460008201527f6472657373000000000000000000000000000000000000000000000000000000602082015250565b6000618be160258361685a565b9150618bec82618b85565b604082019050919050565b60006020820190508181036000830152618c1081618bd4565b9050919050565b7f45524332303a207472616e7366657220746f20746865207a65726f206164647260008201527f6573730000000000000000000000000000000000000000000000000000000000602082015250565b6000618c7360238361685a565b9150618c7e82618c17565b604082019050919050565b60006020820190508181036000830152618ca281618c66565b9050919050565b7f45524332303a207472616e7366657220616d6f756e742065786365656473206260008201527f616c616e63650000000000000000000000000000000000000000000000000000602082015250565b6000618d0560268361685a565b9150618d1082618ca9565b604082019050919050565b60006020820190508181036000830152618d3481618cf8565b9050919050565b7f746865207265636f726420646174652063616e6e6f742062652061667465722060008201527f74686520736574746c656d656e74206461746500000000000000000000000000602082015250565b6000618d9760338361685a565b9150618da282618d3b565b604082019050919050565b60006020820190508181036000830152618dc681618d8a565b9050919050565b7f696e76616c6964206e6578742064617465207768656e2073657474696e67207460008201527f68652063757272656e7420736e617073686f74206461746574696d6500000000602082015250565b6000618e29603c8361685a565b9150618e3482618dcd565b604082019050919050565b60006020820190508181036000830152618e5881618e1c565b9050919050565b7f44617465206f6620636f75706f6e206f72206d6174757269747920616c72656160008201527f64792074616b656e000000000000000000000000000000000000000000000000602082015250565b6000618ebb60288361685a565b9150618ec682618e5f565b604082019050919050565b60006020820190508181036000830152618eea81618eae565b9050919050565b7f796f75206861766520746f20646566696e652061206e657720706572696f642060008201527f656e64696e67206166746572207468652063757272656e742074696d65000000602082015250565b6000618f4d603d8361685a565b9150618f5882618ef1565b604082019050919050565b60006020820190508181036000830152618f7c81618f40565b9050919050565b7f666f72636520666c616720616c7265616479207365742c20636865636b20636f60008201527f6465000000000000000000000000000000000000000000000000000000000000602082015250565b6000618fdf60228361685a565b9150618fea82618f83565b604082019050919050565b6000602082019050818103600083015261900e81618fd2565b9050919050565b7f45524332303a206275726e2066726f6d20746865207a65726f2061646472657360008201527f7300000000000000000000000000000000000000000000000000000000000000602082015250565b600061907160218361685a565b915061907c82619015565b604082019050919050565b600060208201905081810360008301526190a081619064565b9050919050565b7f45524332303a206275726e20616d6f756e7420657863656564732062616c616e60008201527f6365000000000000000000000000000000000000000000000000000000000000602082015250565b600061910360228361685a565b915061910e826190a7565b604082019050919050565b60006020820190508181036000830152619132816190f6565b9050919050565b7f4552433230536e617073686f743a206964206973203000000000000000000000600082015250565b600061916f60168361685a565b915061917a82619139565b602082019050919050565b6000602082019050818103600083015261919e81619162565b9050919050565b7f4552433230536e617073686f743a206e6f6e6578697374656e74206964000000600082015250565b60006191db601d8361685a565b91506191e6826191a5565b602082019050919050565b6000602082019050818103600083015261920a816191ce565b9050919050565b7f45524332303a206d696e7420746f20746865207a65726f206164647265737300600082015250565b6000619247601f8361685a565b915061925282619211565b602082019050919050565b600060208201905081810360008301526192768161923a565b9050919050565b600081905092915050565b7f416363657373436f6e74726f6c3a206163636f756e7420000000000000000000600082015250565b60006192be60178361927d565b91506192c982619288565b601782019050919050565b60006192df8261684f565b6192e9818561927d565b93506192f981856020860161686b565b80840191505092915050565b7f206973206d697373696e6720726f6c6520000000000000000000000000000000600082015250565b600061933b60118361927d565b915061934682619305565b601182019050919050565b600061935c826192b1565b915061936882856192d4565b91506193738261932e565b915061937f82846192d4565b91508190509392505050565b7f74686520526567697374657220697320636c6f73656400000000000000000000600082015250565b60006193c160168361685a565b91506193cc8261938b565b602082019050919050565b600060208201905081810360008301526193f0816193b4565b9050919050565b7f4e487b7100000000000000000000000000000000000000000000000000000000600052601260045260246000fd5b600061943182616901565b915061943c83616901565b92508261944c5761944b6193f7565b5b828206905092915050565b600061946282616901565b915061946d83616901565b925082820261947b81616901565b9150828204841483151761949257619491617549565b5b5092915050565b7f537472696e67733a20686578206c656e67746820696e73756666696369656e74600082015250565b60006194cf60208361685a565b91506194da82619499565b602082019050919050565b600060208201905081810360008301526194fe816194c2565b9050919050565b7f746865207265676973746572206973206c6f636b65642062656361757365206e60008201527f6f20636f75706f6e206973207072657061726564206f7220746865206d61747560208201527f7269747920697320726561636865640000000000000000000000000000000000604082015250565b6000619587604f8361685a565b915061959282619505565b606082019050919050565b600060208201905081810360008301526195b68161957a565b9050919050565b7f746865206d61747572697479206375742d6f66662074696d652068617320706160008201527f7373656400000000000000000000000000000000000000000000000000000000602082015250565b600061961960248361685a565b9150619624826195bd565b604082019050919050565b600060208201905081810360008301526196488161960c565b9050919050565b600061965a82616901565b915061966583616901565b925082619675576196746193f7565b5b82820490509291505056fea2646970667358221220254f7ddcfc10df0f9e246cc2bef9d6ed035ea5dacee27f7eb8a4a6753cb0fd3f64736f6c63430008110033",
			"opcodes": "PUSH1 0x80 PUSH1 0x40 MSTORE ADDRESS PUSH1 0x21 PUSH1 0x0 PUSH2 0x100 EXP DUP2 SLOAD DUP2 PUSH20 0xFFFFFFFFFFFFFFFFFFFFFFFFFFFFFFFFFFFFFFFF MUL NOT AND SWAP1 DUP4 PUSH20 0xFFFFFFFFFFFFFFFFFFFFFFFFFFFFFFFFFFFFFFFF AND MUL OR SWAP1 SSTORE POP CALLVALUE DUP1 ISZERO PUSH3 0x52 JUMPI PUSH1 0x0 DUP1 REVERT JUMPDEST POP PUSH1 0x40 MLOAD PUSH3 0xB08E CODESIZE SUB DUP1 PUSH3 0xB08E DUP4 CODECOPY DUP2 DUP2 ADD PUSH1 0x40 MSTORE DUP2 ADD SWAP1 PUSH3 0x78 SWAP2 SWAP1 PUSH3 0xF38 JUMP JUMPDEST DUP11 DUP11 PUSH3 0x8F PUSH1 0x0 DUP1 SHL CALLER PUSH3 0x3F2 PUSH1 0x20 SHL PUSH1 0x20 SHR JUMP JUMPDEST PUSH3 0xC1 PUSH32 0xA75205B8583660BDAD375C0CCDE11AF17668D76A408A9A5E739251B0F7C59870 DUP1 PUSH3 0x408 PUSH1 0x20 SHL PUSH1 0x20 SHR JUMP JUMPDEST CALLER PUSH1 0x1 PUSH1 0x0 PUSH2 0x100 EXP DUP2 SLOAD DUP2 PUSH20 0xFFFFFFFFFFFFFFFFFFFFFFFFFFFFFFFFFFFFFFFF MUL NOT AND SWAP1 DUP4 PUSH20 0xFFFFFFFFFFFFFFFFFFFFFFFFFFFFFFFFFFFFFFFF AND MUL OR SWAP1 SSTORE POP PUSH3 0x134 PUSH32 0xA75205B8583660BDAD375C0CCDE11AF17668D76A408A9A5E739251B0F7C59870 CALLER PUSH3 0x3F2 PUSH1 0x20 SHL PUSH1 0x20 SHR JUMP JUMPDEST PUSH3 0x186 PUSH32 0xF698AF62C65280E4949BCEEC64B760F3B7738217CBC536CDFC4C9463676B05C2 PUSH32 0xA75205B8583660BDAD375C0CCDE11AF17668D76A408A9A5E739251B0F7C59870 PUSH3 0x408 PUSH1 0x20 SHL PUSH1 0x20 SHR JUMP JUMPDEST PUSH3 0x1D8 PUSH32 0x6BA6F588BCDC2DF8426603A466C98AB15E79F7FB7F37B53581CE39C1D01B7249 PUSH32 0xA75205B8583660BDAD375C0CCDE11AF17668D76A408A9A5E739251B0F7C59870 PUSH3 0x408 PUSH1 0x20 SHL PUSH1 0x20 SHR JUMP JUMPDEST PUSH3 0x22A PUSH32 0xD7AA2DDFA4E381128202BF365B7E0A176F2FCA6CDF2F23C2B0A6F43937695890 PUSH32 0xA75205B8583660BDAD375C0CCDE11AF17668D76A408A9A5E739251B0F7C59870 PUSH3 0x408 PUSH1 0x20 SHL PUSH1 0x20 SHR JUMP JUMPDEST DUP2 PUSH1 0x7 SWAP1 DUP2 PUSH3 0x23B SWAP2 SWAP1 PUSH3 0x12E3 JUMP JUMPDEST POP DUP1 PUSH1 0x8 SWAP1 DUP2 PUSH3 0x24D SWAP2 SWAP1 PUSH3 0x12E3 JUMP JUMPDEST POP POP POP DUP11 PUSH1 0x16 PUSH1 0x0 ADD SWAP1 DUP2 PUSH3 0x264 SWAP2 SWAP1 PUSH3 0x12E3 JUMP JUMPDEST POP DUP10 PUSH1 0x16 PUSH1 0x1 ADD SWAP1 DUP2 PUSH3 0x279 SWAP2 SWAP1 PUSH3 0x12E3 JUMP JUMPDEST POP DUP9 PUSH1 0x16 PUSH1 0x2 ADD DUP2 SWAP1 SSTORE POP DUP8 PUSH1 0x16 PUSH1 0x3 ADD DUP2 SWAP1 SSTORE POP DUP7 PUSH1 0x16 PUSH1 0x4 ADD DUP2 SWAP1 SSTORE POP DUP6 PUSH1 0x16 PUSH1 0x5 ADD DUP2 SWAP1 SSTORE POP DUP5 PUSH1 0x16 PUSH1 0x6 ADD DUP2 SWAP1 SSTORE POP DUP4 PUSH1 0x16 PUSH1 0x7 ADD DUP2 SWAP1 SSTORE POP DUP3 PUSH1 0x16 PUSH1 0x8 ADD DUP2 SWAP1 SSTORE POP DUP2 PUSH1 0x16 PUSH1 0x9 ADD SWAP1 DUP1 MLOAD SWAP1 PUSH1 0x20 ADD SWAP1 PUSH3 0x2DB SWAP3 SWAP2 SWAP1 PUSH3 0xBE3 JUMP JUMPDEST POP DUP1 PUSH1 0x16 PUSH1 0xA ADD DUP2 SWAP1 SSTORE POP PUSH3 0x2F6 PUSH3 0x46B PUSH1 0x20 SHL PUSH1 0x20 SHR JUMP JUMPDEST PUSH1 0x0 PUSH1 0x15 PUSH1 0x0 PUSH2 0x100 EXP DUP2 SLOAD DUP2 PUSH1 0xFF MUL NOT AND SWAP1 DUP4 PUSH1 0x4 DUP2 GT ISZERO PUSH3 0x31F JUMPI PUSH3 0x31E PUSH3 0x13CA JUMP JUMPDEST JUMPDEST MUL OR SWAP1 SSTORE POP CALLER PUSH20 0xFFFFFFFFFFFFFFFFFFFFFFFFFFFFFFFFFFFFFFFF AND PUSH32 0x9C99CFC2B1740648876AEE40EF245AE7527339DF99966FD618B900E61BC76E75 DUP13 DUP13 PUSH1 0x40 MLOAD PUSH3 0x36E SWAP3 SWAP2 SWAP1 PUSH3 0x144B JUMP JUMPDEST PUSH1 0x40 MLOAD DUP1 SWAP2 SUB SWAP1 LOG2 CALLER PUSH20 0xFFFFFFFFFFFFFFFFFFFFFFFFFFFFFFFFFFFFFFFF AND PUSH32 0xDA2010ACFDA7A262372331CB3B57E3F648F63EB009A423A2B5602CFA4F9BFF51 PUSH1 0x16 PUSH1 0x0 ADD PUSH1 0x16 PUSH1 0x1 ADD PUSH1 0x15 PUSH1 0x0 SWAP1 SLOAD SWAP1 PUSH2 0x100 EXP SWAP1 DIV PUSH1 0xFF AND PUSH1 0x40 MLOAD PUSH3 0x3D9 SWAP4 SWAP3 SWAP2 SWAP1 PUSH3 0x1567 JUMP JUMPDEST PUSH1 0x40 MLOAD DUP1 SWAP2 SUB SWAP1 LOG2 POP POP POP POP POP POP POP POP POP POP POP PUSH3 0x19C8 JUMP JUMPDEST PUSH3 0x404 DUP3 DUP3 PUSH3 0x55D PUSH1 0x20 SHL PUSH1 0x20 SHR JUMP JUMPDEST POP POP JUMP JUMPDEST PUSH1 0x0 PUSH3 0x41B DUP4 PUSH3 0x64E PUSH1 0x20 SHL PUSH1 0x20 SHR JUMP JUMPDEST SWAP1 POP DUP2 PUSH1 0x0 DUP1 DUP6 DUP2 MSTORE PUSH1 0x20 ADD SWAP1 DUP2 MSTORE PUSH1 0x20 ADD PUSH1 0x0 KECCAK256 PUSH1 0x1 ADD DUP2 SWAP1 SSTORE POP DUP2 DUP2 DUP5 PUSH32 0xBD79B86FFE0AB8E8776151514217CD7CACD52C909F66475C3AF44E129F0B00FF PUSH1 0x40 MLOAD PUSH1 0x40 MLOAD DUP1 SWAP2 SUB SWAP1 LOG4 POP POP POP JUMP JUMPDEST PUSH1 0x0 PUSH3 0x47E TIMESTAMP PUSH3 0x66D PUSH1 0x20 SHL PUSH1 0x20 SHR JUMP JUMPDEST POP SWAP1 POP PUSH1 0x0 DUP1 PUSH1 0x16 PUSH1 0x9 ADD DUP1 SLOAD SWAP1 POP DUP4 LT ISZERO PUSH3 0x525 JUMPI PUSH1 0x16 PUSH1 0x9 ADD DUP4 DUP2 SLOAD DUP2 LT PUSH3 0x4AF JUMPI PUSH3 0x4AE PUSH3 0x15B2 JUMP JUMPDEST JUMPDEST SWAP1 PUSH1 0x0 MSTORE PUSH1 0x20 PUSH1 0x0 KECCAK256 ADD SLOAD SWAP2 POP PUSH1 0x16 PUSH1 0x9 ADD DUP1 SLOAD SWAP1 POP PUSH1 0x1 DUP5 PUSH3 0x4D4 SWAP2 SWAP1 PUSH3 0x1610 JUMP JUMPDEST LT ISZERO PUSH3 0x516 JUMPI PUSH1 0x16 PUSH1 0x9 ADD PUSH1 0x1 DUP5 PUSH3 0x4EF SWAP2 SWAP1 PUSH3 0x1610 JUMP JUMPDEST DUP2 SLOAD DUP2 LT PUSH3 0x503 JUMPI PUSH3 0x502 PUSH3 0x15B2 JUMP JUMPDEST JUMPDEST SWAP1 PUSH1 0x0 MSTORE PUSH1 0x20 PUSH1 0x0 KECCAK256 ADD SLOAD SWAP1 POP PUSH3 0x51F JUMP JUMPDEST PUSH1 0x16 PUSH1 0x8 ADD SLOAD SWAP1 POP JUMPDEST PUSH3 0x532 JUMP JUMPDEST PUSH1 0x16 PUSH1 0x8 ADD SLOAD SWAP2 POP PUSH1 0x0 SWAP1 POP JUMPDEST PUSH3 0x557 DUP3 PUSH1 0x16 PUSH1 0xA ADD SLOAD DUP5 PUSH3 0x54A SWAP2 SWAP1 PUSH3 0x1610 JUMP JUMPDEST DUP4 PUSH3 0x725 PUSH1 0x20 SHL PUSH1 0x20 SHR JUMP JUMPDEST POP POP POP POP JUMP JUMPDEST PUSH3 0x56F DUP3 DUP3 PUSH3 0x78A PUSH1 0x20 SHL PUSH1 0x20 SHR JUMP JUMPDEST PUSH3 0x64A JUMPI PUSH1 0x1 PUSH1 0x0 DUP1 DUP5 DUP2 MSTORE PUSH1 0x20 ADD SWAP1 DUP2 MSTORE PUSH1 0x20 ADD PUSH1 0x0 KECCAK256 PUSH1 0x0 ADD PUSH1 0x0 DUP4 PUSH20 0xFFFFFFFFFFFFFFFFFFFFFFFFFFFFFFFFFFFFFFFF AND PUSH20 0xFFFFFFFFFFFFFFFFFFFFFFFFFFFFFFFFFFFFFFFF AND DUP2 MSTORE PUSH1 0x20 ADD SWAP1 DUP2 MSTORE PUSH1 0x20 ADD PUSH1 0x0 KECCAK256 PUSH1 0x0 PUSH2 0x100 EXP DUP2 SLOAD DUP2 PUSH1 0xFF MUL NOT AND SWAP1 DUP4 ISZERO ISZERO MUL OR SWAP1 SSTORE POP PUSH3 0x5EF PUSH3 0x7F4 PUSH1 0x20 SHL PUSH1 0x20 SHR JUMP JUMPDEST PUSH20 0xFFFFFFFFFFFFFFFFFFFFFFFFFFFFFFFFFFFFFFFF AND DUP2 PUSH20 0xFFFFFFFFFFFFFFFFFFFFFFFFFFFFFFFFFFFFFFFF AND DUP4 PUSH32 0x2F8788117E7EFF1D82E926EC794901D17C78024A50270940304540A733656F0D PUSH1 0x40 MLOAD PUSH1 0x40 MLOAD DUP1 SWAP2 SUB SWAP1 LOG4 JUMPDEST POP POP JUMP JUMPDEST PUSH1 0x0 DUP1 PUSH1 0x0 DUP4 DUP2 MSTORE PUSH1 0x20 ADD SWAP1 DUP2 MSTORE PUSH1 0x20 ADD PUSH1 0x0 KECCAK256 PUSH1 0x1 ADD SLOAD SWAP1 POP SWAP2 SWAP1 POP JUMP JUMPDEST PUSH1 0x0 DUP1 PUSH1 0x0 JUMPDEST PUSH1 0x16 PUSH1 0x9 ADD DUP1 SLOAD SWAP1 POP DUP2 LT ISZERO PUSH3 0x70F JUMPI DUP4 PUSH1 0x16 PUSH1 0x9 ADD DUP3 DUP2 SLOAD DUP2 LT PUSH3 0x69F JUMPI PUSH3 0x69E PUSH3 0x15B2 JUMP JUMPDEST JUMPDEST SWAP1 PUSH1 0x0 MSTORE PUSH1 0x20 PUSH1 0x0 KECCAK256 ADD SLOAD SUB PUSH3 0x6BE JUMPI DUP1 PUSH1 0x1 SWAP3 POP SWAP3 POP POP PUSH3 0x720 JUMP JUMPDEST DUP4 PUSH1 0x16 PUSH1 0x9 ADD DUP3 DUP2 SLOAD DUP2 LT PUSH3 0x6D9 JUMPI PUSH3 0x6D8 PUSH3 0x15B2 JUMP JUMPDEST JUMPDEST SWAP1 PUSH1 0x0 MSTORE PUSH1 0x20 PUSH1 0x0 KECCAK256 ADD SLOAD GT ISZERO PUSH3 0x6F9 JUMPI DUP1 PUSH1 0x0 SWAP3 POP SWAP3 POP POP PUSH3 0x720 JUMP JUMPDEST DUP1 DUP1 PUSH3 0x706 SWAP1 PUSH3 0x164B JUMP JUMPDEST SWAP2 POP POP PUSH3 0x673 JUMP JUMPDEST POP PUSH1 0x16 PUSH1 0x9 ADD DUP1 SLOAD SWAP1 POP PUSH1 0x0 SWAP2 POP SWAP2 POP JUMPDEST SWAP2 POP SWAP2 JUMP JUMPDEST PUSH1 0x0 PUSH1 0x10 SLOAD DUP5 EQ PUSH3 0x74A JUMPI PUSH3 0x744 DUP5 DUP5 DUP5 PUSH3 0x7FC PUSH1 0x20 SHL PUSH1 0x20 SHR JUMP JUMPDEST PUSH3 0x77F JUMP JUMPDEST PUSH3 0x75F PUSH1 0xF SLOAD PUSH1 0x0 PUSH3 0x9E6 PUSH1 0x20 SHL PUSH1 0x20 SHR JUMP JUMPDEST DUP3 EQ PUSH3 0x77E JUMPI PUSH3 0x77D PUSH1 0x10 SLOAD PUSH1 0xE SLOAD DUP5 PUSH3 0x7FC PUSH1 0x20 SHL PUSH1 0x20 SHR JUMP JUMPDEST JUMPDEST JUMPDEST PUSH1 0x1 SWAP1 POP SWAP4 SWAP3 POP POP POP JUMP JUMPDEST PUSH1 0x0 DUP1 PUSH1 0x0 DUP5 DUP2 MSTORE PUSH1 0x20 ADD SWAP1 DUP2 MSTORE PUSH1 0x20 ADD PUSH1 0x0 KECCAK256 PUSH1 0x0 ADD PUSH1 0x0 DUP4 PUSH20 0xFFFFFFFFFFFFFFFFFFFFFFFFFFFFFFFFFFFFFFFF AND PUSH20 0xFFFFFFFFFFFFFFFFFFFFFFFFFFFFFFFFFFFFFFFF AND DUP2 MSTORE PUSH1 0x20 ADD SWAP1 DUP2 MSTORE PUSH1 0x20 ADD PUSH1 0x0 KECCAK256 PUSH1 0x0 SWAP1 SLOAD SWAP1 PUSH2 0x100 EXP SWAP1 DIV PUSH1 0xFF AND SWAP1 POP SWAP3 SWAP2 POP POP JUMP JUMPDEST PUSH1 0x0 CALLER SWAP1 POP SWAP1 JUMP JUMPDEST PUSH1 0x0 PUSH3 0x811 DUP4 PUSH1 0x0 PUSH3 0x9E6 PUSH1 0x20 SHL PUSH1 0x20 SHR JUMP JUMPDEST SWAP1 POP DUP4 DUP2 GT ISZERO PUSH3 0x859 JUMPI PUSH1 0x40 MLOAD PUSH32 0x8C379A000000000000000000000000000000000000000000000000000000000 DUP2 MSTORE PUSH1 0x4 ADD PUSH3 0x850 SWAP1 PUSH3 0x170E JUMP JUMPDEST PUSH1 0x40 MLOAD DUP1 SWAP2 SUB SWAP1 REVERT JUMPDEST PUSH1 0x0 DUP3 EQ DUP1 PUSH3 0x868 JUMPI POP DUP4 DUP3 GT JUMPDEST PUSH3 0x8AA JUMPI PUSH1 0x40 MLOAD PUSH32 0x8C379A000000000000000000000000000000000000000000000000000000000 DUP2 MSTORE PUSH1 0x4 ADD PUSH3 0x8A1 SWAP1 PUSH3 0x17A6 JUMP JUMPDEST PUSH1 0x40 MLOAD DUP1 SWAP2 SUB SWAP1 REVERT JUMPDEST PUSH1 0x0 PUSH3 0x8BF DUP6 PUSH1 0x0 PUSH3 0x9E6 PUSH1 0x20 SHL PUSH1 0x20 SHR JUMP JUMPDEST SWAP1 POP PUSH1 0x0 DUP4 SWAP1 POP PUSH1 0x0 DUP2 GT ISZERO PUSH3 0x8E5 JUMPI PUSH3 0x8E2 DUP2 DUP7 PUSH3 0x9E6 PUSH1 0x20 SHL PUSH1 0x20 SHR JUMP JUMPDEST SWAP1 POP JUMPDEST PUSH1 0x0 PUSH1 0xD PUSH1 0x0 DUP5 DUP2 MSTORE PUSH1 0x20 ADD SWAP1 DUP2 MSTORE PUSH1 0x20 ADD PUSH1 0x0 KECCAK256 SLOAD EQ PUSH3 0x93E JUMPI PUSH1 0x40 MLOAD PUSH32 0x8C379A000000000000000000000000000000000000000000000000000000000 DUP2 MSTORE PUSH1 0x4 ADD PUSH3 0x935 SWAP1 PUSH3 0x183E JUMP JUMPDEST PUSH1 0x40 MLOAD DUP1 SWAP2 SUB SWAP1 REVERT JUMPDEST DUP5 TIMESTAMP LT PUSH3 0x983 JUMPI PUSH1 0x40 MLOAD PUSH32 0x8C379A000000000000000000000000000000000000000000000000000000000 DUP2 MSTORE PUSH1 0x4 ADD PUSH3 0x97A SWAP1 PUSH3 0x18D6 JUMP JUMPDEST PUSH1 0x40 MLOAD DUP1 SWAP2 SUB SWAP1 REVERT JUMPDEST PUSH3 0x993 PUSH3 0xA36 PUSH1 0x20 SHL PUSH1 0x20 SHR JUMP JUMPDEST POP DUP5 PUSH1 0xE DUP2 SWAP1 SSTORE POP DUP2 PUSH1 0x10 DUP2 SWAP1 SSTORE POP DUP1 PUSH1 0xF DUP2 SWAP1 SSTORE POP PUSH1 0xF SLOAD PUSH1 0xE SLOAD PUSH1 0x10 SLOAD PUSH32 0x4D1D74D5CBFC13E02EF05AF3A30D8721E87A00D20BC3DC42198917139944DEF3 PUSH1 0x40 MLOAD PUSH1 0x40 MLOAD DUP1 SWAP2 SUB SWAP1 LOG4 POP POP POP POP POP POP JUMP JUMPDEST PUSH1 0x0 DUP1 PUSH3 0x15180 DUP5 PUSH3 0x9FA SWAP2 SWAP1 PUSH3 0x1927 JUMP JUMPDEST SWAP1 POP DUP1 DUP5 PUSH3 0xA0A SWAP2 SWAP1 PUSH3 0x195F JUMP JUMPDEST SWAP2 POP PUSH3 0x15180 DUP4 PUSH3 0xA1D SWAP2 SWAP1 PUSH3 0x1927 JUMP JUMPDEST SWAP1 POP DUP1 DUP3 PUSH3 0xA2D SWAP2 SWAP1 PUSH3 0x1610 JUMP JUMPDEST SWAP2 POP POP SWAP3 SWAP2 POP POP JUMP JUMPDEST PUSH1 0x0 DUP1 PUSH1 0xE SLOAD GT DUP1 ISZERO PUSH3 0xA5F JUMPI POP PUSH1 0x0 PUSH1 0xD PUSH1 0x0 PUSH1 0x10 SLOAD DUP2 MSTORE PUSH1 0x20 ADD SWAP1 DUP2 MSTORE PUSH1 0x20 ADD PUSH1 0x0 KECCAK256 SLOAD EQ JUMPDEST DUP1 ISZERO PUSH3 0xA6E JUMPI POP PUSH1 0xE SLOAD TIMESTAMP LT ISZERO JUMPDEST ISZERO PUSH3 0xB2C JUMPI PUSH1 0x0 PUSH3 0xA86 PUSH3 0xB34 PUSH1 0x20 SHL PUSH1 0x20 SHR JUMP JUMPDEST SWAP1 POP DUP1 PUSH1 0xD PUSH1 0x0 PUSH1 0x10 SLOAD DUP2 MSTORE PUSH1 0x20 ADD SWAP1 DUP2 MSTORE PUSH1 0x20 ADD PUSH1 0x0 KECCAK256 DUP2 SWAP1 SSTORE POP PUSH1 0x0 PUSH1 0xF SLOAD GT PUSH3 0xAB5 JUMPI PUSH1 0x0 PUSH3 0xACC JUMP JUMPDEST PUSH3 0xACB PUSH1 0xF SLOAD PUSH1 0xE SLOAD PUSH3 0x9E6 PUSH1 0x20 SHL PUSH1 0x20 SHR JUMP JUMPDEST JUMPDEST PUSH1 0xE DUP2 SWAP1 SSTORE POP PUSH3 0xAE7 PUSH1 0xE SLOAD PUSH1 0x0 PUSH3 0x9E6 PUSH1 0x20 SHL PUSH1 0x20 SHR JUMP JUMPDEST PUSH1 0x10 DUP2 SWAP1 SSTORE POP PUSH1 0xF SLOAD PUSH1 0xE SLOAD PUSH1 0x10 SLOAD PUSH32 0x4D1D74D5CBFC13E02EF05AF3A30D8721E87A00D20BC3DC42198917139944DEF3 PUSH1 0x40 MLOAD PUSH1 0x40 MLOAD DUP1 SWAP2 SUB SWAP1 LOG4 DUP1 SWAP2 POP POP PUSH3 0xB31 JUMP JUMPDEST PUSH1 0x0 SWAP1 POP JUMPDEST SWAP1 JUMP JUMPDEST PUSH1 0x0 PUSH3 0xB4D PUSH1 0xC PUSH3 0xBA1 PUSH1 0x20 SHL PUSH3 0x4ADF OR PUSH1 0x20 SHR JUMP JUMPDEST PUSH1 0x0 PUSH3 0xB5F PUSH3 0xBB7 PUSH1 0x20 SHL PUSH1 0x20 SHR JUMP JUMPDEST SWAP1 POP PUSH32 0x8030E83B04D87BEF53480E26263266D6CA66863AA8506ACA6F2559D18AA1CB67 DUP2 PUSH1 0x40 MLOAD PUSH3 0xB92 SWAP2 SWAP1 PUSH3 0x19AB JUMP JUMPDEST PUSH1 0x40 MLOAD DUP1 SWAP2 SUB SWAP1 LOG1 DUP1 SWAP2 POP POP SWAP1 JUMP JUMPDEST PUSH1 0x1 DUP2 PUSH1 0x0 ADD PUSH1 0x0 DUP3 DUP3 SLOAD ADD SWAP3 POP POP DUP2 SWAP1 SSTORE POP POP JUMP JUMPDEST PUSH1 0x0 PUSH3 0xBD0 PUSH1 0xC PUSH3 0xBD5 PUSH1 0x20 SHL PUSH3 0x4AF5 OR PUSH1 0x20 SHR JUMP JUMPDEST SWAP1 POP SWAP1 JUMP JUMPDEST PUSH1 0x0 DUP2 PUSH1 0x0 ADD SLOAD SWAP1 POP SWAP2 SWAP1 POP JUMP JUMPDEST DUP3 DUP1 SLOAD DUP3 DUP3 SSTORE SWAP1 PUSH1 0x0 MSTORE PUSH1 0x20 PUSH1 0x0 KECCAK256 SWAP1 DUP2 ADD SWAP3 DUP3 ISZERO PUSH3 0xC22 JUMPI SWAP2 PUSH1 0x20 MUL DUP3 ADD JUMPDEST DUP3 DUP2 GT ISZERO PUSH3 0xC21 JUMPI DUP3 MLOAD DUP3 SSTORE SWAP2 PUSH1 0x20 ADD SWAP2 SWAP1 PUSH1 0x1 ADD SWAP1 PUSH3 0xC04 JUMP JUMPDEST JUMPDEST POP SWAP1 POP PUSH3 0xC31 SWAP2 SWAP1 PUSH3 0xC35 JUMP JUMPDEST POP SWAP1 JUMP JUMPDEST JUMPDEST DUP1 DUP3 GT ISZERO PUSH3 0xC50 JUMPI PUSH1 0x0 DUP2 PUSH1 0x0 SWAP1 SSTORE POP PUSH1 0x1 ADD PUSH3 0xC36 JUMP JUMPDEST POP SWAP1 JUMP JUMPDEST PUSH1 0x0 PUSH1 0x40 MLOAD SWAP1 POP SWAP1 JUMP JUMPDEST PUSH1 0x0 DUP1 REVERT JUMPDEST PUSH1 0x0 DUP1 REVERT JUMPDEST PUSH1 0x0 DUP1 REVERT JUMPDEST PUSH1 0x0 DUP1 REVERT JUMPDEST PUSH1 0x0 PUSH1 0x1F NOT PUSH1 0x1F DUP4 ADD AND SWAP1 POP SWAP2 SWAP1 POP JUMP JUMPDEST PUSH32 0x4E487B7100000000000000000000000000000000000000000000000000000000 PUSH1 0x0 MSTORE PUSH1 0x41 PUSH1 0x4 MSTORE PUSH1 0x24 PUSH1 0x0 REVERT JUMPDEST PUSH3 0xCBD DUP3 PUSH3 0xC72 JUMP JUMPDEST DUP2 ADD DUP2 DUP2 LT PUSH8 0xFFFFFFFFFFFFFFFF DUP3 GT OR ISZERO PUSH3 0xCDF JUMPI PUSH3 0xCDE PUSH3 0xC83 JUMP JUMPDEST JUMPDEST DUP1 PUSH1 0x40 MSTORE POP POP POP JUMP JUMPDEST PUSH1 0x0 PUSH3 0xCF4 PUSH3 0xC54 JUMP JUMPDEST SWAP1 POP PUSH3 0xD02 DUP3 DUP3 PUSH3 0xCB2 JUMP JUMPDEST SWAP2 SWAP1 POP JUMP JUMPDEST PUSH1 0x0 PUSH8 0xFFFFFFFFFFFFFFFF DUP3 GT ISZERO PUSH3 0xD25 JUMPI PUSH3 0xD24 PUSH3 0xC83 JUMP JUMPDEST JUMPDEST PUSH3 0xD30 DUP3 PUSH3 0xC72 JUMP JUMPDEST SWAP1 POP PUSH1 0x20 DUP2 ADD SWAP1 POP SWAP2 SWAP1 POP JUMP JUMPDEST PUSH1 0x0 JUMPDEST DUP4 DUP2 LT ISZERO PUSH3 0xD5D JUMPI DUP1 DUP3 ADD MLOAD DUP2 DUP5 ADD MSTORE PUSH1 0x20 DUP2 ADD SWAP1 POP PUSH3 0xD40 JUMP JUMPDEST PUSH1 0x0 DUP5 DUP5 ADD MSTORE POP POP POP POP JUMP JUMPDEST PUSH1 0x0 PUSH3 0xD80 PUSH3 0xD7A DUP5 PUSH3 0xD07 JUMP JUMPDEST PUSH3 0xCE8 JUMP JUMPDEST SWAP1 POP DUP3 DUP2 MSTORE PUSH1 0x20 DUP2 ADD DUP5 DUP5 DUP5 ADD GT ISZERO PUSH3 0xD9F JUMPI PUSH3 0xD9E PUSH3 0xC6D JUMP JUMPDEST JUMPDEST PUSH3 0xDAC DUP5 DUP3 DUP6 PUSH3 0xD3D JUMP JUMPDEST POP SWAP4 SWAP3 POP POP POP JUMP JUMPDEST PUSH1 0x0 DUP3 PUSH1 0x1F DUP4 ADD SLT PUSH3 0xDCC JUMPI PUSH3 0xDCB PUSH3 0xC68 JUMP JUMPDEST JUMPDEST DUP2 MLOAD PUSH3 0xDDE DUP5 DUP3 PUSH1 0x20 DUP7 ADD PUSH3 0xD69 JUMP JUMPDEST SWAP2 POP POP SWAP3 SWAP2 POP POP JUMP JUMPDEST PUSH1 0x0 DUP2 SWAP1 POP SWAP2 SWAP1 POP JUMP JUMPDEST PUSH3 0xDFC DUP2 PUSH3 0xDE7 JUMP JUMPDEST DUP2 EQ PUSH3 0xE08 JUMPI PUSH1 0x0 DUP1 REVERT JUMPDEST POP JUMP JUMPDEST PUSH1 0x0 DUP2 MLOAD SWAP1 POP PUSH3 0xE1C DUP2 PUSH3 0xDF1 JUMP JUMPDEST SWAP3 SWAP2 POP POP JUMP JUMPDEST PUSH1 0x0 DUP2 SWAP1 POP SWAP2 SWAP1 POP JUMP JUMPDEST PUSH3 0xE37 DUP2 PUSH3 0xE22 JUMP JUMPDEST DUP2 EQ PUSH3 0xE43 JUMPI PUSH1 0x0 DUP1 REVERT JUMPDEST POP JUMP JUMPDEST PUSH1 0x0 DUP2 MLOAD SWAP1 POP PUSH3 0xE57 DUP2 PUSH3 0xE2C JUMP JUMPDEST SWAP3 SWAP2 POP POP JUMP JUMPDEST PUSH1 0x0 PUSH8 0xFFFFFFFFFFFFFFFF DUP3 GT ISZERO PUSH3 0xE7B JUMPI PUSH3 0xE7A PUSH3 0xC83 JUMP JUMPDEST JUMPDEST PUSH1 0x20 DUP3 MUL SWAP1 POP PUSH1 0x20 DUP2 ADD SWAP1 POP SWAP2 SWAP1 POP JUMP JUMPDEST PUSH1 0x0 DUP1 REVERT JUMPDEST PUSH1 0x0 PUSH3 0xEA8 PUSH3 0xEA2 DUP5 PUSH3 0xE5D JUMP JUMPDEST PUSH3 0xCE8 JUMP JUMPDEST SWAP1 POP DUP1 DUP4 DUP3 MSTORE PUSH1 0x20 DUP3 ADD SWAP1 POP PUSH1 0x20 DUP5 MUL DUP4 ADD DUP6 DUP2 GT ISZERO PUSH3 0xECE JUMPI PUSH3 0xECD PUSH3 0xE8C JUMP JUMPDEST JUMPDEST DUP4 JUMPDEST DUP2 DUP2 LT ISZERO PUSH3 0xEFB JUMPI DUP1 PUSH3 0xEE6 DUP9 DUP3 PUSH3 0xE0B JUMP JUMPDEST DUP5 MSTORE PUSH1 0x20 DUP5 ADD SWAP4 POP POP PUSH1 0x20 DUP2 ADD SWAP1 POP PUSH3 0xED0 JUMP JUMPDEST POP POP POP SWAP4 SWAP3 POP POP POP JUMP JUMPDEST PUSH1 0x0 DUP3 PUSH1 0x1F DUP4 ADD SLT PUSH3 0xF1D JUMPI PUSH3 0xF1C PUSH3 0xC68 JUMP JUMPDEST JUMPDEST DUP2 MLOAD PUSH3 0xF2F DUP5 DUP3 PUSH1 0x20 DUP7 ADD PUSH3 0xE91 JUMP JUMPDEST SWAP2 POP POP SWAP3 SWAP2 POP POP JUMP JUMPDEST PUSH1 0x0 DUP1 PUSH1 0x0 DUP1 PUSH1 0x0 DUP1 PUSH1 0x0 DUP1 PUSH1 0x0 DUP1 PUSH1 0x0 PUSH2 0x160 DUP13 DUP15 SUB SLT ISZERO PUSH3 0xF61 JUMPI PUSH3 0xF60 PUSH3 0xC5E JUMP JUMPDEST JUMPDEST PUSH1 0x0 DUP13 ADD MLOAD PUSH8 0xFFFFFFFFFFFFFFFF DUP2 GT ISZERO PUSH3 0xF82 JUMPI PUSH3 0xF81 PUSH3 0xC63 JUMP JUMPDEST JUMPDEST PUSH3 0xF90 DUP15 DUP3 DUP16 ADD PUSH3 0xDB4 JUMP JUMPDEST SWAP12 POP POP PUSH1 0x20 DUP13 ADD MLOAD PUSH8 0xFFFFFFFFFFFFFFFF DUP2 GT ISZERO PUSH3 0xFB4 JUMPI PUSH3 0xFB3 PUSH3 0xC63 JUMP JUMPDEST JUMPDEST PUSH3 0xFC2 DUP15 DUP3 DUP16 ADD PUSH3 0xDB4 JUMP JUMPDEST SWAP11 POP POP PUSH1 0x40 PUSH3 0xFD5 DUP15 DUP3 DUP16 ADD PUSH3 0xE0B JUMP JUMPDEST SWAP10 POP POP PUSH1 0x60 PUSH3 0xFE8 DUP15 DUP3 DUP16 ADD PUSH3 0xE46 JUMP JUMPDEST SWAP9 POP POP PUSH1 0x80 PUSH3 0xFFB DUP15 DUP3 DUP16 ADD PUSH3 0xE0B JUMP JUMPDEST SWAP8 POP POP PUSH1 0xA0 PUSH3 0x100E DUP15 DUP3 DUP16 ADD PUSH3 0xE0B JUMP JUMPDEST SWAP7 POP POP PUSH1 0xC0 PUSH3 0x1021 DUP15 DUP3 DUP16 ADD PUSH3 0xE0B JUMP JUMPDEST SWAP6 POP POP PUSH1 0xE0 PUSH3 0x1034 DUP15 DUP3 DUP16 ADD PUSH3 0xE0B JUMP JUMPDEST SWAP5 POP POP PUSH2 0x100 PUSH3 0x1048 DUP15 DUP3 DUP16 ADD PUSH3 0xE0B JUMP JUMPDEST SWAP4 POP POP PUSH2 0x120 DUP13 ADD MLOAD PUSH8 0xFFFFFFFFFFFFFFFF DUP2 GT ISZERO PUSH3 0x106D JUMPI PUSH3 0x106C PUSH3 0xC63 JUMP JUMPDEST JUMPDEST PUSH3 0x107B DUP15 DUP3 DUP16 ADD PUSH3 0xF05 JUMP JUMPDEST SWAP3 POP POP PUSH2 0x140 PUSH3 0x108F DUP15 DUP3 DUP16 ADD PUSH3 0xE0B JUMP JUMPDEST SWAP2 POP POP SWAP3 SWAP6 SWAP9 SWAP12 POP SWAP3 SWAP6 SWAP9 SWAP12 SWAP1 SWAP4 SWAP7 SWAP10 POP JUMP JUMPDEST PUSH1 0x0 DUP2 MLOAD SWAP1 POP SWAP2 SWAP1 POP JUMP JUMPDEST PUSH32 0x4E487B7100000000000000000000000000000000000000000000000000000000 PUSH1 0x0 MSTORE PUSH1 0x22 PUSH1 0x4 MSTORE PUSH1 0x24 PUSH1 0x0 REVERT JUMPDEST PUSH1 0x0 PUSH1 0x2 DUP3 DIV SWAP1 POP PUSH1 0x1 DUP3 AND DUP1 PUSH3 0x10F5 JUMPI PUSH1 0x7F DUP3 AND SWAP2 POP JUMPDEST PUSH1 0x20 DUP3 LT DUP2 SUB PUSH3 0x110B JUMPI PUSH3 0x110A PUSH3 0x10AD JUMP JUMPDEST JUMPDEST POP SWAP2 SWAP1 POP JUMP JUMPDEST PUSH1 0x0 DUP2 SWAP1 POP DUP2 PUSH1 0x0 MSTORE PUSH1 0x20 PUSH1 0x0 KECCAK256 SWAP1 POP SWAP2 SWAP1 POP JUMP JUMPDEST PUSH1 0x0 PUSH1 0x20 PUSH1 0x1F DUP4 ADD DIV SWAP1 POP SWAP2 SWAP1 POP JUMP JUMPDEST PUSH1 0x0 DUP3 DUP3 SHL SWAP1 POP SWAP3 SWAP2 POP POP JUMP JUMPDEST PUSH1 0x0 PUSH1 0x8 DUP4 MUL PUSH3 0x1175 PUSH32 0xFFFFFFFFFFFFFFFFFFFFFFFFFFFFFFFFFFFFFFFFFFFFFFFFFFFFFFFFFFFFFFFF DUP3 PUSH3 0x1136 JUMP JUMPDEST PUSH3 0x1181 DUP7 DUP4 PUSH3 0x1136 JUMP JUMPDEST SWAP6 POP DUP1 NOT DUP5 AND SWAP4 POP DUP1 DUP7 AND DUP5 OR SWAP3 POP POP POP SWAP4 SWAP3 POP POP POP JUMP JUMPDEST PUSH1 0x0 DUP2 SWAP1 POP SWAP2 SWAP1 POP JUMP JUMPDEST PUSH1 0x0 PUSH3 0x11C4 PUSH3 0x11BE PUSH3 0x11B8 DUP5 PUSH3 0xDE7 JUMP JUMPDEST PUSH3 0x1199 JUMP JUMPDEST PUSH3 0xDE7 JUMP JUMPDEST SWAP1 POP SWAP2 SWAP1 POP JUMP JUMPDEST PUSH1 0x0 DUP2 SWAP1 POP SWAP2 SWAP1 POP JUMP JUMPDEST PUSH3 0x11E0 DUP4 PUSH3 0x11A3 JUMP JUMPDEST PUSH3 0x11F8 PUSH3 0x11EF DUP3 PUSH3 0x11CB JUMP JUMPDEST DUP5 DUP5 SLOAD PUSH3 0x1143 JUMP JUMPDEST DUP3 SSTORE POP POP POP POP JUMP JUMPDEST PUSH1 0x0 SWAP1 JUMP JUMPDEST PUSH3 0x120F PUSH3 0x1200 JUMP JUMPDEST PUSH3 0x121C DUP2 DUP5 DUP5 PUSH3 0x11D5 JUMP JUMPDEST POP POP POP JUMP JUMPDEST JUMPDEST DUP2 DUP2 LT ISZERO PUSH3 0x1244 JUMPI PUSH3 0x1238 PUSH1 0x0 DUP3 PUSH3 0x1205 JUMP JUMPDEST PUSH1 0x1 DUP2 ADD SWAP1 POP PUSH3 0x1222 JUMP JUMPDEST POP POP JUMP JUMPDEST PUSH1 0x1F DUP3 GT ISZERO PUSH3 0x1293 JUMPI PUSH3 0x125D DUP2 PUSH3 0x1111 JUMP JUMPDEST PUSH3 0x1268 DUP5 PUSH3 0x1126 JUMP JUMPDEST DUP2 ADD PUSH1 0x20 DUP6 LT ISZERO PUSH3 0x1278 JUMPI DUP2 SWAP1 POP JUMPDEST PUSH3 0x1290 PUSH3 0x1287 DUP6 PUSH3 0x1126 JUMP JUMPDEST DUP4 ADD DUP3 PUSH3 0x1221 JUMP JUMPDEST POP POP JUMPDEST POP POP POP JUMP JUMPDEST PUSH1 0x0 DUP3 DUP3 SHR SWAP1 POP SWAP3 SWAP2 POP POP JUMP JUMPDEST PUSH1 0x0 PUSH3 0x12B8 PUSH1 0x0 NOT DUP5 PUSH1 0x8 MUL PUSH3 0x1298 JUMP JUMPDEST NOT DUP1 DUP4 AND SWAP2 POP POP SWAP3 SWAP2 POP POP JUMP JUMPDEST PUSH1 0x0 PUSH3 0x12D3 DUP4 DUP4 PUSH3 0x12A5 JUMP JUMPDEST SWAP2 POP DUP3 PUSH1 0x2 MUL DUP3 OR SWAP1 POP SWAP3 SWAP2 POP POP JUMP JUMPDEST PUSH3 0x12EE DUP3 PUSH3 0x10A2 JUMP JUMPDEST PUSH8 0xFFFFFFFFFFFFFFFF DUP2 GT ISZERO PUSH3 0x130A JUMPI PUSH3 0x1309 PUSH3 0xC83 JUMP JUMPDEST JUMPDEST PUSH3 0x1316 DUP3 SLOAD PUSH3 0x10DC JUMP JUMPDEST PUSH3 0x1323 DUP3 DUP3 DUP6 PUSH3 0x1248 JUMP JUMPDEST PUSH1 0x0 PUSH1 0x20 SWAP1 POP PUSH1 0x1F DUP4 GT PUSH1 0x1 DUP2 EQ PUSH3 0x135B JUMPI PUSH1 0x0 DUP5 ISZERO PUSH3 0x1346 JUMPI DUP3 DUP8 ADD MLOAD SWAP1 POP JUMPDEST PUSH3 0x1352 DUP6 DUP3 PUSH3 0x12C5 JUMP JUMPDEST DUP7 SSTORE POP PUSH3 0x13C2 JUMP JUMPDEST PUSH1 0x1F NOT DUP5 AND PUSH3 0x136B DUP7 PUSH3 0x1111 JUMP JUMPDEST PUSH1 0x0 JUMPDEST DUP3 DUP2 LT ISZERO PUSH3 0x1395 JUMPI DUP5 DUP10 ADD MLOAD DUP3 SSTORE PUSH1 0x1 DUP3 ADD SWAP2 POP PUSH1 0x20 DUP6 ADD SWAP5 POP PUSH1 0x20 DUP2 ADD SWAP1 POP PUSH3 0x136E JUMP JUMPDEST DUP7 DUP4 LT ISZERO PUSH3 0x13B5 JUMPI DUP5 DUP10 ADD MLOAD PUSH3 0x13B1 PUSH1 0x1F DUP10 AND DUP3 PUSH3 0x12A5 JUMP JUMPDEST DUP4 SSTORE POP JUMPDEST PUSH1 0x1 PUSH1 0x2 DUP9 MUL ADD DUP9 SSTORE POP POP POP JUMPDEST POP POP POP POP POP POP JUMP JUMPDEST PUSH32 0x4E487B7100000000000000000000000000000000000000000000000000000000 PUSH1 0x0 MSTORE PUSH1 0x21 PUSH1 0x4 MSTORE PUSH1 0x24 PUSH1 0x0 REVERT JUMPDEST PUSH1 0x0 DUP3 DUP3 MSTORE PUSH1 0x20 DUP3 ADD SWAP1 POP SWAP3 SWAP2 POP POP JUMP JUMPDEST PUSH1 0x0 PUSH3 0x1417 DUP3 PUSH3 0x10A2 JUMP JUMPDEST PUSH3 0x1423 DUP2 DUP6 PUSH3 0x13F9 JUMP JUMPDEST SWAP4 POP PUSH3 0x1435 DUP2 DUP6 PUSH1 0x20 DUP7 ADD PUSH3 0xD3D JUMP JUMPDEST PUSH3 0x1440 DUP2 PUSH3 0xC72 JUMP JUMPDEST DUP5 ADD SWAP2 POP POP SWAP3 SWAP2 POP POP JUMP JUMPDEST PUSH1 0x0 PUSH1 0x40 DUP3 ADD SWAP1 POP DUP2 DUP2 SUB PUSH1 0x0 DUP4 ADD MSTORE PUSH3 0x1467 DUP2 DUP6 PUSH3 0x140A JUMP JUMPDEST SWAP1 POP DUP2 DUP2 SUB PUSH1 0x20 DUP4 ADD MSTORE PUSH3 0x147D DUP2 DUP5 PUSH3 0x140A JUMP JUMPDEST SWAP1 POP SWAP4 SWAP3 POP POP POP JUMP JUMPDEST PUSH1 0x0 DUP2 SLOAD PUSH3 0x1495 DUP2 PUSH3 0x10DC JUMP JUMPDEST PUSH3 0x14A1 DUP2 DUP7 PUSH3 0x13F9 JUMP JUMPDEST SWAP5 POP PUSH1 0x1 DUP3 AND PUSH1 0x0 DUP2 EQ PUSH3 0x14BF JUMPI PUSH1 0x1 DUP2 EQ PUSH3 0x14D6 JUMPI PUSH3 0x150D JUMP JUMPDEST PUSH1 0xFF NOT DUP4 AND DUP7 MSTORE DUP2 ISZERO ISZERO PUSH1 0x20 MUL DUP7 ADD SWAP4 POP PUSH3 0x150D JUMP JUMPDEST PUSH3 0x14E1 DUP6 PUSH3 0x1111 JUMP JUMPDEST PUSH1 0x0 JUMPDEST DUP4 DUP2 LT ISZERO PUSH3 0x1505 JUMPI DUP2 SLOAD DUP2 DUP10 ADD MSTORE PUSH1 0x1 DUP3 ADD SWAP2 POP PUSH1 0x20 DUP2 ADD SWAP1 POP PUSH3 0x14E4 JUMP JUMPDEST DUP1 DUP9 ADD SWAP6 POP POP POP JUMPDEST POP POP POP SWAP3 SWAP2 POP POP JUMP JUMPDEST PUSH1 0x5 DUP2 LT PUSH3 0x152A JUMPI PUSH3 0x1529 PUSH3 0x13CA JUMP JUMPDEST JUMPDEST POP JUMP JUMPDEST PUSH1 0x0 DUP2 SWAP1 POP PUSH3 0x153D DUP3 PUSH3 0x1516 JUMP JUMPDEST SWAP2 SWAP1 POP JUMP JUMPDEST PUSH1 0x0 PUSH3 0x154F DUP3 PUSH3 0x152D JUMP JUMPDEST SWAP1 POP SWAP2 SWAP1 POP JUMP JUMPDEST PUSH3 0x1561 DUP2 PUSH3 0x1542 JUMP JUMPDEST DUP3 MSTORE POP POP JUMP JUMPDEST PUSH1 0x0 PUSH1 0x60 DUP3 ADD SWAP1 POP DUP2 DUP2 SUB PUSH1 0x0 DUP4 ADD MSTORE PUSH3 0x1583 DUP2 DUP7 PUSH3 0x1486 JUMP JUMPDEST SWAP1 POP DUP2 DUP2 SUB PUSH1 0x20 DUP4 ADD MSTORE PUSH3 0x1599 DUP2 DUP6 PUSH3 0x1486 JUMP JUMPDEST SWAP1 POP PUSH3 0x15AA PUSH1 0x40 DUP4 ADD DUP5 PUSH3 0x1556 JUMP JUMPDEST SWAP5 SWAP4 POP POP POP POP JUMP JUMPDEST PUSH32 0x4E487B7100000000000000000000000000000000000000000000000000000000 PUSH1 0x0 MSTORE PUSH1 0x32 PUSH1 0x4 MSTORE PUSH1 0x24 PUSH1 0x0 REVERT JUMPDEST PUSH32 0x4E487B7100000000000000000000000000000000000000000000000000000000 PUSH1 0x0 MSTORE PUSH1 0x11 PUSH1 0x4 MSTORE PUSH1 0x24 PUSH1 0x0 REVERT JUMPDEST PUSH1 0x0 PUSH3 0x161D DUP3 PUSH3 0xDE7 JUMP JUMPDEST SWAP2 POP PUSH3 0x162A DUP4 PUSH3 0xDE7 JUMP JUMPDEST SWAP3 POP DUP3 DUP3 ADD SWAP1 POP DUP1 DUP3 GT ISZERO PUSH3 0x1645 JUMPI PUSH3 0x1644 PUSH3 0x15E1 JUMP JUMPDEST JUMPDEST SWAP3 SWAP2 POP POP JUMP JUMPDEST PUSH1 0x0 PUSH3 0x1658 DUP3 PUSH3 0xDE7 JUMP JUMPDEST SWAP2 POP PUSH32 0xFFFFFFFFFFFFFFFFFFFFFFFFFFFFFFFFFFFFFFFFFFFFFFFFFFFFFFFFFFFFFFFF DUP3 SUB PUSH3 0x168D JUMPI PUSH3 0x168C PUSH3 0x15E1 JUMP JUMPDEST JUMPDEST PUSH1 0x1 DUP3 ADD SWAP1 POP SWAP2 SWAP1 POP JUMP JUMPDEST PUSH32 0x746865207265636F726420646174652063616E6E6F7420626520616674657220 PUSH1 0x0 DUP3 ADD MSTORE PUSH32 0x74686520736574746C656D656E74206461746500000000000000000000000000 PUSH1 0x20 DUP3 ADD MSTORE POP JUMP JUMPDEST PUSH1 0x0 PUSH3 0x16F6 PUSH1 0x33 DUP4 PUSH3 0x13F9 JUMP JUMPDEST SWAP2 POP PUSH3 0x1703 DUP3 PUSH3 0x1698 JUMP JUMPDEST PUSH1 0x40 DUP3 ADD SWAP1 POP SWAP2 SWAP1 POP JUMP JUMPDEST PUSH1 0x0 PUSH1 0x20 DUP3 ADD SWAP1 POP DUP2 DUP2 SUB PUSH1 0x0 DUP4 ADD MSTORE PUSH3 0x1729 DUP2 PUSH3 0x16E7 JUMP JUMPDEST SWAP1 POP SWAP2 SWAP1 POP JUMP JUMPDEST PUSH32 0x696E76616C6964206E6578742064617465207768656E2073657474696E672074 PUSH1 0x0 DUP3 ADD MSTORE PUSH32 0x68652063757272656E7420736E617073686F74206461746574696D6500000000 PUSH1 0x20 DUP3 ADD MSTORE POP JUMP JUMPDEST PUSH1 0x0 PUSH3 0x178E PUSH1 0x3C DUP4 PUSH3 0x13F9 JUMP JUMPDEST SWAP2 POP PUSH3 0x179B DUP3 PUSH3 0x1730 JUMP JUMPDEST PUSH1 0x40 DUP3 ADD SWAP1 POP SWAP2 SWAP1 POP JUMP JUMPDEST PUSH1 0x0 PUSH1 0x20 DUP3 ADD SWAP1 POP DUP2 DUP2 SUB PUSH1 0x0 DUP4 ADD MSTORE PUSH3 0x17C1 DUP2 PUSH3 0x177F JUMP JUMPDEST SWAP1 POP SWAP2 SWAP1 POP JUMP JUMPDEST PUSH32 0x44617465206F6620636F75706F6E206F72206D6174757269747920616C726561 PUSH1 0x0 DUP3 ADD MSTORE PUSH32 0x64792074616B656E000000000000000000000000000000000000000000000000 PUSH1 0x20 DUP3 ADD MSTORE POP JUMP JUMPDEST PUSH1 0x0 PUSH3 0x1826 PUSH1 0x28 DUP4 PUSH3 0x13F9 JUMP JUMPDEST SWAP2 POP PUSH3 0x1833 DUP3 PUSH3 0x17C8 JUMP JUMPDEST PUSH1 0x40 DUP3 ADD SWAP1 POP SWAP2 SWAP1 POP JUMP JUMPDEST PUSH1 0x0 PUSH1 0x20 DUP3 ADD SWAP1 POP DUP2 DUP2 SUB PUSH1 0x0 DUP4 ADD MSTORE PUSH3 0x1859 DUP2 PUSH3 0x1817 JUMP JUMPDEST SWAP1 POP SWAP2 SWAP1 POP JUMP JUMPDEST PUSH32 0x796F75206861766520746F20646566696E652061206E657720706572696F6420 PUSH1 0x0 DUP3 ADD MSTORE PUSH32 0x656E64696E67206166746572207468652063757272656E742074696D65000000 PUSH1 0x20 DUP3 ADD MSTORE POP JUMP JUMPDEST PUSH1 0x0 PUSH3 0x18BE PUSH1 0x3D DUP4 PUSH3 0x13F9 JUMP JUMPDEST SWAP2 POP PUSH3 0x18CB DUP3 PUSH3 0x1860 JUMP JUMPDEST PUSH1 0x40 DUP3 ADD SWAP1 POP SWAP2 SWAP1 POP JUMP JUMPDEST PUSH1 0x0 PUSH1 0x20 DUP3 ADD SWAP1 POP DUP2 DUP2 SUB PUSH1 0x0 DUP4 ADD MSTORE PUSH3 0x18F1 DUP2 PUSH3 0x18AF JUMP JUMPDEST SWAP1 POP SWAP2 SWAP1 POP JUMP JUMPDEST PUSH32 0x4E487B7100000000000000000000000000000000000000000000000000000000 PUSH1 0x0 MSTORE PUSH1 0x12 PUSH1 0x4 MSTORE PUSH1 0x24 PUSH1 0x0 REVERT JUMPDEST PUSH1 0x0 PUSH3 0x1934 DUP3 PUSH3 0xDE7 JUMP JUMPDEST SWAP2 POP PUSH3 0x1941 DUP4 PUSH3 0xDE7 JUMP JUMPDEST SWAP3 POP DUP3 PUSH3 0x1954 JUMPI PUSH3 0x1953 PUSH3 0x18F8 JUMP JUMPDEST JUMPDEST DUP3 DUP3 MOD SWAP1 POP SWAP3 SWAP2 POP POP JUMP JUMPDEST PUSH1 0x0 PUSH3 0x196C DUP3 PUSH3 0xDE7 JUMP JUMPDEST SWAP2 POP PUSH3 0x1979 DUP4 PUSH3 0xDE7 JUMP JUMPDEST SWAP3 POP DUP3 DUP3 SUB SWAP1 POP DUP2 DUP2 GT ISZERO PUSH3 0x1994 JUMPI PUSH3 0x1993 PUSH3 0x15E1 JUMP JUMPDEST JUMPDEST SWAP3 SWAP2 POP POP JUMP JUMPDEST PUSH3 0x19A5 DUP2 PUSH3 0xDE7 JUMP JUMPDEST DUP3 MSTORE POP POP JUMP JUMPDEST PUSH1 0x0 PUSH1 0x20 DUP3 ADD SWAP1 POP PUSH3 0x19C2 PUSH1 0x0 DUP4 ADD DUP5 PUSH3 0x199A JUMP JUMPDEST SWAP3 SWAP2 POP POP JUMP JUMPDEST PUSH2 0x96B6 DUP1 PUSH3 0x19D8 PUSH1 0x0 CODECOPY PUSH1 0x0 RETURN INVALID PUSH1 0x80 PUSH1 0x40 MSTORE CALLVALUE DUP1 ISZERO PUSH2 0x10 JUMPI PUSH1 0x0 DUP1 REVERT JUMPDEST POP PUSH1 0x4 CALLDATASIZE LT PUSH2 0x4AB JUMPI PUSH1 0x0 CALLDATALOAD PUSH1 0xE0 SHR DUP1 PUSH4 0x8F92F490 GT PUSH2 0x26D JUMPI DUP1 PUSH4 0xCC80473C GT PUSH2 0x151 JUMPI DUP1 PUSH4 0xD696FB0B GT PUSH2 0xCE JUMPI DUP1 PUSH4 0xE336C590 GT PUSH2 0x92 JUMPI DUP1 PUSH4 0xE336C590 EQ PUSH2 0xF24 JUMPI DUP1 PUSH4 0xE3965D54 EQ PUSH2 0xF42 JUMPI DUP1 PUSH4 0xE5BF6DC8 EQ PUSH2 0xF72 JUMPI DUP1 PUSH4 0xEEB4CEE9 EQ PUSH2 0xF90 JUMPI DUP1 PUSH4 0xF60D9EA1 EQ PUSH2 0xFAE JUMPI DUP1 PUSH4 0xF690C6C5 EQ PUSH2 0xFCA JUMPI PUSH2 0x4AB JUMP JUMPDEST DUP1 PUSH4 0xD696FB0B EQ PUSH2 0xE96 JUMPI DUP1 PUSH4 0xD8EAB9A5 EQ PUSH2 0xEB2 JUMPI DUP1 PUSH4 0xD9A79978 EQ PUSH2 0xECE JUMPI DUP1 PUSH4 0xDC16722B EQ PUSH2 0xEEA JUMPI DUP1 PUSH4 0xDD62ED3E EQ PUSH2 0xEF4 JUMPI PUSH2 0x4AB JUMP JUMPDEST DUP1 PUSH4 0xD4CDDA91 GT PUSH2 0x115 JUMPI DUP1 PUSH4 0xD4CDDA91 EQ PUSH2 0xDF6 JUMPI DUP1 PUSH4 0xD547741F EQ PUSH2 0xE26 JUMPI DUP1 PUSH4 0xD58C80B4 EQ PUSH2 0xE42 JUMPI DUP1 PUSH4 0xD5C0BEEB EQ PUSH2 0xE5E JUMPI DUP1 PUSH4 0xD614284A EQ PUSH2 0xE7A JUMPI PUSH2 0x4AB JUMP JUMPDEST DUP1 PUSH4 0xCC80473C EQ PUSH2 0xD66 JUMPI DUP1 PUSH4 0xCF5B3628 EQ PUSH2 0xD82 JUMPI DUP1 PUSH4 0xD0A2F2C4 EQ PUSH2 0xDB2 JUMPI DUP1 PUSH4 0xD1EC6DE8 EQ PUSH2 0xDD0 JUMPI DUP1 PUSH4 0xD46BE608 EQ PUSH2 0xDEC JUMPI PUSH2 0x4AB JUMP JUMPDEST DUP1 PUSH4 0xA457C2D7 GT PUSH2 0x1EA JUMPI DUP1 PUSH4 0xAED054D5 GT PUSH2 0x1AE JUMPI DUP1 PUSH4 0xAED054D5 EQ PUSH2 0xCA4 JUMPI DUP1 PUSH4 0xB90C1DBB EQ PUSH2 0xCC2 JUMPI DUP1 PUSH4 0xC1F4250B EQ PUSH2 0xCE0 JUMPI DUP1 PUSH4 0xC2FAAE59 EQ PUSH2 0xCFC JUMPI DUP1 PUSH4 0xC41251A1 EQ PUSH2 0xD1A JUMPI DUP1 PUSH4 0xC47F0027 EQ PUSH2 0xD4A JUMPI PUSH2 0x4AB JUMP JUMPDEST DUP1 PUSH4 0xA457C2D7 EQ PUSH2 0xBC6 JUMPI DUP1 PUSH4 0xA55234B8 EQ PUSH2 0xBF6 JUMPI DUP1 PUSH4 0xA7F2F6EC EQ PUSH2 0xC26 JUMPI DUP1 PUSH4 0xA9059CBB EQ PUSH2 0xC44 JUMPI DUP1 PUSH4 0xABC2CF2A EQ PUSH2 0xC74 JUMPI PUSH2 0x4AB JUMP JUMPDEST DUP1 PUSH4 0x9EF986DE GT PUSH2 0x231 JUMPI DUP1 PUSH4 0x9EF986DE EQ PUSH2 0xB22 JUMPI DUP1 PUSH4 0xA0712D68 EQ PUSH2 0xB40 JUMPI DUP1 PUSH4 0xA1962183 EQ PUSH2 0xB5C JUMPI DUP1 PUSH4 0xA217FDDF EQ PUSH2 0xB8C JUMPI DUP1 PUSH4 0xA28F78F8 EQ PUSH2 0xBAA JUMPI PUSH2 0x4AB JUMP JUMPDEST DUP1 PUSH4 0x8F92F490 EQ PUSH2 0xA58 JUMPI DUP1 PUSH4 0x91D14854 EQ PUSH2 0xA88 JUMPI DUP1 PUSH4 0x93C39393 EQ PUSH2 0xAB8 JUMPI DUP1 PUSH4 0x95D89B41 EQ PUSH2 0xAD4 JUMPI DUP1 PUSH4 0x981B24D0 EQ PUSH2 0xAF2 JUMPI PUSH2 0x4AB JUMP JUMPDEST DUP1 PUSH4 0x36568ABE GT PUSH2 0x394 JUMPI DUP1 PUSH4 0x5AB6F71B GT PUSH2 0x311 JUMPI DUP1 PUSH4 0x7CC7BCCE GT PUSH2 0x2D5 JUMPI DUP1 PUSH4 0x7CC7BCCE EQ PUSH2 0x982 JUMPI DUP1 PUSH4 0x7DC35505 EQ PUSH2 0x9B2 JUMPI DUP1 PUSH4 0x806BA100 EQ PUSH2 0x9D0 JUMPI DUP1 PUSH4 0x8784FF18 EQ PUSH2 0xA00 JUMPI DUP1 PUSH4 0x8865F1E2 EQ PUSH2 0xA1E JUMPI DUP1 PUSH4 0x8E1305DE EQ PUSH2 0xA3C JUMPI PUSH2 0x4AB JUMP JUMPDEST DUP1 PUSH4 0x5AB6F71B EQ PUSH2 0x8CA JUMPI DUP1 PUSH4 0x63896D19 EQ PUSH2 0x8E8 JUMPI DUP1 PUSH4 0x70A08231 EQ PUSH2 0x906 JUMPI DUP1 PUSH4 0x71C41F8A EQ PUSH2 0x936 JUMPI DUP1 PUSH4 0x7469538A EQ PUSH2 0x966 JUMPI PUSH2 0x4AB JUMP JUMPDEST DUP1 PUSH4 0x3E7E8713 GT PUSH2 0x358 JUMPI DUP1 PUSH4 0x3E7E8713 EQ PUSH2 0x816 JUMPI DUP1 PUSH4 0x42966C68 EQ PUSH2 0x832 JUMPI DUP1 PUSH4 0x4361F92A EQ PUSH2 0x84E JUMPI DUP1 PUSH4 0x4E0B0DCF EQ PUSH2 0x87E JUMPI DUP1 PUSH4 0x4EE2CD7E EQ PUSH2 0x89A JUMPI PUSH2 0x4AB JUMP JUMPDEST DUP1 PUSH4 0x36568ABE EQ PUSH2 0x784 JUMPI DUP1 PUSH4 0x39027F7C EQ PUSH2 0x7A0 JUMPI DUP1 PUSH4 0x39509351 EQ PUSH2 0x7BE JUMPI DUP1 PUSH4 0x3BF2A9F4 EQ PUSH2 0x7EE JUMPI DUP1 PUSH4 0x3E4BE639 EQ PUSH2 0x80C JUMPI PUSH2 0x4AB JUMP JUMPDEST DUP1 PUSH4 0x200D2ED2 GT PUSH2 0x42D JUMPI DUP1 PUSH4 0x2877D473 GT PUSH2 0x3F1 JUMPI DUP1 PUSH4 0x2877D473 EQ PUSH2 0x6C2 JUMPI DUP1 PUSH4 0x2F2FF15D EQ PUSH2 0x6E0 JUMPI DUP1 PUSH4 0x2F962866 EQ PUSH2 0x6FC JUMPI DUP1 PUSH4 0x3052974C EQ PUSH2 0x71A JUMPI DUP1 PUSH4 0x313CE567 EQ PUSH2 0x736 JUMPI DUP1 PUSH4 0x35C80C8C EQ PUSH2 0x754 JUMPI PUSH2 0x4AB JUMP JUMPDEST DUP1 PUSH4 0x200D2ED2 EQ PUSH2 0x60A JUMPI DUP1 PUSH4 0x222CA340 EQ PUSH2 0x628 JUMPI DUP1 PUSH4 0x23B872DD EQ PUSH2 0x644 JUMPI DUP1 PUSH4 0x248A9CA3 EQ PUSH2 0x674 JUMPI DUP1 PUSH4 0x2682AC91 EQ PUSH2 0x6A4 JUMPI PUSH2 0x4AB JUMP JUMPDEST DUP1 PUSH4 0x7B2D9E3 GT PUSH2 0x474 JUMPI DUP1 PUSH4 0x7B2D9E3 EQ PUSH2 0x552 JUMPI DUP1 PUSH4 0x95EA7B3 EQ PUSH2 0x582 JUMPI DUP1 PUSH4 0x17559DF0 EQ PUSH2 0x5B2 JUMPI DUP1 PUSH4 0x18160DDD EQ PUSH2 0x5CE JUMPI DUP1 PUSH4 0x1C67A363 EQ PUSH2 0x5EC JUMPI PUSH2 0x4AB JUMP JUMPDEST DUP1 PUSH3 0xA9303D EQ PUSH2 0x4B0 JUMPI DUP1 PUSH4 0x1FFC9A7 EQ PUSH2 0x4CC JUMPI DUP1 PUSH4 0x4B8C471 EQ PUSH2 0x4FC JUMPI DUP1 PUSH4 0x6EC8CA6 EQ PUSH2 0x518 JUMPI DUP1 PUSH4 0x6FDDE03 EQ PUSH2 0x534 JUMPI JUMPDEST PUSH1 0x0 DUP1 REVERT JUMPDEST PUSH2 0x4CA PUSH1 0x4 DUP1 CALLDATASIZE SUB DUP2 ADD SWAP1 PUSH2 0x4C5 SWAP2 SWAP1 PUSH2 0x6704 JUMP JUMPDEST PUSH2 0xFE6 JUMP JUMPDEST STOP JUMPDEST PUSH2 0x4E6 PUSH1 0x4 DUP1 CALLDATASIZE SUB DUP2 ADD SWAP1 PUSH2 0x4E1 SWAP2 SWAP1 PUSH2 0x6789 JUMP JUMPDEST PUSH2 0x1013 JUMP JUMPDEST PUSH1 0x40 MLOAD PUSH2 0x4F3 SWAP2 SWAP1 PUSH2 0x67D1 JUMP JUMPDEST PUSH1 0x40 MLOAD DUP1 SWAP2 SUB SWAP1 RETURN JUMPDEST PUSH2 0x516 PUSH1 0x4 DUP1 CALLDATASIZE SUB DUP2 ADD SWAP1 PUSH2 0x511 SWAP2 SWAP1 PUSH2 0x6704 JUMP JUMPDEST PUSH2 0x108D JUMP JUMPDEST STOP JUMPDEST PUSH2 0x532 PUSH1 0x4 DUP1 CALLDATASIZE SUB DUP2 ADD SWAP1 PUSH2 0x52D SWAP2 SWAP1 PUSH2 0x6822 JUMP JUMPDEST PUSH2 0x16FB JUMP JUMPDEST STOP JUMPDEST PUSH2 0x53C PUSH2 0x1733 JUMP JUMPDEST PUSH1 0x40 MLOAD PUSH2 0x549 SWAP2 SWAP1 PUSH2 0x68DF JUMP JUMPDEST PUSH1 0x40 MLOAD DUP1 SWAP2 SUB SWAP1 RETURN JUMPDEST PUSH2 0x56C PUSH1 0x4 DUP1 CALLDATASIZE SUB DUP2 ADD SWAP1 PUSH2 0x567 SWAP2 SWAP1 PUSH2 0x6937 JUMP JUMPDEST PUSH2 0x17C8 JUMP JUMPDEST PUSH1 0x40 MLOAD PUSH2 0x579 SWAP2 SWAP1 PUSH2 0x6986 JUMP JUMPDEST PUSH1 0x40 MLOAD DUP1 SWAP2 SUB SWAP1 RETURN JUMPDEST PUSH2 0x59C PUSH1 0x4 DUP1 CALLDATASIZE SUB DUP2 ADD SWAP1 PUSH2 0x597 SWAP2 SWAP1 PUSH2 0x6937 JUMP JUMPDEST PUSH2 0x180F JUMP JUMPDEST PUSH1 0x40 MLOAD PUSH2 0x5A9 SWAP2 SWAP1 PUSH2 0x67D1 JUMP JUMPDEST PUSH1 0x40 MLOAD DUP1 SWAP2 SUB SWAP1 RETURN JUMPDEST PUSH2 0x5CC PUSH1 0x4 DUP1 CALLDATASIZE SUB DUP2 ADD SWAP1 PUSH2 0x5C7 SWAP2 SWAP1 PUSH2 0x6AD6 JUMP JUMPDEST PUSH2 0x184C JUMP JUMPDEST STOP JUMPDEST PUSH2 0x5D6 PUSH2 0x1A05 JUMP JUMPDEST PUSH1 0x40 MLOAD PUSH2 0x5E3 SWAP2 SWAP1 PUSH2 0x6986 JUMP JUMPDEST PUSH1 0x40 MLOAD DUP1 SWAP2 SUB SWAP1 RETURN JUMPDEST PUSH2 0x5F4 PUSH2 0x1A0F JUMP JUMPDEST PUSH1 0x40 MLOAD PUSH2 0x601 SWAP2 SWAP1 PUSH2 0x6BB7 JUMP JUMPDEST PUSH1 0x40 MLOAD DUP1 SWAP2 SUB SWAP1 RETURN JUMPDEST PUSH2 0x612 PUSH2 0x1A33 JUMP JUMPDEST PUSH1 0x40 MLOAD PUSH2 0x61F SWAP2 SWAP1 PUSH2 0x6C49 JUMP JUMPDEST PUSH1 0x40 MLOAD DUP1 SWAP2 SUB SWAP1 RETURN JUMPDEST PUSH2 0x642 PUSH1 0x4 DUP1 CALLDATASIZE SUB DUP2 ADD SWAP1 PUSH2 0x63D SWAP2 SWAP1 PUSH2 0x6704 JUMP JUMPDEST PUSH2 0x1A46 JUMP JUMPDEST STOP JUMPDEST PUSH2 0x65E PUSH1 0x4 DUP1 CALLDATASIZE SUB DUP2 ADD SWAP1 PUSH2 0x659 SWAP2 SWAP1 PUSH2 0x6C64 JUMP JUMPDEST PUSH2 0x1A73 JUMP JUMPDEST PUSH1 0x40 MLOAD PUSH2 0x66B SWAP2 SWAP1 PUSH2 0x67D1 JUMP JUMPDEST PUSH1 0x40 MLOAD DUP1 SWAP2 SUB SWAP1 RETURN JUMPDEST PUSH2 0x68E PUSH1 0x4 DUP1 CALLDATASIZE SUB DUP2 ADD SWAP1 PUSH2 0x689 SWAP2 SWAP1 PUSH2 0x6822 JUMP JUMPDEST PUSH2 0x1DEE JUMP JUMPDEST PUSH1 0x40 MLOAD PUSH2 0x69B SWAP2 SWAP1 PUSH2 0x6BB7 JUMP JUMPDEST PUSH1 0x40 MLOAD DUP1 SWAP2 SUB SWAP1 RETURN JUMPDEST PUSH2 0x6AC PUSH2 0x1E0D JUMP JUMPDEST PUSH1 0x40 MLOAD PUSH2 0x6B9 SWAP2 SWAP1 PUSH2 0x6BB7 JUMP JUMPDEST PUSH1 0x40 MLOAD DUP1 SWAP2 SUB SWAP1 RETURN JUMPDEST PUSH2 0x6CA PUSH2 0x1E31 JUMP JUMPDEST PUSH1 0x40 MLOAD PUSH2 0x6D7 SWAP2 SWAP1 PUSH2 0x6986 JUMP JUMPDEST PUSH1 0x40 MLOAD DUP1 SWAP2 SUB SWAP1 RETURN JUMPDEST PUSH2 0x6FA PUSH1 0x4 DUP1 CALLDATASIZE SUB DUP2 ADD SWAP1 PUSH2 0x6F5 SWAP2 SWAP1 PUSH2 0x6CB7 JUMP JUMPDEST PUSH2 0x1E3E JUMP JUMPDEST STOP JUMPDEST PUSH2 0x704 PUSH2 0x1FB0 JUMP JUMPDEST PUSH1 0x40 MLOAD PUSH2 0x711 SWAP2 SWAP1 PUSH2 0x6D06 JUMP JUMPDEST PUSH1 0x40 MLOAD DUP1 SWAP2 SUB SWAP1 RETURN JUMPDEST PUSH2 0x734 PUSH1 0x4 DUP1 CALLDATASIZE SUB DUP2 ADD SWAP1 PUSH2 0x72F SWAP2 SWAP1 PUSH2 0x6D21 JUMP JUMPDEST PUSH2 0x1FD6 JUMP JUMPDEST STOP JUMPDEST PUSH2 0x73E PUSH2 0x20AB JUMP JUMPDEST PUSH1 0x40 MLOAD PUSH2 0x74B SWAP2 SWAP1 PUSH2 0x6D7D JUMP JUMPDEST PUSH1 0x40 MLOAD DUP1 SWAP2 SUB SWAP1 RETURN JUMPDEST PUSH2 0x76E PUSH1 0x4 DUP1 CALLDATASIZE SUB DUP2 ADD SWAP1 PUSH2 0x769 SWAP2 SWAP1 PUSH2 0x6704 JUMP JUMPDEST PUSH2 0x20B0 JUMP JUMPDEST PUSH1 0x40 MLOAD PUSH2 0x77B SWAP2 SWAP1 PUSH2 0x67D1 JUMP JUMPDEST PUSH1 0x40 MLOAD DUP1 SWAP2 SUB SWAP1 RETURN JUMPDEST PUSH2 0x79E PUSH1 0x4 DUP1 CALLDATASIZE SUB DUP2 ADD SWAP1 PUSH2 0x799 SWAP2 SWAP1 PUSH2 0x6CB7 JUMP JUMPDEST PUSH2 0x20E3 JUMP JUMPDEST STOP JUMPDEST PUSH2 0x7A8 PUSH2 0x2166 JUMP JUMPDEST PUSH1 0x40 MLOAD PUSH2 0x7B5 SWAP2 SWAP1 PUSH2 0x6986 JUMP JUMPDEST PUSH1 0x40 MLOAD DUP1 SWAP2 SUB SWAP1 RETURN JUMPDEST PUSH2 0x7D8 PUSH1 0x4 DUP1 CALLDATASIZE SUB DUP2 ADD SWAP1 PUSH2 0x7D3 SWAP2 SWAP1 PUSH2 0x6937 JUMP JUMPDEST PUSH2 0x2173 JUMP JUMPDEST PUSH1 0x40 MLOAD PUSH2 0x7E5 SWAP2 SWAP1 PUSH2 0x67D1 JUMP JUMPDEST PUSH1 0x40 MLOAD DUP1 SWAP2 SUB SWAP1 RETURN JUMPDEST PUSH2 0x7F6 PUSH2 0x21B0 JUMP JUMPDEST PUSH1 0x40 MLOAD PUSH2 0x803 SWAP2 SWAP1 PUSH2 0x6BB7 JUMP JUMPDEST PUSH1 0x40 MLOAD DUP1 SWAP2 SUB SWAP1 RETURN JUMPDEST PUSH2 0x814 PUSH2 0x21D4 JUMP JUMPDEST STOP JUMPDEST PUSH2 0x830 PUSH1 0x4 DUP1 CALLDATASIZE SUB DUP2 ADD SWAP1 PUSH2 0x82B SWAP2 SWAP1 PUSH2 0x6D98 JUMP JUMPDEST PUSH2 0x23C0 JUMP JUMPDEST STOP JUMPDEST PUSH2 0x84C PUSH1 0x4 DUP1 CALLDATASIZE SUB DUP2 ADD SWAP1 PUSH2 0x847 SWAP2 SWAP1 PUSH2 0x6D98 JUMP JUMPDEST PUSH2 0x2566 JUMP JUMPDEST STOP JUMPDEST PUSH2 0x868 PUSH1 0x4 DUP1 CALLDATASIZE SUB DUP2 ADD SWAP1 PUSH2 0x863 SWAP2 SWAP1 PUSH2 0x6704 JUMP JUMPDEST PUSH2 0x26E2 JUMP JUMPDEST PUSH1 0x40 MLOAD PUSH2 0x875 SWAP2 SWAP1 PUSH2 0x67D1 JUMP JUMPDEST PUSH1 0x40 MLOAD DUP1 SWAP2 SUB SWAP1 RETURN JUMPDEST PUSH2 0x898 PUSH1 0x4 DUP1 CALLDATASIZE SUB DUP2 ADD SWAP1 PUSH2 0x893 SWAP2 SWAP1 PUSH2 0x6DC5 JUMP JUMPDEST PUSH2 0x2715 JUMP JUMPDEST STOP JUMPDEST PUSH2 0x8B4 PUSH1 0x4 DUP1 CALLDATASIZE SUB DUP2 ADD SWAP1 PUSH2 0x8AF SWAP2 SWAP1 PUSH2 0x6937 JUMP JUMPDEST PUSH2 0x2794 JUMP JUMPDEST PUSH1 0x40 MLOAD PUSH2 0x8C1 SWAP2 SWAP1 PUSH2 0x6986 JUMP JUMPDEST PUSH1 0x40 MLOAD DUP1 SWAP2 SUB SWAP1 RETURN JUMPDEST PUSH2 0x8D2 PUSH2 0x2804 JUMP JUMPDEST PUSH1 0x40 MLOAD PUSH2 0x8DF SWAP2 SWAP1 PUSH2 0x6D06 JUMP JUMPDEST PUSH1 0x40 MLOAD DUP1 SWAP2 SUB SWAP1 RETURN JUMPDEST PUSH2 0x8F0 PUSH2 0x282A JUMP JUMPDEST PUSH1 0x40 MLOAD PUSH2 0x8FD SWAP2 SWAP1 PUSH2 0x7022 JUMP JUMPDEST PUSH1 0x40 MLOAD DUP1 SWAP2 SUB SWAP1 RETURN JUMPDEST PUSH2 0x920 PUSH1 0x4 DUP1 CALLDATASIZE SUB DUP2 ADD SWAP1 PUSH2 0x91B SWAP2 SWAP1 PUSH2 0x6704 JUMP JUMPDEST PUSH2 0x2A11 JUMP JUMPDEST PUSH1 0x40 MLOAD PUSH2 0x92D SWAP2 SWAP1 PUSH2 0x6986 JUMP JUMPDEST PUSH1 0x40 MLOAD DUP1 SWAP2 SUB SWAP1 RETURN JUMPDEST PUSH2 0x950 PUSH1 0x4 DUP1 CALLDATASIZE SUB DUP2 ADD SWAP1 PUSH2 0x94B SWAP2 SWAP1 PUSH2 0x6D98 JUMP JUMPDEST PUSH2 0x2A5A JUMP JUMPDEST PUSH1 0x40 MLOAD PUSH2 0x95D SWAP2 SWAP1 PUSH2 0x67D1 JUMP JUMPDEST PUSH1 0x40 MLOAD DUP1 SWAP2 SUB SWAP1 RETURN JUMPDEST PUSH2 0x980 PUSH1 0x4 DUP1 CALLDATASIZE SUB DUP2 ADD SWAP1 PUSH2 0x97B SWAP2 SWAP1 PUSH2 0x6D98 JUMP JUMPDEST PUSH2 0x2A9A JUMP JUMPDEST STOP JUMPDEST PUSH2 0x99C PUSH1 0x4 DUP1 CALLDATASIZE SUB DUP2 ADD SWAP1 PUSH2 0x997 SWAP2 SWAP1 PUSH2 0x6D98 JUMP JUMPDEST PUSH2 0x2D68 JUMP JUMPDEST PUSH1 0x40 MLOAD PUSH2 0x9A9 SWAP2 SWAP1 PUSH2 0x7102 JUMP JUMPDEST PUSH1 0x40 MLOAD DUP1 SWAP2 SUB SWAP1 RETURN JUMPDEST PUSH2 0x9BA PUSH2 0x2FAB JUMP JUMPDEST PUSH1 0x40 MLOAD PUSH2 0x9C7 SWAP2 SWAP1 PUSH2 0x6D7D JUMP JUMPDEST PUSH1 0x40 MLOAD DUP1 SWAP2 SUB SWAP1 RETURN JUMPDEST PUSH2 0x9EA PUSH1 0x4 DUP1 CALLDATASIZE SUB DUP2 ADD SWAP1 PUSH2 0x9E5 SWAP2 SWAP1 PUSH2 0x6822 JUMP JUMPDEST PUSH2 0x2FBE JUMP JUMPDEST PUSH1 0x40 MLOAD PUSH2 0x9F7 SWAP2 SWAP1 PUSH2 0x67D1 JUMP JUMPDEST PUSH1 0x40 MLOAD DUP1 SWAP2 SUB SWAP1 RETURN JUMPDEST PUSH2 0xA08 PUSH2 0x2FDE JUMP JUMPDEST PUSH1 0x40 MLOAD PUSH2 0xA15 SWAP2 SWAP1 PUSH2 0x6D06 JUMP JUMPDEST PUSH1 0x40 MLOAD DUP1 SWAP2 SUB SWAP1 RETURN JUMPDEST PUSH2 0xA26 PUSH2 0x3008 JUMP JUMPDEST PUSH1 0x40 MLOAD PUSH2 0xA33 SWAP2 SWAP1 PUSH2 0x6BB7 JUMP JUMPDEST PUSH1 0x40 MLOAD DUP1 SWAP2 SUB SWAP1 RETURN JUMPDEST PUSH2 0xA56 PUSH1 0x4 DUP1 CALLDATASIZE SUB DUP2 ADD SWAP1 PUSH2 0xA51 SWAP2 SWAP1 PUSH2 0x6704 JUMP JUMPDEST PUSH2 0x302C JUMP JUMPDEST STOP JUMPDEST PUSH2 0xA72 PUSH1 0x4 DUP1 CALLDATASIZE SUB DUP2 ADD SWAP1 PUSH2 0xA6D SWAP2 SWAP1 PUSH2 0x6704 JUMP JUMPDEST PUSH2 0x3059 JUMP JUMPDEST PUSH1 0x40 MLOAD PUSH2 0xA7F SWAP2 SWAP1 PUSH2 0x6D06 JUMP JUMPDEST PUSH1 0x40 MLOAD DUP1 SWAP2 SUB SWAP1 RETURN JUMPDEST PUSH2 0xAA2 PUSH1 0x4 DUP1 CALLDATASIZE SUB DUP2 ADD SWAP1 PUSH2 0xA9D SWAP2 SWAP1 PUSH2 0x6CB7 JUMP JUMPDEST PUSH2 0x30C5 JUMP JUMPDEST PUSH1 0x40 MLOAD PUSH2 0xAAF SWAP2 SWAP1 PUSH2 0x67D1 JUMP JUMPDEST PUSH1 0x40 MLOAD DUP1 SWAP2 SUB SWAP1 RETURN JUMPDEST PUSH2 0xAD2 PUSH1 0x4 DUP1 CALLDATASIZE SUB DUP2 ADD SWAP1 PUSH2 0xACD SWAP2 SWAP1 PUSH2 0x6D98 JUMP JUMPDEST PUSH2 0x312F JUMP JUMPDEST STOP JUMPDEST PUSH2 0xADC PUSH2 0x31A5 JUMP JUMPDEST PUSH1 0x40 MLOAD PUSH2 0xAE9 SWAP2 SWAP1 PUSH2 0x68DF JUMP JUMPDEST PUSH1 0x40 MLOAD DUP1 SWAP2 SUB SWAP1 RETURN JUMPDEST PUSH2 0xB0C PUSH1 0x4 DUP1 CALLDATASIZE SUB DUP2 ADD SWAP1 PUSH2 0xB07 SWAP2 SWAP1 PUSH2 0x6D98 JUMP JUMPDEST PUSH2 0x323A JUMP JUMPDEST PUSH1 0x40 MLOAD PUSH2 0xB19 SWAP2 SWAP1 PUSH2 0x6986 JUMP JUMPDEST PUSH1 0x40 MLOAD DUP1 SWAP2 SUB SWAP1 RETURN JUMPDEST PUSH2 0xB2A PUSH2 0x326B JUMP JUMPDEST PUSH1 0x40 MLOAD PUSH2 0xB37 SWAP2 SWAP1 PUSH2 0x6986 JUMP JUMPDEST PUSH1 0x40 MLOAD DUP1 SWAP2 SUB SWAP1 RETURN JUMPDEST PUSH2 0xB5A PUSH1 0x4 DUP1 CALLDATASIZE SUB DUP2 ADD SWAP1 PUSH2 0xB55 SWAP2 SWAP1 PUSH2 0x6D98 JUMP JUMPDEST PUSH2 0x3275 JUMP JUMPDEST STOP JUMPDEST PUSH2 0xB76 PUSH1 0x4 DUP1 CALLDATASIZE SUB DUP2 ADD SWAP1 PUSH2 0xB71 SWAP2 SWAP1 PUSH2 0x6704 JUMP JUMPDEST PUSH2 0x339E JUMP JUMPDEST PUSH1 0x40 MLOAD PUSH2 0xB83 SWAP2 SWAP1 PUSH2 0x6BB7 JUMP JUMPDEST PUSH1 0x40 MLOAD DUP1 SWAP2 SUB SWAP1 RETURN JUMPDEST PUSH2 0xB94 PUSH2 0x33D6 JUMP JUMPDEST PUSH1 0x40 MLOAD PUSH2 0xBA1 SWAP2 SWAP1 PUSH2 0x6BB7 JUMP JUMPDEST PUSH1 0x40 MLOAD DUP1 SWAP2 SUB SWAP1 RETURN JUMPDEST PUSH2 0xBC4 PUSH1 0x4 DUP1 CALLDATASIZE SUB DUP2 ADD SWAP1 PUSH2 0xBBF SWAP2 SWAP1 PUSH2 0x6704 JUMP JUMPDEST PUSH2 0x33DD JUMP JUMPDEST STOP JUMPDEST PUSH2 0xBE0 PUSH1 0x4 DUP1 CALLDATASIZE SUB DUP2 ADD SWAP1 PUSH2 0xBDB SWAP2 SWAP1 PUSH2 0x6937 JUMP JUMPDEST PUSH2 0x340A JUMP JUMPDEST PUSH1 0x40 MLOAD PUSH2 0xBED SWAP2 SWAP1 PUSH2 0x67D1 JUMP JUMPDEST PUSH1 0x40 MLOAD DUP1 SWAP2 SUB SWAP1 RETURN JUMPDEST PUSH2 0xC10 PUSH1 0x4 DUP1 CALLDATASIZE SUB DUP2 ADD SWAP1 PUSH2 0xC0B SWAP2 SWAP1 PUSH2 0x6704 JUMP JUMPDEST PUSH2 0x3447 JUMP JUMPDEST PUSH1 0x40 MLOAD PUSH2 0xC1D SWAP2 SWAP1 PUSH2 0x67D1 JUMP JUMPDEST PUSH1 0x40 MLOAD DUP1 SWAP2 SUB SWAP1 RETURN JUMPDEST PUSH2 0xC2E PUSH2 0x347A JUMP JUMPDEST PUSH1 0x40 MLOAD PUSH2 0xC3B SWAP2 SWAP1 PUSH2 0x6986 JUMP JUMPDEST PUSH1 0x40 MLOAD DUP1 SWAP2 SUB SWAP1 RETURN JUMPDEST PUSH2 0xC5E PUSH1 0x4 DUP1 CALLDATASIZE SUB DUP2 ADD SWAP1 PUSH2 0xC59 SWAP2 SWAP1 PUSH2 0x6937 JUMP JUMPDEST PUSH2 0x3487 JUMP JUMPDEST PUSH1 0x40 MLOAD PUSH2 0xC6B SWAP2 SWAP1 PUSH2 0x67D1 JUMP JUMPDEST PUSH1 0x40 MLOAD DUP1 SWAP2 SUB SWAP1 RETURN JUMPDEST PUSH2 0xC8E PUSH1 0x4 DUP1 CALLDATASIZE SUB DUP2 ADD SWAP1 PUSH2 0xC89 SWAP2 SWAP1 PUSH2 0x6704 JUMP JUMPDEST PUSH2 0x34C4 JUMP JUMPDEST PUSH1 0x40 MLOAD PUSH2 0xC9B SWAP2 SWAP1 PUSH2 0x67D1 JUMP JUMPDEST PUSH1 0x40 MLOAD DUP1 SWAP2 SUB SWAP1 RETURN JUMPDEST PUSH2 0xCAC PUSH2 0x37A7 JUMP JUMPDEST PUSH1 0x40 MLOAD PUSH2 0xCB9 SWAP2 SWAP1 PUSH2 0x6D06 JUMP JUMPDEST PUSH1 0x40 MLOAD DUP1 SWAP2 SUB SWAP1 RETURN JUMPDEST PUSH2 0xCCA PUSH2 0x37CD JUMP JUMPDEST PUSH1 0x40 MLOAD PUSH2 0xCD7 SWAP2 SWAP1 PUSH2 0x6986 JUMP JUMPDEST PUSH1 0x40 MLOAD DUP1 SWAP2 SUB SWAP1 RETURN JUMPDEST PUSH2 0xCFA PUSH1 0x4 DUP1 CALLDATASIZE SUB DUP2 ADD SWAP1 PUSH2 0xCF5 SWAP2 SWAP1 PUSH2 0x6704 JUMP JUMPDEST PUSH2 0x37DA JUMP JUMPDEST STOP JUMPDEST PUSH2 0xD04 PUSH2 0x3807 JUMP JUMPDEST PUSH1 0x40 MLOAD PUSH2 0xD11 SWAP2 SWAP1 PUSH2 0x67D1 JUMP JUMPDEST PUSH1 0x40 MLOAD DUP1 SWAP2 SUB SWAP1 RETURN JUMPDEST PUSH2 0xD34 PUSH1 0x4 DUP1 CALLDATASIZE SUB DUP2 ADD SWAP1 PUSH2 0xD2F SWAP2 SWAP1 PUSH2 0x6704 JUMP JUMPDEST PUSH2 0x383C JUMP JUMPDEST PUSH1 0x40 MLOAD PUSH2 0xD41 SWAP2 SWAP1 PUSH2 0x67D1 JUMP JUMPDEST PUSH1 0x40 MLOAD DUP1 SWAP2 SUB SWAP1 RETURN JUMPDEST PUSH2 0xD64 PUSH1 0x4 DUP1 CALLDATASIZE SUB DUP2 ADD SWAP1 PUSH2 0xD5F SWAP2 SWAP1 PUSH2 0x6DC5 JUMP JUMPDEST PUSH2 0x3895 JUMP JUMPDEST STOP JUMPDEST PUSH2 0xD80 PUSH1 0x4 DUP1 CALLDATASIZE SUB DUP2 ADD SWAP1 PUSH2 0xD7B SWAP2 SWAP1 PUSH2 0x6704 JUMP JUMPDEST PUSH2 0x3914 JUMP JUMPDEST STOP JUMPDEST PUSH2 0xD9C PUSH1 0x4 DUP1 CALLDATASIZE SUB DUP2 ADD SWAP1 PUSH2 0xD97 SWAP2 SWAP1 PUSH2 0x6D98 JUMP JUMPDEST PUSH2 0x3941 JUMP JUMPDEST PUSH1 0x40 MLOAD PUSH2 0xDA9 SWAP2 SWAP1 PUSH2 0x6986 JUMP JUMPDEST PUSH1 0x40 MLOAD DUP1 SWAP2 SUB SWAP1 RETURN JUMPDEST PUSH2 0xDBA PUSH2 0x3985 JUMP JUMPDEST PUSH1 0x40 MLOAD PUSH2 0xDC7 SWAP2 SWAP1 PUSH2 0x7102 JUMP JUMPDEST PUSH1 0x40 MLOAD DUP1 SWAP2 SUB SWAP1 RETURN JUMPDEST PUSH2 0xDEA PUSH1 0x4 DUP1 CALLDATASIZE SUB DUP2 ADD SWAP1 PUSH2 0xDE5 SWAP2 SWAP1 PUSH2 0x6704 JUMP JUMPDEST PUSH2 0x3A13 JUMP JUMPDEST STOP JUMPDEST PUSH2 0xDF4 PUSH2 0x3C60 JUMP JUMPDEST STOP JUMPDEST PUSH2 0xE10 PUSH1 0x4 DUP1 CALLDATASIZE SUB DUP2 ADD SWAP1 PUSH2 0xE0B SWAP2 SWAP1 PUSH2 0x6D98 JUMP JUMPDEST PUSH2 0x3E06 JUMP JUMPDEST PUSH1 0x40 MLOAD PUSH2 0xE1D SWAP2 SWAP1 PUSH2 0x67D1 JUMP JUMPDEST PUSH1 0x40 MLOAD DUP1 SWAP2 SUB SWAP1 RETURN JUMPDEST PUSH2 0xE40 PUSH1 0x4 DUP1 CALLDATASIZE SUB DUP2 ADD SWAP1 PUSH2 0xE3B SWAP2 SWAP1 PUSH2 0x6CB7 JUMP JUMPDEST PUSH2 0x3E17 JUMP JUMPDEST STOP JUMPDEST PUSH2 0xE5C PUSH1 0x4 DUP1 CALLDATASIZE SUB DUP2 ADD SWAP1 PUSH2 0xE57 SWAP2 SWAP1 PUSH2 0x6D98 JUMP JUMPDEST PUSH2 0x3F53 JUMP JUMPDEST STOP JUMPDEST PUSH2 0xE78 PUSH1 0x4 DUP1 CALLDATASIZE SUB DUP2 ADD SWAP1 PUSH2 0xE73 SWAP2 SWAP1 PUSH2 0x6704 JUMP JUMPDEST PUSH2 0x403F JUMP JUMPDEST STOP JUMPDEST PUSH2 0xE94 PUSH1 0x4 DUP1 CALLDATASIZE SUB DUP2 ADD SWAP1 PUSH2 0xE8F SWAP2 SWAP1 PUSH2 0x6822 JUMP JUMPDEST PUSH2 0x43DD JUMP JUMPDEST STOP JUMPDEST PUSH2 0xEB0 PUSH1 0x4 DUP1 CALLDATASIZE SUB DUP2 ADD SWAP1 PUSH2 0xEAB SWAP2 SWAP1 PUSH2 0x6822 JUMP JUMPDEST PUSH2 0x448A JUMP JUMPDEST STOP JUMPDEST PUSH2 0xECC PUSH1 0x4 DUP1 CALLDATASIZE SUB DUP2 ADD SWAP1 PUSH2 0xEC7 SWAP2 SWAP1 PUSH2 0x6D98 JUMP JUMPDEST PUSH2 0x4537 JUMP JUMPDEST STOP JUMPDEST PUSH2 0xEE8 PUSH1 0x4 DUP1 CALLDATASIZE SUB DUP2 ADD SWAP1 PUSH2 0xEE3 SWAP2 SWAP1 PUSH2 0x7124 JUMP JUMPDEST PUSH2 0x45AD JUMP JUMPDEST STOP JUMPDEST PUSH2 0xEF2 PUSH2 0x4712 JUMP JUMPDEST STOP JUMPDEST PUSH2 0xF0E PUSH1 0x4 DUP1 CALLDATASIZE SUB DUP2 ADD SWAP1 PUSH2 0xF09 SWAP2 SWAP1 PUSH2 0x7180 JUMP JUMPDEST PUSH2 0x4991 JUMP JUMPDEST PUSH1 0x40 MLOAD PUSH2 0xF1B SWAP2 SWAP1 PUSH2 0x6986 JUMP JUMPDEST PUSH1 0x40 MLOAD DUP1 SWAP2 SUB SWAP1 RETURN JUMPDEST PUSH2 0xF2C PUSH2 0x4A18 JUMP JUMPDEST PUSH1 0x40 MLOAD PUSH2 0xF39 SWAP2 SWAP1 PUSH2 0x6D06 JUMP JUMPDEST PUSH1 0x40 MLOAD DUP1 SWAP2 SUB SWAP1 RETURN JUMPDEST PUSH2 0xF5C PUSH1 0x4 DUP1 CALLDATASIZE SUB DUP2 ADD SWAP1 PUSH2 0xF57 SWAP2 SWAP1 PUSH2 0x6704 JUMP JUMPDEST PUSH2 0x4A3E JUMP JUMPDEST PUSH1 0x40 MLOAD PUSH2 0xF69 SWAP2 SWAP1 PUSH2 0x67D1 JUMP JUMPDEST PUSH1 0x40 MLOAD DUP1 SWAP2 SUB SWAP1 RETURN JUMPDEST PUSH2 0xF7A PUSH2 0x4A71 JUMP JUMPDEST PUSH1 0x40 MLOAD PUSH2 0xF87 SWAP2 SWAP1 PUSH2 0x6986 JUMP JUMPDEST PUSH1 0x40 MLOAD DUP1 SWAP2 SUB SWAP1 RETURN JUMPDEST PUSH2 0xF98 PUSH2 0x4A7B JUMP JUMPDEST PUSH1 0x40 MLOAD PUSH2 0xFA5 SWAP2 SWAP1 PUSH2 0x6986 JUMP JUMPDEST PUSH1 0x40 MLOAD DUP1 SWAP2 SUB SWAP1 RETURN JUMPDEST PUSH2 0xFC8 PUSH1 0x4 DUP1 CALLDATASIZE SUB DUP2 ADD SWAP1 PUSH2 0xFC3 SWAP2 SWAP1 PUSH2 0x6704 JUMP JUMPDEST PUSH2 0x4A85 JUMP JUMPDEST STOP JUMPDEST PUSH2 0xFE4 PUSH1 0x4 DUP1 CALLDATASIZE SUB DUP2 ADD SWAP1 PUSH2 0xFDF SWAP2 SWAP1 PUSH2 0x6704 JUMP JUMPDEST PUSH2 0x4AB2 JUMP JUMPDEST STOP JUMPDEST PUSH2 0x1010 PUSH32 0xD7AA2DDFA4E381128202BF365B7E0A176F2FCA6CDF2F23C2B0A6F43937695890 DUP3 PUSH2 0x1E3E JUMP JUMPDEST POP JUMP JUMPDEST PUSH1 0x0 PUSH32 0x7965DB0B00000000000000000000000000000000000000000000000000000000 PUSH28 0xFFFFFFFFFFFFFFFFFFFFFFFFFFFFFFFFFFFFFFFFFFFFFFFFFFFFFFFF NOT AND DUP3 PUSH28 0xFFFFFFFFFFFFFFFFFFFFFFFFFFFFFFFFFFFFFFFFFFFFFFFFFFFFFFFF NOT AND EQ DUP1 PUSH2 0x1086 JUMPI POP PUSH2 0x1085 DUP3 PUSH2 0x4B03 JUMP JUMPDEST JUMPDEST SWAP1 POP SWAP2 SWAP1 POP JUMP JUMPDEST PUSH2 0x10B7 PUSH32 0xA75205B8583660BDAD375C0CCDE11AF17668D76A408A9A5E739251B0F7C59870 CALLER PUSH2 0x30C5 JUMP JUMPDEST PUSH2 0x10F6 JUMPI PUSH1 0x40 MLOAD PUSH32 0x8C379A000000000000000000000000000000000000000000000000000000000 DUP2 MSTORE PUSH1 0x4 ADD PUSH2 0x10ED SWAP1 PUSH2 0x720C JUMP JUMPDEST PUSH1 0x40 MLOAD DUP1 SWAP2 SUB SWAP1 REVERT JUMPDEST PUSH1 0x1 PUSH1 0x0 SWAP1 SLOAD SWAP1 PUSH2 0x100 EXP SWAP1 DIV PUSH20 0xFFFFFFFFFFFFFFFFFFFFFFFFFFFFFFFFFFFFFFFF AND PUSH20 0xFFFFFFFFFFFFFFFFFFFFFFFFFFFFFFFFFFFFFFFF AND DUP2 PUSH20 0xFFFFFFFFFFFFFFFFFFFFFFFFFFFFFFFFFFFFFFFF AND SUB PUSH2 0x1186 JUMPI PUSH1 0x40 MLOAD PUSH32 0x8C379A000000000000000000000000000000000000000000000000000000000 DUP2 MSTORE PUSH1 0x4 ADD PUSH2 0x117D SWAP1 PUSH2 0x729E JUMP JUMPDEST PUSH1 0x40 MLOAD DUP1 SWAP2 SUB SWAP1 REVERT JUMPDEST PUSH1 0x0 PUSH20 0xFFFFFFFFFFFFFFFFFFFFFFFFFFFFFFFFFFFFFFFF AND DUP2 PUSH20 0xFFFFFFFFFFFFFFFFFFFFFFFFFFFFFFFFFFFFFFFF AND EQ DUP1 ISZERO PUSH2 0x11D3 JUMPI POP PUSH1 0x1 DUP1 PUSH1 0x14 SWAP1 SLOAD SWAP1 PUSH2 0x100 EXP SWAP1 DIV PUSH1 0xFF AND PUSH1 0xFF AND EQ JUMPDEST ISZERO PUSH2 0x127C JUMPI PUSH1 0x0 PUSH1 0x1 PUSH1 0x14 PUSH2 0x100 EXP DUP2 SLOAD DUP2 PUSH1 0xFF MUL NOT AND SWAP1 DUP4 PUSH1 0xFF AND MUL OR SWAP1 SSTORE POP PUSH1 0x0 PUSH1 0x3 PUSH1 0x0 PUSH2 0x100 EXP DUP2 SLOAD DUP2 PUSH20 0xFFFFFFFFFFFFFFFFFFFFFFFFFFFFFFFFFFFFFFFF MUL NOT AND SWAP1 DUP4 PUSH20 0xFFFFFFFFFFFFFFFFFFFFFFFFFFFFFFFFFFFFFFFF AND MUL OR SWAP1 SSTORE POP DUP1 PUSH1 0x2 PUSH1 0x0 PUSH2 0x100 EXP DUP2 SLOAD DUP2 PUSH20 0xFFFFFFFFFFFFFFFFFFFFFFFFFFFFFFFFFFFFFFFF MUL NOT AND SWAP1 DUP4 PUSH20 0xFFFFFFFFFFFFFFFFFFFFFFFFFFFFFFFFFFFFFFFF AND MUL OR SWAP1 SSTORE POP PUSH2 0x16F8 JUMP JUMPDEST PUSH1 0x0 PUSH20 0xFFFFFFFFFFFFFFFFFFFFFFFFFFFFFFFFFFFFFFFF AND DUP2 PUSH20 0xFFFFFFFFFFFFFFFFFFFFFFFFFFFFFFFFFFFFFFFF AND SUB PUSH2 0x12EB JUMPI PUSH1 0x40 MLOAD PUSH32 0x8C379A000000000000000000000000000000000000000000000000000000000 DUP2 MSTORE PUSH1 0x4 ADD PUSH2 0x12E2 SWAP1 PUSH2 0x7330 JUMP JUMPDEST PUSH1 0x40 MLOAD DUP1 SWAP2 SUB SWAP1 REVERT JUMPDEST PUSH1 0x0 PUSH1 0x1 PUSH1 0x14 SWAP1 SLOAD SWAP1 PUSH2 0x100 EXP SWAP1 DIV PUSH1 0xFF AND PUSH1 0xFF AND SUB PUSH2 0x13A7 JUMPI PUSH1 0x1 DUP1 PUSH1 0x14 PUSH2 0x100 EXP DUP2 SLOAD DUP2 PUSH1 0xFF MUL NOT AND SWAP1 DUP4 PUSH1 0xFF AND MUL OR SWAP1 SSTORE POP CALLER PUSH1 0x3 PUSH1 0x0 PUSH2 0x100 EXP DUP2 SLOAD DUP2 PUSH20 0xFFFFFFFFFFFFFFFFFFFFFFFFFFFFFFFFFFFFFFFF MUL NOT AND SWAP1 DUP4 PUSH20 0xFFFFFFFFFFFFFFFFFFFFFFFFFFFFFFFFFFFFFFFF AND MUL OR SWAP1 SSTORE POP DUP1 PUSH1 0x2 PUSH1 0x0 PUSH2 0x100 EXP DUP2 SLOAD DUP2 PUSH20 0xFFFFFFFFFFFFFFFFFFFFFFFFFFFFFFFFFFFFFFFF MUL NOT AND SWAP1 DUP4 PUSH20 0xFFFFFFFFFFFFFFFFFFFFFFFFFFFFFFFFFFFFFFFF AND MUL OR SWAP1 SSTORE POP PUSH2 0x16F8 JUMP JUMPDEST PUSH1 0x1 DUP1 PUSH1 0x14 SWAP1 SLOAD SWAP1 PUSH2 0x100 EXP SWAP1 DIV PUSH1 0xFF AND PUSH1 0xFF AND SUB PUSH2 0x16F7 JUMPI PUSH1 0x2 PUSH1 0x0 SWAP1 SLOAD SWAP1 PUSH2 0x100 EXP SWAP1 DIV PUSH20 0xFFFFFFFFFFFFFFFFFFFFFFFFFFFFFFFFFFFFFFFF AND PUSH20 0xFFFFFFFFFFFFFFFFFFFFFFFFFFFFFFFFFFFFFFFF AND DUP2 PUSH20 0xFFFFFFFFFFFFFFFFFFFFFFFFFFFFFFFFFFFFFFFF AND EQ PUSH2 0x149C JUMPI CALLER PUSH1 0x3 PUSH1 0x0 PUSH2 0x100 EXP DUP2 SLOAD DUP2 PUSH20 0xFFFFFFFFFFFFFFFFFFFFFFFFFFFFFFFFFFFFFFFF MUL NOT AND SWAP1 DUP4 PUSH20 0xFFFFFFFFFFFFFFFFFFFFFFFFFFFFFFFFFFFFFFFF AND MUL OR SWAP1 SSTORE POP DUP1 PUSH1 0x2 PUSH1 0x0 PUSH2 0x100 EXP DUP2 SLOAD DUP2 PUSH20 0xFFFFFFFFFFFFFFFFFFFFFFFFFFFFFFFFFFFFFFFF MUL NOT AND SWAP1 DUP4 PUSH20 0xFFFFFFFFFFFFFFFFFFFFFFFFFFFFFFFFFFFFFFFF AND MUL OR SWAP1 SSTORE POP PUSH2 0x16F8 JUMP JUMPDEST CALLER PUSH20 0xFFFFFFFFFFFFFFFFFFFFFFFFFFFFFFFFFFFFFFFF AND PUSH1 0x3 PUSH1 0x0 SWAP1 SLOAD SWAP1 PUSH2 0x100 EXP SWAP1 DIV PUSH20 0xFFFFFFFFFFFFFFFFFFFFFFFFFFFFFFFFFFFFFFFF AND PUSH20 0xFFFFFFFFFFFFFFFFFFFFFFFFFFFFFFFFFFFFFFFF AND SUB PUSH2 0x152C JUMPI PUSH1 0x40 MLOAD PUSH32 0x8C379A000000000000000000000000000000000000000000000000000000000 DUP2 MSTORE PUSH1 0x4 ADD PUSH2 0x1523 SWAP1 PUSH2 0x739C JUMP JUMPDEST PUSH1 0x40 MLOAD DUP1 SWAP2 SUB SWAP1 REVERT JUMPDEST PUSH2 0x155B PUSH1 0x0 DUP1 SHL PUSH1 0x1 PUSH1 0x0 SWAP1 SLOAD SWAP1 PUSH2 0x100 EXP SWAP1 DIV PUSH20 0xFFFFFFFFFFFFFFFFFFFFFFFFFFFFFFFFFFFFFFFF AND PUSH2 0x4B6D JUMP JUMPDEST PUSH2 0x158A PUSH1 0x0 DUP1 SHL PUSH1 0x2 PUSH1 0x0 SWAP1 SLOAD SWAP1 PUSH2 0x100 EXP SWAP1 DIV PUSH20 0xFFFFFFFFFFFFFFFFFFFFFFFFFFFFFFFFFFFFFFFF AND PUSH2 0x4C4E JUMP JUMPDEST PUSH1 0x2 PUSH1 0x0 SWAP1 SLOAD SWAP1 PUSH2 0x100 EXP SWAP1 DIV PUSH20 0xFFFFFFFFFFFFFFFFFFFFFFFFFFFFFFFFFFFFFFFF AND PUSH1 0x1 PUSH1 0x0 PUSH2 0x100 EXP DUP2 SLOAD DUP2 PUSH20 0xFFFFFFFFFFFFFFFFFFFFFFFFFFFFFFFFFFFFFFFF MUL NOT AND SWAP1 DUP4 PUSH20 0xFFFFFFFFFFFFFFFFFFFFFFFFFFFFFFFFFFFFFFFF AND MUL OR SWAP1 SSTORE POP PUSH1 0x0 PUSH1 0x1 PUSH1 0x14 PUSH2 0x100 EXP DUP2 SLOAD DUP2 PUSH1 0xFF MUL NOT AND SWAP1 DUP4 PUSH1 0xFF AND MUL OR SWAP1 SSTORE POP PUSH1 0x0 PUSH1 0x3 PUSH1 0x0 PUSH2 0x100 EXP DUP2 SLOAD DUP2 PUSH20 0xFFFFFFFFFFFFFFFFFFFFFFFFFFFFFFFFFFFFFFFF MUL NOT AND SWAP1 DUP4 PUSH20 0xFFFFFFFFFFFFFFFFFFFFFFFFFFFFFFFFFFFFFFFF AND MUL OR SWAP1 SSTORE POP PUSH1 0x0 PUSH1 0x2 PUSH1 0x0 PUSH2 0x100 EXP DUP2 SLOAD DUP2 PUSH20 0xFFFFFFFFFFFFFFFFFFFFFFFFFFFFFFFFFFFFFFFF MUL NOT AND SWAP1 DUP4 PUSH20 0xFFFFFFFFFFFFFFFFFFFFFFFFFFFFFFFFFFFFFFFF AND MUL OR SWAP1 SSTORE POP PUSH1 0x1 PUSH1 0x0 SWAP1 SLOAD SWAP1 PUSH2 0x100 EXP SWAP1 DIV PUSH20 0xFFFFFFFFFFFFFFFFFFFFFFFFFFFFFFFFFFFFFFFF AND PUSH20 0xFFFFFFFFFFFFFFFFFFFFFFFFFFFFFFFFFFFFFFFF AND PUSH32 0x7CE7EC0B50378FB6C0186FFB5F48325F6593FCB4CA4386F21861AF3129188F5C PUSH1 0x40 MLOAD PUSH1 0x40 MLOAD DUP1 SWAP2 SUB SWAP1 LOG2 PUSH2 0x16F8 JUMP JUMPDEST JUMPDEST POP JUMP JUMPDEST PUSH32 0xA75205B8583660BDAD375C0CCDE11AF17668D76A408A9A5E739251B0F7C59870 PUSH2 0x1725 DUP2 PUSH2 0x4C5C JUMP JUMPDEST DUP2 PUSH1 0x16 PUSH1 0x3 ADD DUP2 SWAP1 SSTORE POP POP POP JUMP JUMPDEST PUSH1 0x60 PUSH1 0x16 PUSH1 0x0 ADD DUP1 SLOAD PUSH2 0x1745 SWAP1 PUSH2 0x73EB JUMP JUMPDEST DUP1 PUSH1 0x1F ADD PUSH1 0x20 DUP1 SWAP2 DIV MUL PUSH1 0x20 ADD PUSH1 0x40 MLOAD SWAP1 DUP2 ADD PUSH1 0x40 MSTORE DUP1 SWAP3 SWAP2 SWAP1 DUP2 DUP2 MSTORE PUSH1 0x20 ADD DUP3 DUP1 SLOAD PUSH2 0x1771 SWAP1 PUSH2 0x73EB JUMP JUMPDEST DUP1 ISZERO PUSH2 0x17BE JUMPI DUP1 PUSH1 0x1F LT PUSH2 0x1793 JUMPI PUSH2 0x100 DUP1 DUP4 SLOAD DIV MUL DUP4 MSTORE SWAP2 PUSH1 0x20 ADD SWAP2 PUSH2 0x17BE JUMP JUMPDEST DUP3 ADD SWAP2 SWAP1 PUSH1 0x0 MSTORE PUSH1 0x20 PUSH1 0x0 KECCAK256 SWAP1 JUMPDEST DUP2 SLOAD DUP2 MSTORE SWAP1 PUSH1 0x1 ADD SWAP1 PUSH1 0x20 ADD DUP1 DUP4 GT PUSH2 0x17A1 JUMPI DUP3 SWAP1 SUB PUSH1 0x1F AND DUP3 ADD SWAP2 JUMPDEST POP POP POP POP POP SWAP1 POP SWAP1 JUMP JUMPDEST PUSH1 0x0 DUP1 PUSH1 0xD PUSH1 0x0 DUP5 DUP2 MSTORE PUSH1 0x20 ADD SWAP1 DUP2 MSTORE PUSH1 0x20 ADD PUSH1 0x0 KECCAK256 SLOAD SWAP1 POP PUSH1 0x0 DUP2 GT ISZERO PUSH2 0x17FC JUMPI PUSH2 0x17F4 DUP5 DUP3 PUSH2 0x2794 JUMP JUMPDEST SWAP2 POP POP PUSH2 0x1809 JUMP JUMPDEST PUSH2 0x1805 DUP5 PUSH2 0x2A11 JUMP JUMPDEST SWAP2 POP POP JUMPDEST SWAP3 SWAP2 POP POP JUMP JUMPDEST PUSH1 0x0 PUSH1 0x40 MLOAD PUSH32 0x8C379A000000000000000000000000000000000000000000000000000000000 DUP2 MSTORE PUSH1 0x4 ADD PUSH2 0x1843 SWAP1 PUSH2 0x7468 JUMP JUMPDEST PUSH1 0x40 MLOAD DUP1 SWAP2 SUB SWAP1 REVERT JUMPDEST PUSH2 0x1876 PUSH32 0xA75205B8583660BDAD375C0CCDE11AF17668D76A408A9A5E739251B0F7C59870 CALLER PUSH2 0x30C5 JUMP JUMPDEST PUSH2 0x18B5 JUMPI PUSH1 0x40 MLOAD PUSH32 0x8C379A000000000000000000000000000000000000000000000000000000000 DUP2 MSTORE PUSH1 0x4 ADD PUSH2 0x18AC SWAP1 PUSH2 0x720C JUMP JUMPDEST PUSH1 0x40 MLOAD DUP1 SWAP2 SUB SWAP1 REVERT JUMPDEST PUSH1 0x0 PUSH1 0x16 PUSH1 0x9 ADD DUP1 SLOAD SWAP1 POP GT ISZERO PUSH2 0x19A2 JUMPI DUP3 PUSH1 0x16 PUSH1 0x9 ADD PUSH1 0x0 DUP2 SLOAD DUP2 LT PUSH2 0x18DF JUMPI PUSH2 0x18DE PUSH2 0x7488 JUMP JUMPDEST JUMPDEST SWAP1 PUSH1 0x0 MSTORE PUSH1 0x20 PUSH1 0x0 KECCAK256 ADD SLOAD GT PUSH2 0x192A JUMPI PUSH1 0x40 MLOAD PUSH32 0x8C379A000000000000000000000000000000000000000000000000000000000 DUP2 MSTORE PUSH1 0x4 ADD PUSH2 0x1921 SWAP1 PUSH2 0x7529 JUMP JUMPDEST PUSH1 0x40 MLOAD DUP1 SWAP2 SUB SWAP1 REVERT JUMPDEST DUP2 PUSH1 0x16 PUSH1 0x9 ADD PUSH1 0x1 PUSH1 0x16 PUSH1 0x9 ADD DUP1 SLOAD SWAP1 POP PUSH2 0x1945 SWAP2 SWAP1 PUSH2 0x7578 JUMP JUMPDEST DUP2 SLOAD DUP2 LT PUSH2 0x1956 JUMPI PUSH2 0x1955 PUSH2 0x7488 JUMP JUMPDEST JUMPDEST SWAP1 PUSH1 0x0 MSTORE PUSH1 0x20 PUSH1 0x0 KECCAK256 ADD SLOAD LT PUSH2 0x19A1 JUMPI PUSH1 0x40 MLOAD PUSH32 0x8C379A000000000000000000000000000000000000000000000000000000000 DUP2 MSTORE PUSH1 0x4 ADD PUSH2 0x1998 SWAP1 PUSH2 0x761E JUMP JUMPDEST PUSH1 0x40 MLOAD DUP1 SWAP2 SUB SWAP1 REVERT JUMPDEST JUMPDEST DUP8 PUSH1 0x16 PUSH1 0x0 ADD SWAP1 DUP2 PUSH2 0x19B4 SWAP2 SWAP1 PUSH2 0x77EA JUMP JUMPDEST POP DUP7 PUSH1 0x16 PUSH1 0x2 ADD DUP2 SWAP1 SSTORE POP DUP6 PUSH1 0x16 PUSH1 0x3 ADD DUP2 SWAP1 SSTORE POP DUP5 PUSH1 0x16 PUSH1 0x4 ADD DUP2 SWAP1 SSTORE POP DUP4 PUSH1 0x16 PUSH1 0x5 ADD DUP2 SWAP1 SSTORE POP DUP3 PUSH1 0x16 PUSH1 0x7 ADD DUP2 SWAP1 SSTORE POP DUP2 PUSH1 0x16 PUSH1 0x8 ADD DUP2 SWAP1 SSTORE POP DUP1 PUSH1 0x16 PUSH1 0xA ADD DUP2 SWAP1 SSTORE POP POP POP POP POP POP POP POP POP JUMP JUMPDEST PUSH1 0x0 PUSH1 0x6 SLOAD SWAP1 POP SWAP1 JUMP JUMPDEST PUSH32 0x6BA6F588BCDC2DF8426603A466C98AB15E79F7FB7F37B53581CE39C1D01B7249 DUP2 JUMP JUMPDEST PUSH1 0x15 PUSH1 0x0 SWAP1 SLOAD SWAP1 PUSH2 0x100 EXP SWAP1 DIV PUSH1 0xFF AND DUP2 JUMP JUMPDEST PUSH2 0x1A70 PUSH32 0x6BA6F588BCDC2DF8426603A466C98AB15E79F7FB7F37B53581CE39C1D01B7249 DUP3 PUSH2 0x3E17 JUMP JUMPDEST POP JUMP JUMPDEST PUSH1 0x0 PUSH2 0x1A9F PUSH32 0xA75205B8583660BDAD375C0CCDE11AF17668D76A408A9A5E739251B0F7C59870 CALLER PUSH2 0x30C5 JUMP JUMPDEST ISZERO PUSH2 0x1AB8 JUMPI PUSH2 0x1AAF DUP5 DUP5 DUP5 PUSH2 0x4C70 JUMP JUMPDEST PUSH1 0x1 SWAP1 POP PUSH2 0x1DE7 JUMP JUMPDEST PUSH1 0x0 PUSH2 0x1AC3 CALLER PUSH2 0x339E JUMP JUMPDEST SWAP1 POP PUSH1 0x12 PUSH1 0x0 DUP3 DUP2 MSTORE PUSH1 0x20 ADD SWAP1 DUP2 MSTORE PUSH1 0x20 ADD PUSH1 0x0 KECCAK256 PUSH1 0x0 SWAP1 SLOAD SWAP1 PUSH2 0x100 EXP SWAP1 DIV PUSH1 0xFF AND PUSH2 0x1B25 JUMPI PUSH1 0x40 MLOAD PUSH32 0x8C379A000000000000000000000000000000000000000000000000000000000 DUP2 MSTORE PUSH1 0x4 ADD PUSH2 0x1B1C SWAP1 PUSH2 0x7908 JUMP JUMPDEST PUSH1 0x40 MLOAD DUP1 SWAP2 SUB SWAP1 REVERT JUMPDEST PUSH1 0x4 DUP1 DUP2 GT ISZERO PUSH2 0x1B38 JUMPI PUSH2 0x1B37 PUSH2 0x6BD2 JUMP JUMPDEST JUMPDEST PUSH1 0x15 PUSH1 0x0 SWAP1 SLOAD SWAP1 PUSH2 0x100 EXP SWAP1 DIV PUSH1 0xFF AND PUSH1 0x4 DUP2 GT ISZERO PUSH2 0x1B5A JUMPI PUSH2 0x1B59 PUSH2 0x6BD2 JUMP JUMPDEST JUMPDEST SUB PUSH2 0x1B9A JUMPI PUSH1 0x40 MLOAD PUSH32 0x8C379A000000000000000000000000000000000000000000000000000000000 DUP2 MSTORE PUSH1 0x4 ADD PUSH2 0x1B91 SWAP1 PUSH2 0x799A JUMP JUMPDEST PUSH1 0x40 MLOAD DUP1 SWAP2 SUB SWAP1 REVERT JUMPDEST PUSH1 0x1 PUSH1 0x4 DUP2 GT ISZERO PUSH2 0x1BAE JUMPI PUSH2 0x1BAD PUSH2 0x6BD2 JUMP JUMPDEST JUMPDEST PUSH1 0x15 PUSH1 0x0 SWAP1 SLOAD SWAP1 PUSH2 0x100 EXP SWAP1 DIV PUSH1 0xFF AND PUSH1 0x4 DUP2 GT ISZERO PUSH2 0x1BD0 JUMPI PUSH2 0x1BCF PUSH2 0x6BD2 JUMP JUMPDEST JUMPDEST EQ DUP1 ISZERO PUSH2 0x1C03 JUMPI POP PUSH2 0x1C02 PUSH32 0xF698AF62C65280E4949BCEEC64B760F3B7738217CBC536CDFC4C9463676B05C2 DUP6 PUSH2 0x30C5 JUMP JUMPDEST JUMPDEST DUP1 ISZERO PUSH2 0x1C5C JUMPI POP PUSH1 0x21 PUSH1 0x0 SWAP1 SLOAD SWAP1 PUSH2 0x100 EXP SWAP1 DIV PUSH20 0xFFFFFFFFFFFFFFFFFFFFFFFFFFFFFFFFFFFFFFFF AND PUSH20 0xFFFFFFFFFFFFFFFFFFFFFFFFFFFFFFFFFFFFFFFF AND DUP6 PUSH20 0xFFFFFFFFFFFFFFFFFFFFFFFFFFFFFFFFFFFFFFFF AND EQ JUMPDEST ISZERO PUSH2 0x1D06 JUMPI PUSH1 0x2 PUSH1 0x15 PUSH1 0x0 PUSH2 0x100 EXP DUP2 SLOAD DUP2 PUSH1 0xFF MUL NOT AND SWAP1 DUP4 PUSH1 0x4 DUP2 GT ISZERO PUSH2 0x1C87 JUMPI PUSH2 0x1C86 PUSH2 0x6BD2 JUMP JUMPDEST JUMPDEST MUL OR SWAP1 SSTORE POP PUSH2 0x1C98 DUP5 PUSH1 0x0 DUP1 PUSH2 0x4EE9 JUMP JUMPDEST CALLER PUSH20 0xFFFFFFFFFFFFFFFFFFFFFFFFFFFFFFFFFFFFFFFF AND PUSH32 0xDA2010ACFDA7A262372331CB3B57E3F648F63EB009A423A2B5602CFA4F9BFF51 PUSH1 0x16 PUSH1 0x0 ADD PUSH1 0x16 PUSH1 0x1 ADD PUSH1 0x15 PUSH1 0x0 SWAP1 SLOAD SWAP1 PUSH2 0x100 EXP SWAP1 DIV PUSH1 0xFF AND PUSH1 0x40 MLOAD PUSH2 0x1CF9 SWAP4 SWAP3 SWAP2 SWAP1 PUSH2 0x7A3E JUMP JUMPDEST PUSH1 0x40 MLOAD DUP1 SWAP2 SUB SWAP1 LOG2 PUSH2 0x1DD6 JUMP JUMPDEST PUSH1 0x1 ISZERO ISZERO PUSH2 0x1D13 DUP6 PUSH2 0x383C JUMP JUMPDEST ISZERO ISZERO EQ PUSH2 0x1D55 JUMPI PUSH1 0x40 MLOAD PUSH32 0x8C379A000000000000000000000000000000000000000000000000000000000 DUP2 MSTORE PUSH1 0x4 ADD PUSH2 0x1D4C SWAP1 PUSH2 0x7ACF JUMP JUMPDEST PUSH1 0x40 MLOAD DUP1 SWAP2 SUB SWAP1 REVERT JUMPDEST PUSH1 0x1 ISZERO ISZERO PUSH2 0x1D62 DUP7 PUSH2 0x383C JUMP JUMPDEST ISZERO ISZERO EQ DUP1 PUSH2 0x1D96 JUMPI POP PUSH2 0x1D95 PUSH32 0xF698AF62C65280E4949BCEEC64B760F3B7738217CBC536CDFC4C9463676B05C2 DUP7 PUSH2 0x30C5 JUMP JUMPDEST JUMPDEST PUSH2 0x1DD5 JUMPI PUSH1 0x40 MLOAD PUSH32 0x8C379A000000000000000000000000000000000000000000000000000000000 DUP2 MSTORE PUSH1 0x4 ADD PUSH2 0x1DCC SWAP1 PUSH2 0x7B3B JUMP JUMPDEST PUSH1 0x40 MLOAD DUP1 SWAP2 SUB SWAP1 REVERT JUMPDEST JUMPDEST PUSH2 0x1DE1 DUP6 DUP6 DUP6 PUSH2 0x4C70 JUMP JUMPDEST PUSH1 0x1 SWAP2 POP POP JUMPDEST SWAP4 SWAP3 POP POP POP JUMP JUMPDEST PUSH1 0x0 DUP1 PUSH1 0x0 DUP4 DUP2 MSTORE PUSH1 0x20 ADD SWAP1 DUP2 MSTORE PUSH1 0x20 ADD PUSH1 0x0 KECCAK256 PUSH1 0x1 ADD SLOAD SWAP1 POP SWAP2 SWAP1 POP JUMP JUMPDEST PUSH32 0xF698AF62C65280E4949BCEEC64B760F3B7738217CBC536CDFC4C9463676B05C2 DUP2 JUMP JUMPDEST PUSH1 0x0 PUSH1 0x16 PUSH1 0x7 ADD SLOAD SWAP1 POP SWAP1 JUMP JUMPDEST PUSH1 0x0 DUP1 SHL DUP3 SUB PUSH2 0x1E8E JUMPI PUSH1 0x0 PUSH2 0x1E89 JUMPI PUSH1 0x40 MLOAD PUSH32 0x8C379A000000000000000000000000000000000000000000000000000000000 DUP2 MSTORE PUSH1 0x4 ADD PUSH2 0x1E80 SWAP1 PUSH2 0x7BCD JUMP JUMPDEST PUSH1 0x40 MLOAD DUP1 SWAP2 SUB SWAP1 REVERT JUMPDEST PUSH2 0x1FA2 JUMP JUMPDEST PUSH32 0xA75205B8583660BDAD375C0CCDE11AF17668D76A408A9A5E739251B0F7C59870 DUP3 SUB PUSH2 0x1F37 JUMPI PUSH2 0x1EDF PUSH32 0xA75205B8583660BDAD375C0CCDE11AF17668D76A408A9A5E739251B0F7C59870 CALLER PUSH2 0x30C5 JUMP JUMPDEST DUP1 PUSH2 0x1EF3 JUMPI POP PUSH2 0x1EF2 PUSH1 0x0 DUP1 SHL CALLER PUSH2 0x30C5 JUMP JUMPDEST JUMPDEST PUSH2 0x1F32 JUMPI PUSH1 0x40 MLOAD PUSH32 0x8C379A000000000000000000000000000000000000000000000000000000000 DUP2 MSTORE PUSH1 0x4 ADD PUSH2 0x1F29 SWAP1 PUSH2 0x7C5F JUMP JUMPDEST PUSH1 0x40 MLOAD DUP1 SWAP2 SUB SWAP1 REVERT JUMPDEST PUSH2 0x1FA1 JUMP JUMPDEST PUSH2 0x1F61 PUSH32 0xA75205B8583660BDAD375C0CCDE11AF17668D76A408A9A5E739251B0F7C59870 CALLER PUSH2 0x30C5 JUMP JUMPDEST PUSH2 0x1FA0 JUMPI PUSH1 0x40 MLOAD PUSH32 0x8C379A000000000000000000000000000000000000000000000000000000000 DUP2 MSTORE PUSH1 0x4 ADD PUSH2 0x1F97 SWAP1 PUSH2 0x7CCB JUMP JUMPDEST PUSH1 0x40 MLOAD DUP1 SWAP2 SUB SWAP1 REVERT JUMPDEST JUMPDEST JUMPDEST PUSH2 0x1FAC DUP3 DUP3 PUSH2 0x50FF JUMP JUMPDEST POP POP JUMP JUMPDEST PUSH1 0x3 PUSH1 0x0 SWAP1 SLOAD SWAP1 PUSH2 0x100 EXP SWAP1 DIV PUSH20 0xFFFFFFFFFFFFFFFFFFFFFFFFFFFFFFFFFFFFFFFF AND DUP2 JUMP JUMPDEST PUSH1 0x0 PUSH2 0x1FE1 CALLER PUSH2 0x339E JUMP JUMPDEST SWAP1 POP PUSH1 0x12 PUSH1 0x0 DUP3 DUP2 MSTORE PUSH1 0x20 ADD SWAP1 DUP2 MSTORE PUSH1 0x20 ADD PUSH1 0x0 KECCAK256 PUSH1 0x0 SWAP1 SLOAD SWAP1 PUSH2 0x100 EXP SWAP1 DIV PUSH1 0xFF AND PUSH2 0x2043 JUMPI PUSH1 0x40 MLOAD PUSH32 0x8C379A000000000000000000000000000000000000000000000000000000000 DUP2 MSTORE PUSH1 0x4 ADD PUSH2 0x203A SWAP1 PUSH2 0x7908 JUMP JUMPDEST PUSH1 0x40 MLOAD DUP1 SWAP2 SUB SWAP1 REVERT JUMPDEST DUP3 PUSH3 0xD2F00 DUP4 PUSH2 0x2053 SWAP2 SWAP1 PUSH2 0x7CEB JUMP JUMPDEST GT PUSH2 0x2093 JUMPI PUSH1 0x40 MLOAD PUSH32 0x8C379A000000000000000000000000000000000000000000000000000000000 DUP2 MSTORE PUSH1 0x4 ADD PUSH2 0x208A SWAP1 PUSH2 0x7DB7 JUMP JUMPDEST PUSH1 0x40 MLOAD DUP1 SWAP2 SUB SWAP1 REVERT JUMPDEST PUSH2 0x20A6 DUP4 DUP4 PUSH2 0x20A1 DUP7 PUSH2 0x51DF JUMP JUMPDEST PUSH2 0x529D JUMP JUMPDEST POP POP POP JUMP JUMPDEST PUSH1 0x0 SWAP1 JUMP JUMPDEST PUSH1 0x0 PUSH2 0x20DC PUSH32 0x6BA6F588BCDC2DF8426603A466C98AB15E79F7FB7F37B53581CE39C1D01B7249 DUP4 PUSH2 0x30C5 JUMP JUMPDEST SWAP1 POP SWAP2 SWAP1 POP JUMP JUMPDEST PUSH2 0x20EB PUSH2 0x5459 JUMP JUMPDEST PUSH20 0xFFFFFFFFFFFFFFFFFFFFFFFFFFFFFFFFFFFFFFFF AND DUP2 PUSH20 0xFFFFFFFFFFFFFFFFFFFFFFFFFFFFFFFFFFFFFFFF AND EQ PUSH2 0x2158 JUMPI PUSH1 0x40 MLOAD PUSH32 0x8C379A000000000000000000000000000000000000000000000000000000000 DUP2 MSTORE PUSH1 0x4 ADD PUSH2 0x214F SWAP1 PUSH2 0x7E49 JUMP JUMPDEST PUSH1 0x40 MLOAD DUP1 SWAP2 SUB SWAP1 REVERT JUMPDEST PUSH2 0x2162 DUP3 DUP3 PUSH2 0x4B6D JUMP JUMPDEST POP POP JUMP JUMPDEST PUSH1 0x0 PUSH1 0x16 PUSH1 0x5 ADD SLOAD SWAP1 POP SWAP1 JUMP JUMPDEST PUSH1 0x0 PUSH1 0x40 MLOAD PUSH32 0x8C379A000000000000000000000000000000000000000000000000000000000 DUP2 MSTORE PUSH1 0x4 ADD PUSH2 0x21A7 SWAP1 PUSH2 0x7EB5 JUMP JUMPDEST PUSH1 0x40 MLOAD DUP1 SWAP2 SUB SWAP1 REVERT JUMPDEST PUSH32 0xD7AA2DDFA4E381128202BF365B7E0A176F2FCA6CDF2F23C2B0A6F43937695890 DUP2 JUMP JUMPDEST PUSH2 0x21FE PUSH32 0xA75205B8583660BDAD375C0CCDE11AF17668D76A408A9A5E739251B0F7C59870 CALLER PUSH2 0x30C5 JUMP JUMPDEST PUSH2 0x223D JUMPI PUSH1 0x40 MLOAD PUSH32 0x8C379A000000000000000000000000000000000000000000000000000000000 DUP2 MSTORE PUSH1 0x4 ADD PUSH2 0x2234 SWAP1 PUSH2 0x720C JUMP JUMPDEST PUSH1 0x40 MLOAD DUP1 SWAP2 SUB SWAP1 REVERT JUMPDEST PUSH1 0x2 PUSH1 0x4 DUP2 GT ISZERO PUSH2 0x2251 JUMPI PUSH2 0x2250 PUSH2 0x6BD2 JUMP JUMPDEST JUMPDEST PUSH1 0x15 PUSH1 0x0 SWAP1 SLOAD SWAP1 PUSH2 0x100 EXP SWAP1 DIV PUSH1 0xFF AND PUSH1 0x4 DUP2 GT ISZERO PUSH2 0x2273 JUMPI PUSH2 0x2272 PUSH2 0x6BD2 JUMP JUMPDEST JUMPDEST SUB PUSH2 0x22A8 JUMPI PUSH1 0x4 PUSH1 0x15 PUSH1 0x0 PUSH2 0x100 EXP DUP2 SLOAD DUP2 PUSH1 0xFF MUL NOT AND SWAP1 DUP4 PUSH1 0x4 DUP2 GT ISZERO PUSH2 0x229E JUMPI PUSH2 0x229D PUSH2 0x6BD2 JUMP JUMPDEST JUMPDEST MUL OR SWAP1 SSTORE POP PUSH2 0x2355 JUMP JUMPDEST PUSH1 0x4 DUP1 DUP2 GT ISZERO PUSH2 0x22BB JUMPI PUSH2 0x22BA PUSH2 0x6BD2 JUMP JUMPDEST JUMPDEST PUSH1 0x15 PUSH1 0x0 SWAP1 SLOAD SWAP1 PUSH2 0x100 EXP SWAP1 DIV PUSH1 0xFF AND PUSH1 0x4 DUP2 GT ISZERO PUSH2 0x22DD JUMPI PUSH2 0x22DC PUSH2 0x6BD2 JUMP JUMPDEST JUMPDEST SUB PUSH2 0x2312 JUMPI PUSH1 0x2 PUSH1 0x15 PUSH1 0x0 PUSH2 0x100 EXP DUP2 SLOAD DUP2 PUSH1 0xFF MUL NOT AND SWAP1 DUP4 PUSH1 0x4 DUP2 GT ISZERO PUSH2 0x2308 JUMPI PUSH2 0x2307 PUSH2 0x6BD2 JUMP JUMPDEST JUMPDEST MUL OR SWAP1 SSTORE POP PUSH2 0x2354 JUMP JUMPDEST PUSH1 0x0 PUSH2 0x2353 JUMPI PUSH1 0x40 MLOAD PUSH32 0x8C379A000000000000000000000000000000000000000000000000000000000 DUP2 MSTORE PUSH1 0x4 ADD PUSH2 0x234A SWAP1 PUSH2 0x7F6D JUMP JUMPDEST PUSH1 0x40 MLOAD DUP1 SWAP2 SUB SWAP1 REVERT JUMPDEST JUMPDEST JUMPDEST CALLER PUSH20 0xFFFFFFFFFFFFFFFFFFFFFFFFFFFFFFFFFFFFFFFF AND PUSH32 0xDA2010ACFDA7A262372331CB3B57E3F648F63EB009A423A2B5602CFA4F9BFF51 PUSH1 0x16 PUSH1 0x0 ADD PUSH1 0x16 PUSH1 0x1 ADD PUSH1 0x15 PUSH1 0x0 SWAP1 SLOAD SWAP1 PUSH2 0x100 EXP SWAP1 DIV PUSH1 0xFF AND PUSH1 0x40 MLOAD PUSH2 0x23B6 SWAP4 SWAP3 SWAP2 SWAP1 PUSH2 0x7A3E JUMP JUMPDEST PUSH1 0x40 MLOAD DUP1 SWAP2 SUB SWAP1 LOG2 JUMP JUMPDEST PUSH2 0x23EA PUSH32 0xA75205B8583660BDAD375C0CCDE11AF17668D76A408A9A5E739251B0F7C59870 CALLER PUSH2 0x30C5 JUMP JUMPDEST PUSH2 0x2429 JUMPI PUSH1 0x40 MLOAD PUSH32 0x8C379A000000000000000000000000000000000000000000000000000000000 DUP2 MSTORE PUSH1 0x4 ADD PUSH2 0x2420 SWAP1 PUSH2 0x720C JUMP JUMPDEST PUSH1 0x40 MLOAD DUP1 SWAP2 SUB SWAP1 REVERT JUMPDEST PUSH1 0x0 DUP1 PUSH2 0x2435 DUP4 PUSH2 0x5461 JUMP JUMPDEST SWAP2 POP SWAP2 POP DUP1 ISZERO PUSH2 0x2561 JUMPI PUSH2 0x2448 DUP4 PUSH2 0x550B JUMP JUMPDEST PUSH2 0x2487 JUMPI PUSH1 0x40 MLOAD PUSH32 0x8C379A000000000000000000000000000000000000000000000000000000000 DUP2 MSTORE PUSH1 0x4 ADD PUSH2 0x247E SWAP1 PUSH2 0x7FFF JUMP JUMPDEST PUSH1 0x40 MLOAD DUP1 SWAP2 SUB SWAP1 REVERT JUMPDEST PUSH1 0x1 PUSH1 0x16 PUSH1 0x9 ADD DUP1 SLOAD SWAP1 POP PUSH2 0x249C SWAP2 SWAP1 PUSH2 0x7578 JUMP JUMPDEST DUP3 LT ISZERO PUSH2 0x252D JUMPI PUSH1 0x0 DUP3 SWAP1 POP JUMPDEST PUSH1 0x1 PUSH1 0x16 PUSH1 0x9 ADD DUP1 SLOAD SWAP1 POP PUSH2 0x24BE SWAP2 SWAP1 PUSH2 0x7578 JUMP JUMPDEST DUP2 LT ISZERO PUSH2 0x252B JUMPI PUSH1 0x16 PUSH1 0x9 ADD PUSH1 0x1 DUP3 PUSH2 0x24D7 SWAP2 SWAP1 PUSH2 0x7CEB JUMP JUMPDEST DUP2 SLOAD DUP2 LT PUSH2 0x24E8 JUMPI PUSH2 0x24E7 PUSH2 0x7488 JUMP JUMPDEST JUMPDEST SWAP1 PUSH1 0x0 MSTORE PUSH1 0x20 PUSH1 0x0 KECCAK256 ADD SLOAD PUSH1 0x16 PUSH1 0x9 ADD DUP3 DUP2 SLOAD DUP2 LT PUSH2 0x250A JUMPI PUSH2 0x2509 PUSH2 0x7488 JUMP JUMPDEST JUMPDEST SWAP1 PUSH1 0x0 MSTORE PUSH1 0x20 PUSH1 0x0 KECCAK256 ADD DUP2 SWAP1 SSTORE POP DUP1 DUP1 PUSH2 0x2523 SWAP1 PUSH2 0x801F JUMP JUMPDEST SWAP2 POP POP PUSH2 0x24A9 JUMP JUMPDEST POP JUMPDEST PUSH1 0x16 PUSH1 0x9 ADD DUP1 SLOAD DUP1 PUSH2 0x2542 JUMPI PUSH2 0x2541 PUSH2 0x8067 JUMP JUMPDEST JUMPDEST PUSH1 0x1 SWAP1 SUB DUP2 DUP2 SWAP1 PUSH1 0x0 MSTORE PUSH1 0x20 PUSH1 0x0 KECCAK256 ADD PUSH1 0x0 SWAP1 SSTORE SWAP1 SSTORE PUSH2 0x2560 PUSH2 0x5540 JUMP JUMPDEST JUMPDEST POP POP POP JUMP JUMPDEST PUSH2 0x2590 PUSH32 0xA75205B8583660BDAD375C0CCDE11AF17668D76A408A9A5E739251B0F7C59870 CALLER PUSH2 0x30C5 JUMP JUMPDEST PUSH2 0x25CF JUMPI PUSH1 0x40 MLOAD PUSH32 0x8C379A000000000000000000000000000000000000000000000000000000000 DUP2 MSTORE PUSH1 0x4 ADD PUSH2 0x25C6 SWAP1 PUSH2 0x720C JUMP JUMPDEST PUSH1 0x40 MLOAD DUP1 SWAP2 SUB SWAP1 REVERT JUMPDEST PUSH2 0x25D7 PUSH2 0x5612 JUMP JUMPDEST POP PUSH2 0x2604 PUSH1 0x21 PUSH1 0x0 SWAP1 SLOAD SWAP1 PUSH2 0x100 EXP SWAP1 DIV PUSH20 0xFFFFFFFFFFFFFFFFFFFFFFFFFFFFFFFFFFFFFFFF AND DUP3 PUSH2 0x5686 JUMP JUMPDEST PUSH1 0x0 PUSH2 0x2631 PUSH1 0x21 PUSH1 0x0 SWAP1 SLOAD SWAP1 PUSH2 0x100 EXP SWAP1 DIV PUSH20 0xFFFFFFFFFFFFFFFFFFFFFFFFFFFFFFFFFFFFFFFF AND PUSH2 0x2A11 JUMP JUMPDEST EQ DUP1 ISZERO PUSH2 0x2645 JUMPI POP PUSH1 0x0 PUSH2 0x2643 PUSH2 0x1A05 JUMP JUMPDEST EQ JUMPDEST ISZERO PUSH2 0x26DF JUMPI PUSH1 0x3 PUSH1 0x15 PUSH1 0x0 PUSH2 0x100 EXP DUP2 SLOAD DUP2 PUSH1 0xFF MUL NOT AND SWAP1 DUP4 PUSH1 0x4 DUP2 GT ISZERO PUSH2 0x2670 JUMPI PUSH2 0x266F PUSH2 0x6BD2 JUMP JUMPDEST JUMPDEST MUL OR SWAP1 SSTORE POP CALLER PUSH20 0xFFFFFFFFFFFFFFFFFFFFFFFFFFFFFFFFFFFFFFFF AND PUSH32 0xDA2010ACFDA7A262372331CB3B57E3F648F63EB009A423A2B5602CFA4F9BFF51 PUSH1 0x16 PUSH1 0x0 ADD PUSH1 0x16 PUSH1 0x1 ADD PUSH1 0x15 PUSH1 0x0 SWAP1 SLOAD SWAP1 PUSH2 0x100 EXP SWAP1 DIV PUSH1 0xFF AND PUSH1 0x40 MLOAD PUSH2 0x26D6 SWAP4 SWAP3 SWAP2 SWAP1 PUSH2 0x7A3E JUMP JUMPDEST PUSH1 0x40 MLOAD DUP1 SWAP2 SUB SWAP1 LOG2 JUMPDEST POP JUMP JUMPDEST PUSH1 0x0 PUSH2 0x270E PUSH32 0xA75205B8583660BDAD375C0CCDE11AF17668D76A408A9A5E739251B0F7C59870 DUP4 PUSH2 0x30C5 JUMP JUMPDEST SWAP1 POP SWAP2 SWAP1 POP JUMP JUMPDEST PUSH2 0x273F PUSH32 0xA75205B8583660BDAD375C0CCDE11AF17668D76A408A9A5E739251B0F7C59870 CALLER PUSH2 0x30C5 JUMP JUMPDEST PUSH2 0x277E JUMPI PUSH1 0x40 MLOAD PUSH32 0x8C379A000000000000000000000000000000000000000000000000000000000 DUP2 MSTORE PUSH1 0x4 ADD PUSH2 0x2775 SWAP1 PUSH2 0x720C JUMP JUMPDEST PUSH1 0x40 MLOAD DUP1 SWAP2 SUB SWAP1 REVERT JUMPDEST DUP1 PUSH1 0x16 PUSH1 0x1 ADD SWAP1 DUP2 PUSH2 0x2790 SWAP2 SWAP1 PUSH2 0x77EA JUMP JUMPDEST POP POP JUMP JUMPDEST PUSH1 0x0 DUP1 PUSH1 0x0 PUSH2 0x27E1 DUP5 PUSH1 0x9 PUSH1 0x0 DUP9 PUSH20 0xFFFFFFFFFFFFFFFFFFFFFFFFFFFFFFFFFFFFFFFF AND PUSH20 0xFFFFFFFFFFFFFFFFFFFFFFFFFFFFFFFFFFFFFFFF AND DUP2 MSTORE PUSH1 0x20 ADD SWAP1 DUP2 MSTORE PUSH1 0x20 ADD PUSH1 0x0 KECCAK256 PUSH2 0x5855 JUMP JUMPDEST SWAP2 POP SWAP2 POP DUP2 PUSH2 0x27F8 JUMPI PUSH2 0x27F3 DUP6 PUSH2 0x2A11 JUMP JUMPDEST PUSH2 0x27FA JUMP JUMPDEST DUP1 JUMPDEST SWAP3 POP POP POP SWAP3 SWAP2 POP POP JUMP JUMPDEST PUSH1 0x1 PUSH1 0x0 SWAP1 SLOAD SWAP1 PUSH2 0x100 EXP SWAP1 DIV PUSH20 0xFFFFFFFFFFFFFFFFFFFFFFFFFFFFFFFFFFFFFFFF AND DUP2 JUMP JUMPDEST PUSH2 0x2832 PUSH2 0x6635 JUMP JUMPDEST PUSH1 0x16 PUSH1 0x40 MLOAD DUP1 PUSH2 0x160 ADD PUSH1 0x40 MSTORE SWAP1 DUP2 PUSH1 0x0 DUP3 ADD DUP1 SLOAD PUSH2 0x2850 SWAP1 PUSH2 0x73EB JUMP JUMPDEST DUP1 PUSH1 0x1F ADD PUSH1 0x20 DUP1 SWAP2 DIV MUL PUSH1 0x20 ADD PUSH1 0x40 MLOAD SWAP1 DUP2 ADD PUSH1 0x40 MSTORE DUP1 SWAP3 SWAP2 SWAP1 DUP2 DUP2 MSTORE PUSH1 0x20 ADD DUP3 DUP1 SLOAD PUSH2 0x287C SWAP1 PUSH2 0x73EB JUMP JUMPDEST DUP1 ISZERO PUSH2 0x28C9 JUMPI DUP1 PUSH1 0x1F LT PUSH2 0x289E JUMPI PUSH2 0x100 DUP1 DUP4 SLOAD DIV MUL DUP4 MSTORE SWAP2 PUSH1 0x20 ADD SWAP2 PUSH2 0x28C9 JUMP JUMPDEST DUP3 ADD SWAP2 SWAP1 PUSH1 0x0 MSTORE PUSH1 0x20 PUSH1 0x0 KECCAK256 SWAP1 JUMPDEST DUP2 SLOAD DUP2 MSTORE SWAP1 PUSH1 0x1 ADD SWAP1 PUSH1 0x20 ADD DUP1 DUP4 GT PUSH2 0x28AC JUMPI DUP3 SWAP1 SUB PUSH1 0x1F AND DUP3 ADD SWAP2 JUMPDEST POP POP POP POP POP DUP2 MSTORE PUSH1 0x20 ADD PUSH1 0x1 DUP3 ADD DUP1 SLOAD PUSH2 0x28E2 SWAP1 PUSH2 0x73EB JUMP JUMPDEST DUP1 PUSH1 0x1F ADD PUSH1 0x20 DUP1 SWAP2 DIV MUL PUSH1 0x20 ADD PUSH1 0x40 MLOAD SWAP1 DUP2 ADD PUSH1 0x40 MSTORE DUP1 SWAP3 SWAP2 SWAP1 DUP2 DUP2 MSTORE PUSH1 0x20 ADD DUP3 DUP1 SLOAD PUSH2 0x290E SWAP1 PUSH2 0x73EB JUMP JUMPDEST DUP1 ISZERO PUSH2 0x295B JUMPI DUP1 PUSH1 0x1F LT PUSH2 0x2930 JUMPI PUSH2 0x100 DUP1 DUP4 SLOAD DIV MUL DUP4 MSTORE SWAP2 PUSH1 0x20 ADD SWAP2 PUSH2 0x295B JUMP JUMPDEST DUP3 ADD SWAP2 SWAP1 PUSH1 0x0 MSTORE PUSH1 0x20 PUSH1 0x0 KECCAK256 SWAP1 JUMPDEST DUP2 SLOAD DUP2 MSTORE SWAP1 PUSH1 0x1 ADD SWAP1 PUSH1 0x20 ADD DUP1 DUP4 GT PUSH2 0x293E JUMPI DUP3 SWAP1 SUB PUSH1 0x1F AND DUP3 ADD SWAP2 JUMPDEST POP POP POP POP POP DUP2 MSTORE PUSH1 0x20 ADD PUSH1 0x2 DUP3 ADD SLOAD DUP2 MSTORE PUSH1 0x20 ADD PUSH1 0x3 DUP3 ADD SLOAD DUP2 MSTORE PUSH1 0x20 ADD PUSH1 0x4 DUP3 ADD SLOAD DUP2 MSTORE PUSH1 0x20 ADD PUSH1 0x5 DUP3 ADD SLOAD DUP2 MSTORE PUSH1 0x20 ADD PUSH1 0x6 DUP3 ADD SLOAD DUP2 MSTORE PUSH1 0x20 ADD PUSH1 0x7 DUP3 ADD SLOAD DUP2 MSTORE PUSH1 0x20 ADD PUSH1 0x8 DUP3 ADD SLOAD DUP2 MSTORE PUSH1 0x20 ADD PUSH1 0x9 DUP3 ADD DUP1 SLOAD DUP1 PUSH1 0x20 MUL PUSH1 0x20 ADD PUSH1 0x40 MLOAD SWAP1 DUP2 ADD PUSH1 0x40 MSTORE DUP1 SWAP3 SWAP2 SWAP1 DUP2 DUP2 MSTORE PUSH1 0x20 ADD DUP3 DUP1 SLOAD DUP1 ISZERO PUSH2 0x29F9 JUMPI PUSH1 0x20 MUL DUP3 ADD SWAP2 SWAP1 PUSH1 0x0 MSTORE PUSH1 0x20 PUSH1 0x0 KECCAK256 SWAP1 JUMPDEST DUP2 SLOAD DUP2 MSTORE PUSH1 0x20 ADD SWAP1 PUSH1 0x1 ADD SWAP1 DUP1 DUP4 GT PUSH2 0x29E5 JUMPI JUMPDEST POP POP POP POP POP DUP2 MSTORE PUSH1 0x20 ADD PUSH1 0xA DUP3 ADD SLOAD DUP2 MSTORE POP POP SWAP1 POP SWAP1 JUMP JUMPDEST PUSH1 0x0 PUSH1 0x4 PUSH1 0x0 DUP4 PUSH20 0xFFFFFFFFFFFFFFFFFFFFFFFFFFFFFFFFFFFFFFFF AND PUSH20 0xFFFFFFFFFFFFFFFFFFFFFFFFFFFFFFFFFFFFFFFF AND DUP2 MSTORE PUSH1 0x20 ADD SWAP1 DUP2 MSTORE PUSH1 0x20 ADD PUSH1 0x0 KECCAK256 SLOAD SWAP1 POP SWAP2 SWAP1 POP JUMP JUMPDEST PUSH1 0x0 DUP1 PUSH2 0x2A66 DUP4 PUSH2 0x5461 JUMP JUMPDEST SWAP2 POP POP DUP1 ISZERO PUSH2 0x2A79 JUMPI PUSH1 0x1 SWAP2 POP POP PUSH2 0x2A95 JUMP JUMPDEST DUP3 PUSH1 0x16 PUSH1 0x8 ADD SLOAD SUB PUSH2 0x2A8F JUMPI PUSH1 0x1 SWAP2 POP POP PUSH2 0x2A95 JUMP JUMPDEST PUSH1 0x0 SWAP2 POP POP JUMPDEST SWAP2 SWAP1 POP JUMP JUMPDEST PUSH2 0x2AC4 PUSH32 0xA75205B8583660BDAD375C0CCDE11AF17668D76A408A9A5E739251B0F7C59870 CALLER PUSH2 0x30C5 JUMP JUMPDEST PUSH2 0x2B03 JUMPI PUSH1 0x40 MLOAD PUSH32 0x8C379A000000000000000000000000000000000000000000000000000000000 DUP2 MSTORE PUSH1 0x4 ADD PUSH2 0x2AFA SWAP1 PUSH2 0x720C JUMP JUMPDEST PUSH1 0x40 MLOAD DUP1 SWAP2 SUB SWAP1 REVERT JUMPDEST PUSH1 0x16 PUSH1 0x7 ADD SLOAD DUP2 GT PUSH2 0x2B4A JUMPI PUSH1 0x40 MLOAD PUSH32 0x8C379A000000000000000000000000000000000000000000000000000000000 DUP2 MSTORE PUSH1 0x4 ADD PUSH2 0x2B41 SWAP1 PUSH2 0x8108 JUMP JUMPDEST PUSH1 0x40 MLOAD DUP1 SWAP2 SUB SWAP1 REVERT JUMPDEST PUSH1 0x16 PUSH1 0x8 ADD SLOAD DUP2 LT PUSH2 0x2B91 JUMPI PUSH1 0x40 MLOAD PUSH32 0x8C379A000000000000000000000000000000000000000000000000000000000 DUP2 MSTORE PUSH1 0x4 ADD PUSH2 0x2B88 SWAP1 PUSH2 0x819A JUMP JUMPDEST PUSH1 0x40 MLOAD DUP1 SWAP2 SUB SWAP1 REVERT JUMPDEST PUSH1 0x0 DUP1 PUSH2 0x2B9D DUP4 PUSH2 0x5461 JUMP JUMPDEST SWAP2 POP SWAP2 POP DUP1 PUSH2 0x2D63 JUMPI PUSH2 0x2BAF DUP4 PUSH2 0x594A JUMP JUMPDEST PUSH2 0x2BEE JUMPI PUSH1 0x40 MLOAD PUSH32 0x8C379A000000000000000000000000000000000000000000000000000000000 DUP2 MSTORE PUSH1 0x4 ADD PUSH2 0x2BE5 SWAP1 PUSH2 0x822C JUMP JUMPDEST PUSH1 0x40 MLOAD DUP1 SWAP2 SUB SWAP1 REVERT JUMPDEST PUSH1 0x0 PUSH1 0x16 PUSH1 0x9 ADD DUP1 SLOAD SWAP1 POP GT ISZERO PUSH2 0x2D2D JUMPI PUSH1 0x16 PUSH1 0x9 ADD PUSH1 0x16 PUSH1 0x9 ADD PUSH1 0x1 PUSH1 0x16 PUSH1 0x9 ADD DUP1 SLOAD SWAP1 POP PUSH2 0x2C1E SWAP2 SWAP1 PUSH2 0x7578 JUMP JUMPDEST DUP2 SLOAD DUP2 LT PUSH2 0x2C2F JUMPI PUSH2 0x2C2E PUSH2 0x7488 JUMP JUMPDEST JUMPDEST SWAP1 PUSH1 0x0 MSTORE PUSH1 0x20 PUSH1 0x0 KECCAK256 ADD SLOAD SWAP1 DUP1 PUSH1 0x1 DUP2 SLOAD ADD DUP1 DUP3 SSTORE DUP1 SWAP2 POP POP PUSH1 0x1 SWAP1 SUB SWAP1 PUSH1 0x0 MSTORE PUSH1 0x20 PUSH1 0x0 KECCAK256 ADD PUSH1 0x0 SWAP1 SWAP2 SWAP1 SWAP2 SWAP1 SWAP2 POP SSTORE PUSH1 0x3 PUSH1 0x16 PUSH1 0x9 ADD DUP1 SLOAD SWAP1 POP LT PUSH2 0x2D02 JUMPI PUSH1 0x0 PUSH1 0x3 PUSH1 0x16 PUSH1 0x9 ADD DUP1 SLOAD SWAP1 POP PUSH2 0x2C87 SWAP2 SWAP1 PUSH2 0x7578 JUMP JUMPDEST SWAP1 POP JUMPDEST DUP3 DUP2 LT PUSH2 0x2D00 JUMPI PUSH1 0x16 PUSH1 0x9 ADD DUP2 DUP2 SLOAD DUP2 LT PUSH2 0x2CA8 JUMPI PUSH2 0x2CA7 PUSH2 0x7488 JUMP JUMPDEST JUMPDEST SWAP1 PUSH1 0x0 MSTORE PUSH1 0x20 PUSH1 0x0 KECCAK256 ADD SLOAD PUSH1 0x16 PUSH1 0x9 ADD PUSH1 0x1 DUP4 PUSH2 0x2CC5 SWAP2 SWAP1 PUSH2 0x7CEB JUMP JUMPDEST DUP2 SLOAD DUP2 LT PUSH2 0x2CD6 JUMPI PUSH2 0x2CD5 PUSH2 0x7488 JUMP JUMPDEST JUMPDEST SWAP1 PUSH1 0x0 MSTORE PUSH1 0x20 PUSH1 0x0 KECCAK256 ADD DUP2 SWAP1 SSTORE POP PUSH1 0x0 DUP2 SUB ISZERO PUSH2 0x2D00 JUMPI DUP1 DUP1 PUSH2 0x2CF8 SWAP1 PUSH2 0x824C JUMP JUMPDEST SWAP2 POP POP PUSH2 0x2C8A JUMP JUMPDEST POP JUMPDEST DUP3 PUSH1 0x16 PUSH1 0x9 ADD DUP4 DUP2 SLOAD DUP2 LT PUSH2 0x2D1A JUMPI PUSH2 0x2D19 PUSH2 0x7488 JUMP JUMPDEST JUMPDEST SWAP1 PUSH1 0x0 MSTORE PUSH1 0x20 PUSH1 0x0 KECCAK256 ADD DUP2 SWAP1 SSTORE POP PUSH2 0x2D5A JUMP JUMPDEST PUSH1 0x16 PUSH1 0x9 ADD DUP4 SWAP1 DUP1 PUSH1 0x1 DUP2 SLOAD ADD DUP1 DUP3 SSTORE DUP1 SWAP2 POP POP PUSH1 0x1 SWAP1 SUB SWAP1 PUSH1 0x0 MSTORE PUSH1 0x20 PUSH1 0x0 KECCAK256 ADD PUSH1 0x0 SWAP1 SWAP2 SWAP1 SWAP2 SWAP1 SWAP2 POP SSTORE JUMPDEST PUSH2 0x2D62 PUSH2 0x5540 JUMP JUMPDEST JUMPDEST POP POP POP JUMP JUMPDEST PUSH1 0x60 PUSH1 0x0 PUSH1 0x14 DUP1 SLOAD SWAP1 POP PUSH8 0xFFFFFFFFFFFFFFFF DUP2 GT ISZERO PUSH2 0x2D8B JUMPI PUSH2 0x2D8A PUSH2 0x69AB JUMP JUMPDEST JUMPDEST PUSH1 0x40 MLOAD SWAP1 DUP1 DUP3 MSTORE DUP1 PUSH1 0x20 MUL PUSH1 0x20 ADD DUP3 ADD PUSH1 0x40 MSTORE DUP1 ISZERO PUSH2 0x2DB9 JUMPI DUP2 PUSH1 0x20 ADD PUSH1 0x20 DUP3 MUL DUP1 CALLDATASIZE DUP4 CALLDATACOPY DUP1 DUP3 ADD SWAP2 POP POP SWAP1 POP JUMPDEST POP SWAP1 POP PUSH1 0x0 DUP1 JUMPDEST PUSH1 0x14 DUP1 SLOAD SWAP1 POP DUP2 LT ISZERO PUSH2 0x2ECB JUMPI PUSH1 0x0 PUSH2 0x2E17 PUSH1 0x14 DUP4 DUP2 SLOAD DUP2 LT PUSH2 0x2DE6 JUMPI PUSH2 0x2DE5 PUSH2 0x7488 JUMP JUMPDEST JUMPDEST SWAP1 PUSH1 0x0 MSTORE PUSH1 0x20 PUSH1 0x0 KECCAK256 ADD PUSH1 0x0 SWAP1 SLOAD SWAP1 PUSH2 0x100 EXP SWAP1 DIV PUSH20 0xFFFFFFFFFFFFFFFFFFFFFFFFFFFFFFFFFFFFFFFF AND DUP8 PUSH2 0x17C8 JUMP JUMPDEST GT ISZERO PUSH2 0x2EB8 JUMPI PUSH1 0x14 DUP2 DUP2 SLOAD DUP2 LT PUSH2 0x2E31 JUMPI PUSH2 0x2E30 PUSH2 0x7488 JUMP JUMPDEST JUMPDEST SWAP1 PUSH1 0x0 MSTORE PUSH1 0x20 PUSH1 0x0 KECCAK256 ADD PUSH1 0x0 SWAP1 SLOAD SWAP1 PUSH2 0x100 EXP SWAP1 DIV PUSH20 0xFFFFFFFFFFFFFFFFFFFFFFFFFFFFFFFFFFFFFFFF AND DUP4 DUP4 DUP2 MLOAD DUP2 LT PUSH2 0x2E6F JUMPI PUSH2 0x2E6E PUSH2 0x7488 JUMP JUMPDEST JUMPDEST PUSH1 0x20 MUL PUSH1 0x20 ADD ADD SWAP1 PUSH20 0xFFFFFFFFFFFFFFFFFFFFFFFFFFFFFFFFFFFFFFFF AND SWAP1 DUP2 PUSH20 0xFFFFFFFFFFFFFFFFFFFFFFFFFFFFFFFFFFFFFFFF AND DUP2 MSTORE POP POP DUP2 DUP1 PUSH2 0x2EB4 SWAP1 PUSH2 0x801F JUMP JUMPDEST SWAP3 POP POP JUMPDEST DUP1 DUP1 PUSH2 0x2EC3 SWAP1 PUSH2 0x801F JUMP JUMPDEST SWAP2 POP POP PUSH2 0x2DC0 JUMP JUMPDEST POP PUSH1 0x0 DUP2 PUSH8 0xFFFFFFFFFFFFFFFF DUP2 GT ISZERO PUSH2 0x2EE8 JUMPI PUSH2 0x2EE7 PUSH2 0x69AB JUMP JUMPDEST JUMPDEST PUSH1 0x40 MLOAD SWAP1 DUP1 DUP3 MSTORE DUP1 PUSH1 0x20 MUL PUSH1 0x20 ADD DUP3 ADD PUSH1 0x40 MSTORE DUP1 ISZERO PUSH2 0x2F16 JUMPI DUP2 PUSH1 0x20 ADD PUSH1 0x20 DUP3 MUL DUP1 CALLDATASIZE DUP4 CALLDATACOPY DUP1 DUP3 ADD SWAP2 POP POP SWAP1 POP JUMPDEST POP SWAP1 POP PUSH1 0x0 JUMPDEST DUP3 DUP2 LT ISZERO PUSH2 0x2F9F JUMPI DUP4 DUP2 DUP2 MLOAD DUP2 LT PUSH2 0x2F37 JUMPI PUSH2 0x2F36 PUSH2 0x7488 JUMP JUMPDEST JUMPDEST PUSH1 0x20 MUL PUSH1 0x20 ADD ADD MLOAD DUP3 DUP3 DUP2 MLOAD DUP2 LT PUSH2 0x2F52 JUMPI PUSH2 0x2F51 PUSH2 0x7488 JUMP JUMPDEST JUMPDEST PUSH1 0x20 MUL PUSH1 0x20 ADD ADD SWAP1 PUSH20 0xFFFFFFFFFFFFFFFFFFFFFFFFFFFFFFFFFFFFFFFF AND SWAP1 DUP2 PUSH20 0xFFFFFFFFFFFFFFFFFFFFFFFFFFFFFFFFFFFFFFFF AND DUP2 MSTORE POP POP DUP1 DUP1 PUSH2 0x2F97 SWAP1 PUSH2 0x801F JUMP JUMPDEST SWAP2 POP POP PUSH2 0x2F1C JUMP JUMPDEST POP DUP1 SWAP4 POP POP POP POP SWAP2 SWAP1 POP JUMP JUMPDEST PUSH1 0x1 PUSH1 0x14 SWAP1 SLOAD SWAP1 PUSH2 0x100 EXP SWAP1 DIV PUSH1 0xFF AND DUP2 JUMP JUMPDEST PUSH1 0x12 PUSH1 0x20 MSTORE DUP1 PUSH1 0x0 MSTORE PUSH1 0x40 PUSH1 0x0 KECCAK256 PUSH1 0x0 SWAP2 POP SLOAD SWAP1 PUSH2 0x100 EXP SWAP1 DIV PUSH1 0xFF AND DUP2 JUMP JUMPDEST PUSH1 0x0 PUSH1 0x21 PUSH1 0x0 SWAP1 SLOAD SWAP1 PUSH2 0x100 EXP SWAP1 DIV PUSH20 0xFFFFFFFFFFFFFFFFFFFFFFFFFFFFFFFFFFFFFFFF AND SWAP1 POP SWAP1 JUMP JUMPDEST PUSH32 0xA75205B8583660BDAD375C0CCDE11AF17668D76A408A9A5E739251B0F7C59870 DUP2 JUMP JUMPDEST PUSH2 0x3056 PUSH32 0xA75205B8583660BDAD375C0CCDE11AF17668D76A408A9A5E739251B0F7C59870 DUP3 PUSH2 0x3E17 JUMP JUMPDEST POP JUMP JUMPDEST PUSH1 0x0 PUSH1 0x13 PUSH1 0x0 DUP4 PUSH20 0xFFFFFFFFFFFFFFFFFFFFFFFFFFFFFFFFFFFFFFFF AND PUSH20 0xFFFFFFFFFFFFFFFFFFFFFFFFFFFFFFFFFFFFFFFF AND DUP2 MSTORE PUSH1 0x20 ADD SWAP1 DUP2 MSTORE PUSH1 0x20 ADD PUSH1 0x0 KECCAK256 PUSH1 0x2 ADD PUSH1 0x0 SWAP1 SLOAD SWAP1 PUSH2 0x100 EXP SWAP1 DIV PUSH20 0xFFFFFFFFFFFFFFFFFFFFFFFFFFFFFFFFFFFFFFFF AND SWAP1 POP SWAP2 SWAP1 POP JUMP JUMPDEST PUSH1 0x0 DUP1 PUSH1 0x0 DUP5 DUP2 MSTORE PUSH1 0x20 ADD SWAP1 DUP2 MSTORE PUSH1 0x20 ADD PUSH1 0x0 KECCAK256 PUSH1 0x0 ADD PUSH1 0x0 DUP4 PUSH20 0xFFFFFFFFFFFFFFFFFFFFFFFFFFFFFFFFFFFFFFFF AND PUSH20 0xFFFFFFFFFFFFFFFFFFFFFFFFFFFFFFFFFFFFFFFF AND DUP2 MSTORE PUSH1 0x20 ADD SWAP1 DUP2 MSTORE PUSH1 0x20 ADD PUSH1 0x0 KECCAK256 PUSH1 0x0 SWAP1 SLOAD SWAP1 PUSH2 0x100 EXP SWAP1 DIV PUSH1 0xFF AND SWAP1 POP SWAP3 SWAP2 POP POP JUMP JUMPDEST PUSH2 0x3159 PUSH32 0xA75205B8583660BDAD375C0CCDE11AF17668D76A408A9A5E739251B0F7C59870 CALLER PUSH2 0x30C5 JUMP JUMPDEST PUSH2 0x3198 JUMPI PUSH1 0x40 MLOAD PUSH32 0x8C379A000000000000000000000000000000000000000000000000000000000 DUP2 MSTORE PUSH1 0x4 ADD PUSH2 0x318F SWAP1 PUSH2 0x720C JUMP JUMPDEST PUSH1 0x40 MLOAD DUP1 SWAP2 SUB SWAP1 REVERT JUMPDEST DUP1 PUSH1 0x16 PUSH1 0x6 ADD DUP2 SWAP1 SSTORE POP POP JUMP JUMPDEST PUSH1 0x60 PUSH1 0x16 PUSH1 0x1 ADD DUP1 SLOAD PUSH2 0x31B7 SWAP1 PUSH2 0x73EB JUMP JUMPDEST DUP1 PUSH1 0x1F ADD PUSH1 0x20 DUP1 SWAP2 DIV MUL PUSH1 0x20 ADD PUSH1 0x40 MLOAD SWAP1 DUP2 ADD PUSH1 0x40 MSTORE DUP1 SWAP3 SWAP2 SWAP1 DUP2 DUP2 MSTORE PUSH1 0x20 ADD DUP3 DUP1 SLOAD PUSH2 0x31E3 SWAP1 PUSH2 0x73EB JUMP JUMPDEST DUP1 ISZERO PUSH2 0x3230 JUMPI DUP1 PUSH1 0x1F LT PUSH2 0x3205 JUMPI PUSH2 0x100 DUP1 DUP4 SLOAD DIV MUL DUP4 MSTORE SWAP2 PUSH1 0x20 ADD SWAP2 PUSH2 0x3230 JUMP JUMPDEST DUP3 ADD SWAP2 SWAP1 PUSH1 0x0 MSTORE PUSH1 0x20 PUSH1 0x0 KECCAK256 SWAP1 JUMPDEST DUP2 SLOAD DUP2 MSTORE SWAP1 PUSH1 0x1 ADD SWAP1 PUSH1 0x20 ADD DUP1 DUP4 GT PUSH2 0x3213 JUMPI DUP3 SWAP1 SUB PUSH1 0x1F AND DUP3 ADD SWAP2 JUMPDEST POP POP POP POP POP SWAP1 POP SWAP1 JUMP JUMPDEST PUSH1 0x0 DUP1 PUSH1 0x0 PUSH2 0x324A DUP5 PUSH1 0xA PUSH2 0x5855 JUMP JUMPDEST SWAP2 POP SWAP2 POP DUP2 PUSH2 0x3260 JUMPI PUSH2 0x325B PUSH2 0x1A05 JUMP JUMPDEST PUSH2 0x3262 JUMP JUMPDEST DUP1 JUMPDEST SWAP3 POP POP POP SWAP2 SWAP1 POP JUMP JUMPDEST PUSH1 0x0 PUSH1 0xE SLOAD SWAP1 POP SWAP1 JUMP JUMPDEST PUSH2 0x329F PUSH32 0xA75205B8583660BDAD375C0CCDE11AF17668D76A408A9A5E739251B0F7C59870 CALLER PUSH2 0x30C5 JUMP JUMPDEST PUSH2 0x32DE JUMPI PUSH1 0x40 MLOAD PUSH32 0x8C379A000000000000000000000000000000000000000000000000000000000 DUP2 MSTORE PUSH1 0x4 ADD PUSH2 0x32D5 SWAP1 PUSH2 0x720C JUMP JUMPDEST PUSH1 0x40 MLOAD DUP1 SWAP2 SUB SWAP1 REVERT JUMPDEST PUSH1 0x0 PUSH20 0xFFFFFFFFFFFFFFFFFFFFFFFFFFFFFFFFFFFFFFFF AND PUSH1 0x21 PUSH1 0x0 SWAP1 SLOAD SWAP1 PUSH2 0x100 EXP SWAP1 DIV PUSH20 0xFFFFFFFFFFFFFFFFFFFFFFFFFFFFFFFFFFFFFFFF AND PUSH20 0xFFFFFFFFFFFFFFFFFFFFFFFFFFFFFFFFFFFFFFFF AND SUB PUSH2 0x336F JUMPI PUSH1 0x40 MLOAD PUSH32 0x8C379A000000000000000000000000000000000000000000000000000000000 DUP2 MSTORE PUSH1 0x4 ADD PUSH2 0x3366 SWAP1 PUSH2 0x82E7 JUMP JUMPDEST PUSH1 0x40 MLOAD DUP1 SWAP2 SUB SWAP1 REVERT JUMPDEST PUSH2 0x339B PUSH1 0x21 PUSH1 0x0 SWAP1 SLOAD SWAP1 PUSH2 0x100 EXP SWAP1 DIV PUSH20 0xFFFFFFFFFFFFFFFFFFFFFFFFFFFFFFFFFFFFFFFF AND DUP3 PUSH2 0x5960 JUMP JUMPDEST POP JUMP JUMPDEST PUSH1 0x0 PUSH1 0x60 DUP3 EXTCODESIZE PUSH1 0x40 MLOAD SWAP2 POP PUSH1 0x1F NOT PUSH1 0x1F PUSH1 0x20 DUP4 ADD ADD AND DUP3 ADD PUSH1 0x40 MSTORE DUP1 DUP3 MSTORE DUP1 PUSH1 0x0 PUSH1 0x20 DUP5 ADD DUP7 EXTCODECOPY POP DUP1 DUP1 MLOAD SWAP1 PUSH1 0x20 ADD KECCAK256 SWAP2 POP POP SWAP2 SWAP1 POP JUMP JUMPDEST PUSH1 0x0 DUP1 SHL DUP2 JUMP JUMPDEST PUSH2 0x3407 PUSH32 0xA75205B8583660BDAD375C0CCDE11AF17668D76A408A9A5E739251B0F7C59870 DUP3 PUSH2 0x1E3E JUMP JUMPDEST POP JUMP JUMPDEST PUSH1 0x0 PUSH1 0x40 MLOAD PUSH32 0x8C379A000000000000000000000000000000000000000000000000000000000 DUP2 MSTORE PUSH1 0x4 ADD PUSH2 0x343E SWAP1 PUSH2 0x8353 JUMP JUMPDEST PUSH1 0x40 MLOAD DUP1 SWAP2 SUB SWAP1 REVERT JUMPDEST PUSH1 0x0 PUSH2 0x3473 PUSH32 0xF698AF62C65280E4949BCEEC64B760F3B7738217CBC536CDFC4C9463676B05C2 DUP4 PUSH2 0x30C5 JUMP JUMPDEST SWAP1 POP SWAP2 SWAP1 POP JUMP JUMPDEST PUSH1 0x0 PUSH1 0x16 PUSH1 0x4 ADD SLOAD SWAP1 POP SWAP1 JUMP JUMPDEST PUSH1 0x0 PUSH1 0x40 MLOAD PUSH32 0x8C379A000000000000000000000000000000000000000000000000000000000 DUP2 MSTORE PUSH1 0x4 ADD PUSH2 0x34BB SWAP1 PUSH2 0x83BF JUMP JUMPDEST PUSH1 0x40 MLOAD DUP1 SWAP2 SUB SWAP1 REVERT JUMPDEST PUSH1 0x0 DUP1 PUSH2 0x34D0 CALLER PUSH2 0x339E JUMP JUMPDEST SWAP1 POP PUSH1 0x12 PUSH1 0x0 DUP3 DUP2 MSTORE PUSH1 0x20 ADD SWAP1 DUP2 MSTORE PUSH1 0x20 ADD PUSH1 0x0 KECCAK256 PUSH1 0x0 SWAP1 SLOAD SWAP1 PUSH2 0x100 EXP SWAP1 DIV PUSH1 0xFF AND PUSH2 0x3532 JUMPI PUSH1 0x40 MLOAD PUSH32 0x8C379A000000000000000000000000000000000000000000000000000000000 DUP2 MSTORE PUSH1 0x4 ADD PUSH2 0x3529 SWAP1 PUSH2 0x7908 JUMP JUMPDEST PUSH1 0x40 MLOAD DUP1 SWAP2 SUB SWAP1 REVERT JUMPDEST PUSH1 0x1 ISZERO ISZERO PUSH2 0x353F DUP5 PUSH2 0x383C JUMP JUMPDEST ISZERO ISZERO EQ PUSH2 0x3581 JUMPI PUSH1 0x40 MLOAD PUSH32 0x8C379A000000000000000000000000000000000000000000000000000000000 DUP2 MSTORE PUSH1 0x4 ADD PUSH2 0x3578 SWAP1 PUSH2 0x842B JUMP JUMPDEST PUSH1 0x40 MLOAD DUP1 SWAP2 SUB SWAP1 REVERT JUMPDEST PUSH1 0x0 ADDRESS PUSH20 0xFFFFFFFFFFFFFFFFFFFFFFFFFFFFFFFFFFFFFFFF AND PUSH4 0xE5BF6DC8 PUSH1 0x40 MLOAD DUP2 PUSH4 0xFFFFFFFF AND PUSH1 0xE0 SHL DUP2 MSTORE PUSH1 0x4 ADD PUSH1 0x20 PUSH1 0x40 MLOAD DUP1 DUP4 SUB DUP2 DUP7 GAS STATICCALL ISZERO DUP1 ISZERO PUSH2 0x35CE JUMPI RETURNDATASIZE PUSH1 0x0 DUP1 RETURNDATACOPY RETURNDATASIZE PUSH1 0x0 REVERT JUMPDEST POP POP POP POP PUSH1 0x40 MLOAD RETURNDATASIZE PUSH1 0x1F NOT PUSH1 0x1F DUP3 ADD AND DUP3 ADD DUP1 PUSH1 0x40 MSTORE POP DUP2 ADD SWAP1 PUSH2 0x35F2 SWAP2 SWAP1 PUSH2 0x8460 JUMP JUMPDEST SWAP1 POP PUSH1 0x16 PUSH1 0x8 ADD SLOAD DUP2 EQ DUP1 PUSH2 0x3607 JUMPI POP PUSH1 0x0 DUP2 EQ JUMPDEST DUP1 ISZERO PUSH2 0x3680 JUMPI POP ADDRESS PUSH20 0xFFFFFFFFFFFFFFFFFFFFFFFFFFFFFFFFFFFFFFFF AND PUSH4 0x9EF986DE PUSH1 0x40 MLOAD DUP2 PUSH4 0xFFFFFFFF AND PUSH1 0xE0 SHL DUP2 MSTORE PUSH1 0x4 ADD PUSH1 0x20 PUSH1 0x40 MLOAD DUP1 DUP4 SUB DUP2 DUP7 GAS STATICCALL ISZERO DUP1 ISZERO PUSH2 0x3659 JUMPI RETURNDATASIZE PUSH1 0x0 DUP1 RETURNDATACOPY RETURNDATASIZE PUSH1 0x0 REVERT JUMPDEST POP POP POP POP PUSH1 0x40 MLOAD RETURNDATASIZE PUSH1 0x1F NOT PUSH1 0x1F DUP3 ADD AND DUP3 ADD DUP1 PUSH1 0x40 MSTORE POP DUP2 ADD SWAP1 PUSH2 0x367D SWAP2 SWAP1 PUSH2 0x8460 JUMP JUMPDEST TIMESTAMP GT JUMPDEST PUSH2 0x36BF JUMPI PUSH1 0x40 MLOAD PUSH32 0x8C379A000000000000000000000000000000000000000000000000000000000 DUP2 MSTORE PUSH1 0x4 ADD PUSH2 0x36B6 SWAP1 PUSH2 0x8525 JUMP JUMPDEST PUSH1 0x40 MLOAD DUP1 SWAP2 SUB SWAP1 REVERT JUMPDEST PUSH1 0x0 ADDRESS PUSH20 0xFFFFFFFFFFFFFFFFFFFFFFFFFFFFFFFFFFFFFFFF AND PUSH4 0x70A08231 DUP7 PUSH1 0x40 MLOAD DUP3 PUSH4 0xFFFFFFFF AND PUSH1 0xE0 SHL DUP2 MSTORE PUSH1 0x4 ADD PUSH2 0x36FA SWAP2 SWAP1 PUSH2 0x6D06 JUMP JUMPDEST PUSH1 0x20 PUSH1 0x40 MLOAD DUP1 DUP4 SUB DUP2 DUP7 GAS STATICCALL ISZERO DUP1 ISZERO PUSH2 0x3717 JUMPI RETURNDATASIZE PUSH1 0x0 DUP1 RETURNDATACOPY RETURNDATASIZE PUSH1 0x0 REVERT JUMPDEST POP POP POP POP PUSH1 0x40 MLOAD RETURNDATASIZE PUSH1 0x1F NOT PUSH1 0x1F DUP3 ADD AND DUP3 ADD DUP1 PUSH1 0x40 MSTORE POP DUP2 ADD SWAP1 PUSH2 0x373B SWAP2 SWAP1 PUSH2 0x8460 JUMP JUMPDEST SWAP1 POP PUSH1 0x0 DUP2 GT PUSH2 0x3780 JUMPI PUSH1 0x40 MLOAD PUSH32 0x8C379A000000000000000000000000000000000000000000000000000000000 DUP2 MSTORE PUSH1 0x4 ADD PUSH2 0x3777 SWAP1 PUSH2 0x85B7 JUMP JUMPDEST PUSH1 0x40 MLOAD DUP1 SWAP2 SUB SWAP1 REVERT JUMPDEST PUSH2 0x3788 PUSH2 0x5612 JUMP JUMPDEST POP PUSH2 0x379B DUP6 PUSH2 0x3795 PUSH2 0x2FDE JUMP JUMPDEST DUP4 PUSH2 0x4C70 JUMP JUMPDEST PUSH1 0x1 SWAP4 POP POP POP POP SWAP2 SWAP1 POP JUMP JUMPDEST PUSH1 0x21 PUSH1 0x0 SWAP1 SLOAD SWAP1 PUSH2 0x100 EXP SWAP1 DIV PUSH20 0xFFFFFFFFFFFFFFFFFFFFFFFFFFFFFFFFFFFFFFFF AND DUP2 JUMP JUMPDEST PUSH1 0x0 PUSH1 0x16 PUSH1 0x6 ADD SLOAD SWAP1 POP SWAP1 JUMP JUMPDEST PUSH2 0x3804 PUSH32 0xF698AF62C65280E4949BCEEC64B760F3B7738217CBC536CDFC4C9463676B05C2 DUP3 PUSH2 0x3E17 JUMP JUMPDEST POP JUMP JUMPDEST PUSH1 0x0 DUP1 PUSH2 0x3813 CALLER PUSH2 0x339E JUMP JUMPDEST SWAP1 POP PUSH1 0x12 PUSH1 0x0 DUP3 DUP2 MSTORE PUSH1 0x20 ADD SWAP1 DUP2 MSTORE PUSH1 0x20 ADD PUSH1 0x0 KECCAK256 PUSH1 0x0 SWAP1 SLOAD SWAP1 PUSH2 0x100 EXP SWAP1 DIV PUSH1 0xFF AND SWAP2 POP POP SWAP1 JUMP JUMPDEST PUSH1 0x0 PUSH1 0x13 PUSH1 0x0 DUP4 PUSH20 0xFFFFFFFFFFFFFFFFFFFFFFFFFFFFFFFFFFFFFFFF AND PUSH20 0xFFFFFFFFFFFFFFFFFFFFFFFFFFFFFFFFFFFFFFFF AND DUP2 MSTORE PUSH1 0x20 ADD SWAP1 DUP2 MSTORE PUSH1 0x20 ADD PUSH1 0x0 KECCAK256 PUSH1 0x0 ADD PUSH1 0x14 SWAP1 SLOAD SWAP1 PUSH2 0x100 EXP SWAP1 DIV PUSH1 0xFF AND SWAP1 POP SWAP2 SWAP1 POP JUMP JUMPDEST PUSH2 0x38BF PUSH32 0xA75205B8583660BDAD375C0CCDE11AF17668D76A408A9A5E739251B0F7C59870 CALLER PUSH2 0x30C5 JUMP JUMPDEST PUSH2 0x38FE JUMPI PUSH1 0x40 MLOAD PUSH32 0x8C379A000000000000000000000000000000000000000000000000000000000 DUP2 MSTORE PUSH1 0x4 ADD PUSH2 0x38F5 SWAP1 PUSH2 0x720C JUMP JUMPDEST PUSH1 0x40 MLOAD DUP1 SWAP2 SUB SWAP1 REVERT JUMPDEST DUP1 PUSH1 0x16 PUSH1 0x0 ADD SWAP1 DUP2 PUSH2 0x3910 SWAP2 SWAP1 PUSH2 0x77EA JUMP JUMPDEST POP POP JUMP JUMPDEST PUSH2 0x393E PUSH32 0xF698AF62C65280E4949BCEEC64B760F3B7738217CBC536CDFC4C9463676B05C2 DUP3 PUSH2 0x1E3E JUMP JUMPDEST POP JUMP JUMPDEST PUSH1 0x0 DUP1 PUSH1 0xD PUSH1 0x0 DUP5 DUP2 MSTORE PUSH1 0x20 ADD SWAP1 DUP2 MSTORE PUSH1 0x20 ADD PUSH1 0x0 KECCAK256 SLOAD SWAP1 POP PUSH1 0x0 DUP2 GT ISZERO PUSH2 0x3974 JUMPI PUSH2 0x396C DUP2 PUSH2 0x323A JUMP JUMPDEST SWAP2 POP POP PUSH2 0x3980 JUMP JUMPDEST PUSH2 0x397C PUSH2 0x1A05 JUMP JUMPDEST SWAP2 POP POP JUMPDEST SWAP2 SWAP1 POP JUMP JUMPDEST PUSH1 0x60 PUSH1 0x14 DUP1 SLOAD DUP1 PUSH1 0x20 MUL PUSH1 0x20 ADD PUSH1 0x40 MLOAD SWAP1 DUP2 ADD PUSH1 0x40 MSTORE DUP1 SWAP3 SWAP2 SWAP1 DUP2 DUP2 MSTORE PUSH1 0x20 ADD DUP3 DUP1 SLOAD DUP1 ISZERO PUSH2 0x3A09 JUMPI PUSH1 0x20 MUL DUP3 ADD SWAP2 SWAP1 PUSH1 0x0 MSTORE PUSH1 0x20 PUSH1 0x0 KECCAK256 SWAP1 JUMPDEST DUP2 PUSH1 0x0 SWAP1 SLOAD SWAP1 PUSH2 0x100 EXP SWAP1 DIV PUSH20 0xFFFFFFFFFFFFFFFFFFFFFFFFFFFFFFFFFFFFFFFF AND PUSH20 0xFFFFFFFFFFFFFFFFFFFFFFFFFFFFFFFFFFFFFFFF AND DUP2 MSTORE PUSH1 0x20 ADD SWAP1 PUSH1 0x1 ADD SWAP1 DUP1 DUP4 GT PUSH2 0x39BF JUMPI JUMPDEST POP POP POP POP POP SWAP1 POP SWAP1 JUMP JUMPDEST PUSH1 0x0 PUSH20 0xFFFFFFFFFFFFFFFFFFFFFFFFFFFFFFFFFFFFFFFF AND DUP2 PUSH20 0xFFFFFFFFFFFFFFFFFFFFFFFFFFFFFFFFFFFFFFFF AND SUB PUSH2 0x3A82 JUMPI PUSH1 0x40 MLOAD PUSH32 0x8C379A000000000000000000000000000000000000000000000000000000000 DUP2 MSTORE PUSH1 0x4 ADD PUSH2 0x3A79 SWAP1 PUSH2 0x8623 JUMP JUMPDEST PUSH1 0x40 MLOAD DUP1 SWAP2 SUB SWAP1 REVERT JUMPDEST PUSH1 0x0 DUP1 PUSH20 0xFFFFFFFFFFFFFFFFFFFFFFFFFFFFFFFFFFFFFFFF AND PUSH1 0x13 PUSH1 0x0 DUP5 PUSH20 0xFFFFFFFFFFFFFFFFFFFFFFFFFFFFFFFFFFFFFFFF AND PUSH20 0xFFFFFFFFFFFFFFFFFFFFFFFFFFFFFFFFFFFFFFFF AND DUP2 MSTORE PUSH1 0x20 ADD SWAP1 DUP2 MSTORE PUSH1 0x20 ADD PUSH1 0x0 KECCAK256 PUSH1 0x2 ADD PUSH1 0x0 SWAP1 SLOAD SWAP1 PUSH2 0x100 EXP SWAP1 DIV PUSH20 0xFFFFFFFFFFFFFFFFFFFFFFFFFFFFFFFFFFFFFFFF AND PUSH20 0xFFFFFFFFFFFFFFFFFFFFFFFFFFFFFFFFFFFFFFFF AND EQ SWAP1 POP PUSH2 0x3B41 PUSH32 0xA75205B8583660BDAD375C0CCDE11AF17668D76A408A9A5E739251B0F7C59870 CALLER PUSH2 0x30C5 JUMP JUMPDEST ISZERO PUSH2 0x3BE8 JUMPI DUP1 ISZERO PUSH2 0x3B87 JUMPI PUSH1 0x40 MLOAD PUSH32 0x8C379A000000000000000000000000000000000000000000000000000000000 DUP2 MSTORE PUSH1 0x4 ADD PUSH2 0x3B7E SWAP1 PUSH2 0x868F JUMP JUMPDEST PUSH1 0x40 MLOAD DUP1 SWAP2 SUB SWAP1 REVERT JUMPDEST PUSH1 0x1 PUSH1 0x13 PUSH1 0x0 DUP5 PUSH20 0xFFFFFFFFFFFFFFFFFFFFFFFFFFFFFFFFFFFFFFFF AND PUSH20 0xFFFFFFFFFFFFFFFFFFFFFFFFFFFFFFFFFFFFFFFF AND DUP2 MSTORE PUSH1 0x20 ADD SWAP1 DUP2 MSTORE PUSH1 0x20 ADD PUSH1 0x0 KECCAK256 PUSH1 0x0 ADD PUSH1 0x14 PUSH2 0x100 EXP DUP2 SLOAD DUP2 PUSH1 0xFF MUL NOT AND SWAP1 DUP4 ISZERO ISZERO MUL OR SWAP1 SSTORE POP POP PUSH2 0x3C5D JUMP JUMPDEST PUSH2 0x3C12 PUSH32 0x6BA6F588BCDC2DF8426603A466C98AB15E79F7FB7F37B53581CE39C1D01B7249 CALLER PUSH2 0x30C5 JUMP JUMPDEST PUSH2 0x3C51 JUMPI PUSH1 0x40 MLOAD PUSH32 0x8C379A000000000000000000000000000000000000000000000000000000000 DUP2 MSTORE PUSH1 0x4 ADD PUSH2 0x3C48 SWAP1 PUSH2 0x86FB JUMP JUMPDEST PUSH1 0x40 MLOAD DUP1 SWAP2 SUB SWAP1 REVERT JUMPDEST PUSH2 0x3C5B DUP3 CALLER PUSH2 0x5AB7 JUMP JUMPDEST POP JUMPDEST POP JUMP JUMPDEST PUSH2 0x3C8A PUSH32 0xA75205B8583660BDAD375C0CCDE11AF17668D76A408A9A5E739251B0F7C59870 CALLER PUSH2 0x30C5 JUMP JUMPDEST PUSH2 0x3CC9 JUMPI PUSH1 0x40 MLOAD PUSH32 0x8C379A000000000000000000000000000000000000000000000000000000000 DUP2 MSTORE PUSH1 0x4 ADD PUSH2 0x3CC0 SWAP1 PUSH2 0x720C JUMP JUMPDEST PUSH1 0x40 MLOAD DUP1 SWAP2 SUB SWAP1 REVERT JUMPDEST PUSH1 0x1 PUSH1 0x4 DUP2 GT ISZERO PUSH2 0x3CDD JUMPI PUSH2 0x3CDC PUSH2 0x6BD2 JUMP JUMPDEST JUMPDEST PUSH1 0x15 PUSH1 0x0 SWAP1 SLOAD SWAP1 PUSH2 0x100 EXP SWAP1 DIV PUSH1 0xFF AND PUSH1 0x4 DUP2 GT ISZERO PUSH2 0x3CFF JUMPI PUSH2 0x3CFE PUSH2 0x6BD2 JUMP JUMPDEST JUMPDEST EQ PUSH2 0x3D3F JUMPI PUSH1 0x40 MLOAD PUSH32 0x8C379A000000000000000000000000000000000000000000000000000000000 DUP2 MSTORE PUSH1 0x4 ADD PUSH2 0x3D36 SWAP1 PUSH2 0x878D JUMP JUMPDEST PUSH1 0x40 MLOAD DUP1 SWAP2 SUB SWAP1 REVERT JUMPDEST PUSH2 0x3D70 PUSH1 0x21 PUSH1 0x0 SWAP1 SLOAD SWAP1 PUSH2 0x100 EXP SWAP1 DIV PUSH20 0xFFFFFFFFFFFFFFFFFFFFFFFFFFFFFFFFFFFFFFFF AND PUSH1 0x16 PUSH1 0x2 ADD SLOAD PUSH2 0x5686 JUMP JUMPDEST PUSH1 0x0 PUSH1 0x15 PUSH1 0x0 PUSH2 0x100 EXP DUP2 SLOAD DUP2 PUSH1 0xFF MUL NOT AND SWAP1 DUP4 PUSH1 0x4 DUP2 GT ISZERO PUSH2 0x3D96 JUMPI PUSH2 0x3D95 PUSH2 0x6BD2 JUMP JUMPDEST JUMPDEST MUL OR SWAP1 SSTORE POP CALLER PUSH20 0xFFFFFFFFFFFFFFFFFFFFFFFFFFFFFFFFFFFFFFFF AND PUSH32 0xDA2010ACFDA7A262372331CB3B57E3F648F63EB009A423A2B5602CFA4F9BFF51 PUSH1 0x16 PUSH1 0x0 ADD PUSH1 0x16 PUSH1 0x1 ADD PUSH1 0x15 PUSH1 0x0 SWAP1 SLOAD SWAP1 PUSH2 0x100 EXP SWAP1 DIV PUSH1 0xFF AND PUSH1 0x40 MLOAD PUSH2 0x3DFC SWAP4 SWAP3 SWAP2 SWAP1 PUSH2 0x7A3E JUMP JUMPDEST PUSH1 0x40 MLOAD DUP1 SWAP2 SUB SWAP1 LOG2 JUMP JUMPDEST PUSH1 0x0 DUP2 PUSH1 0x16 PUSH1 0x8 ADD SLOAD EQ SWAP1 POP SWAP2 SWAP1 POP JUMP JUMPDEST PUSH1 0x0 DUP1 SHL DUP3 SUB PUSH2 0x3E63 JUMPI PUSH1 0x0 PUSH2 0x3E62 JUMPI PUSH1 0x40 MLOAD PUSH32 0x8C379A000000000000000000000000000000000000000000000000000000000 DUP2 MSTORE PUSH1 0x4 ADD PUSH2 0x3E59 SWAP1 PUSH2 0x7BCD JUMP JUMPDEST PUSH1 0x40 MLOAD DUP1 SWAP2 SUB SWAP1 REVERT JUMPDEST JUMPDEST PUSH32 0xA75205B8583660BDAD375C0CCDE11AF17668D76A408A9A5E739251B0F7C59870 DUP3 SUB PUSH2 0x3EDB JUMPI PUSH2 0x3E97 PUSH1 0x0 DUP1 SHL CALLER PUSH2 0x30C5 JUMP JUMPDEST PUSH2 0x3ED6 JUMPI PUSH1 0x40 MLOAD PUSH32 0x8C379A000000000000000000000000000000000000000000000000000000000 DUP2 MSTORE PUSH1 0x4 ADD PUSH2 0x3ECD SWAP1 PUSH2 0x881F JUMP JUMPDEST PUSH1 0x40 MLOAD DUP1 SWAP2 SUB SWAP1 REVERT JUMPDEST PUSH2 0x3F45 JUMP JUMPDEST PUSH2 0x3F05 PUSH32 0xA75205B8583660BDAD375C0CCDE11AF17668D76A408A9A5E739251B0F7C59870 CALLER PUSH2 0x30C5 JUMP JUMPDEST PUSH2 0x3F44 JUMPI PUSH1 0x40 MLOAD PUSH32 0x8C379A000000000000000000000000000000000000000000000000000000000 DUP2 MSTORE PUSH1 0x4 ADD PUSH2 0x3F3B SWAP1 PUSH2 0x88B1 JUMP JUMPDEST PUSH1 0x40 MLOAD DUP1 SWAP2 SUB SWAP1 REVERT JUMPDEST JUMPDEST PUSH2 0x3F4F DUP3 DUP3 PUSH2 0x4B6D JUMP JUMPDEST POP POP JUMP JUMPDEST PUSH2 0x3F7D PUSH32 0xA75205B8583660BDAD375C0CCDE11AF17668D76A408A9A5E739251B0F7C59870 CALLER PUSH2 0x30C5 JUMP JUMPDEST PUSH2 0x3FBC JUMPI PUSH1 0x40 MLOAD PUSH32 0x8C379A000000000000000000000000000000000000000000000000000000000 DUP2 MSTORE PUSH1 0x4 ADD PUSH2 0x3FB3 SWAP1 PUSH2 0x720C JUMP JUMPDEST PUSH1 0x40 MLOAD DUP1 SWAP2 SUB SWAP1 REVERT JUMPDEST PUSH1 0x0 PUSH1 0x4 DUP2 GT ISZERO PUSH2 0x3FD0 JUMPI PUSH2 0x3FCF PUSH2 0x6BD2 JUMP JUMPDEST JUMPDEST PUSH1 0x15 PUSH1 0x0 SWAP1 SLOAD SWAP1 PUSH2 0x100 EXP SWAP1 DIV PUSH1 0xFF AND PUSH1 0x4 DUP2 GT ISZERO PUSH2 0x3FF2 JUMPI PUSH2 0x3FF1 PUSH2 0x6BD2 JUMP JUMPDEST JUMPDEST EQ PUSH2 0x4032 JUMPI PUSH1 0x40 MLOAD PUSH32 0x8C379A000000000000000000000000000000000000000000000000000000000 DUP2 MSTORE PUSH1 0x4 ADD PUSH2 0x4029 SWAP1 PUSH2 0x8943 JUMP JUMPDEST PUSH1 0x40 MLOAD DUP1 SWAP2 SUB SWAP1 REVERT JUMPDEST DUP1 PUSH1 0x16 PUSH1 0x2 ADD DUP2 SWAP1 SSTORE POP POP JUMP JUMPDEST PUSH1 0x0 PUSH20 0xFFFFFFFFFFFFFFFFFFFFFFFFFFFFFFFFFFFFFFFF AND DUP2 PUSH20 0xFFFFFFFFFFFFFFFFFFFFFFFFFFFFFFFFFFFFFFFF AND SUB PUSH2 0x40AE JUMPI PUSH1 0x40 MLOAD PUSH32 0x8C379A000000000000000000000000000000000000000000000000000000000 DUP2 MSTORE PUSH1 0x4 ADD PUSH2 0x40A5 SWAP1 PUSH2 0x8623 JUMP JUMPDEST PUSH1 0x40 MLOAD DUP1 SWAP2 SUB SWAP1 REVERT JUMPDEST PUSH2 0x40D8 PUSH32 0xA75205B8583660BDAD375C0CCDE11AF17668D76A408A9A5E739251B0F7C59870 CALLER PUSH2 0x30C5 JUMP JUMPDEST ISZERO PUSH2 0x420E JUMPI PUSH1 0x0 PUSH20 0xFFFFFFFFFFFFFFFFFFFFFFFFFFFFFFFFFFFFFFFF AND PUSH1 0x13 PUSH1 0x0 DUP4 PUSH20 0xFFFFFFFFFFFFFFFFFFFFFFFFFFFFFFFFFFFFFFFF AND PUSH20 0xFFFFFFFFFFFFFFFFFFFFFFFFFFFFFFFFFFFFFFFF AND DUP2 MSTORE PUSH1 0x20 ADD SWAP1 DUP2 MSTORE PUSH1 0x20 ADD PUSH1 0x0 KECCAK256 PUSH1 0x2 ADD PUSH1 0x0 SWAP1 SLOAD SWAP1 PUSH2 0x100 EXP SWAP1 DIV PUSH20 0xFFFFFFFFFFFFFFFFFFFFFFFFFFFFFFFFFFFFFFFF AND PUSH20 0xFFFFFFFFFFFFFFFFFFFFFFFFFFFFFFFFFFFFFFFF AND SUB PUSH2 0x41AE JUMPI PUSH1 0x40 MLOAD PUSH32 0x8C379A000000000000000000000000000000000000000000000000000000000 DUP2 MSTORE PUSH1 0x4 ADD PUSH2 0x41A5 SWAP1 PUSH2 0x868F JUMP JUMPDEST PUSH1 0x40 MLOAD DUP1 SWAP2 SUB SWAP1 REVERT JUMPDEST PUSH1 0x0 PUSH1 0x13 PUSH1 0x0 DUP4 PUSH20 0xFFFFFFFFFFFFFFFFFFFFFFFFFFFFFFFFFFFFFFFF AND PUSH20 0xFFFFFFFFFFFFFFFFFFFFFFFFFFFFFFFFFFFFFFFF AND DUP2 MSTORE PUSH1 0x20 ADD SWAP1 DUP2 MSTORE PUSH1 0x20 ADD PUSH1 0x0 KECCAK256 PUSH1 0x0 ADD PUSH1 0x14 PUSH2 0x100 EXP DUP2 SLOAD DUP2 PUSH1 0xFF MUL NOT AND SWAP1 DUP4 ISZERO ISZERO MUL OR SWAP1 SSTORE POP PUSH2 0x43DA JUMP JUMPDEST PUSH2 0x4238 PUSH32 0x6BA6F588BCDC2DF8426603A466C98AB15E79F7FB7F37B53581CE39C1D01B7249 CALLER PUSH2 0x30C5 JUMP JUMPDEST PUSH2 0x4277 JUMPI PUSH1 0x40 MLOAD PUSH32 0x8C379A000000000000000000000000000000000000000000000000000000000 DUP2 MSTORE PUSH1 0x4 ADD PUSH2 0x426E SWAP1 PUSH2 0x86FB JUMP JUMPDEST PUSH1 0x40 MLOAD DUP1 SWAP2 SUB SWAP1 REVERT JUMPDEST CALLER PUSH20 0xFFFFFFFFFFFFFFFFFFFFFFFFFFFFFFFFFFFFFFFF AND PUSH1 0x13 PUSH1 0x0 DUP4 PUSH20 0xFFFFFFFFFFFFFFFFFFFFFFFFFFFFFFFFFFFFFFFF AND PUSH20 0xFFFFFFFFFFFFFFFFFFFFFFFFFFFFFFFFFFFFFFFF AND DUP2 MSTORE PUSH1 0x20 ADD SWAP1 DUP2 MSTORE PUSH1 0x20 ADD PUSH1 0x0 KECCAK256 PUSH1 0x2 ADD PUSH1 0x0 SWAP1 SLOAD SWAP1 PUSH2 0x100 EXP SWAP1 DIV PUSH20 0xFFFFFFFFFFFFFFFFFFFFFFFFFFFFFFFFFFFFFFFF AND PUSH20 0xFFFFFFFFFFFFFFFFFFFFFFFFFFFFFFFFFFFFFFFF AND EQ PUSH2 0x4347 JUMPI PUSH1 0x40 MLOAD PUSH32 0x8C379A000000000000000000000000000000000000000000000000000000000 DUP2 MSTORE PUSH1 0x4 ADD PUSH2 0x433E SWAP1 PUSH2 0x89D5 JUMP JUMPDEST PUSH1 0x40 MLOAD DUP1 SWAP2 SUB SWAP1 REVERT JUMPDEST PUSH1 0x0 PUSH1 0x13 PUSH1 0x0 DUP4 PUSH20 0xFFFFFFFFFFFFFFFFFFFFFFFFFFFFFFFFFFFFFFFF AND PUSH20 0xFFFFFFFFFFFFFFFFFFFFFFFFFFFFFFFFFFFFFFFF AND DUP2 MSTORE PUSH1 0x20 ADD SWAP1 DUP2 MSTORE PUSH1 0x20 ADD PUSH1 0x0 KECCAK256 PUSH1 0x0 ADD PUSH1 0x14 PUSH2 0x100 EXP DUP2 SLOAD DUP2 PUSH1 0xFF MUL NOT AND SWAP1 DUP4 ISZERO ISZERO MUL OR SWAP1 SSTORE POP PUSH32 0xFEAE65559F65B7C3F804001AC3371FBB83CF05E8344BC2B66588084BFE9250A8 DUP2 PUSH1 0x40 MLOAD PUSH2 0x43D1 SWAP2 SWAP1 PUSH2 0x6D06 JUMP JUMPDEST PUSH1 0x40 MLOAD DUP1 SWAP2 SUB SWAP1 LOG1 JUMPDEST POP JUMP JUMPDEST PUSH2 0x43E5 PUSH2 0x5CD9 JUMP JUMPDEST PUSH2 0x4424 JUMPI PUSH1 0x40 MLOAD PUSH32 0x8C379A000000000000000000000000000000000000000000000000000000000 DUP2 MSTORE PUSH1 0x4 ADD PUSH2 0x441B SWAP1 PUSH2 0x720C JUMP JUMPDEST PUSH1 0x40 MLOAD DUP1 SWAP2 SUB SWAP1 REVERT JUMPDEST PUSH1 0x1 PUSH1 0x12 PUSH1 0x0 DUP4 DUP2 MSTORE PUSH1 0x20 ADD SWAP1 DUP2 MSTORE PUSH1 0x20 ADD PUSH1 0x0 KECCAK256 PUSH1 0x0 PUSH2 0x100 EXP DUP2 SLOAD DUP2 PUSH1 0xFF MUL NOT AND SWAP1 DUP4 ISZERO ISZERO MUL OR SWAP1 SSTORE POP PUSH32 0xBAF2F827DE189827A9B5EA8781DBBFFCAD675A367DCCAAD8B9ADA866795598D7 DUP2 PUSH1 0x40 MLOAD PUSH2 0x447F SWAP2 SWAP1 PUSH2 0x6BB7 JUMP JUMPDEST PUSH1 0x40 MLOAD DUP1 SWAP2 SUB SWAP1 LOG1 POP JUMP JUMPDEST PUSH2 0x4492 PUSH2 0x5CD9 JUMP JUMPDEST PUSH2 0x44D1 JUMPI PUSH1 0x40 MLOAD PUSH32 0x8C379A000000000000000000000000000000000000000000000000000000000 DUP2 MSTORE PUSH1 0x4 ADD PUSH2 0x44C8 SWAP1 PUSH2 0x720C JUMP JUMPDEST PUSH1 0x40 MLOAD DUP1 SWAP2 SUB SWAP1 REVERT JUMPDEST PUSH1 0x0 PUSH1 0x12 PUSH1 0x0 DUP4 DUP2 MSTORE PUSH1 0x20 ADD SWAP1 DUP2 MSTORE PUSH1 0x20 ADD PUSH1 0x0 KECCAK256 PUSH1 0x0 PUSH2 0x100 EXP DUP2 SLOAD DUP2 PUSH1 0xFF MUL NOT AND SWAP1 DUP4 ISZERO ISZERO MUL OR SWAP1 SSTORE POP PUSH32 0x2876B9BD97A638025F28A0D50CB5F3CD9E5C0B85624FB7EE15267149452C2D74 DUP2 PUSH1 0x40 MLOAD PUSH2 0x452C SWAP2 SWAP1 PUSH2 0x6BB7 JUMP JUMPDEST PUSH1 0x40 MLOAD DUP1 SWAP2 SUB SWAP1 LOG1 POP JUMP JUMPDEST PUSH2 0x4561 PUSH32 0xA75205B8583660BDAD375C0CCDE11AF17668D76A408A9A5E739251B0F7C59870 CALLER PUSH2 0x30C5 JUMP JUMPDEST PUSH2 0x45A0 JUMPI PUSH1 0x40 MLOAD PUSH32 0x8C379A000000000000000000000000000000000000000000000000000000000 DUP2 MSTORE PUSH1 0x4 ADD PUSH2 0x4597 SWAP1 PUSH2 0x720C JUMP JUMPDEST PUSH1 0x40 MLOAD DUP1 SWAP2 SUB SWAP1 REVERT JUMPDEST DUP1 PUSH1 0x16 PUSH1 0x7 ADD DUP2 SWAP1 SSTORE POP POP JUMP JUMPDEST PUSH2 0x45D7 PUSH32 0xA75205B8583660BDAD375C0CCDE11AF17668D76A408A9A5E739251B0F7C59870 CALLER PUSH2 0x30C5 JUMP JUMPDEST DUP1 PUSH2 0x4608 JUMPI POP PUSH2 0x4607 PUSH32 0xF698AF62C65280E4949BCEEC64B760F3B7738217CBC536CDFC4C9463676B05C2 CALLER PUSH2 0x30C5 JUMP JUMPDEST JUMPDEST DUP1 PUSH2 0x4639 JUMPI POP PUSH2 0x4638 PUSH32 0x6BA6F588BCDC2DF8426603A466C98AB15E79F7FB7F37B53581CE39C1D01B7249 CALLER PUSH2 0x30C5 JUMP JUMPDEST JUMPDEST DUP1 PUSH2 0x466A JUMPI POP PUSH2 0x4669 PUSH32 0xD7AA2DDFA4E381128202BF365B7E0A176F2FCA6CDF2F23C2B0A6F43937695890 CALLER PUSH2 0x30C5 JUMP JUMPDEST JUMPDEST PUSH2 0x46A9 JUMPI PUSH1 0x40 MLOAD PUSH32 0x8C379A000000000000000000000000000000000000000000000000000000000 DUP2 MSTORE PUSH1 0x4 ADD PUSH2 0x46A0 SWAP1 PUSH2 0x8A67 JUMP JUMPDEST PUSH1 0x40 MLOAD DUP1 SWAP2 SUB SWAP1 REVERT JUMPDEST DUP2 PUSH20 0xFFFFFFFFFFFFFFFFFFFFFFFFFFFFFFFFFFFFFFFF AND CALLER PUSH20 0xFFFFFFFFFFFFFFFFFFFFFFFFFFFFFFFFFFFFFFFF AND PUSH32 0xA923DF1773651806246E73E1E43342C4845D608AD54E2606D3C1A50124D66E71 DUP4 PUSH1 0x40 MLOAD PUSH2 0x4706 SWAP2 SWAP1 PUSH2 0x68DF JUMP JUMPDEST PUSH1 0x40 MLOAD DUP1 SWAP2 SUB SWAP1 LOG3 POP POP JUMP JUMPDEST PUSH2 0x473C PUSH32 0xA75205B8583660BDAD375C0CCDE11AF17668D76A408A9A5E739251B0F7C59870 CALLER PUSH2 0x30C5 JUMP JUMPDEST PUSH2 0x477B JUMPI PUSH1 0x40 MLOAD PUSH32 0x8C379A000000000000000000000000000000000000000000000000000000000 DUP2 MSTORE PUSH1 0x4 ADD PUSH2 0x4772 SWAP1 PUSH2 0x720C JUMP JUMPDEST PUSH1 0x40 MLOAD DUP1 SWAP2 SUB SWAP1 REVERT JUMPDEST PUSH1 0x0 PUSH1 0x4 DUP2 GT ISZERO PUSH2 0x478F JUMPI PUSH2 0x478E PUSH2 0x6BD2 JUMP JUMPDEST JUMPDEST PUSH1 0x15 PUSH1 0x0 SWAP1 SLOAD SWAP1 PUSH2 0x100 EXP SWAP1 DIV PUSH1 0xFF AND PUSH1 0x4 DUP2 GT ISZERO PUSH2 0x47B1 JUMPI PUSH2 0x47B0 PUSH2 0x6BD2 JUMP JUMPDEST JUMPDEST EQ PUSH2 0x47F1 JUMPI PUSH1 0x40 MLOAD PUSH32 0x8C379A000000000000000000000000000000000000000000000000000000000 DUP2 MSTORE PUSH1 0x4 ADD PUSH2 0x47E8 SWAP1 PUSH2 0x8AF9 JUMP JUMPDEST PUSH1 0x40 MLOAD DUP1 SWAP2 SUB SWAP1 REVERT JUMPDEST PUSH1 0x0 PUSH1 0x16 PUSH1 0x2 ADD SLOAD GT PUSH2 0x4839 JUMPI PUSH1 0x40 MLOAD PUSH32 0x8C379A000000000000000000000000000000000000000000000000000000000 DUP2 MSTORE PUSH1 0x4 ADD PUSH2 0x4830 SWAP1 PUSH2 0x8B65 JUMP JUMPDEST PUSH1 0x40 MLOAD DUP1 SWAP2 SUB SWAP1 REVERT JUMPDEST PUSH1 0x0 PUSH20 0xFFFFFFFFFFFFFFFFFFFFFFFFFFFFFFFFFFFFFFFF AND PUSH1 0x21 PUSH1 0x0 SWAP1 SLOAD SWAP1 PUSH2 0x100 EXP SWAP1 DIV PUSH20 0xFFFFFFFFFFFFFFFFFFFFFFFFFFFFFFFFFFFFFFFF AND PUSH20 0xFFFFFFFFFFFFFFFFFFFFFFFFFFFFFFFFFFFFFFFF AND SUB PUSH2 0x48CA JUMPI PUSH1 0x40 MLOAD PUSH32 0x8C379A000000000000000000000000000000000000000000000000000000000 DUP2 MSTORE PUSH1 0x4 ADD PUSH2 0x48C1 SWAP1 PUSH2 0x82E7 JUMP JUMPDEST PUSH1 0x40 MLOAD DUP1 SWAP2 SUB SWAP1 REVERT JUMPDEST PUSH2 0x48FB PUSH1 0x21 PUSH1 0x0 SWAP1 SLOAD SWAP1 PUSH2 0x100 EXP SWAP1 DIV PUSH20 0xFFFFFFFFFFFFFFFFFFFFFFFFFFFFFFFFFFFFFFFF AND PUSH1 0x16 PUSH1 0x2 ADD SLOAD PUSH2 0x5960 JUMP JUMPDEST PUSH1 0x1 PUSH1 0x15 PUSH1 0x0 PUSH2 0x100 EXP DUP2 SLOAD DUP2 PUSH1 0xFF MUL NOT AND SWAP1 DUP4 PUSH1 0x4 DUP2 GT ISZERO PUSH2 0x4921 JUMPI PUSH2 0x4920 PUSH2 0x6BD2 JUMP JUMPDEST JUMPDEST MUL OR SWAP1 SSTORE POP CALLER PUSH20 0xFFFFFFFFFFFFFFFFFFFFFFFFFFFFFFFFFFFFFFFF AND PUSH32 0xDA2010ACFDA7A262372331CB3B57E3F648F63EB009A423A2B5602CFA4F9BFF51 PUSH1 0x16 PUSH1 0x0 ADD PUSH1 0x16 PUSH1 0x1 ADD PUSH1 0x15 PUSH1 0x0 SWAP1 SLOAD SWAP1 PUSH2 0x100 EXP SWAP1 DIV PUSH1 0xFF AND PUSH1 0x40 MLOAD PUSH2 0x4987 SWAP4 SWAP3 SWAP2 SWAP1 PUSH2 0x7A3E JUMP JUMPDEST PUSH1 0x40 MLOAD DUP1 SWAP2 SUB SWAP1 LOG2 JUMP JUMPDEST PUSH1 0x0 PUSH1 0x5 PUSH1 0x0 DUP5 PUSH20 0xFFFFFFFFFFFFFFFFFFFFFFFFFFFFFFFFFFFFFFFF AND PUSH20 0xFFFFFFFFFFFFFFFFFFFFFFFFFFFFFFFFFFFFFFFF AND DUP2 MSTORE PUSH1 0x20 ADD SWAP1 DUP2 MSTORE PUSH1 0x20 ADD PUSH1 0x0 KECCAK256 PUSH1 0x0 DUP4 PUSH20 0xFFFFFFFFFFFFFFFFFFFFFFFFFFFFFFFFFFFFFFFF AND PUSH20 0xFFFFFFFFFFFFFFFFFFFFFFFFFFFFFFFFFFFFFFFF AND DUP2 MSTORE PUSH1 0x20 ADD SWAP1 DUP2 MSTORE PUSH1 0x20 ADD PUSH1 0x0 KECCAK256 SLOAD SWAP1 POP SWAP3 SWAP2 POP POP JUMP JUMPDEST PUSH1 0x2 PUSH1 0x0 SWAP1 SLOAD SWAP1 PUSH2 0x100 EXP SWAP1 DIV PUSH20 0xFFFFFFFFFFFFFFFFFFFFFFFFFFFFFFFFFFFFFFFF AND DUP2 JUMP JUMPDEST PUSH1 0x0 PUSH2 0x4A6A PUSH32 0xD7AA2DDFA4E381128202BF365B7E0A176F2FCA6CDF2F23C2B0A6F43937695890 DUP4 PUSH2 0x30C5 JUMP JUMPDEST SWAP1 POP SWAP2 SWAP1 POP JUMP JUMPDEST PUSH1 0x0 PUSH1 0x10 SLOAD SWAP1 POP SWAP1 JUMP JUMPDEST PUSH1 0x0 PUSH1 0xF SLOAD SWAP1 POP SWAP1 JUMP JUMPDEST PUSH2 0x4AAF PUSH32 0xD7AA2DDFA4E381128202BF365B7E0A176F2FCA6CDF2F23C2B0A6F43937695890 DUP3 PUSH2 0x3E17 JUMP JUMPDEST POP JUMP JUMPDEST PUSH2 0x4ADC PUSH32 0x6BA6F588BCDC2DF8426603A466C98AB15E79F7FB7F37B53581CE39C1D01B7249 DUP3 PUSH2 0x1E3E JUMP JUMPDEST POP JUMP JUMPDEST PUSH1 0x1 DUP2 PUSH1 0x0 ADD PUSH1 0x0 DUP3 DUP3 SLOAD ADD SWAP3 POP POP DUP2 SWAP1 SSTORE POP POP JUMP JUMPDEST PUSH1 0x0 DUP2 PUSH1 0x0 ADD SLOAD SWAP1 POP SWAP2 SWAP1 POP JUMP JUMPDEST PUSH1 0x0 PUSH32 0x1FFC9A700000000000000000000000000000000000000000000000000000000 PUSH28 0xFFFFFFFFFFFFFFFFFFFFFFFFFFFFFFFFFFFFFFFFFFFFFFFFFFFFFFFF NOT AND DUP3 PUSH28 0xFFFFFFFFFFFFFFFFFFFFFFFFFFFFFFFFFFFFFFFFFFFFFFFFFFFFFFFF NOT AND EQ SWAP1 POP SWAP2 SWAP1 POP JUMP JUMPDEST PUSH2 0x4B77 DUP3 DUP3 PUSH2 0x30C5 JUMP JUMPDEST ISZERO PUSH2 0x4C4A JUMPI PUSH1 0x0 DUP1 PUSH1 0x0 DUP5 DUP2 MSTORE PUSH1 0x20 ADD SWAP1 DUP2 MSTORE PUSH1 0x20 ADD PUSH1 0x0 KECCAK256 PUSH1 0x0 ADD PUSH1 0x0 DUP4 PUSH20 0xFFFFFFFFFFFFFFFFFFFFFFFFFFFFFFFFFFFFFFFF AND PUSH20 0xFFFFFFFFFFFFFFFFFFFFFFFFFFFFFFFFFFFFFFFF AND DUP2 MSTORE PUSH1 0x20 ADD SWAP1 DUP2 MSTORE PUSH1 0x20 ADD PUSH1 0x0 KECCAK256 PUSH1 0x0 PUSH2 0x100 EXP DUP2 SLOAD DUP2 PUSH1 0xFF MUL NOT AND SWAP1 DUP4 ISZERO ISZERO MUL OR SWAP1 SSTORE POP PUSH2 0x4BEF PUSH2 0x5459 JUMP JUMPDEST PUSH20 0xFFFFFFFFFFFFFFFFFFFFFFFFFFFFFFFFFFFFFFFF AND DUP2 PUSH20 0xFFFFFFFFFFFFFFFFFFFFFFFFFFFFFFFFFFFFFFFF AND DUP4 PUSH32 0xF6391F5C32D9C69D2A47EA670B442974B53935D1EDC7FD64EB21E047A839171B PUSH1 0x40 MLOAD PUSH1 0x40 MLOAD DUP1 SWAP2 SUB SWAP1 LOG4 JUMPDEST POP POP JUMP JUMPDEST PUSH2 0x4C58 DUP3 DUP3 PUSH2 0x50FF JUMP JUMPDEST POP POP JUMP JUMPDEST PUSH2 0x4C6D DUP2 PUSH2 0x4C68 PUSH2 0x5459 JUMP JUMPDEST PUSH2 0x5D0A JUMP JUMPDEST POP JUMP JUMPDEST PUSH1 0x0 PUSH20 0xFFFFFFFFFFFFFFFFFFFFFFFFFFFFFFFFFFFFFFFF AND DUP4 PUSH20 0xFFFFFFFFFFFFFFFFFFFFFFFFFFFFFFFFFFFFFFFF AND SUB PUSH2 0x4CDF JUMPI PUSH1 0x40 MLOAD PUSH32 0x8C379A000000000000000000000000000000000000000000000000000000000 DUP2 MSTORE PUSH1 0x4 ADD PUSH2 0x4CD6 SWAP1 PUSH2 0x8BF7 JUMP JUMPDEST PUSH1 0x40 MLOAD DUP1 SWAP2 SUB SWAP1 REVERT JUMPDEST PUSH1 0x0 PUSH20 0xFFFFFFFFFFFFFFFFFFFFFFFFFFFFFFFFFFFFFFFF AND DUP3 PUSH20 0xFFFFFFFFFFFFFFFFFFFFFFFFFFFFFFFFFFFFFFFF AND SUB PUSH2 0x4D4E JUMPI PUSH1 0x40 MLOAD PUSH32 0x8C379A000000000000000000000000000000000000000000000000000000000 DUP2 MSTORE PUSH1 0x4 ADD PUSH2 0x4D45 SWAP1 PUSH2 0x8C89 JUMP JUMPDEST PUSH1 0x40 MLOAD DUP1 SWAP2 SUB SWAP1 REVERT JUMPDEST PUSH2 0x4D59 DUP4 DUP4 DUP4 PUSH2 0x5D8F JUMP JUMPDEST PUSH1 0x0 PUSH1 0x4 PUSH1 0x0 DUP6 PUSH20 0xFFFFFFFFFFFFFFFFFFFFFFFFFFFFFFFFFFFFFFFF AND PUSH20 0xFFFFFFFFFFFFFFFFFFFFFFFFFFFFFFFFFFFFFFFF AND DUP2 MSTORE PUSH1 0x20 ADD SWAP1 DUP2 MSTORE PUSH1 0x20 ADD PUSH1 0x0 KECCAK256 SLOAD SWAP1 POP DUP2 DUP2 LT ISZERO PUSH2 0x4DE0 JUMPI PUSH1 0x40 MLOAD PUSH32 0x8C379A000000000000000000000000000000000000000000000000000000000 DUP2 MSTORE PUSH1 0x4 ADD PUSH2 0x4DD7 SWAP1 PUSH2 0x8D1B JUMP JUMPDEST PUSH1 0x40 MLOAD DUP1 SWAP2 SUB SWAP1 REVERT JUMPDEST DUP2 DUP2 SUB PUSH1 0x4 PUSH1 0x0 DUP7 PUSH20 0xFFFFFFFFFFFFFFFFFFFFFFFFFFFFFFFFFFFFFFFF AND PUSH20 0xFFFFFFFFFFFFFFFFFFFFFFFFFFFFFFFFFFFFFFFF AND DUP2 MSTORE PUSH1 0x20 ADD SWAP1 DUP2 MSTORE PUSH1 0x20 ADD PUSH1 0x0 KECCAK256 DUP2 SWAP1 SSTORE POP DUP2 PUSH1 0x4 PUSH1 0x0 DUP6 PUSH20 0xFFFFFFFFFFFFFFFFFFFFFFFFFFFFFFFFFFFFFFFF AND PUSH20 0xFFFFFFFFFFFFFFFFFFFFFFFFFFFFFFFFFFFFFFFF AND DUP2 MSTORE PUSH1 0x20 ADD SWAP1 DUP2 MSTORE PUSH1 0x20 ADD PUSH1 0x0 KECCAK256 PUSH1 0x0 DUP3 DUP3 SLOAD ADD SWAP3 POP POP DUP2 SWAP1 SSTORE POP DUP3 PUSH20 0xFFFFFFFFFFFFFFFFFFFFFFFFFFFFFFFFFFFFFFFF AND DUP5 PUSH20 0xFFFFFFFFFFFFFFFFFFFFFFFFFFFFFFFFFFFFFFFF AND PUSH32 0xDDF252AD1BE2C89B69C2B068FC378DAA952BA7F163C4A11628F55A4DF523B3EF DUP5 PUSH1 0x40 MLOAD PUSH2 0x4ED0 SWAP2 SWAP1 PUSH2 0x6986 JUMP JUMPDEST PUSH1 0x40 MLOAD DUP1 SWAP2 SUB SWAP1 LOG3 PUSH2 0x4EE3 DUP5 DUP5 DUP5 PUSH2 0x5E15 JUMP JUMPDEST POP POP POP POP JUMP JUMPDEST PUSH1 0x0 PUSH1 0x14 DUP1 SLOAD SWAP1 POP SWAP1 POP PUSH1 0x14 DUP5 SWAP1 DUP1 PUSH1 0x1 DUP2 SLOAD ADD DUP1 DUP3 SSTORE DUP1 SWAP2 POP POP PUSH1 0x1 SWAP1 SUB SWAP1 PUSH1 0x0 MSTORE PUSH1 0x20 PUSH1 0x0 KECCAK256 ADD PUSH1 0x0 SWAP1 SWAP2 SWAP1 SWAP2 SWAP1 SWAP2 PUSH2 0x100 EXP DUP2 SLOAD DUP2 PUSH20 0xFFFFFFFFFFFFFFFFFFFFFFFFFFFFFFFFFFFFFFFF MUL NOT AND SWAP1 DUP4 PUSH20 0xFFFFFFFFFFFFFFFFFFFFFFFFFFFFFFFFFFFFFFFF AND MUL OR SWAP1 SSTORE POP DUP1 PUSH1 0x13 PUSH1 0x0 DUP7 PUSH20 0xFFFFFFFFFFFFFFFFFFFFFFFFFFFFFFFFFFFFFFFF AND PUSH20 0xFFFFFFFFFFFFFFFFFFFFFFFFFFFFFFFFFFFFFFFF AND DUP2 MSTORE PUSH1 0x20 ADD SWAP1 DUP2 MSTORE PUSH1 0x20 ADD PUSH1 0x0 KECCAK256 PUSH1 0x1 ADD DUP2 SWAP1 SSTORE POP DUP4 PUSH1 0x13 PUSH1 0x0 DUP7 PUSH20 0xFFFFFFFFFFFFFFFFFFFFFFFFFFFFFFFFFFFFFFFF AND PUSH20 0xFFFFFFFFFFFFFFFFFFFFFFFFFFFFFFFFFFFFFFFF AND DUP2 MSTORE PUSH1 0x20 ADD SWAP1 DUP2 MSTORE PUSH1 0x20 ADD PUSH1 0x0 KECCAK256 PUSH1 0x0 ADD PUSH1 0x0 PUSH2 0x100 EXP DUP2 SLOAD DUP2 PUSH20 0xFFFFFFFFFFFFFFFFFFFFFFFFFFFFFFFFFFFFFFFF MUL NOT AND SWAP1 DUP4 PUSH20 0xFFFFFFFFFFFFFFFFFFFFFFFFFFFFFFFFFFFFFFFF AND MUL OR SWAP1 SSTORE POP DUP3 PUSH1 0x13 PUSH1 0x0 DUP7 PUSH20 0xFFFFFFFFFFFFFFFFFFFFFFFFFFFFFFFFFFFFFFFF AND PUSH20 0xFFFFFFFFFFFFFFFFFFFFFFFFFFFFFFFFFFFFFFFF AND DUP2 MSTORE PUSH1 0x20 ADD SWAP1 DUP2 MSTORE PUSH1 0x20 ADD PUSH1 0x0 KECCAK256 PUSH1 0x2 ADD PUSH1 0x0 PUSH2 0x100 EXP DUP2 SLOAD DUP2 PUSH20 0xFFFFFFFFFFFFFFFFFFFFFFFFFFFFFFFFFFFFFFFF MUL NOT AND SWAP1 DUP4 PUSH20 0xFFFFFFFFFFFFFFFFFFFFFFFFFFFFFFFFFFFFFFFF AND MUL OR SWAP1 SSTORE POP DUP2 PUSH1 0x13 PUSH1 0x0 DUP7 PUSH20 0xFFFFFFFFFFFFFFFFFFFFFFFFFFFFFFFFFFFFFFFF AND PUSH20 0xFFFFFFFFFFFFFFFFFFFFFFFFFFFFFFFFFFFFFFFF AND DUP2 MSTORE PUSH1 0x20 ADD SWAP1 DUP2 MSTORE PUSH1 0x20 ADD PUSH1 0x0 KECCAK256 PUSH1 0x0 ADD PUSH1 0x14 PUSH2 0x100 EXP DUP2 SLOAD DUP2 PUSH1 0xFF MUL NOT AND SWAP1 DUP4 ISZERO ISZERO MUL OR SWAP1 SSTORE POP POP POP POP POP JUMP JUMPDEST PUSH2 0x5109 DUP3 DUP3 PUSH2 0x30C5 JUMP JUMPDEST PUSH2 0x51DB JUMPI PUSH1 0x1 PUSH1 0x0 DUP1 DUP5 DUP2 MSTORE PUSH1 0x20 ADD SWAP1 DUP2 MSTORE PUSH1 0x20 ADD PUSH1 0x0 KECCAK256 PUSH1 0x0 ADD PUSH1 0x0 DUP4 PUSH20 0xFFFFFFFFFFFFFFFFFFFFFFFFFFFFFFFFFFFFFFFF AND PUSH20 0xFFFFFFFFFFFFFFFFFFFFFFFFFFFFFFFFFFFFFFFF AND DUP2 MSTORE PUSH1 0x20 ADD SWAP1 DUP2 MSTORE PUSH1 0x20 ADD PUSH1 0x0 KECCAK256 PUSH1 0x0 PUSH2 0x100 EXP DUP2 SLOAD DUP2 PUSH1 0xFF MUL NOT AND SWAP1 DUP4 ISZERO ISZERO MUL OR SWAP1 SSTORE POP PUSH2 0x5180 PUSH2 0x5459 JUMP JUMPDEST PUSH20 0xFFFFFFFFFFFFFFFFFFFFFFFFFFFFFFFFFFFFFFFF AND DUP2 PUSH20 0xFFFFFFFFFFFFFFFFFFFFFFFFFFFFFFFFFFFFFFFF AND DUP4 PUSH32 0x2F8788117E7EFF1D82E926EC794901D17C78024A50270940304540A733656F0D PUSH1 0x40 MLOAD PUSH1 0x40 MLOAD DUP1 SWAP2 SUB SWAP1 LOG4 JUMPDEST POP POP JUMP JUMPDEST PUSH1 0x0 DUP1 PUSH1 0x0 SWAP1 POP JUMPDEST PUSH1 0x16 PUSH1 0x9 ADD DUP1 SLOAD SWAP1 POP DUP2 LT ISZERO PUSH2 0x5292 JUMPI DUP3 PUSH1 0x16 PUSH1 0x9 ADD DUP3 DUP2 SLOAD DUP2 LT PUSH2 0x520F JUMPI PUSH2 0x520E PUSH2 0x7488 JUMP JUMPDEST JUMPDEST SWAP1 PUSH1 0x0 MSTORE PUSH1 0x20 PUSH1 0x0 KECCAK256 ADD SLOAD SUB PUSH2 0x527F JUMPI PUSH1 0x16 PUSH1 0x9 ADD DUP1 SLOAD SWAP1 POP PUSH1 0x1 DUP3 PUSH2 0x5235 SWAP2 SWAP1 PUSH2 0x7CEB JUMP JUMPDEST LT ISZERO PUSH2 0x5271 JUMPI PUSH1 0x16 PUSH1 0x9 ADD PUSH1 0x1 DUP3 PUSH2 0x524D SWAP2 SWAP1 PUSH2 0x7CEB JUMP JUMPDEST DUP2 SLOAD DUP2 LT PUSH2 0x525E JUMPI PUSH2 0x525D PUSH2 0x7488 JUMP JUMPDEST JUMPDEST SWAP1 PUSH1 0x0 MSTORE PUSH1 0x20 PUSH1 0x0 KECCAK256 ADD SLOAD SWAP2 POP POP PUSH2 0x5298 JUMP JUMPDEST PUSH1 0x16 PUSH1 0x8 ADD SLOAD SWAP2 POP POP PUSH2 0x5298 JUMP JUMPDEST DUP1 DUP1 PUSH2 0x528A SWAP1 PUSH2 0x801F JUMP JUMPDEST SWAP2 POP POP PUSH2 0x51E7 JUMP JUMPDEST POP PUSH1 0x0 SWAP1 POP JUMPDEST SWAP2 SWAP1 POP JUMP JUMPDEST PUSH1 0x0 PUSH2 0x52AA DUP4 PUSH1 0x0 PUSH2 0x5E1A JUMP JUMPDEST SWAP1 POP DUP4 DUP2 GT ISZERO PUSH2 0x52EF JUMPI PUSH1 0x40 MLOAD PUSH32 0x8C379A000000000000000000000000000000000000000000000000000000000 DUP2 MSTORE PUSH1 0x4 ADD PUSH2 0x52E6 SWAP1 PUSH2 0x8DAD JUMP JUMPDEST PUSH1 0x40 MLOAD DUP1 SWAP2 SUB SWAP1 REVERT JUMPDEST PUSH1 0x0 DUP3 EQ DUP1 PUSH2 0x52FD JUMPI POP DUP4 DUP3 GT JUMPDEST PUSH2 0x533C JUMPI PUSH1 0x40 MLOAD PUSH32 0x8C379A000000000000000000000000000000000000000000000000000000000 DUP2 MSTORE PUSH1 0x4 ADD PUSH2 0x5333 SWAP1 PUSH2 0x8E3F JUMP JUMPDEST PUSH1 0x40 MLOAD DUP1 SWAP2 SUB SWAP1 REVERT JUMPDEST PUSH1 0x0 PUSH2 0x5349 DUP6 PUSH1 0x0 PUSH2 0x5E1A JUMP JUMPDEST SWAP1 POP PUSH1 0x0 DUP4 SWAP1 POP PUSH1 0x0 DUP2 GT ISZERO PUSH2 0x5366 JUMPI PUSH2 0x5363 DUP2 DUP7 PUSH2 0x5E1A JUMP JUMPDEST SWAP1 POP JUMPDEST PUSH1 0x0 PUSH1 0xD PUSH1 0x0 DUP5 DUP2 MSTORE PUSH1 0x20 ADD SWAP1 DUP2 MSTORE PUSH1 0x20 ADD PUSH1 0x0 KECCAK256 SLOAD EQ PUSH2 0x53BC JUMPI PUSH1 0x40 MLOAD PUSH32 0x8C379A000000000000000000000000000000000000000000000000000000000 DUP2 MSTORE PUSH1 0x4 ADD PUSH2 0x53B3 SWAP1 PUSH2 0x8ED1 JUMP JUMPDEST PUSH1 0x40 MLOAD DUP1 SWAP2 SUB SWAP1 REVERT JUMPDEST DUP5 TIMESTAMP LT PUSH2 0x53FE JUMPI PUSH1 0x40 MLOAD PUSH32 0x8C379A000000000000000000000000000000000000000000000000000000000 DUP2 MSTORE PUSH1 0x4 ADD PUSH2 0x53F5 SWAP1 PUSH2 0x8F63 JUMP JUMPDEST PUSH1 0x40 MLOAD DUP1 SWAP2 SUB SWAP1 REVERT JUMPDEST PUSH2 0x5406 PUSH2 0x5E62 JUMP JUMPDEST POP DUP5 PUSH1 0xE DUP2 SWAP1 SSTORE POP DUP2 PUSH1 0x10 DUP2 SWAP1 SSTORE POP DUP1 PUSH1 0xF DUP2 SWAP1 SSTORE POP PUSH1 0xF SLOAD PUSH1 0xE SLOAD PUSH1 0x10 SLOAD PUSH32 0x4D1D74D5CBFC13E02EF05AF3A30D8721E87A00D20BC3DC42198917139944DEF3 PUSH1 0x40 MLOAD PUSH1 0x40 MLOAD DUP1 SWAP2 SUB SWAP1 LOG4 POP POP POP POP POP POP JUMP JUMPDEST PUSH1 0x0 CALLER SWAP1 POP SWAP1 JUMP JUMPDEST PUSH1 0x0 DUP1 PUSH1 0x0 JUMPDEST PUSH1 0x16 PUSH1 0x9 ADD DUP1 SLOAD SWAP1 POP DUP2 LT ISZERO PUSH2 0x54F5 JUMPI DUP4 PUSH1 0x16 PUSH1 0x9 ADD DUP3 DUP2 SLOAD DUP2 LT PUSH2 0x548F JUMPI PUSH2 0x548E PUSH2 0x7488 JUMP JUMPDEST JUMPDEST SWAP1 PUSH1 0x0 MSTORE PUSH1 0x20 PUSH1 0x0 KECCAK256 ADD SLOAD SUB PUSH2 0x54AC JUMPI DUP1 PUSH1 0x1 SWAP3 POP SWAP3 POP POP PUSH2 0x5506 JUMP JUMPDEST DUP4 PUSH1 0x16 PUSH1 0x9 ADD DUP3 DUP2 SLOAD DUP2 LT PUSH2 0x54C4 JUMPI PUSH2 0x54C3 PUSH2 0x7488 JUMP JUMPDEST JUMPDEST SWAP1 PUSH1 0x0 MSTORE PUSH1 0x20 PUSH1 0x0 KECCAK256 ADD SLOAD GT ISZERO PUSH2 0x54E2 JUMPI DUP1 PUSH1 0x0 SWAP3 POP SWAP3 POP POP PUSH2 0x5506 JUMP JUMPDEST DUP1 DUP1 PUSH2 0x54ED SWAP1 PUSH2 0x801F JUMP JUMPDEST SWAP2 POP POP PUSH2 0x5467 JUMP JUMPDEST POP PUSH1 0x16 PUSH1 0x9 ADD DUP1 SLOAD SWAP1 POP PUSH1 0x0 SWAP2 POP SWAP2 POP JUMPDEST SWAP2 POP SWAP2 JUMP JUMPDEST PUSH1 0x0 PUSH2 0x5518 TIMESTAMP PUSH1 0x0 PUSH2 0x5E1A JUMP JUMPDEST DUP3 GT DUP1 ISZERO PUSH2 0x5539 JUMPI POP PUSH1 0x0 PUSH1 0xD PUSH1 0x0 DUP5 DUP2 MSTORE PUSH1 0x20 ADD SWAP1 DUP2 MSTORE PUSH1 0x20 ADD PUSH1 0x0 KECCAK256 SLOAD EQ JUMPDEST SWAP1 POP SWAP2 SWAP1 POP JUMP JUMPDEST PUSH1 0x0 PUSH2 0x554B TIMESTAMP PUSH2 0x5461 JUMP JUMPDEST POP SWAP1 POP PUSH1 0x0 DUP1 PUSH1 0x16 PUSH1 0x9 ADD DUP1 SLOAD SWAP1 POP DUP4 LT ISZERO PUSH2 0x55E4 JUMPI PUSH1 0x16 PUSH1 0x9 ADD DUP4 DUP2 SLOAD DUP2 LT PUSH2 0x5578 JUMPI PUSH2 0x5577 PUSH2 0x7488 JUMP JUMPDEST JUMPDEST SWAP1 PUSH1 0x0 MSTORE PUSH1 0x20 PUSH1 0x0 KECCAK256 ADD SLOAD SWAP2 POP PUSH1 0x16 PUSH1 0x9 ADD DUP1 SLOAD SWAP1 POP PUSH1 0x1 DUP5 PUSH2 0x559B SWAP2 SWAP1 PUSH2 0x7CEB JUMP JUMPDEST LT ISZERO PUSH2 0x55D6 JUMPI PUSH1 0x16 PUSH1 0x9 ADD PUSH1 0x1 DUP5 PUSH2 0x55B3 SWAP2 SWAP1 PUSH2 0x7CEB JUMP JUMPDEST DUP2 SLOAD DUP2 LT PUSH2 0x55C4 JUMPI PUSH2 0x55C3 PUSH2 0x7488 JUMP JUMPDEST JUMPDEST SWAP1 PUSH1 0x0 MSTORE PUSH1 0x20 PUSH1 0x0 KECCAK256 ADD SLOAD SWAP1 POP PUSH2 0x55DF JUMP JUMPDEST PUSH1 0x16 PUSH1 0x8 ADD SLOAD SWAP1 POP JUMPDEST PUSH2 0x55F1 JUMP JUMPDEST PUSH1 0x16 PUSH1 0x8 ADD SLOAD SWAP2 POP PUSH1 0x0 SWAP1 POP JUMPDEST PUSH2 0x560C DUP3 PUSH1 0x16 PUSH1 0xA ADD SLOAD DUP5 PUSH2 0x5606 SWAP2 SWAP1 PUSH2 0x7CEB JUMP JUMPDEST DUP4 PUSH2 0x5F42 JUMP JUMPDEST POP POP POP POP JUMP JUMPDEST PUSH1 0x0 PUSH1 0x11 PUSH1 0x0 SWAP1 SLOAD SWAP1 PUSH2 0x100 EXP SWAP1 DIV PUSH1 0xFF AND ISZERO PUSH2 0x5664 JUMPI PUSH1 0x40 MLOAD PUSH32 0x8C379A000000000000000000000000000000000000000000000000000000000 DUP2 MSTORE PUSH1 0x4 ADD PUSH2 0x565B SWAP1 PUSH2 0x8FF5 JUMP JUMPDEST PUSH1 0x40 MLOAD DUP1 SWAP2 SUB SWAP1 REVERT JUMPDEST PUSH1 0x1 PUSH1 0x11 PUSH1 0x0 PUSH2 0x100 EXP DUP2 SLOAD DUP2 PUSH1 0xFF MUL NOT AND SWAP1 DUP4 ISZERO ISZERO MUL OR SWAP1 SSTORE POP PUSH1 0x1 SWAP1 POP SWAP1 JUMP JUMPDEST PUSH1 0x0 PUSH20 0xFFFFFFFFFFFFFFFFFFFFFFFFFFFFFFFFFFFFFFFF AND DUP3 PUSH20 0xFFFFFFFFFFFFFFFFFFFFFFFFFFFFFFFFFFFFFFFF AND SUB PUSH2 0x56F5 JUMPI PUSH1 0x40 MLOAD PUSH32 0x8C379A000000000000000000000000000000000000000000000000000000000 DUP2 MSTORE PUSH1 0x4 ADD PUSH2 0x56EC SWAP1 PUSH2 0x9087 JUMP JUMPDEST PUSH1 0x40 MLOAD DUP1 SWAP2 SUB SWAP1 REVERT JUMPDEST PUSH2 0x5701 DUP3 PUSH1 0x0 DUP4 PUSH2 0x5D8F JUMP JUMPDEST PUSH1 0x0 PUSH1 0x4 PUSH1 0x0 DUP5 PUSH20 0xFFFFFFFFFFFFFFFFFFFFFFFFFFFFFFFFFFFFFFFF AND PUSH20 0xFFFFFFFFFFFFFFFFFFFFFFFFFFFFFFFFFFFFFFFF AND DUP2 MSTORE PUSH1 0x20 ADD SWAP1 DUP2 MSTORE PUSH1 0x20 ADD PUSH1 0x0 KECCAK256 SLOAD SWAP1 POP DUP2 DUP2 LT ISZERO PUSH2 0x5788 JUMPI PUSH1 0x40 MLOAD PUSH32 0x8C379A000000000000000000000000000000000000000000000000000000000 DUP2 MSTORE PUSH1 0x4 ADD PUSH2 0x577F SWAP1 PUSH2 0x9119 JUMP JUMPDEST PUSH1 0x40 MLOAD DUP1 SWAP2 SUB SWAP1 REVERT JUMPDEST DUP2 DUP2 SUB PUSH1 0x4 PUSH1 0x0 DUP6 PUSH20 0xFFFFFFFFFFFFFFFFFFFFFFFFFFFFFFFFFFFFFFFF AND PUSH20 0xFFFFFFFFFFFFFFFFFFFFFFFFFFFFFFFFFFFFFFFF AND DUP2 MSTORE PUSH1 0x20 ADD SWAP1 DUP2 MSTORE PUSH1 0x20 ADD PUSH1 0x0 KECCAK256 DUP2 SWAP1 SSTORE POP DUP2 PUSH1 0x6 PUSH1 0x0 DUP3 DUP3 SLOAD SUB SWAP3 POP POP DUP2 SWAP1 SSTORE POP PUSH1 0x0 PUSH20 0xFFFFFFFFFFFFFFFFFFFFFFFFFFFFFFFFFFFFFFFF AND DUP4 PUSH20 0xFFFFFFFFFFFFFFFFFFFFFFFFFFFFFFFFFFFFFFFF AND PUSH32 0xDDF252AD1BE2C89B69C2B068FC378DAA952BA7F163C4A11628F55A4DF523B3EF DUP5 PUSH1 0x40 MLOAD PUSH2 0x583C SWAP2 SWAP1 PUSH2 0x6986 JUMP JUMPDEST PUSH1 0x40 MLOAD DUP1 SWAP2 SUB SWAP1 LOG3 PUSH2 0x5850 DUP4 PUSH1 0x0 DUP5 PUSH2 0x5E15 JUMP JUMPDEST POP POP POP JUMP JUMPDEST PUSH1 0x0 DUP1 PUSH1 0x0 DUP5 GT PUSH2 0x589B JUMPI PUSH1 0x40 MLOAD PUSH32 0x8C379A000000000000000000000000000000000000000000000000000000000 DUP2 MSTORE PUSH1 0x4 ADD PUSH2 0x5892 SWAP1 PUSH2 0x9185 JUMP JUMPDEST PUSH1 0x40 MLOAD DUP1 SWAP2 SUB SWAP1 REVERT JUMPDEST PUSH2 0x58A3 PUSH2 0x5F8C JUMP JUMPDEST DUP5 GT ISZERO PUSH2 0x58E5 JUMPI PUSH1 0x40 MLOAD PUSH32 0x8C379A000000000000000000000000000000000000000000000000000000000 DUP2 MSTORE PUSH1 0x4 ADD PUSH2 0x58DC SWAP1 PUSH2 0x91F1 JUMP JUMPDEST PUSH1 0x40 MLOAD DUP1 SWAP2 SUB SWAP1 REVERT JUMPDEST PUSH1 0x0 PUSH2 0x58FD DUP6 DUP6 PUSH1 0x0 ADD PUSH2 0x5F9D SWAP1 SWAP2 SWAP1 PUSH4 0xFFFFFFFF AND JUMP JUMPDEST SWAP1 POP DUP4 PUSH1 0x0 ADD DUP1 SLOAD SWAP1 POP DUP2 SUB PUSH2 0x591A JUMPI PUSH1 0x0 DUP1 SWAP3 POP SWAP3 POP POP PUSH2 0x5943 JUMP JUMPDEST PUSH1 0x1 DUP5 PUSH1 0x1 ADD DUP3 DUP2 SLOAD DUP2 LT PUSH2 0x5932 JUMPI PUSH2 0x5931 PUSH2 0x7488 JUMP JUMPDEST JUMPDEST SWAP1 PUSH1 0x0 MSTORE PUSH1 0x20 PUSH1 0x0 KECCAK256 ADD SLOAD SWAP3 POP SWAP3 POP POP JUMPDEST SWAP3 POP SWAP3 SWAP1 POP JUMP JUMPDEST PUSH1 0x0 PUSH2 0x5957 TIMESTAMP PUSH1 0x0 PUSH2 0x5E1A JUMP JUMPDEST DUP3 GT SWAP1 POP SWAP2 SWAP1 POP JUMP JUMPDEST PUSH1 0x0 PUSH20 0xFFFFFFFFFFFFFFFFFFFFFFFFFFFFFFFFFFFFFFFF AND DUP3 PUSH20 0xFFFFFFFFFFFFFFFFFFFFFFFFFFFFFFFFFFFFFFFF AND SUB PUSH2 0x59CF JUMPI PUSH1 0x40 MLOAD PUSH32 0x8C379A000000000000000000000000000000000000000000000000000000000 DUP2 MSTORE PUSH1 0x4 ADD PUSH2 0x59C6 SWAP1 PUSH2 0x925D JUMP JUMPDEST PUSH1 0x40 MLOAD DUP1 SWAP2 SUB SWAP1 REVERT JUMPDEST PUSH2 0x59DB PUSH1 0x0 DUP4 DUP4 PUSH2 0x5D8F JUMP JUMPDEST DUP1 PUSH1 0x6 PUSH1 0x0 DUP3 DUP3 SLOAD PUSH2 0x59ED SWAP2 SWAP1 PUSH2 0x7CEB JUMP JUMPDEST SWAP3 POP POP DUP2 SWAP1 SSTORE POP DUP1 PUSH1 0x4 PUSH1 0x0 DUP5 PUSH20 0xFFFFFFFFFFFFFFFFFFFFFFFFFFFFFFFFFFFFFFFF AND PUSH20 0xFFFFFFFFFFFFFFFFFFFFFFFFFFFFFFFFFFFFFFFF AND DUP2 MSTORE PUSH1 0x20 ADD SWAP1 DUP2 MSTORE PUSH1 0x20 ADD PUSH1 0x0 KECCAK256 PUSH1 0x0 DUP3 DUP3 SLOAD ADD SWAP3 POP POP DUP2 SWAP1 SSTORE POP DUP2 PUSH20 0xFFFFFFFFFFFFFFFFFFFFFFFFFFFFFFFFFFFFFFFF AND PUSH1 0x0 PUSH20 0xFFFFFFFFFFFFFFFFFFFFFFFFFFFFFFFFFFFFFFFF AND PUSH32 0xDDF252AD1BE2C89B69C2B068FC378DAA952BA7F163C4A11628F55A4DF523B3EF DUP4 PUSH1 0x40 MLOAD PUSH2 0x5A9F SWAP2 SWAP1 PUSH2 0x6986 JUMP JUMPDEST PUSH1 0x40 MLOAD DUP1 SWAP2 SUB SWAP1 LOG3 PUSH2 0x5AB3 PUSH1 0x0 DUP4 DUP4 PUSH2 0x5E15 JUMP JUMPDEST POP POP JUMP JUMPDEST PUSH2 0x5AC0 DUP3 PUSH2 0x383C JUMP JUMPDEST PUSH2 0x5CD5 JUMPI PUSH1 0x0 DUP1 PUSH20 0xFFFFFFFFFFFFFFFFFFFFFFFFFFFFFFFFFFFFFFFF AND PUSH1 0x13 PUSH1 0x0 DUP6 PUSH20 0xFFFFFFFFFFFFFFFFFFFFFFFFFFFFFFFFFFFFFFFF AND PUSH20 0xFFFFFFFFFFFFFFFFFFFFFFFFFFFFFFFFFFFFFFFF AND DUP2 MSTORE PUSH1 0x20 ADD SWAP1 DUP2 MSTORE PUSH1 0x20 ADD PUSH1 0x0 KECCAK256 PUSH1 0x2 ADD PUSH1 0x0 SWAP1 SLOAD SWAP1 PUSH2 0x100 EXP SWAP1 DIV PUSH20 0xFFFFFFFFFFFFFFFFFFFFFFFFFFFFFFFFFFFFFFFF AND PUSH20 0xFFFFFFFFFFFFFFFFFFFFFFFFFFFFFFFFFFFFFFFF AND EQ SWAP1 POP DUP1 ISZERO PUSH2 0x5B70 JUMPI PUSH2 0x5B6B DUP4 DUP4 PUSH1 0x1 PUSH2 0x4EE9 JUMP JUMPDEST PUSH2 0x5C9C JUMP JUMPDEST DUP2 PUSH20 0xFFFFFFFFFFFFFFFFFFFFFFFFFFFFFFFFFFFFFFFF AND PUSH1 0x13 PUSH1 0x0 DUP6 PUSH20 0xFFFFFFFFFFFFFFFFFFFFFFFFFFFFFFFFFFFFFFFF AND PUSH20 0xFFFFFFFFFFFFFFFFFFFFFFFFFFFFFFFFFFFFFFFF AND DUP2 MSTORE PUSH1 0x20 ADD SWAP1 DUP2 MSTORE PUSH1 0x20 ADD PUSH1 0x0 KECCAK256 PUSH1 0x2 ADD PUSH1 0x0 SWAP1 SLOAD SWAP1 PUSH2 0x100 EXP SWAP1 DIV PUSH20 0xFFFFFFFFFFFFFFFFFFFFFFFFFFFFFFFFFFFFFFFF AND PUSH20 0xFFFFFFFFFFFFFFFFFFFFFFFFFFFFFFFFFFFFFFFF AND EQ PUSH2 0x5C40 JUMPI PUSH1 0x40 MLOAD PUSH32 0x8C379A000000000000000000000000000000000000000000000000000000000 DUP2 MSTORE PUSH1 0x4 ADD PUSH2 0x5C37 SWAP1 PUSH2 0x89D5 JUMP JUMPDEST PUSH1 0x40 MLOAD DUP1 SWAP2 SUB SWAP1 REVERT JUMPDEST PUSH1 0x1 PUSH1 0x13 PUSH1 0x0 DUP6 PUSH20 0xFFFFFFFFFFFFFFFFFFFFFFFFFFFFFFFFFFFFFFFF AND PUSH20 0xFFFFFFFFFFFFFFFFFFFFFFFFFFFFFFFFFFFFFFFF AND DUP2 MSTORE PUSH1 0x20 ADD SWAP1 DUP2 MSTORE PUSH1 0x20 ADD PUSH1 0x0 KECCAK256 PUSH1 0x0 ADD PUSH1 0x14 PUSH2 0x100 EXP DUP2 SLOAD DUP2 PUSH1 0xFF MUL NOT AND SWAP1 DUP4 ISZERO ISZERO MUL OR SWAP1 SSTORE POP JUMPDEST PUSH32 0xF96A35A7272AECCA4E6AC04B9ECBC33E3C2655F1FA104A4604D8F50370E6BEB3 DUP4 PUSH1 0x40 MLOAD PUSH2 0x5CCB SWAP2 SWAP1 PUSH2 0x6D06 JUMP JUMPDEST PUSH1 0x40 MLOAD DUP1 SWAP2 SUB SWAP1 LOG1 POP JUMPDEST POP POP JUMP JUMPDEST PUSH1 0x0 PUSH2 0x5D05 PUSH32 0xA75205B8583660BDAD375C0CCDE11AF17668D76A408A9A5E739251B0F7C59870 CALLER PUSH2 0x30C5 JUMP JUMPDEST SWAP1 POP SWAP1 JUMP JUMPDEST PUSH2 0x5D14 DUP3 DUP3 PUSH2 0x30C5 JUMP JUMPDEST PUSH2 0x5D8B JUMPI PUSH2 0x5D21 DUP2 PUSH2 0x6056 JUMP JUMPDEST PUSH2 0x5D2F DUP4 PUSH1 0x0 SHR PUSH1 0x20 PUSH2 0x6083 JUMP JUMPDEST PUSH1 0x40 MLOAD PUSH1 0x20 ADD PUSH2 0x5D40 SWAP3 SWAP2 SWAP1 PUSH2 0x9351 JUMP JUMPDEST PUSH1 0x40 MLOAD PUSH1 0x20 DUP2 DUP4 SUB SUB DUP2 MSTORE SWAP1 PUSH1 0x40 MSTORE PUSH1 0x40 MLOAD PUSH32 0x8C379A000000000000000000000000000000000000000000000000000000000 DUP2 MSTORE PUSH1 0x4 ADD PUSH2 0x5D82 SWAP2 SWAP1 PUSH2 0x68DF JUMP JUMPDEST PUSH1 0x40 MLOAD DUP1 SWAP2 SUB SWAP1 REVERT JUMPDEST POP POP JUMP JUMPDEST PUSH1 0x3 PUSH1 0x4 DUP2 GT ISZERO PUSH2 0x5DA3 JUMPI PUSH2 0x5DA2 PUSH2 0x6BD2 JUMP JUMPDEST JUMPDEST PUSH1 0x15 PUSH1 0x0 SWAP1 SLOAD SWAP1 PUSH2 0x100 EXP SWAP1 DIV PUSH1 0xFF AND PUSH1 0x4 DUP2 GT ISZERO PUSH2 0x5DC5 JUMPI PUSH2 0x5DC4 PUSH2 0x6BD2 JUMP JUMPDEST JUMPDEST SUB PUSH2 0x5E05 JUMPI PUSH1 0x40 MLOAD PUSH32 0x8C379A000000000000000000000000000000000000000000000000000000000 DUP2 MSTORE PUSH1 0x4 ADD PUSH2 0x5DFC SWAP1 PUSH2 0x93D7 JUMP JUMPDEST PUSH1 0x40 MLOAD DUP1 SWAP2 SUB SWAP1 REVERT JUMPDEST PUSH2 0x5E10 DUP4 DUP4 DUP4 PUSH2 0x62BF JUMP JUMPDEST POP POP POP JUMP JUMPDEST POP POP POP JUMP JUMPDEST PUSH1 0x0 DUP1 PUSH3 0x15180 DUP5 PUSH2 0x5E2C SWAP2 SWAP1 PUSH2 0x9426 JUMP JUMPDEST SWAP1 POP DUP1 DUP5 PUSH2 0x5E3A SWAP2 SWAP1 PUSH2 0x7578 JUMP JUMPDEST SWAP2 POP PUSH3 0x15180 DUP4 PUSH2 0x5E4B SWAP2 SWAP1 PUSH2 0x9426 JUMP JUMPDEST SWAP1 POP DUP1 DUP3 PUSH2 0x5E59 SWAP2 SWAP1 PUSH2 0x7CEB JUMP JUMPDEST SWAP2 POP POP SWAP3 SWAP2 POP POP JUMP JUMPDEST PUSH1 0x0 DUP1 PUSH1 0xE SLOAD GT DUP1 ISZERO PUSH2 0x5E8A JUMPI POP PUSH1 0x0 PUSH1 0xD PUSH1 0x0 PUSH1 0x10 SLOAD DUP2 MSTORE PUSH1 0x20 ADD SWAP1 DUP2 MSTORE PUSH1 0x20 ADD PUSH1 0x0 KECCAK256 SLOAD EQ JUMPDEST DUP1 ISZERO PUSH2 0x5E98 JUMPI POP PUSH1 0xE SLOAD TIMESTAMP LT ISZERO JUMPDEST ISZERO PUSH2 0x5F3A JUMPI PUSH1 0x0 PUSH2 0x5EA7 PUSH2 0x63A2 JUMP JUMPDEST SWAP1 POP DUP1 PUSH1 0xD PUSH1 0x0 PUSH1 0x10 SLOAD DUP2 MSTORE PUSH1 0x20 ADD SWAP1 DUP2 MSTORE PUSH1 0x20 ADD PUSH1 0x0 KECCAK256 DUP2 SWAP1 SSTORE POP PUSH1 0x0 PUSH1 0xF SLOAD GT PUSH2 0x5ED4 JUMPI PUSH1 0x0 PUSH2 0x5EE3 JUMP JUMPDEST PUSH2 0x5EE2 PUSH1 0xF SLOAD PUSH1 0xE SLOAD PUSH2 0x5E1A JUMP JUMPDEST JUMPDEST PUSH1 0xE DUP2 SWAP1 SSTORE POP PUSH2 0x5EF6 PUSH1 0xE SLOAD PUSH1 0x0 PUSH2 0x5E1A JUMP JUMPDEST PUSH1 0x10 DUP2 SWAP1 SSTORE POP PUSH1 0xF SLOAD PUSH1 0xE SLOAD PUSH1 0x10 SLOAD PUSH32 0x4D1D74D5CBFC13E02EF05AF3A30D8721E87A00D20BC3DC42198917139944DEF3 PUSH1 0x40 MLOAD PUSH1 0x40 MLOAD DUP1 SWAP2 SUB SWAP1 LOG4 DUP1 SWAP2 POP POP PUSH2 0x5F3F JUMP JUMPDEST PUSH1 0x0 SWAP1 POP JUMPDEST SWAP1 JUMP JUMPDEST PUSH1 0x0 PUSH1 0x10 SLOAD DUP5 EQ PUSH2 0x5F5D JUMPI PUSH2 0x5F58 DUP5 DUP5 DUP5 PUSH2 0x529D JUMP JUMPDEST PUSH2 0x5F81 JUMP JUMPDEST PUSH2 0x5F6A PUSH1 0xF SLOAD PUSH1 0x0 PUSH2 0x5E1A JUMP JUMPDEST DUP3 EQ PUSH2 0x5F80 JUMPI PUSH2 0x5F7F PUSH1 0x10 SLOAD PUSH1 0xE SLOAD DUP5 PUSH2 0x529D JUMP JUMPDEST JUMPDEST JUMPDEST PUSH1 0x1 SWAP1 POP SWAP4 SWAP3 POP POP POP JUMP JUMPDEST PUSH1 0x0 PUSH2 0x5F98 PUSH1 0xC PUSH2 0x4AF5 JUMP JUMPDEST SWAP1 POP SWAP1 JUMP JUMPDEST PUSH1 0x0 DUP1 DUP4 DUP1 SLOAD SWAP1 POP SUB PUSH2 0x5FB3 JUMPI PUSH1 0x0 SWAP1 POP PUSH2 0x6050 JUMP JUMPDEST PUSH1 0x0 DUP1 DUP5 DUP1 SLOAD SWAP1 POP SWAP1 POP JUMPDEST DUP1 DUP3 LT ISZERO PUSH2 0x6007 JUMPI PUSH1 0x0 PUSH2 0x5FD2 DUP4 DUP4 PUSH2 0x63F8 JUMP JUMPDEST SWAP1 POP DUP5 PUSH2 0x5FDF DUP8 DUP4 PUSH2 0x641E JUMP JUMPDEST PUSH1 0x0 ADD SLOAD GT ISZERO PUSH2 0x5FF1 JUMPI DUP1 SWAP2 POP PUSH2 0x6001 JUMP JUMPDEST PUSH1 0x1 DUP2 PUSH2 0x5FFE SWAP2 SWAP1 PUSH2 0x7CEB JUMP JUMPDEST SWAP3 POP JUMPDEST POP PUSH2 0x5FBE JUMP JUMPDEST PUSH1 0x0 DUP3 GT DUP1 ISZERO PUSH2 0x602F JUMPI POP DUP4 PUSH2 0x6029 DUP7 PUSH1 0x1 DUP6 PUSH2 0x6024 SWAP2 SWAP1 PUSH2 0x7578 JUMP JUMPDEST PUSH2 0x641E JUMP JUMPDEST PUSH1 0x0 ADD SLOAD EQ JUMPDEST ISZERO PUSH2 0x604A JUMPI PUSH1 0x1 DUP3 PUSH2 0x6041 SWAP2 SWAP1 PUSH2 0x7578 JUMP JUMPDEST SWAP3 POP POP POP PUSH2 0x6050 JUMP JUMPDEST DUP2 SWAP3 POP POP POP JUMPDEST SWAP3 SWAP2 POP POP JUMP JUMPDEST PUSH1 0x60 PUSH2 0x607C DUP3 PUSH20 0xFFFFFFFFFFFFFFFFFFFFFFFFFFFFFFFFFFFFFFFF AND PUSH1 0x14 PUSH1 0xFF AND PUSH2 0x6083 JUMP JUMPDEST SWAP1 POP SWAP2 SWAP1 POP JUMP JUMPDEST PUSH1 0x60 PUSH1 0x0 PUSH1 0x2 DUP4 PUSH1 0x2 PUSH2 0x6096 SWAP2 SWAP1 PUSH2 0x9457 JUMP JUMPDEST PUSH2 0x60A0 SWAP2 SWAP1 PUSH2 0x7CEB JUMP JUMPDEST PUSH8 0xFFFFFFFFFFFFFFFF DUP2 GT ISZERO PUSH2 0x60B9 JUMPI PUSH2 0x60B8 PUSH2 0x69AB JUMP JUMPDEST JUMPDEST PUSH1 0x40 MLOAD SWAP1 DUP1 DUP3 MSTORE DUP1 PUSH1 0x1F ADD PUSH1 0x1F NOT AND PUSH1 0x20 ADD DUP3 ADD PUSH1 0x40 MSTORE DUP1 ISZERO PUSH2 0x60EB JUMPI DUP2 PUSH1 0x20 ADD PUSH1 0x1 DUP3 MUL DUP1 CALLDATASIZE DUP4 CALLDATACOPY DUP1 DUP3 ADD SWAP2 POP POP SWAP1 POP JUMPDEST POP SWAP1 POP PUSH32 0x3000000000000000000000000000000000000000000000000000000000000000 DUP2 PUSH1 0x0 DUP2 MLOAD DUP2 LT PUSH2 0x6123 JUMPI PUSH2 0x6122 PUSH2 0x7488 JUMP JUMPDEST JUMPDEST PUSH1 0x20 ADD ADD SWAP1 PUSH31 0xFFFFFFFFFFFFFFFFFFFFFFFFFFFFFFFFFFFFFFFFFFFFFFFFFFFFFFFFFFFFFF NOT AND SWAP1 DUP2 PUSH1 0x0 BYTE SWAP1 MSTORE8 POP PUSH32 0x7800000000000000000000000000000000000000000000000000000000000000 DUP2 PUSH1 0x1 DUP2 MLOAD DUP2 LT PUSH2 0x6187 JUMPI PUSH2 0x6186 PUSH2 0x7488 JUMP JUMPDEST JUMPDEST PUSH1 0x20 ADD ADD SWAP1 PUSH31 0xFFFFFFFFFFFFFFFFFFFFFFFFFFFFFFFFFFFFFFFFFFFFFFFFFFFFFFFFFFFFFF NOT AND SWAP1 DUP2 PUSH1 0x0 BYTE SWAP1 MSTORE8 POP PUSH1 0x0 PUSH1 0x1 DUP5 PUSH1 0x2 PUSH2 0x61C7 SWAP2 SWAP1 PUSH2 0x9457 JUMP JUMPDEST PUSH2 0x61D1 SWAP2 SWAP1 PUSH2 0x7CEB JUMP JUMPDEST SWAP1 POP JUMPDEST PUSH1 0x1 DUP2 GT ISZERO PUSH2 0x6271 JUMPI PUSH32 0x3031323334353637383961626364656600000000000000000000000000000000 PUSH1 0xF DUP7 AND PUSH1 0x10 DUP2 LT PUSH2 0x6213 JUMPI PUSH2 0x6212 PUSH2 0x7488 JUMP JUMPDEST JUMPDEST BYTE PUSH1 0xF8 SHL DUP3 DUP3 DUP2 MLOAD DUP2 LT PUSH2 0x622A JUMPI PUSH2 0x6229 PUSH2 0x7488 JUMP JUMPDEST JUMPDEST PUSH1 0x20 ADD ADD SWAP1 PUSH31 0xFFFFFFFFFFFFFFFFFFFFFFFFFFFFFFFFFFFFFFFFFFFFFFFFFFFFFFFFFFFFFF NOT AND SWAP1 DUP2 PUSH1 0x0 BYTE SWAP1 MSTORE8 POP PUSH1 0x4 DUP6 SWAP1 SHR SWAP5 POP DUP1 PUSH2 0x626A SWAP1 PUSH2 0x824C JUMP JUMPDEST SWAP1 POP PUSH2 0x61D4 JUMP JUMPDEST POP PUSH1 0x0 DUP5 EQ PUSH2 0x62B5 JUMPI PUSH1 0x40 MLOAD PUSH32 0x8C379A000000000000000000000000000000000000000000000000000000000 DUP2 MSTORE PUSH1 0x4 ADD PUSH2 0x62AC SWAP1 PUSH2 0x94E5 JUMP JUMPDEST PUSH1 0x40 MLOAD DUP1 SWAP2 SUB SWAP1 REVERT JUMPDEST DUP1 SWAP2 POP POP SWAP3 SWAP2 POP POP JUMP JUMPDEST PUSH1 0x11 PUSH1 0x0 SWAP1 SLOAD SWAP1 PUSH2 0x100 EXP SWAP1 DIV PUSH1 0xFF AND ISZERO PUSH2 0x62F4 JUMPI PUSH1 0x0 PUSH1 0x11 PUSH1 0x0 PUSH2 0x100 EXP DUP2 SLOAD DUP2 PUSH1 0xFF MUL NOT AND SWAP1 DUP4 ISZERO ISZERO MUL OR SWAP1 SSTORE POP PUSH2 0x6389 JUMP JUMPDEST PUSH1 0x0 PUSH1 0xE SLOAD GT PUSH2 0x6339 JUMPI PUSH1 0x40 MLOAD PUSH32 0x8C379A000000000000000000000000000000000000000000000000000000000 DUP2 MSTORE PUSH1 0x4 ADD PUSH2 0x6330 SWAP1 PUSH2 0x959D JUMP JUMPDEST PUSH1 0x40 MLOAD DUP1 SWAP2 SUB SWAP1 REVERT JUMPDEST PUSH1 0xE SLOAD TIMESTAMP LT PUSH2 0x6388 JUMPI PUSH1 0x0 PUSH1 0xF SLOAD GT PUSH2 0x6387 JUMPI PUSH1 0x40 MLOAD PUSH32 0x8C379A000000000000000000000000000000000000000000000000000000000 DUP2 MSTORE PUSH1 0x4 ADD PUSH2 0x637E SWAP1 PUSH2 0x962F JUMP JUMPDEST PUSH1 0x40 MLOAD DUP1 SWAP2 SUB SWAP1 REVERT JUMPDEST JUMPDEST JUMPDEST PUSH2 0x6391 PUSH2 0x5E62 JUMP JUMPDEST POP PUSH2 0x639D DUP4 DUP4 DUP4 PUSH2 0x6440 JUMP JUMPDEST POP POP POP JUMP JUMPDEST PUSH1 0x0 PUSH2 0x63AE PUSH1 0xC PUSH2 0x4ADF JUMP JUMPDEST PUSH1 0x0 PUSH2 0x63B8 PUSH2 0x5F8C JUMP JUMPDEST SWAP1 POP PUSH32 0x8030E83B04D87BEF53480E26263266D6CA66863AA8506ACA6F2559D18AA1CB67 DUP2 PUSH1 0x40 MLOAD PUSH2 0x63E9 SWAP2 SWAP1 PUSH2 0x6986 JUMP JUMPDEST PUSH1 0x40 MLOAD DUP1 SWAP2 SUB SWAP1 LOG1 DUP1 SWAP2 POP POP SWAP1 JUMP JUMPDEST PUSH1 0x0 PUSH1 0x2 DUP3 DUP5 XOR PUSH2 0x6409 SWAP2 SWAP1 PUSH2 0x964F JUMP JUMPDEST DUP3 DUP5 AND PUSH2 0x6416 SWAP2 SWAP1 PUSH2 0x7CEB JUMP JUMPDEST SWAP1 POP SWAP3 SWAP2 POP POP JUMP JUMPDEST PUSH1 0x0 DUP1 DUP4 PUSH1 0x0 MSTORE DUP3 PUSH1 0x20 PUSH1 0x0 KECCAK256 ADD SWAP1 POP PUSH2 0x6437 DUP2 PUSH2 0x64F8 JUMP JUMPDEST SWAP2 POP POP SWAP3 SWAP2 POP POP JUMP JUMPDEST PUSH2 0x644B DUP4 DUP4 DUP4 PUSH2 0x6502 JUMP JUMPDEST PUSH1 0x0 PUSH20 0xFFFFFFFFFFFFFFFFFFFFFFFFFFFFFFFFFFFFFFFF AND DUP4 PUSH20 0xFFFFFFFFFFFFFFFFFFFFFFFFFFFFFFFFFFFFFFFF AND SUB PUSH2 0x6495 JUMPI PUSH2 0x6488 DUP3 PUSH2 0x6507 JUMP JUMPDEST PUSH2 0x6490 PUSH2 0x655A JUMP JUMPDEST PUSH2 0x64F3 JUMP JUMPDEST PUSH1 0x0 PUSH20 0xFFFFFFFFFFFFFFFFFFFFFFFFFFFFFFFFFFFFFFFF AND DUP3 PUSH20 0xFFFFFFFFFFFFFFFFFFFFFFFFFFFFFFFFFFFFFFFF AND SUB PUSH2 0x64DF JUMPI PUSH2 0x64D2 DUP4 PUSH2 0x6507 JUMP JUMPDEST PUSH2 0x64DA PUSH2 0x655A JUMP JUMPDEST PUSH2 0x64F2 JUMP JUMPDEST PUSH2 0x64E8 DUP4 PUSH2 0x6507 JUMP JUMPDEST PUSH2 0x64F1 DUP3 PUSH2 0x6507 JUMP JUMPDEST JUMPDEST JUMPDEST POP POP POP JUMP JUMPDEST PUSH1 0x0 DUP2 SWAP1 POP SWAP2 SWAP1 POP JUMP JUMPDEST POP POP POP JUMP JUMPDEST PUSH2 0x6557 PUSH1 0x9 PUSH1 0x0 DUP4 PUSH20 0xFFFFFFFFFFFFFFFFFFFFFFFFFFFFFFFFFFFFFFFF AND PUSH20 0xFFFFFFFFFFFFFFFFFFFFFFFFFFFFFFFFFFFFFFFF AND DUP2 MSTORE PUSH1 0x20 ADD SWAP1 DUP2 MSTORE PUSH1 0x20 ADD PUSH1 0x0 KECCAK256 PUSH2 0x6552 DUP4 PUSH2 0x2A11 JUMP JUMPDEST PUSH2 0x656E JUMP JUMPDEST POP JUMP JUMPDEST PUSH2 0x656C PUSH1 0xA PUSH2 0x6567 PUSH2 0x1A05 JUMP JUMPDEST PUSH2 0x656E JUMP JUMPDEST JUMP JUMPDEST PUSH1 0x0 PUSH2 0x6578 PUSH2 0x5F8C JUMP JUMPDEST SWAP1 POP DUP1 PUSH2 0x6587 DUP5 PUSH1 0x0 ADD PUSH2 0x65E9 JUMP JUMPDEST LT ISZERO PUSH2 0x65E4 JUMPI DUP3 PUSH1 0x0 ADD DUP2 SWAP1 DUP1 PUSH1 0x1 DUP2 SLOAD ADD DUP1 DUP3 SSTORE DUP1 SWAP2 POP POP PUSH1 0x1 SWAP1 SUB SWAP1 PUSH1 0x0 MSTORE PUSH1 0x20 PUSH1 0x0 KECCAK256 ADD PUSH1 0x0 SWAP1 SWAP2 SWAP1 SWAP2 SWAP1 SWAP2 POP SSTORE DUP3 PUSH1 0x1 ADD DUP3 SWAP1 DUP1 PUSH1 0x1 DUP2 SLOAD ADD DUP1 DUP3 SSTORE DUP1 SWAP2 POP POP PUSH1 0x1 SWAP1 SUB SWAP1 PUSH1 0x0 MSTORE PUSH1 0x20 PUSH1 0x0 KECCAK256 ADD PUSH1 0x0 SWAP1 SWAP2 SWAP1 SWAP2 SWAP1 SWAP2 POP SSTORE JUMPDEST POP POP POP JUMP JUMPDEST PUSH1 0x0 DUP1 DUP3 DUP1 SLOAD SWAP1 POP SUB PUSH2 0x65FF JUMPI PUSH1 0x0 SWAP1 POP PUSH2 0x6630 JUMP JUMPDEST DUP2 PUSH1 0x1 DUP4 DUP1 SLOAD SWAP1 POP PUSH2 0x6611 SWAP2 SWAP1 PUSH2 0x7578 JUMP JUMPDEST DUP2 SLOAD DUP2 LT PUSH2 0x6622 JUMPI PUSH2 0x6621 PUSH2 0x7488 JUMP JUMPDEST JUMPDEST SWAP1 PUSH1 0x0 MSTORE PUSH1 0x20 PUSH1 0x0 KECCAK256 ADD SLOAD SWAP1 POP JUMPDEST SWAP2 SWAP1 POP JUMP JUMPDEST PUSH1 0x40 MLOAD DUP1 PUSH2 0x160 ADD PUSH1 0x40 MSTORE DUP1 PUSH1 0x60 DUP2 MSTORE PUSH1 0x20 ADD PUSH1 0x60 DUP2 MSTORE PUSH1 0x20 ADD PUSH1 0x0 DUP2 MSTORE PUSH1 0x20 ADD PUSH1 0x0 DUP1 NOT AND DUP2 MSTORE PUSH1 0x20 ADD PUSH1 0x0 DUP2 MSTORE PUSH1 0x20 ADD PUSH1 0x0 DUP2 MSTORE PUSH1 0x20 ADD PUSH1 0x0 DUP2 MSTORE PUSH1 0x20 ADD PUSH1 0x0 DUP2 MSTORE PUSH1 0x20 ADD PUSH1 0x0 DUP2 MSTORE PUSH1 0x20 ADD PUSH1 0x60 DUP2 MSTORE PUSH1 0x20 ADD PUSH1 0x0 DUP2 MSTORE POP SWAP1 JUMP JUMPDEST PUSH1 0x0 PUSH1 0x40 MLOAD SWAP1 POP SWAP1 JUMP JUMPDEST PUSH1 0x0 DUP1 REVERT JUMPDEST PUSH1 0x0 DUP1 REVERT JUMPDEST PUSH1 0x0 PUSH20 0xFFFFFFFFFFFFFFFFFFFFFFFFFFFFFFFFFFFFFFFF DUP3 AND SWAP1 POP SWAP2 SWAP1 POP JUMP JUMPDEST PUSH1 0x0 PUSH2 0x66D1 DUP3 PUSH2 0x66A6 JUMP JUMPDEST SWAP1 POP SWAP2 SWAP1 POP JUMP JUMPDEST PUSH2 0x66E1 DUP2 PUSH2 0x66C6 JUMP JUMPDEST DUP2 EQ PUSH2 0x66EC JUMPI PUSH1 0x0 DUP1 REVERT JUMPDEST POP JUMP JUMPDEST PUSH1 0x0 DUP2 CALLDATALOAD SWAP1 POP PUSH2 0x66FE DUP2 PUSH2 0x66D8 JUMP JUMPDEST SWAP3 SWAP2 POP POP JUMP JUMPDEST PUSH1 0x0 PUSH1 0x20 DUP3 DUP5 SUB SLT ISZERO PUSH2 0x671A JUMPI PUSH2 0x6719 PUSH2 0x669C JUMP JUMPDEST JUMPDEST PUSH1 0x0 PUSH2 0x6728 DUP5 DUP3 DUP6 ADD PUSH2 0x66EF JUMP JUMPDEST SWAP2 POP POP SWAP3 SWAP2 POP POP JUMP JUMPDEST PUSH1 0x0 PUSH32 0xFFFFFFFF00000000000000000000000000000000000000000000000000000000 DUP3 AND SWAP1 POP SWAP2 SWAP1 POP JUMP JUMPDEST PUSH2 0x6766 DUP2 PUSH2 0x6731 JUMP JUMPDEST DUP2 EQ PUSH2 0x6771 JUMPI PUSH1 0x0 DUP1 REVERT JUMPDEST POP JUMP JUMPDEST PUSH1 0x0 DUP2 CALLDATALOAD SWAP1 POP PUSH2 0x6783 DUP2 PUSH2 0x675D JUMP JUMPDEST SWAP3 SWAP2 POP POP JUMP JUMPDEST PUSH1 0x0 PUSH1 0x20 DUP3 DUP5 SUB SLT ISZERO PUSH2 0x679F JUMPI PUSH2 0x679E PUSH2 0x669C JUMP JUMPDEST JUMPDEST PUSH1 0x0 PUSH2 0x67AD DUP5 DUP3 DUP6 ADD PUSH2 0x6774 JUMP JUMPDEST SWAP2 POP POP SWAP3 SWAP2 POP POP JUMP JUMPDEST PUSH1 0x0 DUP2 ISZERO ISZERO SWAP1 POP SWAP2 SWAP1 POP JUMP JUMPDEST PUSH2 0x67CB DUP2 PUSH2 0x67B6 JUMP JUMPDEST DUP3 MSTORE POP POP JUMP JUMPDEST PUSH1 0x0 PUSH1 0x20 DUP3 ADD SWAP1 POP PUSH2 0x67E6 PUSH1 0x0 DUP4 ADD DUP5 PUSH2 0x67C2 JUMP JUMPDEST SWAP3 SWAP2 POP POP JUMP JUMPDEST PUSH1 0x0 DUP2 SWAP1 POP SWAP2 SWAP1 POP JUMP JUMPDEST PUSH2 0x67FF DUP2 PUSH2 0x67EC JUMP JUMPDEST DUP2 EQ PUSH2 0x680A JUMPI PUSH1 0x0 DUP1 REVERT JUMPDEST POP JUMP JUMPDEST PUSH1 0x0 DUP2 CALLDATALOAD SWAP1 POP PUSH2 0x681C DUP2 PUSH2 0x67F6 JUMP JUMPDEST SWAP3 SWAP2 POP POP JUMP JUMPDEST PUSH1 0x0 PUSH1 0x20 DUP3 DUP5 SUB SLT ISZERO PUSH2 0x6838 JUMPI PUSH2 0x6837 PUSH2 0x669C JUMP JUMPDEST JUMPDEST PUSH1 0x0 PUSH2 0x6846 DUP5 DUP3 DUP6 ADD PUSH2 0x680D JUMP JUMPDEST SWAP2 POP POP SWAP3 SWAP2 POP POP JUMP JUMPDEST PUSH1 0x0 DUP2 MLOAD SWAP1 POP SWAP2 SWAP1 POP JUMP JUMPDEST PUSH1 0x0 DUP3 DUP3 MSTORE PUSH1 0x20 DUP3 ADD SWAP1 POP SWAP3 SWAP2 POP POP JUMP JUMPDEST PUSH1 0x0 JUMPDEST DUP4 DUP2 LT ISZERO PUSH2 0x6889 JUMPI DUP1 DUP3 ADD MLOAD DUP2 DUP5 ADD MSTORE PUSH1 0x20 DUP2 ADD SWAP1 POP PUSH2 0x686E JUMP JUMPDEST PUSH1 0x0 DUP5 DUP5 ADD MSTORE POP POP POP POP JUMP JUMPDEST PUSH1 0x0 PUSH1 0x1F NOT PUSH1 0x1F DUP4 ADD AND SWAP1 POP SWAP2 SWAP1 POP JUMP JUMPDEST PUSH1 0x0 PUSH2 0x68B1 DUP3 PUSH2 0x684F JUMP JUMPDEST PUSH2 0x68BB DUP2 DUP6 PUSH2 0x685A JUMP JUMPDEST SWAP4 POP PUSH2 0x68CB DUP2 DUP6 PUSH1 0x20 DUP7 ADD PUSH2 0x686B JUMP JUMPDEST PUSH2 0x68D4 DUP2 PUSH2 0x6895 JUMP JUMPDEST DUP5 ADD SWAP2 POP POP SWAP3 SWAP2 POP POP JUMP JUMPDEST PUSH1 0x0 PUSH1 0x20 DUP3 ADD SWAP1 POP DUP2 DUP2 SUB PUSH1 0x0 DUP4 ADD MSTORE PUSH2 0x68F9 DUP2 DUP5 PUSH2 0x68A6 JUMP JUMPDEST SWAP1 POP SWAP3 SWAP2 POP POP JUMP JUMPDEST PUSH1 0x0 DUP2 SWAP1 POP SWAP2 SWAP1 POP JUMP JUMPDEST PUSH2 0x6914 DUP2 PUSH2 0x6901 JUMP JUMPDEST DUP2 EQ PUSH2 0x691F JUMPI PUSH1 0x0 DUP1 REVERT JUMPDEST POP JUMP JUMPDEST PUSH1 0x0 DUP2 CALLDATALOAD SWAP1 POP PUSH2 0x6931 DUP2 PUSH2 0x690B JUMP JUMPDEST SWAP3 SWAP2 POP POP JUMP JUMPDEST PUSH1 0x0 DUP1 PUSH1 0x40 DUP4 DUP6 SUB SLT ISZERO PUSH2 0x694E JUMPI PUSH2 0x694D PUSH2 0x669C JUMP JUMPDEST JUMPDEST PUSH1 0x0 PUSH2 0x695C DUP6 DUP3 DUP7 ADD PUSH2 0x66EF JUMP JUMPDEST SWAP3 POP POP PUSH1 0x20 PUSH2 0x696D DUP6 DUP3 DUP7 ADD PUSH2 0x6922 JUMP JUMPDEST SWAP2 POP POP SWAP3 POP SWAP3 SWAP1 POP JUMP JUMPDEST PUSH2 0x6980 DUP2 PUSH2 0x6901 JUMP JUMPDEST DUP3 MSTORE POP POP JUMP JUMPDEST PUSH1 0x0 PUSH1 0x20 DUP3 ADD SWAP1 POP PUSH2 0x699B PUSH1 0x0 DUP4 ADD DUP5 PUSH2 0x6977 JUMP JUMPDEST SWAP3 SWAP2 POP POP JUMP JUMPDEST PUSH1 0x0 DUP1 REVERT JUMPDEST PUSH1 0x0 DUP1 REVERT JUMPDEST PUSH32 0x4E487B7100000000000000000000000000000000000000000000000000000000 PUSH1 0x0 MSTORE PUSH1 0x41 PUSH1 0x4 MSTORE PUSH1 0x24 PUSH1 0x0 REVERT JUMPDEST PUSH2 0x69E3 DUP3 PUSH2 0x6895 JUMP JUMPDEST DUP2 ADD DUP2 DUP2 LT PUSH8 0xFFFFFFFFFFFFFFFF DUP3 GT OR ISZERO PUSH2 0x6A02 JUMPI PUSH2 0x6A01 PUSH2 0x69AB JUMP JUMPDEST JUMPDEST DUP1 PUSH1 0x40 MSTORE POP POP POP JUMP JUMPDEST PUSH1 0x0 PUSH2 0x6A15 PUSH2 0x6692 JUMP JUMPDEST SWAP1 POP PUSH2 0x6A21 DUP3 DUP3 PUSH2 0x69DA JUMP JUMPDEST SWAP2 SWAP1 POP JUMP JUMPDEST PUSH1 0x0 PUSH8 0xFFFFFFFFFFFFFFFF DUP3 GT ISZERO PUSH2 0x6A41 JUMPI PUSH2 0x6A40 PUSH2 0x69AB JUMP JUMPDEST JUMPDEST PUSH2 0x6A4A DUP3 PUSH2 0x6895 JUMP JUMPDEST SWAP1 POP PUSH1 0x20 DUP2 ADD SWAP1 POP SWAP2 SWAP1 POP JUMP JUMPDEST DUP3 DUP2 DUP4 CALLDATACOPY PUSH1 0x0 DUP4 DUP4 ADD MSTORE POP POP POP JUMP JUMPDEST PUSH1 0x0 PUSH2 0x6A79 PUSH2 0x6A74 DUP5 PUSH2 0x6A26 JUMP JUMPDEST PUSH2 0x6A0B JUMP JUMPDEST SWAP1 POP DUP3 DUP2 MSTORE PUSH1 0x20 DUP2 ADD DUP5 DUP5 DUP5 ADD GT ISZERO PUSH2 0x6A95 JUMPI PUSH2 0x6A94 PUSH2 0x69A6 JUMP JUMPDEST JUMPDEST PUSH2 0x6AA0 DUP5 DUP3 DUP6 PUSH2 0x6A57 JUMP JUMPDEST POP SWAP4 SWAP3 POP POP POP JUMP JUMPDEST PUSH1 0x0 DUP3 PUSH1 0x1F DUP4 ADD SLT PUSH2 0x6ABD JUMPI PUSH2 0x6ABC PUSH2 0x69A1 JUMP JUMPDEST JUMPDEST DUP2 CALLDATALOAD PUSH2 0x6ACD DUP5 DUP3 PUSH1 0x20 DUP7 ADD PUSH2 0x6A66 JUMP JUMPDEST SWAP2 POP POP SWAP3 SWAP2 POP POP JUMP JUMPDEST PUSH1 0x0 DUP1 PUSH1 0x0 DUP1 PUSH1 0x0 DUP1 PUSH1 0x0 DUP1 PUSH2 0x100 DUP10 DUP12 SUB SLT ISZERO PUSH2 0x6AF7 JUMPI PUSH2 0x6AF6 PUSH2 0x669C JUMP JUMPDEST JUMPDEST PUSH1 0x0 DUP10 ADD CALLDATALOAD PUSH8 0xFFFFFFFFFFFFFFFF DUP2 GT ISZERO PUSH2 0x6B15 JUMPI PUSH2 0x6B14 PUSH2 0x66A1 JUMP JUMPDEST JUMPDEST PUSH2 0x6B21 DUP12 DUP3 DUP13 ADD PUSH2 0x6AA8 JUMP JUMPDEST SWAP9 POP POP PUSH1 0x20 PUSH2 0x6B32 DUP12 DUP3 DUP13 ADD PUSH2 0x6922 JUMP JUMPDEST SWAP8 POP POP PUSH1 0x40 PUSH2 0x6B43 DUP12 DUP3 DUP13 ADD PUSH2 0x680D JUMP JUMPDEST SWAP7 POP POP PUSH1 0x60 PUSH2 0x6B54 DUP12 DUP3 DUP13 ADD PUSH2 0x6922 JUMP JUMPDEST SWAP6 POP POP PUSH1 0x80 PUSH2 0x6B65 DUP12 DUP3 DUP13 ADD PUSH2 0x6922 JUMP JUMPDEST SWAP5 POP POP PUSH1 0xA0 PUSH2 0x6B76 DUP12 DUP3 DUP13 ADD PUSH2 0x6922 JUMP JUMPDEST SWAP4 POP POP PUSH1 0xC0 PUSH2 0x6B87 DUP12 DUP3 DUP13 ADD PUSH2 0x6922 JUMP JUMPDEST SWAP3 POP POP PUSH1 0xE0 PUSH2 0x6B98 DUP12 DUP3 DUP13 ADD PUSH2 0x6922 JUMP JUMPDEST SWAP2 POP POP SWAP3 SWAP6 SWAP9 POP SWAP3 SWAP6 SWAP9 SWAP1 SWAP4 SWAP7 POP JUMP JUMPDEST PUSH2 0x6BB1 DUP2 PUSH2 0x67EC JUMP JUMPDEST DUP3 MSTORE POP POP JUMP JUMPDEST PUSH1 0x0 PUSH1 0x20 DUP3 ADD SWAP1 POP PUSH2 0x6BCC PUSH1 0x0 DUP4 ADD DUP5 PUSH2 0x6BA8 JUMP JUMPDEST SWAP3 SWAP2 POP POP JUMP JUMPDEST PUSH32 0x4E487B7100000000000000000000000000000000000000000000000000000000 PUSH1 0x0 MSTORE PUSH1 0x21 PUSH1 0x4 MSTORE PUSH1 0x24 PUSH1 0x0 REVERT JUMPDEST PUSH1 0x5 DUP2 LT PUSH2 0x6C12 JUMPI PUSH2 0x6C11 PUSH2 0x6BD2 JUMP JUMPDEST JUMPDEST POP JUMP JUMPDEST PUSH1 0x0 DUP2 SWAP1 POP PUSH2 0x6C23 DUP3 PUSH2 0x6C01 JUMP JUMPDEST SWAP2 SWAP1 POP JUMP JUMPDEST PUSH1 0x0 PUSH2 0x6C33 DUP3 PUSH2 0x6C15 JUMP JUMPDEST SWAP1 POP SWAP2 SWAP1 POP JUMP JUMPDEST PUSH2 0x6C43 DUP2 PUSH2 0x6C28 JUMP JUMPDEST DUP3 MSTORE POP POP JUMP JUMPDEST PUSH1 0x0 PUSH1 0x20 DUP3 ADD SWAP1 POP PUSH2 0x6C5E PUSH1 0x0 DUP4 ADD DUP5 PUSH2 0x6C3A JUMP JUMPDEST SWAP3 SWAP2 POP POP JUMP JUMPDEST PUSH1 0x0 DUP1 PUSH1 0x0 PUSH1 0x60 DUP5 DUP7 SUB SLT ISZERO PUSH2 0x6C7D JUMPI PUSH2 0x6C7C PUSH2 0x669C JUMP JUMPDEST JUMPDEST PUSH1 0x0 PUSH2 0x6C8B DUP7 DUP3 DUP8 ADD PUSH2 0x66EF JUMP JUMPDEST SWAP4 POP POP PUSH1 0x20 PUSH2 0x6C9C DUP7 DUP3 DUP8 ADD PUSH2 0x66EF JUMP JUMPDEST SWAP3 POP POP PUSH1 0x40 PUSH2 0x6CAD DUP7 DUP3 DUP8 ADD PUSH2 0x6922 JUMP JUMPDEST SWAP2 POP POP SWAP3 POP SWAP3 POP SWAP3 JUMP JUMPDEST PUSH1 0x0 DUP1 PUSH1 0x40 DUP4 DUP6 SUB SLT ISZERO PUSH2 0x6CCE JUMPI PUSH2 0x6CCD PUSH2 0x669C JUMP JUMPDEST JUMPDEST PUSH1 0x0 PUSH2 0x6CDC DUP6 DUP3 DUP7 ADD PUSH2 0x680D JUMP JUMPDEST SWAP3 POP POP PUSH1 0x20 PUSH2 0x6CED DUP6 DUP3 DUP7 ADD PUSH2 0x66EF JUMP JUMPDEST SWAP2 POP POP SWAP3 POP SWAP3 SWAP1 POP JUMP JUMPDEST PUSH2 0x6D00 DUP2 PUSH2 0x66C6 JUMP JUMPDEST DUP3 MSTORE POP POP JUMP JUMPDEST PUSH1 0x0 PUSH1 0x20 DUP3 ADD SWAP1 POP PUSH2 0x6D1B PUSH1 0x0 DUP4 ADD DUP5 PUSH2 0x6CF7 JUMP JUMPDEST SWAP3 SWAP2 POP POP JUMP JUMPDEST PUSH1 0x0 DUP1 PUSH1 0x40 DUP4 DUP6 SUB SLT ISZERO PUSH2 0x6D38 JUMPI PUSH2 0x6D37 PUSH2 0x669C JUMP JUMPDEST JUMPDEST PUSH1 0x0 PUSH2 0x6D46 DUP6 DUP3 DUP7 ADD PUSH2 0x6922 JUMP JUMPDEST SWAP3 POP POP PUSH1 0x20 PUSH2 0x6D57 DUP6 DUP3 DUP7 ADD PUSH2 0x6922 JUMP JUMPDEST SWAP2 POP POP SWAP3 POP SWAP3 SWAP1 POP JUMP JUMPDEST PUSH1 0x0 PUSH1 0xFF DUP3 AND SWAP1 POP SWAP2 SWAP1 POP JUMP JUMPDEST PUSH2 0x6D77 DUP2 PUSH2 0x6D61 JUMP JUMPDEST DUP3 MSTORE POP POP JUMP JUMPDEST PUSH1 0x0 PUSH1 0x20 DUP3 ADD SWAP1 POP PUSH2 0x6D92 PUSH1 0x0 DUP4 ADD DUP5 PUSH2 0x6D6E JUMP JUMPDEST SWAP3 SWAP2 POP POP JUMP JUMPDEST PUSH1 0x0 PUSH1 0x20 DUP3 DUP5 SUB SLT ISZERO PUSH2 0x6DAE JUMPI PUSH2 0x6DAD PUSH2 0x669C JUMP JUMPDEST JUMPDEST PUSH1 0x0 PUSH2 0x6DBC DUP5 DUP3 DUP6 ADD PUSH2 0x6922 JUMP JUMPDEST SWAP2 POP POP SWAP3 SWAP2 POP POP JUMP JUMPDEST PUSH1 0x0 PUSH1 0x20 DUP3 DUP5 SUB SLT ISZERO PUSH2 0x6DDB JUMPI PUSH2 0x6DDA PUSH2 0x669C JUMP JUMPDEST JUMPDEST PUSH1 0x0 DUP3 ADD CALLDATALOAD PUSH8 0xFFFFFFFFFFFFFFFF DUP2 GT ISZERO PUSH2 0x6DF9 JUMPI PUSH2 0x6DF8 PUSH2 0x66A1 JUMP JUMPDEST JUMPDEST PUSH2 0x6E05 DUP5 DUP3 DUP6 ADD PUSH2 0x6AA8 JUMP JUMPDEST SWAP2 POP POP SWAP3 SWAP2 POP POP JUMP JUMPDEST PUSH1 0x0 DUP3 DUP3 MSTORE PUSH1 0x20 DUP3 ADD SWAP1 POP SWAP3 SWAP2 POP POP JUMP JUMPDEST PUSH1 0x0 PUSH2 0x6E2A DUP3 PUSH2 0x684F JUMP JUMPDEST PUSH2 0x6E34 DUP2 DUP6 PUSH2 0x6E0E JUMP JUMPDEST SWAP4 POP PUSH2 0x6E44 DUP2 DUP6 PUSH1 0x20 DUP7 ADD PUSH2 0x686B JUMP JUMPDEST PUSH2 0x6E4D DUP2 PUSH2 0x6895 JUMP JUMPDEST DUP5 ADD SWAP2 POP POP SWAP3 SWAP2 POP POP JUMP JUMPDEST PUSH2 0x6E61 DUP2 PUSH2 0x6901 JUMP JUMPDEST DUP3 MSTORE POP POP JUMP JUMPDEST PUSH2 0x6E70 DUP2 PUSH2 0x67EC JUMP JUMPDEST DUP3 MSTORE POP POP JUMP JUMPDEST PUSH1 0x0 DUP2 MLOAD SWAP1 POP SWAP2 SWAP1 POP JUMP JUMPDEST PUSH1 0x0 DUP3 DUP3 MSTORE PUSH1 0x20 DUP3 ADD SWAP1 POP SWAP3 SWAP2 POP POP JUMP JUMPDEST PUSH1 0x0 DUP2 SWAP1 POP PUSH1 0x20 DUP3 ADD SWAP1 POP SWAP2 SWAP1 POP JUMP JUMPDEST PUSH1 0x0 PUSH2 0x6EAE DUP4 DUP4 PUSH2 0x6E58 JUMP JUMPDEST PUSH1 0x20 DUP4 ADD SWAP1 POP SWAP3 SWAP2 POP POP JUMP JUMPDEST PUSH1 0x0 PUSH1 0x20 DUP3 ADD SWAP1 POP SWAP2 SWAP1 POP JUMP JUMPDEST PUSH1 0x0 PUSH2 0x6ED2 DUP3 PUSH2 0x6E76 JUMP JUMPDEST PUSH2 0x6EDC DUP2 DUP6 PUSH2 0x6E81 JUMP JUMPDEST SWAP4 POP PUSH2 0x6EE7 DUP4 PUSH2 0x6E92 JUMP JUMPDEST DUP1 PUSH1 0x0 JUMPDEST DUP4 DUP2 LT ISZERO PUSH2 0x6F18 JUMPI DUP2 MLOAD PUSH2 0x6EFF DUP9 DUP3 PUSH2 0x6EA2 JUMP JUMPDEST SWAP8 POP PUSH2 0x6F0A DUP4 PUSH2 0x6EBA JUMP JUMPDEST SWAP3 POP POP PUSH1 0x1 DUP2 ADD SWAP1 POP PUSH2 0x6EEB JUMP JUMPDEST POP DUP6 SWAP4 POP POP POP POP SWAP3 SWAP2 POP POP JUMP JUMPDEST PUSH1 0x0 PUSH2 0x160 DUP4 ADD PUSH1 0x0 DUP4 ADD MLOAD DUP5 DUP3 SUB PUSH1 0x0 DUP7 ADD MSTORE PUSH2 0x6F43 DUP3 DUP3 PUSH2 0x6E1F JUMP JUMPDEST SWAP2 POP POP PUSH1 0x20 DUP4 ADD MLOAD DUP5 DUP3 SUB PUSH1 0x20 DUP7 ADD MSTORE PUSH2 0x6F5D DUP3 DUP3 PUSH2 0x6E1F JUMP JUMPDEST SWAP2 POP POP PUSH1 0x40 DUP4 ADD MLOAD PUSH2 0x6F72 PUSH1 0x40 DUP7 ADD DUP3 PUSH2 0x6E58 JUMP JUMPDEST POP PUSH1 0x60 DUP4 ADD MLOAD PUSH2 0x6F85 PUSH1 0x60 DUP7 ADD DUP3 PUSH2 0x6E67 JUMP JUMPDEST POP PUSH1 0x80 DUP4 ADD MLOAD PUSH2 0x6F98 PUSH1 0x80 DUP7 ADD DUP3 PUSH2 0x6E58 JUMP JUMPDEST POP PUSH1 0xA0 DUP4 ADD MLOAD PUSH2 0x6FAB PUSH1 0xA0 DUP7 ADD DUP3 PUSH2 0x6E58 JUMP JUMPDEST POP PUSH1 0xC0 DUP4 ADD MLOAD PUSH2 0x6FBE PUSH1 0xC0 DUP7 ADD DUP3 PUSH2 0x6E58 JUMP JUMPDEST POP PUSH1 0xE0 DUP4 ADD MLOAD PUSH2 0x6FD1 PUSH1 0xE0 DUP7 ADD DUP3 PUSH2 0x6E58 JUMP JUMPDEST POP PUSH2 0x100 DUP4 ADD MLOAD PUSH2 0x6FE6 PUSH2 0x100 DUP7 ADD DUP3 PUSH2 0x6E58 JUMP JUMPDEST POP PUSH2 0x120 DUP4 ADD MLOAD DUP5 DUP3 SUB PUSH2 0x120 DUP7 ADD MSTORE PUSH2 0x7000 DUP3 DUP3 PUSH2 0x6EC7 JUMP JUMPDEST SWAP2 POP POP PUSH2 0x140 DUP4 ADD MLOAD PUSH2 0x7017 PUSH2 0x140 DUP7 ADD DUP3 PUSH2 0x6E58 JUMP JUMPDEST POP DUP1 SWAP2 POP POP SWAP3 SWAP2 POP POP JUMP JUMPDEST PUSH1 0x0 PUSH1 0x20 DUP3 ADD SWAP1 POP DUP2 DUP2 SUB PUSH1 0x0 DUP4 ADD MSTORE PUSH2 0x703C DUP2 DUP5 PUSH2 0x6F25 JUMP JUMPDEST SWAP1 POP SWAP3 SWAP2 POP POP JUMP JUMPDEST PUSH1 0x0 DUP2 MLOAD SWAP1 POP SWAP2 SWAP1 POP JUMP JUMPDEST PUSH1 0x0 DUP3 DUP3 MSTORE PUSH1 0x20 DUP3 ADD SWAP1 POP SWAP3 SWAP2 POP POP JUMP JUMPDEST PUSH1 0x0 DUP2 SWAP1 POP PUSH1 0x20 DUP3 ADD SWAP1 POP SWAP2 SWAP1 POP JUMP JUMPDEST PUSH2 0x7079 DUP2 PUSH2 0x66C6 JUMP JUMPDEST DUP3 MSTORE POP POP JUMP JUMPDEST PUSH1 0x0 PUSH2 0x708B DUP4 DUP4 PUSH2 0x7070 JUMP JUMPDEST PUSH1 0x20 DUP4 ADD SWAP1 POP SWAP3 SWAP2 POP POP JUMP JUMPDEST PUSH1 0x0 PUSH1 0x20 DUP3 ADD SWAP1 POP SWAP2 SWAP1 POP JUMP JUMPDEST PUSH1 0x0 PUSH2 0x70AF DUP3 PUSH2 0x7044 JUMP JUMPDEST PUSH2 0x70B9 DUP2 DUP6 PUSH2 0x704F JUMP JUMPDEST SWAP4 POP PUSH2 0x70C4 DUP4 PUSH2 0x7060 JUMP JUMPDEST DUP1 PUSH1 0x0 JUMPDEST DUP4 DUP2 LT ISZERO PUSH2 0x70F5 JUMPI DUP2 MLOAD PUSH2 0x70DC DUP9 DUP3 PUSH2 0x707F JUMP JUMPDEST SWAP8 POP PUSH2 0x70E7 DUP4 PUSH2 0x7097 JUMP JUMPDEST SWAP3 POP POP PUSH1 0x1 DUP2 ADD SWAP1 POP PUSH2 0x70C8 JUMP JUMPDEST POP DUP6 SWAP4 POP POP POP POP SWAP3 SWAP2 POP POP JUMP JUMPDEST PUSH1 0x0 PUSH1 0x20 DUP3 ADD SWAP1 POP DUP2 DUP2 SUB PUSH1 0x0 DUP4 ADD MSTORE PUSH2 0x711C DUP2 DUP5 PUSH2 0x70A4 JUMP JUMPDEST SWAP1 POP SWAP3 SWAP2 POP POP JUMP JUMPDEST PUSH1 0x0 DUP1 PUSH1 0x40 DUP4 DUP6 SUB SLT ISZERO PUSH2 0x713B JUMPI PUSH2 0x713A PUSH2 0x669C JUMP JUMPDEST JUMPDEST PUSH1 0x0 PUSH2 0x7149 DUP6 DUP3 DUP7 ADD PUSH2 0x66EF JUMP JUMPDEST SWAP3 POP POP PUSH1 0x20 DUP4 ADD CALLDATALOAD PUSH8 0xFFFFFFFFFFFFFFFF DUP2 GT ISZERO PUSH2 0x716A JUMPI PUSH2 0x7169 PUSH2 0x66A1 JUMP JUMPDEST JUMPDEST PUSH2 0x7176 DUP6 DUP3 DUP7 ADD PUSH2 0x6AA8 JUMP JUMPDEST SWAP2 POP POP SWAP3 POP SWAP3 SWAP1 POP JUMP JUMPDEST PUSH1 0x0 DUP1 PUSH1 0x40 DUP4 DUP6 SUB SLT ISZERO PUSH2 0x7197 JUMPI PUSH2 0x7196 PUSH2 0x669C JUMP JUMPDEST JUMPDEST PUSH1 0x0 PUSH2 0x71A5 DUP6 DUP3 DUP7 ADD PUSH2 0x66EF JUMP JUMPDEST SWAP3 POP POP PUSH1 0x20 PUSH2 0x71B6 DUP6 DUP3 DUP7 ADD PUSH2 0x66EF JUMP JUMPDEST SWAP2 POP POP SWAP3 POP SWAP3 SWAP1 POP JUMP JUMPDEST PUSH32 0x43616C6C6572206D7573742062652043414B0000000000000000000000000000 PUSH1 0x0 DUP3 ADD MSTORE POP JUMP JUMPDEST PUSH1 0x0 PUSH2 0x71F6 PUSH1 0x12 DUP4 PUSH2 0x685A JUMP JUMPDEST SWAP2 POP PUSH2 0x7201 DUP3 PUSH2 0x71C0 JUMP JUMPDEST PUSH1 0x20 DUP3 ADD SWAP1 POP SWAP2 SWAP1 POP JUMP JUMPDEST PUSH1 0x0 PUSH1 0x20 DUP3 ADD SWAP1 POP DUP2 DUP2 SUB PUSH1 0x0 DUP4 ADD MSTORE PUSH2 0x7225 DUP2 PUSH2 0x71E9 JUMP JUMPDEST SWAP1 POP SWAP2 SWAP1 POP JUMP JUMPDEST PUSH32 0x4E65772061646D696E206973207468652073616D652061732063757272656E74 PUSH1 0x0 DUP3 ADD MSTORE PUSH32 0x206F6E6500000000000000000000000000000000000000000000000000000000 PUSH1 0x20 DUP3 ADD MSTORE POP JUMP JUMPDEST PUSH1 0x0 PUSH2 0x7288 PUSH1 0x24 DUP4 PUSH2 0x685A JUMP JUMPDEST SWAP2 POP PUSH2 0x7293 DUP3 PUSH2 0x722C JUMP JUMPDEST PUSH1 0x40 DUP3 ADD SWAP1 POP SWAP2 SWAP1 POP JUMP JUMPDEST PUSH1 0x0 PUSH1 0x20 DUP3 ADD SWAP1 POP DUP2 DUP2 SUB PUSH1 0x0 DUP4 ADD MSTORE PUSH2 0x72B7 DUP2 PUSH2 0x727B JUMP JUMPDEST SWAP1 POP SWAP2 SWAP1 POP JUMP JUMPDEST PUSH32 0x5468652070726F706F736564206E65772061646D696E2063616E6E6F74206265 PUSH1 0x0 DUP3 ADD MSTORE PUSH32 0x20746865207A65726F2061646472657373000000000000000000000000000000 PUSH1 0x20 DUP3 ADD MSTORE POP JUMP JUMPDEST PUSH1 0x0 PUSH2 0x731A PUSH1 0x31 DUP4 PUSH2 0x685A JUMP JUMPDEST SWAP2 POP PUSH2 0x7325 DUP3 PUSH2 0x72BE JUMP JUMPDEST PUSH1 0x40 DUP3 ADD SWAP1 POP SWAP2 SWAP1 POP JUMP JUMPDEST PUSH1 0x0 PUSH1 0x20 DUP3 ADD SWAP1 POP DUP2 DUP2 SUB PUSH1 0x0 DUP4 ADD MSTORE PUSH2 0x7349 DUP2 PUSH2 0x730D JUMP JUMPDEST SWAP1 POP SWAP2 SWAP1 POP JUMP JUMPDEST PUSH32 0x546869732043414B2068617320616C726561647920766F746564000000000000 PUSH1 0x0 DUP3 ADD MSTORE POP JUMP JUMPDEST PUSH1 0x0 PUSH2 0x7386 PUSH1 0x1A DUP4 PUSH2 0x685A JUMP JUMPDEST SWAP2 POP PUSH2 0x7391 DUP3 PUSH2 0x7350 JUMP JUMPDEST PUSH1 0x20 DUP3 ADD SWAP1 POP SWAP2 SWAP1 POP JUMP JUMPDEST PUSH1 0x0 PUSH1 0x20 DUP3 ADD SWAP1 POP DUP2 DUP2 SUB PUSH1 0x0 DUP4 ADD MSTORE PUSH2 0x73B5 DUP2 PUSH2 0x7379 JUMP JUMPDEST SWAP1 POP SWAP2 SWAP1 POP JUMP JUMPDEST PUSH32 0x4E487B7100000000000000000000000000000000000000000000000000000000 PUSH1 0x0 MSTORE PUSH1 0x22 PUSH1 0x4 MSTORE PUSH1 0x24 PUSH1 0x0 REVERT JUMPDEST PUSH1 0x0 PUSH1 0x2 DUP3 DIV SWAP1 POP PUSH1 0x1 DUP3 AND DUP1 PUSH2 0x7403 JUMPI PUSH1 0x7F DUP3 AND SWAP2 POP JUMPDEST PUSH1 0x20 DUP3 LT DUP2 SUB PUSH2 0x7416 JUMPI PUSH2 0x7415 PUSH2 0x73BC JUMP JUMPDEST JUMPDEST POP SWAP2 SWAP1 POP JUMP JUMPDEST PUSH32 0x617070726F76652069732064697361626C656400000000000000000000000000 PUSH1 0x0 DUP3 ADD MSTORE POP JUMP JUMPDEST PUSH1 0x0 PUSH2 0x7452 PUSH1 0x13 DUP4 PUSH2 0x685A JUMP JUMPDEST SWAP2 POP PUSH2 0x745D DUP3 PUSH2 0x741C JUMP JUMPDEST PUSH1 0x20 DUP3 ADD SWAP1 POP SWAP2 SWAP1 POP JUMP JUMPDEST PUSH1 0x0 PUSH1 0x20 DUP3 ADD SWAP1 POP DUP2 DUP2 SUB PUSH1 0x0 DUP4 ADD MSTORE PUSH2 0x7481 DUP2 PUSH2 0x7445 JUMP JUMPDEST SWAP1 POP SWAP2 SWAP1 POP JUMP JUMPDEST PUSH32 0x4E487B7100000000000000000000000000000000000000000000000000000000 PUSH1 0x0 MSTORE PUSH1 0x32 PUSH1 0x4 MSTORE PUSH1 0x24 PUSH1 0x0 REVERT JUMPDEST PUSH32 0x43616E6E6F742073657420612069737375616E63652064617465206166746572 PUSH1 0x0 DUP3 ADD MSTORE PUSH32 0x2074686520666972737420636F75706F6E206461746500000000000000000000 PUSH1 0x20 DUP3 ADD MSTORE POP JUMP JUMPDEST PUSH1 0x0 PUSH2 0x7513 PUSH1 0x36 DUP4 PUSH2 0x685A JUMP JUMPDEST SWAP2 POP PUSH2 0x751E DUP3 PUSH2 0x74B7 JUMP JUMPDEST PUSH1 0x40 DUP3 ADD SWAP1 POP SWAP2 SWAP1 POP JUMP JUMPDEST PUSH1 0x0 PUSH1 0x20 DUP3 ADD SWAP1 POP DUP2 DUP2 SUB PUSH1 0x0 DUP4 ADD MSTORE PUSH2 0x7542 DUP2 PUSH2 0x7506 JUMP JUMPDEST SWAP1 POP SWAP2 SWAP1 POP JUMP JUMPDEST PUSH32 0x4E487B7100000000000000000000000000000000000000000000000000000000 PUSH1 0x0 MSTORE PUSH1 0x11 PUSH1 0x4 MSTORE PUSH1 0x24 PUSH1 0x0 REVERT JUMPDEST PUSH1 0x0 PUSH2 0x7583 DUP3 PUSH2 0x6901 JUMP JUMPDEST SWAP2 POP PUSH2 0x758E DUP4 PUSH2 0x6901 JUMP JUMPDEST SWAP3 POP DUP3 DUP3 SUB SWAP1 POP DUP2 DUP2 GT ISZERO PUSH2 0x75A6 JUMPI PUSH2 0x75A5 PUSH2 0x7549 JUMP JUMPDEST JUMPDEST SWAP3 SWAP2 POP POP JUMP JUMPDEST PUSH32 0x43616E6E6F74207365742061206D617475726974792064617465206265666F72 PUSH1 0x0 DUP3 ADD MSTORE PUSH32 0x6520746865206C61737420636F75706F6E206461746500000000000000000000 PUSH1 0x20 DUP3 ADD MSTORE POP JUMP JUMPDEST PUSH1 0x0 PUSH2 0x7608 PUSH1 0x36 DUP4 PUSH2 0x685A JUMP JUMPDEST SWAP2 POP PUSH2 0x7613 DUP3 PUSH2 0x75AC JUMP JUMPDEST PUSH1 0x40 DUP3 ADD SWAP1 POP SWAP2 SWAP1 POP JUMP JUMPDEST PUSH1 0x0 PUSH1 0x20 DUP3 ADD SWAP1 POP DUP2 DUP2 SUB PUSH1 0x0 DUP4 ADD MSTORE PUSH2 0x7637 DUP2 PUSH2 0x75FB JUMP JUMPDEST SWAP1 POP SWAP2 SWAP1 POP JUMP JUMPDEST PUSH1 0x0 DUP2 SWAP1 POP DUP2 PUSH1 0x0 MSTORE PUSH1 0x20 PUSH1 0x0 KECCAK256 SWAP1 POP SWAP2 SWAP1 POP JUMP JUMPDEST PUSH1 0x0 PUSH1 0x20 PUSH1 0x1F DUP4 ADD DIV SWAP1 POP SWAP2 SWAP1 POP JUMP JUMPDEST PUSH1 0x0 DUP3 DUP3 SHL SWAP1 POP SWAP3 SWAP2 POP POP JUMP JUMPDEST PUSH1 0x0 PUSH1 0x8 DUP4 MUL PUSH2 0x76A0 PUSH32 0xFFFFFFFFFFFFFFFFFFFFFFFFFFFFFFFFFFFFFFFFFFFFFFFFFFFFFFFFFFFFFFFF DUP3 PUSH2 0x7663 JUMP JUMPDEST PUSH2 0x76AA DUP7 DUP4 PUSH2 0x7663 JUMP JUMPDEST SWAP6 POP DUP1 NOT DUP5 AND SWAP4 POP DUP1 DUP7 AND DUP5 OR SWAP3 POP POP POP SWAP4 SWAP3 POP POP POP JUMP JUMPDEST PUSH1 0x0 DUP2 SWAP1 POP SWAP2 SWAP1 POP JUMP JUMPDEST PUSH1 0x0 PUSH2 0x76E7 PUSH2 0x76E2 PUSH2 0x76DD DUP5 PUSH2 0x6901 JUMP JUMPDEST PUSH2 0x76C2 JUMP JUMPDEST PUSH2 0x6901 JUMP JUMPDEST SWAP1 POP SWAP2 SWAP1 POP JUMP JUMPDEST PUSH1 0x0 DUP2 SWAP1 POP SWAP2 SWAP1 POP JUMP JUMPDEST PUSH2 0x7701 DUP4 PUSH2 0x76CC JUMP JUMPDEST PUSH2 0x7715 PUSH2 0x770D DUP3 PUSH2 0x76EE JUMP JUMPDEST DUP5 DUP5 SLOAD PUSH2 0x7670 JUMP JUMPDEST DUP3 SSTORE POP POP POP POP JUMP JUMPDEST PUSH1 0x0 SWAP1 JUMP JUMPDEST PUSH2 0x772A PUSH2 0x771D JUMP JUMPDEST PUSH2 0x7735 DUP2 DUP5 DUP5 PUSH2 0x76F8 JUMP JUMPDEST POP POP POP JUMP JUMPDEST JUMPDEST DUP2 DUP2 LT ISZERO PUSH2 0x7759 JUMPI PUSH2 0x774E PUSH1 0x0 DUP3 PUSH2 0x7722 JUMP JUMPDEST PUSH1 0x1 DUP2 ADD SWAP1 POP PUSH2 0x773B JUMP JUMPDEST POP POP JUMP JUMPDEST PUSH1 0x1F DUP3 GT ISZERO PUSH2 0x779E JUMPI PUSH2 0x776F DUP2 PUSH2 0x763E JUMP JUMPDEST PUSH2 0x7778 DUP5 PUSH2 0x7653 JUMP JUMPDEST DUP2 ADD PUSH1 0x20 DUP6 LT ISZERO PUSH2 0x7787 JUMPI DUP2 SWAP1 POP JUMPDEST PUSH2 0x779B PUSH2 0x7793 DUP6 PUSH2 0x7653 JUMP JUMPDEST DUP4 ADD DUP3 PUSH2 0x773A JUMP JUMPDEST POP POP JUMPDEST POP POP POP JUMP JUMPDEST PUSH1 0x0 DUP3 DUP3 SHR SWAP1 POP SWAP3 SWAP2 POP POP JUMP JUMPDEST PUSH1 0x0 PUSH2 0x77C1 PUSH1 0x0 NOT DUP5 PUSH1 0x8 MUL PUSH2 0x77A3 JUMP JUMPDEST NOT DUP1 DUP4 AND SWAP2 POP POP SWAP3 SWAP2 POP POP JUMP JUMPDEST PUSH1 0x0 PUSH2 0x77DA DUP4 DUP4 PUSH2 0x77B0 JUMP JUMPDEST SWAP2 POP DUP3 PUSH1 0x2 MUL DUP3 OR SWAP1 POP SWAP3 SWAP2 POP POP JUMP JUMPDEST PUSH2 0x77F3 DUP3 PUSH2 0x684F JUMP JUMPDEST PUSH8 0xFFFFFFFFFFFFFFFF DUP2 GT ISZERO PUSH2 0x780C JUMPI PUSH2 0x780B PUSH2 0x69AB JUMP JUMPDEST JUMPDEST PUSH2 0x7816 DUP3 SLOAD PUSH2 0x73EB JUMP JUMPDEST PUSH2 0x7821 DUP3 DUP3 DUP6 PUSH2 0x775D JUMP JUMPDEST PUSH1 0x0 PUSH1 0x20 SWAP1 POP PUSH1 0x1F DUP4 GT PUSH1 0x1 DUP2 EQ PUSH2 0x7854 JUMPI PUSH1 0x0 DUP5 ISZERO PUSH2 0x7842 JUMPI DUP3 DUP8 ADD MLOAD SWAP1 POP JUMPDEST PUSH2 0x784C DUP6 DUP3 PUSH2 0x77CE JUMP JUMPDEST DUP7 SSTORE POP PUSH2 0x78B4 JUMP JUMPDEST PUSH1 0x1F NOT DUP5 AND PUSH2 0x7862 DUP7 PUSH2 0x763E JUMP JUMPDEST PUSH1 0x0 JUMPDEST DUP3 DUP2 LT ISZERO PUSH2 0x788A JUMPI DUP5 DUP10 ADD MLOAD DUP3 SSTORE PUSH1 0x1 DUP3 ADD SWAP2 POP PUSH1 0x20 DUP6 ADD SWAP5 POP PUSH1 0x20 DUP2 ADD SWAP1 POP PUSH2 0x7865 JUMP JUMPDEST DUP7 DUP4 LT ISZERO PUSH2 0x78A7 JUMPI DUP5 DUP10 ADD MLOAD PUSH2 0x78A3 PUSH1 0x1F DUP10 AND DUP3 PUSH2 0x77B0 JUMP JUMPDEST DUP4 SSTORE POP JUMPDEST PUSH1 0x1 PUSH1 0x2 DUP9 MUL ADD DUP9 SSTORE POP POP POP JUMPDEST POP POP POP POP POP POP JUMP JUMPDEST PUSH32 0x5468697320636F6E7472616374206973206E6F742077686974656C6973746564 PUSH1 0x0 DUP3 ADD MSTORE POP JUMP JUMPDEST PUSH1 0x0 PUSH2 0x78F2 PUSH1 0x20 DUP4 PUSH2 0x685A JUMP JUMPDEST SWAP2 POP PUSH2 0x78FD DUP3 PUSH2 0x78BC JUMP JUMPDEST PUSH1 0x20 DUP3 ADD SWAP1 POP SWAP2 SWAP1 POP JUMP JUMPDEST PUSH1 0x0 PUSH1 0x20 DUP3 ADD SWAP1 POP DUP2 DUP2 SUB PUSH1 0x0 DUP4 ADD MSTORE PUSH2 0x7921 DUP2 PUSH2 0x78E5 JUMP JUMPDEST SWAP1 POP SWAP2 SWAP1 POP JUMP JUMPDEST PUSH32 0x4E6F207472616E736665722063616E20626520646F6E65207768656E20746865 PUSH1 0x0 DUP3 ADD MSTORE PUSH32 0x2072656769737465722069732046726F7A656E00000000000000000000000000 PUSH1 0x20 DUP3 ADD MSTORE POP JUMP JUMPDEST PUSH1 0x0 PUSH2 0x7984 PUSH1 0x33 DUP4 PUSH2 0x685A JUMP JUMPDEST SWAP2 POP PUSH2 0x798F DUP3 PUSH2 0x7928 JUMP JUMPDEST PUSH1 0x40 DUP3 ADD SWAP1 POP SWAP2 SWAP1 POP JUMP JUMPDEST PUSH1 0x0 PUSH1 0x20 DUP3 ADD SWAP1 POP DUP2 DUP2 SUB PUSH1 0x0 DUP4 ADD MSTORE PUSH2 0x79B3 DUP2 PUSH2 0x7977 JUMP JUMPDEST SWAP1 POP SWAP2 SWAP1 POP JUMP JUMPDEST PUSH1 0x0 DUP2 SLOAD PUSH2 0x79C7 DUP2 PUSH2 0x73EB JUMP JUMPDEST PUSH2 0x79D1 DUP2 DUP7 PUSH2 0x685A JUMP JUMPDEST SWAP5 POP PUSH1 0x1 DUP3 AND PUSH1 0x0 DUP2 EQ PUSH2 0x79EC JUMPI PUSH1 0x1 DUP2 EQ PUSH2 0x7A02 JUMPI PUSH2 0x7A35 JUMP JUMPDEST PUSH1 0xFF NOT DUP4 AND DUP7 MSTORE DUP2 ISZERO ISZERO PUSH1 0x20 MUL DUP7 ADD SWAP4 POP PUSH2 0x7A35 JUMP JUMPDEST PUSH2 0x7A0B DUP6 PUSH2 0x763E JUMP JUMPDEST PUSH1 0x0 JUMPDEST DUP4 DUP2 LT ISZERO PUSH2 0x7A2D JUMPI DUP2 SLOAD DUP2 DUP10 ADD MSTORE PUSH1 0x1 DUP3 ADD SWAP2 POP PUSH1 0x20 DUP2 ADD SWAP1 POP PUSH2 0x7A0E JUMP JUMPDEST DUP1 DUP9 ADD SWAP6 POP POP POP JUMPDEST POP POP POP SWAP3 SWAP2 POP POP JUMP JUMPDEST PUSH1 0x0 PUSH1 0x60 DUP3 ADD SWAP1 POP DUP2 DUP2 SUB PUSH1 0x0 DUP4 ADD MSTORE PUSH2 0x7A58 DUP2 DUP7 PUSH2 0x79BA JUMP JUMPDEST SWAP1 POP DUP2 DUP2 SUB PUSH1 0x20 DUP4 ADD MSTORE PUSH2 0x7A6C DUP2 DUP6 PUSH2 0x79BA JUMP JUMPDEST SWAP1 POP PUSH2 0x7A7B PUSH1 0x40 DUP4 ADD DUP5 PUSH2 0x6C3A JUMP JUMPDEST SWAP5 SWAP4 POP POP POP POP JUMP JUMPDEST PUSH32 0x546865207265636569766572206973206E6F7420616C6C6F7765640000000000 PUSH1 0x0 DUP3 ADD MSTORE POP JUMP JUMPDEST PUSH1 0x0 PUSH2 0x7AB9 PUSH1 0x1B DUP4 PUSH2 0x685A JUMP JUMPDEST SWAP2 POP PUSH2 0x7AC4 DUP3 PUSH2 0x7A83 JUMP JUMPDEST PUSH1 0x20 DUP3 ADD SWAP1 POP SWAP2 SWAP1 POP JUMP JUMPDEST PUSH1 0x0 PUSH1 0x20 DUP3 ADD SWAP1 POP DUP2 DUP2 SUB PUSH1 0x0 DUP4 ADD MSTORE PUSH2 0x7AE8 DUP2 PUSH2 0x7AAC JUMP JUMPDEST SWAP1 POP SWAP2 SWAP1 POP JUMP JUMPDEST PUSH32 0x5468652073656E646572206973206E6F7420616C6C6F77656400000000000000 PUSH1 0x0 DUP3 ADD MSTORE POP JUMP JUMPDEST PUSH1 0x0 PUSH2 0x7B25 PUSH1 0x19 DUP4 PUSH2 0x685A JUMP JUMPDEST SWAP2 POP PUSH2 0x7B30 DUP3 PUSH2 0x7AEF JUMP JUMPDEST PUSH1 0x20 DUP3 ADD SWAP1 POP SWAP2 SWAP1 POP JUMP JUMPDEST PUSH1 0x0 PUSH1 0x20 DUP3 ADD SWAP1 POP DUP2 DUP2 SUB PUSH1 0x0 DUP4 ADD MSTORE PUSH2 0x7B54 DUP2 PUSH2 0x7B18 JUMP JUMPDEST SWAP1 POP SWAP2 SWAP1 POP JUMP JUMPDEST PUSH32 0x5573652066756E6374696F6E206368616E676541646D696E526F6C6520696E73 PUSH1 0x0 DUP3 ADD MSTORE PUSH32 0x7465616400000000000000000000000000000000000000000000000000000000 PUSH1 0x20 DUP3 ADD MSTORE POP JUMP JUMPDEST PUSH1 0x0 PUSH2 0x7BB7 PUSH1 0x24 DUP4 PUSH2 0x685A JUMP JUMPDEST SWAP2 POP PUSH2 0x7BC2 DUP3 PUSH2 0x7B5B JUMP JUMPDEST PUSH1 0x40 DUP3 ADD SWAP1 POP SWAP2 SWAP1 POP JUMP JUMPDEST PUSH1 0x0 PUSH1 0x20 DUP3 ADD SWAP1 POP DUP2 DUP2 SUB PUSH1 0x0 DUP4 ADD MSTORE PUSH2 0x7BE6 DUP2 PUSH2 0x7BAA JUMP JUMPDEST SWAP1 POP SWAP2 SWAP1 POP JUMP JUMPDEST PUSH32 0x43616C6C6572206D7573742062652043414B206F722041444D494E20746F2073 PUSH1 0x0 DUP3 ADD MSTORE PUSH32 0x657420616E6F746865722043414B000000000000000000000000000000000000 PUSH1 0x20 DUP3 ADD MSTORE POP JUMP JUMPDEST PUSH1 0x0 PUSH2 0x7C49 PUSH1 0x2E DUP4 PUSH2 0x685A JUMP JUMPDEST SWAP2 POP PUSH2 0x7C54 DUP3 PUSH2 0x7BED JUMP JUMPDEST PUSH1 0x40 DUP3 ADD SWAP1 POP SWAP2 SWAP1 POP JUMP JUMPDEST PUSH1 0x0 PUSH1 0x20 DUP3 ADD SWAP1 POP DUP2 DUP2 SUB PUSH1 0x0 DUP4 ADD MSTORE PUSH2 0x7C78 DUP2 PUSH2 0x7C3C JUMP JUMPDEST SWAP1 POP SWAP2 SWAP1 POP JUMP JUMPDEST PUSH32 0x43616C6C6572206D7573742062652043414B20746F20736574206120726F6C65 PUSH1 0x0 DUP3 ADD MSTORE POP JUMP JUMPDEST PUSH1 0x0 PUSH2 0x7CB5 PUSH1 0x20 DUP4 PUSH2 0x685A JUMP JUMPDEST SWAP2 POP PUSH2 0x7CC0 DUP3 PUSH2 0x7C7F JUMP JUMPDEST PUSH1 0x20 DUP3 ADD SWAP1 POP SWAP2 SWAP1 POP JUMP JUMPDEST PUSH1 0x0 PUSH1 0x20 DUP3 ADD SWAP1 POP DUP2 DUP2 SUB PUSH1 0x0 DUP4 ADD MSTORE PUSH2 0x7CE4 DUP2 PUSH2 0x7CA8 JUMP JUMPDEST SWAP1 POP SWAP2 SWAP1 POP JUMP JUMPDEST PUSH1 0x0 PUSH2 0x7CF6 DUP3 PUSH2 0x6901 JUMP JUMPDEST SWAP2 POP PUSH2 0x7D01 DUP4 PUSH2 0x6901 JUMP JUMPDEST SWAP3 POP DUP3 DUP3 ADD SWAP1 POP DUP1 DUP3 GT ISZERO PUSH2 0x7D19 JUMPI PUSH2 0x7D18 PUSH2 0x7549 JUMP JUMPDEST JUMPDEST SWAP3 SWAP2 POP POP JUMP JUMPDEST PUSH32 0x496E636F6E73697374656E74207265636F72642064617465206D6F7265207468 PUSH1 0x0 DUP3 ADD MSTORE PUSH32 0x616E2031302064617973206265666F726520736574746C656D656E7420646174 PUSH1 0x20 DUP3 ADD MSTORE PUSH32 0x6500000000000000000000000000000000000000000000000000000000000000 PUSH1 0x40 DUP3 ADD MSTORE POP JUMP JUMPDEST PUSH1 0x0 PUSH2 0x7DA1 PUSH1 0x41 DUP4 PUSH2 0x685A JUMP JUMPDEST SWAP2 POP PUSH2 0x7DAC DUP3 PUSH2 0x7D1F JUMP JUMPDEST PUSH1 0x60 DUP3 ADD SWAP1 POP SWAP2 SWAP1 POP JUMP JUMPDEST PUSH1 0x0 PUSH1 0x20 DUP3 ADD SWAP1 POP DUP2 DUP2 SUB PUSH1 0x0 DUP4 ADD MSTORE PUSH2 0x7DD0 DUP2 PUSH2 0x7D94 JUMP JUMPDEST SWAP1 POP SWAP2 SWAP1 POP JUMP JUMPDEST PUSH32 0x416363657373436F6E74726F6C3A2063616E206F6E6C792072656E6F756E6365 PUSH1 0x0 DUP3 ADD MSTORE PUSH32 0x20726F6C657320666F722073656C660000000000000000000000000000000000 PUSH1 0x20 DUP3 ADD MSTORE POP JUMP JUMPDEST PUSH1 0x0 PUSH2 0x7E33 PUSH1 0x2F DUP4 PUSH2 0x685A JUMP JUMPDEST SWAP2 POP PUSH2 0x7E3E DUP3 PUSH2 0x7DD7 JUMP JUMPDEST PUSH1 0x40 DUP3 ADD SWAP1 POP SWAP2 SWAP1 POP JUMP JUMPDEST PUSH1 0x0 PUSH1 0x20 DUP3 ADD SWAP1 POP DUP2 DUP2 SUB PUSH1 0x0 DUP4 ADD MSTORE PUSH2 0x7E62 DUP2 PUSH2 0x7E26 JUMP JUMPDEST SWAP1 POP SWAP2 SWAP1 POP JUMP JUMPDEST PUSH32 0x696E637265617365416C6C6F77616E63652069732064697361626C6564000000 PUSH1 0x0 DUP3 ADD MSTORE POP JUMP JUMPDEST PUSH1 0x0 PUSH2 0x7E9F PUSH1 0x1D DUP4 PUSH2 0x685A JUMP JUMPDEST SWAP2 POP PUSH2 0x7EAA DUP3 PUSH2 0x7E69 JUMP JUMPDEST PUSH1 0x20 DUP3 ADD SWAP1 POP SWAP2 SWAP1 POP JUMP JUMPDEST PUSH1 0x0 PUSH1 0x20 DUP3 ADD SWAP1 POP DUP2 DUP2 SUB PUSH1 0x0 DUP4 ADD MSTORE PUSH2 0x7ECE DUP2 PUSH2 0x7E92 JUMP JUMPDEST SWAP1 POP SWAP2 SWAP1 POP JUMP JUMPDEST PUSH32 0x43616E6E6F7420467265657A65202F20556E667265657A652074686520726567 PUSH1 0x0 DUP3 ADD MSTORE PUSH32 0x69737465722061732074686520737461747573206973206E6F74204973737565 PUSH1 0x20 DUP3 ADD MSTORE PUSH32 0x64206F722046726F7A656E000000000000000000000000000000000000000000 PUSH1 0x40 DUP3 ADD MSTORE POP JUMP JUMPDEST PUSH1 0x0 PUSH2 0x7F57 PUSH1 0x4B DUP4 PUSH2 0x685A JUMP JUMPDEST SWAP2 POP PUSH2 0x7F62 DUP3 PUSH2 0x7ED5 JUMP JUMPDEST PUSH1 0x60 DUP3 ADD SWAP1 POP SWAP2 SWAP1 POP JUMP JUMPDEST PUSH1 0x0 PUSH1 0x20 DUP3 ADD SWAP1 POP DUP2 DUP2 SUB PUSH1 0x0 DUP4 ADD MSTORE PUSH2 0x7F86 DUP2 PUSH2 0x7F4A JUMP JUMPDEST SWAP1 POP SWAP2 SWAP1 POP JUMP JUMPDEST PUSH32 0x5468697320636F75706F6E20646174652063616E6E6F742062652064656C6574 PUSH1 0x0 DUP3 ADD MSTORE PUSH32 0x6564000000000000000000000000000000000000000000000000000000000000 PUSH1 0x20 DUP3 ADD MSTORE POP JUMP JUMPDEST PUSH1 0x0 PUSH2 0x7FE9 PUSH1 0x22 DUP4 PUSH2 0x685A JUMP JUMPDEST SWAP2 POP PUSH2 0x7FF4 DUP3 PUSH2 0x7F8D JUMP JUMPDEST PUSH1 0x40 DUP3 ADD SWAP1 POP SWAP2 SWAP1 POP JUMP JUMPDEST PUSH1 0x0 PUSH1 0x20 DUP3 ADD SWAP1 POP DUP2 DUP2 SUB PUSH1 0x0 DUP4 ADD MSTORE PUSH2 0x8018 DUP2 PUSH2 0x7FDC JUMP JUMPDEST SWAP1 POP SWAP2 SWAP1 POP JUMP JUMPDEST PUSH1 0x0 PUSH2 0x802A DUP3 PUSH2 0x6901 JUMP JUMPDEST SWAP2 POP PUSH32 0xFFFFFFFFFFFFFFFFFFFFFFFFFFFFFFFFFFFFFFFFFFFFFFFFFFFFFFFFFFFFFFFF DUP3 SUB PUSH2 0x805C JUMPI PUSH2 0x805B PUSH2 0x7549 JUMP JUMPDEST JUMPDEST PUSH1 0x1 DUP3 ADD SWAP1 POP SWAP2 SWAP1 POP JUMP JUMPDEST PUSH32 0x4E487B7100000000000000000000000000000000000000000000000000000000 PUSH1 0x0 MSTORE PUSH1 0x31 PUSH1 0x4 MSTORE PUSH1 0x24 PUSH1 0x0 REVERT JUMPDEST PUSH32 0x43616E6E6F7420736574206120636F75706F6E206461746520736D616C6C6572 PUSH1 0x0 DUP3 ADD MSTORE PUSH32 0x206F7220657175616C20746F207468652069737375616E636520646174650000 PUSH1 0x20 DUP3 ADD MSTORE POP JUMP JUMPDEST PUSH1 0x0 PUSH2 0x80F2 PUSH1 0x3E DUP4 PUSH2 0x685A JUMP JUMPDEST SWAP2 POP PUSH2 0x80FD DUP3 PUSH2 0x8096 JUMP JUMPDEST PUSH1 0x40 DUP3 ADD SWAP1 POP SWAP2 SWAP1 POP JUMP JUMPDEST PUSH1 0x0 PUSH1 0x20 DUP3 ADD SWAP1 POP DUP2 DUP2 SUB PUSH1 0x0 DUP4 ADD MSTORE PUSH2 0x8121 DUP2 PUSH2 0x80E5 JUMP JUMPDEST SWAP1 POP SWAP2 SWAP1 POP JUMP JUMPDEST PUSH32 0x43616E6E6F7420736574206120636F75706F6E20646174652067726561746572 PUSH1 0x0 DUP3 ADD MSTORE PUSH32 0x206F7220657175616C20746F20746865206D6174757269747920646174650000 PUSH1 0x20 DUP3 ADD MSTORE POP JUMP JUMPDEST PUSH1 0x0 PUSH2 0x8184 PUSH1 0x3E DUP4 PUSH2 0x685A JUMP JUMPDEST SWAP2 POP PUSH2 0x818F DUP3 PUSH2 0x8128 JUMP JUMPDEST PUSH1 0x40 DUP3 ADD SWAP1 POP SWAP2 SWAP1 POP JUMP JUMPDEST PUSH1 0x0 PUSH1 0x20 DUP3 ADD SWAP1 POP DUP2 DUP2 SUB PUSH1 0x0 DUP4 ADD MSTORE PUSH2 0x81B3 DUP2 PUSH2 0x8177 JUMP JUMPDEST SWAP1 POP SWAP2 SWAP1 POP JUMP JUMPDEST PUSH32 0x43616E6E6F7420696E73657274207468697320646174652C2069742069732069 PUSH1 0x0 DUP3 ADD MSTORE PUSH32 0x6E20746865207061737400000000000000000000000000000000000000000000 PUSH1 0x20 DUP3 ADD MSTORE POP JUMP JUMPDEST PUSH1 0x0 PUSH2 0x8216 PUSH1 0x2A DUP4 PUSH2 0x685A JUMP JUMPDEST SWAP2 POP PUSH2 0x8221 DUP3 PUSH2 0x81BA JUMP JUMPDEST PUSH1 0x40 DUP3 ADD SWAP1 POP SWAP2 SWAP1 POP JUMP JUMPDEST PUSH1 0x0 PUSH1 0x20 DUP3 ADD SWAP1 POP DUP2 DUP2 SUB PUSH1 0x0 DUP4 ADD MSTORE PUSH2 0x8245 DUP2 PUSH2 0x8209 JUMP JUMPDEST SWAP1 POP SWAP2 SWAP1 POP JUMP JUMPDEST PUSH1 0x0 PUSH2 0x8257 DUP3 PUSH2 0x6901 JUMP JUMPDEST SWAP2 POP PUSH1 0x0 DUP3 SUB PUSH2 0x826A JUMPI PUSH2 0x8269 PUSH2 0x7549 JUMP JUMPDEST JUMPDEST PUSH1 0x1 DUP3 SUB SWAP1 POP SWAP2 SWAP1 POP JUMP JUMPDEST PUSH32 0x596F75206D7573742073657420746865206D696E742072656365697665722061 PUSH1 0x0 DUP3 ADD MSTORE PUSH32 0x6464726573730000000000000000000000000000000000000000000000000000 PUSH1 0x20 DUP3 ADD MSTORE POP JUMP JUMPDEST PUSH1 0x0 PUSH2 0x82D1 PUSH1 0x26 DUP4 PUSH2 0x685A JUMP JUMPDEST SWAP2 POP PUSH2 0x82DC DUP3 PUSH2 0x8275 JUMP JUMPDEST PUSH1 0x40 DUP3 ADD SWAP1 POP SWAP2 SWAP1 POP JUMP JUMPDEST PUSH1 0x0 PUSH1 0x20 DUP3 ADD SWAP1 POP DUP2 DUP2 SUB PUSH1 0x0 DUP4 ADD MSTORE PUSH2 0x8300 DUP2 PUSH2 0x82C4 JUMP JUMPDEST SWAP1 POP SWAP2 SWAP1 POP JUMP JUMPDEST PUSH32 0x6465637265617365416C6C6F77616E63652069732064697361626C6564000000 PUSH1 0x0 DUP3 ADD MSTORE POP JUMP JUMPDEST PUSH1 0x0 PUSH2 0x833D PUSH1 0x1D DUP4 PUSH2 0x685A JUMP JUMPDEST SWAP2 POP PUSH2 0x8348 DUP3 PUSH2 0x8307 JUMP JUMPDEST PUSH1 0x20 DUP3 ADD SWAP1 POP SWAP2 SWAP1 POP JUMP JUMPDEST PUSH1 0x0 PUSH1 0x20 DUP3 ADD SWAP1 POP DUP2 DUP2 SUB PUSH1 0x0 DUP4 ADD MSTORE PUSH2 0x836C DUP2 PUSH2 0x8330 JUMP JUMPDEST SWAP1 POP SWAP2 SWAP1 POP JUMP JUMPDEST PUSH32 0x7472616E736665722069732064697361626C6564000000000000000000000000 PUSH1 0x0 DUP3 ADD MSTORE POP JUMP JUMPDEST PUSH1 0x0 PUSH2 0x83A9 PUSH1 0x14 DUP4 PUSH2 0x685A JUMP JUMPDEST SWAP2 POP PUSH2 0x83B4 DUP3 PUSH2 0x8373 JUMP JUMPDEST PUSH1 0x20 DUP3 ADD SWAP1 POP SWAP2 SWAP1 POP JUMP JUMPDEST PUSH1 0x0 PUSH1 0x20 DUP3 ADD SWAP1 POP DUP2 DUP2 SUB PUSH1 0x0 DUP4 ADD MSTORE PUSH2 0x83D8 DUP2 PUSH2 0x839C JUMP JUMPDEST SWAP1 POP SWAP2 SWAP1 POP JUMP JUMPDEST PUSH32 0x54686520696E766573746F72206973206E6F742077686974656C697374656400 PUSH1 0x0 DUP3 ADD MSTORE POP JUMP JUMPDEST PUSH1 0x0 PUSH2 0x8415 PUSH1 0x1F DUP4 PUSH2 0x685A JUMP JUMPDEST SWAP2 POP PUSH2 0x8420 DUP3 PUSH2 0x83DF JUMP JUMPDEST PUSH1 0x20 DUP3 ADD SWAP1 POP SWAP2 SWAP1 POP JUMP JUMPDEST PUSH1 0x0 PUSH1 0x20 DUP3 ADD SWAP1 POP DUP2 DUP2 SUB PUSH1 0x0 DUP4 ADD MSTORE PUSH2 0x8444 DUP2 PUSH2 0x8408 JUMP JUMPDEST SWAP1 POP SWAP2 SWAP1 POP JUMP JUMPDEST PUSH1 0x0 DUP2 MLOAD SWAP1 POP PUSH2 0x845A DUP2 PUSH2 0x690B JUMP JUMPDEST SWAP3 SWAP2 POP POP JUMP JUMPDEST PUSH1 0x0 PUSH1 0x20 DUP3 DUP5 SUB SLT ISZERO PUSH2 0x8476 JUMPI PUSH2 0x8475 PUSH2 0x669C JUMP JUMPDEST JUMPDEST PUSH1 0x0 PUSH2 0x8484 DUP5 DUP3 DUP6 ADD PUSH2 0x844B JUMP JUMPDEST SWAP2 POP POP SWAP3 SWAP2 POP POP JUMP JUMPDEST PUSH32 0x72657475726E696E67207468652062616C616E636520746F2074686520707269 PUSH1 0x0 DUP3 ADD MSTORE PUSH32 0x6D6172792069737375616E63652063616E206F6E6C7920626520646F6E652061 PUSH1 0x20 DUP3 ADD MSTORE PUSH32 0x6674657220746865206D6174757269747920637574206F66662074696D650000 PUSH1 0x40 DUP3 ADD MSTORE POP JUMP JUMPDEST PUSH1 0x0 PUSH2 0x850F PUSH1 0x5E DUP4 PUSH2 0x685A JUMP JUMPDEST SWAP2 POP PUSH2 0x851A DUP3 PUSH2 0x848D JUMP JUMPDEST PUSH1 0x60 DUP3 ADD SWAP1 POP SWAP2 SWAP1 POP JUMP JUMPDEST PUSH1 0x0 PUSH1 0x20 DUP3 ADD SWAP1 POP DUP2 DUP2 SUB PUSH1 0x0 DUP4 ADD MSTORE PUSH2 0x853E DUP2 PUSH2 0x8502 JUMP JUMPDEST SWAP1 POP SWAP2 SWAP1 POP JUMP JUMPDEST PUSH32 0x6E6F2062616C616E636520746F2072657475726E20666F72207468697320696E PUSH1 0x0 DUP3 ADD MSTORE PUSH32 0x766573746F720000000000000000000000000000000000000000000000000000 PUSH1 0x20 DUP3 ADD MSTORE POP JUMP JUMPDEST PUSH1 0x0 PUSH2 0x85A1 PUSH1 0x26 DUP4 PUSH2 0x685A JUMP JUMPDEST SWAP2 POP PUSH2 0x85AC DUP3 PUSH2 0x8545 JUMP JUMPDEST PUSH1 0x40 DUP3 ADD SWAP1 POP SWAP2 SWAP1 POP JUMP JUMPDEST PUSH1 0x0 PUSH1 0x20 DUP3 ADD SWAP1 POP DUP2 DUP2 SUB PUSH1 0x0 DUP4 ADD MSTORE PUSH2 0x85D0 DUP2 PUSH2 0x8594 JUMP JUMPDEST SWAP1 POP SWAP2 SWAP1 POP JUMP JUMPDEST PUSH32 0x696E766573746F7220616464726573732063616E6E6F74206265207A65726F00 PUSH1 0x0 DUP3 ADD MSTORE POP JUMP JUMPDEST PUSH1 0x0 PUSH2 0x860D PUSH1 0x1F DUP4 PUSH2 0x685A JUMP JUMPDEST SWAP2 POP PUSH2 0x8618 DUP3 PUSH2 0x85D7 JUMP JUMPDEST PUSH1 0x20 DUP3 ADD SWAP1 POP SWAP2 SWAP1 POP JUMP JUMPDEST PUSH1 0x0 PUSH1 0x20 DUP3 ADD SWAP1 POP DUP2 DUP2 SUB PUSH1 0x0 DUP4 ADD MSTORE PUSH2 0x863C DUP2 PUSH2 0x8600 JUMP JUMPDEST SWAP1 POP SWAP2 SWAP1 POP JUMP JUMPDEST PUSH32 0x696E766573746F72206D75737420626520736574207570206669727374000000 PUSH1 0x0 DUP3 ADD MSTORE POP JUMP JUMPDEST PUSH1 0x0 PUSH2 0x8679 PUSH1 0x1D DUP4 PUSH2 0x685A JUMP JUMPDEST SWAP2 POP PUSH2 0x8684 DUP3 PUSH2 0x8643 JUMP JUMPDEST PUSH1 0x20 DUP3 ADD SWAP1 POP SWAP2 SWAP1 POP JUMP JUMPDEST PUSH1 0x0 PUSH1 0x20 DUP3 ADD SWAP1 POP DUP2 DUP2 SUB PUSH1 0x0 DUP4 ADD MSTORE PUSH2 0x86A8 DUP2 PUSH2 0x866C JUMP JUMPDEST SWAP1 POP SWAP2 SWAP1 POP JUMP JUMPDEST PUSH32 0x43616C6C6572206D757374206265204353540000000000000000000000000000 PUSH1 0x0 DUP3 ADD MSTORE POP JUMP JUMPDEST PUSH1 0x0 PUSH2 0x86E5 PUSH1 0x12 DUP4 PUSH2 0x685A JUMP JUMPDEST SWAP2 POP PUSH2 0x86F0 DUP3 PUSH2 0x86AF JUMP JUMPDEST PUSH1 0x20 DUP3 ADD SWAP1 POP SWAP2 SWAP1 POP JUMP JUMPDEST PUSH1 0x0 PUSH1 0x20 DUP3 ADD SWAP1 POP DUP2 DUP2 SUB PUSH1 0x0 DUP4 ADD MSTORE PUSH2 0x8714 DUP2 PUSH2 0x86D8 JUMP JUMPDEST SWAP1 POP SWAP2 SWAP1 POP JUMP JUMPDEST PUSH32 0x52656769737465722073686F756C6420626520696E2052656164792073746174 PUSH1 0x0 DUP3 ADD MSTORE PUSH32 0x6500000000000000000000000000000000000000000000000000000000000000 PUSH1 0x20 DUP3 ADD MSTORE POP JUMP JUMPDEST PUSH1 0x0 PUSH2 0x8777 PUSH1 0x21 DUP4 PUSH2 0x685A JUMP JUMPDEST SWAP2 POP PUSH2 0x8782 DUP3 PUSH2 0x871B JUMP JUMPDEST PUSH1 0x40 DUP3 ADD SWAP1 POP SWAP2 SWAP1 POP JUMP JUMPDEST PUSH1 0x0 PUSH1 0x20 DUP3 ADD SWAP1 POP DUP2 DUP2 SUB PUSH1 0x0 DUP4 ADD MSTORE PUSH2 0x87A6 DUP2 PUSH2 0x876A JUMP JUMPDEST SWAP1 POP SWAP2 SWAP1 POP JUMP JUMPDEST PUSH32 0x43616C6C6572206D7573742062652041444D494E20746F2072656D6F76652061 PUSH1 0x0 DUP3 ADD MSTORE PUSH32 0x2043414B00000000000000000000000000000000000000000000000000000000 PUSH1 0x20 DUP3 ADD MSTORE POP JUMP JUMPDEST PUSH1 0x0 PUSH2 0x8809 PUSH1 0x24 DUP4 PUSH2 0x685A JUMP JUMPDEST SWAP2 POP PUSH2 0x8814 DUP3 PUSH2 0x87AD JUMP JUMPDEST PUSH1 0x40 DUP3 ADD SWAP1 POP SWAP2 SWAP1 POP JUMP JUMPDEST PUSH1 0x0 PUSH1 0x20 DUP3 ADD SWAP1 POP DUP2 DUP2 SUB PUSH1 0x0 DUP4 ADD MSTORE PUSH2 0x8838 DUP2 PUSH2 0x87FC JUMP JUMPDEST SWAP1 POP SWAP2 SWAP1 POP JUMP JUMPDEST PUSH32 0x43616C6C6572206D7573742062652043414B20746F2072656D6F766520612072 PUSH1 0x0 DUP3 ADD MSTORE PUSH32 0x6F6C650000000000000000000000000000000000000000000000000000000000 PUSH1 0x20 DUP3 ADD MSTORE POP JUMP JUMPDEST PUSH1 0x0 PUSH2 0x889B PUSH1 0x23 DUP4 PUSH2 0x685A JUMP JUMPDEST SWAP2 POP PUSH2 0x88A6 DUP3 PUSH2 0x883F JUMP JUMPDEST PUSH1 0x40 DUP3 ADD SWAP1 POP SWAP2 SWAP1 POP JUMP JUMPDEST PUSH1 0x0 PUSH1 0x20 DUP3 ADD SWAP1 POP DUP2 DUP2 SUB PUSH1 0x0 DUP4 ADD MSTORE PUSH2 0x88CA DUP2 PUSH2 0x888E JUMP JUMPDEST SWAP1 POP SWAP2 SWAP1 POP JUMP JUMPDEST PUSH32 0x6C6966656379636C652076696F6C6174696F6E202D206F6E6C7920616C6C6F77 PUSH1 0x0 DUP3 ADD MSTORE PUSH32 0x6564207768656E2073746174757320697320696E206472616674000000000000 PUSH1 0x20 DUP3 ADD MSTORE POP JUMP JUMPDEST PUSH1 0x0 PUSH2 0x892D PUSH1 0x3A DUP4 PUSH2 0x685A JUMP JUMPDEST SWAP2 POP PUSH2 0x8938 DUP3 PUSH2 0x88D1 JUMP JUMPDEST PUSH1 0x40 DUP3 ADD SWAP1 POP SWAP2 SWAP1 POP JUMP JUMPDEST PUSH1 0x0 PUSH1 0x20 DUP3 ADD SWAP1 POP DUP2 DUP2 SUB PUSH1 0x0 DUP4 ADD MSTORE PUSH2 0x895C DUP2 PUSH2 0x8920 JUMP JUMPDEST SWAP1 POP SWAP2 SWAP1 POP JUMP JUMPDEST PUSH32 0x6F6E6C792074686520637573746F6469616E2063616E20646973616C6C6F7720 PUSH1 0x0 DUP3 ADD MSTORE PUSH32 0x74686520696E766573746F720000000000000000000000000000000000000000 PUSH1 0x20 DUP3 ADD MSTORE POP JUMP JUMPDEST PUSH1 0x0 PUSH2 0x89BF PUSH1 0x2C DUP4 PUSH2 0x685A JUMP JUMPDEST SWAP2 POP PUSH2 0x89CA DUP3 PUSH2 0x8963 JUMP JUMPDEST PUSH1 0x40 DUP3 ADD SWAP1 POP SWAP2 SWAP1 POP JUMP JUMPDEST PUSH1 0x0 PUSH1 0x20 DUP3 ADD SWAP1 POP DUP2 DUP2 SUB PUSH1 0x0 DUP4 ADD MSTORE PUSH2 0x89EE DUP2 PUSH2 0x89B2 JUMP JUMPDEST SWAP1 POP SWAP2 SWAP1 POP JUMP JUMPDEST PUSH32 0x5468652063616C6C6572206D7573742068617665206120726F6C6520696E2074 PUSH1 0x0 DUP3 ADD MSTORE PUSH32 0x6865207472616E73616374696F6E000000000000000000000000000000000000 PUSH1 0x20 DUP3 ADD MSTORE POP JUMP JUMPDEST PUSH1 0x0 PUSH2 0x8A51 PUSH1 0x2E DUP4 PUSH2 0x685A JUMP JUMPDEST SWAP2 POP PUSH2 0x8A5C DUP3 PUSH2 0x89F5 JUMP JUMPDEST PUSH1 0x40 DUP3 ADD SWAP1 POP SWAP2 SWAP1 POP JUMP JUMPDEST PUSH1 0x0 PUSH1 0x20 DUP3 ADD SWAP1 POP DUP2 DUP2 SUB PUSH1 0x0 DUP4 ADD MSTORE PUSH2 0x8A80 DUP2 PUSH2 0x8A44 JUMP JUMPDEST SWAP1 POP SWAP2 SWAP1 POP JUMP JUMPDEST PUSH32 0x52656769737465722073686F756C6420626520696E2044726166742073746174 PUSH1 0x0 DUP3 ADD MSTORE PUSH32 0x6500000000000000000000000000000000000000000000000000000000000000 PUSH1 0x20 DUP3 ADD MSTORE POP JUMP JUMPDEST PUSH1 0x0 PUSH2 0x8AE3 PUSH1 0x21 DUP4 PUSH2 0x685A JUMP JUMPDEST SWAP2 POP PUSH2 0x8AEE DUP3 PUSH2 0x8A87 JUMP JUMPDEST PUSH1 0x40 DUP3 ADD SWAP1 POP SWAP2 SWAP1 POP JUMP JUMPDEST PUSH1 0x0 PUSH1 0x20 DUP3 ADD SWAP1 POP DUP2 DUP2 SUB PUSH1 0x0 DUP4 ADD MSTORE PUSH2 0x8B12 DUP2 PUSH2 0x8AD6 JUMP JUMPDEST SWAP1 POP SWAP2 SWAP1 POP JUMP JUMPDEST PUSH32 0x657870656374656420737570706C792063616E6E6F74206265207A65726F0000 PUSH1 0x0 DUP3 ADD MSTORE POP JUMP JUMPDEST PUSH1 0x0 PUSH2 0x8B4F PUSH1 0x1E DUP4 PUSH2 0x685A JUMP JUMPDEST SWAP2 POP PUSH2 0x8B5A DUP3 PUSH2 0x8B19 JUMP JUMPDEST PUSH1 0x20 DUP3 ADD SWAP1 POP SWAP2 SWAP1 POP JUMP JUMPDEST PUSH1 0x0 PUSH1 0x20 DUP3 ADD SWAP1 POP DUP2 DUP2 SUB PUSH1 0x0 DUP4 ADD MSTORE PUSH2 0x8B7E DUP2 PUSH2 0x8B42 JUMP JUMPDEST SWAP1 POP SWAP2 SWAP1 POP JUMP JUMPDEST PUSH32 0x45524332303A207472616E736665722066726F6D20746865207A65726F206164 PUSH1 0x0 DUP3 ADD MSTORE PUSH32 0x6472657373000000000000000000000000000000000000000000000000000000 PUSH1 0x20 DUP3 ADD MSTORE POP JUMP JUMPDEST PUSH1 0x0 PUSH2 0x8BE1 PUSH1 0x25 DUP4 PUSH2 0x685A JUMP JUMPDEST SWAP2 POP PUSH2 0x8BEC DUP3 PUSH2 0x8B85 JUMP JUMPDEST PUSH1 0x40 DUP3 ADD SWAP1 POP SWAP2 SWAP1 POP JUMP JUMPDEST PUSH1 0x0 PUSH1 0x20 DUP3 ADD SWAP1 POP DUP2 DUP2 SUB PUSH1 0x0 DUP4 ADD MSTORE PUSH2 0x8C10 DUP2 PUSH2 0x8BD4 JUMP JUMPDEST SWAP1 POP SWAP2 SWAP1 POP JUMP JUMPDEST PUSH32 0x45524332303A207472616E7366657220746F20746865207A65726F2061646472 PUSH1 0x0 DUP3 ADD MSTORE PUSH32 0x6573730000000000000000000000000000000000000000000000000000000000 PUSH1 0x20 DUP3 ADD MSTORE POP JUMP JUMPDEST PUSH1 0x0 PUSH2 0x8C73 PUSH1 0x23 DUP4 PUSH2 0x685A JUMP JUMPDEST SWAP2 POP PUSH2 0x8C7E DUP3 PUSH2 0x8C17 JUMP JUMPDEST PUSH1 0x40 DUP3 ADD SWAP1 POP SWAP2 SWAP1 POP JUMP JUMPDEST PUSH1 0x0 PUSH1 0x20 DUP3 ADD SWAP1 POP DUP2 DUP2 SUB PUSH1 0x0 DUP4 ADD MSTORE PUSH2 0x8CA2 DUP2 PUSH2 0x8C66 JUMP JUMPDEST SWAP1 POP SWAP2 SWAP1 POP JUMP JUMPDEST PUSH32 0x45524332303A207472616E7366657220616D6F756E7420657863656564732062 PUSH1 0x0 DUP3 ADD MSTORE PUSH32 0x616C616E63650000000000000000000000000000000000000000000000000000 PUSH1 0x20 DUP3 ADD MSTORE POP JUMP JUMPDEST PUSH1 0x0 PUSH2 0x8D05 PUSH1 0x26 DUP4 PUSH2 0x685A JUMP JUMPDEST SWAP2 POP PUSH2 0x8D10 DUP3 PUSH2 0x8CA9 JUMP JUMPDEST PUSH1 0x40 DUP3 ADD SWAP1 POP SWAP2 SWAP1 POP JUMP JUMPDEST PUSH1 0x0 PUSH1 0x20 DUP3 ADD SWAP1 POP DUP2 DUP2 SUB PUSH1 0x0 DUP4 ADD MSTORE PUSH2 0x8D34 DUP2 PUSH2 0x8CF8 JUMP JUMPDEST SWAP1 POP SWAP2 SWAP1 POP JUMP JUMPDEST PUSH32 0x746865207265636F726420646174652063616E6E6F7420626520616674657220 PUSH1 0x0 DUP3 ADD MSTORE PUSH32 0x74686520736574746C656D656E74206461746500000000000000000000000000 PUSH1 0x20 DUP3 ADD MSTORE POP JUMP JUMPDEST PUSH1 0x0 PUSH2 0x8D97 PUSH1 0x33 DUP4 PUSH2 0x685A JUMP JUMPDEST SWAP2 POP PUSH2 0x8DA2 DUP3 PUSH2 0x8D3B JUMP JUMPDEST PUSH1 0x40 DUP3 ADD SWAP1 POP SWAP2 SWAP1 POP JUMP JUMPDEST PUSH1 0x0 PUSH1 0x20 DUP3 ADD SWAP1 POP DUP2 DUP2 SUB PUSH1 0x0 DUP4 ADD MSTORE PUSH2 0x8DC6 DUP2 PUSH2 0x8D8A JUMP JUMPDEST SWAP1 POP SWAP2 SWAP1 POP JUMP JUMPDEST PUSH32 0x696E76616C6964206E6578742064617465207768656E2073657474696E672074 PUSH1 0x0 DUP3 ADD MSTORE PUSH32 0x68652063757272656E7420736E617073686F74206461746574696D6500000000 PUSH1 0x20 DUP3 ADD MSTORE POP JUMP JUMPDEST PUSH1 0x0 PUSH2 0x8E29 PUSH1 0x3C DUP4 PUSH2 0x685A JUMP JUMPDEST SWAP2 POP PUSH2 0x8E34 DUP3 PUSH2 0x8DCD JUMP JUMPDEST PUSH1 0x40 DUP3 ADD SWAP1 POP SWAP2 SWAP1 POP JUMP JUMPDEST PUSH1 0x0 PUSH1 0x20 DUP3 ADD SWAP1 POP DUP2 DUP2 SUB PUSH1 0x0 DUP4 ADD MSTORE PUSH2 0x8E58 DUP2 PUSH2 0x8E1C JUMP JUMPDEST SWAP1 POP SWAP2 SWAP1 POP JUMP JUMPDEST PUSH32 0x44617465206F6620636F75706F6E206F72206D6174757269747920616C726561 PUSH1 0x0 DUP3 ADD MSTORE PUSH32 0x64792074616B656E000000000000000000000000000000000000000000000000 PUSH1 0x20 DUP3 ADD MSTORE POP JUMP JUMPDEST PUSH1 0x0 PUSH2 0x8EBB PUSH1 0x28 DUP4 PUSH2 0x685A JUMP JUMPDEST SWAP2 POP PUSH2 0x8EC6 DUP3 PUSH2 0x8E5F JUMP JUMPDEST PUSH1 0x40 DUP3 ADD SWAP1 POP SWAP2 SWAP1 POP JUMP JUMPDEST PUSH1 0x0 PUSH1 0x20 DUP3 ADD SWAP1 POP DUP2 DUP2 SUB PUSH1 0x0 DUP4 ADD MSTORE PUSH2 0x8EEA DUP2 PUSH2 0x8EAE JUMP JUMPDEST SWAP1 POP SWAP2 SWAP1 POP JUMP JUMPDEST PUSH32 0x796F75206861766520746F20646566696E652061206E657720706572696F6420 PUSH1 0x0 DUP3 ADD MSTORE PUSH32 0x656E64696E67206166746572207468652063757272656E742074696D65000000 PUSH1 0x20 DUP3 ADD MSTORE POP JUMP JUMPDEST PUSH1 0x0 PUSH2 0x8F4D PUSH1 0x3D DUP4 PUSH2 0x685A JUMP JUMPDEST SWAP2 POP PUSH2 0x8F58 DUP3 PUSH2 0x8EF1 JUMP JUMPDEST PUSH1 0x40 DUP3 ADD SWAP1 POP SWAP2 SWAP1 POP JUMP JUMPDEST PUSH1 0x0 PUSH1 0x20 DUP3 ADD SWAP1 POP DUP2 DUP2 SUB PUSH1 0x0 DUP4 ADD MSTORE PUSH2 0x8F7C DUP2 PUSH2 0x8F40 JUMP JUMPDEST SWAP1 POP SWAP2 SWAP1 POP JUMP JUMPDEST PUSH32 0x666F72636520666C616720616C7265616479207365742C20636865636B20636F PUSH1 0x0 DUP3 ADD MSTORE PUSH32 0x6465000000000000000000000000000000000000000000000000000000000000 PUSH1 0x20 DUP3 ADD MSTORE POP JUMP JUMPDEST PUSH1 0x0 PUSH2 0x8FDF PUSH1 0x22 DUP4 PUSH2 0x685A JUMP JUMPDEST SWAP2 POP PUSH2 0x8FEA DUP3 PUSH2 0x8F83 JUMP JUMPDEST PUSH1 0x40 DUP3 ADD SWAP1 POP SWAP2 SWAP1 POP JUMP JUMPDEST PUSH1 0x0 PUSH1 0x20 DUP3 ADD SWAP1 POP DUP2 DUP2 SUB PUSH1 0x0 DUP4 ADD MSTORE PUSH2 0x900E DUP2 PUSH2 0x8FD2 JUMP JUMPDEST SWAP1 POP SWAP2 SWAP1 POP JUMP JUMPDEST PUSH32 0x45524332303A206275726E2066726F6D20746865207A65726F20616464726573 PUSH1 0x0 DUP3 ADD MSTORE PUSH32 0x7300000000000000000000000000000000000000000000000000000000000000 PUSH1 0x20 DUP3 ADD MSTORE POP JUMP JUMPDEST PUSH1 0x0 PUSH2 0x9071 PUSH1 0x21 DUP4 PUSH2 0x685A JUMP JUMPDEST SWAP2 POP PUSH2 0x907C DUP3 PUSH2 0x9015 JUMP JUMPDEST PUSH1 0x40 DUP3 ADD SWAP1 POP SWAP2 SWAP1 POP JUMP JUMPDEST PUSH1 0x0 PUSH1 0x20 DUP3 ADD SWAP1 POP DUP2 DUP2 SUB PUSH1 0x0 DUP4 ADD MSTORE PUSH2 0x90A0 DUP2 PUSH2 0x9064 JUMP JUMPDEST SWAP1 POP SWAP2 SWAP1 POP JUMP JUMPDEST PUSH32 0x45524332303A206275726E20616D6F756E7420657863656564732062616C616E PUSH1 0x0 DUP3 ADD MSTORE PUSH32 0x6365000000000000000000000000000000000000000000000000000000000000 PUSH1 0x20 DUP3 ADD MSTORE POP JUMP JUMPDEST PUSH1 0x0 PUSH2 0x9103 PUSH1 0x22 DUP4 PUSH2 0x685A JUMP JUMPDEST SWAP2 POP PUSH2 0x910E DUP3 PUSH2 0x90A7 JUMP JUMPDEST PUSH1 0x40 DUP3 ADD SWAP1 POP SWAP2 SWAP1 POP JUMP JUMPDEST PUSH1 0x0 PUSH1 0x20 DUP3 ADD SWAP1 POP DUP2 DUP2 SUB PUSH1 0x0 DUP4 ADD MSTORE PUSH2 0x9132 DUP2 PUSH2 0x90F6 JUMP JUMPDEST SWAP1 POP SWAP2 SWAP1 POP JUMP JUMPDEST PUSH32 0x4552433230536E617073686F743A206964206973203000000000000000000000 PUSH1 0x0 DUP3 ADD MSTORE POP JUMP JUMPDEST PUSH1 0x0 PUSH2 0x916F PUSH1 0x16 DUP4 PUSH2 0x685A JUMP JUMPDEST SWAP2 POP PUSH2 0x917A DUP3 PUSH2 0x9139 JUMP JUMPDEST PUSH1 0x20 DUP3 ADD SWAP1 POP SWAP2 SWAP1 POP JUMP JUMPDEST PUSH1 0x0 PUSH1 0x20 DUP3 ADD SWAP1 POP DUP2 DUP2 SUB PUSH1 0x0 DUP4 ADD MSTORE PUSH2 0x919E DUP2 PUSH2 0x9162 JUMP JUMPDEST SWAP1 POP SWAP2 SWAP1 POP JUMP JUMPDEST PUSH32 0x4552433230536E617073686F743A206E6F6E6578697374656E74206964000000 PUSH1 0x0 DUP3 ADD MSTORE POP JUMP JUMPDEST PUSH1 0x0 PUSH2 0x91DB PUSH1 0x1D DUP4 PUSH2 0x685A JUMP JUMPDEST SWAP2 POP PUSH2 0x91E6 DUP3 PUSH2 0x91A5 JUMP JUMPDEST PUSH1 0x20 DUP3 ADD SWAP1 POP SWAP2 SWAP1 POP JUMP JUMPDEST PUSH1 0x0 PUSH1 0x20 DUP3 ADD SWAP1 POP DUP2 DUP2 SUB PUSH1 0x0 DUP4 ADD MSTORE PUSH2 0x920A DUP2 PUSH2 0x91CE JUMP JUMPDEST SWAP1 POP SWAP2 SWAP1 POP JUMP JUMPDEST PUSH32 0x45524332303A206D696E7420746F20746865207A65726F206164647265737300 PUSH1 0x0 DUP3 ADD MSTORE POP JUMP JUMPDEST PUSH1 0x0 PUSH2 0x9247 PUSH1 0x1F DUP4 PUSH2 0x685A JUMP JUMPDEST SWAP2 POP PUSH2 0x9252 DUP3 PUSH2 0x9211 JUMP JUMPDEST PUSH1 0x20 DUP3 ADD SWAP1 POP SWAP2 SWAP1 POP JUMP JUMPDEST PUSH1 0x0 PUSH1 0x20 DUP3 ADD SWAP1 POP DUP2 DUP2 SUB PUSH1 0x0 DUP4 ADD MSTORE PUSH2 0x9276 DUP2 PUSH2 0x923A JUMP JUMPDEST SWAP1 POP SWAP2 SWAP1 POP JUMP JUMPDEST PUSH1 0x0 DUP2 SWAP1 POP SWAP3 SWAP2 POP POP JUMP JUMPDEST PUSH32 0x416363657373436F6E74726F6C3A206163636F756E7420000000000000000000 PUSH1 0x0 DUP3 ADD MSTORE POP JUMP JUMPDEST PUSH1 0x0 PUSH2 0x92BE PUSH1 0x17 DUP4 PUSH2 0x927D JUMP JUMPDEST SWAP2 POP PUSH2 0x92C9 DUP3 PUSH2 0x9288 JUMP JUMPDEST PUSH1 0x17 DUP3 ADD SWAP1 POP SWAP2 SWAP1 POP JUMP JUMPDEST PUSH1 0x0 PUSH2 0x92DF DUP3 PUSH2 0x684F JUMP JUMPDEST PUSH2 0x92E9 DUP2 DUP6 PUSH2 0x927D JUMP JUMPDEST SWAP4 POP PUSH2 0x92F9 DUP2 DUP6 PUSH1 0x20 DUP7 ADD PUSH2 0x686B JUMP JUMPDEST DUP1 DUP5 ADD SWAP2 POP POP SWAP3 SWAP2 POP POP JUMP JUMPDEST PUSH32 0x206973206D697373696E6720726F6C6520000000000000000000000000000000 PUSH1 0x0 DUP3 ADD MSTORE POP JUMP JUMPDEST PUSH1 0x0 PUSH2 0x933B PUSH1 0x11 DUP4 PUSH2 0x927D JUMP JUMPDEST SWAP2 POP PUSH2 0x9346 DUP3 PUSH2 0x9305 JUMP JUMPDEST PUSH1 0x11 DUP3 ADD SWAP1 POP SWAP2 SWAP1 POP JUMP JUMPDEST PUSH1 0x0 PUSH2 0x935C DUP3 PUSH2 0x92B1 JUMP JUMPDEST SWAP2 POP PUSH2 0x9368 DUP3 DUP6 PUSH2 0x92D4 JUMP JUMPDEST SWAP2 POP PUSH2 0x9373 DUP3 PUSH2 0x932E JUMP JUMPDEST SWAP2 POP PUSH2 0x937F DUP3 DUP5 PUSH2 0x92D4 JUMP JUMPDEST SWAP2 POP DUP2 SWAP1 POP SWAP4 SWAP3 POP POP POP JUMP JUMPDEST PUSH32 0x74686520526567697374657220697320636C6F73656400000000000000000000 PUSH1 0x0 DUP3 ADD MSTORE POP JUMP JUMPDEST PUSH1 0x0 PUSH2 0x93C1 PUSH1 0x16 DUP4 PUSH2 0x685A JUMP JUMPDEST SWAP2 POP PUSH2 0x93CC DUP3 PUSH2 0x938B JUMP JUMPDEST PUSH1 0x20 DUP3 ADD SWAP1 POP SWAP2 SWAP1 POP JUMP JUMPDEST PUSH1 0x0 PUSH1 0x20 DUP3 ADD SWAP1 POP DUP2 DUP2 SUB PUSH1 0x0 DUP4 ADD MSTORE PUSH2 0x93F0 DUP2 PUSH2 0x93B4 JUMP JUMPDEST SWAP1 POP SWAP2 SWAP1 POP JUMP JUMPDEST PUSH32 0x4E487B7100000000000000000000000000000000000000000000000000000000 PUSH1 0x0 MSTORE PUSH1 0x12 PUSH1 0x4 MSTORE PUSH1 0x24 PUSH1 0x0 REVERT JUMPDEST PUSH1 0x0 PUSH2 0x9431 DUP3 PUSH2 0x6901 JUMP JUMPDEST SWAP2 POP PUSH2 0x943C DUP4 PUSH2 0x6901 JUMP JUMPDEST SWAP3 POP DUP3 PUSH2 0x944C JUMPI PUSH2 0x944B PUSH2 0x93F7 JUMP JUMPDEST JUMPDEST DUP3 DUP3 MOD SWAP1 POP SWAP3 SWAP2 POP POP JUMP JUMPDEST PUSH1 0x0 PUSH2 0x9462 DUP3 PUSH2 0x6901 JUMP JUMPDEST SWAP2 POP PUSH2 0x946D DUP4 PUSH2 0x6901 JUMP JUMPDEST SWAP3 POP DUP3 DUP3 MUL PUSH2 0x947B DUP2 PUSH2 0x6901 JUMP JUMPDEST SWAP2 POP DUP3 DUP3 DIV DUP5 EQ DUP4 ISZERO OR PUSH2 0x9492 JUMPI PUSH2 0x9491 PUSH2 0x7549 JUMP JUMPDEST JUMPDEST POP SWAP3 SWAP2 POP POP JUMP JUMPDEST PUSH32 0x537472696E67733A20686578206C656E67746820696E73756666696369656E74 PUSH1 0x0 DUP3 ADD MSTORE POP JUMP JUMPDEST PUSH1 0x0 PUSH2 0x94CF PUSH1 0x20 DUP4 PUSH2 0x685A JUMP JUMPDEST SWAP2 POP PUSH2 0x94DA DUP3 PUSH2 0x9499 JUMP JUMPDEST PUSH1 0x20 DUP3 ADD SWAP1 POP SWAP2 SWAP1 POP JUMP JUMPDEST PUSH1 0x0 PUSH1 0x20 DUP3 ADD SWAP1 POP DUP2 DUP2 SUB PUSH1 0x0 DUP4 ADD MSTORE PUSH2 0x94FE DUP2 PUSH2 0x94C2 JUMP JUMPDEST SWAP1 POP SWAP2 SWAP1 POP JUMP JUMPDEST PUSH32 0x746865207265676973746572206973206C6F636B65642062656361757365206E PUSH1 0x0 DUP3 ADD MSTORE PUSH32 0x6F20636F75706F6E206973207072657061726564206F7220746865206D617475 PUSH1 0x20 DUP3 ADD MSTORE PUSH32 0x7269747920697320726561636865640000000000000000000000000000000000 PUSH1 0x40 DUP3 ADD MSTORE POP JUMP JUMPDEST PUSH1 0x0 PUSH2 0x9587 PUSH1 0x4F DUP4 PUSH2 0x685A JUMP JUMPDEST SWAP2 POP PUSH2 0x9592 DUP3 PUSH2 0x9505 JUMP JUMPDEST PUSH1 0x60 DUP3 ADD SWAP1 POP SWAP2 SWAP1 POP JUMP JUMPDEST PUSH1 0x0 PUSH1 0x20 DUP3 ADD SWAP1 POP DUP2 DUP2 SUB PUSH1 0x0 DUP4 ADD MSTORE PUSH2 0x95B6 DUP2 PUSH2 0x957A JUMP JUMPDEST SWAP1 POP SWAP2 SWAP1 POP JUMP JUMPDEST PUSH32 0x746865206D61747572697479206375742D6F66662074696D6520686173207061 PUSH1 0x0 DUP3 ADD MSTORE PUSH32 0x7373656400000000000000000000000000000000000000000000000000000000 PUSH1 0x20 DUP3 ADD MSTORE POP JUMP JUMPDEST PUSH1 0x0 PUSH2 0x9619 PUSH1 0x24 DUP4 PUSH2 0x685A JUMP JUMPDEST SWAP2 POP PUSH2 0x9624 DUP3 PUSH2 0x95BD JUMP JUMPDEST PUSH1 0x40 DUP3 ADD SWAP1 POP SWAP2 SWAP1 POP JUMP JUMPDEST PUSH1 0x0 PUSH1 0x20 DUP3 ADD SWAP1 POP DUP2 DUP2 SUB PUSH1 0x0 DUP4 ADD MSTORE PUSH2 0x9648 DUP2 PUSH2 0x960C JUMP JUMPDEST SWAP1 POP SWAP2 SWAP1 POP JUMP JUMPDEST PUSH1 0x0 PUSH2 0x965A DUP3 PUSH2 0x6901 JUMP JUMPDEST SWAP2 POP PUSH2 0x9665 DUP4 PUSH2 0x6901 JUMP JUMPDEST SWAP3 POP DUP3 PUSH2 0x9675 JUMPI PUSH2 0x9674 PUSH2 0x93F7 JUMP JUMPDEST JUMPDEST DUP3 DUP3 DIV SWAP1 POP SWAP3 SWAP2 POP POP JUMP INVALID LOG2 PUSH5 0x6970667358 0x22 SLT KECCAK256 0x25 0x4F PUSH30 0xDCFC10DF0F9E246CC2BEF9D6ED035EA5DACEE27F7EB8A4A6753CB0FD3F64 PUSH20 0x6F6C634300081100330000000000000000000000 "
		},
		"gasEstimates": {
			"creation": {
				"codeDepositCost": "7716400",
				"executionCost": "infinite",
				"totalCost": "infinite"
			},
			"external": {
				"BND_ROLE()": "486",
				"CAK_ROLE()": "484",
				"CST_ROLE()": "486",
				"DEFAULT_ADMIN_ROLE()": "469",
				"PAY_ROLE()": "464",
				"_addressForNewAdmin()": "2580",
				"_contractsAllowed(bytes32)": "2907",
				"_firstVoterForNewAdmin()": "2626",
				"_primaryIssuanceAccount()": "2581",
				"_votesForNewAdmin()": "2610",
				"addCouponDate(uint256)": "infinite",
				"allowance(address,address)": "infinite",
				"approve(address,uint256)": "1008",
				"atReturningHash(address)": "infinite",
				"balanceOf(address)": "2953",
				"balanceOfAt(address,uint256)": "infinite",
				"balanceOfCoupon(address,uint256)": "infinite",
				"burn(uint256)": "infinite",
				"changeAdminRole(address)": "infinite",
				"checkIfCouponDateExists(uint256)": "infinite",
				"checkIfMaturityDateExists(uint256)": "2787",
				"currentCouponDate()": "2547",
				"currentSnapshotDatetime()": "2505",
				"decimals()": "491",
				"decreaseAllowance(address,uint256)": "985",
				"delCouponDate(uint256)": "infinite",
				"disableContractFromWhitelist(bytes32)": "infinite",
				"disableInvestorFromWhitelist(address)": "infinite",
				"enableContractToWhitelist(bytes32)": "infinite",
				"enableInvestorToWhitelist(address)": "infinite",
				"getAllInvestors()": "infinite",
				"getBondCouponRate()": "2534",
				"getBondData()": "infinite",
				"getBondUnitValue()": "2555",
				"getCreationDate()": "2532",
				"getInvestorListAtCoupon(uint256)": "infinite",
				"getIssuanceDate()": "2511",
				"getRoleAdmin(bytes32)": "infinite",
				"grantBndRole(address)": "infinite",
				"grantCakRole(address)": "infinite",
				"grantCstRole(address)": "infinite",
				"grantPayRole(address)": "infinite",
				"grantRole(bytes32,address)": "infinite",
				"hasRole(bytes32,address)": "3231",
				"increaseAllowance(address,uint256)": "1030",
				"investorCustodian(address)": "infinite",
				"investorsAllowed(address)": "3094",
				"isBnD(address)": "3105",
				"isCAK(address)": "3127",
				"isCallerApprovedSmartContract()": "infinite",
				"isCustodian(address)": "3193",
				"isPay(address)": "3103",
				"makeReady()": "infinite",
				"mint(uint256)": "infinite",
				"name()": "infinite",
				"nextSnapshotDatetime()": "2569",
				"primaryIssuanceAccount()": "2655",
				"publicMessage(address,string)": "infinite",
				"registerAdmin()": "2582",
				"renounceRole(bytes32,address)": "infinite",
				"returnBalanceToPrimaryIssuanceAccount(address)": "infinite",
				"revertReady()": "infinite",
				"revokeBndRole(address)": "infinite",
				"revokeCakRole(address)": "infinite",
				"revokeCstRole(address)": "infinite",
				"revokePayRole(address)": "infinite",
				"revokeRole(bytes32,address)": "infinite",
				"setBondData(string,uint256,bytes32,uint256,uint256,uint256,uint256,uint256)": "infinite",
				"setCreationDate(uint256)": "25013",
				"setCurrency(bytes32)": "infinite",
				"setCurrentCouponDate(uint256,uint256)": "infinite",
				"setExpectedSupply(uint256)": "27222",
				"setIsinSymbol(string)": "infinite",
				"setIssuanceDate(uint256)": "24989",
				"setName(string)": "infinite",
				"status()": "2629",
				"supportsInterface(bytes4)": "819",
				"symbol()": "infinite",
				"toggleFrozen()": "infinite",
				"totalSupply()": "2572",
				"totalSupplyAt(uint256)": "infinite",
				"totalSupplyAtCoupon(uint256)": "infinite",
				"transfer(address,uint256)": "1051",
				"transferFrom(address,address,uint256)": "infinite"
			},
			"internal": {
				"_beforeTokenTransfer(address,address,uint256)": "infinite",
				"_enableInvestor(address,address)": "infinite",
				"_initCurrentCoupon()": "infinite",
				"_initInvestor(address,address,bool)": "146070",
				"_nextCouponDate(uint256)": "infinite",
				"canManageSmartContracts()": "2386",
				"findCouponIndex(uint256)": "infinite"
			}
		},
		"methodIdentifiers": {
			"BND_ROLE()": "2682ac91",
			"CAK_ROLE()": "8865f1e2",
			"CST_ROLE()": "1c67a363",
			"DEFAULT_ADMIN_ROLE()": "a217fddf",
			"PAY_ROLE()": "3bf2a9f4",
			"_addressForNewAdmin()": "e336c590",
			"_contractsAllowed(bytes32)": "806ba100",
			"_firstVoterForNewAdmin()": "2f962866",
			"_primaryIssuanceAccount()": "aed054d5",
			"_votesForNewAdmin()": "7dc35505",
			"addCouponDate(uint256)": "7469538a",
			"allowance(address,address)": "dd62ed3e",
			"approve(address,uint256)": "095ea7b3",
			"atReturningHash(address)": "a1962183",
			"balanceOf(address)": "70a08231",
			"balanceOfAt(address,uint256)": "4ee2cd7e",
			"balanceOfCoupon(address,uint256)": "07b2d9e3",
			"burn(uint256)": "42966c68",
			"changeAdminRole(address)": "04b8c471",
			"checkIfCouponDateExists(uint256)": "71c41f8a",
			"checkIfMaturityDateExists(uint256)": "d4cdda91",
			"currentCouponDate()": "e5bf6dc8",
			"currentSnapshotDatetime()": "9ef986de",
			"decimals()": "313ce567",
			"decreaseAllowance(address,uint256)": "a457c2d7",
			"delCouponDate(uint256)": "3e7e8713",
			"disableContractFromWhitelist(bytes32)": "d696fb0b",
			"disableInvestorFromWhitelist(address)": "d5c0beeb",
			"enableContractToWhitelist(bytes32)": "d614284a",
			"enableInvestorToWhitelist(address)": "d1ec6de8",
			"getAllInvestors()": "d0a2f2c4",
			"getBondCouponRate()": "39027f7c",
			"getBondData()": "63896d19",
			"getBondUnitValue()": "a7f2f6ec",
			"getCreationDate()": "b90c1dbb",
			"getInvestorListAtCoupon(uint256)": "7cc7bcce",
			"getIssuanceDate()": "2877d473",
			"getRoleAdmin(bytes32)": "248a9ca3",
			"grantBndRole(address)": "cc80473c",
			"grantCakRole(address)": "a28f78f8",
			"grantCstRole(address)": "f690c6c5",
			"grantPayRole(address)": "00a9303d",
			"grantRole(bytes32,address)": "2f2ff15d",
			"hasRole(bytes32,address)": "91d14854",
			"increaseAllowance(address,uint256)": "39509351",
			"investorCustodian(address)": "8f92f490",
			"investorsAllowed(address)": "c41251a1",
			"isBnD(address)": "a55234b8",
			"isCAK(address)": "4361f92a",
			"isCallerApprovedSmartContract()": "c2faae59",
			"isCustodian(address)": "35c80c8c",
			"isPay(address)": "e3965d54",
			"makeReady()": "dc16722b",
			"mint(uint256)": "a0712d68",
			"name()": "06fdde03",
			"nextSnapshotDatetime()": "eeb4cee9",
			"primaryIssuanceAccount()": "8784ff18",
			"publicMessage(address,string)": "d9a79978",
			"registerAdmin()": "5ab6f71b",
			"renounceRole(bytes32,address)": "36568abe",
			"returnBalanceToPrimaryIssuanceAccount(address)": "abc2cf2a",
			"revertReady()": "d46be608",
			"revokeBndRole(address)": "c1f4250b",
			"revokeCakRole(address)": "8e1305de",
			"revokeCstRole(address)": "222ca340",
			"revokePayRole(address)": "f60d9ea1",
			"revokeRole(bytes32,address)": "d547741f",
			"setBondData(string,uint256,bytes32,uint256,uint256,uint256,uint256,uint256)": "17559df0",
			"setCreationDate(uint256)": "93c39393",
			"setCurrency(bytes32)": "06ec8ca6",
			"setCurrentCouponDate(uint256,uint256)": "3052974c",
			"setExpectedSupply(uint256)": "d58c80b4",
			"setIsinSymbol(string)": "4e0b0dcf",
			"setIssuanceDate(uint256)": "d8eab9a5",
			"setName(string)": "c47f0027",
			"status()": "200d2ed2",
			"supportsInterface(bytes4)": "01ffc9a7",
			"symbol()": "95d89b41",
			"toggleFrozen()": "3e4be639",
			"totalSupply()": "18160ddd",
			"totalSupplyAt(uint256)": "981b24d0",
			"totalSupplyAtCoupon(uint256)": "cf5b3628",
			"transfer(address,uint256)": "a9059cbb",
			"transferFrom(address,address,uint256)": "23b872dd"
		}
	},
	"abi": [
		{
			"inputs": [
				{
					"internalType": "string",
					"name": "name_",
					"type": "string"
				},
				{
					"internalType": "string",
					"name": "isin_",
					"type": "string"
				},
				{
					"internalType": "uint256",
					"name": "expectedSupply_",
					"type": "uint256"
				},
				{
					"internalType": "bytes32",
					"name": "currency_",
					"type": "bytes32"
				},
				{
					"internalType": "uint256",
					"name": "unitVal_",
					"type": "uint256"
				},
				{
					"internalType": "uint256",
					"name": "couponRate_",
					"type": "uint256"
				},
				{
					"internalType": "uint256",
					"name": "creationDate_",
					"type": "uint256"
				},
				{
					"internalType": "uint256",
					"name": "issuanceDate_",
					"type": "uint256"
				},
				{
					"internalType": "uint256",
					"name": "maturityDate_",
					"type": "uint256"
				},
				{
					"internalType": "uint256[]",
					"name": "couponDates_",
					"type": "uint256[]"
				},
				{
					"internalType": "uint256",
					"name": "cutofftime_",
					"type": "uint256"
				}
			],
			"stateMutability": "nonpayable",
			"type": "constructor"
		},
		{
			"anonymous": false,
			"inputs": [
				{
					"indexed": true,
					"internalType": "address",
					"name": "_addressForNewAdmin",
					"type": "address"
				}
			],
			"name": "AdminChanged",
			"type": "event"
		},
		{
			"anonymous": false,
			"inputs": [
				{
					"indexed": true,
					"internalType": "address",
					"name": "owner",
					"type": "address"
				},
				{
					"indexed": true,
					"internalType": "address",
					"name": "spender",
					"type": "address"
				},
				{
					"indexed": false,
					"internalType": "uint256",
					"name": "value",
					"type": "uint256"
				}
			],
			"name": "Approval",
			"type": "event"
		},
		{
			"anonymous": false,
			"inputs": [
				{
					"indexed": false,
					"internalType": "bytes32",
					"name": "contractHash",
					"type": "bytes32"
				}
			],
			"name": "DisableContract",
			"type": "event"
		},
		{
			"anonymous": false,
			"inputs": [
				{
					"indexed": false,
					"internalType": "address",
					"name": "investor",
					"type": "address"
				}
			],
			"name": "DisableInvestor",
			"type": "event"
		},
		{
			"anonymous": false,
			"inputs": [
				{
					"indexed": false,
					"internalType": "bytes32",
					"name": "contractHash",
					"type": "bytes32"
				}
			],
			"name": "EnableContract",
			"type": "event"
		},
		{
			"anonymous": false,
			"inputs": [
				{
					"indexed": false,
					"internalType": "address",
					"name": "investor",
					"type": "address"
				}
			],
			"name": "EnableInvestor",
			"type": "event"
		},
		{
			"anonymous": false,
			"inputs": [
				{
					"indexed": true,
					"internalType": "address",
					"name": "creator",
					"type": "address"
				},
				{
					"indexed": false,
					"internalType": "string",
					"name": "name",
					"type": "string"
				},
				{
					"indexed": false,
					"internalType": "string",
					"name": "isin",
					"type": "string"
				}
			],
			"name": "NewBondDrafted",
			"type": "event"
		},
		{
			"anonymous": false,
			"inputs": [
				{
					"indexed": true,
					"internalType": "address",
					"name": "sender",
					"type": "address"
				},
				{
					"indexed": true,
					"internalType": "address",
					"name": "target",
					"type": "address"
				},
				{
					"indexed": false,
					"internalType": "string",
					"name": "message",
					"type": "string"
				}
			],
			"name": "PublicMessage",
			"type": "event"
		},
		{
			"anonymous": false,
			"inputs": [
				{
					"indexed": true,
					"internalType": "address",
					"name": "emiter",
					"type": "address"
				},
				{
					"indexed": false,
					"internalType": "string",
					"name": "name",
					"type": "string"
				},
				{
					"indexed": false,
					"internalType": "string",
					"name": "isin",
					"type": "string"
				},
				{
					"indexed": false,
					"internalType": "enum IRegister.Status",
					"name": "status",
					"type": "uint8"
				}
			],
			"name": "RegisterStatusChanged",
			"type": "event"
		},
		{
			"anonymous": false,
			"inputs": [
				{
					"indexed": true,
					"internalType": "bytes32",
					"name": "role",
					"type": "bytes32"
				},
				{
					"indexed": true,
					"internalType": "bytes32",
					"name": "previousAdminRole",
					"type": "bytes32"
				},
				{
					"indexed": true,
					"internalType": "bytes32",
					"name": "newAdminRole",
					"type": "bytes32"
				}
			],
			"name": "RoleAdminChanged",
			"type": "event"
		},
		{
			"anonymous": false,
			"inputs": [
				{
					"indexed": true,
					"internalType": "bytes32",
					"name": "role",
					"type": "bytes32"
				},
				{
					"indexed": true,
					"internalType": "address",
					"name": "account",
					"type": "address"
				},
				{
					"indexed": true,
					"internalType": "address",
					"name": "sender",
					"type": "address"
				}
			],
			"name": "RoleGranted",
			"type": "event"
		},
		{
			"anonymous": false,
			"inputs": [
				{
					"indexed": true,
					"internalType": "bytes32",
					"name": "role",
					"type": "bytes32"
				},
				{
					"indexed": true,
					"internalType": "address",
					"name": "account",
					"type": "address"
				},
				{
					"indexed": true,
					"internalType": "address",
					"name": "sender",
					"type": "address"
				}
			],
			"name": "RoleRevoked",
			"type": "event"
		},
		{
			"anonymous": false,
			"inputs": [
				{
					"indexed": false,
					"internalType": "uint256",
					"name": "id",
					"type": "uint256"
				}
			],
			"name": "Snapshot",
			"type": "event"
		},
		{
			"anonymous": false,
			"inputs": [
				{
					"indexed": true,
					"internalType": "uint256",
					"name": "couponDate",
					"type": "uint256"
				},
				{
					"indexed": true,
					"internalType": "uint256",
					"name": "currentTimestamp",
					"type": "uint256"
				},
				{
					"indexed": true,
					"internalType": "uint256",
					"name": "nextTimestamp",
					"type": "uint256"
				}
			],
			"name": "SnapshotTimestampChange",
			"type": "event"
		},
		{
			"anonymous": false,
			"inputs": [
				{
					"indexed": true,
					"internalType": "address",
					"name": "from",
					"type": "address"
				},
				{
					"indexed": true,
					"internalType": "address",
					"name": "to",
					"type": "address"
				},
				{
					"indexed": false,
					"internalType": "uint256",
					"name": "value",
					"type": "uint256"
				}
			],
			"name": "Transfer",
			"type": "event"
		},
		{
			"anonymous": false,
			"inputs": [
				{
					"indexed": true,
					"internalType": "address",
					"name": "toBeAdded",
					"type": "address"
				}
			],
			"name": "WalletAddedToWhitelist",
			"type": "event"
		},
		{
			"anonymous": false,
			"inputs": [
				{
					"indexed": true,
					"internalType": "address",
					"name": "toBeDeleted",
					"type": "address"
				}
			],
			"name": "WalletDeletedFromWhitelist",
			"type": "event"
		},
		{
			"inputs": [],
			"name": "BND_ROLE",
			"outputs": [
				{
					"internalType": "bytes32",
					"name": "",
					"type": "bytes32"
				}
			],
			"stateMutability": "view",
			"type": "function"
		},
		{
			"inputs": [],
			"name": "CAK_ROLE",
			"outputs": [
				{
					"internalType": "bytes32",
					"name": "",
					"type": "bytes32"
				}
			],
			"stateMutability": "view",
			"type": "function"
		},
		{
			"inputs": [],
			"name": "CST_ROLE",
			"outputs": [
				{
					"internalType": "bytes32",
					"name": "",
					"type": "bytes32"
				}
			],
			"stateMutability": "view",
			"type": "function"
		},
		{
			"inputs": [],
			"name": "DEFAULT_ADMIN_ROLE",
			"outputs": [
				{
					"internalType": "bytes32",
					"name": "",
					"type": "bytes32"
				}
			],
			"stateMutability": "view",
			"type": "function"
		},
		{
			"inputs": [],
			"name": "PAY_ROLE",
			"outputs": [
				{
					"internalType": "bytes32",
					"name": "",
					"type": "bytes32"
				}
			],
			"stateMutability": "view",
			"type": "function"
		},
		{
			"inputs": [],
			"name": "_addressForNewAdmin",
			"outputs": [
				{
					"internalType": "address",
					"name": "",
					"type": "address"
				}
			],
			"stateMutability": "view",
			"type": "function"
		},
		{
			"inputs": [
				{
					"internalType": "bytes32",
					"name": "",
					"type": "bytes32"
				}
			],
			"name": "_contractsAllowed",
			"outputs": [
				{
					"internalType": "bool",
					"name": "",
					"type": "bool"
				}
			],
			"stateMutability": "view",
			"type": "function"
		},
		{
			"inputs": [],
			"name": "_firstVoterForNewAdmin",
			"outputs": [
				{
					"internalType": "address",
					"name": "",
					"type": "address"
				}
			],
			"stateMutability": "view",
			"type": "function"
		},
		{
			"inputs": [],
			"name": "_primaryIssuanceAccount",
			"outputs": [
				{
					"internalType": "address",
					"name": "",
					"type": "address"
				}
			],
			"stateMutability": "view",
			"type": "function"
		},
		{
			"inputs": [],
			"name": "_votesForNewAdmin",
			"outputs": [
				{
					"internalType": "uint8",
					"name": "",
					"type": "uint8"
				}
			],
			"stateMutability": "view",
			"type": "function"
		},
		{
			"inputs": [
				{
					"internalType": "uint256",
					"name": "date",
					"type": "uint256"
				}
			],
			"name": "addCouponDate",
			"outputs": [],
			"stateMutability": "nonpayable",
			"type": "function"
		},
		{
			"inputs": [
				{
					"internalType": "address",
					"name": "owner",
					"type": "address"
				},
				{
					"internalType": "address",
					"name": "spender",
					"type": "address"
				}
			],
			"name": "allowance",
			"outputs": [
				{
					"internalType": "uint256",
					"name": "",
					"type": "uint256"
				}
			],
			"stateMutability": "view",
			"type": "function"
		},
		{
			"inputs": [
				{
					"internalType": "address",
					"name": "",
					"type": "address"
				},
				{
					"internalType": "uint256",
					"name": "",
					"type": "uint256"
				}
			],
			"name": "approve",
			"outputs": [
				{
					"internalType": "bool",
					"name": "",
					"type": "bool"
				}
			],
			"stateMutability": "nonpayable",
			"type": "function"
		},
		{
			"inputs": [
				{
					"internalType": "address",
					"name": "addr_",
					"type": "address"
				}
			],
			"name": "atReturningHash",
			"outputs": [
				{
					"internalType": "bytes32",
					"name": "hash",
					"type": "bytes32"
				}
			],
			"stateMutability": "view",
			"type": "function"
		},
		{
			"inputs": [
				{
					"internalType": "address",
					"name": "account",
					"type": "address"
				}
			],
			"name": "balanceOf",
			"outputs": [
				{
					"internalType": "uint256",
					"name": "",
					"type": "uint256"
				}
			],
			"stateMutability": "view",
			"type": "function"
		},
		{
			"inputs": [
				{
					"internalType": "address",
					"name": "account",
					"type": "address"
				},
				{
					"internalType": "uint256",
					"name": "snapshotId",
					"type": "uint256"
				}
			],
			"name": "balanceOfAt",
			"outputs": [
				{
					"internalType": "uint256",
					"name": "",
					"type": "uint256"
				}
			],
			"stateMutability": "view",
			"type": "function"
		},
		{
			"inputs": [
				{
					"internalType": "address",
					"name": "account",
					"type": "address"
				},
				{
					"internalType": "uint256",
					"name": "_couponDate",
					"type": "uint256"
				}
			],
			"name": "balanceOfCoupon",
			"outputs": [
				{
					"internalType": "uint256",
					"name": "",
					"type": "uint256"
				}
			],
			"stateMutability": "view",
			"type": "function"
		},
		{
			"inputs": [
				{
					"internalType": "uint256",
					"name": "amount_",
					"type": "uint256"
				}
			],
			"name": "burn",
			"outputs": [],
			"stateMutability": "nonpayable",
			"type": "function"
		},
		{
			"inputs": [
				{
					"internalType": "address",
					"name": "account_",
					"type": "address"
				}
			],
			"name": "changeAdminRole",
			"outputs": [],
			"stateMutability": "nonpayable",
			"type": "function"
		},
		{
			"inputs": [
				{
					"internalType": "uint256",
					"name": "_couponDate",
					"type": "uint256"
				}
			],
			"name": "checkIfCouponDateExists",
			"outputs": [
				{
					"internalType": "bool",
					"name": "",
					"type": "bool"
				}
			],
			"stateMutability": "view",
			"type": "function"
		},
		{
			"inputs": [
				{
					"internalType": "uint256",
					"name": "_maturityDate",
					"type": "uint256"
				}
			],
			"name": "checkIfMaturityDateExists",
			"outputs": [
				{
					"internalType": "bool",
					"name": "",
					"type": "bool"
				}
			],
			"stateMutability": "view",
			"type": "function"
		},
		{
			"inputs": [],
			"name": "currentCouponDate",
			"outputs": [
				{
					"internalType": "uint256",
					"name": "",
					"type": "uint256"
				}
			],
			"stateMutability": "view",
			"type": "function"
		},
		{
			"inputs": [],
			"name": "currentSnapshotDatetime",
			"outputs": [
				{
					"internalType": "uint256",
					"name": "",
					"type": "uint256"
				}
			],
			"stateMutability": "view",
			"type": "function"
		},
		{
			"inputs": [],
			"name": "decimals",
			"outputs": [
				{
					"internalType": "uint8",
					"name": "",
					"type": "uint8"
				}
			],
			"stateMutability": "view",
			"type": "function"
		},
		{
			"inputs": [
				{
					"internalType": "address",
					"name": "",
					"type": "address"
				},
				{
					"internalType": "uint256",
					"name": "",
					"type": "uint256"
				}
			],
			"name": "decreaseAllowance",
			"outputs": [
				{
					"internalType": "bool",
					"name": "",
					"type": "bool"
				}
			],
			"stateMutability": "nonpayable",
			"type": "function"
		},
		{
			"inputs": [
				{
					"internalType": "uint256",
					"name": "date",
					"type": "uint256"
				}
			],
			"name": "delCouponDate",
			"outputs": [],
			"stateMutability": "nonpayable",
			"type": "function"
		},
		{
			"inputs": [
				{
					"internalType": "bytes32",
					"name": "contractHash_",
					"type": "bytes32"
				}
			],
			"name": "disableContractFromWhitelist",
			"outputs": [],
			"stateMutability": "nonpayable",
			"type": "function"
		},
		{
			"inputs": [
				{
					"internalType": "address",
					"name": "investor_",
					"type": "address"
				}
			],
			"name": "disableInvestorFromWhitelist",
			"outputs": [],
			"stateMutability": "nonpayable",
			"type": "function"
		},
		{
			"inputs": [
				{
					"internalType": "bytes32",
					"name": "contractHash_",
					"type": "bytes32"
				}
			],
			"name": "enableContractToWhitelist",
			"outputs": [],
			"stateMutability": "nonpayable",
			"type": "function"
		},
		{
			"inputs": [
				{
					"internalType": "address",
					"name": "investor_",
					"type": "address"
				}
			],
			"name": "enableInvestorToWhitelist",
			"outputs": [],
			"stateMutability": "nonpayable",
			"type": "function"
		},
		{
			"inputs": [],
			"name": "getAllInvestors",
			"outputs": [
				{
					"internalType": "address[]",
					"name": "",
					"type": "address[]"
				}
			],
			"stateMutability": "view",
			"type": "function"
		},
		{
			"inputs": [],
			"name": "getBondCouponRate",
			"outputs": [
				{
					"internalType": "uint256",
					"name": "",
					"type": "uint256"
				}
			],
			"stateMutability": "view",
			"type": "function"
		},
		{
			"inputs": [],
			"name": "getBondData",
			"outputs": [
				{
					"components": [
						{
							"internalType": "string",
							"name": "name",
							"type": "string"
						},
						{
							"internalType": "string",
							"name": "isin",
							"type": "string"
						},
						{
							"internalType": "uint256",
							"name": "expectedSupply",
							"type": "uint256"
						},
						{
							"internalType": "bytes32",
							"name": "currency",
							"type": "bytes32"
						},
						{
							"internalType": "uint256",
							"name": "unitValue",
							"type": "uint256"
						},
						{
							"internalType": "uint256",
							"name": "couponRate",
							"type": "uint256"
						},
						{
							"internalType": "uint256",
							"name": "creationDate",
							"type": "uint256"
						},
						{
							"internalType": "uint256",
							"name": "issuanceDate",
							"type": "uint256"
						},
						{
							"internalType": "uint256",
							"name": "maturityDate",
							"type": "uint256"
						},
						{
							"internalType": "uint256[]",
							"name": "couponDates",
							"type": "uint256[]"
						},
						{
							"internalType": "uint256",
							"name": "cutOffTime",
							"type": "uint256"
						}
					],
					"internalType": "struct IRegisterMetadata.BondData",
					"name": "",
					"type": "tuple"
				}
			],
			"stateMutability": "view",
			"type": "function"
		},
		{
			"inputs": [],
			"name": "getBondUnitValue",
			"outputs": [
				{
					"internalType": "uint256",
					"name": "",
					"type": "uint256"
				}
			],
			"stateMutability": "view",
			"type": "function"
		},
		{
			"inputs": [],
			"name": "getCreationDate",
			"outputs": [
				{
					"internalType": "uint256",
					"name": "",
					"type": "uint256"
				}
			],
			"stateMutability": "view",
			"type": "function"
		},
		{
			"inputs": [
				{
					"internalType": "uint256",
					"name": "CouponDate",
					"type": "uint256"
				}
			],
			"name": "getInvestorListAtCoupon",
			"outputs": [
				{
					"internalType": "address[]",
					"name": "",
					"type": "address[]"
				}
			],
			"stateMutability": "view",
			"type": "function"
		},
		{
			"inputs": [],
			"name": "getIssuanceDate",
			"outputs": [
				{
					"internalType": "uint256",
					"name": "",
					"type": "uint256"
				}
			],
			"stateMutability": "view",
			"type": "function"
		},
		{
			"inputs": [
				{
					"internalType": "bytes32",
					"name": "role",
					"type": "bytes32"
				}
			],
			"name": "getRoleAdmin",
			"outputs": [
				{
					"internalType": "bytes32",
					"name": "",
					"type": "bytes32"
				}
			],
			"stateMutability": "view",
			"type": "function"
		},
		{
			"inputs": [
				{
					"internalType": "address",
					"name": "bndAddress_",
					"type": "address"
				}
			],
			"name": "grantBndRole",
			"outputs": [],
			"stateMutability": "nonpayable",
			"type": "function"
		},
		{
			"inputs": [
				{
					"internalType": "address",
					"name": "cakAddress_",
					"type": "address"
				}
			],
			"name": "grantCakRole",
			"outputs": [],
			"stateMutability": "nonpayable",
			"type": "function"
		},
		{
			"inputs": [
				{
					"internalType": "address",
					"name": "cstAddress_",
					"type": "address"
				}
			],
			"name": "grantCstRole",
			"outputs": [],
			"stateMutability": "nonpayable",
			"type": "function"
		},
		{
			"inputs": [
				{
					"internalType": "address",
					"name": "payAddress_",
					"type": "address"
				}
			],
			"name": "grantPayRole",
			"outputs": [],
			"stateMutability": "nonpayable",
			"type": "function"
		},
		{
			"inputs": [
				{
					"internalType": "bytes32",
					"name": "role",
					"type": "bytes32"
				},
				{
					"internalType": "address",
					"name": "account",
					"type": "address"
				}
			],
			"name": "grantRole",
			"outputs": [],
			"stateMutability": "nonpayable",
			"type": "function"
		},
		{
			"inputs": [
				{
					"internalType": "bytes32",
					"name": "role",
					"type": "bytes32"
				},
				{
					"internalType": "address",
					"name": "account",
					"type": "address"
				}
			],
			"name": "hasRole",
			"outputs": [
				{
					"internalType": "bool",
					"name": "",
					"type": "bool"
				}
			],
			"stateMutability": "view",
			"type": "function"
		},
		{
			"inputs": [
				{
					"internalType": "address",
					"name": "",
					"type": "address"
				},
				{
					"internalType": "uint256",
					"name": "",
					"type": "uint256"
				}
			],
			"name": "increaseAllowance",
			"outputs": [
				{
					"internalType": "bool",
					"name": "",
					"type": "bool"
				}
			],
			"stateMutability": "nonpayable",
			"type": "function"
		},
		{
			"inputs": [
				{
					"internalType": "address",
					"name": "investor",
					"type": "address"
				}
			],
			"name": "investorCustodian",
			"outputs": [
				{
					"internalType": "address",
					"name": "",
					"type": "address"
				}
			],
			"stateMutability": "view",
			"type": "function"
		},
		{
			"inputs": [
				{
					"internalType": "address",
					"name": "investor",
					"type": "address"
				}
			],
			"name": "investorsAllowed",
			"outputs": [
				{
					"internalType": "bool",
					"name": "",
					"type": "bool"
				}
			],
			"stateMutability": "view",
			"type": "function"
		},
		{
			"inputs": [
				{
					"internalType": "address",
					"name": "account",
					"type": "address"
				}
			],
			"name": "isBnD",
			"outputs": [
				{
					"internalType": "bool",
					"name": "",
					"type": "bool"
				}
			],
			"stateMutability": "view",
			"type": "function"
		},
		{
			"inputs": [
				{
					"internalType": "address",
					"name": "account",
					"type": "address"
				}
			],
			"name": "isCAK",
			"outputs": [
				{
					"internalType": "bool",
					"name": "",
					"type": "bool"
				}
			],
			"stateMutability": "view",
			"type": "function"
		},
		{
			"inputs": [],
			"name": "isCallerApprovedSmartContract",
			"outputs": [
				{
					"internalType": "bool",
					"name": "",
					"type": "bool"
				}
			],
			"stateMutability": "view",
			"type": "function"
		},
		{
			"inputs": [
				{
					"internalType": "address",
					"name": "account",
					"type": "address"
				}
			],
			"name": "isCustodian",
			"outputs": [
				{
					"internalType": "bool",
					"name": "",
					"type": "bool"
				}
			],
			"stateMutability": "view",
			"type": "function"
		},
		{
			"inputs": [
				{
					"internalType": "address",
					"name": "account",
					"type": "address"
				}
			],
			"name": "isPay",
			"outputs": [
				{
					"internalType": "bool",
					"name": "",
					"type": "bool"
				}
			],
			"stateMutability": "view",
			"type": "function"
		},
		{
			"inputs": [],
			"name": "makeReady",
			"outputs": [],
			"stateMutability": "nonpayable",
			"type": "function"
		},
		{
			"inputs": [
				{
					"internalType": "uint256",
					"name": "amount_",
					"type": "uint256"
				}
			],
			"name": "mint",
			"outputs": [],
			"stateMutability": "nonpayable",
			"type": "function"
		},
		{
			"inputs": [],
			"name": "name",
			"outputs": [
				{
					"internalType": "string",
					"name": "",
					"type": "string"
				}
			],
			"stateMutability": "view",
			"type": "function"
		},
		{
			"inputs": [],
			"name": "nextSnapshotDatetime",
			"outputs": [
				{
					"internalType": "uint256",
					"name": "",
					"type": "uint256"
				}
			],
			"stateMutability": "view",
			"type": "function"
		},
		{
			"inputs": [],
			"name": "primaryIssuanceAccount",
			"outputs": [
				{
					"internalType": "address",
					"name": "",
					"type": "address"
				}
			],
			"stateMutability": "view",
			"type": "function"
		},
		{
			"inputs": [
				{
					"internalType": "address",
					"name": "to",
					"type": "address"
				},
				{
					"internalType": "string",
					"name": "message",
					"type": "string"
				}
			],
			"name": "publicMessage",
			"outputs": [],
			"stateMutability": "nonpayable",
			"type": "function"
		},
		{
			"inputs": [],
			"name": "registerAdmin",
			"outputs": [
				{
					"internalType": "address",
					"name": "",
					"type": "address"
				}
			],
			"stateMutability": "view",
			"type": "function"
		},
		{
			"inputs": [
				{
					"internalType": "bytes32",
					"name": "role",
					"type": "bytes32"
				},
				{
					"internalType": "address",
					"name": "account",
					"type": "address"
				}
			],
			"name": "renounceRole",
			"outputs": [],
			"stateMutability": "nonpayable",
			"type": "function"
		},
		{
			"inputs": [
				{
					"internalType": "address",
					"name": "investor",
					"type": "address"
				}
			],
			"name": "returnBalanceToPrimaryIssuanceAccount",
			"outputs": [
				{
					"internalType": "bool",
					"name": "",
					"type": "bool"
				}
			],
			"stateMutability": "nonpayable",
			"type": "function"
		},
		{
			"inputs": [],
			"name": "revertReady",
			"outputs": [],
			"stateMutability": "nonpayable",
			"type": "function"
		},
		{
			"inputs": [
				{
					"internalType": "address",
					"name": "bndAddress_",
					"type": "address"
				}
			],
			"name": "revokeBndRole",
			"outputs": [],
			"stateMutability": "nonpayable",
			"type": "function"
		},
		{
			"inputs": [
				{
					"internalType": "address",
					"name": "cakAddress_",
					"type": "address"
				}
			],
			"name": "revokeCakRole",
			"outputs": [],
			"stateMutability": "nonpayable",
			"type": "function"
		},
		{
			"inputs": [
				{
					"internalType": "address",
					"name": "cstAddress_",
					"type": "address"
				}
			],
			"name": "revokeCstRole",
			"outputs": [],
			"stateMutability": "nonpayable",
			"type": "function"
		},
		{
			"inputs": [
				{
					"internalType": "address",
					"name": "payAddress_",
					"type": "address"
				}
			],
			"name": "revokePayRole",
			"outputs": [],
			"stateMutability": "nonpayable",
			"type": "function"
		},
		{
			"inputs": [
				{
					"internalType": "bytes32",
					"name": "role",
					"type": "bytes32"
				},
				{
					"internalType": "address",
					"name": "account",
					"type": "address"
				}
			],
			"name": "revokeRole",
			"outputs": [],
			"stateMutability": "nonpayable",
			"type": "function"
		},
		{
			"inputs": [
				{
					"internalType": "string",
					"name": "name_",
					"type": "string"
				},
				{
					"internalType": "uint256",
					"name": "expectedSupply_",
					"type": "uint256"
				},
				{
					"internalType": "bytes32",
					"name": "currency_",
					"type": "bytes32"
				},
				{
					"internalType": "uint256",
					"name": "unitVal_",
					"type": "uint256"
				},
				{
					"internalType": "uint256",
					"name": "couponRate_",
					"type": "uint256"
				},
				{
					"internalType": "uint256",
					"name": "issuanceDate_",
					"type": "uint256"
				},
				{
					"internalType": "uint256",
					"name": "maturityDate_",
					"type": "uint256"
				},
				{
					"internalType": "uint256",
					"name": "cutofftime_",
					"type": "uint256"
				}
			],
			"name": "setBondData",
			"outputs": [],
			"stateMutability": "nonpayable",
			"type": "function"
		},
		{
			"inputs": [
				{
					"internalType": "uint256",
					"name": "creationDate_",
					"type": "uint256"
				}
			],
			"name": "setCreationDate",
			"outputs": [],
			"stateMutability": "nonpayable",
			"type": "function"
		},
		{
			"inputs": [
				{
					"internalType": "bytes32",
					"name": "currency_",
					"type": "bytes32"
				}
			],
			"name": "setCurrency",
			"outputs": [],
			"stateMutability": "nonpayable",
			"type": "function"
		},
		{
			"inputs": [
				{
					"internalType": "uint256",
					"name": "couponDate_",
					"type": "uint256"
				},
				{
					"internalType": "uint256",
					"name": "recordDatetime_",
					"type": "uint256"
				}
			],
			"name": "setCurrentCouponDate",
			"outputs": [],
			"stateMutability": "nonpayable",
			"type": "function"
		},
		{
			"inputs": [
				{
					"internalType": "uint256",
					"name": "expectedSupply_",
					"type": "uint256"
				}
			],
			"name": "setExpectedSupply",
			"outputs": [],
			"stateMutability": "nonpayable",
			"type": "function"
		},
		{
			"inputs": [
				{
					"internalType": "string",
					"name": "isinSymbol_",
					"type": "string"
				}
			],
			"name": "setIsinSymbol",
			"outputs": [],
			"stateMutability": "nonpayable",
			"type": "function"
		},
		{
			"inputs": [
				{
					"internalType": "uint256",
					"name": "issuanceDate_",
					"type": "uint256"
				}
			],
			"name": "setIssuanceDate",
			"outputs": [],
			"stateMutability": "nonpayable",
			"type": "function"
		},
		{
			"inputs": [
				{
					"internalType": "string",
					"name": "name_",
					"type": "string"
				}
			],
			"name": "setName",
			"outputs": [],
			"stateMutability": "nonpayable",
			"type": "function"
		},
		{
			"inputs": [],
			"name": "status",
			"outputs": [
				{
					"internalType": "enum IRegister.Status",
					"name": "",
					"type": "uint8"
				}
			],
			"stateMutability": "view",
			"type": "function"
		},
		{
			"inputs": [
				{
					"internalType": "bytes4",
					"name": "interfaceId",
					"type": "bytes4"
				}
			],
			"name": "supportsInterface",
			"outputs": [
				{
					"internalType": "bool",
					"name": "",
					"type": "bool"
				}
			],
			"stateMutability": "view",
			"type": "function"
		},
		{
			"inputs": [],
			"name": "symbol",
			"outputs": [
				{
					"internalType": "string",
					"name": "",
					"type": "string"
				}
			],
			"stateMutability": "view",
			"type": "function"
		},
		{
			"inputs": [],
			"name": "toggleFrozen",
			"outputs": [],
			"stateMutability": "nonpayable",
			"type": "function"
		},
		{
			"inputs": [],
			"name": "totalSupply",
			"outputs": [
				{
					"internalType": "uint256",
					"name": "",
					"type": "uint256"
				}
			],
			"stateMutability": "view",
			"type": "function"
		},
		{
			"inputs": [
				{
					"internalType": "uint256",
					"name": "snapshotId",
					"type": "uint256"
				}
			],
			"name": "totalSupplyAt",
			"outputs": [
				{
					"internalType": "uint256",
					"name": "",
					"type": "uint256"
				}
			],
			"stateMutability": "view",
			"type": "function"
		},
		{
			"inputs": [
				{
					"internalType": "uint256",
					"name": "_couponDate",
					"type": "uint256"
				}
			],
			"name": "totalSupplyAtCoupon",
			"outputs": [
				{
					"internalType": "uint256",
					"name": "",
					"type": "uint256"
				}
			],
			"stateMutability": "view",
			"type": "function"
		},
		{
			"inputs": [
				{
					"internalType": "address",
					"name": "",
					"type": "address"
				},
				{
					"internalType": "uint256",
					"name": "",
					"type": "uint256"
				}
			],
			"name": "transfer",
			"outputs": [
				{
					"internalType": "bool",
					"name": "",
					"type": "bool"
				}
			],
			"stateMutability": "nonpayable",
			"type": "function"
		},
		{
			"inputs": [
				{
					"internalType": "address",
					"name": "from_",
					"type": "address"
				},
				{
					"internalType": "address",
					"name": "to_",
					"type": "address"
				},
				{
					"internalType": "uint256",
					"name": "amount_",
					"type": "uint256"
				}
			],
			"name": "transferFrom",
			"outputs": [
				{
					"internalType": "bool",
					"name": "",
					"type": "bool"
				}
			],
			"stateMutability": "nonpayable",
			"type": "function"
		}
	]
}