{
  "_format": "hh-sol-artifact-1",
  "contractName": "DoublyLinkedListAddressMock",
  "sourceName": "contracts/data/DoublyLinkedListAddressMock.sol",
  "abi": [
    {
      "inputs": [],
      "name": "DoublyLinkedList__InvalidInput",
      "type": "error"
    },
    {
      "inputs": [],
      "name": "DoublyLinkedList__NonExistentEntry",
      "type": "error"
    },
    {
      "inputs": [
        {
          "internalType": "address",
          "name": "value",
          "type": "address"
        }
      ],
      "name": "contains",
      "outputs": [
        {
          "internalType": "bool",
          "name": "",
          "type": "bool"
        }
      ],
      "stateMutability": "view",
      "type": "function"
    },
    {
      "inputs": [
        {
          "internalType": "address",
          "name": "prevValue",
          "type": "address"
        },
        {
          "internalType": "address",
          "name": "newValue",
          "type": "address"
        }
      ],
      "name": "insertAfter",
      "outputs": [
        {
          "internalType": "bool",
          "name": "",
          "type": "bool"
        }
      ],
      "stateMutability": "nonpayable",
      "type": "function"
    },
    {
      "inputs": [
        {
          "internalType": "address",
          "name": "nextValue",
          "type": "address"
        },
        {
          "internalType": "address",
          "name": "newValue",
          "type": "address"
        }
      ],
      "name": "insertBefore",
      "outputs": [
        {
          "internalType": "bool",
          "name": "",
          "type": "bool"
        }
      ],
      "stateMutability": "nonpayable",
      "type": "function"
    },
    {
      "inputs": [
        {
          "internalType": "address",
          "name": "value",
          "type": "address"
        }
      ],
      "name": "next",
      "outputs": [
        {
          "internalType": "address",
          "name": "",
          "type": "address"
        }
      ],
      "stateMutability": "view",
      "type": "function"
    },
    {
      "inputs": [],
      "name": "pop",
      "outputs": [
        {
          "internalType": "address",
          "name": "",
          "type": "address"
        }
      ],
      "stateMutability": "nonpayable",
      "type": "function"
    },
    {
      "inputs": [
        {
          "internalType": "address",
          "name": "value",
          "type": "address"
        }
      ],
      "name": "prev",
      "outputs": [
        {
          "internalType": "address",
          "name": "",
          "type": "address"
        }
      ],
      "stateMutability": "view",
      "type": "function"
    },
    {
      "inputs": [
        {
          "internalType": "address",
          "name": "value",
          "type": "address"
        }
      ],
      "name": "push",
      "outputs": [
        {
          "internalType": "bool",
          "name": "",
          "type": "bool"
        }
      ],
      "stateMutability": "nonpayable",
      "type": "function"
    },
    {
      "inputs": [
        {
          "internalType": "address",
          "name": "value",
          "type": "address"
        }
      ],
      "name": "remove",
      "outputs": [
        {
          "internalType": "bool",
          "name": "",
          "type": "bool"
        }
      ],
      "stateMutability": "nonpayable",
      "type": "function"
    },
    {
      "inputs": [
        {
          "internalType": "address",
          "name": "oldValue",
          "type": "address"
        },
        {
          "internalType": "address",
          "name": "newValue",
          "type": "address"
        }
      ],
      "name": "replace",
      "outputs": [
        {
          "internalType": "bool",
          "name": "",
          "type": "bool"
        }
      ],
      "stateMutability": "nonpayable",
      "type": "function"
    },
    {
      "inputs": [],
      "name": "shift",
      "outputs": [
        {
          "internalType": "address",
          "name": "",
          "type": "address"
        }
      ],
      "stateMutability": "nonpayable",
      "type": "function"
    },
    {
      "inputs": [
        {
          "internalType": "address",
          "name": "value",
          "type": "address"
        }
      ],
      "name": "unshift",
      "outputs": [
        {
          "internalType": "bool",
          "name": "",
          "type": "bool"
        }
      ],
      "stateMutability": "nonpayable",
      "type": "function"
    }
  ],
  "bytecode": "0x608060405234801561001057600080fd5b50610671806100206000396000f3fe608060405234801561001057600080fd5b50600436106100c95760003560e01c8063631de4d611610081578063a4ece52c1161005b578063a4ece52c14610188578063ab73e31614610190578063dc712cfd146101a357600080fd5b8063631de4d61461014f57806380cea48a1461016257806389b09de71461017557600080fd5b806345788ce2116100b257806345788ce2146101165780635dbe47e814610129578063622d77fb1461013c57600080fd5b806312fc41ca146100ce57806329092d0e146100f3575b600080fd5b6100d66101b6565b6040516001600160a01b0390911681526020015b60405180910390f35b6101066101013660046105ed565b6101c7565b60405190151581526020016100ea565b6100d66101243660046105ed565b6101d9565b6101066101373660046105ed565b6101e5565b61010661014a366004610608565b6101f1565b61010661015d366004610608565b610205565b610106610170366004610608565b610212565b6101066101833660046105ed565b61021f565b6100d661022b565b6100d661019e3660046105ed565b610237565b6101066101b13660046105ed565b610243565b60006101c2600061024f565b905090565b60006101d3818361025a565b92915050565b60006101d3818361026f565b60006101d38183610284565b60006101fe818484610299565b9392505050565b60006101fe8184846102ba565b60006101fe8184846102d3565b60006101d381836102ec565b60006101c26000610301565b60006101d3818361030c565b60006101d38183610321565b60006101d382610336565b60006101fe836001600160a01b038416610354565b60006101fe836001600160a01b0384166103c2565b60006101fe836001600160a01b038416610413565b60006102b2846001600160a01b0380861690851661044f565b949350505050565b60006102b2846001600160a01b03808616908516610466565b60006102b2846001600160a01b038086169085166104d9565b60006101fe836001600160a01b0384166104ea565b60006101d382610502565b60006101fe836001600160a01b03841661050e565b60006101fe836001600160a01b03841661053c565b6000610342828261050e565b905061034e8282610354565b50919050565b60006103608383610413565b156101d3576103a08361037385856103c2565b61037d868661050e565b600082815260208481526040808320849055928252600190940190935290912055565b5060009081526001828101602090815260408084208490559390529181205590565b600081815260018301602052604090205481158015906103e0575080155b80156103f55750816103f2848361050e565b14155b156101d357604051630f71d89360e11b815260040160405180910390fd5b600081158015906101fe57506000828152602084905260409020541515806101fe57505060008080526001929092016020526040909120541490565b60006102b28461045f86866103c2565b858561054d565b60006104728484610413565b61048f57604051630f71d89360e11b815260040160405180910390fd5b6104ad8461049d86866103c2565b6104a7878761050e565b8561054d565b905080156101fe5760008381526001850160209081526040808320839055908690528120559392505050565b60006102b284846104a7878761050e565b60006101fe836104fa81846103c2565b60008561054d565b600061034282826103c2565b600081815260208390526040902054811580159061052a575080155b80156103f55750816103f284836103c2565b60006101fe83826104a7828261050e565b6000818103610588576040517f2ea5817800000000000000000000000000000000000000000000000000000000815260040160405180910390fd5b6105928583610413565b6102b257506000838152602085815260408083208490558383526001808801808452828520979097559682528083208590559382529390935291205590565b80356001600160a01b03811681146105e857600080fd5b919050565b6000602082840312156105ff57600080fd5b6101fe826105d1565b6000806040838503121561061b57600080fd5b610624836105d1565b9150610632602084016105d1565b9050925092905056fea2646970667358221220b197890e23a07f718a05528f7087bf8450aaadf02d6146d047c9acb9248460be64736f6c63430008140033",
  "linkReferences": {},
  "deployedLinkReferences": {}
}