{
  "_format": "hh-sol-artifact-1",
  "contractName": "DoublyLinkedListBytes32Mock",
  "sourceName": "contracts/data/DoublyLinkedListBytes32Mock.sol",
  "abi": [
    {
      "inputs": [],
      "name": "DoublyLinkedList__InvalidInput",
      "type": "error"
    },
    {
      "inputs": [],
      "name": "DoublyLinkedList__NonExistentEntry",
      "type": "error"
    },
    {
      "inputs": [
        {
          "internalType": "bytes32",
          "name": "value",
          "type": "bytes32"
        }
      ],
      "name": "contains",
      "outputs": [
        {
          "internalType": "bool",
          "name": "",
          "type": "bool"
        }
      ],
      "stateMutability": "view",
      "type": "function"
    },
    {
      "inputs": [
        {
          "internalType": "bytes32",
          "name": "prevValue",
          "type": "bytes32"
        },
        {
          "internalType": "bytes32",
          "name": "newValue",
          "type": "bytes32"
        }
      ],
      "name": "insertAfter",
      "outputs": [
        {
          "internalType": "bool",
          "name": "",
          "type": "bool"
        }
      ],
      "stateMutability": "nonpayable",
      "type": "function"
    },
    {
      "inputs": [
        {
          "internalType": "bytes32",
          "name": "nextValue",
          "type": "bytes32"
        },
        {
          "internalType": "bytes32",
          "name": "newValue",
          "type": "bytes32"
        }
      ],
      "name": "insertBefore",
      "outputs": [
        {
          "internalType": "bool",
          "name": "",
          "type": "bool"
        }
      ],
      "stateMutability": "nonpayable",
      "type": "function"
    },
    {
      "inputs": [
        {
          "internalType": "bytes32",
          "name": "value",
          "type": "bytes32"
        }
      ],
      "name": "next",
      "outputs": [
        {
          "internalType": "bytes32",
          "name": "",
          "type": "bytes32"
        }
      ],
      "stateMutability": "view",
      "type": "function"
    },
    {
      "inputs": [],
      "name": "pop",
      "outputs": [
        {
          "internalType": "bytes32",
          "name": "",
          "type": "bytes32"
        }
      ],
      "stateMutability": "nonpayable",
      "type": "function"
    },
    {
      "inputs": [
        {
          "internalType": "bytes32",
          "name": "value",
          "type": "bytes32"
        }
      ],
      "name": "prev",
      "outputs": [
        {
          "internalType": "bytes32",
          "name": "",
          "type": "bytes32"
        }
      ],
      "stateMutability": "view",
      "type": "function"
    },
    {
      "inputs": [
        {
          "internalType": "bytes32",
          "name": "value",
          "type": "bytes32"
        }
      ],
      "name": "push",
      "outputs": [
        {
          "internalType": "bool",
          "name": "",
          "type": "bool"
        }
      ],
      "stateMutability": "nonpayable",
      "type": "function"
    },
    {
      "inputs": [
        {
          "internalType": "bytes32",
          "name": "value",
          "type": "bytes32"
        }
      ],
      "name": "remove",
      "outputs": [
        {
          "internalType": "bool",
          "name": "",
          "type": "bool"
        }
      ],
      "stateMutability": "nonpayable",
      "type": "function"
    },
    {
      "inputs": [
        {
          "internalType": "bytes32",
          "name": "oldValue",
          "type": "bytes32"
        },
        {
          "internalType": "bytes32",
          "name": "newValue",
          "type": "bytes32"
        }
      ],
      "name": "replace",
      "outputs": [
        {
          "internalType": "bool",
          "name": "",
          "type": "bool"
        }
      ],
      "stateMutability": "nonpayable",
      "type": "function"
    },
    {
      "inputs": [],
      "name": "shift",
      "outputs": [
        {
          "internalType": "bytes32",
          "name": "",
          "type": "bytes32"
        }
      ],
      "stateMutability": "nonpayable",
      "type": "function"
    },
    {
      "inputs": [
        {
          "internalType": "bytes32",
          "name": "value",
          "type": "bytes32"
        }
      ],
      "name": "unshift",
      "outputs": [
        {
          "internalType": "bool",
          "name": "",
          "type": "bool"
        }
      ],
      "stateMutability": "nonpayable",
      "type": "function"
    }
  ],
  "bytecode": "0x608060405234801561001057600080fd5b506105de806100206000396000f3fe608060405234801561001057600080fd5b50600436106100c95760003560e01c806325a3112511610081578063b298e36b1161005b578063b298e36b14610173578063d1d0969514610186578063efeb67ac1461019957600080fd5b806325a311251461014557806395bc267314610158578063a4ece52c1461016b57600080fd5b806312fc41ca116100b257806312fc41ca14610107578063165c089f1461010f5780631d1a696d1461013257600080fd5b806302d3af5b146100ce57806312718988146100f4575b600080fd5b6100e16100dc36600461056d565b6101ac565b6040519081526020015b60405180910390f35b6100e161010236600461056d565b6101be565b6100e16101ca565b61012261011d366004610586565b6101db565b60405190151581526020016100eb565b61012261014036600461056d565b6101ef565b610122610153366004610586565b6101fb565b61012261016636600461056d565b610208565b6100e1610214565b61012261018136600461056d565b610220565b61012261019436600461056d565b61022c565b6101226101a7366004610586565b610238565b60006101b88183610245565b92915050565b60006101b88183610251565b60006101d6600061025d565b905090565b60006101e8818484610268565b9392505050565b60006101b8818361027d565b60006101e8818484610289565b60006101b88183610296565b60006101d660006102a2565b60006101b881836102ad565b60006101b881836102b9565b60006101e88184846102c5565b60006101e883836102d2565b60006101e88383610321565b60006101b882610351565b600061027584848461036f565b949350505050565b60006101e88383610386565b60006102758484846103c2565b60006101e883836103d9565b60006101b882610447565b60006101e88383610453565b60006101e8838361046b565b600061027584848461047c565b60008181526020839052604090205481158015906102ee575080155b80156103035750816103008483610321565b14155b156101b857604051630f71d89360e11b815260040160405180910390fd5b6000818152600183016020526040902054811580159061033f575080155b801561030357508161030084836102d2565b600061035d82826102d2565b905061036982826103d9565b50919050565b6000610275848461038087876102d2565b856104e9565b600081158015906101e857506000828152602084905260409020541515806101e857505060008080526001929092016020526040909120541490565b6000610275846103d28686610321565b85856104e9565b60006103e58383610386565b156101b857610425836103f88585610321565b61040286866102d2565b600082815260208481526040808320849055928252600190940190935290912055565b5060009081526001828101602090815260408084208490559390529181205590565b600061035d8282610321565b60006101e8836104638184610321565b6000856104e9565b60006101e8838261038082826102d2565b60006104888484610386565b6104a557604051630f71d89360e11b815260040160405180910390fd5b6104bd846104b38686610321565b61038087876102d2565b905080156101e85760008381526001850160209081526040808320839055908690528120559392505050565b6000818103610524576040517f2ea5817800000000000000000000000000000000000000000000000000000000815260040160405180910390fd5b61052e8583610386565b61027557506000838152602085815260408083208490558383526001808801808452828520979097559682528083208590559382529390935291205590565b60006020828403121561057f57600080fd5b5035919050565b6000806040838503121561059957600080fd5b5050803592602090910135915056fea26469706673582212202bfd9e698584119743ffac93f63006c581c4dbb6083e55965c9cfe05ebafd93864736f6c63430008140033",
  "linkReferences": {},
  "deployedLinkReferences": {}
}