{
  "_format": "hh-sol-artifact-1",
  "contractName": "Redemption",
  "sourceName": "contracts/register/coupon/redemption/Redemption.sol",
  "abi": [
    {
      "inputs": [
        {
          "internalType": "address",
          "name": "_registerContract",
          "type": "address"
        },
        {
          "internalType": "uint256",
          "name": "_maturityDate",
          "type": "uint256"
        },
        {
          "internalType": "uint256",
          "name": "_nbDays",
          "type": "uint256"
        },
        {
          "internalType": "uint256",
          "name": "_recordDate",
          "type": "uint256"
        },
        {
          "internalType": "uint256",
          "name": "_cutOfTime",
          "type": "uint256"
        }
      ],
      "stateMutability": "nonpayable",
      "type": "constructor"
    },
    {
      "inputs": [],
      "name": "ReentrancyGuardReentrantCall",
      "type": "error"
    },
    {
      "anonymous": false,
      "inputs": [
        {
          "indexed": true,
          "internalType": "contract IRegister",
          "name": "register",
          "type": "address"
        },
        {
          "indexed": true,
          "internalType": "uint256",
          "name": "couponDate",
          "type": "uint256"
        },
        {
          "indexed": true,
          "internalType": "enum ICoupon.CouponStatus",
          "name": "status",
          "type": "uint8"
        }
      ],
      "name": "CouponChanged",
      "type": "event"
    },
    {
      "anonymous": false,
      "inputs": [
        {
          "indexed": true,
          "internalType": "contract IRegister",
          "name": "register",
          "type": "address"
        },
        {
          "indexed": true,
          "internalType": "uint256",
          "name": "couponDate",
          "type": "uint256"
        },
        {
          "indexed": true,
          "internalType": "address",
          "name": "investor",
          "type": "address"
        },
        {
          "indexed": false,
          "internalType": "enum ICoupon.PaymentStatus",
          "name": "status",
          "type": "uint8"
        },
        {
          "indexed": false,
          "internalType": "enum ICoupon.PaymentStatus",
          "name": "previousStatus",
          "type": "uint8"
        }
      ],
      "name": "CouponPaymentStatusChanged",
      "type": "event"
    },
    {
      "anonymous": false,
      "inputs": [
        {
          "indexed": true,
          "internalType": "contract IRegister",
          "name": "register",
          "type": "address"
        },
        {
          "indexed": true,
          "internalType": "uint256",
          "name": "couponDate",
          "type": "uint256"
        },
        {
          "indexed": true,
          "internalType": "enum ICoupon.CouponStatus",
          "name": "status",
          "type": "uint8"
        }
      ],
      "name": "RedemptionChanged",
      "type": "event"
    },
    {
      "anonymous": false,
      "inputs": [
        {
          "indexed": true,
          "internalType": "contract IRegister",
          "name": "register",
          "type": "address"
        },
        {
          "indexed": true,
          "internalType": "uint256",
          "name": "couponDate",
          "type": "uint256"
        },
        {
          "indexed": true,
          "internalType": "address",
          "name": "investor",
          "type": "address"
        },
        {
          "indexed": false,
          "internalType": "enum ICoupon.PaymentStatus",
          "name": "status",
          "type": "uint8"
        },
        {
          "indexed": false,
          "internalType": "enum ICoupon.PaymentStatus",
          "name": "previousStatus",
          "type": "uint8"
        }
      ],
      "name": "RedemptionPaymentStatusChanged",
      "type": "event"
    },
    {
      "inputs": [],
      "name": "couponDate",
      "outputs": [
        {
          "internalType": "uint256",
          "name": "",
          "type": "uint256"
        }
      ],
      "stateMutability": "view",
      "type": "function"
    },
    {
      "inputs": [],
      "name": "cutOfTime",
      "outputs": [
        {
          "internalType": "uint256",
          "name": "",
          "type": "uint256"
        }
      ],
      "stateMutability": "view",
      "type": "function"
    },
    {
      "inputs": [
        {
          "internalType": "address",
          "name": "_investor",
          "type": "address"
        }
      ],
      "name": "getInvestorPayments",
      "outputs": [
        {
          "internalType": "enum ICoupon.PaymentStatus",
          "name": "",
          "type": "uint8"
        }
      ],
      "stateMutability": "view",
      "type": "function"
    },
    {
      "inputs": [
        {
          "internalType": "address",
          "name": "_investor",
          "type": "address"
        }
      ],
      "name": "getInvestorRedemptionPayments",
      "outputs": [
        {
          "internalType": "enum ICoupon.PaymentStatus",
          "name": "",
          "type": "uint8"
        }
      ],
      "stateMutability": "view",
      "type": "function"
    },
    {
      "inputs": [
        {
          "internalType": "address",
          "name": "_investor",
          "type": "address"
        }
      ],
      "name": "getMaturityAmountForInvestor",
      "outputs": [
        {
          "internalType": "uint256",
          "name": "paymentAmount",
          "type": "uint256"
        }
      ],
      "stateMutability": "view",
      "type": "function"
    },
    {
      "inputs": [
        {
          "internalType": "address",
          "name": "_investor",
          "type": "address"
        }
      ],
      "name": "getPaymentAmountForInvestor",
      "outputs": [
        {
          "internalType": "uint256",
          "name": "paymentAmount",
          "type": "uint256"
        }
      ],
      "stateMutability": "view",
      "type": "function"
    },
    {
      "inputs": [],
      "name": "getTotalMaturityAmount",
      "outputs": [
        {
          "internalType": "uint256",
          "name": "paymentAmount",
          "type": "uint256"
        }
      ],
      "stateMutability": "view",
      "type": "function"
    },
    {
      "inputs": [],
      "name": "getTotalPaymentAmount",
      "outputs": [
        {
          "internalType": "uint256",
          "name": "paymentAmount",
          "type": "uint256"
        }
      ],
      "stateMutability": "view",
      "type": "function"
    },
    {
      "inputs": [
        {
          "internalType": "address",
          "name": "",
          "type": "address"
        }
      ],
      "name": "investorPayments",
      "outputs": [
        {
          "internalType": "enum ICoupon.PaymentStatus",
          "name": "",
          "type": "uint8"
        }
      ],
      "stateMutability": "view",
      "type": "function"
    },
    {
      "inputs": [
        {
          "internalType": "address",
          "name": "",
          "type": "address"
        }
      ],
      "name": "investorRedemptionPayments",
      "outputs": [
        {
          "internalType": "enum ICoupon.PaymentStatus",
          "name": "",
          "type": "uint8"
        }
      ],
      "stateMutability": "view",
      "type": "function"
    },
    {
      "inputs": [],
      "name": "nbDays",
      "outputs": [
        {
          "internalType": "uint256",
          "name": "",
          "type": "uint256"
        }
      ],
      "stateMutability": "view",
      "type": "function"
    },
    {
      "inputs": [],
      "name": "payingAgent",
      "outputs": [
        {
          "internalType": "address",
          "name": "",
          "type": "address"
        }
      ],
      "stateMutability": "view",
      "type": "function"
    },
    {
      "inputs": [
        {
          "internalType": "address",
          "name": "_investor",
          "type": "address"
        }
      ],
      "name": "paymentIdForInvest",
      "outputs": [
        {
          "internalType": "bytes8",
          "name": "",
          "type": "bytes8"
        }
      ],
      "stateMutability": "view",
      "type": "function"
    },
    {
      "inputs": [
        {
          "internalType": "address",
          "name": "_investor",
          "type": "address"
        }
      ],
      "name": "paymentIdRedemptionForInvest",
      "outputs": [
        {
          "internalType": "bytes8",
          "name": "",
          "type": "bytes8"
        }
      ],
      "stateMutability": "view",
      "type": "function"
    },
    {
      "inputs": [],
      "name": "recordDate",
      "outputs": [
        {
          "internalType": "uint256",
          "name": "",
          "type": "uint256"
        }
      ],
      "stateMutability": "view",
      "type": "function"
    },
    {
      "inputs": [],
      "name": "register",
      "outputs": [
        {
          "internalType": "contract IRegister",
          "name": "",
          "type": "address"
        }
      ],
      "stateMutability": "view",
      "type": "function"
    },
    {
      "inputs": [],
      "name": "rejectCoupon",
      "outputs": [],
      "stateMutability": "nonpayable",
      "type": "function"
    },
    {
      "inputs": [
        {
          "internalType": "uint256",
          "name": "_recordDate",
          "type": "uint256"
        },
        {
          "internalType": "uint256",
          "name": "_cutOfTime",
          "type": "uint256"
        }
      ],
      "name": "setCutOffTime",
      "outputs": [],
      "stateMutability": "nonpayable",
      "type": "function"
    },
    {
      "inputs": [],
      "name": "setDateAsCurrentCoupon",
      "outputs": [],
      "stateMutability": "nonpayable",
      "type": "function"
    },
    {
      "inputs": [
        {
          "internalType": "uint256",
          "name": "_nbDays",
          "type": "uint256"
        }
      ],
      "name": "setNbDays",
      "outputs": [],
      "stateMutability": "nonpayable",
      "type": "function"
    },
    {
      "inputs": [],
      "name": "status",
      "outputs": [
        {
          "internalType": "enum ICoupon.CouponStatus",
          "name": "",
          "type": "uint8"
        }
      ],
      "stateMutability": "view",
      "type": "function"
    },
    {
      "inputs": [
        {
          "internalType": "address",
          "name": "_investor",
          "type": "address"
        }
      ],
      "name": "toggleCouponPayment",
      "outputs": [],
      "stateMutability": "nonpayable",
      "type": "function"
    },
    {
      "inputs": [
        {
          "internalType": "address",
          "name": "_investor",
          "type": "address"
        }
      ],
      "name": "toggleRedemptionPayment",
      "outputs": [],
      "stateMutability": "nonpayable",
      "type": "function"
    }
  ],
  "bytecode": "0x60806040523480156200001157600080fd5b50604051620026b1380380620026b18339810160408190526200003491620003df565b6001600055600780546001600160a01b0387166001600160a01b0319918216811790925560088054909116821790556040516338e5975560e21b8152336004820152869186918691869186919063e3965d5490602401602060405180830381865afa158015620000a8573d6000803e3d6000fd5b505050506040513d601f19601f82011682018060405250810190620000ce919062000436565b620001325760405162461bcd60e51b815260206004820152602960248201527f53656e646572206d757374206265206120506179696e672063616c63756c61746044820152681a5bdb881859d95b9d60ba1b60648201526084015b60405180910390fd5b6007546040516338e20fc560e11b8152600481018690526001600160a01b03909116906371c41f8a906024016020604051808303816000875af11580156200017e573d6000803e3d6000fd5b505050506040513d601f19601f82011682018060405250810190620001a4919062000436565b620001f25760405162461bcd60e51b815260206004820152601f60248201527f7468697320636f75706f6e4461746520646f6573206e6f742065786973747300604482015260640162000129565b600184905560028390556200020b620151808362000461565b62000217908362000484565b60035562000229620151808262000461565b6004908155600580546001600160a01b031916331790556008805460ff60a01b191690819055600160a01b900460ff16908111156200026c576200026c620004ac565b6001546007546040516001600160a01b03909116907fee1a084aa36acdbc1c32f808f87c6ef8ae26d4ad59293c32244b1b72466bb76090600090a4505060075460405163d4cdda9160e01b8152600481018990526001600160a01b03909116935063d4cdda91925060240190506020604051808303816000875af1158015620002f9573d6000803e3d6000fd5b505050506040513d601f19601f820116820180604052508101906200031f919062000436565b620003785760405162461bcd60e51b815260206004820152602260248201527f74686973206d61747572697479204461746520646f6573206e6f742065786973604482015261747360f01b606482015260840162000129565b600854600160a01b900460ff166004811115620003995762000399620004ac565b6001546007546040516001600160a01b03909116907f6f3decef32bc5575fa4154c177d28de83ad12af68ef61bf36ad7c5be081654df90600090a45050505050620004c2565b600080600080600060a08688031215620003f857600080fd5b85516001600160a01b03811681146200041057600080fd5b602087015160408801516060890151608090990151929a91995097965090945092505050565b6000602082840312156200044957600080fd5b815180151581146200045a57600080fd5b9392505050565b6000826200047f57634e487b7160e01b600052601260045260246000fd5b500690565b81810381811115620004a657634e487b7160e01b600052601160045260246000fd5b92915050565b634e487b7160e01b600052602160045260246000fd5b6121df80620004d26000396000f3fe608060405234801561001057600080fd5b506004361061018d5760003560e01c806384cd8c86116100e3578063d64c05871161008c578063f4bcf20911610066578063f4bcf2091461039a578063f68a3ab4146103a2578063fd3b4442146103b557600080fd5b8063d64c058714610348578063d927a6061461035b578063e505222b1461038757600080fd5b8063b77fea01116100bd578063b77fea0114610309578063c4fa96b01461031c578063ccc5d7e91461032557600080fd5b806384cd8c86146102d557806386d49f77146102f85780639d5d5fa41461030157600080fd5b8063532e91cc116101455780636969a06f1161011f5780636969a06f146102a557806369fb125e146102af5780637c610024146102c257600080fd5b8063532e91cc1461023b5780635e4795a91461027f578063683fffd51461029257600080fd5b8063200d2ed211610176578063200d2ed2146101fb57806323bfa0f01461021c57806350cc45321461023257600080fd5b80631aa3a008146101925780631dd5fc63146101c2575b600080fd5b6007546101a5906001600160a01b031681565b6040516001600160a01b0390911681526020015b60405180910390f35b6101ee6101d0366004611fee565b6001600160a01b03166000908152600a602052604090205460ff1690565b6040516101b9919061203c565b60085461020f90600160a01b900460ff1681565b6040516101b99190612050565b6102246103be565b6040519081526020016101b9565b61022460035481565b61024e610249366004611fee565b61056c565b6040517fffffffffffffffff00000000000000000000000000000000000000000000000090911681526020016101b9565b6005546101a5906001600160a01b031681565b6102246102a0366004611fee565b6105b7565b6102ad6106bd565b005b6102246102bd366004611fee565b610a96565b6102ad6102d036600461206a565b610c48565b6101ee6102e3366004611fee565b600a6020526000908152604090205460ff1681565b61022460025481565b610224610db8565b6102ad610317366004611fee565b610ec3565b61022460015481565b6101ee610333366004611fee565b60096020526000908152604090205460ff1681565b6102ad610356366004611fee565b6116ed565b6101ee610369366004611fee565b6001600160a01b031660009081526009602052604090205460ff1690565b61024e610395366004611fee565b611c5d565b6102ad611cb5565b6102ad6103b0366004612083565b611dfd565b61022460045481565b600080600760009054906101000a90046001600160a01b03166001600160a01b031663a7f2f6ec6040518163ffffffff1660e01b8152600401602060405180830381865afa158015610414573d6000803e3d6000fd5b505050506040513d601f19601f8201168201806040525081019061043891906120a5565b90506000600760009054906101000a90046001600160a01b03166001600160a01b03166339027f7c6040518163ffffffff1660e01b8152600401602060405180830381865afa15801561048f573d6000803e3d6000fd5b505050506040513d601f19601f820116820180604052508101906104b391906120a5565b90506000600760009054906101000a90046001600160a01b03166001600160a01b03166318160ddd6040518163ffffffff1660e01b8152600401602060405180830381865afa15801561050a573d6000803e3d6000fd5b505050506040513d601f19601f8201168201806040525081019061052e91906120a5565b9050600061016860025484848761054591906120d4565b61054f91906120d4565b61055991906120d4565b6105639190612101565b95945050505050565b6040516bffffffffffffffffffffffff1930606090811b8216602084015283901b1660348201526000906048015b604051602081830303815290604052805190602001209050919050565b600080600760009054906101000a90046001600160a01b03166001600160a01b031663a7f2f6ec6040518163ffffffff1660e01b8152600401602060405180830381865afa15801561060d573d6000803e3d6000fd5b505050506040513d601f19601f8201168201806040525081019061063191906120a5565b6008546001546040516307b2d9e360e01b81526001600160a01b03878116600483015260248201929092529293506000929116906307b2d9e390604401602060405180830381865afa15801561068b573d6000803e3d6000fd5b505050506040513d601f19601f820116820180604052508101906106af91906120a5565b9050600061056382846120d4565b6106c5611f96565b6007546040516338e5975560e21b81523360048201526001600160a01b039091169063e3965d5490602401602060405180830381865afa15801561070d573d6000803e3d6000fd5b505050506040513d601f19601f820116820180604052508101906107319190612115565b6107945760405162461bcd60e51b815260206004820152602960248201527f53656e646572206d757374206265206120506179696e672063616c63756c61746044820152681a5bdb881859d95b9d60ba1b60648201526084015b60405180910390fd5b6000600854600160a01b900460ff1660048111156107b4576107b4612012565b146108355760405162461bcd60e51b8152602060048201526044602482018190527f54686520636f75706f6e20646174652063616e206265206d6f64696669656420908201527f6f6e6c792069662074686520636f6e74726163742073746174757320697320446064820152631c98599d60e21b608482015260a40161078b565b6007546001546040517f71c41f8a0000000000000000000000000000000000000000000000000000000081526001600160a01b03909216916371c41f8a916108839160040190815260200190565b6020604051808303816000875af11580156108a2573d6000803e3d6000fd5b505050506040513d601f19601f820116820180604052508101906108c69190612115565b6109125760405162461bcd60e51b815260206004820152601f60248201527f7468697320636f75706f6e4461746520646f6573206e6f742065786973747300604482015260640161078b565b6007546001546004546003546001600160a01b0390931692633052974c929161093a91612137565b6040517fffffffff0000000000000000000000000000000000000000000000000000000060e085901b16815260048101929092526024820152604401600060405180830381600087803b15801561099057600080fd5b505af11580156109a4573d6000803e3d6000fd5b50505050600860009054906101000a90046001600160a01b03166001600160a01b0316639ef986de6040518163ffffffff1660e01b8152600401602060405180830381865afa1580156109fb573d6000803e3d6000fd5b505050506040513d601f19601f82011682018060405250810190610a1f91906120a5565b6006556008805460ff60a01b1916600160a01b90811791829055900460ff166004811115610a4f57610a4f612012565b6001546007546040516001600160a01b03909116907fee1a084aa36acdbc1c32f808f87c6ef8ae26d4ad59293c32244b1b72466bb76090600090a4610a946001600055565b565b600080600760009054906101000a90046001600160a01b03166001600160a01b031663a7f2f6ec6040518163ffffffff1660e01b8152600401602060405180830381865afa158015610aec573d6000803e3d6000fd5b505050506040513d601f19601f82011682018060405250810190610b1091906120a5565b90506000600760009054906101000a90046001600160a01b03166001600160a01b03166339027f7c6040518163ffffffff1660e01b8152600401602060405180830381865afa158015610b67573d6000803e3d6000fd5b505050506040513d601f19601f82011682018060405250810190610b8b91906120a5565b6008546001546040516307b2d9e360e01b81526001600160a01b03888116600483015260248201929092529293506000929116906307b2d9e390604401602060405180830381865afa158015610be5573d6000803e3d6000fd5b505050506040513d601f19601f82011682018060405250810190610c0991906120a5565b90506000610168600254848487610c2091906120d4565b610c2a91906120d4565b610c3491906120d4565b610c3e9190612101565b9695505050505050565b6007546040516338e5975560e21b81523360048201526001600160a01b039091169063e3965d5490602401602060405180830381865afa158015610c90573d6000803e3d6000fd5b505050506040513d601f19601f82011682018060405250810190610cb49190612115565b610d125760405162461bcd60e51b815260206004820152602960248201527f53656e646572206d757374206265206120506179696e672063616c63756c61746044820152681a5bdb881859d95b9d60ba1b606482015260840161078b565b6000600854600160a01b900460ff166004811115610d3257610d32612012565b14610db35760405162461bcd60e51b8152602060048201526044602482018190527f54686520636f75706f6e20646174652063616e206265206d6f64696669656420908201527f6f6e6c792069662074686520636f6e74726163742073746174757320697320446064820152631c98599d60e21b608482015260a40161078b565b600255565b600080600760009054906101000a90046001600160a01b03166001600160a01b031663a7f2f6ec6040518163ffffffff1660e01b8152600401602060405180830381865afa158015610e0e573d6000803e3d6000fd5b505050506040513d601f19601f82011682018060405250810190610e3291906120a5565b90506000600760009054906101000a90046001600160a01b03166001600160a01b03166318160ddd6040518163ffffffff1660e01b8152600401602060405180830381865afa158015610e89573d6000803e3d6000fd5b505050506040513d601f19601f82011682018060405250810190610ead91906120a5565b90506000610ebb82846120d4565b949350505050565b610ecb611f96565b60075460405163c41251a160e01b81526001600160a01b0383811660048301529091169063c41251a190602401602060405180830381865afa158015610f15573d6000803e3d6000fd5b505050506040513d601f19601f82011682018060405250810190610f399190612115565b610f855760405162461bcd60e51b815260206004820152601c60248201527f5468697320696e766573746f72206973206e6f7420616c6c6f77656400000000604482015260640161078b565b6001600854600160a01b900460ff166004811115610fa557610fa5612012565b146110185760405162461bcd60e51b815260206004820152602c60248201527f54686520737461747573206f662074686520526564656d7074696f6e2073686f60448201527f756c642062652052656164790000000000000000000000000000000000000000606482015260840161078b565b6001600160a01b038181166000908152600a6020526040908190205460075491516321b0fc9560e11b815233600482015260ff909116929190911690634361f92a90602401602060405180830381865afa15801561107a573d6000803e3d6000fd5b505050506040513d601f19601f8201168201806040525081019061109e9190612115565b156113c8576001600160a01b0382166000908152600a602052604081205460ff1660028111156110d0576110d0612012565b036112f857600654421161114c5760405162461bcd60e51b815260206004820152602760248201527f746865206d6174757269747920637574206f662074696d6520686173206e6f7460448201527f2070617373656400000000000000000000000000000000000000000000000000606482015260840161078b565b6001600160a01b038281166000818152600a6020526040808220805460ff1916600117905560075490517f70a082310000000000000000000000000000000000000000000000000000000081526004810193909352909216906370a0823190602401602060405180830381865afa1580156111cb573d6000803e3d6000fd5b505050506040513d601f19601f820116820180604052508101906111ef91906120a5565b905080156112f2576007546040517fabc2cf2a0000000000000000000000000000000000000000000000000000000081526001600160a01b0385811660048301529091169063abc2cf2a906024016020604051808303816000875af115801561125c573d6000803e3d6000fd5b505050506040513d601f19601f820116820180604052508101906112809190612115565b6112f25760405162461bcd60e51b815260206004820152602260248201527f72657475726e2062616c616e636520657870656374656420627574206661696c60448201527f6564000000000000000000000000000000000000000000000000000000000000606482015260840161078b565b5061167b565b60016001600160a01b0383166000908152600a602052604090205460ff16600281111561132757611327612012565b03611358576001600160a01b0382166000908152600a60205260408120805460ff19166001835b021790555061167b565b6040805162461bcd60e51b81526020600482015260248101919091527f54686520737461747573206f66207468697320696e766573746f72277320706160448201527f796d656e742073686f756c642062652050616964206f7220546f426550616964606482015260840161078b565b600754604051630d72032360e21b81523360048201526001600160a01b03909116906335c80c8c90602401602060405180830381865afa158015611410573d6000803e3d6000fd5b505050506040513d601f19601f820116820180604052508101906114349190612115565b1561160d576007546040516308f92f4960e41b81526001600160a01b03848116600483015233921690638f92f49090602401602060405180830381865afa158015611483573d6000803e3d6000fd5b505050506040513d601f19601f820116820180604052508101906114a7919061214a565b6001600160a01b03161461150c5760405162461bcd60e51b815260206004820152602660248201527f596f7520617265206e6f7420637573746f6469616e206f66207468697320696e6044820152653b32b9ba37b960d11b606482015260840161078b565b60016001600160a01b0383166000908152600a602052604090205460ff16600281111561153b5761153b612012565b03611568576001600160a01b0382166000908152600a60205260409020805460ff1916600217905561167b565b60026001600160a01b0383166000908152600a602052604090205460ff16600281111561159757611597612012565b036115c5576001600160a01b0382166000908152600a6020526040902080546001919060ff1916828061134e565b60405162461bcd60e51b815260206004820152601d60248201527f496e76616c696420436f75706f6e207061796d656e7420737461747573000000604482015260640161078b565b60405162461bcd60e51b815260206004820152603260248201527f73656e646572206d7573742062652043656e7472616c204163636f756e74204b60448201527f6565706572206f7220437573746f6469616e0000000000000000000000000000606482015260840161078b565b6001546007546001600160a01b038085166000818152600a602052604090819020549051919493909216917f5015a18308d4635883292e9e27e8d94d9fc784749d47aa7f18d6f3ad2ad97e73916116d79160ff16908790612167565b60405180910390a4506116ea6001600055565b50565b60075460405163c41251a160e01b81526001600160a01b0383811660048301529091169063c41251a190602401602060405180830381865afa158015611737573d6000803e3d6000fd5b505050506040513d601f19601f8201168201806040525081019061175b9190612115565b6117a75760405162461bcd60e51b815260206004820152601c60248201527f5468697320696e766573746f72206973206e6f7420616c6c6f77656400000000604482015260640161078b565b6001600854600160a01b900460ff1660048111156117c7576117c7612012565b1461183a5760405162461bcd60e51b815260206004820152602860248201527f54686520737461747573206f662074686520636f75706f6e2073686f756c642060448201527f6265205265616479000000000000000000000000000000000000000000000000606482015260840161078b565b6001600160a01b03818116600090815260096020526040908190205460075491516321b0fc9560e11b815233600482015260ff909116929190911690634361f92a90602401602060405180830381865afa15801561189c573d6000803e3d6000fd5b505050506040513d601f19601f820116820180604052508101906118c09190612115565b156119f6576001600160a01b03821660009081526009602052604081205460ff1660028111156118f2576118f2612012565b0361199d57600654421161196e5760405162461bcd60e51b815260206004820152602560248201527f74686520636f75706f6e20637574206f662074696d6520686173206e6f74207060448201527f6173736564000000000000000000000000000000000000000000000000000000606482015260840161078b565b6001600160a01b038216600090815260096020526040902080546001919060ff191682805b0217905550611bf5565b60016001600160a01b03831660009081526009602052604090205460ff1660028111156119cc576119cc612012565b03611358576001600160a01b0382166000908152600960205260409020805460ff19169055611bf5565b600754604051630d72032360e21b81523360048201526001600160a01b03909116906335c80c8c90602401602060405180830381865afa158015611a3e573d6000803e3d6000fd5b505050506040513d601f19601f82011682018060405250810190611a629190612115565b1561160d576007546040516308f92f4960e41b81526001600160a01b03848116600483015233921690638f92f49090602401602060405180830381865afa158015611ab1573d6000803e3d6000fd5b505050506040513d601f19601f82011682018060405250810190611ad5919061214a565b6001600160a01b031614611b3a5760405162461bcd60e51b815260206004820152602660248201527f596f7520617265206e6f7420637573746f6469616e206f66207468697320696e6044820152653b32b9ba37b960d11b606482015260840161078b565b60016001600160a01b03831660009081526009602052604090205460ff166002811115611b6957611b69612012565b03611b98576001600160a01b038216600090815260096020526040902080546002919060ff1916600183611993565b60026001600160a01b03831660009081526009602052604090205460ff166002811115611bc757611bc7612012565b036115c5576001600160a01b038216600090815260096020526040902080546001919060ff19168280611993565b6001546007546001600160a01b0380851660008181526009602052604090819020549051919493909216917f71a813fb36e2b43b4fcd5b541937f3501c4bb733759aa470d700efb9b7fd5b1491611c519160ff16908790612167565b60405180910390a45050565b6040516bffffffffffffffffffffffff1930606090811b8216602084015283901b1660348201527f726564656d7074696f6e00000000000000000000000000000000000000000000604882015260009060520161059a565b6007546040516338e5975560e21b81523360048201526001600160a01b039091169063e3965d5490602401602060405180830381865afa158015611cfd573d6000803e3d6000fd5b505050506040513d601f19601f82011682018060405250810190611d219190612115565b611d7f5760405162461bcd60e51b815260206004820152602960248201527f53656e646572206d757374206265206120506179696e672063616c63756c61746044820152681a5bdb881859d95b9d60ba1b606482015260840161078b565b6008805460ff60a01b1916740200000000000000000000000000000000000000001790819055600160a01b900460ff166004811115611dc057611dc0612012565b6001546007546040516001600160a01b03909116907fee1a084aa36acdbc1c32f808f87c6ef8ae26d4ad59293c32244b1b72466bb76090600090a4565b6007546040516338e5975560e21b81523360048201526001600160a01b039091169063e3965d5490602401602060405180830381865afa158015611e45573d6000803e3d6000fd5b505050506040513d601f19601f82011682018060405250810190611e699190612115565b611ec75760405162461bcd60e51b815260206004820152602960248201527f53656e646572206d757374206265206120506179696e672063616c63756c61746044820152681a5bdb881859d95b9d60ba1b606482015260840161078b565b6000600854600160a01b900460ff166004811115611ee757611ee7612012565b14611f685760405162461bcd60e51b8152602060048201526044602482018190527f54686520636f75706f6e20646174652063616e206265206d6f64696669656420908201527f6f6e6c792069662074686520636f6e74726163742073746174757320697320446064820152631c98599d60e21b608482015260a40161078b565b611f756201518083612182565b611f7f9083612196565b600355611f8f6201518082612182565b6004555050565b600260005403611fd2576040517f3ee5aeb500000000000000000000000000000000000000000000000000000000815260040160405180910390fd5b6002600055565b6001600160a01b03811681146116ea57600080fd5b60006020828403121561200057600080fd5b813561200b81611fd9565b9392505050565b634e487b7160e01b600052602160045260246000fd5b6003811061203857612038612012565b9052565b6020810161204a8284612028565b92915050565b602081016005831061206457612064612012565b91905290565b60006020828403121561207c57600080fd5b5035919050565b6000806040838503121561209657600080fd5b50508035926020909101359150565b6000602082840312156120b757600080fd5b5051919050565b634e487b7160e01b600052601160045260246000fd5b808202811582820484141761204a5761204a6120be565b634e487b7160e01b600052601260045260246000fd5b600082612110576121106120eb565b500490565b60006020828403121561212757600080fd5b8151801515811461200b57600080fd5b8082018082111561204a5761204a6120be565b60006020828403121561215c57600080fd5b815161200b81611fd9565b604081016121758285612028565b61200b6020830184612028565b600082612191576121916120eb565b500690565b8181038181111561204a5761204a6120be56fea26469706673582212202a23bc90b4c32af07c79b673951939536542702fb5cf2a17797f73b059348d4464736f6c63430008140033",
  "linkReferences": {},
  "deployedLinkReferences": {}
}