{
  "_format": "hh-sol-artifact-1",
  "contractName": "ERC2771Context",
  "sourceName": "contracts/metatx/ERC2771Context.sol",
  "abi": [
    {
      "anonymous": false,
      "inputs": [
        {
          "indexed": false,
          "internalType": "uint64",
          "name": "version",
          "type": "uint64"
        }
      ],
      "name": "Initialized",
      "type": "event"
    },
    {
      "inputs": [
        {
          "internalType": "address",
          "name": "forwarder",
          "type": "address"
        }
      ],
      "name": "isTrustedForwarder",
      "outputs": [
        {
          "internalType": "bool",
          "name": "",
          "type": "bool"
        }
      ],
      "stateMutability": "view",
      "type": "function"
    },
    {
      "inputs": [],
      "name": "trustedForwarder",
      "outputs": [
        {
          "internalType": "address",
          "name": "",
          "type": "address"
        }
      ],
      "stateMutability": "view",
      "type": "function"
    }
  ],
  "bytecode": "0x608060405234801561001057600080fd5b50610110806100206000396000f3fe6080604052348015600f57600080fd5b506004361060325760003560e01c8063572b6c051460375780637da0a877146078575b600080fd5b60636042366004609f565b60005473ffffffffffffffffffffffffffffffffffffffff90811691161490565b60405190151581526020015b60405180910390f35b60005460405173ffffffffffffffffffffffffffffffffffffffff9091168152602001606f565b60006020828403121560b057600080fd5b813573ffffffffffffffffffffffffffffffffffffffff8116811460d357600080fd5b939250505056fea26469706673582212208b5396019f359af3a1612fb52815d6115f146c707135734248733b6b89fce9e464736f6c63430008140033",
  "linkReferences": {},
  "deployedLinkReferences": {}
}