{
  "_format": "hh-sol-artifact-1",
  "contractName": "RegisterRoleManagement",
  "sourceName": "contracts/register/role/RegisterRoleManagement.sol",
  "abi": [
    {
      "inputs": [],
      "name": "EnumerableSet__IndexOutOfBounds",
      "type": "error"
    },
    {
      "anonymous": false,
      "inputs": [
        {
          "indexed": true,
          "internalType": "address",
          "name": "_addressForNewAdmin",
          "type": "address"
        }
      ],
      "name": "AdminChanged",
      "type": "event"
    },
    {
      "anonymous": false,
      "inputs": [
        {
          "indexed": false,
          "internalType": "uint64",
          "name": "version",
          "type": "uint64"
        }
      ],
      "name": "Initialized",
      "type": "event"
    },
    {
      "anonymous": false,
      "inputs": [
        {
          "indexed": true,
          "internalType": "bytes32",
          "name": "role",
          "type": "bytes32"
        },
        {
          "indexed": true,
          "internalType": "bytes32",
          "name": "previousAdminRole",
          "type": "bytes32"
        },
        {
          "indexed": true,
          "internalType": "bytes32",
          "name": "newAdminRole",
          "type": "bytes32"
        }
      ],
      "name": "RoleAdminChanged",
      "type": "event"
    },
    {
      "anonymous": false,
      "inputs": [
        {
          "indexed": true,
          "internalType": "bytes32",
          "name": "role",
          "type": "bytes32"
        },
        {
          "indexed": true,
          "internalType": "address",
          "name": "account",
          "type": "address"
        },
        {
          "indexed": true,
          "internalType": "address",
          "name": "sender",
          "type": "address"
        }
      ],
      "name": "RoleGranted",
      "type": "event"
    },
    {
      "anonymous": false,
      "inputs": [
        {
          "indexed": true,
          "internalType": "bytes32",
          "name": "role",
          "type": "bytes32"
        },
        {
          "indexed": true,
          "internalType": "address",
          "name": "account",
          "type": "address"
        },
        {
          "indexed": true,
          "internalType": "address",
          "name": "sender",
          "type": "address"
        }
      ],
      "name": "RoleRevoked",
      "type": "event"
    },
    {
      "inputs": [],
      "name": "BND_ROLE",
      "outputs": [
        {
          "internalType": "bytes32",
          "name": "",
          "type": "bytes32"
        }
      ],
      "stateMutability": "view",
      "type": "function"
    },
    {
      "inputs": [],
      "name": "CAK_ROLE",
      "outputs": [
        {
          "internalType": "bytes32",
          "name": "",
          "type": "bytes32"
        }
      ],
      "stateMutability": "view",
      "type": "function"
    },
    {
      "inputs": [],
      "name": "CST_ROLE",
      "outputs": [
        {
          "internalType": "bytes32",
          "name": "",
          "type": "bytes32"
        }
      ],
      "stateMutability": "view",
      "type": "function"
    },
    {
      "inputs": [],
      "name": "PAY_ROLE",
      "outputs": [
        {
          "internalType": "bytes32",
          "name": "",
          "type": "bytes32"
        }
      ],
      "stateMutability": "view",
      "type": "function"
    },
    {
      "inputs": [],
      "name": "addressForNewAdmin",
      "outputs": [
        {
          "internalType": "address",
          "name": "",
          "type": "address"
        }
      ],
      "stateMutability": "view",
      "type": "function"
    },
    {
      "inputs": [
        {
          "internalType": "address",
          "name": "account",
          "type": "address"
        }
      ],
      "name": "changeAdminRole",
      "outputs": [],
      "stateMutability": "nonpayable",
      "type": "function"
    },
    {
      "inputs": [],
      "name": "firstVoterForNewAdmin",
      "outputs": [
        {
          "internalType": "address",
          "name": "",
          "type": "address"
        }
      ],
      "stateMutability": "view",
      "type": "function"
    },
    {
      "inputs": [
        {
          "internalType": "bytes32",
          "name": "role",
          "type": "bytes32"
        }
      ],
      "name": "getRoleAdmin",
      "outputs": [
        {
          "internalType": "bytes32",
          "name": "",
          "type": "bytes32"
        }
      ],
      "stateMutability": "view",
      "type": "function"
    },
    {
      "inputs": [
        {
          "internalType": "bytes32",
          "name": "role",
          "type": "bytes32"
        },
        {
          "internalType": "uint256",
          "name": "index",
          "type": "uint256"
        }
      ],
      "name": "getRoleMember",
      "outputs": [
        {
          "internalType": "address",
          "name": "",
          "type": "address"
        }
      ],
      "stateMutability": "view",
      "type": "function"
    },
    {
      "inputs": [
        {
          "internalType": "bytes32",
          "name": "role",
          "type": "bytes32"
        }
      ],
      "name": "getRoleMemberCount",
      "outputs": [
        {
          "internalType": "uint256",
          "name": "",
          "type": "uint256"
        }
      ],
      "stateMutability": "view",
      "type": "function"
    },
    {
      "inputs": [
        {
          "internalType": "address",
          "name": "bndAddress_",
          "type": "address"
        }
      ],
      "name": "grantBndRole",
      "outputs": [],
      "stateMutability": "nonpayable",
      "type": "function"
    },
    {
      "inputs": [
        {
          "internalType": "address",
          "name": "cakAddress_",
          "type": "address"
        }
      ],
      "name": "grantCakRole",
      "outputs": [],
      "stateMutability": "nonpayable",
      "type": "function"
    },
    {
      "inputs": [
        {
          "internalType": "address",
          "name": "cstAddress_",
          "type": "address"
        }
      ],
      "name": "grantCstRole",
      "outputs": [],
      "stateMutability": "nonpayable",
      "type": "function"
    },
    {
      "inputs": [
        {
          "internalType": "address",
          "name": "payAddress_",
          "type": "address"
        }
      ],
      "name": "grantPayRole",
      "outputs": [],
      "stateMutability": "nonpayable",
      "type": "function"
    },
    {
      "inputs": [
        {
          "internalType": "bytes32",
          "name": "role",
          "type": "bytes32"
        },
        {
          "internalType": "address",
          "name": "account",
          "type": "address"
        }
      ],
      "name": "grantRole",
      "outputs": [],
      "stateMutability": "nonpayable",
      "type": "function"
    },
    {
      "inputs": [
        {
          "internalType": "bytes32",
          "name": "role",
          "type": "bytes32"
        },
        {
          "internalType": "address",
          "name": "account",
          "type": "address"
        }
      ],
      "name": "hasRole",
      "outputs": [
        {
          "internalType": "bool",
          "name": "",
          "type": "bool"
        }
      ],
      "stateMutability": "view",
      "type": "function"
    },
    {
      "inputs": [
        {
          "internalType": "address",
          "name": "account",
          "type": "address"
        }
      ],
      "name": "isBnD",
      "outputs": [
        {
          "internalType": "bool",
          "name": "",
          "type": "bool"
        }
      ],
      "stateMutability": "view",
      "type": "function"
    },
    {
      "inputs": [
        {
          "internalType": "address",
          "name": "account",
          "type": "address"
        }
      ],
      "name": "isCAK",
      "outputs": [
        {
          "internalType": "bool",
          "name": "",
          "type": "bool"
        }
      ],
      "stateMutability": "view",
      "type": "function"
    },
    {
      "inputs": [
        {
          "internalType": "address",
          "name": "account",
          "type": "address"
        }
      ],
      "name": "isCustodian",
      "outputs": [
        {
          "internalType": "bool",
          "name": "",
          "type": "bool"
        }
      ],
      "stateMutability": "view",
      "type": "function"
    },
    {
      "inputs": [
        {
          "internalType": "address",
          "name": "account",
          "type": "address"
        }
      ],
      "name": "isPay",
      "outputs": [
        {
          "internalType": "bool",
          "name": "",
          "type": "bool"
        }
      ],
      "stateMutability": "view",
      "type": "function"
    },
    {
      "inputs": [],
      "name": "registerAdmin",
      "outputs": [
        {
          "internalType": "address",
          "name": "",
          "type": "address"
        }
      ],
      "stateMutability": "view",
      "type": "function"
    },
    {
      "inputs": [
        {
          "internalType": "bytes32",
          "name": "role",
          "type": "bytes32"
        }
      ],
      "name": "renounceRole",
      "outputs": [],
      "stateMutability": "nonpayable",
      "type": "function"
    },
    {
      "inputs": [
        {
          "internalType": "address",
          "name": "bndAddress_",
          "type": "address"
        }
      ],
      "name": "revokeBndRole",
      "outputs": [],
      "stateMutability": "nonpayable",
      "type": "function"
    },
    {
      "inputs": [
        {
          "internalType": "address",
          "name": "cakAddress_",
          "type": "address"
        }
      ],
      "name": "revokeCakRole",
      "outputs": [],
      "stateMutability": "nonpayable",
      "type": "function"
    },
    {
      "inputs": [
        {
          "internalType": "address",
          "name": "cstAddress_",
          "type": "address"
        }
      ],
      "name": "revokeCstRole",
      "outputs": [],
      "stateMutability": "nonpayable",
      "type": "function"
    },
    {
      "inputs": [
        {
          "internalType": "address",
          "name": "payAddress_",
          "type": "address"
        }
      ],
      "name": "revokePayRole",
      "outputs": [],
      "stateMutability": "nonpayable",
      "type": "function"
    },
    {
      "inputs": [
        {
          "internalType": "bytes32",
          "name": "role",
          "type": "bytes32"
        },
        {
          "internalType": "address",
          "name": "account",
          "type": "address"
        }
      ],
      "name": "revokeRole",
      "outputs": [],
      "stateMutability": "nonpayable",
      "type": "function"
    },
    {
      "inputs": [],
      "name": "votesForNewAdmin",
      "outputs": [
        {
          "internalType": "uint8",
          "name": "",
          "type": "uint8"
        }
      ],
      "stateMutability": "view",
      "type": "function"
    }
  ],
  "bytecode": "0x608060405234801561001057600080fd5b506113b8806100206000396000f3fe608060405234801561001057600080fd5b50600436106101c35760003560e01c80638e1305de116100f9578063c1f4250b11610097578063d547741f11610071578063d547741f14610427578063e3965d541461043a578063f60d9ea11461044d578063f690c6c51461046057600080fd5b8063c1f4250b146103ee578063ca15c87314610401578063cc80473c1461041457600080fd5b8063a28f78f8116100d3578063a28f78f814610382578063a55234b814610395578063a5ce2472146103a8578063aa39403d146103b057600080fd5b80638e1305de146103495780639010d07c1461035c57806391d148541461036f57600080fd5b80632f2ff15d116101665780634361f92a116101405780634361f92a146102f45780635ab6f71b146103075780638865f1e21461030f5780638bb9c5bf1461033657600080fd5b80632f2ff15d1461029757806335c80c8c146102aa5780633bf2a9f4146102cd57600080fd5b80631c67a363116101a25780631c67a36314610215578063222ca3401461024a578063248a9ca31461025d5780632682ac911461027057600080fd5b8062a9303d146101c857806304b8c471146101dd57806306cb3750146101f0575b600080fd5b6101db6101d63660046112d4565b610473565b005b6101db6101eb3660046112d4565b61047f565b6101f8610488565b6040516001600160a01b0390911681526020015b60405180910390f35b61023c7f6ba6f588bcdc2df8426603a466c98ab15e79f7fb7f37b53581ce39c1d01b724981565b60405190815260200161020c565b6101db6102583660046112d4565b6104c0565b61023c61026b3660046112ef565b6104c9565b61023c7ff698af62c65280e4949bceec64b760f3b7738217cbc536cdfc4c9463676b05c281565b6101db6102a5366004611308565b610501565b6102bd6102b83660046112d4565b61050f565b604051901515815260200161020c565b61023c7fd7aa2ddfa4e381128202bf365b7e0a176f2fca6cdf2f23c2b0a6f4393769589081565b6102bd6103023660046112d4565b61051a565b6101f8610525565b61023c7fa75205b8583660bdad375c0ccde11af17668d76a408a9a5e739251b0f7c5987081565b6101db6103443660046112ef565b610558565b6101db6103573660046112d4565b610561565b6101f861036a366004611334565b61056a565b6102bd61037d366004611308565b61057d565b6101db6103903660046112d4565b610589565b6102bd6103a33660046112d4565b610592565b6101f861059d565b7fe40b5d020f846aaa1a692b46598f2e6c6d0a32cf717c27c286e348cc2a7d305054600160a01b900460ff1660405160ff909116815260200161020c565b6101db6103fc3660046112d4565b6105d0565b61023c61040f3660046112ef565b6105d9565b6101db6104223660046112d4565b6105e4565b6101db610435366004611308565b6105ed565b6102bd6104483660046112d4565b6105f7565b6101db61045b3660046112d4565b610602565b6101db61046e3660046112d4565b61060b565b61047c81610614565b50565b61047c8161063e565b60006104bb7fe40b5d020f846aaa1a692b46598f2e6c6d0a32cf717c27c286e348cc2a7d3050546001600160a01b031690565b905090565b61047c81610a24565b60008181527f2e59e4c2e927cdddbb64e181e0668d9a0fa70dd88f94d999cd87d5496a20da6260205260408120600201545b92915050565b61050b8282610a4e565b5050565b60006104fb82610c00565b60006104fb82610c2c565b60006104bb7fe40b5d020f846aaa1a692b46598f2e6c6d0a32cf717c27c286e348cc2a7d304e546001600160a01b031690565b61047c81610c58565b61047c81610c62565b60006105768383610c8c565b9392505050565b60006105768383610cc3565b61047c81610cfa565b60006104fb82610d24565b60006104bb7fe40b5d020f846aaa1a692b46598f2e6c6d0a32cf717c27c286e348cc2a7d304f546001600160a01b031690565b61047c81610d50565b60006104fb82610d7a565b61047c81610db0565b61050b8282610dda565b60006104fb82610f81565b61047c81610fad565b61047c81610fd7565b61047c7fd7aa2ddfa4e381128202bf365b7e0a176f2fca6cdf2f23c2b0a6f4393769589082610a4e565b7fe40b5d020f846aaa1a692b46598f2e6c6d0a32cf717c27c286e348cc2a7d304e6106897fa75205b8583660bdad375c0ccde11af17668d76a408a9a5e739251b0f7c5987033610cc3565b6106da5760405162461bcd60e51b815260206004820152601260248201527f43616c6c6572206d7573742062652043414b000000000000000000000000000060448201526064015b60405180910390fd5b80546001600160a01b039081169083160361075c5760405162461bcd60e51b8152602060048201526024808201527f4e65772061646d696e206973207468652073616d652061732063757272656e7460448201527f206f6e650000000000000000000000000000000000000000000000000000000060648201526084016106d1565b6001600160a01b03821615801561078157506002810154600160a01b900460ff166001145b156107d65760028101805474ffffffffffffffffffffffffffffffffffffffffff19169055600101805473ffffffffffffffffffffffffffffffffffffffff19166001600160a01b0392909216919091179055565b6001600160a01b0382166108525760405162461bcd60e51b815260206004820152603160248201527f5468652070726f706f736564206e65772061646d696e2063616e6e6f7420626560448201527f20746865207a65726f206164647265737300000000000000000000000000000060648201526084016106d1565b6002810154600160a01b900460ff166000036108e1576002810180547fffffffffffffffffffffff00ffffffffffffffffffffffffffffffffffffffff16600160a01b17905561089f3390565b60028201805473ffffffffffffffffffffffffffffffffffffffff199081166001600160a01b0393841617909155600190920180549092169216919091179055565b6002810154600160a01b900460ff1660010361050b5760018101546001600160a01b03838116911614610914573361089f565b6002810154336001600160a01b03909116036109725760405162461bcd60e51b815260206004820152601a60248201527f546869732043414b2068617320616c726561647920766f74656400000000000060448201526064016106d1565b8054610989906000906001600160a01b0316611001565b60018101546109a3906000906001600160a01b0316610501565b60018101805482546001600160a01b03821673ffffffffffffffffffffffffffffffffffffffff199182168117855560028501805474ffffffffffffffffffffffffffffffffffffffffff1916905591169091556040517f7ce7ec0b50378fb6c0186ffb5f48325f6593fcb4ca4386f21861af3129188f5c90600090a25050565b61047c7f6ba6f588bcdc2df8426603a466c98ab15e79f7fb7f37b53581ce39c1d01b724982610dda565b81610aac5760405162461bcd60e51b8152602060048201526024808201527f5573652066756e6374696f6e206368616e676541646d696e526f6c6520696e736044820152631d19585960e21b60648201526084016106d1565b610bf6565b7fa75205b8583660bdad375c0ccde11af17668d76a408a9a5e739251b0f7c598708203610b8057610afd7fa75205b8583660bdad375c0ccde11af17668d76a408a9a5e739251b0f7c5987033610cc3565b80610b0e5750610b0e600033610cc3565b610aa75760405162461bcd60e51b815260206004820152602e60248201527f43616c6c6572206d7573742062652043414b206f722041444d494e20746f207360448201527f657420616e6f746865722043414b00000000000000000000000000000000000060648201526084016106d1565b610baa7fa75205b8583660bdad375c0ccde11af17668d76a408a9a5e739251b0f7c5987033610cc3565b610bf65760405162461bcd60e51b815260206004820181905260248201527f43616c6c6572206d7573742062652043414b20746f20736574206120726f6c6560448201526064016106d1565b61050b8282611075565b60006104fb7f6ba6f588bcdc2df8426603a466c98ab15e79f7fb7f37b53581ce39c1d01b724983610cc3565b60006104fb7fa75205b8583660bdad375c0ccde11af17668d76a408a9a5e739251b0f7c5987083610cc3565b61047c8133610dda565b61047c7fa75205b8583660bdad375c0ccde11af17668d76a408a9a5e739251b0f7c5987082610dda565b60008281527f2e59e4c2e927cdddbb64e181e0668d9a0fa70dd88f94d999cd87d5496a20da626020526040812061057690836110e9565b60008281527f2e59e4c2e927cdddbb64e181e0668d9a0fa70dd88f94d999cd87d5496a20da626020526040812061057690836110f5565b61047c7fa75205b8583660bdad375c0ccde11af17668d76a408a9a5e739251b0f7c5987082610a4e565b60006104fb7ff698af62c65280e4949bceec64b760f3b7738217cbc536cdfc4c9463676b05c283610cc3565b61047c7ff698af62c65280e4949bceec64b760f3b7738217cbc536cdfc4c9463676b05c282610dda565b60008181527f2e59e4c2e927cdddbb64e181e0668d9a0fa70dd88f94d999cd87d5496a20da62602052604081206104fb90611117565b61047c7ff698af62c65280e4949bceec64b760f3b7738217cbc536cdfc4c9463676b05c282610a4e565b81610e335760405162461bcd60e51b8152602060048201526024808201527f5573652066756e6374696f6e206368616e676541646d696e526f6c6520696e736044820152631d19585960e21b60648201526084016106d1565b7fa75205b8583660bdad375c0ccde11af17668d76a408a9a5e739251b0f7c598708203610edb57610e65600033610cc3565b610ed65760405162461bcd60e51b8152602060048201526024808201527f43616c6c6572206d7573742062652041444d494e20746f2072656d6f7665206160448201527f2043414b0000000000000000000000000000000000000000000000000000000060648201526084016106d1565b610f77565b610f057fa75205b8583660bdad375c0ccde11af17668d76a408a9a5e739251b0f7c5987033610cc3565b610f775760405162461bcd60e51b815260206004820152602360248201527f43616c6c6572206d7573742062652043414b20746f2072656d6f76652061207260448201527f6f6c65000000000000000000000000000000000000000000000000000000000060648201526084016106d1565b61050b8282611001565b60006104fb7fd7aa2ddfa4e381128202bf365b7e0a176f2fca6cdf2f23c2b0a6f4393769589083610cc3565b61047c7fd7aa2ddfa4e381128202bf365b7e0a176f2fca6cdf2f23c2b0a6f4393769589082610dda565b61047c7f6ba6f588bcdc2df8426603a466c98ab15e79f7fb7f37b53581ce39c1d01b724982610a4e565b60008281527f2e59e4c2e927cdddbb64e181e0668d9a0fa70dd88f94d999cd87d5496a20da62602052604090206110389082611121565b5060405133906001600160a01b0383169084907ff6391f5c32d9c69d2a47ea670b442974b53935d1edc7fd64eb21e047a839171b90600090a45050565b60008281527f2e59e4c2e927cdddbb64e181e0668d9a0fa70dd88f94d999cd87d5496a20da62602052604090206110ac9082611136565b5060405133906001600160a01b0383169084907f2f8788117e7eff1d82e926ec794901d17c78024a50270940304540a733656f0d90600090a45050565b6000610576838361114b565b6001600160a01b03811660009081526001830160205260408120541515610576565b60006104fb825490565b6000610576836001600160a01b0384166111b0565b6000610576836001600160a01b038416611275565b81546000908210611188576040517fe637bf3b00000000000000000000000000000000000000000000000000000000815260040160405180910390fd5b82600001828154811061119d5761119d611356565b9060005260206000200154905092915050565b6000818152600183016020526040812054801561126e578354600090859060001981019081106111e2576111e2611356565b906000526020600020015490508085600001600184038154811061120857611208611356565b600091825260208083209091019290925591825260018601905260409020819055835484908061123a5761123a61136c565b6001900381819060005260206000200160009055905583600101600084815260200190815260200160002060009055600191505b5092915050565b60008181526001830160205260408120546104fb575081546001808201845560008481526020808220909301849055845493815293810190915260409092205590565b80356001600160a01b03811681146112cf57600080fd5b919050565b6000602082840312156112e657600080fd5b610576826112b8565b60006020828403121561130157600080fd5b5035919050565b6000806040838503121561131b57600080fd5b8235915061132b602084016112b8565b90509250929050565b6000806040838503121561134757600080fd5b50508035926020909101359150565b634e487b7160e01b600052603260045260246000fd5b634e487b7160e01b600052603160045260246000fdfea264697066735822122094e403544d57f3e32575315e5ccaff9a3abba21c4f44480ab583803ac769543d64736f6c63430008140033",
  "linkReferences": {},
  "deployedLinkReferences": {}
}