{
  "_format": "hh-sol-artifact-1",
  "contractName": "RegisterRoleManagement",
  "sourceName": "contracts/register/role/RegisterRoleManagement.sol",
  "abi": [
    {
      "inputs": [],
      "name": "EnumerableSet__IndexOutOfBounds",
      "type": "error"
    },
    {
      "anonymous": false,
      "inputs": [
        {
          "indexed": true,
          "internalType": "address",
          "name": "_addressForNewAdmin",
          "type": "address"
        }
      ],
      "name": "AdminChanged",
      "type": "event"
    },
    {
      "anonymous": false,
      "inputs": [
        {
          "indexed": false,
          "internalType": "uint64",
          "name": "version",
          "type": "uint64"
        }
      ],
      "name": "Initialized",
      "type": "event"
    },
    {
      "anonymous": false,
      "inputs": [
        {
          "indexed": true,
          "internalType": "bytes32",
          "name": "role",
          "type": "bytes32"
        },
        {
          "indexed": true,
          "internalType": "bytes32",
          "name": "previousAdminRole",
          "type": "bytes32"
        },
        {
          "indexed": true,
          "internalType": "bytes32",
          "name": "newAdminRole",
          "type": "bytes32"
        }
      ],
      "name": "RoleAdminChanged",
      "type": "event"
    },
    {
      "anonymous": false,
      "inputs": [
        {
          "indexed": true,
          "internalType": "bytes32",
          "name": "role",
          "type": "bytes32"
        },
        {
          "indexed": true,
          "internalType": "address",
          "name": "account",
          "type": "address"
        },
        {
          "indexed": true,
          "internalType": "address",
          "name": "sender",
          "type": "address"
        }
      ],
      "name": "RoleGranted",
      "type": "event"
    },
    {
      "anonymous": false,
      "inputs": [
        {
          "indexed": true,
          "internalType": "bytes32",
          "name": "role",
          "type": "bytes32"
        },
        {
          "indexed": true,
          "internalType": "address",
          "name": "account",
          "type": "address"
        },
        {
          "indexed": true,
          "internalType": "address",
          "name": "sender",
          "type": "address"
        }
      ],
      "name": "RoleRevoked",
      "type": "event"
    },
    {
      "inputs": [],
      "name": "BND_ROLE",
      "outputs": [
        {
          "internalType": "bytes32",
          "name": "",
          "type": "bytes32"
        }
      ],
      "stateMutability": "view",
      "type": "function"
    },
    {
      "inputs": [],
      "name": "CAK_ROLE",
      "outputs": [
        {
          "internalType": "bytes32",
          "name": "",
          "type": "bytes32"
        }
      ],
      "stateMutability": "view",
      "type": "function"
    },
    {
      "inputs": [],
      "name": "CST_ROLE",
      "outputs": [
        {
          "internalType": "bytes32",
          "name": "",
          "type": "bytes32"
        }
      ],
      "stateMutability": "view",
      "type": "function"
    },
    {
      "inputs": [],
      "name": "PAY_ROLE",
      "outputs": [
        {
          "internalType": "bytes32",
          "name": "",
          "type": "bytes32"
        }
      ],
      "stateMutability": "view",
      "type": "function"
    },
    {
      "inputs": [],
      "name": "addressForNewAdmin",
      "outputs": [
        {
          "internalType": "address",
          "name": "",
          "type": "address"
        }
      ],
      "stateMutability": "view",
      "type": "function"
    },
    {
      "inputs": [
        {
          "internalType": "address",
          "name": "account",
          "type": "address"
        }
      ],
      "name": "changeAdminRole",
      "outputs": [],
      "stateMutability": "nonpayable",
      "type": "function"
    },
    {
      "inputs": [],
      "name": "firstVoterForNewAdmin",
      "outputs": [
        {
          "internalType": "address",
          "name": "",
          "type": "address"
        }
      ],
      "stateMutability": "view",
      "type": "function"
    },
    {
      "inputs": [
        {
          "internalType": "bytes32",
          "name": "role",
          "type": "bytes32"
        }
      ],
      "name": "getRoleAdmin",
      "outputs": [
        {
          "internalType": "bytes32",
          "name": "",
          "type": "bytes32"
        }
      ],
      "stateMutability": "view",
      "type": "function"
    },
    {
      "inputs": [
        {
          "internalType": "bytes32",
          "name": "role",
          "type": "bytes32"
        },
        {
          "internalType": "uint256",
          "name": "index",
          "type": "uint256"
        }
      ],
      "name": "getRoleMember",
      "outputs": [
        {
          "internalType": "address",
          "name": "",
          "type": "address"
        }
      ],
      "stateMutability": "view",
      "type": "function"
    },
    {
      "inputs": [
        {
          "internalType": "bytes32",
          "name": "role",
          "type": "bytes32"
        }
      ],
      "name": "getRoleMemberCount",
      "outputs": [
        {
          "internalType": "uint256",
          "name": "",
          "type": "uint256"
        }
      ],
      "stateMutability": "view",
      "type": "function"
    },
    {
      "inputs": [
        {
          "internalType": "address",
          "name": "bndAddress_",
          "type": "address"
        }
      ],
      "name": "grantBndRole",
      "outputs": [],
      "stateMutability": "nonpayable",
      "type": "function"
    },
    {
      "inputs": [
        {
          "internalType": "address",
          "name": "cakAddress_",
          "type": "address"
        }
      ],
      "name": "grantCakRole",
      "outputs": [],
      "stateMutability": "nonpayable",
      "type": "function"
    },
    {
      "inputs": [
        {
          "internalType": "address",
          "name": "cstAddress_",
          "type": "address"
        }
      ],
      "name": "grantCstRole",
      "outputs": [],
      "stateMutability": "nonpayable",
      "type": "function"
    },
    {
      "inputs": [
        {
          "internalType": "address",
          "name": "payAddress_",
          "type": "address"
        }
      ],
      "name": "grantPayRole",
      "outputs": [],
      "stateMutability": "nonpayable",
      "type": "function"
    },
    {
      "inputs": [
        {
          "internalType": "bytes32",
          "name": "role",
          "type": "bytes32"
        },
        {
          "internalType": "address",
          "name": "account",
          "type": "address"
        }
      ],
      "name": "grantRole",
      "outputs": [],
      "stateMutability": "nonpayable",
      "type": "function"
    },
    {
      "inputs": [
        {
          "internalType": "bytes32",
          "name": "role",
          "type": "bytes32"
        },
        {
          "internalType": "address",
          "name": "account",
          "type": "address"
        }
      ],
      "name": "hasRole",
      "outputs": [
        {
          "internalType": "bool",
          "name": "",
          "type": "bool"
        }
      ],
      "stateMutability": "view",
      "type": "function"
    },
    {
      "inputs": [
        {
          "internalType": "address",
          "name": "account",
          "type": "address"
        }
      ],
      "name": "isBnD",
      "outputs": [
        {
          "internalType": "bool",
          "name": "",
          "type": "bool"
        }
      ],
      "stateMutability": "view",
      "type": "function"
    },
    {
      "inputs": [
        {
          "internalType": "address",
          "name": "account",
          "type": "address"
        }
      ],
      "name": "isCAK",
      "outputs": [
        {
          "internalType": "bool",
          "name": "",
          "type": "bool"
        }
      ],
      "stateMutability": "view",
      "type": "function"
    },
    {
      "inputs": [
        {
          "internalType": "address",
          "name": "account",
          "type": "address"
        }
      ],
      "name": "isCustodian",
      "outputs": [
        {
          "internalType": "bool",
          "name": "",
          "type": "bool"
        }
      ],
      "stateMutability": "view",
      "type": "function"
    },
    {
      "inputs": [
        {
          "internalType": "address",
          "name": "account",
          "type": "address"
        }
      ],
      "name": "isPay",
      "outputs": [
        {
          "internalType": "bool",
          "name": "",
          "type": "bool"
        }
      ],
      "stateMutability": "view",
      "type": "function"
    },
    {
      "inputs": [],
      "name": "registerAdmin",
      "outputs": [
        {
          "internalType": "address",
          "name": "",
          "type": "address"
        }
      ],
      "stateMutability": "view",
      "type": "function"
    },
    {
      "inputs": [
        {
          "internalType": "bytes32",
          "name": "role",
          "type": "bytes32"
        }
      ],
      "name": "renounceRole",
      "outputs": [],
      "stateMutability": "nonpayable",
      "type": "function"
    },
    {
      "inputs": [
        {
          "internalType": "address",
          "name": "bndAddress_",
          "type": "address"
        }
      ],
      "name": "revokeBndRole",
      "outputs": [],
      "stateMutability": "nonpayable",
      "type": "function"
    },
    {
      "inputs": [
        {
          "internalType": "address",
          "name": "cakAddress_",
          "type": "address"
        }
      ],
      "name": "revokeCakRole",
      "outputs": [],
      "stateMutability": "nonpayable",
      "type": "function"
    },
    {
      "inputs": [
        {
          "internalType": "address",
          "name": "cstAddress_",
          "type": "address"
        }
      ],
      "name": "revokeCstRole",
      "outputs": [],
      "stateMutability": "nonpayable",
      "type": "function"
    },
    {
      "inputs": [
        {
          "internalType": "address",
          "name": "payAddress_",
          "type": "address"
        }
      ],
      "name": "revokePayRole",
      "outputs": [],
      "stateMutability": "nonpayable",
      "type": "function"
    },
    {
      "inputs": [
        {
          "internalType": "bytes32",
          "name": "role",
          "type": "bytes32"
        },
        {
          "internalType": "address",
          "name": "account",
          "type": "address"
        }
      ],
      "name": "revokeRole",
      "outputs": [],
      "stateMutability": "nonpayable",
      "type": "function"
    },
    {
      "inputs": [],
      "name": "votesForNewAdmin",
      "outputs": [
        {
          "internalType": "uint8",
          "name": "",
          "type": "uint8"
        }
      ],
      "stateMutability": "view",
      "type": "function"
    }
  ],
  "bytecode": "0x608060405234801561001057600080fd5b50611382806100206000396000f3fe608060405234801561001057600080fd5b50600436106101c35760003560e01c80638e1305de116100f9578063c1f4250b11610097578063d547741f11610071578063d547741f14610428578063e3965d541461043b578063f60d9ea11461044e578063f690c6c51461046157600080fd5b8063c1f4250b146103ef578063ca15c87314610402578063cc80473c1461041557600080fd5b8063a28f78f8116100d3578063a28f78f814610383578063a55234b814610396578063a5ce2472146103a9578063aa39403d146103b157600080fd5b80638e1305de1461034a5780639010d07c1461035d57806391d148541461037057600080fd5b80632f2ff15d116101665780634361f92a116101405780634361f92a146102f45780635ab6f71b146103085780638865f1e2146103105780638bb9c5bf1461033757600080fd5b80632f2ff15d1461029757806335c80c8c146102aa5780633bf2a9f4146102cd57600080fd5b80631c67a363116101a25780631c67a36314610215578063222ca3401461024a578063248a9ca31461025d5780632682ac911461027057600080fd5b8062a9303d146101c857806304b8c471146101dd57806306cb3750146101f0575b600080fd5b6101db6101d636600461129e565b610474565b005b6101db6101eb36600461129e565b610480565b6101f8610489565b6040516001600160a01b0390911681526020015b60405180910390f35b61023c7f6ba6f588bcdc2df8426603a466c98ab15e79f7fb7f37b53581ce39c1d01b724981565b60405190815260200161020c565b6101db61025836600461129e565b6104c1565b61023c61026b3660046112b9565b6104ca565b61023c7ff698af62c65280e4949bceec64b760f3b7738217cbc536cdfc4c9463676b05c281565b6101db6102a53660046112d2565b610502565b6102bd6102b836600461129e565b610510565b604051901515815260200161020c565b61023c7fd7aa2ddfa4e381128202bf365b7e0a176f2fca6cdf2f23c2b0a6f4393769589081565b6102bd61030236600461129e565b50600190565b6101f861051b565b61023c7fa75205b8583660bdad375c0ccde11af17668d76a408a9a5e739251b0f7c5987081565b6101db6103453660046112b9565b61054e565b6101db61035836600461129e565b610557565b6101f861036b3660046112fe565b610560565b6102bd61037e3660046112d2565b610573565b6101db61039136600461129e565b61057f565b6102bd6103a436600461129e565b610588565b6101f8610593565b7fe40b5d020f846aaa1a692b46598f2e6c6d0a32cf717c27c286e348cc2a7d305054600160a01b900460ff1660405160ff909116815260200161020c565b6101db6103fd36600461129e565b6105c6565b61023c6104103660046112b9565b6105cf565b6101db61042336600461129e565b6105da565b6101db6104363660046112d2565b6105e3565b6102bd61044936600461129e565b6105ed565b6101db61045c36600461129e565b6105f8565b6101db61046f36600461129e565b610601565b61047d8161060a565b50565b61047d81610634565b60006104bc7fe40b5d020f846aaa1a692b46598f2e6c6d0a32cf717c27c286e348cc2a7d3050546001600160a01b031690565b905090565b61047d81610a1a565b60008181527f2e59e4c2e927cdddbb64e181e0668d9a0fa70dd88f94d999cd87d5496a20da6260205260408120600201545b92915050565b61050c8282610a44565b5050565b60006104fc82610bf6565b60006104bc7fe40b5d020f846aaa1a692b46598f2e6c6d0a32cf717c27c286e348cc2a7d304e546001600160a01b031690565b61047d81610c22565b61047d81610c2c565b600061056c8383610c56565b9392505050565b600061056c8383610c8d565b61047d81610cc4565b60006104fc82610cee565b60006104bc7fe40b5d020f846aaa1a692b46598f2e6c6d0a32cf717c27c286e348cc2a7d304f546001600160a01b031690565b61047d81610d1a565b60006104fc82610d44565b61047d81610d7a565b61050c8282610da4565b60006104fc82610f4b565b61047d81610f77565b61047d81610fa1565b61047d7fd7aa2ddfa4e381128202bf365b7e0a176f2fca6cdf2f23c2b0a6f4393769589082610a44565b7fe40b5d020f846aaa1a692b46598f2e6c6d0a32cf717c27c286e348cc2a7d304e61067f7fa75205b8583660bdad375c0ccde11af17668d76a408a9a5e739251b0f7c5987033610c8d565b6106d05760405162461bcd60e51b815260206004820152601260248201527f43616c6c6572206d7573742062652043414b000000000000000000000000000060448201526064015b60405180910390fd5b80546001600160a01b03908116908316036107525760405162461bcd60e51b8152602060048201526024808201527f4e65772061646d696e206973207468652073616d652061732063757272656e7460448201527f206f6e650000000000000000000000000000000000000000000000000000000060648201526084016106c7565b6001600160a01b03821615801561077757506002810154600160a01b900460ff166001145b156107cc5760028101805474ffffffffffffffffffffffffffffffffffffffffff19169055600101805473ffffffffffffffffffffffffffffffffffffffff19166001600160a01b0392909216919091179055565b6001600160a01b0382166108485760405162461bcd60e51b815260206004820152603160248201527f5468652070726f706f736564206e65772061646d696e2063616e6e6f7420626560448201527f20746865207a65726f206164647265737300000000000000000000000000000060648201526084016106c7565b6002810154600160a01b900460ff166000036108d7576002810180547fffffffffffffffffffffff00ffffffffffffffffffffffffffffffffffffffff16600160a01b1790556108953390565b60028201805473ffffffffffffffffffffffffffffffffffffffff199081166001600160a01b0393841617909155600190920180549092169216919091179055565b6002810154600160a01b900460ff1660010361050c5760018101546001600160a01b0383811691161461090a5733610895565b6002810154336001600160a01b03909116036109685760405162461bcd60e51b815260206004820152601a60248201527f546869732043414b2068617320616c726561647920766f74656400000000000060448201526064016106c7565b805461097f906000906001600160a01b0316610fcb565b6001810154610999906000906001600160a01b0316610502565b60018101805482546001600160a01b03821673ffffffffffffffffffffffffffffffffffffffff199182168117855560028501805474ffffffffffffffffffffffffffffffffffffffffff1916905591169091556040517f7ce7ec0b50378fb6c0186ffb5f48325f6593fcb4ca4386f21861af3129188f5c90600090a25050565b61047d7f6ba6f588bcdc2df8426603a466c98ab15e79f7fb7f37b53581ce39c1d01b724982610da4565b81610aa25760405162461bcd60e51b8152602060048201526024808201527f5573652066756e6374696f6e206368616e676541646d696e526f6c6520696e736044820152631d19585960e21b60648201526084016106c7565b610bec565b7fa75205b8583660bdad375c0ccde11af17668d76a408a9a5e739251b0f7c598708203610b7657610af37fa75205b8583660bdad375c0ccde11af17668d76a408a9a5e739251b0f7c5987033610c8d565b80610b045750610b04600033610c8d565b610a9d5760405162461bcd60e51b815260206004820152602e60248201527f43616c6c6572206d7573742062652043414b206f722041444d494e20746f207360448201527f657420616e6f746865722043414b00000000000000000000000000000000000060648201526084016106c7565b610ba07fa75205b8583660bdad375c0ccde11af17668d76a408a9a5e739251b0f7c5987033610c8d565b610bec5760405162461bcd60e51b815260206004820181905260248201527f43616c6c6572206d7573742062652043414b20746f20736574206120726f6c6560448201526064016106c7565b61050c828261103f565b60006104fc7f6ba6f588bcdc2df8426603a466c98ab15e79f7fb7f37b53581ce39c1d01b724983610c8d565b61047d8133610da4565b61047d7fa75205b8583660bdad375c0ccde11af17668d76a408a9a5e739251b0f7c5987082610da4565b60008281527f2e59e4c2e927cdddbb64e181e0668d9a0fa70dd88f94d999cd87d5496a20da626020526040812061056c90836110b3565b60008281527f2e59e4c2e927cdddbb64e181e0668d9a0fa70dd88f94d999cd87d5496a20da626020526040812061056c90836110bf565b61047d7fa75205b8583660bdad375c0ccde11af17668d76a408a9a5e739251b0f7c5987082610a44565b60006104fc7ff698af62c65280e4949bceec64b760f3b7738217cbc536cdfc4c9463676b05c283610c8d565b61047d7ff698af62c65280e4949bceec64b760f3b7738217cbc536cdfc4c9463676b05c282610da4565b60008181527f2e59e4c2e927cdddbb64e181e0668d9a0fa70dd88f94d999cd87d5496a20da62602052604081206104fc906110e1565b61047d7ff698af62c65280e4949bceec64b760f3b7738217cbc536cdfc4c9463676b05c282610a44565b81610dfd5760405162461bcd60e51b8152602060048201526024808201527f5573652066756e6374696f6e206368616e676541646d696e526f6c6520696e736044820152631d19585960e21b60648201526084016106c7565b7fa75205b8583660bdad375c0ccde11af17668d76a408a9a5e739251b0f7c598708203610ea557610e2f600033610c8d565b610ea05760405162461bcd60e51b8152602060048201526024808201527f43616c6c6572206d7573742062652041444d494e20746f2072656d6f7665206160448201527f2043414b0000000000000000000000000000000000000000000000000000000060648201526084016106c7565b610f41565b610ecf7fa75205b8583660bdad375c0ccde11af17668d76a408a9a5e739251b0f7c5987033610c8d565b610f415760405162461bcd60e51b815260206004820152602360248201527f43616c6c6572206d7573742062652043414b20746f2072656d6f76652061207260448201527f6f6c65000000000000000000000000000000000000000000000000000000000060648201526084016106c7565b61050c8282610fcb565b60006104fc7fd7aa2ddfa4e381128202bf365b7e0a176f2fca6cdf2f23c2b0a6f4393769589083610c8d565b61047d7fd7aa2ddfa4e381128202bf365b7e0a176f2fca6cdf2f23c2b0a6f4393769589082610da4565b61047d7f6ba6f588bcdc2df8426603a466c98ab15e79f7fb7f37b53581ce39c1d01b724982610a44565b60008281527f2e59e4c2e927cdddbb64e181e0668d9a0fa70dd88f94d999cd87d5496a20da626020526040902061100290826110eb565b5060405133906001600160a01b0383169084907ff6391f5c32d9c69d2a47ea670b442974b53935d1edc7fd64eb21e047a839171b90600090a45050565b60008281527f2e59e4c2e927cdddbb64e181e0668d9a0fa70dd88f94d999cd87d5496a20da62602052604090206110769082611100565b5060405133906001600160a01b0383169084907f2f8788117e7eff1d82e926ec794901d17c78024a50270940304540a733656f0d90600090a45050565b600061056c8383611115565b6001600160a01b0381166000908152600183016020526040812054151561056c565b60006104fc825490565b600061056c836001600160a01b03841661117a565b600061056c836001600160a01b03841661123f565b81546000908210611152576040517fe637bf3b00000000000000000000000000000000000000000000000000000000815260040160405180910390fd5b82600001828154811061116757611167611320565b9060005260206000200154905092915050565b60008181526001830160205260408120548015611238578354600090859060001981019081106111ac576111ac611320565b90600052602060002001549050808560000160018403815481106111d2576111d2611320565b600091825260208083209091019290925591825260018601905260409020819055835484908061120457611204611336565b6001900381819060005260206000200160009055905583600101600084815260200190815260200160002060009055600191505b5092915050565b60008181526001830160205260408120546104fc575081546001808201845560008481526020808220909301849055845493815293810190915260409092205590565b80356001600160a01b038116811461129957600080fd5b919050565b6000602082840312156112b057600080fd5b61056c82611282565b6000602082840312156112cb57600080fd5b5035919050565b600080604083850312156112e557600080fd5b823591506112f560208401611282565b90509250929050565b6000806040838503121561131157600080fd5b50508035926020909101359150565b634e487b7160e01b600052603260045260246000fd5b634e487b7160e01b600052603160045260246000fdfea2646970667358221220dd98856977e8f416cade7a33bea0128312a1d8c8d12d9b1b8b8142b34b42e1a464736f6c63430008140033",
  "linkReferences": {},
  "deployedLinkReferences": {}
}