{
  "_format": "hh-sol-artifact-1",
  "contractName": "Coupon",
  "sourceName": "src/Coupon.sol",
  "abi": [
    {
      "inputs": [
        {
          "internalType": "address",
          "name": "_registerContract",
          "type": "address"
        },
        {
          "internalType": "uint256",
          "name": "_couponDate",
          "type": "uint256"
        },
        {
          "internalType": "uint256",
          "name": "_nbDays",
          "type": "uint256"
        },
        {
          "internalType": "uint256",
          "name": "_recordDate",
          "type": "uint256"
        },
        {
          "internalType": "uint256",
          "name": "_cutOfTime",
          "type": "uint256"
        }
      ],
      "stateMutability": "nonpayable",
      "type": "constructor"
    },
    {
      "anonymous": false,
      "inputs": [
        {
          "indexed": true,
          "internalType": "contract IRegister",
          "name": "register",
          "type": "address"
        },
        {
          "indexed": true,
          "internalType": "uint256",
          "name": "couponDate",
          "type": "uint256"
        },
        {
          "indexed": true,
          "internalType": "enum Coupon.CouponStatus",
          "name": "status",
          "type": "uint8"
        }
      ],
      "name": "CouponChanged",
      "type": "event"
    },
    {
      "anonymous": false,
      "inputs": [
        {
          "indexed": true,
          "internalType": "contract IRegister",
          "name": "register",
          "type": "address"
        },
        {
          "indexed": true,
          "internalType": "uint256",
          "name": "couponDate",
          "type": "uint256"
        },
        {
          "indexed": true,
          "internalType": "address",
          "name": "investor",
          "type": "address"
        },
        {
          "indexed": false,
          "internalType": "enum Coupon.PaymentStatus",
          "name": "status",
          "type": "uint8"
        },
        {
          "indexed": false,
          "internalType": "enum Coupon.PaymentStatus",
          "name": "previousStatus",
          "type": "uint8"
        }
      ],
      "name": "CouponPaymentStatusChanged",
      "type": "event"
    },
    {
      "inputs": [],
      "name": "couponDate",
      "outputs": [
        {
          "internalType": "uint256",
          "name": "",
          "type": "uint256"
        }
      ],
      "stateMutability": "view",
      "type": "function"
    },
    {
      "inputs": [],
      "name": "cutOfTime",
      "outputs": [
        {
          "internalType": "uint256",
          "name": "",
          "type": "uint256"
        }
      ],
      "stateMutability": "view",
      "type": "function"
    },
    {
      "inputs": [
        {
          "internalType": "address",
          "name": "_investor",
          "type": "address"
        }
      ],
      "name": "getInvestorPayments",
      "outputs": [
        {
          "internalType": "enum Coupon.PaymentStatus",
          "name": "",
          "type": "uint8"
        }
      ],
      "stateMutability": "view",
      "type": "function"
    },
    {
      "inputs": [
        {
          "internalType": "address",
          "name": "_investor",
          "type": "address"
        }
      ],
      "name": "getPaymentAmountForInvestor",
      "outputs": [
        {
          "internalType": "uint256",
          "name": "paymentAmount",
          "type": "uint256"
        }
      ],
      "stateMutability": "view",
      "type": "function"
    },
    {
      "inputs": [],
      "name": "getTotalPaymentAmount",
      "outputs": [
        {
          "internalType": "uint256",
          "name": "paymentAmount",
          "type": "uint256"
        }
      ],
      "stateMutability": "view",
      "type": "function"
    },
    {
      "inputs": [
        {
          "internalType": "address",
          "name": "",
          "type": "address"
        }
      ],
      "name": "investorPayments",
      "outputs": [
        {
          "internalType": "enum Coupon.PaymentStatus",
          "name": "",
          "type": "uint8"
        }
      ],
      "stateMutability": "view",
      "type": "function"
    },
    {
      "inputs": [],
      "name": "nbDays",
      "outputs": [
        {
          "internalType": "uint256",
          "name": "",
          "type": "uint256"
        }
      ],
      "stateMutability": "view",
      "type": "function"
    },
    {
      "inputs": [],
      "name": "payingAgent",
      "outputs": [
        {
          "internalType": "address",
          "name": "",
          "type": "address"
        }
      ],
      "stateMutability": "view",
      "type": "function"
    },
    {
      "inputs": [
        {
          "internalType": "address",
          "name": "_investor",
          "type": "address"
        }
      ],
      "name": "paymentIdForInvest",
      "outputs": [
        {
          "internalType": "bytes8",
          "name": "",
          "type": "bytes8"
        }
      ],
      "stateMutability": "view",
      "type": "function"
    },
    {
      "inputs": [],
      "name": "recordDate",
      "outputs": [
        {
          "internalType": "uint256",
          "name": "",
          "type": "uint256"
        }
      ],
      "stateMutability": "view",
      "type": "function"
    },
    {
      "inputs": [],
      "name": "register",
      "outputs": [
        {
          "internalType": "contract IRegister",
          "name": "",
          "type": "address"
        }
      ],
      "stateMutability": "view",
      "type": "function"
    },
    {
      "inputs": [],
      "name": "rejectCoupon",
      "outputs": [],
      "stateMutability": "nonpayable",
      "type": "function"
    },
    {
      "inputs": [
        {
          "internalType": "uint256",
          "name": "_recordDate",
          "type": "uint256"
        },
        {
          "internalType": "uint256",
          "name": "_cutOfTime",
          "type": "uint256"
        }
      ],
      "name": "setCutOffTime",
      "outputs": [],
      "stateMutability": "nonpayable",
      "type": "function"
    },
    {
      "inputs": [],
      "name": "setDateAsCurrentCoupon",
      "outputs": [],
      "stateMutability": "nonpayable",
      "type": "function"
    },
    {
      "inputs": [
        {
          "internalType": "uint256",
          "name": "_nbDays",
          "type": "uint256"
        }
      ],
      "name": "setNbDays",
      "outputs": [],
      "stateMutability": "nonpayable",
      "type": "function"
    },
    {
      "inputs": [],
      "name": "status",
      "outputs": [
        {
          "internalType": "enum Coupon.CouponStatus",
          "name": "",
          "type": "uint8"
        }
      ],
      "stateMutability": "view",
      "type": "function"
    },
    {
      "inputs": [
        {
          "internalType": "address",
          "name": "_investor",
          "type": "address"
        }
      ],
      "name": "toggleCouponPayment",
      "outputs": [],
      "stateMutability": "nonpayable",
      "type": "function"
    }
  ],
  "bytecode": "0x60806040523480156200001157600080fd5b5060405162001bfa38038062001bfa8339810160408190526200003491620002a7565b6001600055600780546001600160a01b0387166001600160a01b0319918216811790925560088054909116821790556040516338e5975560e21b815233600482015263e3965d5490602401602060405180830381865afa1580156200009d573d6000803e3d6000fd5b505050506040513d601f19601f82011682018060405250810190620000c39190620002fe565b620001275760405162461bcd60e51b815260206004820152602960248201527f53656e646572206d757374206265206120506179696e672063616c63756c61746044820152681a5bdb881859d95b9d60ba1b60648201526084015b60405180910390fd5b6007546040516338e20fc560e11b8152600481018690526001600160a01b03909116906371c41f8a906024016020604051808303816000875af115801562000173573d6000803e3d6000fd5b505050506040513d601f19601f82011682018060405250810190620001999190620002fe565b620001e75760405162461bcd60e51b815260206004820152601f60248201527f7468697320636f75706f6e4461746520646f6573206e6f74206578697374730060448201526064016200011e565b6001849055600283905562000200620151808362000329565b6200020c90836200034c565b6003556200021e620151808262000329565b6004908155600580546001600160a01b031916331790556008805460ff60a01b191690819055600160a01b900460ff169081111562000261576200026162000374565b6001546007546040516001600160a01b03909116907fee1a084aa36acdbc1c32f808f87c6ef8ae26d4ad59293c32244b1b72466bb76090600090a450505050506200038a565b600080600080600060a08688031215620002c057600080fd5b85516001600160a01b0381168114620002d857600080fd5b602087015160408801516060890151608090990151929a91995097965090945092505050565b6000602082840312156200031157600080fd5b815180151581146200032257600080fd5b9392505050565b6000826200034757634e487b7160e01b600052601260045260246000fd5b500690565b818103818111156200036e57634e487b7160e01b600052601160045260246000fd5b92915050565b634e487b7160e01b600052602160045260246000fd5b611860806200039a6000396000f3fe608060405234801561001057600080fd5b506004361061011b5760003560e01c80637c610024116100b2578063d64c058711610081578063f4bcf20911610066578063f4bcf209146102f0578063f68a3ab4146102f8578063fd3b44421461030b57600080fd5b8063d64c0587146102b1578063d927a606146102c457600080fd5b80637c6100241461025c57806386d49f771461026f578063c4fa96b014610278578063ccc5d7e91461028157600080fd5b8063532e91cc116100ee578063532e91cc146101905780635e4795a91461022c5780636969a06f1461023f57806369fb125e1461024957600080fd5b80631aa3a00814610120578063200d2ed21461015057806323bfa0f01461017157806350cc453214610187575b600080fd5b600754610133906001600160a01b031681565b6040516001600160a01b0390911681526020015b60405180910390f35b60085461016490600160a01b900460ff1681565b604051610147919061166d565b610179610314565b604051908152602001610147565b61017960035481565b6101fb61019e36600461169f565b6040517fffffffffffffffffffffffffffffffffffffffff00000000000000000000000030606090811b8216602084015283901b166034820152600090604801604051602081830303815290604052805190602001209050919050565b6040517fffffffffffffffff0000000000000000000000000000000000000000000000009091168152602001610147565b600554610133906001600160a01b031681565b6102476104c2565b005b61017961025736600461169f565b6108b6565b61024761026a3660046116c3565b610a81565b61017960025481565b61017960015481565b6102a461028f36600461169f565b60096020526000908152604090205460ff1681565b60405161014791906116f0565b6102476102bf36600461169f565b610bf1565b6102a46102d236600461169f565b6001600160a01b031660009081526009602052604090205460ff1690565b610247611302565b610247610306366004611704565b611465565b61017960045481565b600080600760009054906101000a90046001600160a01b03166001600160a01b031663a7f2f6ec6040518163ffffffff1660e01b8152600401602060405180830381865afa15801561036a573d6000803e3d6000fd5b505050506040513d601f19601f8201168201806040525081019061038e9190611726565b90506000600760009054906101000a90046001600160a01b03166001600160a01b03166339027f7c6040518163ffffffff1660e01b8152600401602060405180830381865afa1580156103e5573d6000803e3d6000fd5b505050506040513d601f19601f820116820180604052508101906104099190611726565b90506000600760009054906101000a90046001600160a01b03166001600160a01b03166318160ddd6040518163ffffffff1660e01b8152600401602060405180830381865afa158015610460573d6000803e3d6000fd5b505050506040513d601f19601f820116820180604052508101906104849190611726565b9050600061016860025484848761049b9190611755565b6104a59190611755565b6104af9190611755565b6104b99190611782565b95945050505050565b6104ca6115fe565b6007546040516338e5975560e21b81523360048201526001600160a01b039091169063e3965d5490602401602060405180830381865afa158015610512573d6000803e3d6000fd5b505050506040513d601f19601f820116820180604052508101906105369190611796565b6105995760405162461bcd60e51b815260206004820152602960248201527f53656e646572206d757374206265206120506179696e672063616c63756c61746044820152681a5bdb881859d95b9d60ba1b60648201526084015b60405180910390fd5b6000600854600160a01b900460ff1660048111156105b9576105b9611657565b1461063a5760405162461bcd60e51b8152602060048201526044602482018190527f54686520636f75706f6e20646174652063616e206265206d6f64696669656420908201527f6f6e6c792069662074686520636f6e74726163742073746174757320697320446064820152631c98599d60e21b608482015260a401610590565b6007546001546040517f71c41f8a0000000000000000000000000000000000000000000000000000000081526001600160a01b03909216916371c41f8a916106889160040190815260200190565b6020604051808303816000875af11580156106a7573d6000803e3d6000fd5b505050506040513d601f19601f820116820180604052508101906106cb9190611796565b6107175760405162461bcd60e51b815260206004820152601f60248201527f7468697320636f75706f6e4461746520646f6573206e6f7420657869737473006044820152606401610590565b6007546001546004546003546001600160a01b0390931692633052974c929161073f916117b8565b6040517fffffffff0000000000000000000000000000000000000000000000000000000060e085901b16815260048101929092526024820152604401600060405180830381600087803b15801561079557600080fd5b505af11580156107a9573d6000803e3d6000fd5b50505050600860009054906101000a90046001600160a01b03166001600160a01b0316639ef986de6040518163ffffffff1660e01b8152600401602060405180830381865afa158015610800573d6000803e3d6000fd5b505050506040513d601f19601f820116820180604052508101906108249190611726565b600655600880547fffffffffffffffffffffff00ffffffffffffffffffffffffffffffffffffffff16600160a01b90811791829055900460ff16600481111561086f5761086f611657565b6001546007546040516001600160a01b03909116907fee1a084aa36acdbc1c32f808f87c6ef8ae26d4ad59293c32244b1b72466bb76090600090a46108b46001600055565b565b600080600760009054906101000a90046001600160a01b03166001600160a01b031663a7f2f6ec6040518163ffffffff1660e01b8152600401602060405180830381865afa15801561090c573d6000803e3d6000fd5b505050506040513d601f19601f820116820180604052508101906109309190611726565b90506000600760009054906101000a90046001600160a01b03166001600160a01b03166339027f7c6040518163ffffffff1660e01b8152600401602060405180830381865afa158015610987573d6000803e3d6000fd5b505050506040513d601f19601f820116820180604052508101906109ab9190611726565b6008546001546040517f07b2d9e30000000000000000000000000000000000000000000000000000000081526001600160a01b03888116600483015260248201929092529293506000929116906307b2d9e390604401602060405180830381865afa158015610a1e573d6000803e3d6000fd5b505050506040513d601f19601f82011682018060405250810190610a429190611726565b90506000610168600254848487610a599190611755565b610a639190611755565b610a6d9190611755565b610a779190611782565b9695505050505050565b6007546040516338e5975560e21b81523360048201526001600160a01b039091169063e3965d5490602401602060405180830381865afa158015610ac9573d6000803e3d6000fd5b505050506040513d601f19601f82011682018060405250810190610aed9190611796565b610b4b5760405162461bcd60e51b815260206004820152602960248201527f53656e646572206d757374206265206120506179696e672063616c63756c61746044820152681a5bdb881859d95b9d60ba1b6064820152608401610590565b6000600854600160a01b900460ff166004811115610b6b57610b6b611657565b14610bec5760405162461bcd60e51b8152602060048201526044602482018190527f54686520636f75706f6e20646174652063616e206265206d6f64696669656420908201527f6f6e6c792069662074686520636f6e74726163742073746174757320697320446064820152631c98599d60e21b608482015260a401610590565b600255565b6007546040517fc41251a10000000000000000000000000000000000000000000000000000000081526001600160a01b0383811660048301529091169063c41251a190602401602060405180830381865afa158015610c54573d6000803e3d6000fd5b505050506040513d601f19601f82011682018060405250810190610c789190611796565b610cc45760405162461bcd60e51b815260206004820152601c60248201527f5468697320696e766573746f72206973206e6f7420616c6c6f776564000000006044820152606401610590565b6001600854600160a01b900460ff166004811115610ce457610ce4611657565b14610d575760405162461bcd60e51b815260206004820152602860248201527f54686520737461747573206f662074686520636f75706f6e2073686f756c642060448201527f62652052656164790000000000000000000000000000000000000000000000006064820152608401610590565b6001600160a01b03818116600090815260096020526040908190205460075491517f4361f92a00000000000000000000000000000000000000000000000000000000815233600482015260ff909116929190911690634361f92a90602401602060405180830381865afa158015610dd2573d6000803e3d6000fd5b505050506040513d601f19601f82011682018060405250810190610df69190611796565b15610f9c576001600160a01b03821660009081526009602052604081205460ff166002811115610e2857610e28611657565b03610ed3576006544211610ea45760405162461bcd60e51b815260206004820152602560248201527f74686520636f75706f6e20637574206f662074696d6520686173206e6f74207060448201527f61737365640000000000000000000000000000000000000000000000000000006064820152608401610590565b6001600160a01b038216600090815260096020526040902080546001919060ff191682805b021790555061129a565b60016001600160a01b03831660009081526009602052604090205460ff166002811115610f0257610f02611657565b03610f2c576001600160a01b0382166000908152600960205260409020805460ff1916905561129a565b6040805162461bcd60e51b81526020600482015260248101919091527f54686520737461747573206f66207468697320696e766573746f72277320706160448201527f796d656e742073686f756c642062652050616964206f7220546f4265506169646064820152608401610590565b6007546040517f35c80c8c0000000000000000000000000000000000000000000000000000000081523360048201526001600160a01b03909116906335c80c8c90602401602060405180830381865afa158015610ffd573d6000803e3d6000fd5b505050506040513d601f19601f820116820180604052508101906110219190611796565b1561122c576007546040517f8f92f4900000000000000000000000000000000000000000000000000000000081526001600160a01b03848116600483015233921690638f92f49090602401602060405180830381865afa158015611089573d6000803e3d6000fd5b505050506040513d601f19601f820116820180604052508101906110ad91906117cb565b6001600160a01b0316146111295760405162461bcd60e51b815260206004820152602660248201527f596f7520617265206e6f7420637573746f6469616e206f66207468697320696e60448201527f766573746f7200000000000000000000000000000000000000000000000000006064820152608401610590565b60016001600160a01b03831660009081526009602052604090205460ff16600281111561115857611158611657565b03611187576001600160a01b038216600090815260096020526040902080546002919060ff1916600183610ec9565b60026001600160a01b03831660009081526009602052604090205460ff1660028111156111b6576111b6611657565b036111e4576001600160a01b038216600090815260096020526040902080546001919060ff19168280610ec9565b60405162461bcd60e51b815260206004820152601d60248201527f496e76616c696420436f75706f6e207061796d656e74207374617475730000006044820152606401610590565b60405162461bcd60e51b815260206004820152603260248201527f73656e646572206d7573742062652043656e7472616c204163636f756e74204b60448201527f6565706572206f7220437573746f6469616e00000000000000000000000000006064820152608401610590565b6001546007546001600160a01b0380851660008181526009602052604090819020549051919493909216917f71a813fb36e2b43b4fcd5b541937f3501c4bb733759aa470d700efb9b7fd5b14916112f69160ff169087906117e8565b60405180910390a45050565b6007546040516338e5975560e21b81523360048201526001600160a01b039091169063e3965d5490602401602060405180830381865afa15801561134a573d6000803e3d6000fd5b505050506040513d601f19601f8201168201806040525081019061136e9190611796565b6113cc5760405162461bcd60e51b815260206004820152602960248201527f53656e646572206d757374206265206120506179696e672063616c63756c61746044820152681a5bdb881859d95b9d60ba1b6064820152608401610590565b600880547fffffffffffffffffffffff00ffffffffffffffffffffffffffffffffffffffff16740200000000000000000000000000000000000000001790819055600160a01b900460ff16600481111561142857611428611657565b6001546007546040516001600160a01b03909116907fee1a084aa36acdbc1c32f808f87c6ef8ae26d4ad59293c32244b1b72466bb76090600090a4565b6007546040516338e5975560e21b81523360048201526001600160a01b039091169063e3965d5490602401602060405180830381865afa1580156114ad573d6000803e3d6000fd5b505050506040513d601f19601f820116820180604052508101906114d19190611796565b61152f5760405162461bcd60e51b815260206004820152602960248201527f53656e646572206d757374206265206120506179696e672063616c63756c61746044820152681a5bdb881859d95b9d60ba1b6064820152608401610590565b6000600854600160a01b900460ff16600481111561154f5761154f611657565b146115d05760405162461bcd60e51b8152602060048201526044602482018190527f54686520636f75706f6e20646174652063616e206265206d6f64696669656420908201527f6f6e6c792069662074686520636f6e74726163742073746174757320697320446064820152631c98599d60e21b608482015260a401610590565b6115dd6201518083611803565b6115e79083611817565b6003556115f76201518082611803565b6004555050565b6002600054036116505760405162461bcd60e51b815260206004820152601f60248201527f5265656e7472616e637947756172643a207265656e7472616e742063616c6c006044820152606401610590565b6002600055565b634e487b7160e01b600052602160045260246000fd5b602081016005831061168157611681611657565b91905290565b6001600160a01b038116811461169c57600080fd5b50565b6000602082840312156116b157600080fd5b81356116bc81611687565b9392505050565b6000602082840312156116d557600080fd5b5035919050565b600381106116ec576116ec611657565b9052565b602081016116fe82846116dc565b92915050565b6000806040838503121561171757600080fd5b50508035926020909101359150565b60006020828403121561173857600080fd5b5051919050565b634e487b7160e01b600052601160045260246000fd5b80820281158282048414176116fe576116fe61173f565b634e487b7160e01b600052601260045260246000fd5b6000826117915761179161176c565b500490565b6000602082840312156117a857600080fd5b815180151581146116bc57600080fd5b808201808211156116fe576116fe61173f565b6000602082840312156117dd57600080fd5b81516116bc81611687565b604081016117f682856116dc565b6116bc60208301846116dc565b6000826118125761181261176c565b500690565b818103818111156116fe576116fe61173f56fea264697066735822122000966791ede8e2ad020a3b8688ebe28dcab43914befac33cf5ed9aa282b23fdb64736f6c63430008110033",
  "linkReferences": {},
  "deployedLinkReferences": {}
}