{"src/utilities/IBAN.sol":{"IBANCalculator":{"abi":[{"inputs":[{"internalType":"string","name":"bankCode5","type":"string"},{"internalType":"string","name":"branchCode5","type":"string"},{"internalType":"string","name":"accountNumber11","type":"string"}],"name":"calculateFrenchIBAN","outputs":[{"internalType":"string","name":"","type":"string"}],"stateMutability":"pure","type":"function"},{"inputs":[{"internalType":"string","name":"countryCode","type":"string"},{"internalType":"string","name":"bban","type":"string"}],"name":"calculateIBAN","outputs":[{"internalType":"string","name":"","type":"string"}],"stateMutability":"pure","type":"function"},{"inputs":[{"internalType":"string","name":"iban","type":"string"}],"name":"extractFrenchIBAN","outputs":[{"internalType":"bool","name":"valid","type":"bool"},{"internalType":"string","name":"bankCode5","type":"string"},{"internalType":"string","name":"branchCode5","type":"string"},{"internalType":"string","name":"accountNumber11","type":"string"},{"internalType":"uint16","name":"ribKey","type":"uint16"}],"stateMutability":"pure","type":"function"},{"inputs":[{"internalType":"string","name":"bankCode5","type":"string"},{"internalType":"string","name":"branchCode5","type":"string"},{"internalType":"string","name":"accountNumber11","type":"string"}],"name":"frenchBBAN","outputs":[{"internalType":"string","name":"","type":"string"}],"stateMutability":"pure","type":"function"},{"inputs":[{"internalType":"uint256","name":"bankCode","type":"uint256"},{"internalType":"uint256","name":"branchCode","type":"uint256"},{"internalType":"uint256","name":"accountNumber","type":"uint256"}],"name":"frenchRIBKey","outputs":[{"internalType":"uint16","name":"","type":"uint16"}],"stateMutability":"pure","type":"function"},{"inputs":[{"internalType":"string","name":"s","type":"string"}],"name":"frenchStringToNumber","outputs":[{"internalType":"uint256","name":"","type":"uint256"}],"stateMutability":"pure","type":"function"},{"inputs":[{"internalType":"uint256","name":"fakeIbanValue","type":"uint256"}],"name":"ibanKey","outputs":[{"internalType":"uint16","name":"","type":"uint16"}],"stateMutability":"pure","type":"function"},{"inputs":[{"internalType":"string","name":"s","type":"string"}],"name":"ibanStringToNumber","outputs":[{"internalType":"uint256","name":"","type":"uint256"}],"stateMutability":"pure","type":"function"},{"inputs":[{"internalType":"string","name":"s","type":"string"},{"internalType":"uint8","name":"length","type":"uint8"}],"name":"padWithZeros","outputs":[{"internalType":"string","name":"","type":"string"}],"stateMutability":"pure","type":"function"},{"inputs":[{"internalType":"uint256","name":"v","type":"uint256"}],"name":"uintToString","outputs":[{"internalType":"string","name":"str","type":"string"}],"stateMutability":"pure","type":"function"}],"evm":{"bytecode":{"linkReferences":{},"object":"608060405234801561001057600080fd5b506115d6806100206000396000f3fe608060405234801561001057600080fd5b50600436106100be5760003560e01c80639c6497a811610076578063b7f25bfe1161005b578063b7f25bfe1461017f578063e9395679146101a3578063fa09eae1146101b657600080fd5b80639c6497a814610159578063af3da9571461016c57600080fd5b80634a534937116100a75780634a5349371461010d5780636e619ebb14610133578063830a35bf1461014657600080fd5b80632dccf56a146100c3578063342cb582146100ec575b600080fd5b6100d66100d136600461109b565b6101c9565b6040516100e3919061114f565b60405180910390f35b6100ff6100fa366004611162565b610257565b6040519081526020016100e3565b61012061011b36600461119f565b610377565b60405161ffff90911681526020016100e3565b6101206101413660046111b8565b610397565b6100d66101543660046111e4565b6103f0565b6100d661016736600461123c565b6104e7565b6100d661017a36600461123c565b610577565b61019261018d366004611162565b6105c7565b6040516100e39594939291906112c4565b6100d66101b136600461119f565b610cbb565b6100ff6101c4366004611162565b610e88565b6060600082846040516020016101e092919061131c565b604051602081830303815290604052905060006101fc82610257565b9050600061020982610377565b9050600061022461021d8361ffff16610cbb565b60026103f0565b905086818760405160200161023b93929190611373565b6040516020818303038152906040529450505050505b92915050565b600080805b8351811015610370576000848281518110610279576102796113b6565b016020015160f81c9050603081106102af57603085838151811061029f5761029f6113b6565b016020015160f81c0390506102b3565b5060ff5b60098160ff16116102de5760ff81166102cd84600a6113e2565b6102d791906113f9565b925061035d565b60318160ff16101580156102f65750604a8160ff1611155b1561030057601f19015b60118160ff16101580156103185750602a8160ff1611155b15610344577ffffffffffffffffffffffffffffffffffffffffffffffffffffffffffffffff901610348565b5060005b60ff81161561035d578060ff16836064020192505b50806103688161140c565b91505061025c565b5092915050565b60008061038560618461145a565b61039090606261146e565b9392505050565b6000806103a58360036113e2565b6103b085600f6113e2565b6103bb8760596113e2565b6103c591906113f9565b6103cf91906113f9565b90506103dc60618261145a565b6103e790606161146e565b95945050505050565b60608160ff16835110610404575081610251565b82518203915060008260ff1667ffffffffffffffff81111561042857610428610ff8565b6040519080825280601f01601f191660200182016040528015610452576020820181803683370190505b50905060005b8360ff168110156104bb57603060f81b82828151811061047a5761047a6113b6565b60200101907effffffffffffffffffffffffffffffffffffffffffffffffffffffffffffff1916908160001a905350806104b38161140c565b915050610458565b5080846040516020016104cf929190611481565b60405160208183030381529060405291505092915050565b606060006105096104f786610e88565b61050086610e88565b61014186610e88565b90506105168560056103f0565b94506105238460056103f0565b935061053083600b6103f0565b9250600061054461021d8361ffff16610cbb565b90508585858360405160200161055d94939291906114b0565b604051602081830303815290604052925050509392505050565b606060006105868585856104e7565b90506103e76040518060400160405280600281526020017f4652000000000000000000000000000000000000000000000000000000000000815250826101c9565b60006060806060600080869050604660f81b7effffffffffffffffffffffffffffffffffffffffffffffffffffffffffffff19168160008151811061060e5761060e6113b6565b01602001516001600160f81b03191614158061066e575080517f5200000000000000000000000000000000000000000000000000000000000000908290600190811061065c5761065c6113b6565b01602001516001600160f81b03191614155b156106aa575050604080516020808201835260008083528351808301855281815284519283019094528082529650909450909250905083610cb2565b601b815110156106eb575050604080516020808201835260008083528351808301855281815284519283019094528082529650909450909250905083610cb2565b601b8151111561077957601b5b8151811015610777578151600090839083908110610718576107186113b6565b01602001516001600160f81b031916146107655750506040805160208082018352600080835283518083018552818152845192830190945280825297509095509093509150849050610cb2565b8061076f8161140c565b9150506106f8565b505b60006107ec82600281518110610791576107916113b6565b602001015160f81c60f81b836003815181106107af576107af6113b6565b016020908101516040516001600160f81b031993841692810192909252919091166021820152602201604051602081830303815290604052610257565b905061085f82601981518110610804576108046113b6565b602001015160f81c60f81b83601a81518110610822576108226113b6565b016020908101516040516001600160f81b031993841692810192909252919091166021820152602201604051602081830303815290604052610e88565b925081600481518110610874576108746113b6565b602001015160f81c60f81b82600581518110610892576108926113b6565b602001015160f81c60f81b836006815181106108b0576108b06113b6565b602001015160f81c60f81b846007815181106108ce576108ce6113b6565b602001015160f81c60f81b856008815181106108ec576108ec6113b6565b016020908101516040516001600160f81b03199687169281019290925293851660218201529184166022830152831660238201529116602482015260250160405160208183030381529060405295508160098151811061094e5761094e6113b6565b602001015160f81c60f81b82600a8151811061096c5761096c6113b6565b602001015160f81c60f81b83600b8151811061098a5761098a6113b6565b602001015160f81c60f81b84600c815181106109a8576109a86113b6565b602001015160f81c60f81b85600d815181106109c6576109c66113b6565b016020908101516040516001600160f81b031996871692810192909252938516602182015291841660228301528316602382015291166024820152602501604051602081830303815290604052945081600e81518110610a2857610a286113b6565b602001015160f81c60f81b82600f81518110610a4657610a466113b6565b602001015160f81c60f81b83601081518110610a6457610a646113b6565b602001015160f81c60f81b84601181518110610a8257610a826113b6565b602001015160f81c60f81b85601281518110610aa057610aa06113b6565b602001015160f81c60f81b86601381518110610abe57610abe6113b6565b602001015160f81c60f81b87601481518110610adc57610adc6113b6565b602001015160f81c60f81b88601581518110610afa57610afa6113b6565b602001015160f81c60f81b89601681518110610b1857610b186113b6565b602001015160f81c60f81b8a601781518110610b3657610b366113b6565b602001015160f81c60f81b8b601881518110610b5457610b546113b6565b016020908101516040516001600160f81b03199c8d1692810192909252998b166021820152978a166022890152958916602388015293881660248701529187166025860152861660268501528516602784015284166028830152831660298201529116602a820152602b0160405160208183030381529060405293506000610bf0610bde88610e88565b610be788610e88565b61014188610e88565b90508361ffff168161ffff1614610c0d5760009750505050610cb2565b600087878786601981518110610c2557610c256113b6565b602001015160f81c60f81b87601a81518110610c4357610c436113b6565b602001015160f81c60f81b604051602001610c62959493929190611507565b60405160208183030381529060405290506000610c7e82610257565b90506000610c8b82610377565b9050848161ffff1614610ca75760009a50505050505050610cb2565b60019a505050505050505b91939590929450565b606081600003610cfe57505060408051808201909152600181527f3000000000000000000000000000000000000000000000000000000000000000602082015290565b60408051606480825260a082019092526000908260208201818036833701905050905060005b8415610da6576000610d37600a8761145a565b9050610d44600a8761158c565b9550610d518160306113f9565b60f81b8383610d5f8161140c565b945081518110610d7157610d716113b6565b60200101907effffffffffffffffffffffffffffffffffffffffffffffffffffffffffffff1916908160001a90535050610d24565b60008167ffffffffffffffff811115610dc157610dc1610ff8565b6040519080825280601f01601f191660200182016040528015610deb576020820181803683370190505b50905060005b82811015610e7e578381610e0660018661146e565b610e10919061146e565b81518110610e2057610e206113b6565b602001015160f81c60f81b828281518110610e3d57610e3d6113b6565b60200101907effffffffffffffffffffffffffffffffffffffffffffffffffffffffffffff1916908160001a90535080610e768161140c565b915050610df1565b5095945050505050565b600080805b8351811015610370576000848281518110610eaa57610eaa6113b6565b016020015160f81c905060308110610ee0576030858381518110610ed057610ed06113b6565b016020015160f81c039050610ee4565b5060ff5b60098160ff1611610f0f5760ff8116610efe84600a6113e2565b610f0891906113f9565b9250610fe5565b60318160ff1610158015610f275750604a8160ff1611155b15610f3157601f19015b60118160ff1610158015610f49575060228160ff1611155b15610f8257600960ff7fffffffffffffffffffffffffffffffffffffffffffffffffffffffffffffffef8301165b066001019050610fd0565b60238160ff1610158015610f9a5750602a8160ff1611155b15610fcc57600960ff7ffffffffffffffffffffffffffffffffffffffffffffffffffffffffffffffff0830116610f77565b5060005b60ff811615610fe5578060ff1683600a020192505b5080610ff08161140c565b915050610e8d565b634e487b7160e01b600052604160045260246000fd5b600082601f83011261101f57600080fd5b813567ffffffffffffffff8082111561103a5761103a610ff8565b604051601f8301601f19908116603f0116810190828211818310171561106257611062610ff8565b8160405283815286602085880101111561107b57600080fd5b836020870160208301376000602085830101528094505050505092915050565b600080604083850312156110ae57600080fd5b823567ffffffffffffffff808211156110c657600080fd5b6110d28683870161100e565b935060208501359150808211156110e857600080fd5b506110f58582860161100e565b9150509250929050565b60005b8381101561111a578181015183820152602001611102565b50506000910152565b6000815180845261113b8160208601602086016110ff565b601f01601f19169290920160200192915050565b6020815260006103906020830184611123565b60006020828403121561117457600080fd5b813567ffffffffffffffff81111561118b57600080fd5b6111978482850161100e565b949350505050565b6000602082840312156111b157600080fd5b5035919050565b6000806000606084860312156111cd57600080fd5b505081359360208301359350604090920135919050565b600080604083850312156111f757600080fd5b823567ffffffffffffffff81111561120e57600080fd5b61121a8582860161100e565b925050602083013560ff8116811461123157600080fd5b809150509250929050565b60008060006060848603121561125157600080fd5b833567ffffffffffffffff8082111561126957600080fd5b6112758783880161100e565b9450602086013591508082111561128b57600080fd5b6112978783880161100e565b935060408601359150808211156112ad57600080fd5b506112ba8682870161100e565b9150509250925092565b851515815260a0602082015260006112df60a0830187611123565b82810360408401526112f18187611123565b905082810360608401526113058186611123565b91505061ffff831660808301529695505050505050565b6000835161132e8184602088016110ff565b8351908301906113428183602088016110ff565b7f30300000000000000000000000000000000000000000000000000000000000009101908152600201949350505050565b600084516113858184602089016110ff565b8451908301906113998183602089016110ff565b84519101906113ac8183602088016110ff565b0195945050505050565b634e487b7160e01b600052603260045260246000fd5b634e487b7160e01b600052601160045260246000fd5b8082028115828204841417610251576102516113cc565b80820180821115610251576102516113cc565b60007fffffffffffffffffffffffffffffffffffffffffffffffffffffffffffffffff820361143d5761143d6113cc565b5060010190565b634e487b7160e01b600052601260045260246000fd5b60008261146957611469611444565b500690565b81810381811115610251576102516113cc565b600083516114938184602088016110ff565b8351908301906114a78183602088016110ff565b01949350505050565b600085516114c2818460208a016110ff565b8551908301906114d6818360208a016110ff565b85519101906114e98183602089016110ff565b84519101906114fc8183602088016110ff565b019695505050505050565b60008651611519818460208b016110ff565b86519083019061152d818360208b016110ff565b8651910190611540818360208a016110ff565b6001600160f81b03199586169101908152929093166001830152507f46523030000000000000000000000000000000000000000000000000000000006002820152600601949350505050565b60008261159b5761159b611444565b50049056fea26469706673582212200c3f92d72a231e0d1ae49400e42831c262e9cc96de8de6b03f8ae3bb23b10c6d64736f6c63430008110033","opcodes":"PUSH1 0x80 PUSH1 0x40 MSTORE CALLVALUE DUP1 ISZERO PUSH2 0x10 JUMPI PUSH1 0x0 DUP1 REVERT JUMPDEST POP PUSH2 0x15D6 DUP1 PUSH2 0x20 PUSH1 0x0 CODECOPY PUSH1 0x0 RETURN INVALID PUSH1 0x80 PUSH1 0x40 MSTORE CALLVALUE DUP1 ISZERO PUSH2 0x10 JUMPI PUSH1 0x0 DUP1 REVERT JUMPDEST POP PUSH1 0x4 CALLDATASIZE LT PUSH2 0xBE JUMPI PUSH1 0x0 CALLDATALOAD PUSH1 0xE0 SHR DUP1 PUSH4 0x9C6497A8 GT PUSH2 0x76 JUMPI DUP1 PUSH4 0xB7F25BFE GT PUSH2 0x5B JUMPI DUP1 PUSH4 0xB7F25BFE EQ PUSH2 0x17F JUMPI DUP1 PUSH4 0xE9395679 EQ PUSH2 0x1A3 JUMPI DUP1 PUSH4 0xFA09EAE1 EQ PUSH2 0x1B6 JUMPI PUSH1 0x0 DUP1 REVERT JUMPDEST DUP1 PUSH4 0x9C6497A8 EQ PUSH2 0x159 JUMPI DUP1 PUSH4 0xAF3DA957 EQ PUSH2 0x16C JUMPI PUSH1 0x0 DUP1 REVERT JUMPDEST DUP1 PUSH4 0x4A534937 GT PUSH2 0xA7 JUMPI DUP1 PUSH4 0x4A534937 EQ PUSH2 0x10D JUMPI DUP1 PUSH4 0x6E619EBB EQ PUSH2 0x133 JUMPI DUP1 PUSH4 0x830A35BF EQ PUSH2 0x146 JUMPI PUSH1 0x0 DUP1 REVERT JUMPDEST DUP1 PUSH4 0x2DCCF56A EQ PUSH2 0xC3 JUMPI DUP1 PUSH4 0x342CB582 EQ PUSH2 0xEC JUMPI JUMPDEST PUSH1 0x0 DUP1 REVERT JUMPDEST PUSH2 0xD6 PUSH2 0xD1 CALLDATASIZE PUSH1 0x4 PUSH2 0x109B JUMP JUMPDEST PUSH2 0x1C9 JUMP JUMPDEST PUSH1 0x40 MLOAD PUSH2 0xE3 SWAP2 SWAP1 PUSH2 0x114F JUMP JUMPDEST PUSH1 0x40 MLOAD DUP1 SWAP2 SUB SWAP1 RETURN JUMPDEST PUSH2 0xFF PUSH2 0xFA CALLDATASIZE PUSH1 0x4 PUSH2 0x1162 JUMP JUMPDEST PUSH2 0x257 JUMP JUMPDEST PUSH1 0x40 MLOAD SWAP1 DUP2 MSTORE PUSH1 0x20 ADD PUSH2 0xE3 JUMP JUMPDEST PUSH2 0x120 PUSH2 0x11B CALLDATASIZE PUSH1 0x4 PUSH2 0x119F JUMP JUMPDEST PUSH2 0x377 JUMP JUMPDEST PUSH1 0x40 MLOAD PUSH2 0xFFFF SWAP1 SWAP2 AND DUP2 MSTORE PUSH1 0x20 ADD PUSH2 0xE3 JUMP JUMPDEST PUSH2 0x120 PUSH2 0x141 CALLDATASIZE PUSH1 0x4 PUSH2 0x11B8 JUMP JUMPDEST PUSH2 0x397 JUMP JUMPDEST PUSH2 0xD6 PUSH2 0x154 CALLDATASIZE PUSH1 0x4 PUSH2 0x11E4 JUMP JUMPDEST PUSH2 0x3F0 JUMP JUMPDEST PUSH2 0xD6 PUSH2 0x167 CALLDATASIZE PUSH1 0x4 PUSH2 0x123C JUMP JUMPDEST PUSH2 0x4E7 JUMP JUMPDEST PUSH2 0xD6 PUSH2 0x17A CALLDATASIZE PUSH1 0x4 PUSH2 0x123C JUMP JUMPDEST PUSH2 0x577 JUMP JUMPDEST PUSH2 0x192 PUSH2 0x18D CALLDATASIZE PUSH1 0x4 PUSH2 0x1162 JUMP JUMPDEST PUSH2 0x5C7 JUMP JUMPDEST PUSH1 0x40 MLOAD PUSH2 0xE3 SWAP6 SWAP5 SWAP4 SWAP3 SWAP2 SWAP1 PUSH2 0x12C4 JUMP JUMPDEST PUSH2 0xD6 PUSH2 0x1B1 CALLDATASIZE PUSH1 0x4 PUSH2 0x119F JUMP JUMPDEST PUSH2 0xCBB JUMP JUMPDEST PUSH2 0xFF PUSH2 0x1C4 CALLDATASIZE PUSH1 0x4 PUSH2 0x1162 JUMP JUMPDEST PUSH2 0xE88 JUMP JUMPDEST PUSH1 0x60 PUSH1 0x0 DUP3 DUP5 PUSH1 0x40 MLOAD PUSH1 0x20 ADD PUSH2 0x1E0 SWAP3 SWAP2 SWAP1 PUSH2 0x131C JUMP JUMPDEST PUSH1 0x40 MLOAD PUSH1 0x20 DUP2 DUP4 SUB SUB DUP2 MSTORE SWAP1 PUSH1 0x40 MSTORE SWAP1 POP PUSH1 0x0 PUSH2 0x1FC DUP3 PUSH2 0x257 JUMP JUMPDEST SWAP1 POP PUSH1 0x0 PUSH2 0x209 DUP3 PUSH2 0x377 JUMP JUMPDEST SWAP1 POP PUSH1 0x0 PUSH2 0x224 PUSH2 0x21D DUP4 PUSH2 0xFFFF AND PUSH2 0xCBB JUMP JUMPDEST PUSH1 0x2 PUSH2 0x3F0 JUMP JUMPDEST SWAP1 POP DUP7 DUP2 DUP8 PUSH1 0x40 MLOAD PUSH1 0x20 ADD PUSH2 0x23B SWAP4 SWAP3 SWAP2 SWAP1 PUSH2 0x1373 JUMP JUMPDEST PUSH1 0x40 MLOAD PUSH1 0x20 DUP2 DUP4 SUB SUB DUP2 MSTORE SWAP1 PUSH1 0x40 MSTORE SWAP5 POP POP POP POP POP JUMPDEST SWAP3 SWAP2 POP POP JUMP JUMPDEST PUSH1 0x0 DUP1 DUP1 JUMPDEST DUP4 MLOAD DUP2 LT ISZERO PUSH2 0x370 JUMPI PUSH1 0x0 DUP5 DUP3 DUP2 MLOAD DUP2 LT PUSH2 0x279 JUMPI PUSH2 0x279 PUSH2 0x13B6 JUMP JUMPDEST ADD PUSH1 0x20 ADD MLOAD PUSH1 0xF8 SHR SWAP1 POP PUSH1 0x30 DUP2 LT PUSH2 0x2AF JUMPI PUSH1 0x30 DUP6 DUP4 DUP2 MLOAD DUP2 LT PUSH2 0x29F JUMPI PUSH2 0x29F PUSH2 0x13B6 JUMP JUMPDEST ADD PUSH1 0x20 ADD MLOAD PUSH1 0xF8 SHR SUB SWAP1 POP PUSH2 0x2B3 JUMP JUMPDEST POP PUSH1 0xFF JUMPDEST PUSH1 0x9 DUP2 PUSH1 0xFF AND GT PUSH2 0x2DE JUMPI PUSH1 0xFF DUP2 AND PUSH2 0x2CD DUP5 PUSH1 0xA PUSH2 0x13E2 JUMP JUMPDEST PUSH2 0x2D7 SWAP2 SWAP1 PUSH2 0x13F9 JUMP JUMPDEST SWAP3 POP PUSH2 0x35D JUMP JUMPDEST PUSH1 0x31 DUP2 PUSH1 0xFF AND LT ISZERO DUP1 ISZERO PUSH2 0x2F6 JUMPI POP PUSH1 0x4A DUP2 PUSH1 0xFF AND GT ISZERO JUMPDEST ISZERO PUSH2 0x300 JUMPI PUSH1 0x1F NOT ADD JUMPDEST PUSH1 0x11 DUP2 PUSH1 0xFF AND LT ISZERO DUP1 ISZERO PUSH2 0x318 JUMPI POP PUSH1 0x2A DUP2 PUSH1 0xFF AND GT ISZERO JUMPDEST ISZERO PUSH2 0x344 JUMPI PUSH32 0xFFFFFFFFFFFFFFFFFFFFFFFFFFFFFFFFFFFFFFFFFFFFFFFFFFFFFFFFFFFFFFF9 ADD PUSH2 0x348 JUMP JUMPDEST POP PUSH1 0x0 JUMPDEST PUSH1 0xFF DUP2 AND ISZERO PUSH2 0x35D JUMPI DUP1 PUSH1 0xFF AND DUP4 PUSH1 0x64 MUL ADD SWAP3 POP JUMPDEST POP DUP1 PUSH2 0x368 DUP2 PUSH2 0x140C JUMP JUMPDEST SWAP2 POP POP PUSH2 0x25C JUMP JUMPDEST POP SWAP3 SWAP2 POP POP JUMP JUMPDEST PUSH1 0x0 DUP1 PUSH2 0x385 PUSH1 0x61 DUP5 PUSH2 0x145A JUMP JUMPDEST PUSH2 0x390 SWAP1 PUSH1 0x62 PUSH2 0x146E JUMP JUMPDEST SWAP4 SWAP3 POP POP POP JUMP JUMPDEST PUSH1 0x0 DUP1 PUSH2 0x3A5 DUP4 PUSH1 0x3 PUSH2 0x13E2 JUMP JUMPDEST PUSH2 0x3B0 DUP6 PUSH1 0xF PUSH2 0x13E2 JUMP JUMPDEST PUSH2 0x3BB DUP8 PUSH1 0x59 PUSH2 0x13E2 JUMP JUMPDEST PUSH2 0x3C5 SWAP2 SWAP1 PUSH2 0x13F9 JUMP JUMPDEST PUSH2 0x3CF SWAP2 SWAP1 PUSH2 0x13F9 JUMP JUMPDEST SWAP1 POP PUSH2 0x3DC PUSH1 0x61 DUP3 PUSH2 0x145A JUMP JUMPDEST PUSH2 0x3E7 SWAP1 PUSH1 0x61 PUSH2 0x146E JUMP JUMPDEST SWAP6 SWAP5 POP POP POP POP POP JUMP JUMPDEST PUSH1 0x60 DUP2 PUSH1 0xFF AND DUP4 MLOAD LT PUSH2 0x404 JUMPI POP DUP2 PUSH2 0x251 JUMP JUMPDEST DUP3 MLOAD DUP3 SUB SWAP2 POP PUSH1 0x0 DUP3 PUSH1 0xFF AND PUSH8 0xFFFFFFFFFFFFFFFF DUP2 GT ISZERO PUSH2 0x428 JUMPI PUSH2 0x428 PUSH2 0xFF8 JUMP JUMPDEST PUSH1 0x40 MLOAD SWAP1 DUP1 DUP3 MSTORE DUP1 PUSH1 0x1F ADD PUSH1 0x1F NOT AND PUSH1 0x20 ADD DUP3 ADD PUSH1 0x40 MSTORE DUP1 ISZERO PUSH2 0x452 JUMPI PUSH1 0x20 DUP3 ADD DUP2 DUP1 CALLDATASIZE DUP4 CALLDATACOPY ADD SWAP1 POP JUMPDEST POP SWAP1 POP PUSH1 0x0 JUMPDEST DUP4 PUSH1 0xFF AND DUP2 LT ISZERO PUSH2 0x4BB JUMPI PUSH1 0x30 PUSH1 0xF8 SHL DUP3 DUP3 DUP2 MLOAD DUP2 LT PUSH2 0x47A JUMPI PUSH2 0x47A PUSH2 0x13B6 JUMP JUMPDEST PUSH1 0x20 ADD ADD SWAP1 PUSH31 0xFFFFFFFFFFFFFFFFFFFFFFFFFFFFFFFFFFFFFFFFFFFFFFFFFFFFFFFFFFFFFF NOT AND SWAP1 DUP2 PUSH1 0x0 BYTE SWAP1 MSTORE8 POP DUP1 PUSH2 0x4B3 DUP2 PUSH2 0x140C JUMP JUMPDEST SWAP2 POP POP PUSH2 0x458 JUMP JUMPDEST POP DUP1 DUP5 PUSH1 0x40 MLOAD PUSH1 0x20 ADD PUSH2 0x4CF SWAP3 SWAP2 SWAP1 PUSH2 0x1481 JUMP JUMPDEST PUSH1 0x40 MLOAD PUSH1 0x20 DUP2 DUP4 SUB SUB DUP2 MSTORE SWAP1 PUSH1 0x40 MSTORE SWAP2 POP POP SWAP3 SWAP2 POP POP JUMP JUMPDEST PUSH1 0x60 PUSH1 0x0 PUSH2 0x509 PUSH2 0x4F7 DUP7 PUSH2 0xE88 JUMP JUMPDEST PUSH2 0x500 DUP7 PUSH2 0xE88 JUMP JUMPDEST PUSH2 0x141 DUP7 PUSH2 0xE88 JUMP JUMPDEST SWAP1 POP PUSH2 0x516 DUP6 PUSH1 0x5 PUSH2 0x3F0 JUMP JUMPDEST SWAP5 POP PUSH2 0x523 DUP5 PUSH1 0x5 PUSH2 0x3F0 JUMP JUMPDEST SWAP4 POP PUSH2 0x530 DUP4 PUSH1 0xB PUSH2 0x3F0 JUMP JUMPDEST SWAP3 POP PUSH1 0x0 PUSH2 0x544 PUSH2 0x21D DUP4 PUSH2 0xFFFF AND PUSH2 0xCBB JUMP JUMPDEST SWAP1 POP DUP6 DUP6 DUP6 DUP4 PUSH1 0x40 MLOAD PUSH1 0x20 ADD PUSH2 0x55D SWAP5 SWAP4 SWAP3 SWAP2 SWAP1 PUSH2 0x14B0 JUMP JUMPDEST PUSH1 0x40 MLOAD PUSH1 0x20 DUP2 DUP4 SUB SUB DUP2 MSTORE SWAP1 PUSH1 0x40 MSTORE SWAP3 POP POP POP SWAP4 SWAP3 POP POP POP JUMP JUMPDEST PUSH1 0x60 PUSH1 0x0 PUSH2 0x586 DUP6 DUP6 DUP6 PUSH2 0x4E7 JUMP JUMPDEST SWAP1 POP PUSH2 0x3E7 PUSH1 0x40 MLOAD DUP1 PUSH1 0x40 ADD PUSH1 0x40 MSTORE DUP1 PUSH1 0x2 DUP2 MSTORE PUSH1 0x20 ADD PUSH32 0x4652000000000000000000000000000000000000000000000000000000000000 DUP2 MSTORE POP DUP3 PUSH2 0x1C9 JUMP JUMPDEST PUSH1 0x0 PUSH1 0x60 DUP1 PUSH1 0x60 PUSH1 0x0 DUP1 DUP7 SWAP1 POP PUSH1 0x46 PUSH1 0xF8 SHL PUSH31 0xFFFFFFFFFFFFFFFFFFFFFFFFFFFFFFFFFFFFFFFFFFFFFFFFFFFFFFFFFFFFFF NOT AND DUP2 PUSH1 0x0 DUP2 MLOAD DUP2 LT PUSH2 0x60E JUMPI PUSH2 0x60E PUSH2 0x13B6 JUMP JUMPDEST ADD PUSH1 0x20 ADD MLOAD PUSH1 0x1 PUSH1 0x1 PUSH1 0xF8 SHL SUB NOT AND EQ ISZERO DUP1 PUSH2 0x66E JUMPI POP DUP1 MLOAD PUSH32 0x5200000000000000000000000000000000000000000000000000000000000000 SWAP1 DUP3 SWAP1 PUSH1 0x1 SWAP1 DUP2 LT PUSH2 0x65C JUMPI PUSH2 0x65C PUSH2 0x13B6 JUMP JUMPDEST ADD PUSH1 0x20 ADD MLOAD PUSH1 0x1 PUSH1 0x1 PUSH1 0xF8 SHL SUB NOT AND EQ ISZERO JUMPDEST ISZERO PUSH2 0x6AA JUMPI POP POP PUSH1 0x40 DUP1 MLOAD PUSH1 0x20 DUP1 DUP3 ADD DUP4 MSTORE PUSH1 0x0 DUP1 DUP4 MSTORE DUP4 MLOAD DUP1 DUP4 ADD DUP6 MSTORE DUP2 DUP2 MSTORE DUP5 MLOAD SWAP3 DUP4 ADD SWAP1 SWAP5 MSTORE DUP1 DUP3 MSTORE SWAP7 POP SWAP1 SWAP5 POP SWAP1 SWAP3 POP SWAP1 POP DUP4 PUSH2 0xCB2 JUMP JUMPDEST PUSH1 0x1B DUP2 MLOAD LT ISZERO PUSH2 0x6EB JUMPI POP POP PUSH1 0x40 DUP1 MLOAD PUSH1 0x20 DUP1 DUP3 ADD DUP4 MSTORE PUSH1 0x0 DUP1 DUP4 MSTORE DUP4 MLOAD DUP1 DUP4 ADD DUP6 MSTORE DUP2 DUP2 MSTORE DUP5 MLOAD SWAP3 DUP4 ADD SWAP1 SWAP5 MSTORE DUP1 DUP3 MSTORE SWAP7 POP SWAP1 SWAP5 POP SWAP1 SWAP3 POP SWAP1 POP DUP4 PUSH2 0xCB2 JUMP JUMPDEST PUSH1 0x1B DUP2 MLOAD GT ISZERO PUSH2 0x779 JUMPI PUSH1 0x1B JUMPDEST DUP2 MLOAD DUP2 LT ISZERO PUSH2 0x777 JUMPI DUP2 MLOAD PUSH1 0x0 SWAP1 DUP4 SWAP1 DUP4 SWAP1 DUP2 LT PUSH2 0x718 JUMPI PUSH2 0x718 PUSH2 0x13B6 JUMP JUMPDEST ADD PUSH1 0x20 ADD MLOAD PUSH1 0x1 PUSH1 0x1 PUSH1 0xF8 SHL SUB NOT AND EQ PUSH2 0x765 JUMPI POP POP PUSH1 0x40 DUP1 MLOAD PUSH1 0x20 DUP1 DUP3 ADD DUP4 MSTORE PUSH1 0x0 DUP1 DUP4 MSTORE DUP4 MLOAD DUP1 DUP4 ADD DUP6 MSTORE DUP2 DUP2 MSTORE DUP5 MLOAD SWAP3 DUP4 ADD SWAP1 SWAP5 MSTORE DUP1 DUP3 MSTORE SWAP8 POP SWAP1 SWAP6 POP SWAP1 SWAP4 POP SWAP2 POP DUP5 SWAP1 POP PUSH2 0xCB2 JUMP JUMPDEST DUP1 PUSH2 0x76F DUP2 PUSH2 0x140C JUMP JUMPDEST SWAP2 POP POP PUSH2 0x6F8 JUMP JUMPDEST POP JUMPDEST PUSH1 0x0 PUSH2 0x7EC DUP3 PUSH1 0x2 DUP2 MLOAD DUP2 LT PUSH2 0x791 JUMPI PUSH2 0x791 PUSH2 0x13B6 JUMP JUMPDEST PUSH1 0x20 ADD ADD MLOAD PUSH1 0xF8 SHR PUSH1 0xF8 SHL DUP4 PUSH1 0x3 DUP2 MLOAD DUP2 LT PUSH2 0x7AF JUMPI PUSH2 0x7AF PUSH2 0x13B6 JUMP JUMPDEST ADD PUSH1 0x20 SWAP1 DUP2 ADD MLOAD PUSH1 0x40 MLOAD PUSH1 0x1 PUSH1 0x1 PUSH1 0xF8 SHL SUB NOT SWAP4 DUP5 AND SWAP3 DUP2 ADD SWAP3 SWAP1 SWAP3 MSTORE SWAP2 SWAP1 SWAP2 AND PUSH1 0x21 DUP3 ADD MSTORE PUSH1 0x22 ADD PUSH1 0x40 MLOAD PUSH1 0x20 DUP2 DUP4 SUB SUB DUP2 MSTORE SWAP1 PUSH1 0x40 MSTORE PUSH2 0x257 JUMP JUMPDEST SWAP1 POP PUSH2 0x85F DUP3 PUSH1 0x19 DUP2 MLOAD DUP2 LT PUSH2 0x804 JUMPI PUSH2 0x804 PUSH2 0x13B6 JUMP JUMPDEST PUSH1 0x20 ADD ADD MLOAD PUSH1 0xF8 SHR PUSH1 0xF8 SHL DUP4 PUSH1 0x1A DUP2 MLOAD DUP2 LT PUSH2 0x822 JUMPI PUSH2 0x822 PUSH2 0x13B6 JUMP JUMPDEST ADD PUSH1 0x20 SWAP1 DUP2 ADD MLOAD PUSH1 0x40 MLOAD PUSH1 0x1 PUSH1 0x1 PUSH1 0xF8 SHL SUB NOT SWAP4 DUP5 AND SWAP3 DUP2 ADD SWAP3 SWAP1 SWAP3 MSTORE SWAP2 SWAP1 SWAP2 AND PUSH1 0x21 DUP3 ADD MSTORE PUSH1 0x22 ADD PUSH1 0x40 MLOAD PUSH1 0x20 DUP2 DUP4 SUB SUB DUP2 MSTORE SWAP1 PUSH1 0x40 MSTORE PUSH2 0xE88 JUMP JUMPDEST SWAP3 POP DUP2 PUSH1 0x4 DUP2 MLOAD DUP2 LT PUSH2 0x874 JUMPI PUSH2 0x874 PUSH2 0x13B6 JUMP JUMPDEST PUSH1 0x20 ADD ADD MLOAD PUSH1 0xF8 SHR PUSH1 0xF8 SHL DUP3 PUSH1 0x5 DUP2 MLOAD DUP2 LT PUSH2 0x892 JUMPI PUSH2 0x892 PUSH2 0x13B6 JUMP JUMPDEST PUSH1 0x20 ADD ADD MLOAD PUSH1 0xF8 SHR PUSH1 0xF8 SHL DUP4 PUSH1 0x6 DUP2 MLOAD DUP2 LT PUSH2 0x8B0 JUMPI PUSH2 0x8B0 PUSH2 0x13B6 JUMP JUMPDEST PUSH1 0x20 ADD ADD MLOAD PUSH1 0xF8 SHR PUSH1 0xF8 SHL DUP5 PUSH1 0x7 DUP2 MLOAD DUP2 LT PUSH2 0x8CE JUMPI PUSH2 0x8CE PUSH2 0x13B6 JUMP JUMPDEST PUSH1 0x20 ADD ADD MLOAD PUSH1 0xF8 SHR PUSH1 0xF8 SHL DUP6 PUSH1 0x8 DUP2 MLOAD DUP2 LT PUSH2 0x8EC JUMPI PUSH2 0x8EC PUSH2 0x13B6 JUMP JUMPDEST ADD PUSH1 0x20 SWAP1 DUP2 ADD MLOAD PUSH1 0x40 MLOAD PUSH1 0x1 PUSH1 0x1 PUSH1 0xF8 SHL SUB NOT SWAP7 DUP8 AND SWAP3 DUP2 ADD SWAP3 SWAP1 SWAP3 MSTORE SWAP4 DUP6 AND PUSH1 0x21 DUP3 ADD MSTORE SWAP2 DUP5 AND PUSH1 0x22 DUP4 ADD MSTORE DUP4 AND PUSH1 0x23 DUP3 ADD MSTORE SWAP2 AND PUSH1 0x24 DUP3 ADD MSTORE PUSH1 0x25 ADD PUSH1 0x40 MLOAD PUSH1 0x20 DUP2 DUP4 SUB SUB DUP2 MSTORE SWAP1 PUSH1 0x40 MSTORE SWAP6 POP DUP2 PUSH1 0x9 DUP2 MLOAD DUP2 LT PUSH2 0x94E JUMPI PUSH2 0x94E PUSH2 0x13B6 JUMP JUMPDEST PUSH1 0x20 ADD ADD MLOAD PUSH1 0xF8 SHR PUSH1 0xF8 SHL DUP3 PUSH1 0xA DUP2 MLOAD DUP2 LT PUSH2 0x96C JUMPI PUSH2 0x96C PUSH2 0x13B6 JUMP JUMPDEST PUSH1 0x20 ADD ADD MLOAD PUSH1 0xF8 SHR PUSH1 0xF8 SHL DUP4 PUSH1 0xB DUP2 MLOAD DUP2 LT PUSH2 0x98A JUMPI PUSH2 0x98A PUSH2 0x13B6 JUMP JUMPDEST PUSH1 0x20 ADD ADD MLOAD PUSH1 0xF8 SHR PUSH1 0xF8 SHL DUP5 PUSH1 0xC DUP2 MLOAD DUP2 LT PUSH2 0x9A8 JUMPI PUSH2 0x9A8 PUSH2 0x13B6 JUMP JUMPDEST PUSH1 0x20 ADD ADD MLOAD PUSH1 0xF8 SHR PUSH1 0xF8 SHL DUP6 PUSH1 0xD DUP2 MLOAD DUP2 LT PUSH2 0x9C6 JUMPI PUSH2 0x9C6 PUSH2 0x13B6 JUMP JUMPDEST ADD PUSH1 0x20 SWAP1 DUP2 ADD MLOAD PUSH1 0x40 MLOAD PUSH1 0x1 PUSH1 0x1 PUSH1 0xF8 SHL SUB NOT SWAP7 DUP8 AND SWAP3 DUP2 ADD SWAP3 SWAP1 SWAP3 MSTORE SWAP4 DUP6 AND PUSH1 0x21 DUP3 ADD MSTORE SWAP2 DUP5 AND PUSH1 0x22 DUP4 ADD MSTORE DUP4 AND PUSH1 0x23 DUP3 ADD MSTORE SWAP2 AND PUSH1 0x24 DUP3 ADD MSTORE PUSH1 0x25 ADD PUSH1 0x40 MLOAD PUSH1 0x20 DUP2 DUP4 SUB SUB DUP2 MSTORE SWAP1 PUSH1 0x40 MSTORE SWAP5 POP DUP2 PUSH1 0xE DUP2 MLOAD DUP2 LT PUSH2 0xA28 JUMPI PUSH2 0xA28 PUSH2 0x13B6 JUMP JUMPDEST PUSH1 0x20 ADD ADD MLOAD PUSH1 0xF8 SHR PUSH1 0xF8 SHL DUP3 PUSH1 0xF DUP2 MLOAD DUP2 LT PUSH2 0xA46 JUMPI PUSH2 0xA46 PUSH2 0x13B6 JUMP JUMPDEST PUSH1 0x20 ADD ADD MLOAD PUSH1 0xF8 SHR PUSH1 0xF8 SHL DUP4 PUSH1 0x10 DUP2 MLOAD DUP2 LT PUSH2 0xA64 JUMPI PUSH2 0xA64 PUSH2 0x13B6 JUMP JUMPDEST PUSH1 0x20 ADD ADD MLOAD PUSH1 0xF8 SHR PUSH1 0xF8 SHL DUP5 PUSH1 0x11 DUP2 MLOAD DUP2 LT PUSH2 0xA82 JUMPI PUSH2 0xA82 PUSH2 0x13B6 JUMP JUMPDEST PUSH1 0x20 ADD ADD MLOAD PUSH1 0xF8 SHR PUSH1 0xF8 SHL DUP6 PUSH1 0x12 DUP2 MLOAD DUP2 LT PUSH2 0xAA0 JUMPI PUSH2 0xAA0 PUSH2 0x13B6 JUMP JUMPDEST PUSH1 0x20 ADD ADD MLOAD PUSH1 0xF8 SHR PUSH1 0xF8 SHL DUP7 PUSH1 0x13 DUP2 MLOAD DUP2 LT PUSH2 0xABE JUMPI PUSH2 0xABE PUSH2 0x13B6 JUMP JUMPDEST PUSH1 0x20 ADD ADD MLOAD PUSH1 0xF8 SHR PUSH1 0xF8 SHL DUP8 PUSH1 0x14 DUP2 MLOAD DUP2 LT PUSH2 0xADC JUMPI PUSH2 0xADC PUSH2 0x13B6 JUMP JUMPDEST PUSH1 0x20 ADD ADD MLOAD PUSH1 0xF8 SHR PUSH1 0xF8 SHL DUP9 PUSH1 0x15 DUP2 MLOAD DUP2 LT PUSH2 0xAFA JUMPI PUSH2 0xAFA PUSH2 0x13B6 JUMP JUMPDEST PUSH1 0x20 ADD ADD MLOAD PUSH1 0xF8 SHR PUSH1 0xF8 SHL DUP10 PUSH1 0x16 DUP2 MLOAD DUP2 LT PUSH2 0xB18 JUMPI PUSH2 0xB18 PUSH2 0x13B6 JUMP JUMPDEST PUSH1 0x20 ADD ADD MLOAD PUSH1 0xF8 SHR PUSH1 0xF8 SHL DUP11 PUSH1 0x17 DUP2 MLOAD DUP2 LT PUSH2 0xB36 JUMPI PUSH2 0xB36 PUSH2 0x13B6 JUMP JUMPDEST PUSH1 0x20 ADD ADD MLOAD PUSH1 0xF8 SHR PUSH1 0xF8 SHL DUP12 PUSH1 0x18 DUP2 MLOAD DUP2 LT PUSH2 0xB54 JUMPI PUSH2 0xB54 PUSH2 0x13B6 JUMP JUMPDEST ADD PUSH1 0x20 SWAP1 DUP2 ADD MLOAD PUSH1 0x40 MLOAD PUSH1 0x1 PUSH1 0x1 PUSH1 0xF8 SHL SUB NOT SWAP13 DUP14 AND SWAP3 DUP2 ADD SWAP3 SWAP1 SWAP3 MSTORE SWAP10 DUP12 AND PUSH1 0x21 DUP3 ADD MSTORE SWAP8 DUP11 AND PUSH1 0x22 DUP10 ADD MSTORE SWAP6 DUP10 AND PUSH1 0x23 DUP9 ADD MSTORE SWAP4 DUP9 AND PUSH1 0x24 DUP8 ADD MSTORE SWAP2 DUP8 AND PUSH1 0x25 DUP7 ADD MSTORE DUP7 AND PUSH1 0x26 DUP6 ADD MSTORE DUP6 AND PUSH1 0x27 DUP5 ADD MSTORE DUP5 AND PUSH1 0x28 DUP4 ADD MSTORE DUP4 AND PUSH1 0x29 DUP3 ADD MSTORE SWAP2 AND PUSH1 0x2A DUP3 ADD MSTORE PUSH1 0x2B ADD PUSH1 0x40 MLOAD PUSH1 0x20 DUP2 DUP4 SUB SUB DUP2 MSTORE SWAP1 PUSH1 0x40 MSTORE SWAP4 POP PUSH1 0x0 PUSH2 0xBF0 PUSH2 0xBDE DUP9 PUSH2 0xE88 JUMP JUMPDEST PUSH2 0xBE7 DUP9 PUSH2 0xE88 JUMP JUMPDEST PUSH2 0x141 DUP9 PUSH2 0xE88 JUMP JUMPDEST SWAP1 POP DUP4 PUSH2 0xFFFF AND DUP2 PUSH2 0xFFFF AND EQ PUSH2 0xC0D JUMPI PUSH1 0x0 SWAP8 POP POP POP POP PUSH2 0xCB2 JUMP JUMPDEST PUSH1 0x0 DUP8 DUP8 DUP8 DUP7 PUSH1 0x19 DUP2 MLOAD DUP2 LT PUSH2 0xC25 JUMPI PUSH2 0xC25 PUSH2 0x13B6 JUMP JUMPDEST PUSH1 0x20 ADD ADD MLOAD PUSH1 0xF8 SHR PUSH1 0xF8 SHL DUP8 PUSH1 0x1A DUP2 MLOAD DUP2 LT PUSH2 0xC43 JUMPI PUSH2 0xC43 PUSH2 0x13B6 JUMP JUMPDEST PUSH1 0x20 ADD ADD MLOAD PUSH1 0xF8 SHR PUSH1 0xF8 SHL PUSH1 0x40 MLOAD PUSH1 0x20 ADD PUSH2 0xC62 SWAP6 SWAP5 SWAP4 SWAP3 SWAP2 SWAP1 PUSH2 0x1507 JUMP JUMPDEST PUSH1 0x40 MLOAD PUSH1 0x20 DUP2 DUP4 SUB SUB DUP2 MSTORE SWAP1 PUSH1 0x40 MSTORE SWAP1 POP PUSH1 0x0 PUSH2 0xC7E DUP3 PUSH2 0x257 JUMP JUMPDEST SWAP1 POP PUSH1 0x0 PUSH2 0xC8B DUP3 PUSH2 0x377 JUMP JUMPDEST SWAP1 POP DUP5 DUP2 PUSH2 0xFFFF AND EQ PUSH2 0xCA7 JUMPI PUSH1 0x0 SWAP11 POP POP POP POP POP POP POP PUSH2 0xCB2 JUMP JUMPDEST PUSH1 0x1 SWAP11 POP POP POP POP POP POP POP JUMPDEST SWAP2 SWAP4 SWAP6 SWAP1 SWAP3 SWAP5 POP JUMP JUMPDEST PUSH1 0x60 DUP2 PUSH1 0x0 SUB PUSH2 0xCFE JUMPI POP POP PUSH1 0x40 DUP1 MLOAD DUP1 DUP3 ADD SWAP1 SWAP2 MSTORE PUSH1 0x1 DUP2 MSTORE PUSH32 0x3000000000000000000000000000000000000000000000000000000000000000 PUSH1 0x20 DUP3 ADD MSTORE SWAP1 JUMP JUMPDEST PUSH1 0x40 DUP1 MLOAD PUSH1 0x64 DUP1 DUP3 MSTORE PUSH1 0xA0 DUP3 ADD SWAP1 SWAP3 MSTORE PUSH1 0x0 SWAP1 DUP3 PUSH1 0x20 DUP3 ADD DUP2 DUP1 CALLDATASIZE DUP4 CALLDATACOPY ADD SWAP1 POP POP SWAP1 POP PUSH1 0x0 JUMPDEST DUP5 ISZERO PUSH2 0xDA6 JUMPI PUSH1 0x0 PUSH2 0xD37 PUSH1 0xA DUP8 PUSH2 0x145A JUMP JUMPDEST SWAP1 POP PUSH2 0xD44 PUSH1 0xA DUP8 PUSH2 0x158C JUMP JUMPDEST SWAP6 POP PUSH2 0xD51 DUP2 PUSH1 0x30 PUSH2 0x13F9 JUMP JUMPDEST PUSH1 0xF8 SHL DUP4 DUP4 PUSH2 0xD5F DUP2 PUSH2 0x140C JUMP JUMPDEST SWAP5 POP DUP2 MLOAD DUP2 LT PUSH2 0xD71 JUMPI PUSH2 0xD71 PUSH2 0x13B6 JUMP JUMPDEST PUSH1 0x20 ADD ADD SWAP1 PUSH31 0xFFFFFFFFFFFFFFFFFFFFFFFFFFFFFFFFFFFFFFFFFFFFFFFFFFFFFFFFFFFFFF NOT AND SWAP1 DUP2 PUSH1 0x0 BYTE SWAP1 MSTORE8 POP POP PUSH2 0xD24 JUMP JUMPDEST PUSH1 0x0 DUP2 PUSH8 0xFFFFFFFFFFFFFFFF DUP2 GT ISZERO PUSH2 0xDC1 JUMPI PUSH2 0xDC1 PUSH2 0xFF8 JUMP JUMPDEST PUSH1 0x40 MLOAD SWAP1 DUP1 DUP3 MSTORE DUP1 PUSH1 0x1F ADD PUSH1 0x1F NOT AND PUSH1 0x20 ADD DUP3 ADD PUSH1 0x40 MSTORE DUP1 ISZERO PUSH2 0xDEB JUMPI PUSH1 0x20 DUP3 ADD DUP2 DUP1 CALLDATASIZE DUP4 CALLDATACOPY ADD SWAP1 POP JUMPDEST POP SWAP1 POP PUSH1 0x0 JUMPDEST DUP3 DUP2 LT ISZERO PUSH2 0xE7E JUMPI DUP4 DUP2 PUSH2 0xE06 PUSH1 0x1 DUP7 PUSH2 0x146E JUMP JUMPDEST PUSH2 0xE10 SWAP2 SWAP1 PUSH2 0x146E JUMP JUMPDEST DUP2 MLOAD DUP2 LT PUSH2 0xE20 JUMPI PUSH2 0xE20 PUSH2 0x13B6 JUMP JUMPDEST PUSH1 0x20 ADD ADD MLOAD PUSH1 0xF8 SHR PUSH1 0xF8 SHL DUP3 DUP3 DUP2 MLOAD DUP2 LT PUSH2 0xE3D JUMPI PUSH2 0xE3D PUSH2 0x13B6 JUMP JUMPDEST PUSH1 0x20 ADD ADD SWAP1 PUSH31 0xFFFFFFFFFFFFFFFFFFFFFFFFFFFFFFFFFFFFFFFFFFFFFFFFFFFFFFFFFFFFFF NOT AND SWAP1 DUP2 PUSH1 0x0 BYTE SWAP1 MSTORE8 POP DUP1 PUSH2 0xE76 DUP2 PUSH2 0x140C JUMP JUMPDEST SWAP2 POP POP PUSH2 0xDF1 JUMP JUMPDEST POP SWAP6 SWAP5 POP POP POP POP POP JUMP JUMPDEST PUSH1 0x0 DUP1 DUP1 JUMPDEST DUP4 MLOAD DUP2 LT ISZERO PUSH2 0x370 JUMPI PUSH1 0x0 DUP5 DUP3 DUP2 MLOAD DUP2 LT PUSH2 0xEAA JUMPI PUSH2 0xEAA PUSH2 0x13B6 JUMP JUMPDEST ADD PUSH1 0x20 ADD MLOAD PUSH1 0xF8 SHR SWAP1 POP PUSH1 0x30 DUP2 LT PUSH2 0xEE0 JUMPI PUSH1 0x30 DUP6 DUP4 DUP2 MLOAD DUP2 LT PUSH2 0xED0 JUMPI PUSH2 0xED0 PUSH2 0x13B6 JUMP JUMPDEST ADD PUSH1 0x20 ADD MLOAD PUSH1 0xF8 SHR SUB SWAP1 POP PUSH2 0xEE4 JUMP JUMPDEST POP PUSH1 0xFF JUMPDEST PUSH1 0x9 DUP2 PUSH1 0xFF AND GT PUSH2 0xF0F JUMPI PUSH1 0xFF DUP2 AND PUSH2 0xEFE DUP5 PUSH1 0xA PUSH2 0x13E2 JUMP JUMPDEST PUSH2 0xF08 SWAP2 SWAP1 PUSH2 0x13F9 JUMP JUMPDEST SWAP3 POP PUSH2 0xFE5 JUMP JUMPDEST PUSH1 0x31 DUP2 PUSH1 0xFF AND LT ISZERO DUP1 ISZERO PUSH2 0xF27 JUMPI POP PUSH1 0x4A DUP2 PUSH1 0xFF AND GT ISZERO JUMPDEST ISZERO PUSH2 0xF31 JUMPI PUSH1 0x1F NOT ADD JUMPDEST PUSH1 0x11 DUP2 PUSH1 0xFF AND LT ISZERO DUP1 ISZERO PUSH2 0xF49 JUMPI POP PUSH1 0x22 DUP2 PUSH1 0xFF AND GT ISZERO JUMPDEST ISZERO PUSH2 0xF82 JUMPI PUSH1 0x9 PUSH1 0xFF PUSH32 0xFFFFFFFFFFFFFFFFFFFFFFFFFFFFFFFFFFFFFFFFFFFFFFFFFFFFFFFFFFFFFFEF DUP4 ADD AND JUMPDEST MOD PUSH1 0x1 ADD SWAP1 POP PUSH2 0xFD0 JUMP JUMPDEST PUSH1 0x23 DUP2 PUSH1 0xFF AND LT ISZERO DUP1 ISZERO PUSH2 0xF9A JUMPI POP PUSH1 0x2A DUP2 PUSH1 0xFF AND GT ISZERO JUMPDEST ISZERO PUSH2 0xFCC JUMPI PUSH1 0x9 PUSH1 0xFF PUSH32 0xFFFFFFFFFFFFFFFFFFFFFFFFFFFFFFFFFFFFFFFFFFFFFFFFFFFFFFFFFFFFFFF0 DUP4 ADD AND PUSH2 0xF77 JUMP JUMPDEST POP PUSH1 0x0 JUMPDEST PUSH1 0xFF DUP2 AND ISZERO PUSH2 0xFE5 JUMPI DUP1 PUSH1 0xFF AND DUP4 PUSH1 0xA MUL ADD SWAP3 POP JUMPDEST POP DUP1 PUSH2 0xFF0 DUP2 PUSH2 0x140C JUMP JUMPDEST SWAP2 POP POP PUSH2 0xE8D JUMP JUMPDEST PUSH4 0x4E487B71 PUSH1 0xE0 SHL PUSH1 0x0 MSTORE PUSH1 0x41 PUSH1 0x4 MSTORE PUSH1 0x24 PUSH1 0x0 REVERT JUMPDEST PUSH1 0x0 DUP3 PUSH1 0x1F DUP4 ADD SLT PUSH2 0x101F JUMPI PUSH1 0x0 DUP1 REVERT JUMPDEST DUP2 CALLDATALOAD PUSH8 0xFFFFFFFFFFFFFFFF DUP1 DUP3 GT ISZERO PUSH2 0x103A JUMPI PUSH2 0x103A PUSH2 0xFF8 JUMP JUMPDEST PUSH1 0x40 MLOAD PUSH1 0x1F DUP4 ADD PUSH1 0x1F NOT SWAP1 DUP2 AND PUSH1 0x3F ADD AND DUP2 ADD SWAP1 DUP3 DUP3 GT DUP2 DUP4 LT OR ISZERO PUSH2 0x1062 JUMPI PUSH2 0x1062 PUSH2 0xFF8 JUMP JUMPDEST DUP2 PUSH1 0x40 MSTORE DUP4 DUP2 MSTORE DUP7 PUSH1 0x20 DUP6 DUP9 ADD ADD GT ISZERO PUSH2 0x107B JUMPI PUSH1 0x0 DUP1 REVERT JUMPDEST DUP4 PUSH1 0x20 DUP8 ADD PUSH1 0x20 DUP4 ADD CALLDATACOPY PUSH1 0x0 PUSH1 0x20 DUP6 DUP4 ADD ADD MSTORE DUP1 SWAP5 POP POP POP POP POP SWAP3 SWAP2 POP POP JUMP JUMPDEST PUSH1 0x0 DUP1 PUSH1 0x40 DUP4 DUP6 SUB SLT ISZERO PUSH2 0x10AE JUMPI PUSH1 0x0 DUP1 REVERT JUMPDEST DUP3 CALLDATALOAD PUSH8 0xFFFFFFFFFFFFFFFF DUP1 DUP3 GT ISZERO PUSH2 0x10C6 JUMPI PUSH1 0x0 DUP1 REVERT JUMPDEST PUSH2 0x10D2 DUP7 DUP4 DUP8 ADD PUSH2 0x100E JUMP JUMPDEST SWAP4 POP PUSH1 0x20 DUP6 ADD CALLDATALOAD SWAP2 POP DUP1 DUP3 GT ISZERO PUSH2 0x10E8 JUMPI PUSH1 0x0 DUP1 REVERT JUMPDEST POP PUSH2 0x10F5 DUP6 DUP3 DUP7 ADD PUSH2 0x100E JUMP JUMPDEST SWAP2 POP POP SWAP3 POP SWAP3 SWAP1 POP JUMP JUMPDEST PUSH1 0x0 JUMPDEST DUP4 DUP2 LT ISZERO PUSH2 0x111A JUMPI DUP2 DUP2 ADD MLOAD DUP4 DUP3 ADD MSTORE PUSH1 0x20 ADD PUSH2 0x1102 JUMP JUMPDEST POP POP PUSH1 0x0 SWAP2 ADD MSTORE JUMP JUMPDEST PUSH1 0x0 DUP2 MLOAD DUP1 DUP5 MSTORE PUSH2 0x113B DUP2 PUSH1 0x20 DUP7 ADD PUSH1 0x20 DUP7 ADD PUSH2 0x10FF JUMP JUMPDEST PUSH1 0x1F ADD PUSH1 0x1F NOT AND SWAP3 SWAP1 SWAP3 ADD PUSH1 0x20 ADD SWAP3 SWAP2 POP POP JUMP JUMPDEST PUSH1 0x20 DUP2 MSTORE PUSH1 0x0 PUSH2 0x390 PUSH1 0x20 DUP4 ADD DUP5 PUSH2 0x1123 JUMP JUMPDEST PUSH1 0x0 PUSH1 0x20 DUP3 DUP5 SUB SLT ISZERO PUSH2 0x1174 JUMPI PUSH1 0x0 DUP1 REVERT JUMPDEST DUP2 CALLDATALOAD PUSH8 0xFFFFFFFFFFFFFFFF DUP2 GT ISZERO PUSH2 0x118B JUMPI PUSH1 0x0 DUP1 REVERT JUMPDEST PUSH2 0x1197 DUP5 DUP3 DUP6 ADD PUSH2 0x100E JUMP JUMPDEST SWAP5 SWAP4 POP POP POP POP JUMP JUMPDEST PUSH1 0x0 PUSH1 0x20 DUP3 DUP5 SUB SLT ISZERO PUSH2 0x11B1 JUMPI PUSH1 0x0 DUP1 REVERT JUMPDEST POP CALLDATALOAD SWAP2 SWAP1 POP JUMP JUMPDEST PUSH1 0x0 DUP1 PUSH1 0x0 PUSH1 0x60 DUP5 DUP7 SUB SLT ISZERO PUSH2 0x11CD JUMPI PUSH1 0x0 DUP1 REVERT JUMPDEST POP POP DUP2 CALLDATALOAD SWAP4 PUSH1 0x20 DUP4 ADD CALLDATALOAD SWAP4 POP PUSH1 0x40 SWAP1 SWAP3 ADD CALLDATALOAD SWAP2 SWAP1 POP JUMP JUMPDEST PUSH1 0x0 DUP1 PUSH1 0x40 DUP4 DUP6 SUB SLT ISZERO PUSH2 0x11F7 JUMPI PUSH1 0x0 DUP1 REVERT JUMPDEST DUP3 CALLDATALOAD PUSH8 0xFFFFFFFFFFFFFFFF DUP2 GT ISZERO PUSH2 0x120E JUMPI PUSH1 0x0 DUP1 REVERT JUMPDEST PUSH2 0x121A DUP6 DUP3 DUP7 ADD PUSH2 0x100E JUMP JUMPDEST SWAP3 POP POP PUSH1 0x20 DUP4 ADD CALLDATALOAD PUSH1 0xFF DUP2 AND DUP2 EQ PUSH2 0x1231 JUMPI PUSH1 0x0 DUP1 REVERT JUMPDEST DUP1 SWAP2 POP POP SWAP3 POP SWAP3 SWAP1 POP JUMP JUMPDEST PUSH1 0x0 DUP1 PUSH1 0x0 PUSH1 0x60 DUP5 DUP7 SUB SLT ISZERO PUSH2 0x1251 JUMPI PUSH1 0x0 DUP1 REVERT JUMPDEST DUP4 CALLDATALOAD PUSH8 0xFFFFFFFFFFFFFFFF DUP1 DUP3 GT ISZERO PUSH2 0x1269 JUMPI PUSH1 0x0 DUP1 REVERT JUMPDEST PUSH2 0x1275 DUP8 DUP4 DUP9 ADD PUSH2 0x100E JUMP JUMPDEST SWAP5 POP PUSH1 0x20 DUP7 ADD CALLDATALOAD SWAP2 POP DUP1 DUP3 GT ISZERO PUSH2 0x128B JUMPI PUSH1 0x0 DUP1 REVERT JUMPDEST PUSH2 0x1297 DUP8 DUP4 DUP9 ADD PUSH2 0x100E JUMP JUMPDEST SWAP4 POP PUSH1 0x40 DUP7 ADD CALLDATALOAD SWAP2 POP DUP1 DUP3 GT ISZERO PUSH2 0x12AD JUMPI PUSH1 0x0 DUP1 REVERT JUMPDEST POP PUSH2 0x12BA DUP7 DUP3 DUP8 ADD PUSH2 0x100E JUMP JUMPDEST SWAP2 POP POP SWAP3 POP SWAP3 POP SWAP3 JUMP JUMPDEST DUP6 ISZERO ISZERO DUP2 MSTORE PUSH1 0xA0 PUSH1 0x20 DUP3 ADD MSTORE PUSH1 0x0 PUSH2 0x12DF PUSH1 0xA0 DUP4 ADD DUP8 PUSH2 0x1123 JUMP JUMPDEST DUP3 DUP2 SUB PUSH1 0x40 DUP5 ADD MSTORE PUSH2 0x12F1 DUP2 DUP8 PUSH2 0x1123 JUMP JUMPDEST SWAP1 POP DUP3 DUP2 SUB PUSH1 0x60 DUP5 ADD MSTORE PUSH2 0x1305 DUP2 DUP7 PUSH2 0x1123 JUMP JUMPDEST SWAP2 POP POP PUSH2 0xFFFF DUP4 AND PUSH1 0x80 DUP4 ADD MSTORE SWAP7 SWAP6 POP POP POP POP POP POP JUMP JUMPDEST PUSH1 0x0 DUP4 MLOAD PUSH2 0x132E DUP2 DUP5 PUSH1 0x20 DUP9 ADD PUSH2 0x10FF JUMP JUMPDEST DUP4 MLOAD SWAP1 DUP4 ADD SWAP1 PUSH2 0x1342 DUP2 DUP4 PUSH1 0x20 DUP9 ADD PUSH2 0x10FF JUMP JUMPDEST PUSH32 0x3030000000000000000000000000000000000000000000000000000000000000 SWAP2 ADD SWAP1 DUP2 MSTORE PUSH1 0x2 ADD SWAP5 SWAP4 POP POP POP POP JUMP JUMPDEST PUSH1 0x0 DUP5 MLOAD PUSH2 0x1385 DUP2 DUP5 PUSH1 0x20 DUP10 ADD PUSH2 0x10FF JUMP JUMPDEST DUP5 MLOAD SWAP1 DUP4 ADD SWAP1 PUSH2 0x1399 DUP2 DUP4 PUSH1 0x20 DUP10 ADD PUSH2 0x10FF JUMP JUMPDEST DUP5 MLOAD SWAP2 ADD SWAP1 PUSH2 0x13AC DUP2 DUP4 PUSH1 0x20 DUP9 ADD PUSH2 0x10FF JUMP JUMPDEST ADD SWAP6 SWAP5 POP POP POP POP POP JUMP JUMPDEST PUSH4 0x4E487B71 PUSH1 0xE0 SHL PUSH1 0x0 MSTORE PUSH1 0x32 PUSH1 0x4 MSTORE PUSH1 0x24 PUSH1 0x0 REVERT JUMPDEST PUSH4 0x4E487B71 PUSH1 0xE0 SHL PUSH1 0x0 MSTORE PUSH1 0x11 PUSH1 0x4 MSTORE PUSH1 0x24 PUSH1 0x0 REVERT JUMPDEST DUP1 DUP3 MUL DUP2 ISZERO DUP3 DUP3 DIV DUP5 EQ OR PUSH2 0x251 JUMPI PUSH2 0x251 PUSH2 0x13CC JUMP JUMPDEST DUP1 DUP3 ADD DUP1 DUP3 GT ISZERO PUSH2 0x251 JUMPI PUSH2 0x251 PUSH2 0x13CC JUMP JUMPDEST PUSH1 0x0 PUSH32 0xFFFFFFFFFFFFFFFFFFFFFFFFFFFFFFFFFFFFFFFFFFFFFFFFFFFFFFFFFFFFFFFF DUP3 SUB PUSH2 0x143D JUMPI PUSH2 0x143D PUSH2 0x13CC JUMP JUMPDEST POP PUSH1 0x1 ADD SWAP1 JUMP JUMPDEST PUSH4 0x4E487B71 PUSH1 0xE0 SHL PUSH1 0x0 MSTORE PUSH1 0x12 PUSH1 0x4 MSTORE PUSH1 0x24 PUSH1 0x0 REVERT JUMPDEST PUSH1 0x0 DUP3 PUSH2 0x1469 JUMPI PUSH2 0x1469 PUSH2 0x1444 JUMP JUMPDEST POP MOD SWAP1 JUMP JUMPDEST DUP2 DUP2 SUB DUP2 DUP2 GT ISZERO PUSH2 0x251 JUMPI PUSH2 0x251 PUSH2 0x13CC JUMP JUMPDEST PUSH1 0x0 DUP4 MLOAD PUSH2 0x1493 DUP2 DUP5 PUSH1 0x20 DUP9 ADD PUSH2 0x10FF JUMP JUMPDEST DUP4 MLOAD SWAP1 DUP4 ADD SWAP1 PUSH2 0x14A7 DUP2 DUP4 PUSH1 0x20 DUP9 ADD PUSH2 0x10FF JUMP JUMPDEST ADD SWAP5 SWAP4 POP POP POP POP JUMP JUMPDEST PUSH1 0x0 DUP6 MLOAD PUSH2 0x14C2 DUP2 DUP5 PUSH1 0x20 DUP11 ADD PUSH2 0x10FF JUMP JUMPDEST DUP6 MLOAD SWAP1 DUP4 ADD SWAP1 PUSH2 0x14D6 DUP2 DUP4 PUSH1 0x20 DUP11 ADD PUSH2 0x10FF JUMP JUMPDEST DUP6 MLOAD SWAP2 ADD SWAP1 PUSH2 0x14E9 DUP2 DUP4 PUSH1 0x20 DUP10 ADD PUSH2 0x10FF JUMP JUMPDEST DUP5 MLOAD SWAP2 ADD SWAP1 PUSH2 0x14FC DUP2 DUP4 PUSH1 0x20 DUP9 ADD PUSH2 0x10FF JUMP JUMPDEST ADD SWAP7 SWAP6 POP POP POP POP POP POP JUMP JUMPDEST PUSH1 0x0 DUP7 MLOAD PUSH2 0x1519 DUP2 DUP5 PUSH1 0x20 DUP12 ADD PUSH2 0x10FF JUMP JUMPDEST DUP7 MLOAD SWAP1 DUP4 ADD SWAP1 PUSH2 0x152D DUP2 DUP4 PUSH1 0x20 DUP12 ADD PUSH2 0x10FF JUMP JUMPDEST DUP7 MLOAD SWAP2 ADD SWAP1 PUSH2 0x1540 DUP2 DUP4 PUSH1 0x20 DUP11 ADD PUSH2 0x10FF JUMP JUMPDEST PUSH1 0x1 PUSH1 0x1 PUSH1 0xF8 SHL SUB NOT SWAP6 DUP7 AND SWAP2 ADD SWAP1 DUP2 MSTORE SWAP3 SWAP1 SWAP4 AND PUSH1 0x1 DUP4 ADD MSTORE POP PUSH32 0x4652303000000000000000000000000000000000000000000000000000000000 PUSH1 0x2 DUP3 ADD MSTORE PUSH1 0x6 ADD SWAP5 SWAP4 POP POP POP POP JUMP JUMPDEST PUSH1 0x0 DUP3 PUSH2 0x159B JUMPI PUSH2 0x159B PUSH2 0x1444 JUMP JUMPDEST POP DIV SWAP1 JUMP INVALID LOG2 PUSH5 0x6970667358 0x22 SLT KECCAK256 0xC EXTCODEHASH SWAP3 0xD7 0x2A 0x23 0x1E 0xD BYTE 0xE4 SWAP5 STOP 0xE4 0x28 BALANCE 0xC2 PUSH3 0xE9CC96 0xDE DUP14 0xE6 0xB0 EXTCODEHASH DUP11 0xE3 0xBB 0x23 0xB1 0xC PUSH14 0x64736F6C63430008110033000000 "},"methodIdentifiers":{"calculateFrenchIBAN(string,string,string)":"af3da957","calculateIBAN(string,string)":"2dccf56a","extractFrenchIBAN(string)":"b7f25bfe","frenchBBAN(string,string,string)":"9c6497a8","frenchRIBKey(uint256,uint256,uint256)":"6e619ebb","frenchStringToNumber(string)":"fa09eae1","ibanKey(uint256)":"4a534937","ibanStringToNumber(string)":"342cb582","padWithZeros(string,uint8)":"830a35bf","uintToString(uint256)":"e9395679"}}}}}