{"src/impl/so-cash-bank-impl.sol":{"SoCashBank":{"abi":[{"inputs":[{"internalType":"BIC","name":"pBic","type":"bytes11"},{"internalType":"BankCode","name":"bankCode","type":"bytes5"},{"internalType":"BranchCode","name":"branchCode","type":"bytes5"},{"internalType":"CCY","name":"currency","type":"bytes3"},{"internalType":"uint8","name":"nDecimals","type":"uint8"}],"stateMutability":"nonpayable","type":"constructor"},{"anonymous":false,"inputs":[{"indexed":true,"internalType":"contract ISoCashAccount","name":"account","type":"address"},{"indexed":false,"internalType":"bool","name":"active","type":"bool"}],"name":"AccountActivation","type":"event"},{"anonymous":false,"inputs":[{"indexed":true,"internalType":"contract ISoCashAccount","name":"account","type":"address"},{"indexed":false,"internalType":"bool","name":"registered","type":"bool"}],"name":"AccountRegistration","type":"event"},{"anonymous":false,"inputs":[{"indexed":true,"internalType":"contract ISoCashBank","name":"target","type":"address"},{"indexed":true,"internalType":"contract ISoCashAccount","name":"account","type":"address"},{"indexed":false,"internalType":"uint256","name":"amount","type":"uint256"},{"indexed":false,"internalType":"enum OperationDirection","name":"direction","type":"uint8"},{"indexed":true,"internalType":"TransferId","name":"id","type":"uint256"}],"name":"Adviced","type":"event"},{"anonymous":false,"inputs":[{"indexed":true,"internalType":"contract ISoCashBank","name":"bank","type":"address"},{"indexed":false,"internalType":"string","name":"bic","type":"string"},{"indexed":false,"internalType":"string","name":"currency","type":"string"}],"name":"BankCreation","type":"event"},{"anonymous":false,"inputs":[{"indexed":true,"internalType":"contract ISoCashBank","name":"bank","type":"address"},{"indexed":false,"internalType":"bool","name":"registered","type":"bool"}],"name":"BankRegistration","type":"event"},{"anonymous":false,"inputs":[{"indexed":true,"internalType":"address","name":"previousOwner","type":"address"},{"indexed":true,"internalType":"address","name":"newOwner","type":"address"}],"name":"OwnershipTransferred","type":"event"},{"anonymous":false,"inputs":[{"indexed":true,"internalType":"address","name":"from","type":"address"},{"indexed":true,"internalType":"address","name":"to","type":"address"},{"indexed":false,"internalType":"uint256","name":"value","type":"uint256"}],"name":"Transfer","type":"event"},{"anonymous":false,"inputs":[{"indexed":true,"internalType":"contract ISoCashAccount","name":"from","type":"address"},{"indexed":true,"internalType":"contract ISoCashAccount","name":"to","type":"address"},{"indexed":false,"internalType":"uint256","name":"value","type":"uint256"},{"indexed":true,"internalType":"TransferId","name":"id","type":"uint256"}],"name":"TransferEx","type":"event"},{"anonymous":false,"inputs":[{"indexed":true,"internalType":"TransferId","name":"id","type":"uint256"},{"indexed":false,"internalType":"enum TransferStatus","name":"status","type":"uint8"}],"name":"TransfertStateChanged","type":"event"},{"anonymous":false,"inputs":[{"indexed":true,"internalType":"address","name":"account","type":"address"},{"indexed":false,"internalType":"bool","name":"status","type":"bool"}],"name":"Whitelisted","type":"event"},{"inputs":[{"internalType":"contract ISoCashAccount","name":"account","type":"address"}],"name":"accountNumberOf","outputs":[{"internalType":"AccountNumber","name":"","type":"uint32"}],"stateMutability":"view","type":"function"},{"inputs":[{"internalType":"AccountNumber","name":"accountNumber","type":"uint32"}],"name":"addressOf","outputs":[{"internalType":"contract ISoCashAccount","name":"","type":"address"}],"stateMutability":"view","type":"function"},{"inputs":[{"internalType":"uint256","name":"amount","type":"uint256"},{"internalType":"enum OperationDirection","name":"direction","type":"uint8"},{"internalType":"TransferId","name":"id","type":"uint256"}],"name":"advice","outputs":[{"internalType":"bool","name":"","type":"bool"}],"stateMutability":"nonpayable","type":"function"},{"inputs":[{"internalType":"address","name":"account","type":"address"}],"name":"balanceOf","outputs":[{"internalType":"uint256","name":"","type":"uint256"}],"stateMutability":"view","type":"function"},{"inputs":[],"name":"bic","outputs":[{"internalType":"string","name":"","type":"string"}],"stateMutability":"view","type":"function"},{"inputs":[{"internalType":"address","name":"oldSender","type":"address"}],"name":"blacklist","outputs":[],"stateMutability":"nonpayable","type":"function"},{"inputs":[],"name":"codes","outputs":[{"internalType":"BankCode","name":"","type":"bytes5"},{"internalType":"BranchCode","name":"","type":"bytes5"}],"stateMutability":"view","type":"function"},{"inputs":[{"internalType":"contract ISoCashBank","name":"bank","type":"address"}],"name":"correspondent","outputs":[{"components":[{"internalType":"bool","name":"registered","type":"bool"},{"internalType":"contract ISoCashAccount","name":"loro","type":"address"},{"internalType":"contract ISoCashAccount","name":"nostro","type":"address"},{"internalType":"uint256","name":"lastNostroBalance","type":"uint256"}],"internalType":"struct CorrespondentBank","name":"","type":"tuple"}],"stateMutability":"view","type":"function"},{"inputs":[{"internalType":"contract ISoCashAccount","name":"account","type":"address"},{"internalType":"uint256","name":"amount","type":"uint256"},{"internalType":"string","name":"details","type":"string"}],"name":"credit","outputs":[{"internalType":"bool","name":"","type":"bool"}],"stateMutability":"nonpayable","type":"function"},{"inputs":[{"internalType":"contract ISoCashAccount","name":"nostro","type":"address"},{"internalType":"uint256","name":"amount","type":"uint256"},{"internalType":"string","name":"details","type":"string"}],"name":"creditNostro","outputs":[{"internalType":"bool","name":"","type":"bool"}],"stateMutability":"nonpayable","type":"function"},{"inputs":[{"internalType":"contract ISoCashAccount","name":"account","type":"address"},{"internalType":"uint256","name":"amount","type":"uint256"},{"internalType":"string","name":"details","type":"string"}],"name":"debit","outputs":[{"internalType":"bool","name":"","type":"bool"}],"stateMutability":"nonpayable","type":"function"},{"inputs":[{"internalType":"TransferId","name":"id","type":"uint256"},{"internalType":"enum TransferStatus","name":"status","type":"uint8"},{"internalType":"string","name":"reason","type":"string"}],"name":"decidePendingTransfer","outputs":[{"internalType":"bool","name":"","type":"bool"}],"stateMutability":"nonpayable","type":"function"},{"inputs":[],"name":"decimals","outputs":[{"internalType":"uint8","name":"","type":"uint8"}],"stateMutability":"view","type":"function"},{"inputs":[{"internalType":"string","name":"iban","type":"string"}],"name":"decodeIBAN","outputs":[{"internalType":"contract ISoCashBank","name":"bank","type":"address"},{"internalType":"contract ISoCashAccount","name":"account","type":"address"}],"stateMutability":"view","type":"function"},{"inputs":[{"internalType":"contract ISoCashAccount","name":"account","type":"address"}],"name":"fullBalanceOf","outputs":[{"internalType":"int256","name":"","type":"int256"}],"stateMutability":"view","type":"function"},{"inputs":[{"internalType":"contract ISoCashAccount","name":"account","type":"address"}],"name":"ibanOf","outputs":[{"internalType":"string","name":"","type":"string"}],"stateMutability":"view","type":"function"},{"inputs":[{"internalType":"uint256","name":"amount","type":"uint256"},{"internalType":"TransferId","name":"","type":"uint256"}],"name":"interbankNetting","outputs":[{"internalType":"bool","name":"","type":"bool"}],"stateMutability":"nonpayable","type":"function"},{"inputs":[{"components":[{"internalType":"contract ISoCashAccount","name":"account","type":"address"},{"internalType":"BIC","name":"bic","type":"bytes11"},{"internalType":"IBAN","name":"iban","type":"bytes32"}],"internalType":"struct RecipentInfo","name":"to","type":"tuple"},{"internalType":"uint256","name":"amount","type":"uint256"},{"internalType":"TransferId","name":"id","type":"uint256"}],"name":"interbankTransfer","outputs":[{"internalType":"bool","name":"","type":"bool"}],"stateMutability":"nonpayable","type":"function"},{"inputs":[{"internalType":"contract ISoCashAccount","name":"account","type":"address"}],"name":"isAccountActive","outputs":[{"internalType":"bool","name":"","type":"bool"}],"stateMutability":"view","type":"function"},{"inputs":[{"internalType":"contract ISoCashAccount","name":"account","type":"address"}],"name":"isAccountRegistered","outputs":[{"internalType":"bool","name":"","type":"bool"}],"stateMutability":"view","type":"function"},{"inputs":[{"internalType":"contract ISoCashBank","name":"bank","type":"address"}],"name":"isCorrespondentRegistered","outputs":[{"internalType":"bool","name":"","type":"bool"}],"stateMutability":"view","type":"function"},{"inputs":[{"internalType":"address","name":"a","type":"address"}],"name":"isWhitelisted","outputs":[{"internalType":"bool","name":"","type":"bool"}],"stateMutability":"view","type":"function"},{"inputs":[{"internalType":"contract ISoCashAccount","name":"account","type":"address"},{"internalType":"uint256","name":"amount","type":"uint256"}],"name":"lockFunds","outputs":[{"internalType":"bool","name":"","type":"bool"}],"stateMutability":"nonpayable","type":"function"},{"inputs":[{"internalType":"uint256","name":"amount","type":"uint256"}],"name":"lockFunds","outputs":[{"internalType":"bool","name":"","type":"bool"}],"stateMutability":"nonpayable","type":"function"},{"inputs":[{"internalType":"contract ISoCashAccount","name":"account","type":"address"}],"name":"lockedBalanceOf","outputs":[{"internalType":"uint256","name":"","type":"uint256"}],"stateMutability":"view","type":"function"},{"inputs":[],"name":"name","outputs":[{"internalType":"string","name":"","type":"string"}],"stateMutability":"view","type":"function"},{"inputs":[],"name":"owner","outputs":[{"internalType":"address","name":"","type":"address"}],"stateMutability":"view","type":"function"},{"inputs":[{"internalType":"contract ISoCashAccount","name":"account","type":"address"}],"name":"registerAccount","outputs":[{"internalType":"bool","name":"","type":"bool"}],"stateMutability":"nonpayable","type":"function"},{"inputs":[{"internalType":"contract ISoCashBank","name":"bank","type":"address"},{"internalType":"contract ISoCashAccount","name":"loro","type":"address"},{"internalType":"contract ISoCashAccount","name":"nostro","type":"address"}],"name":"registerCorrespondent","outputs":[{"internalType":"bool","name":"","type":"bool"}],"stateMutability":"nonpayable","type":"function"},{"inputs":[],"name":"renounceOwnership","outputs":[],"stateMutability":"nonpayable","type":"function"},{"inputs":[{"internalType":"contract ISoCashBank","name":"cBank","type":"address"},{"internalType":"uint256","name":"amount","type":"uint256"}],"name":"requestNetting","outputs":[{"internalType":"bool","name":"","type":"bool"}],"stateMutability":"nonpayable","type":"function"},{"inputs":[{"internalType":"contract IBANCalculator","name":"calc","type":"address"}],"name":"setIBANCalculator","outputs":[],"stateMutability":"nonpayable","type":"function"},{"inputs":[],"name":"symbol","outputs":[{"internalType":"string","name":"","type":"string"}],"stateMutability":"view","type":"function"},{"inputs":[{"internalType":"contract ISoCashAccount","name":"nostro","type":"address"}],"name":"synchroNostro","outputs":[{"internalType":"bool","name":"","type":"bool"}],"stateMutability":"nonpayable","type":"function"},{"inputs":[{"internalType":"contract ISoCashAccount","name":"account","type":"address"}],"name":"toggleAccountActive","outputs":[{"internalType":"bool","name":"","type":"bool"}],"stateMutability":"nonpayable","type":"function"},{"inputs":[],"name":"totalSupply","outputs":[{"internalType":"uint256","name":"","type":"uint256"}],"stateMutability":"view","type":"function"},{"inputs":[{"components":[{"internalType":"contract ISoCashAccount","name":"account","type":"address"},{"internalType":"BIC","name":"bic","type":"bytes11"},{"internalType":"IBAN","name":"iban","type":"bytes32"}],"internalType":"struct RecipentInfo","name":"to","type":"tuple"},{"internalType":"uint256","name":"amount","type":"uint256"},{"internalType":"string","name":"details","type":"string"}],"name":"transfer","outputs":[{"internalType":"bool","name":"","type":"bool"}],"stateMutability":"nonpayable","type":"function"},{"inputs":[{"internalType":"contract ISoCashAccount","name":"from","type":"address"},{"components":[{"internalType":"contract ISoCashAccount","name":"account","type":"address"},{"internalType":"BIC","name":"bic","type":"bytes11"},{"internalType":"IBAN","name":"iban","type":"bytes32"}],"internalType":"struct RecipentInfo","name":"to","type":"tuple"},{"internalType":"uint256","name":"amount","type":"uint256"},{"internalType":"string","name":"details","type":"string"}],"name":"transferFrom","outputs":[{"internalType":"bool","name":"","type":"bool"}],"stateMutability":"nonpayable","type":"function"},{"inputs":[{"internalType":"TransferId","name":"id","type":"uint256"}],"name":"transferInfo","outputs":[{"components":[{"internalType":"contract ISoCashAccount","name":"sender","type":"address"},{"components":[{"internalType":"contract ISoCashAccount","name":"account","type":"address"},{"internalType":"BIC","name":"bic","type":"bytes11"},{"internalType":"IBAN","name":"iban","type":"bytes32"}],"internalType":"struct RecipentInfo","name":"recipient","type":"tuple"},{"internalType":"uint256","name":"amount","type":"uint256"},{"internalType":"enum TransferStatus","name":"status","type":"uint8"},{"internalType":"string","name":"details","type":"string"},{"internalType":"string","name":"reason","type":"string"}],"internalType":"struct TransferInfo","name":"","type":"tuple"}],"stateMutability":"view","type":"function"},{"inputs":[{"internalType":"address","name":"newOwner","type":"address"}],"name":"transferOwnership","outputs":[],"stateMutability":"nonpayable","type":"function"},{"inputs":[{"internalType":"uint256","name":"amount","type":"uint256"}],"name":"unlockFunds","outputs":[{"internalType":"bool","name":"","type":"bool"}],"stateMutability":"nonpayable","type":"function"},{"inputs":[{"internalType":"contract ISoCashAccount","name":"account","type":"address"},{"internalType":"uint256","name":"amount","type":"uint256"}],"name":"unlockFunds","outputs":[{"internalType":"bool","name":"","type":"bool"}],"stateMutability":"nonpayable","type":"function"},{"inputs":[{"internalType":"contract ISoCashAccount","name":"account","type":"address"}],"name":"unlockedBalanceOf","outputs":[{"internalType":"uint256","name":"","type":"uint256"}],"stateMutability":"view","type":"function"},{"inputs":[{"internalType":"contract ISoCashAccount","name":"account","type":"address"}],"name":"unregisterAccount","outputs":[{"internalType":"bool","name":"","type":"bool"}],"stateMutability":"nonpayable","type":"function"},{"inputs":[{"internalType":"contract ISoCashBank","name":"bank","type":"address"}],"name":"unregisterCorrespondent","outputs":[{"internalType":"bool","name":"","type":"bool"}],"stateMutability":"nonpayable","type":"function"},{"inputs":[{"internalType":"address","name":"newSender","type":"address"}],"name":"whitelist","outputs":[],"stateMutability":"nonpayable","type":"function"}],"evm":{"bytecode":{"linkReferences":{},"object":"6080604052600160045560016005553480156200001b57600080fd5b5060405162007235380380620072358339810160408190526200003e91620003c9565b62000049336200020a565b84600260006101000a8154816001600160581b03021916908360a81c0217905550836002600b6101000a81548164ffffffffff021916908360d81c021790555082600260106101000a81548164ffffffffff021916908360d81c021790555081600260156101000a81548162ffffff021916908360e81c021790555080600260186101000a81548160ff021916908360ff16021790555030600a60006002600b9054906101000a900460d81b6001600160d81b0319166001600160d81b03191681526020019081526020016000206000600260109054906101000a900460d81b6001600160d81b0319166001600160d81b031916815260200190815260200160002060006101000a8154816001600160a01b0302191690836001600160a01b0316021790555062000180336200025a60201b60201c565b604080516001600160a81b0319871660208201528151600b818303018152602b820183526001600160e81b03198516604b8301528251602e818403018152604e9092019283905230927fd3c7103281f4d454a8dbd65f2a6eb4e84cfcfd24b2a3b3f64c4fcafd2d1e730e92620001f79291620004ae565b60405180910390a25050505050620004e0565b600080546001600160a01b038381166001600160a01b0319831681178455604051919092169283917f8be0079c531659141344cd1fd0a4f28419497f9722a3daafe3b4186f6b6457e09190a35050565b6000546001600160a01b03163314806200028357503360009081526001602052604090205460ff165b620002da5760405162461bcd60e51b815260206004820152602d60248201526000805160206200721583398151915260448201526c3936903a34329030b1ba34b7b760991b60648201526084015b60405180910390fd5b6000546001600160a01b03163314806200030357503360009081526001602052604090205460ff165b620003565760405162461bcd60e51b815260206004820152602d60248201526000805160206200721583398151915260448201526c3936903a34329030b1ba34b7b760991b6064820152608401620002d1565b6001600160a01b038116600081815260016020818152604092839020805460ff19168317905591519081527fa54714518c5d275fdcd3d2a461e4858e4e8cb04fb93cd0bca9d6d34115f26440910160405180910390a250565b6001600160d81b031981168114620003c657600080fd5b50565b600080600080600060a08688031215620003e257600080fd5b85516001600160a81b031981168114620003fb57600080fd5b60208701519095506200040e81620003af565b60408701519094506200042181620003af565b60608701519093506001600160e81b0319811681146200044057600080fd5b608087015190925060ff811681146200045857600080fd5b809150509295509295909350565b6000815180845260005b818110156200048e5760208185018101518683018201520162000470565b506000602082860101526020601f19601f83011685010191505092915050565b604081526000620004c3604083018562000466565b8281036020840152620004d7818562000466565b95945050505050565b616d2580620004f06000396000f3fe608060405234801561001057600080fd5b506004361061030a5760003560e01c80638a75eb041161019c578063c3c4b167116100ee578063e1fb7e2311610097578063f59bcbe511610071578063f59bcbe51461087f578063f9f92be414610892578063fca8a1e0146108a557600080fd5b8063e1fb7e23146107f6578063f2fde38b14610840578063f58514931461085357600080fd5b8063d7aa2167116100c8578063d7aa216714610769578063da696d0c1461077c578063dc0192971461078f57600080fd5b8063c3c4b1671461066c578063cb8ea23c1461067f578063cc47e9bd1461074957600080fd5b806397c414df11610150578063ab9d0cdd1161012a578063ab9d0cdd14610615578063afabeb2e14610646578063b8da243e1461065957600080fd5b806397c414df146105c35780639b19251a146105d6578063a9ad2c58146105e957600080fd5b80638da5cb5b116101815780638da5cb5b146105975780639087201c146105a857806395d89b41146105bb57600080fd5b80638a75eb04146105715780638c8f95fb1461058457600080fd5b80633af32abf116102605780636894c95011610209578063715018a6116101e3578063715018a61461054357806379ce36991461054b57806384955c881461055e57600080fd5b80636894c9501461050a5780636c5b16701461051d57806370a082311461053057600080fd5b806358b5dd721161023a57806358b5dd721461049757806359355736146104cb5780635a275810146104f757600080fd5b80633af32abf1461045c5780633bdd11f61461046f5780634e72a7241461048457600080fd5b806323dc38ff116102c25780632c206e0a1161029c5780632c206e0a14610402578063313ce5671461041557806336c30cc11461044957600080fd5b806323dc38ff146103bc57806325e017af146103ef5780632bcd0a7d1461030f57600080fd5b80630a363c03116102f35780630a363c031461037457806312e382b41461039757806318160ddd146103aa57600080fd5b806306fdde031461030f57806309fb37fc1461032d575b600080fd5b6103176108b8565b6040516103249190615e46565b60405180910390f35b61035c61033b366004615e59565b63ffffffff166000908152600860205260409020546001600160a01b031690565b6040516001600160a01b039091168152602001610324565b610387610382366004615e94565b6108ee565b6040519015158152602001610324565b6103876103a5366004615eb1565b610a8c565b6003545b604051908152602001610324565b6103cf6103ca366004615fcb565b610b2a565b604080516001600160a01b03938416815292909116602083015201610324565b6103876103fd366004616049565b61100a565b6103876104103660046160b7565b611147565b6002547801000000000000000000000000000000000000000000000000900460ff1660405160ff9091168152602001610324565b610387610457366004616129565b61124b565b61038761046a366004615e94565b611453565b61048261047d366004615e94565b61148a565b005b610387610492366004615e94565b611543565b6103ae6104a5366004615e94565b6001600160a01b0316600090815260076020526040902060038101546001909101540390565b6103ae6104d9366004615e94565b6001600160a01b031660009081526007602052604090206002015490565b610387610505366004616049565b611646565b610387610518366004616165565b61174d565b61038761052b366004615eb1565b6117dc565b6103ae61053e366004615e94565b611c39565b610482611c82565b61038761055936600461618b565b611c96565b6103ae61056c366004615e94565b61215c565b61038761057f366004615eb1565b6121b3565b610387610592366004616165565b612248565b6000546001600160a01b031661035c565b6103876105b6366004615e94565b6122d7565b61031761259a565b6103876105d1366004615e94565b6125dd565b6104826105e4366004615e94565b6129e1565b6103876105f7366004615e94565b6001600160a01b031660009081526009602052604090205460ff1690565b610387610623366004615e94565b6001600160a01b0316600090815260076020526040902054610100900460ff1690565b610387610654366004615e94565b612b4f565b6103876106673660046161e4565b612da9565b61038761067a366004616218565b612fef565b61070661068d366004615e94565b60408051608080820183526000808352602080840182905283850182905260609384018290526001600160a01b039586168252600981529084902084519283018552805460ff81161515845261010090048616918301919091526001810154909416928101929092526002909201549181019190915290565b604080518251151581526020808401516001600160a01b039081169183019190915283830151169181019190915260609182015191810191909152608001610324565b61075c610757366004616165565b613224565b6040516103249190616264565b610387610777366004616309565b61343b565b61038761078a36600461634c565b6134f4565b6002546b010000000000000000000000810460d890811b917001000000000000000000000000000000009004901b604080517fffffffffff000000000000000000000000000000000000000000000000000000938416815292909116602083015201610324565b61082b610804366004615e94565b6001600160a01b031660009081526007602052604090205462010000900463ffffffff1690565b60405163ffffffff9091168152602001610324565b61048261084e366004615e94565b613862565b610387610861366004615e94565b6001600160a01b031660009081526007602052604090205460ff1690565b61031761088d366004615e94565b6138f2565b6104826108a0366004615e94565b613cfd565b6103876108b3366004616049565b613e60565b60025460405160a89190911b6001600160a81b0319166020820152606090602b015b604051602081830303815290604052905090565b60006001600160a01b0382166109715760405162461bcd60e51b815260206004820152602160248201527f536f433a2043616e6e6f7420746f67676c652061206e756c6c206163636f756e60448201527f740000000000000000000000000000000000000000000000000000000000000060648201526084015b60405180910390fd5b6001600160a01b0382166000908152600760205260409020805460ff16610a005760405162461bcd60e51b815260206004820152602a60248201527f536f433a2043616e6e6f7420746f67676c6520616e20756e726567697374657260448201527f6564206163636f756e74000000000000000000000000000000000000000000006064820152608401610968565b805460ff61010080830482161581027fffffffffffffffffffffffffffffffffffffffffffffffffffffffffffff00ff9093169290921780845560405192900416151581526001600160a01b038416907fe9f66121638d3451750bef8f65a4fc027b5abddff38717c75278b1114a68c3279060200160405180910390a254610100900460ff1692915050565b600080546001600160a01b0316331480610ab557503360009081526001602052604090205460ff165b610b175760405162461bcd60e51b815260206004820152602d60248201527f574c533a2043616c6c6572206e6f7420616c6c6f77656420746f20706572666f60448201526c3936903a34329030b1ba34b7b760991b6064820152608401610968565b610b218383614304565b90505b92915050565b6006546040517fb7f25bfe000000000000000000000000000000000000000000000000000000008152600091829182918291829182916001600160a01b039091169063b7f25bfe90610b80908a90600401615e46565b600060405180830381865afa158015610b9d573d6000803e3d6000fd5b505050506040513d6000823e601f3d908101601f19168201604052610bc591908101906163ec565b50935093509350935083610c1b5760405162461bcd60e51b815260206004820152601160248201527f536f433a20496e76616c6964204942414e0000000000000000000000000000006044820152606401610968565b60408051600380825281830190925260009160208201818036833701905050905060005b6003811015610cb857828181518110610c5a57610c5a6164a1565b602001015160f81c60f81b828281518110610c7757610c776164a1565b60200101907effffffffffffffffffffffffffffffffffffffffffffffffffffffffffffff1916908160001a90535080610cb0816164cd565b915050610c3f565b50600254604051600160a81b90910460e81b7fffffff0000000000000000000000000000000000000000000000000000000000166020820152610d0f9082906023015b604051602081830303815290604052614413565b610d5b5760405162461bcd60e51b815260206004820152601660248201527f536f433a2043757272656e6379206d69736d61746368000000000000000000006044820152606401610968565b60408051600880825281830190925260009160208201818036833701905050905060035b600b811015610e1e57838181518110610d9a57610d9a6164a1565b01602001517fff000000000000000000000000000000000000000000000000000000000000001682610dcd6003846164e7565b81518110610ddd57610ddd6164a1565b60200101907effffffffffffffffffffffffffffffffffffffffffffffffffffffffffffff1916908160001a90535080610e16816164cd565b915050610d7f565b506006546040516000916001600160a01b03169063fa09eae190610e469085906020016164fa565b6040516020818303038152906040526040518263ffffffff1660e01b8152600401610e719190615e46565b602060405180830381865afa158015610e8e573d6000803e3d6000fd5b505050506040513d601f19601f82011682018060405250810190610eb29190616516565b90506000610ebf8761652f565b90506000610ecc8761652f565b7fffffffffff0000000000000000000000000000000000000000000000000000008381166000908152600a60209081526040808320938516835292905220546001600160a01b03169b5090508a15610ff657306001600160a01b038c1603610f5f57505063ffffffff16600090815260086020526040902054309a6001600160a01b039091169950975050505050505050565b6040517f09fb37fc00000000000000000000000000000000000000000000000000000000815263ffffffff841660048201526001600160a01b038c16906309fb37fc90602401602060405180830381865afa158015610fc2573d6000803e3d6000fd5b505050506040513d601f19601f82011682018060405250810190610fe6919061655e565b9950505050505050505050915091565b5060009b8c9b509950505050505050505050565b600080546001600160a01b031633148061103357503360009081526001602052604090205460ff165b6110955760405162461bcd60e51b815260206004820152602d60248201527f574c533a2043616c6c6572206e6f7420616c6c6f77656420746f20706572666f60448201526c3936903a34329030b1ba34b7b760991b6064820152608401610968565b600061111c60006040518060600160405280896001600160a01b03168152602001600060a81b74ffffffffffffffffffffffffffffffffffffffffff191681526020016000801b8152508787878080601f01602080910402602001604051908101604052809392919081815260200183838082843760009201919091525061441f92505050565b9050600061112b878784614583565b905061113a87876001856146e8565b509150505b949350505050565b600080546001600160a01b031633148061117057503360009081526001602052604090205460ff165b6111d25760405162461bcd60e51b815260206004820152602d60248201527f574c533a2043616c6c6572206e6f7420616c6c6f77656420746f20706572666f60448201526c3936903a34329030b1ba34b7b760991b6064820152608401610968565b6000611224876111e736899003890189616591565b8787878080601f01602080910402602001604051908101604052809392919081815260200183838082843760009201919091525061441f92505050565b90506112408761123936899003890189616591565b87846147cf565b979650505050505050565b336000908152600960205260408120600181015482906001600160a01b03166001600160a01b031663b69ef8a86040518163ffffffff1660e01b8152600401602060405180830381865afa1580156112a7573d6000803e3d6000fd5b505050506040513d601f19601f820116820180604052508101906112cb9190616516565b905060018560018111156112e1576112e161623a565b0361136f57808683600201546112f791906165fc565b1461136a5760405162461bcd60e51b815260206004820152603960248201527f536f433a204f7572206e6f7374726f20686173206e6f74206265656e2063726560448201527f6469746564206163636f7264696e6720746f20616476696365000000000000006064820152608401610968565b6113f1565b61137986826165fc565b8260020154146113f15760405162461bcd60e51b815260206004820152603860248201527f536f433a204f7572206e6f7374726f20686173206e6f74206265656e2064656260448201527f69746564206163636f7264696e6720746f2061647669636500000000000000006064820152608401610968565b60028201819055600182015460405185916001600160a01b03169030907fbd48f312cf1e5f1936aebac461f5a9645d41a2d9e3a8c5a9c38c31e18a3c25a89061143d908b908b9061661f565b60405180910390a46001925050505b9392505050565b600080546001600160a01b0383811691161480610b245750506001600160a01b031660009081526001602052604090205460ff1690565b6000546001600160a01b03163314806114b257503360009081526001602052604090205460ff165b6115145760405162461bcd60e51b815260206004820152602d60248201527f574c533a2043616c6c6572206e6f7420616c6c6f77656420746f20706572666f60448201526c3936903a34329030b1ba34b7b760991b6064820152608401610968565b6006805473ffffffffffffffffffffffffffffffffffffffff19166001600160a01b0392909216919091179055565b600080546001600160a01b031633148061156c57503360009081526001602052604090205460ff165b6115ce5760405162461bcd60e51b815260206004820152602d60248201527f574c533a2043616c6c6572206e6f7420616c6c6f77656420746f20706572666f60448201526c3936903a34329030b1ba34b7b760991b6064820152608401610968565b6001600160a01b0382166000908152600960205260409020805460ff16801561163a57815460ff19168255604051600081526001600160a01b038516907ff66ba78954208cbd523e44f3c7c490d8d4d2b13e4c257ecf87c3002f7282de65906020015b60405180910390a25b6001925050505b919050565b600080546001600160a01b031633148061166f57503360009081526001602052604090205460ff165b6116d15760405162461bcd60e51b815260206004820152602d60248201527f574c533a2043616c6c6572206e6f7420616c6c6f77656420746f20706572666f60448201526c3936903a34329030b1ba34b7b760991b6064820152608401610968565b60408051606081018252600080825260208083018290528284018290528351601f8701829004820281018201909452858452909261172f92899290918991899089908190840183828082843760009201919091525061441f92505050565b9050600061173e878784614cbb565b905061113a87876000856146e8565b3360009081526007602052604081205460ff166117d25760405162461bcd60e51b815260206004820152603560248201527f536f433a204f6e6c7920612072656769737465726564206163636f756e74206360448201527f616e2063616c6c20746869732066756e6374696f6e00000000000000000000006064820152608401610968565b610b243383614dd5565b60006001600160a01b03831661185a5760405162461bcd60e51b815260206004820152603a60248201527f536f433a2043616e6e6f742072657175657374206e657474696e67207769746860448201527f2061206e756c6c20636f72726573706f6e64656e742062616e6b0000000000006064820152608401610968565b6001600160a01b0383166000908152600960205260409020805460ff166118e95760405162461bcd60e51b815260206004820152602d60248201527f536f433a2054686520636f72726573706f6e64656e742062616e6b206973206e60448201527f6f742072656769737465726564000000000000000000000000000000000000006064820152608401610968565b805461010090046001600160a01b031661196b5760405162461bcd60e51b815260206004820152603860248201527f536f433a2054686520636f72726573706f6e64656e742062616e6b206861732060448201527f6e6f206c6f726f206163636f756e74207769746820796f7500000000000000006064820152608401610968565b60018101546001600160a01b03166119eb5760405162461bcd60e51b815260206004820152603a60248201527f536f433a2054686520636f72726573706f6e64656e742062616e6b206861732060448201527f6e6f206e6f7374726f206163636f756e74207769746820796f750000000000006064820152608401610968565b805461010090046001600160a01b0316600090815260076020526040902060010154831115611a825760405162461bcd60e51b815260206004820152602360248201527f536f433a20496e73756666696369656e742066756e647320666f72206e65747460448201527f696e6700000000000000000000000000000000000000000000000000000000006064820152608401610968565b80546040805160608101825260018401546001600160a01b039081168252600060208084018290528385018290528451808601909552600f85527f4e657474696e67207265717565737400000000000000000000000000000000009085015293611af8936101009091049091169190879061441f565b8254909150600090611b199061010090046001600160a01b03168684614cbb565b9050808015611bb15750856040517fc3c4b16700000000000000000000000000000000000000000000000000000000815260048101879052602481018490526001600160a01b03919091169063c3c4b167906044016020604051808303816000875af1158015611b8d573d6000803e3d6000fd5b505050506040513d601f19601f82011682018060405250810190611bb19190616633565b60018401549091506000906001600160a01b03166001600160a01b031663b69ef8a86040518163ffffffff1660e01b8152600401602060405180830381865afa158015611c02573d6000803e3d6000fd5b505050506040513d601f19601f82011682018060405250810190611c269190616516565b6002909401939093559250505092915050565b6001600160a01b0381166000908152600760205260408120600181015460038201541115611c6a5750600092915050565b60038101546001909101540392915050565b50919050565b611c8a614ef0565b611c946000614f4a565b565b600080546001600160a01b0316331480611cbf57503360009081526001602052604090205460ff165b611d215760405162461bcd60e51b815260206004820152602d60248201527f574c533a2043616c6c6572206e6f7420616c6c6f77656420746f20706572666f60448201526c3936903a34329030b1ba34b7b760991b6064820152608401610968565b6000848152600b60205260409020600260048083015460ff1690811115611d4a57611d4a61623a565b14611d975760405162461bcd60e51b815260206004820181905260248201527f536f433a20546865207472616e73666572206973206e6f742070656e64696e676044820152606401610968565b6003846004811115611dab57611dab61623a565b1480611dc857506004846004811115611dc657611dc661623a565b145b611e145760405162461bcd60e51b815260206004820152601360248201527f536f433a20496e76616c696420737461747573000000000000000000000000006044820152606401610968565b611ee0816006018054611e269061664e565b80601f0160208091040260200160405190810160405280929190818152602001828054611e529061664e565b8015611e9f5780601f10611e7457610100808354040283529160200191611e9f565b820191906000526020600020905b815481529060010190602001808311611e8257829003601f168201915b50505050506040518060400160405280600481526020017f2c203d3e0000000000000000000000000000000000000000000000000000000081525085614fa7565b6006820190611eef90826166d0565b506003846004811115611f0457611f0461623a565b03611f5e5760048101805460ff1916600390811790915560405186917fdaf55112d5c5fe5c33b5a1798ecf71d462c3b5ec5855abb929d4266ce8c79c0291611f4c9190616790565b60405180910390a2600191505061144c565b80546001600160a01b0316156120db578054600090611f85906001600160a01b0316614fe4565b9050306001600160a01b0382160361208a5760018201546001600160a01b03161561200b5781546040805160608101825260018501546001600160a01b038082168352600160a01b90910460a81b6001600160a81b03191660208301526002860154928201929092526003850154612002939290921691896147cf565b9250505061144c565b60028201546000036120325781546003830154612002916001600160a01b03169088614cbb565b81546040805160608101825260018501546001600160a01b038082168352600160a01b90910460a81b6001600160a81b03191660208301526002860154928201929092526003850154612002939290921691896147cf565b6040805160608101825260018401546001600160a01b0381168252600160a01b900460a81b6001600160a81b03191660208201526002840154918101919091526003830154612002918391896150e1565b60018101546001600160a01b031615612114576001810154600382015461210c916001600160a01b03169087614583565b91505061144c565b60405162461bcd60e51b815260206004820152601b60248201527f536f433a20536974756174696f6e206e6f7420657870656374656400000000006044820152606401610968565b6001600160a01b03811660009081526007602052604081206002810154600190910154106121ab57506001600160a01b0316600090815260076020526040902060028101546001909101540390565b506000919050565b600080546001600160a01b03163314806121dc57503360009081526001602052604090205460ff165b61223e5760405162461bcd60e51b815260206004820152602d60248201527f574c533a2043616c6c6572206e6f7420616c6c6f77656420746f20706572666f60448201526c3936903a34329030b1ba34b7b760991b6064820152608401610968565b610b218383614dd5565b3360009081526007602052604081205460ff166122cd5760405162461bcd60e51b815260206004820152603560248201527f536f433a204f6e6c7920612072656769737465726564206163636f756e74206360448201527f616e2063616c6c20746869732066756e6374696f6e00000000000000000000006064820152608401610968565b610b243383614304565b600080546001600160a01b031633148061230057503360009081526001602052604090205460ff165b6123625760405162461bcd60e51b815260206004820152602d60248201527f574c533a2043616c6c6572206e6f7420616c6c6f77656420746f20706572666f60448201526c3936903a34329030b1ba34b7b760991b6064820152608401610968565b6001600160a01b0382166123c95760405162461bcd60e51b815260206004820152602860248201527f536f433a2043616e6e6f74206372656469742061206e756c6c206e6f7374726f604482015267081858d8dbdd5b9d60c21b6064820152608401610968565b60006123d483614fe4565b90506123f8816001600160a01b031660009081526009602052604090205460ff1690565b6124905760405162461bcd60e51b815260206004820152604360248201527f536f433a20546865206163636f756e74206973206e6f742061206e6f7374726f60448201527f206f662061207265676973746572656420636f72726573706f6e64656e74206260648201527f616e6b0000000000000000000000000000000000000000000000000000000000608482015260a401610968565b6001600160a01b038181166000908152600960205260409020600181015490918581169116146125285760405162461bcd60e51b815260206004820152603d60248201527f536f433a20546865206163636f756e74206973206e6f7420796f7572206e6f7360448201527f74726f2061742074686520636f72726573706f6e64656e742062616e6b0000006064820152608401610968565b836001600160a01b031663b69ef8a86040518163ffffffff1660e01b8152600401602060405180830381865afa158015612566573d6000803e3d6000fd5b505050506040513d601f19601f8201168201806040525081019061258a9190616516565b6002909101555060019050919050565b600254604051600160a81b90910460e81b7fffffff00000000000000000000000000000000000000000000000000000000001660208201526060906023016108da565b600080546001600160a01b031633148061260657503360009081526001602052604090205460ff165b6126685760405162461bcd60e51b815260206004820152602d60248201527f574c533a2043616c6c6572206e6f7420616c6c6f77656420746f20706572666f60448201526c3936903a34329030b1ba34b7b760991b6064820152608401610968565b6001600160a01b0382166126e45760405162461bcd60e51b815260206004820152602360248201527f536f433a2043616e6e6f742072656769737465722061206e756c6c206163636f60448201527f756e7400000000000000000000000000000000000000000000000000000000006064820152608401610968565b30826001600160a01b03166376cdb03b6040518163ffffffff1660e01b8152600401602060405180830381865afa158015612723573d6000803e3d6000fd5b505050506040513d601f19601f82011682018060405250810190612747919061655e565b6001600160a01b0316146127e95760405162461bcd60e51b815260206004820152605460248201527f536f433a2043616e6e6f7420726567697374657220616e206163636f756e742060448201527f6e6f74206f776e656420627920746869732062616e6b2e20557365207472616e60648201527f736665724f776e6572736869702066697273742e000000000000000000000000608482015260a401610968565b6001600160a01b0382166000908152600760205260409020805460ff168015612816575060019392505050565b8154610100900460ff166129235781547fffffffffffffffffffffffffffffffffffffffffffffffffffffffffffff0000166101011782556005805490600061285e836164cd565b9091555082547fffffffffffffffffffffffffffffffffffffffffffffffffffff00000000ffff166201000063ffffffff92831681029190911780855560006001808701829055600287018290556003870182905592909104909216825260086020908152604092839020805473ffffffffffffffffffffffffffffffffffffffff19166001600160a01b03891690811790915592519182527fe9f66121638d3451750bef8f65a4fc027b5abddff38717c75278b1114a68c327910160405180910390a25b604051600181526001600160a01b038516907f9d26f700287350f2eb871fdcf5b52a588abefe0add47c4e509e835fa4c9a294a9060200160405180910390a2836040517f9b19251a0000000000000000000000000000000000000000000000000000000081523360048201526001600160a01b039190911690639b19251a90602401600060405180830381600087803b1580156129bf57600080fd5b505af11580156129d3573d6000803e3d6000fd5b506001979650505050505050565b6000546001600160a01b0316331480612a0957503360009081526001602052604090205460ff165b612a6b5760405162461bcd60e51b815260206004820152602d60248201527f574c533a2043616c6c6572206e6f7420616c6c6f77656420746f20706572666f60448201526c3936903a34329030b1ba34b7b760991b6064820152608401610968565b6000546001600160a01b0316331480612a9357503360009081526001602052604090205460ff165b612af55760405162461bcd60e51b815260206004820152602d60248201527f574c533a2043616c6c6572206e6f7420616c6c6f77656420746f20706572666f60448201526c3936903a34329030b1ba34b7b760991b6064820152608401610968565b6001600160a01b038116600081815260016020818152604092839020805460ff19168317905591519081527fa54714518c5d275fdcd3d2a461e4858e4e8cb04fb93cd0bca9d6d34115f2644091015b60405180910390a250565b600080546001600160a01b0316331480612b7857503360009081526001602052604090205460ff165b612bda5760405162461bcd60e51b815260206004820152602d60248201527f574c533a2043616c6c6572206e6f7420616c6c6f77656420746f20706572666f60448201526c3936903a34329030b1ba34b7b760991b6064820152608401610968565b6001600160a01b038216612c565760405162461bcd60e51b815260206004820152602560248201527f536f433a2043616e6e6f7420756e72656769737465722061206e756c6c20616360448201527f636f756e740000000000000000000000000000000000000000000000000000006064820152608401610968565b6001600160a01b0382166000908152600760205260409020805460ff1680612c82575060019392505050565b81600301548260010154612c9691906165fc565b15612d095760405162461bcd60e51b815260206004820152603060248201527f536f433a2043616e6e6f7420756e726567697374657220616e206163636f756e60448201527f74207769746820612062616c616e6365000000000000000000000000000000006064820152608401610968565b6001600160a01b038416600081815260076020908152604080832080547fffffffffffffffffffffffffffffffffffffffffffffffffffff000000000000168155600181018490556002810184905560038101849055600401805473ffffffffffffffffffffffffffffffffffffffff19169055519182527f9d26f700287350f2eb871fdcf5b52a588abefe0add47c4e509e835fa4c9a294a9101611631565b3360009081526009602052604081205460ff16612e2e5760405162461bcd60e51b815260206004820152603560248201527f536f433a204f6e6c79206120636f72726573706f6e64656e742062616e6b206360448201527f616e2063616c6c20746869732066756e6374696f6e00000000000000000000006064820152608401610968565b3360008181526009602052604080822090517fcc47e9bd0000000000000000000000000000000000000000000000000000000081526004810186905290929190612ec790839063cc47e9bd90602401600060405180830381865afa158015612e9a573d6000803e3d6000fd5b505050506040513d6000823e601f3d908101601f19168201604052612ec29190810190616817565b61520b565b60018401549091506000906001600160a01b03166001600160a01b031663b69ef8a86040518163ffffffff1660e01b8152600401602060405180830381865afa158015612f18573d6000803e3d6000fd5b505050506040513d601f19601f82011682018060405250810190612f3c9190616516565b905080878560020154612f4f91906165fc565b14612fc25760405162461bcd60e51b815260206004820152602560248201527f536f433a204f7572206e6f7374726f20686173206e6f74206265656e2063726560448201527f64697465640000000000000000000000000000000000000000000000000000006064820152608401610968565b60028401819055612fe383612fdc368b90038b018b616591565b89856150e1565b98975050505050505050565b3360009081526009602052604081205460ff166130745760405162461bcd60e51b815260206004820152603560248201527f536f433a204f6e6c79206120636f72726573706f6e64656e742062616e6b206360448201527f616e2063616c6c20746869732066756e6374696f6e00000000000000000000006064820152608401610968565b3360009081526009602090815260408083208054825160608101845260018301546001600160a01b0390811682528186018790528185018790528451808601909552600f85527f4e657474696e6720726571756573740000000000000000000000000000000000958501959095529194936130f993610100909204169190889061441f565b60018301549091506000906001600160a01b03166001600160a01b031663b69ef8a86040518163ffffffff1660e01b8152600401602060405180830381865afa15801561314a573d6000803e3d6000fd5b505050506040513d601f19601f8201168201806040525081019061316e9190616516565b905061317a86826165fc565b8360020154146131f25760405162461bcd60e51b815260206004820152603560248201527f536f433a204f7572206e6f7374726f20686173206e6f74206265656e2064656260448201527f69746564206265666f726520746869732063616c6c00000000000000000000006064820152608401610968565b82546000906132109061010090046001600160a01b03168885614cbb565b600290940191909155509091505092915050565b6040805160c08101825260008082528251606080820185528282526020808301849052828601849052840191909152928201819052828201526080810182905260a08101919091526000828152600b6020908152604091829020825160c08101845281546001600160a01b03908116825284516060808201875260018501549283168252600160a01b90920460a81b6001600160a81b0319168186015260028401548187015293820193909352600382015493810193909352600480820154919284019160ff16908111156132fb576132fb61623a565b600481111561330c5761330c61623a565b81526020016005820180546133209061664e565b80601f016020809104026020016040519081016040528092919081815260200182805461334c9061664e565b80156133995780601f1061336e57610100808354040283529160200191613399565b820191906000526020600020905b81548152906001019060200180831161337c57829003601f168201915b505050505081526020016006820180546133b29061664e565b80601f01602080910402602001604051908101604052809291908181526020018280546133de9061664e565b801561342b5780601f106134005761010080835404028352916020019161342b565b820191906000526020600020905b81548152906001019060200180831161340e57829003601f168201915b5050505050815250509050919050565b3360009081526007602052604081205460ff166134c05760405162461bcd60e51b815260206004820152603560248201527f536f433a204f6e6c7920612072656769737465726564206163636f756e74206360448201527f616e2063616c6c20746869732066756e6374696f6e00000000000000000000006064820152608401610968565b60006134d5336111e736899003890189616591565b90506134ea3361123936899003890189616591565b9695505050505050565b600080546001600160a01b031633148061351d57503360009081526001602052604090205460ff165b61357f5760405162461bcd60e51b815260206004820152602d60248201527f574c533a2043616c6c6572206e6f7420616c6c6f77656420746f20706572666f60448201526c3936903a34329030b1ba34b7b760991b6064820152608401610968565b6001600160a01b0384166135d55760405162461bcd60e51b815260206004820181905260248201527f536f433a2043616e6e6f742072656769737465722061206e756c6c2062616e6b6044820152606401610968565b6135de84615229565b6136505760405162461bcd60e51b815260206004820152603c60248201527f536f433a205468652062616e6b20646f6573206e6f742068617665207468652060448201527f73616d6520646566696e6974696f6e20617320746869732062616e6b000000006064820152608401610968565b6001600160a01b0384811660008181526009602052604080822080547fffffffffffffffffffffff0000000000000000000000000000000000000000ff81166101008a88160217825560018201805473ffffffffffffffffffffffffffffffffffffffff19169689169690961790955581517fdc0192970000000000000000000000000000000000000000000000000000000081528251919560ff16948493909263dc0192979260048082019392918290030181865afa158015613718573d6000803e3d6000fd5b505050506040513d601f19601f8201168201806040525081019061373c9190616915565b7fffffffffff0000000000000000000000000000000000000000000000000000008281166000908152600a60209081526040808320938516835292905220805473ffffffffffffffffffffffffffffffffffffffff19166001600160a01b038c161790559092509050826129d357835460ff1916600190811785556040519081526001600160a01b038916907ff66ba78954208cbd523e44f3c7c490d8d4d2b13e4c257ecf87c3002f7282de659060200160405180910390a26001600160a01b03871660009081526007602052604090205460ff16156129d3576001600160a01b038781166000908152600760205260409020600401805473ffffffffffffffffffffffffffffffffffffffff1916918a16919091179055506001979650505050505050565b61386a614ef0565b6001600160a01b0381166138e65760405162461bcd60e51b815260206004820152602660248201527f4f776e61626c653a206e6577206f776e657220697320746865207a65726f206160448201527f64647265737300000000000000000000000000000000000000000000000000006064820152608401610968565b6138ef81614f4a565b50565b6001600160a01b0381166000908152600760205260408120546060916201000090910463ffffffff169081900361396b5760405162461bcd60e51b815260206004820152601b60248201527f536f433a204163636f756e74206e6f74207265676973746572656400000000006044820152606401610968565b6006546001600160a01b03166139c35760405162461bcd60e51b815260206004820152601c60248201527f536f433a204942414e2063616c63756c61746f72206e6f7420736574000000006044820152606401610968565b6002546040516b01000000000000000000000090910460d81b7fffffffffff00000000000000000000000000000000000000000000000000000016602082015260009060250160408051601f1981840301815290829052600254700100000000000000000000000000000000900460d81b7fffffffffff000000000000000000000000000000000000000000000000000000166020830152915060009060250160408051808303601f19018152908290526006547fe939567900000000000000000000000000000000000000000000000000000000835263ffffffff861660048401529092506000916001600160a01b039091169063e939567990602401600060405180830381865afa158015613ade573d6000803e3d6000fd5b505050506040513d6000823e601f3d908101601f19168201604052613b06919081019061694f565b600254604051600160a81b90910460e81b7fffffff000000000000000000000000000000000000000000000000000000000016602082015290915060009060230160408051601f19818403018152908290526006547f830a35bf0000000000000000000000000000000000000000000000000000000083529092506001600160a01b03169063830a35bf90613ba2908590600890600401616984565b600060405180830381865afa158015613bbf573d6000803e3d6000fd5b505050506040513d6000823e601f3d908101601f19168201604052613be7919081019061694f565b915080600081518110613bfc57613bfc6164a1565b602001015160f81c60f81b81600181518110613c1a57613c1a6164a1565b602001015160f81c60f81b82600281518110613c3857613c386164a1565b602001015160f81c60f81b84604051602001613c5794939291906169a9565b60408051601f19818403018152908290526006547faf3da9570000000000000000000000000000000000000000000000000000000083529093506000916001600160a01b039091169063af3da95790613cb890889088908890600401616a04565b600060405180830381865afa158015613cd5573d6000803e3d6000fd5b505050506040513d6000823e601f3d908101601f19168201604052612fe3919081019061694f565b6000546001600160a01b0316331480613d2557503360009081526001602052604090205460ff165b613d875760405162461bcd60e51b815260206004820152602d60248201527f574c533a2043616c6c6572206e6f7420616c6c6f77656420746f20706572666f60448201526c3936903a34329030b1ba34b7b760991b6064820152608401610968565b6000546001600160a01b0316331480613daf57503360009081526001602052604090205460ff165b613e115760405162461bcd60e51b815260206004820152602d60248201527f574c533a2043616c6c6572206e6f7420616c6c6f77656420746f20706572666f60448201526c3936903a34329030b1ba34b7b760991b6064820152608401610968565b6001600160a01b0381166000818152600160209081526040808320805460ff19169055519182527fa54714518c5d275fdcd3d2a461e4858e4e8cb04fb93cd0bca9d6d34115f264409101612b44565b600080546001600160a01b0316331480613e8957503360009081526001602052604090205460ff165b613eeb5760405162461bcd60e51b815260206004820152602d60248201527f574c533a2043616c6c6572206e6f7420616c6c6f77656420746f20706572666f60448201526c3936903a34329030b1ba34b7b760991b6064820152608401610968565b6001600160a01b038516613f525760405162461bcd60e51b815260206004820152602860248201527f536f433a2043616e6e6f74206372656469742061206e756c6c206e6f7374726f604482015267081858d8dbdd5b9d60c21b6064820152608401610968565b6000613f5d86614fe4565b9050613f81816001600160a01b031660009081526009602052604090205460ff1690565b6140195760405162461bcd60e51b815260206004820152604360248201527f536f433a20546865206163636f756e74206973206e6f742061206e6f7374726f60448201527f206f662061207265676973746572656420636f72726573706f6e64656e74206260648201527f616e6b0000000000000000000000000000000000000000000000000000000000608482015260a401610968565b6001600160a01b038181166000908152600960205260409020600181015490918881169116146140b15760405162461bcd60e51b815260206004820152603d60248201527f536f433a20546865206163636f756e74206973206e6f7420796f7572206e6f7360448201527f74726f2061742074686520636f72726573706f6e64656e742062616e6b0000006064820152608401610968565b805461010090046001600160a01b03166141335760405162461bcd60e51b815260206004820152603860248201527f536f433a2054686520636f72726573706f6e64656e742062616e6b206861732060448201527f6e6f206c6f726f206163636f756e74207769746820796f7500000000000000006064820152608401610968565b604080516060810182526001600160a01b0389168152600060208083018290528284018290528351601f89018290048202810182019094528784529192909161419c91839185918c918c908c908190840183828082843760009201919091525061441f92505050565b83549091506000906141bd9061010090046001600160a01b03168a84614583565b905080801561427b5750604080517fb8da243e00000000000000000000000000000000000000000000000000000000815284516001600160a01b03908116600483015260208601516001600160a81b0319166024830152918501516044820152606481018b9052608481018490529086169063b8da243e9060a4016020604051808303816000875af1158015614257573d6000803e3d6000fd5b505050506040513d601f19601f8201168201806040525081019061427b9190616633565b60018501549091506001600160a01b03166001600160a01b031663b69ef8a86040518163ffffffff1660e01b8152600401602060405180830381865afa1580156142c9573d6000803e3d6000fd5b505050506040513d601f19601f820116820180604052508101906142ed9190616516565b600290940193909355509092505050949350505050565b60006001600160a01b03831661436d5760405162461bcd60e51b815260206004820152602860248201527f536f433a2043616e6e6f74206c6f636b2066756e6473206f662061206e756c6c604482015267081858d8dbdd5b9d60c21b6064820152608401610968565b6001600160a01b03831660009081526007602052604090205460ff166143fb5760405162461bcd60e51b815260206004820152603160248201527f536f433a2043616e6e6f74206c6f636b2066756e6473206f6620616e20756e7260448201527f656769737465726564206163636f756e740000000000000000000000000000006064820152608401610968565b61440a8360008085600061536e565b50600192915050565b6000610b218383615792565b6004805460009182919082614433836164cd565b9190505590506040518060c00160405280876001600160a01b03168152602001868152602001858152602001600060048111156144725761447261623a565b81526020808201869052604080518083018252600080825293820152848352600b825291829020835181546001600160a01b0391821673ffffffffffffffffffffffffffffffffffffffff19909116178255848301518051600180850180549684015160a81c600160a01b027fff0000000000000000000000000000000000000000000000000000000000000090971692909416919091179490941790915583015160028201559183015160038301556060830151600480840180549293909260ff19169184908111156145485761454861623a565b02179055506080820151600582019061456190826166d0565b5060a0820151600682019061457690826166d0565b5091979650505050505050565b60006001600160a01b0384166146015760405162461bcd60e51b815260206004820152602160248201527f536f433a2043616e6e6f74206372656469742061206e756c6c206163636f756e60448201527f74000000000000000000000000000000000000000000000000000000000000006064820152608401610968565b6000828152600b6020526040812061461c91908690826157b7565b156146345761462c82600261596a565b50600061144c565b6146438484600080600061536e565b6040518381526001600160a01b038516906000907fddf252ad1be2c89b69c2b068fc378daa952ba7f163c4a11628f55a4df523b3ef9060200160405180910390a381846001600160a01b031660006001600160a01b03167febf4e2acf0deb5cb995e1905cd9be5a9e8388a9f08b1473a730437de1eba7996866040516146cb91815260200190565b60405180910390a46146de82600161596a565b5060019392505050565b6001600160a01b0380851660009081526007602052604081206004015490911661472a816001600160a01b031660009081526009602052604090205460ff1690565b156147c3576040517f36c30cc10000000000000000000000000000000000000000000000000000000081526001600160a01b038216906336c30cc19061477890889088908890600401616a3d565b6020604051808303816000875af1158015614797573d6000803e3d6000fd5b505050506040513d601f19601f820116820180604052508101906147bb9190616633565b91505061113f565b50600095945050505050565b60006001600160a01b0385166148385760405162461bcd60e51b815260206004820152602860248201527f536f433a2043616e6e6f74207472616e736665722066726f6d2061206e756c6c604482015267081858d8dbdd5b9d60c21b6064820152608401610968565b83516001600160a01b031615614b7e5783600001516001600160a01b0316856001600160a01b03160361486d5750600161113f565b83516148799030615a5e565b6149115760405162461bcd60e51b815260206004820152604c60248201527f536f433a204578706563742074686520726563697069656e7420746f2068617660448201527f65207468652073616d652063757272656e637920616e6420646563696d616c7360648201527f206173207468652062616e6b0000000000000000000000000000000000000000608482015260a401610968565b60006149208560000151614fe4565b9050306001600160a01b0382160361496d5760006149448787600001518787615c0d565b905061495387866000876146e8565b50855161496390866001876146e8565b50915061113f9050565b6001600160a01b0381166000908152600960205260409020805460ff1615614b105784816002015410614a705760006149a7888787614cbb565b9050808015614a56575060018201546000868152600b60205260409081902090517fa5472f850000000000000000000000000000000000000000000000000000000081526001600160a01b039092169163a5472f8591614a13918b918b91600590910190600401616a5f565b6020604051808303816000875af1158015614a32573d6000803e3d6000fd5b505050506040513d601f19601f82011682018060405250810190614a569190616633565b9050614a6588876000886146e8565b50925061113f915050565b8054600090614a9090899061010090046001600160a01b03168888615c0d565b9050808015614a565750604080517fb8da243e00000000000000000000000000000000000000000000000000000000815288516001600160a01b03908116600483015260208a01516001600160a81b031916602483015291890151604482015260648101889052608481018790529084169063b8da243e9060a401614a13565b60405162461bcd60e51b815260206004820152603860248201527f536f433a204e6f6e20636f72726573706f6e64656e742062616e6b20736f6c7560448201527f74696f6e206e6f7420696d706c656d656e7465642079657400000000000000006064820152608401610968565b60208401516001600160a81b03191615801590614b9d57506040840151155b15614bc6576000614baf868585614cbb565b9050614bbe86856000866146e8565b50905061113f565b60008460400151604051602001614bdf91815260200190565b60405160208183030381529060405290506000614c1a82604051602001614c0691906164fa565b604051602081830303815290604052610b2a565b9150506001600160a01b03811615614c4d576001600160a01b0381168652614c44878787876147cf565b9250505061113f565b60405162461bcd60e51b815260206004820152603160248201527f536f433a204249432f4942414e20726563697069656e74206e6f742066756c6c60448201527f7920696d706c656d656e746564207965740000000000000000000000000000006064820152608401610968565b60006001600160a01b038416614d135760405162461bcd60e51b815260206004820181905260248201527f536f433a2043616e6e6f742064656269742061206e756c6c206163636f756e746044820152606401610968565b6000828152600b60205260408120614d2e91869160016157b7565b15614d3e5761462c82600261596a565b614d4d8460008560008061536e565b6040518381526000906001600160a01b038616907fddf252ad1be2c89b69c2b068fc378daa952ba7f163c4a11628f55a4df523b3ef9060200160405180910390a38160006001600160a01b0316856001600160a01b03167febf4e2acf0deb5cb995e1905cd9be5a9e8388a9f08b1473a730437de1eba7996866040516146cb91815260200190565b60006001600160a01b038316614e535760405162461bcd60e51b815260206004820152602a60248201527f536f433a2043616e6e6f7420756e6c6f636b2066756e6473206f662061206e7560448201527f6c6c206163636f756e74000000000000000000000000000000000000000000006064820152608401610968565b6001600160a01b03831660009081526007602052604090205460ff16614ee15760405162461bcd60e51b815260206004820152603360248201527f536f433a2043616e6e6f7420756e6c6f636b2066756e6473206f6620616e207560448201527f6e72656769737465726564206163636f756e74000000000000000000000000006064820152608401610968565b61440a8360008060008661536e565b6000546001600160a01b03163314611c945760405162461bcd60e51b815260206004820181905260248201527f4f776e61626c653a2063616c6c6572206973206e6f7420746865206f776e65726044820152606401610968565b600080546001600160a01b0383811673ffffffffffffffffffffffffffffffffffffffff19831681178455604051919092169283917f8be0079c531659141344cd1fd0a4f28419497f9722a3daafe3b4186f6b6457e09190a35050565b60608351600003614fb957508061144c565b838383604051602001614fce93929190616b21565b604051602081830303815290604052905061144c565b6000813b63ffffffff166150605760405162461bcd60e51b815260206004820152603d60248201527f4342433a205468652061646472657373206973206e6f74206120636f6e74726160448201527f637420736f2069742063616e6e6f7420626520616e206163636f756e740000006064820152608401610968565b6000826001600160a01b0316638da5cb5b6040518163ffffffff1660e01b8152600401602060405180830381865afa1580156150a0573d6000803e3d6000fd5b505050506040513d601f19601f820116820180604052508101906150c4919061655e565b9050803b63ffffffff16156150d95792915050565b503092915050565b60006001600160a01b03851661515f5760405162461bcd60e51b815260206004820152602560248201527f536f433a2043616e6e6f74207472616e736665722066726f6d2061206e756c6c60448201527f2062616e6b0000000000000000000000000000000000000000000000000000006064820152608401610968565b83516001600160a01b03161561519d57600061517e8560000151614fe4565b9050306001600160a01b03821603614b105784516147bb908585614583565b60405162461bcd60e51b815260206004820152602b60248201527f536f433a204249432f4942414e20726563697069656e74206e6f7420696d706c60448201527f656d656e746564207965740000000000000000000000000000000000000000006064820152608401610968565b6000610b24826000015183602001518460400151856080015161441f565b6000813b63ffffffff1661523f57506000919050565b6152e8826001600160a01b03166395d89b416040518163ffffffff1660e01b8152600401600060405180830381865afa158015615280573d6000803e3d6000fd5b505050506040513d6000823e601f3d908101601f191682016040526152a8919081019061694f565b600254604051600160a81b90910460e81b7fffffff0000000000000000000000000000000000000000000000000000000000166020820152602301610cfb565b8015610b245750600260189054906101000a900460ff1660ff16826001600160a01b031663313ce5676040518163ffffffff1660e01b8152600401602060405180830381865afa158015615340573d6000803e3d6000fd5b505050506040513d601f19601f820116820180604052508101906153649190616b64565b60ff161492915050565b6001600160a01b0385166000908152600760205260409020841561540e576003810154859081116153a85760038201805491909103905560005b6003820154156153d9576003808301805460009091556001840180549190930390810190925580548201905561540c565b808260010160008282546153ed91906165fc565b92505081905550806003600082825461540691906165fc565b90915550505b505b81156154f35781816002015410156154685760405162461bcd60e51b815260206004820152601e60248201527f536f433a20496e73756666696369656e74206c6f636b65642066756e647300006044820152606401610968565b60028101805483900390556003810154156154f3578060010154816002015410156154f3576000816002015482600101546154a391906164e7565b905080826003015411156154d4576003808301805483900390556001830180548390039055805482900390556154f1565b600380830180546001850180548290039055825403909155600090555b505b82156155655782816002015461550991906165fc565b81600101541115615533578281600201600082825461552891906165fc565b909155506155659050565b600181018054600283018054600380860180549289018590039283019055928101909355815490920190558054840190555b83156155cf57600281015460018201540384811061559b57600182018054869003905560038054959095039094556000936155bc565b80156155bc5760018201805482900390556003805482900390559093039260005b84156155cd57600382018054860190555b505b6000866040517f76fc30050000000000000000000000000000000000000000000000000000000081527f6f7665726472616674416d6f756e74000000000000000000000000000000000060048201526001600160a01b0391909116906376fc300590602401602060405180830381865afa158015615651573d6000803e3d6000fd5b505050506040513d601f19601f820116820180604052508101906156759190616516565b905060008113156156ec578082600301541115600085116156ae576040518060600160405280603b8152602001616cb5603b91396156c8565b6040518060600160405280603d8152602001616c78603d91395b906156e65760405162461bcd60e51b81526004016109689190615e46565b50615789565b60038201541584615732576040518060400160405280601781526020017f536f433a20496e73756666696369656e742066756e6473000000000000000000815250615769565b6040518060400160405280602081526020017f536f433a20496e73756666696369656e7420756e6c6f636b65642066756e64738152505b906157875760405162461bcd60e51b81526004016109689190615e46565b505b50505050505050565b600081518351148015610b215750508051602091820120825192909101919091201490565b60008060048085015460ff16908111156157d3576157d361623a565b146157e05750600061113f565b60006001600160a01b038616156158a4576001600160a01b03861660009081526007602052604090208054610100900460ff166158a2578460060182615835576040518060200160405280600081525061586c565b6040518060400160405280600281526020017f2c200000000000000000000000000000000000000000000000000000000000008152505b60405160200161587d929190616b87565b60405160208183030381529060405285600601908161589c91906166d0565b50600191505b505b6001600160a01b03851615615961576001600160a01b03851660009081526007602052604090208054610100900460ff1661595f57816158f3576040518060200160405280600081525061592a565b6040518060400160405280600281526020017f2c200000000000000000000000000000000000000000000000000000000000008152505b60405160200161593a9190616c36565b60405160208183030381529060405285600601908161595991906166d0565b50600191505b505b95945050505050565b6000828152600b60205260409020600260048083015460ff16908111156159935761599361623a565b1480156159b1575060018260048111156159af576159af61623a565b145b156159cb576004818101805460ff191690911790556159f7565b818160040160006101000a81548160ff021916908360048111156159f1576159f161623a565b02179055505b600260048083015460ff1690811115615a1257615a1261623a565b10615a5957600481015460405184917fdaf55112d5c5fe5c33b5a1798ecf71d462c3b5ec5855abb929d4266ce8c79c0291615a509160ff1690616790565b60405180910390a25b505050565b6000615b34836001600160a01b03166395d89b416040518163ffffffff1660e01b8152600401600060405180830381865afa158015615aa1573d6000803e3d6000fd5b505050506040513d6000823e601f3d908101601f19168201604052615ac9919081019061694f565b836001600160a01b03166395d89b416040518163ffffffff1660e01b8152600401600060405180830381865afa158015615b07573d6000803e3d6000fd5b505050506040513d6000823e601f3d908101601f19168201604052615b2f919081019061694f565b614413565b8015610b215750816001600160a01b031663313ce5676040518163ffffffff1660e01b8152600401602060405180830381865afa158015615b79573d6000803e3d6000fd5b505050506040513d601f19601f82011682018060405250810190615b9d9190616b64565b60ff16836001600160a01b031663313ce5676040518163ffffffff1660e01b8152600401602060405180830381865afa158015615bde573d6000803e3d6000fd5b505050506040513d601f19601f82011682018060405250810190615c029190616b64565b60ff16149392505050565b60006001600160a01b038516615c765760405162461bcd60e51b815260206004820152602860248201527f536f433a2043616e6e6f74207472616e736665722066726f6d2061206e756c6c604482015267081858d8dbdd5b9d60c21b6064820152608401610968565b6001600160a01b038416615cf25760405162461bcd60e51b815260206004820152602660248201527f536f433a2043616e6e6f74207472616e7366657220746f2061206e756c6c206160448201527f63636f756e7400000000000000000000000000000000000000000000000000006064820152608401610968565b6000828152600b60205260409020615d0f908690869060026157b7565b15615d2757615d1f82600261596a565b50600061113f565b615d368560008560008061536e565b615d458484600080600061536e565b836001600160a01b0316856001600160a01b03167fddf252ad1be2c89b69c2b068fc378daa952ba7f163c4a11628f55a4df523b3ef85604051615d8a91815260200190565b60405180910390a381846001600160a01b0316866001600160a01b03167febf4e2acf0deb5cb995e1905cd9be5a9e8388a9f08b1473a730437de1eba799686604051615dd891815260200190565b60405180910390a4615deb82600161596a565b506001949350505050565b60005b83811015615e11578181015183820152602001615df9565b50506000910152565b60008151808452615e32816020860160208601615df6565b601f01601f19169290920160200192915050565b602081526000610b216020830184615e1a565b600060208284031215615e6b57600080fd5b813563ffffffff8116811461144c57600080fd5b6001600160a01b03811681146138ef57600080fd5b600060208284031215615ea657600080fd5b813561144c81615e7f565b60008060408385031215615ec457600080fd5b8235615ecf81615e7f565b946020939093013593505050565b634e487b7160e01b600052604160045260246000fd5b60405160c0810167ffffffffffffffff81118282101715615f1657615f16615edd565b60405290565b604051601f8201601f1916810167ffffffffffffffff81118282101715615f4557615f45615edd565b604052919050565b600067ffffffffffffffff821115615f6757615f67615edd565b50601f01601f191660200190565b600082601f830112615f8657600080fd5b8135615f99615f9482615f4d565b615f1c565b818152846020838601011115615fae57600080fd5b816020850160208301376000918101602001919091529392505050565b600060208284031215615fdd57600080fd5b813567ffffffffffffffff811115615ff457600080fd5b61113f84828501615f75565b60008083601f84011261601257600080fd5b50813567ffffffffffffffff81111561602a57600080fd5b60208301915083602082850101111561604257600080fd5b9250929050565b6000806000806060858703121561605f57600080fd5b843561606a81615e7f565b935060208501359250604085013567ffffffffffffffff81111561608d57600080fd5b61609987828801616000565b95989497509550505050565b600060608284031215611c7c57600080fd5b600080600080600060c086880312156160cf57600080fd5b85356160da81615e7f565b94506160e987602088016160a5565b93506080860135925060a086013567ffffffffffffffff81111561610c57600080fd5b61611888828901616000565b969995985093965092949392505050565b60008060006060848603121561613e57600080fd5b8335925060208401356002811061615457600080fd5b929592945050506040919091013590565b60006020828403121561617757600080fd5b5035919050565b600581106138ef57600080fd5b6000806000606084860312156161a057600080fd5b8335925060208401356161b28161617e565b9150604084013567ffffffffffffffff8111156161ce57600080fd5b6161da86828701615f75565b9150509250925092565b600080600060a084860312156161f957600080fd5b61620385856160a5565b95606085013595506080909401359392505050565b6000806040838503121561622b57600080fd5b50508035926020909101359150565b634e487b7160e01b600052602160045260246000fd5b600581106162605761626061623a565b9052565b602081526001600160a01b038251166020820152600060208301516162b3604084018280516001600160a01b031682526020808201516001600160a81b03191690830152604090810151910152565b50604083015160a083015260608301516162d060c0840182616250565b5060808301516101008060e08501526162ed610120850183615e1a565b915060a0850151601f1985840301828601526134ea8382615e1a565b60008060008060a0858703121561631f57600080fd5b61632986866160a5565b935060608501359250608085013567ffffffffffffffff81111561608d57600080fd5b60008060006060848603121561636157600080fd5b833561636c81615e7f565b9250602084013561637c81615e7f565b9150604084013561638c81615e7f565b809150509250925092565b8051801515811461164157600080fd5b600082601f8301126163b857600080fd5b81516163c6615f9482615f4d565b8181528460208386010111156163db57600080fd5b61113f826020830160208701615df6565b600080600080600060a0868803121561640457600080fd5b61640d86616397565b9450602086015167ffffffffffffffff8082111561642a57600080fd5b61643689838a016163a7565b9550604088015191508082111561644c57600080fd5b61645889838a016163a7565b9450606088015191508082111561646e57600080fd5b5061647b888289016163a7565b925050608086015161ffff8116811461649357600080fd5b809150509295509295909350565b634e487b7160e01b600052603260045260246000fd5b634e487b7160e01b600052601160045260246000fd5b600060001982036164e0576164e06164b7565b5060010190565b81810381811115610b2457610b246164b7565b6000825161650c818460208701615df6565b9190910192915050565b60006020828403121561652857600080fd5b5051919050565b80516020808301519190811015611c7c5760001960209190910360031b1b16919050565b805161164181615e7f565b60006020828403121561657057600080fd5b815161144c81615e7f565b6001600160a81b0319811681146138ef57600080fd5b6000606082840312156165a357600080fd5b6040516060810181811067ffffffffffffffff821117156165c6576165c6615edd565b60405282356165d481615e7f565b815260208301356165e48161657b565b60208201526040928301359281019290925250919050565b80820180821115610b2457610b246164b7565b600281106162605761626061623a565b8281526040810161144c602083018461660f565b60006020828403121561664557600080fd5b610b2182616397565b600181811c9082168061666257607f821691505b602082108103611c7c57634e487b7160e01b600052602260045260246000fd5b601f821115615a5957600081815260208120601f850160051c810160208610156166a95750805b601f850160051c820191505b818110156166c8578281556001016166b5565b505050505050565b815167ffffffffffffffff8111156166ea576166ea615edd565b6166fe816166f8845461664e565b84616682565b602080601f831160018114616733576000841561671b5750858301515b600019600386901b1c1916600185901b1785556166c8565b600085815260208120601f198616915b8281101561676257888601518255948401946001909101908401616743565b50858210156167805787850151600019600388901b60f8161c191681555b5050505050600190811b01905550565b60208101610b248284616250565b6000606082840312156167b057600080fd5b6040516060810181811067ffffffffffffffff821117156167d3576167d3615edd565b806040525080915082516167e681615e7f565b815260208301516167f68161657b565b6020820152604092830151920191909152919050565b80516116418161617e565b60006020828403121561682957600080fd5b815167ffffffffffffffff8082111561684157600080fd5b90830190610100828603121561685657600080fd5b61685e615ef3565b61686783616553565b8152616876866020850161679e565b60208201526080830151604082015261689160a0840161680c565b606082015260c0830151828111156168a857600080fd5b6168b4878286016163a7565b60808301525060e0830151828111156168cc57600080fd5b6168d8878286016163a7565b60a08301525095945050505050565b7fffffffffff000000000000000000000000000000000000000000000000000000811681146138ef57600080fd5b6000806040838503121561692857600080fd5b8251616933816168e7565b6020840151909250616944816168e7565b809150509250929050565b60006020828403121561696157600080fd5b815167ffffffffffffffff81111561697857600080fd5b61113f848285016163a7565b6040815260006169976040830185615e1a565b905060ff831660208301529392505050565b7fff00000000000000000000000000000000000000000000000000000000000000858116825284811660018301528316600282015281516000906169f4816003850160208701615df6565b9190910160030195945050505050565b606081526000616a176060830186615e1a565b8281036020840152616a298186615e1a565b905082810360408401526134ea8185615e1a565b83815260608101616a51602083018561660f565b826040830152949350505050565b83516001600160a01b031681526020808501516001600160a81b031916908201526040808501519082015282606082015260a060808201526000808354616aa58161664e565b8060a086015260c0600180841660008114616ac75760018114616ae157616b12565b60ff198516838901528284151560051b8901019550616b12565b8860005260208060002060005b86811015616b095781548b8201870152908401908201616aee565b8a018501975050505b50939998505050505050505050565b60008451616b33818460208901615df6565b845190830190616b47818360208901615df6565b8451910190616b5a818360208801615df6565b0195945050505050565b600060208284031215616b7657600080fd5b815160ff8116811461144c57600080fd5b6000808454616b958161664e565b60018281168015616bad5760018114616bc257616bf1565b60ff1984168752821515830287019450616bf1565b8860005260208060002060005b85811015616be85781548a820152908401908201616bcf565b50505082870194505b505050508351616c05818360208801615df6565b7f496e6163746976652073656e646572206163636f756e740000000000000000009101908152601701949350505050565b60008251616c48818460208701615df6565b7f496e61637469766520726563697069656e74206163636f756e74000000000000920191825250601a0191905056fe536f433a204f7665726472616674206c696d697420776f756c6420626520726561636865642c2063616e6e6f74206c6f636b2074686520616d6f756e74536f433a204f7665726472616674206c696d697420776f756c6420626520726561636865642c2063616e6e6f74206465626974206163636f756e74a2646970667358221220881a18abd7c8a01f7c89d4c177ec930787330d38132b4f50f7232e6bd427eeb264736f6c63430008110033574c533a2043616c6c6572206e6f7420616c6c6f77656420746f20706572666f","opcodes":"PUSH1 0x80 PUSH1 0x40 MSTORE PUSH1 0x1 PUSH1 0x4 SSTORE PUSH1 0x1 PUSH1 0x5 SSTORE CALLVALUE DUP1 ISZERO PUSH3 0x1B JUMPI PUSH1 0x0 DUP1 REVERT JUMPDEST POP PUSH1 0x40 MLOAD PUSH3 0x7235 CODESIZE SUB DUP1 PUSH3 0x7235 DUP4 CODECOPY DUP2 ADD PUSH1 0x40 DUP2 SWAP1 MSTORE PUSH3 0x3E SWAP2 PUSH3 0x3C9 JUMP JUMPDEST PUSH3 0x49 CALLER PUSH3 0x20A JUMP JUMPDEST DUP5 PUSH1 0x2 PUSH1 0x0 PUSH2 0x100 EXP DUP2 SLOAD DUP2 PUSH1 0x1 PUSH1 0x1 PUSH1 0x58 SHL SUB MUL NOT AND SWAP1 DUP4 PUSH1 0xA8 SHR MUL OR SWAP1 SSTORE POP DUP4 PUSH1 0x2 PUSH1 0xB PUSH2 0x100 EXP DUP2 SLOAD DUP2 PUSH5 0xFFFFFFFFFF MUL NOT AND SWAP1 DUP4 PUSH1 0xD8 SHR MUL OR SWAP1 SSTORE POP DUP3 PUSH1 0x2 PUSH1 0x10 PUSH2 0x100 EXP DUP2 SLOAD DUP2 PUSH5 0xFFFFFFFFFF MUL NOT AND SWAP1 DUP4 PUSH1 0xD8 SHR MUL OR SWAP1 SSTORE POP DUP2 PUSH1 0x2 PUSH1 0x15 PUSH2 0x100 EXP DUP2 SLOAD DUP2 PUSH3 0xFFFFFF MUL NOT AND SWAP1 DUP4 PUSH1 0xE8 SHR MUL OR SWAP1 SSTORE POP DUP1 PUSH1 0x2 PUSH1 0x18 PUSH2 0x100 EXP DUP2 SLOAD DUP2 PUSH1 0xFF MUL NOT AND SWAP1 DUP4 PUSH1 0xFF AND MUL OR SWAP1 SSTORE POP ADDRESS PUSH1 0xA PUSH1 0x0 PUSH1 0x2 PUSH1 0xB SWAP1 SLOAD SWAP1 PUSH2 0x100 EXP SWAP1 DIV PUSH1 0xD8 SHL PUSH1 0x1 PUSH1 0x1 PUSH1 0xD8 SHL SUB NOT AND PUSH1 0x1 PUSH1 0x1 PUSH1 0xD8 SHL SUB NOT AND DUP2 MSTORE PUSH1 0x20 ADD SWAP1 DUP2 MSTORE PUSH1 0x20 ADD PUSH1 0x0 KECCAK256 PUSH1 0x0 PUSH1 0x2 PUSH1 0x10 SWAP1 SLOAD SWAP1 PUSH2 0x100 EXP SWAP1 DIV PUSH1 0xD8 SHL PUSH1 0x1 PUSH1 0x1 PUSH1 0xD8 SHL SUB NOT AND PUSH1 0x1 PUSH1 0x1 PUSH1 0xD8 SHL SUB NOT AND DUP2 MSTORE PUSH1 0x20 ADD SWAP1 DUP2 MSTORE PUSH1 0x20 ADD PUSH1 0x0 KECCAK256 PUSH1 0x0 PUSH2 0x100 EXP DUP2 SLOAD DUP2 PUSH1 0x1 PUSH1 0x1 PUSH1 0xA0 SHL SUB MUL NOT AND SWAP1 DUP4 PUSH1 0x1 PUSH1 0x1 PUSH1 0xA0 SHL SUB AND MUL OR SWAP1 SSTORE POP PUSH3 0x180 CALLER PUSH3 0x25A PUSH1 0x20 SHL PUSH1 0x20 SHR JUMP JUMPDEST PUSH1 0x40 DUP1 MLOAD PUSH1 0x1 PUSH1 0x1 PUSH1 0xA8 SHL SUB NOT DUP8 AND PUSH1 0x20 DUP3 ADD MSTORE DUP2 MLOAD PUSH1 0xB DUP2 DUP4 SUB ADD DUP2 MSTORE PUSH1 0x2B DUP3 ADD DUP4 MSTORE PUSH1 0x1 PUSH1 0x1 PUSH1 0xE8 SHL SUB NOT DUP6 AND PUSH1 0x4B DUP4 ADD MSTORE DUP3 MLOAD PUSH1 0x2E DUP2 DUP5 SUB ADD DUP2 MSTORE PUSH1 0x4E SWAP1 SWAP3 ADD SWAP3 DUP4 SWAP1 MSTORE ADDRESS SWAP3 PUSH32 0xD3C7103281F4D454A8DBD65F2A6EB4E84CFCFD24B2A3B3F64C4FCAFD2D1E730E SWAP3 PUSH3 0x1F7 SWAP3 SWAP2 PUSH3 0x4AE JUMP JUMPDEST PUSH1 0x40 MLOAD DUP1 SWAP2 SUB SWAP1 LOG2 POP POP POP POP POP PUSH3 0x4E0 JUMP JUMPDEST PUSH1 0x0 DUP1 SLOAD PUSH1 0x1 PUSH1 0x1 PUSH1 0xA0 SHL SUB DUP4 DUP2 AND PUSH1 0x1 PUSH1 0x1 PUSH1 0xA0 SHL SUB NOT DUP4 AND DUP2 OR DUP5 SSTORE PUSH1 0x40 MLOAD SWAP2 SWAP1 SWAP3 AND SWAP3 DUP4 SWAP2 PUSH32 0x8BE0079C531659141344CD1FD0A4F28419497F9722A3DAAFE3B4186F6B6457E0 SWAP2 SWAP1 LOG3 POP POP JUMP JUMPDEST PUSH1 0x0 SLOAD PUSH1 0x1 PUSH1 0x1 PUSH1 0xA0 SHL SUB AND CALLER EQ DUP1 PUSH3 0x283 JUMPI POP CALLER PUSH1 0x0 SWAP1 DUP2 MSTORE PUSH1 0x1 PUSH1 0x20 MSTORE PUSH1 0x40 SWAP1 KECCAK256 SLOAD PUSH1 0xFF AND JUMPDEST PUSH3 0x2DA JUMPI PUSH1 0x40 MLOAD PUSH3 0x461BCD PUSH1 0xE5 SHL DUP2 MSTORE PUSH1 0x20 PUSH1 0x4 DUP3 ADD MSTORE PUSH1 0x2D PUSH1 0x24 DUP3 ADD MSTORE PUSH1 0x0 DUP1 MLOAD PUSH1 0x20 PUSH3 0x7215 DUP4 CODECOPY DUP2 MLOAD SWAP2 MSTORE PUSH1 0x44 DUP3 ADD MSTORE PUSH13 0x3936903A34329030B1BA34B7B7 PUSH1 0x99 SHL PUSH1 0x64 DUP3 ADD MSTORE PUSH1 0x84 ADD JUMPDEST PUSH1 0x40 MLOAD DUP1 SWAP2 SUB SWAP1 REVERT JUMPDEST PUSH1 0x0 SLOAD PUSH1 0x1 PUSH1 0x1 PUSH1 0xA0 SHL SUB AND CALLER EQ DUP1 PUSH3 0x303 JUMPI POP CALLER PUSH1 0x0 SWAP1 DUP2 MSTORE PUSH1 0x1 PUSH1 0x20 MSTORE PUSH1 0x40 SWAP1 KECCAK256 SLOAD PUSH1 0xFF AND JUMPDEST PUSH3 0x356 JUMPI PUSH1 0x40 MLOAD PUSH3 0x461BCD PUSH1 0xE5 SHL DUP2 MSTORE PUSH1 0x20 PUSH1 0x4 DUP3 ADD MSTORE PUSH1 0x2D PUSH1 0x24 DUP3 ADD MSTORE PUSH1 0x0 DUP1 MLOAD PUSH1 0x20 PUSH3 0x7215 DUP4 CODECOPY DUP2 MLOAD SWAP2 MSTORE PUSH1 0x44 DUP3 ADD MSTORE PUSH13 0x3936903A34329030B1BA34B7B7 PUSH1 0x99 SHL PUSH1 0x64 DUP3 ADD MSTORE PUSH1 0x84 ADD PUSH3 0x2D1 JUMP JUMPDEST PUSH1 0x1 PUSH1 0x1 PUSH1 0xA0 SHL SUB DUP2 AND PUSH1 0x0 DUP2 DUP2 MSTORE PUSH1 0x1 PUSH1 0x20 DUP2 DUP2 MSTORE PUSH1 0x40 SWAP3 DUP4 SWAP1 KECCAK256 DUP1 SLOAD PUSH1 0xFF NOT AND DUP4 OR SWAP1 SSTORE SWAP2 MLOAD SWAP1 DUP2 MSTORE PUSH32 0xA54714518C5D275FDCD3D2A461E4858E4E8CB04FB93CD0BCA9D6D34115F26440 SWAP2 ADD PUSH1 0x40 MLOAD DUP1 SWAP2 SUB SWAP1 LOG2 POP JUMP JUMPDEST PUSH1 0x1 PUSH1 0x1 PUSH1 0xD8 SHL SUB NOT DUP2 AND DUP2 EQ PUSH3 0x3C6 JUMPI PUSH1 0x0 DUP1 REVERT JUMPDEST POP JUMP JUMPDEST PUSH1 0x0 DUP1 PUSH1 0x0 DUP1 PUSH1 0x0 PUSH1 0xA0 DUP7 DUP9 SUB SLT ISZERO PUSH3 0x3E2 JUMPI PUSH1 0x0 DUP1 REVERT JUMPDEST DUP6 MLOAD PUSH1 0x1 PUSH1 0x1 PUSH1 0xA8 SHL SUB NOT DUP2 AND DUP2 EQ PUSH3 0x3FB JUMPI PUSH1 0x0 DUP1 REVERT JUMPDEST PUSH1 0x20 DUP8 ADD MLOAD SWAP1 SWAP6 POP PUSH3 0x40E DUP2 PUSH3 0x3AF JUMP JUMPDEST PUSH1 0x40 DUP8 ADD MLOAD SWAP1 SWAP5 POP PUSH3 0x421 DUP2 PUSH3 0x3AF JUMP JUMPDEST PUSH1 0x60 DUP8 ADD MLOAD SWAP1 SWAP4 POP PUSH1 0x1 PUSH1 0x1 PUSH1 0xE8 SHL SUB NOT DUP2 AND DUP2 EQ PUSH3 0x440 JUMPI PUSH1 0x0 DUP1 REVERT JUMPDEST PUSH1 0x80 DUP8 ADD MLOAD SWAP1 SWAP3 POP PUSH1 0xFF DUP2 AND DUP2 EQ PUSH3 0x458 JUMPI PUSH1 0x0 DUP1 REVERT JUMPDEST DUP1 SWAP2 POP POP SWAP3 SWAP6 POP SWAP3 SWAP6 SWAP1 SWAP4 POP JUMP JUMPDEST PUSH1 0x0 DUP2 MLOAD DUP1 DUP5 MSTORE PUSH1 0x0 JUMPDEST DUP2 DUP2 LT ISZERO PUSH3 0x48E JUMPI PUSH1 0x20 DUP2 DUP6 ADD DUP2 ADD MLOAD DUP7 DUP4 ADD DUP3 ADD MSTORE ADD PUSH3 0x470 JUMP JUMPDEST POP PUSH1 0x0 PUSH1 0x20 DUP3 DUP7 ADD ADD MSTORE PUSH1 0x20 PUSH1 0x1F NOT PUSH1 0x1F DUP4 ADD AND DUP6 ADD ADD SWAP2 POP POP SWAP3 SWAP2 POP POP JUMP JUMPDEST PUSH1 0x40 DUP2 MSTORE PUSH1 0x0 PUSH3 0x4C3 PUSH1 0x40 DUP4 ADD DUP6 PUSH3 0x466 JUMP JUMPDEST DUP3 DUP2 SUB PUSH1 0x20 DUP5 ADD MSTORE PUSH3 0x4D7 DUP2 DUP6 PUSH3 0x466 JUMP JUMPDEST SWAP6 SWAP5 POP POP POP POP POP JUMP JUMPDEST PUSH2 0x6D25 DUP1 PUSH3 0x4F0 PUSH1 0x0 CODECOPY PUSH1 0x0 RETURN INVALID PUSH1 0x80 PUSH1 0x40 MSTORE CALLVALUE DUP1 ISZERO PUSH2 0x10 JUMPI PUSH1 0x0 DUP1 REVERT JUMPDEST POP PUSH1 0x4 CALLDATASIZE LT PUSH2 0x30A JUMPI PUSH1 0x0 CALLDATALOAD PUSH1 0xE0 SHR DUP1 PUSH4 0x8A75EB04 GT PUSH2 0x19C JUMPI DUP1 PUSH4 0xC3C4B167 GT PUSH2 0xEE JUMPI DUP1 PUSH4 0xE1FB7E23 GT PUSH2 0x97 JUMPI DUP1 PUSH4 0xF59BCBE5 GT PUSH2 0x71 JUMPI DUP1 PUSH4 0xF59BCBE5 EQ PUSH2 0x87F JUMPI DUP1 PUSH4 0xF9F92BE4 EQ PUSH2 0x892 JUMPI DUP1 PUSH4 0xFCA8A1E0 EQ PUSH2 0x8A5 JUMPI PUSH1 0x0 DUP1 REVERT JUMPDEST DUP1 PUSH4 0xE1FB7E23 EQ PUSH2 0x7F6 JUMPI DUP1 PUSH4 0xF2FDE38B EQ PUSH2 0x840 JUMPI DUP1 PUSH4 0xF5851493 EQ PUSH2 0x853 JUMPI PUSH1 0x0 DUP1 REVERT JUMPDEST DUP1 PUSH4 0xD7AA2167 GT PUSH2 0xC8 JUMPI DUP1 PUSH4 0xD7AA2167 EQ PUSH2 0x769 JUMPI DUP1 PUSH4 0xDA696D0C EQ PUSH2 0x77C JUMPI DUP1 PUSH4 0xDC019297 EQ PUSH2 0x78F JUMPI PUSH1 0x0 DUP1 REVERT JUMPDEST DUP1 PUSH4 0xC3C4B167 EQ PUSH2 0x66C JUMPI DUP1 PUSH4 0xCB8EA23C EQ PUSH2 0x67F JUMPI DUP1 PUSH4 0xCC47E9BD EQ PUSH2 0x749 JUMPI PUSH1 0x0 DUP1 REVERT JUMPDEST DUP1 PUSH4 0x97C414DF GT PUSH2 0x150 JUMPI DUP1 PUSH4 0xAB9D0CDD GT PUSH2 0x12A JUMPI DUP1 PUSH4 0xAB9D0CDD EQ PUSH2 0x615 JUMPI DUP1 PUSH4 0xAFABEB2E EQ PUSH2 0x646 JUMPI DUP1 PUSH4 0xB8DA243E EQ PUSH2 0x659 JUMPI PUSH1 0x0 DUP1 REVERT JUMPDEST DUP1 PUSH4 0x97C414DF EQ PUSH2 0x5C3 JUMPI DUP1 PUSH4 0x9B19251A EQ PUSH2 0x5D6 JUMPI DUP1 PUSH4 0xA9AD2C58 EQ PUSH2 0x5E9 JUMPI PUSH1 0x0 DUP1 REVERT JUMPDEST DUP1 PUSH4 0x8DA5CB5B GT PUSH2 0x181 JUMPI DUP1 PUSH4 0x8DA5CB5B EQ PUSH2 0x597 JUMPI DUP1 PUSH4 0x9087201C EQ PUSH2 0x5A8 JUMPI DUP1 PUSH4 0x95D89B41 EQ PUSH2 0x5BB JUMPI PUSH1 0x0 DUP1 REVERT JUMPDEST DUP1 PUSH4 0x8A75EB04 EQ PUSH2 0x571 JUMPI DUP1 PUSH4 0x8C8F95FB EQ PUSH2 0x584 JUMPI PUSH1 0x0 DUP1 REVERT JUMPDEST DUP1 PUSH4 0x3AF32ABF GT PUSH2 0x260 JUMPI DUP1 PUSH4 0x6894C950 GT PUSH2 0x209 JUMPI DUP1 PUSH4 0x715018A6 GT PUSH2 0x1E3 JUMPI DUP1 PUSH4 0x715018A6 EQ PUSH2 0x543 JUMPI DUP1 PUSH4 0x79CE3699 EQ PUSH2 0x54B JUMPI DUP1 PUSH4 0x84955C88 EQ PUSH2 0x55E JUMPI PUSH1 0x0 DUP1 REVERT JUMPDEST DUP1 PUSH4 0x6894C950 EQ PUSH2 0x50A JUMPI DUP1 PUSH4 0x6C5B1670 EQ PUSH2 0x51D JUMPI DUP1 PUSH4 0x70A08231 EQ PUSH2 0x530 JUMPI PUSH1 0x0 DUP1 REVERT JUMPDEST DUP1 PUSH4 0x58B5DD72 GT PUSH2 0x23A JUMPI DUP1 PUSH4 0x58B5DD72 EQ PUSH2 0x497 JUMPI DUP1 PUSH4 0x59355736 EQ PUSH2 0x4CB JUMPI DUP1 PUSH4 0x5A275810 EQ PUSH2 0x4F7 JUMPI PUSH1 0x0 DUP1 REVERT JUMPDEST DUP1 PUSH4 0x3AF32ABF EQ PUSH2 0x45C JUMPI DUP1 PUSH4 0x3BDD11F6 EQ PUSH2 0x46F JUMPI DUP1 PUSH4 0x4E72A724 EQ PUSH2 0x484 JUMPI PUSH1 0x0 DUP1 REVERT JUMPDEST DUP1 PUSH4 0x23DC38FF GT PUSH2 0x2C2 JUMPI DUP1 PUSH4 0x2C206E0A GT PUSH2 0x29C JUMPI DUP1 PUSH4 0x2C206E0A EQ PUSH2 0x402 JUMPI DUP1 PUSH4 0x313CE567 EQ PUSH2 0x415 JUMPI DUP1 PUSH4 0x36C30CC1 EQ PUSH2 0x449 JUMPI PUSH1 0x0 DUP1 REVERT JUMPDEST DUP1 PUSH4 0x23DC38FF EQ PUSH2 0x3BC JUMPI DUP1 PUSH4 0x25E017AF EQ PUSH2 0x3EF JUMPI DUP1 PUSH4 0x2BCD0A7D EQ PUSH2 0x30F JUMPI PUSH1 0x0 DUP1 REVERT JUMPDEST DUP1 PUSH4 0xA363C03 GT PUSH2 0x2F3 JUMPI DUP1 PUSH4 0xA363C03 EQ PUSH2 0x374 JUMPI DUP1 PUSH4 0x12E382B4 EQ PUSH2 0x397 JUMPI DUP1 PUSH4 0x18160DDD EQ PUSH2 0x3AA JUMPI PUSH1 0x0 DUP1 REVERT JUMPDEST DUP1 PUSH4 0x6FDDE03 EQ PUSH2 0x30F JUMPI DUP1 PUSH4 0x9FB37FC EQ PUSH2 0x32D JUMPI JUMPDEST PUSH1 0x0 DUP1 REVERT JUMPDEST PUSH2 0x317 PUSH2 0x8B8 JUMP JUMPDEST PUSH1 0x40 MLOAD PUSH2 0x324 SWAP2 SWAP1 PUSH2 0x5E46 JUMP JUMPDEST PUSH1 0x40 MLOAD DUP1 SWAP2 SUB SWAP1 RETURN JUMPDEST PUSH2 0x35C PUSH2 0x33B CALLDATASIZE PUSH1 0x4 PUSH2 0x5E59 JUMP JUMPDEST PUSH4 0xFFFFFFFF AND PUSH1 0x0 SWAP1 DUP2 MSTORE PUSH1 0x8 PUSH1 0x20 MSTORE PUSH1 0x40 SWAP1 KECCAK256 SLOAD PUSH1 0x1 PUSH1 0x1 PUSH1 0xA0 SHL SUB AND SWAP1 JUMP JUMPDEST PUSH1 0x40 MLOAD PUSH1 0x1 PUSH1 0x1 PUSH1 0xA0 SHL SUB SWAP1 SWAP2 AND DUP2 MSTORE PUSH1 0x20 ADD PUSH2 0x324 JUMP JUMPDEST PUSH2 0x387 PUSH2 0x382 CALLDATASIZE PUSH1 0x4 PUSH2 0x5E94 JUMP JUMPDEST PUSH2 0x8EE JUMP JUMPDEST PUSH1 0x40 MLOAD SWAP1 ISZERO ISZERO DUP2 MSTORE PUSH1 0x20 ADD PUSH2 0x324 JUMP JUMPDEST PUSH2 0x387 PUSH2 0x3A5 CALLDATASIZE PUSH1 0x4 PUSH2 0x5EB1 JUMP JUMPDEST PUSH2 0xA8C JUMP JUMPDEST PUSH1 0x3 SLOAD JUMPDEST PUSH1 0x40 MLOAD SWAP1 DUP2 MSTORE PUSH1 0x20 ADD PUSH2 0x324 JUMP JUMPDEST PUSH2 0x3CF PUSH2 0x3CA CALLDATASIZE PUSH1 0x4 PUSH2 0x5FCB JUMP JUMPDEST PUSH2 0xB2A JUMP JUMPDEST PUSH1 0x40 DUP1 MLOAD PUSH1 0x1 PUSH1 0x1 PUSH1 0xA0 SHL SUB SWAP4 DUP5 AND DUP2 MSTORE SWAP3 SWAP1 SWAP2 AND PUSH1 0x20 DUP4 ADD MSTORE ADD PUSH2 0x324 JUMP JUMPDEST PUSH2 0x387 PUSH2 0x3FD CALLDATASIZE PUSH1 0x4 PUSH2 0x6049 JUMP JUMPDEST PUSH2 0x100A JUMP JUMPDEST PUSH2 0x387 PUSH2 0x410 CALLDATASIZE PUSH1 0x4 PUSH2 0x60B7 JUMP JUMPDEST PUSH2 0x1147 JUMP JUMPDEST PUSH1 0x2 SLOAD PUSH25 0x1000000000000000000000000000000000000000000000000 SWAP1 DIV PUSH1 0xFF AND PUSH1 0x40 MLOAD PUSH1 0xFF SWAP1 SWAP2 AND DUP2 MSTORE PUSH1 0x20 ADD PUSH2 0x324 JUMP JUMPDEST PUSH2 0x387 PUSH2 0x457 CALLDATASIZE PUSH1 0x4 PUSH2 0x6129 JUMP JUMPDEST PUSH2 0x124B JUMP JUMPDEST PUSH2 0x387 PUSH2 0x46A CALLDATASIZE PUSH1 0x4 PUSH2 0x5E94 JUMP JUMPDEST PUSH2 0x1453 JUMP JUMPDEST PUSH2 0x482 PUSH2 0x47D CALLDATASIZE PUSH1 0x4 PUSH2 0x5E94 JUMP JUMPDEST PUSH2 0x148A JUMP JUMPDEST STOP JUMPDEST PUSH2 0x387 PUSH2 0x492 CALLDATASIZE PUSH1 0x4 PUSH2 0x5E94 JUMP JUMPDEST PUSH2 0x1543 JUMP JUMPDEST PUSH2 0x3AE PUSH2 0x4A5 CALLDATASIZE PUSH1 0x4 PUSH2 0x5E94 JUMP JUMPDEST PUSH1 0x1 PUSH1 0x1 PUSH1 0xA0 SHL SUB AND PUSH1 0x0 SWAP1 DUP2 MSTORE PUSH1 0x7 PUSH1 0x20 MSTORE PUSH1 0x40 SWAP1 KECCAK256 PUSH1 0x3 DUP2 ADD SLOAD PUSH1 0x1 SWAP1 SWAP2 ADD SLOAD SUB SWAP1 JUMP JUMPDEST PUSH2 0x3AE PUSH2 0x4D9 CALLDATASIZE PUSH1 0x4 PUSH2 0x5E94 JUMP JUMPDEST PUSH1 0x1 PUSH1 0x1 PUSH1 0xA0 SHL SUB AND PUSH1 0x0 SWAP1 DUP2 MSTORE PUSH1 0x7 PUSH1 0x20 MSTORE PUSH1 0x40 SWAP1 KECCAK256 PUSH1 0x2 ADD SLOAD SWAP1 JUMP JUMPDEST PUSH2 0x387 PUSH2 0x505 CALLDATASIZE PUSH1 0x4 PUSH2 0x6049 JUMP JUMPDEST PUSH2 0x1646 JUMP JUMPDEST PUSH2 0x387 PUSH2 0x518 CALLDATASIZE PUSH1 0x4 PUSH2 0x6165 JUMP JUMPDEST PUSH2 0x174D JUMP JUMPDEST PUSH2 0x387 PUSH2 0x52B CALLDATASIZE PUSH1 0x4 PUSH2 0x5EB1 JUMP JUMPDEST PUSH2 0x17DC JUMP JUMPDEST PUSH2 0x3AE PUSH2 0x53E CALLDATASIZE PUSH1 0x4 PUSH2 0x5E94 JUMP JUMPDEST PUSH2 0x1C39 JUMP JUMPDEST PUSH2 0x482 PUSH2 0x1C82 JUMP JUMPDEST PUSH2 0x387 PUSH2 0x559 CALLDATASIZE PUSH1 0x4 PUSH2 0x618B JUMP JUMPDEST PUSH2 0x1C96 JUMP JUMPDEST PUSH2 0x3AE PUSH2 0x56C CALLDATASIZE PUSH1 0x4 PUSH2 0x5E94 JUMP JUMPDEST PUSH2 0x215C JUMP JUMPDEST PUSH2 0x387 PUSH2 0x57F CALLDATASIZE PUSH1 0x4 PUSH2 0x5EB1 JUMP JUMPDEST PUSH2 0x21B3 JUMP JUMPDEST PUSH2 0x387 PUSH2 0x592 CALLDATASIZE PUSH1 0x4 PUSH2 0x6165 JUMP JUMPDEST PUSH2 0x2248 JUMP JUMPDEST PUSH1 0x0 SLOAD PUSH1 0x1 PUSH1 0x1 PUSH1 0xA0 SHL SUB AND PUSH2 0x35C JUMP JUMPDEST PUSH2 0x387 PUSH2 0x5B6 CALLDATASIZE PUSH1 0x4 PUSH2 0x5E94 JUMP JUMPDEST PUSH2 0x22D7 JUMP JUMPDEST PUSH2 0x317 PUSH2 0x259A JUMP JUMPDEST PUSH2 0x387 PUSH2 0x5D1 CALLDATASIZE PUSH1 0x4 PUSH2 0x5E94 JUMP JUMPDEST PUSH2 0x25DD JUMP JUMPDEST PUSH2 0x482 PUSH2 0x5E4 CALLDATASIZE PUSH1 0x4 PUSH2 0x5E94 JUMP JUMPDEST PUSH2 0x29E1 JUMP JUMPDEST PUSH2 0x387 PUSH2 0x5F7 CALLDATASIZE PUSH1 0x4 PUSH2 0x5E94 JUMP JUMPDEST PUSH1 0x1 PUSH1 0x1 PUSH1 0xA0 SHL SUB AND PUSH1 0x0 SWAP1 DUP2 MSTORE PUSH1 0x9 PUSH1 0x20 MSTORE PUSH1 0x40 SWAP1 KECCAK256 SLOAD PUSH1 0xFF AND SWAP1 JUMP JUMPDEST PUSH2 0x387 PUSH2 0x623 CALLDATASIZE PUSH1 0x4 PUSH2 0x5E94 JUMP JUMPDEST PUSH1 0x1 PUSH1 0x1 PUSH1 0xA0 SHL SUB AND PUSH1 0x0 SWAP1 DUP2 MSTORE PUSH1 0x7 PUSH1 0x20 MSTORE PUSH1 0x40 SWAP1 KECCAK256 SLOAD PUSH2 0x100 SWAP1 DIV PUSH1 0xFF AND SWAP1 JUMP JUMPDEST PUSH2 0x387 PUSH2 0x654 CALLDATASIZE PUSH1 0x4 PUSH2 0x5E94 JUMP JUMPDEST PUSH2 0x2B4F JUMP JUMPDEST PUSH2 0x387 PUSH2 0x667 CALLDATASIZE PUSH1 0x4 PUSH2 0x61E4 JUMP JUMPDEST PUSH2 0x2DA9 JUMP JUMPDEST PUSH2 0x387 PUSH2 0x67A CALLDATASIZE PUSH1 0x4 PUSH2 0x6218 JUMP JUMPDEST PUSH2 0x2FEF JUMP JUMPDEST PUSH2 0x706 PUSH2 0x68D CALLDATASIZE PUSH1 0x4 PUSH2 0x5E94 JUMP JUMPDEST PUSH1 0x40 DUP1 MLOAD PUSH1 0x80 DUP1 DUP3 ADD DUP4 MSTORE PUSH1 0x0 DUP1 DUP4 MSTORE PUSH1 0x20 DUP1 DUP5 ADD DUP3 SWAP1 MSTORE DUP4 DUP6 ADD DUP3 SWAP1 MSTORE PUSH1 0x60 SWAP4 DUP5 ADD DUP3 SWAP1 MSTORE PUSH1 0x1 PUSH1 0x1 PUSH1 0xA0 SHL SUB SWAP6 DUP7 AND DUP3 MSTORE PUSH1 0x9 DUP2 MSTORE SWAP1 DUP5 SWAP1 KECCAK256 DUP5 MLOAD SWAP3 DUP4 ADD DUP6 MSTORE DUP1 SLOAD PUSH1 0xFF DUP2 AND ISZERO ISZERO DUP5 MSTORE PUSH2 0x100 SWAP1 DIV DUP7 AND SWAP2 DUP4 ADD SWAP2 SWAP1 SWAP2 MSTORE PUSH1 0x1 DUP2 ADD SLOAD SWAP1 SWAP5 AND SWAP3 DUP2 ADD SWAP3 SWAP1 SWAP3 MSTORE PUSH1 0x2 SWAP1 SWAP3 ADD SLOAD SWAP2 DUP2 ADD SWAP2 SWAP1 SWAP2 MSTORE SWAP1 JUMP JUMPDEST PUSH1 0x40 DUP1 MLOAD DUP3 MLOAD ISZERO ISZERO DUP2 MSTORE PUSH1 0x20 DUP1 DUP5 ADD MLOAD PUSH1 0x1 PUSH1 0x1 PUSH1 0xA0 SHL SUB SWAP1 DUP2 AND SWAP2 DUP4 ADD SWAP2 SWAP1 SWAP2 MSTORE DUP4 DUP4 ADD MLOAD AND SWAP2 DUP2 ADD SWAP2 SWAP1 SWAP2 MSTORE PUSH1 0x60 SWAP2 DUP3 ADD MLOAD SWAP2 DUP2 ADD SWAP2 SWAP1 SWAP2 MSTORE PUSH1 0x80 ADD PUSH2 0x324 JUMP JUMPDEST PUSH2 0x75C PUSH2 0x757 CALLDATASIZE PUSH1 0x4 PUSH2 0x6165 JUMP JUMPDEST PUSH2 0x3224 JUMP JUMPDEST PUSH1 0x40 MLOAD PUSH2 0x324 SWAP2 SWAP1 PUSH2 0x6264 JUMP JUMPDEST PUSH2 0x387 PUSH2 0x777 CALLDATASIZE PUSH1 0x4 PUSH2 0x6309 JUMP JUMPDEST PUSH2 0x343B JUMP JUMPDEST PUSH2 0x387 PUSH2 0x78A CALLDATASIZE PUSH1 0x4 PUSH2 0x634C JUMP JUMPDEST PUSH2 0x34F4 JUMP JUMPDEST PUSH1 0x2 SLOAD PUSH12 0x10000000000000000000000 DUP2 DIV PUSH1 0xD8 SWAP1 DUP2 SHL SWAP2 PUSH17 0x100000000000000000000000000000000 SWAP1 DIV SWAP1 SHL PUSH1 0x40 DUP1 MLOAD PUSH32 0xFFFFFFFFFF000000000000000000000000000000000000000000000000000000 SWAP4 DUP5 AND DUP2 MSTORE SWAP3 SWAP1 SWAP2 AND PUSH1 0x20 DUP4 ADD MSTORE ADD PUSH2 0x324 JUMP JUMPDEST PUSH2 0x82B PUSH2 0x804 CALLDATASIZE PUSH1 0x4 PUSH2 0x5E94 JUMP JUMPDEST PUSH1 0x1 PUSH1 0x1 PUSH1 0xA0 SHL SUB AND PUSH1 0x0 SWAP1 DUP2 MSTORE PUSH1 0x7 PUSH1 0x20 MSTORE PUSH1 0x40 SWAP1 KECCAK256 SLOAD PUSH3 0x10000 SWAP1 DIV PUSH4 0xFFFFFFFF AND SWAP1 JUMP JUMPDEST PUSH1 0x40 MLOAD PUSH4 0xFFFFFFFF SWAP1 SWAP2 AND DUP2 MSTORE PUSH1 0x20 ADD PUSH2 0x324 JUMP JUMPDEST PUSH2 0x482 PUSH2 0x84E CALLDATASIZE PUSH1 0x4 PUSH2 0x5E94 JUMP JUMPDEST PUSH2 0x3862 JUMP JUMPDEST PUSH2 0x387 PUSH2 0x861 CALLDATASIZE PUSH1 0x4 PUSH2 0x5E94 JUMP JUMPDEST PUSH1 0x1 PUSH1 0x1 PUSH1 0xA0 SHL SUB AND PUSH1 0x0 SWAP1 DUP2 MSTORE PUSH1 0x7 PUSH1 0x20 MSTORE PUSH1 0x40 SWAP1 KECCAK256 SLOAD PUSH1 0xFF AND SWAP1 JUMP JUMPDEST PUSH2 0x317 PUSH2 0x88D CALLDATASIZE PUSH1 0x4 PUSH2 0x5E94 JUMP JUMPDEST PUSH2 0x38F2 JUMP JUMPDEST PUSH2 0x482 PUSH2 0x8A0 CALLDATASIZE PUSH1 0x4 PUSH2 0x5E94 JUMP JUMPDEST PUSH2 0x3CFD JUMP JUMPDEST PUSH2 0x387 PUSH2 0x8B3 CALLDATASIZE PUSH1 0x4 PUSH2 0x6049 JUMP JUMPDEST PUSH2 0x3E60 JUMP JUMPDEST PUSH1 0x2 SLOAD PUSH1 0x40 MLOAD PUSH1 0xA8 SWAP2 SWAP1 SWAP2 SHL PUSH1 0x1 PUSH1 0x1 PUSH1 0xA8 SHL SUB NOT AND PUSH1 0x20 DUP3 ADD MSTORE PUSH1 0x60 SWAP1 PUSH1 0x2B ADD JUMPDEST PUSH1 0x40 MLOAD PUSH1 0x20 DUP2 DUP4 SUB SUB DUP2 MSTORE SWAP1 PUSH1 0x40 MSTORE SWAP1 POP SWAP1 JUMP JUMPDEST PUSH1 0x0 PUSH1 0x1 PUSH1 0x1 PUSH1 0xA0 SHL SUB DUP3 AND PUSH2 0x971 JUMPI PUSH1 0x40 MLOAD PUSH3 0x461BCD PUSH1 0xE5 SHL DUP2 MSTORE PUSH1 0x20 PUSH1 0x4 DUP3 ADD MSTORE PUSH1 0x21 PUSH1 0x24 DUP3 ADD MSTORE PUSH32 0x536F433A2043616E6E6F7420746F67676C652061206E756C6C206163636F756E PUSH1 0x44 DUP3 ADD MSTORE PUSH32 0x7400000000000000000000000000000000000000000000000000000000000000 PUSH1 0x64 DUP3 ADD MSTORE PUSH1 0x84 ADD JUMPDEST PUSH1 0x40 MLOAD DUP1 SWAP2 SUB SWAP1 REVERT JUMPDEST PUSH1 0x1 PUSH1 0x1 PUSH1 0xA0 SHL SUB DUP3 AND PUSH1 0x0 SWAP1 DUP2 MSTORE PUSH1 0x7 PUSH1 0x20 MSTORE PUSH1 0x40 SWAP1 KECCAK256 DUP1 SLOAD PUSH1 0xFF AND PUSH2 0xA00 JUMPI PUSH1 0x40 MLOAD PUSH3 0x461BCD PUSH1 0xE5 SHL DUP2 MSTORE PUSH1 0x20 PUSH1 0x4 DUP3 ADD MSTORE PUSH1 0x2A PUSH1 0x24 DUP3 ADD MSTORE PUSH32 0x536F433A2043616E6E6F7420746F67676C6520616E20756E7265676973746572 PUSH1 0x44 DUP3 ADD MSTORE PUSH32 0x6564206163636F756E7400000000000000000000000000000000000000000000 PUSH1 0x64 DUP3 ADD MSTORE PUSH1 0x84 ADD PUSH2 0x968 JUMP JUMPDEST DUP1 SLOAD PUSH1 0xFF PUSH2 0x100 DUP1 DUP4 DIV DUP3 AND ISZERO DUP2 MUL PUSH32 0xFFFFFFFFFFFFFFFFFFFFFFFFFFFFFFFFFFFFFFFFFFFFFFFFFFFFFFFFFFFF00FF SWAP1 SWAP4 AND SWAP3 SWAP1 SWAP3 OR DUP1 DUP5 SSTORE PUSH1 0x40 MLOAD SWAP3 SWAP1 DIV AND ISZERO ISZERO DUP2 MSTORE PUSH1 0x1 PUSH1 0x1 PUSH1 0xA0 SHL SUB DUP5 AND SWAP1 PUSH32 0xE9F66121638D3451750BEF8F65A4FC027B5ABDDFF38717C75278B1114A68C327 SWAP1 PUSH1 0x20 ADD PUSH1 0x40 MLOAD DUP1 SWAP2 SUB SWAP1 LOG2 SLOAD PUSH2 0x100 SWAP1 DIV PUSH1 0xFF AND SWAP3 SWAP2 POP POP JUMP JUMPDEST PUSH1 0x0 DUP1 SLOAD PUSH1 0x1 PUSH1 0x1 PUSH1 0xA0 SHL SUB AND CALLER EQ DUP1 PUSH2 0xAB5 JUMPI POP CALLER PUSH1 0x0 SWAP1 DUP2 MSTORE PUSH1 0x1 PUSH1 0x20 MSTORE PUSH1 0x40 SWAP1 KECCAK256 SLOAD PUSH1 0xFF AND JUMPDEST PUSH2 0xB17 JUMPI PUSH1 0x40 MLOAD PUSH3 0x461BCD PUSH1 0xE5 SHL DUP2 MSTORE PUSH1 0x20 PUSH1 0x4 DUP3 ADD MSTORE PUSH1 0x2D PUSH1 0x24 DUP3 ADD MSTORE PUSH32 0x574C533A2043616C6C6572206E6F7420616C6C6F77656420746F20706572666F PUSH1 0x44 DUP3 ADD MSTORE PUSH13 0x3936903A34329030B1BA34B7B7 PUSH1 0x99 SHL PUSH1 0x64 DUP3 ADD MSTORE PUSH1 0x84 ADD PUSH2 0x968 JUMP JUMPDEST PUSH2 0xB21 DUP4 DUP4 PUSH2 0x4304 JUMP JUMPDEST SWAP1 POP JUMPDEST SWAP3 SWAP2 POP POP JUMP JUMPDEST PUSH1 0x6 SLOAD PUSH1 0x40 MLOAD PUSH32 0xB7F25BFE00000000000000000000000000000000000000000000000000000000 DUP2 MSTORE PUSH1 0x0 SWAP2 DUP3 SWAP2 DUP3 SWAP2 DUP3 SWAP2 DUP3 SWAP2 DUP3 SWAP2 PUSH1 0x1 PUSH1 0x1 PUSH1 0xA0 SHL SUB SWAP1 SWAP2 AND SWAP1 PUSH4 0xB7F25BFE SWAP1 PUSH2 0xB80 SWAP1 DUP11 SWAP1 PUSH1 0x4 ADD PUSH2 0x5E46 JUMP JUMPDEST PUSH1 0x0 PUSH1 0x40 MLOAD DUP1 DUP4 SUB DUP2 DUP7 GAS STATICCALL ISZERO DUP1 ISZERO PUSH2 0xB9D JUMPI RETURNDATASIZE PUSH1 0x0 DUP1 RETURNDATACOPY RETURNDATASIZE PUSH1 0x0 REVERT JUMPDEST POP POP POP POP PUSH1 0x40 MLOAD RETURNDATASIZE PUSH1 0x0 DUP3 RETURNDATACOPY PUSH1 0x1F RETURNDATASIZE SWAP1 DUP2 ADD PUSH1 0x1F NOT AND DUP3 ADD PUSH1 0x40 MSTORE PUSH2 0xBC5 SWAP2 SWAP1 DUP2 ADD SWAP1 PUSH2 0x63EC JUMP JUMPDEST POP SWAP4 POP SWAP4 POP SWAP4 POP SWAP4 POP DUP4 PUSH2 0xC1B JUMPI PUSH1 0x40 MLOAD PUSH3 0x461BCD PUSH1 0xE5 SHL DUP2 MSTORE PUSH1 0x20 PUSH1 0x4 DUP3 ADD MSTORE PUSH1 0x11 PUSH1 0x24 DUP3 ADD MSTORE PUSH32 0x536F433A20496E76616C6964204942414E000000000000000000000000000000 PUSH1 0x44 DUP3 ADD MSTORE PUSH1 0x64 ADD PUSH2 0x968 JUMP JUMPDEST PUSH1 0x40 DUP1 MLOAD PUSH1 0x3 DUP1 DUP3 MSTORE DUP2 DUP4 ADD SWAP1 SWAP3 MSTORE PUSH1 0x0 SWAP2 PUSH1 0x20 DUP3 ADD DUP2 DUP1 CALLDATASIZE DUP4 CALLDATACOPY ADD SWAP1 POP POP SWAP1 POP PUSH1 0x0 JUMPDEST PUSH1 0x3 DUP2 LT ISZERO PUSH2 0xCB8 JUMPI DUP3 DUP2 DUP2 MLOAD DUP2 LT PUSH2 0xC5A JUMPI PUSH2 0xC5A PUSH2 0x64A1 JUMP JUMPDEST PUSH1 0x20 ADD ADD MLOAD PUSH1 0xF8 SHR PUSH1 0xF8 SHL DUP3 DUP3 DUP2 MLOAD DUP2 LT PUSH2 0xC77 JUMPI PUSH2 0xC77 PUSH2 0x64A1 JUMP JUMPDEST PUSH1 0x20 ADD ADD SWAP1 PUSH31 0xFFFFFFFFFFFFFFFFFFFFFFFFFFFFFFFFFFFFFFFFFFFFFFFFFFFFFFFFFFFFFF NOT AND SWAP1 DUP2 PUSH1 0x0 BYTE SWAP1 MSTORE8 POP DUP1 PUSH2 0xCB0 DUP2 PUSH2 0x64CD JUMP JUMPDEST SWAP2 POP POP PUSH2 0xC3F JUMP JUMPDEST POP PUSH1 0x2 SLOAD PUSH1 0x40 MLOAD PUSH1 0x1 PUSH1 0xA8 SHL SWAP1 SWAP2 DIV PUSH1 0xE8 SHL PUSH32 0xFFFFFF0000000000000000000000000000000000000000000000000000000000 AND PUSH1 0x20 DUP3 ADD MSTORE PUSH2 0xD0F SWAP1 DUP3 SWAP1 PUSH1 0x23 ADD JUMPDEST PUSH1 0x40 MLOAD PUSH1 0x20 DUP2 DUP4 SUB SUB DUP2 MSTORE SWAP1 PUSH1 0x40 MSTORE PUSH2 0x4413 JUMP JUMPDEST PUSH2 0xD5B JUMPI PUSH1 0x40 MLOAD PUSH3 0x461BCD PUSH1 0xE5 SHL DUP2 MSTORE PUSH1 0x20 PUSH1 0x4 DUP3 ADD MSTORE PUSH1 0x16 PUSH1 0x24 DUP3 ADD MSTORE PUSH32 0x536F433A2043757272656E6379206D69736D6174636800000000000000000000 PUSH1 0x44 DUP3 ADD MSTORE PUSH1 0x64 ADD PUSH2 0x968 JUMP JUMPDEST PUSH1 0x40 DUP1 MLOAD PUSH1 0x8 DUP1 DUP3 MSTORE DUP2 DUP4 ADD SWAP1 SWAP3 MSTORE PUSH1 0x0 SWAP2 PUSH1 0x20 DUP3 ADD DUP2 DUP1 CALLDATASIZE DUP4 CALLDATACOPY ADD SWAP1 POP POP SWAP1 POP PUSH1 0x3 JUMPDEST PUSH1 0xB DUP2 LT ISZERO PUSH2 0xE1E JUMPI DUP4 DUP2 DUP2 MLOAD DUP2 LT PUSH2 0xD9A JUMPI PUSH2 0xD9A PUSH2 0x64A1 JUMP JUMPDEST ADD PUSH1 0x20 ADD MLOAD PUSH32 0xFF00000000000000000000000000000000000000000000000000000000000000 AND DUP3 PUSH2 0xDCD PUSH1 0x3 DUP5 PUSH2 0x64E7 JUMP JUMPDEST DUP2 MLOAD DUP2 LT PUSH2 0xDDD JUMPI PUSH2 0xDDD PUSH2 0x64A1 JUMP JUMPDEST PUSH1 0x20 ADD ADD SWAP1 PUSH31 0xFFFFFFFFFFFFFFFFFFFFFFFFFFFFFFFFFFFFFFFFFFFFFFFFFFFFFFFFFFFFFF NOT AND SWAP1 DUP2 PUSH1 0x0 BYTE SWAP1 MSTORE8 POP DUP1 PUSH2 0xE16 DUP2 PUSH2 0x64CD JUMP JUMPDEST SWAP2 POP POP PUSH2 0xD7F JUMP JUMPDEST POP PUSH1 0x6 SLOAD PUSH1 0x40 MLOAD PUSH1 0x0 SWAP2 PUSH1 0x1 PUSH1 0x1 PUSH1 0xA0 SHL SUB AND SWAP1 PUSH4 0xFA09EAE1 SWAP1 PUSH2 0xE46 SWAP1 DUP6 SWAP1 PUSH1 0x20 ADD PUSH2 0x64FA JUMP JUMPDEST PUSH1 0x40 MLOAD PUSH1 0x20 DUP2 DUP4 SUB SUB DUP2 MSTORE SWAP1 PUSH1 0x40 MSTORE PUSH1 0x40 MLOAD DUP3 PUSH4 0xFFFFFFFF AND PUSH1 0xE0 SHL DUP2 MSTORE PUSH1 0x4 ADD PUSH2 0xE71 SWAP2 SWAP1 PUSH2 0x5E46 JUMP JUMPDEST PUSH1 0x20 PUSH1 0x40 MLOAD DUP1 DUP4 SUB DUP2 DUP7 GAS STATICCALL ISZERO DUP1 ISZERO PUSH2 0xE8E JUMPI RETURNDATASIZE PUSH1 0x0 DUP1 RETURNDATACOPY RETURNDATASIZE PUSH1 0x0 REVERT JUMPDEST POP POP POP POP PUSH1 0x40 MLOAD RETURNDATASIZE PUSH1 0x1F NOT PUSH1 0x1F DUP3 ADD AND DUP3 ADD DUP1 PUSH1 0x40 MSTORE POP DUP2 ADD SWAP1 PUSH2 0xEB2 SWAP2 SWAP1 PUSH2 0x6516 JUMP JUMPDEST SWAP1 POP PUSH1 0x0 PUSH2 0xEBF DUP8 PUSH2 0x652F JUMP JUMPDEST SWAP1 POP PUSH1 0x0 PUSH2 0xECC DUP8 PUSH2 0x652F JUMP JUMPDEST PUSH32 0xFFFFFFFFFF000000000000000000000000000000000000000000000000000000 DUP4 DUP2 AND PUSH1 0x0 SWAP1 DUP2 MSTORE PUSH1 0xA PUSH1 0x20 SWAP1 DUP2 MSTORE PUSH1 0x40 DUP1 DUP4 KECCAK256 SWAP4 DUP6 AND DUP4 MSTORE SWAP3 SWAP1 MSTORE KECCAK256 SLOAD PUSH1 0x1 PUSH1 0x1 PUSH1 0xA0 SHL SUB AND SWAP12 POP SWAP1 POP DUP11 ISZERO PUSH2 0xFF6 JUMPI ADDRESS PUSH1 0x1 PUSH1 0x1 PUSH1 0xA0 SHL SUB DUP13 AND SUB PUSH2 0xF5F JUMPI POP POP PUSH4 0xFFFFFFFF AND PUSH1 0x0 SWAP1 DUP2 MSTORE PUSH1 0x8 PUSH1 0x20 MSTORE PUSH1 0x40 SWAP1 KECCAK256 SLOAD ADDRESS SWAP11 PUSH1 0x1 PUSH1 0x1 PUSH1 0xA0 SHL SUB SWAP1 SWAP2 AND SWAP10 POP SWAP8 POP POP POP POP POP POP POP POP JUMP JUMPDEST PUSH1 0x40 MLOAD PUSH32 0x9FB37FC00000000000000000000000000000000000000000000000000000000 DUP2 MSTORE PUSH4 0xFFFFFFFF DUP5 AND PUSH1 0x4 DUP3 ADD MSTORE PUSH1 0x1 PUSH1 0x1 PUSH1 0xA0 SHL SUB DUP13 AND SWAP1 PUSH4 0x9FB37FC SWAP1 PUSH1 0x24 ADD PUSH1 0x20 PUSH1 0x40 MLOAD DUP1 DUP4 SUB DUP2 DUP7 GAS STATICCALL ISZERO DUP1 ISZERO PUSH2 0xFC2 JUMPI RETURNDATASIZE PUSH1 0x0 DUP1 RETURNDATACOPY RETURNDATASIZE PUSH1 0x0 REVERT JUMPDEST POP POP POP POP PUSH1 0x40 MLOAD RETURNDATASIZE PUSH1 0x1F NOT PUSH1 0x1F DUP3 ADD AND DUP3 ADD DUP1 PUSH1 0x40 MSTORE POP DUP2 ADD SWAP1 PUSH2 0xFE6 SWAP2 SWAP1 PUSH2 0x655E JUMP JUMPDEST SWAP10 POP POP POP POP POP POP POP POP POP POP SWAP2 POP SWAP2 JUMP JUMPDEST POP PUSH1 0x0 SWAP12 DUP13 SWAP12 POP SWAP10 POP POP POP POP POP POP POP POP POP POP JUMP JUMPDEST PUSH1 0x0 DUP1 SLOAD PUSH1 0x1 PUSH1 0x1 PUSH1 0xA0 SHL SUB AND CALLER EQ DUP1 PUSH2 0x1033 JUMPI POP CALLER PUSH1 0x0 SWAP1 DUP2 MSTORE PUSH1 0x1 PUSH1 0x20 MSTORE PUSH1 0x40 SWAP1 KECCAK256 SLOAD PUSH1 0xFF AND JUMPDEST PUSH2 0x1095 JUMPI PUSH1 0x40 MLOAD PUSH3 0x461BCD PUSH1 0xE5 SHL DUP2 MSTORE PUSH1 0x20 PUSH1 0x4 DUP3 ADD MSTORE PUSH1 0x2D PUSH1 0x24 DUP3 ADD MSTORE PUSH32 0x574C533A2043616C6C6572206E6F7420616C6C6F77656420746F20706572666F PUSH1 0x44 DUP3 ADD MSTORE PUSH13 0x3936903A34329030B1BA34B7B7 PUSH1 0x99 SHL PUSH1 0x64 DUP3 ADD MSTORE PUSH1 0x84 ADD PUSH2 0x968 JUMP JUMPDEST PUSH1 0x0 PUSH2 0x111C PUSH1 0x0 PUSH1 0x40 MLOAD DUP1 PUSH1 0x60 ADD PUSH1 0x40 MSTORE DUP1 DUP10 PUSH1 0x1 PUSH1 0x1 PUSH1 0xA0 SHL SUB AND DUP2 MSTORE PUSH1 0x20 ADD PUSH1 0x0 PUSH1 0xA8 SHL PUSH21 0xFFFFFFFFFFFFFFFFFFFFFFFFFFFFFFFFFFFFFFFFFF NOT AND DUP2 MSTORE PUSH1 0x20 ADD PUSH1 0x0 DUP1 SHL DUP2 MSTORE POP DUP8 DUP8 DUP8 DUP1 DUP1 PUSH1 0x1F ADD PUSH1 0x20 DUP1 SWAP2 DIV MUL PUSH1 0x20 ADD PUSH1 0x40 MLOAD SWAP1 DUP2 ADD PUSH1 0x40 MSTORE DUP1 SWAP4 SWAP3 SWAP2 SWAP1 DUP2 DUP2 MSTORE PUSH1 0x20 ADD DUP4 DUP4 DUP1 DUP3 DUP5 CALLDATACOPY PUSH1 0x0 SWAP3 ADD SWAP2 SWAP1 SWAP2 MSTORE POP PUSH2 0x441F SWAP3 POP POP POP JUMP JUMPDEST SWAP1 POP PUSH1 0x0 PUSH2 0x112B DUP8 DUP8 DUP5 PUSH2 0x4583 JUMP JUMPDEST SWAP1 POP PUSH2 0x113A DUP8 DUP8 PUSH1 0x1 DUP6 PUSH2 0x46E8 JUMP JUMPDEST POP SWAP2 POP POP JUMPDEST SWAP5 SWAP4 POP POP POP POP JUMP JUMPDEST PUSH1 0x0 DUP1 SLOAD PUSH1 0x1 PUSH1 0x1 PUSH1 0xA0 SHL SUB AND CALLER EQ DUP1 PUSH2 0x1170 JUMPI POP CALLER PUSH1 0x0 SWAP1 DUP2 MSTORE PUSH1 0x1 PUSH1 0x20 MSTORE PUSH1 0x40 SWAP1 KECCAK256 SLOAD PUSH1 0xFF AND JUMPDEST PUSH2 0x11D2 JUMPI PUSH1 0x40 MLOAD PUSH3 0x461BCD PUSH1 0xE5 SHL DUP2 MSTORE PUSH1 0x20 PUSH1 0x4 DUP3 ADD MSTORE PUSH1 0x2D PUSH1 0x24 DUP3 ADD MSTORE PUSH32 0x574C533A2043616C6C6572206E6F7420616C6C6F77656420746F20706572666F PUSH1 0x44 DUP3 ADD MSTORE PUSH13 0x3936903A34329030B1BA34B7B7 PUSH1 0x99 SHL PUSH1 0x64 DUP3 ADD MSTORE PUSH1 0x84 ADD PUSH2 0x968 JUMP JUMPDEST PUSH1 0x0 PUSH2 0x1224 DUP8 PUSH2 0x11E7 CALLDATASIZE DUP10 SWAP1 SUB DUP10 ADD DUP10 PUSH2 0x6591 JUMP JUMPDEST DUP8 DUP8 DUP8 DUP1 DUP1 PUSH1 0x1F ADD PUSH1 0x20 DUP1 SWAP2 DIV MUL PUSH1 0x20 ADD PUSH1 0x40 MLOAD SWAP1 DUP2 ADD PUSH1 0x40 MSTORE DUP1 SWAP4 SWAP3 SWAP2 SWAP1 DUP2 DUP2 MSTORE PUSH1 0x20 ADD DUP4 DUP4 DUP1 DUP3 DUP5 CALLDATACOPY PUSH1 0x0 SWAP3 ADD SWAP2 SWAP1 SWAP2 MSTORE POP PUSH2 0x441F SWAP3 POP POP POP JUMP JUMPDEST SWAP1 POP PUSH2 0x1240 DUP8 PUSH2 0x1239 CALLDATASIZE DUP10 SWAP1 SUB DUP10 ADD DUP10 PUSH2 0x6591 JUMP JUMPDEST DUP8 DUP5 PUSH2 0x47CF JUMP JUMPDEST SWAP8 SWAP7 POP POP POP POP POP POP POP JUMP JUMPDEST CALLER PUSH1 0x0 SWAP1 DUP2 MSTORE PUSH1 0x9 PUSH1 0x20 MSTORE PUSH1 0x40 DUP2 KECCAK256 PUSH1 0x1 DUP2 ADD SLOAD DUP3 SWAP1 PUSH1 0x1 PUSH1 0x1 PUSH1 0xA0 SHL SUB AND PUSH1 0x1 PUSH1 0x1 PUSH1 0xA0 SHL SUB AND PUSH4 0xB69EF8A8 PUSH1 0x40 MLOAD DUP2 PUSH4 0xFFFFFFFF AND PUSH1 0xE0 SHL DUP2 MSTORE PUSH1 0x4 ADD PUSH1 0x20 PUSH1 0x40 MLOAD DUP1 DUP4 SUB DUP2 DUP7 GAS STATICCALL ISZERO DUP1 ISZERO PUSH2 0x12A7 JUMPI RETURNDATASIZE PUSH1 0x0 DUP1 RETURNDATACOPY RETURNDATASIZE PUSH1 0x0 REVERT JUMPDEST POP POP POP POP PUSH1 0x40 MLOAD RETURNDATASIZE PUSH1 0x1F NOT PUSH1 0x1F DUP3 ADD AND DUP3 ADD DUP1 PUSH1 0x40 MSTORE POP DUP2 ADD SWAP1 PUSH2 0x12CB SWAP2 SWAP1 PUSH2 0x6516 JUMP JUMPDEST SWAP1 POP PUSH1 0x1 DUP6 PUSH1 0x1 DUP2 GT ISZERO PUSH2 0x12E1 JUMPI PUSH2 0x12E1 PUSH2 0x623A JUMP JUMPDEST SUB PUSH2 0x136F JUMPI DUP1 DUP7 DUP4 PUSH1 0x2 ADD SLOAD PUSH2 0x12F7 SWAP2 SWAP1 PUSH2 0x65FC JUMP JUMPDEST EQ PUSH2 0x136A JUMPI PUSH1 0x40 MLOAD PUSH3 0x461BCD PUSH1 0xE5 SHL DUP2 MSTORE PUSH1 0x20 PUSH1 0x4 DUP3 ADD MSTORE PUSH1 0x39 PUSH1 0x24 DUP3 ADD MSTORE PUSH32 0x536F433A204F7572206E6F7374726F20686173206E6F74206265656E20637265 PUSH1 0x44 DUP3 ADD MSTORE PUSH32 0x6469746564206163636F7264696E6720746F2061647669636500000000000000 PUSH1 0x64 DUP3 ADD MSTORE PUSH1 0x84 ADD PUSH2 0x968 JUMP JUMPDEST PUSH2 0x13F1 JUMP JUMPDEST PUSH2 0x1379 DUP7 DUP3 PUSH2 0x65FC JUMP JUMPDEST DUP3 PUSH1 0x2 ADD SLOAD EQ PUSH2 0x13F1 JUMPI PUSH1 0x40 MLOAD PUSH3 0x461BCD PUSH1 0xE5 SHL DUP2 MSTORE PUSH1 0x20 PUSH1 0x4 DUP3 ADD MSTORE PUSH1 0x38 PUSH1 0x24 DUP3 ADD MSTORE PUSH32 0x536F433A204F7572206E6F7374726F20686173206E6F74206265656E20646562 PUSH1 0x44 DUP3 ADD MSTORE PUSH32 0x69746564206163636F7264696E6720746F206164766963650000000000000000 PUSH1 0x64 DUP3 ADD MSTORE PUSH1 0x84 ADD PUSH2 0x968 JUMP JUMPDEST PUSH1 0x2 DUP3 ADD DUP2 SWAP1 SSTORE PUSH1 0x1 DUP3 ADD SLOAD PUSH1 0x40 MLOAD DUP6 SWAP2 PUSH1 0x1 PUSH1 0x1 PUSH1 0xA0 SHL SUB AND SWAP1 ADDRESS SWAP1 PUSH32 0xBD48F312CF1E5F1936AEBAC461F5A9645D41A2D9E3A8C5A9C38C31E18A3C25A8 SWAP1 PUSH2 0x143D SWAP1 DUP12 SWAP1 DUP12 SWAP1 PUSH2 0x661F JUMP JUMPDEST PUSH1 0x40 MLOAD DUP1 SWAP2 SUB SWAP1 LOG4 PUSH1 0x1 SWAP3 POP POP POP JUMPDEST SWAP4 SWAP3 POP POP POP JUMP JUMPDEST PUSH1 0x0 DUP1 SLOAD PUSH1 0x1 PUSH1 0x1 PUSH1 0xA0 SHL SUB DUP4 DUP2 AND SWAP2 AND EQ DUP1 PUSH2 0xB24 JUMPI POP POP PUSH1 0x1 PUSH1 0x1 PUSH1 0xA0 SHL SUB AND PUSH1 0x0 SWAP1 DUP2 MSTORE PUSH1 0x1 PUSH1 0x20 MSTORE PUSH1 0x40 SWAP1 KECCAK256 SLOAD PUSH1 0xFF AND SWAP1 JUMP JUMPDEST PUSH1 0x0 SLOAD PUSH1 0x1 PUSH1 0x1 PUSH1 0xA0 SHL SUB AND CALLER EQ DUP1 PUSH2 0x14B2 JUMPI POP CALLER PUSH1 0x0 SWAP1 DUP2 MSTORE PUSH1 0x1 PUSH1 0x20 MSTORE PUSH1 0x40 SWAP1 KECCAK256 SLOAD PUSH1 0xFF AND JUMPDEST PUSH2 0x1514 JUMPI PUSH1 0x40 MLOAD PUSH3 0x461BCD PUSH1 0xE5 SHL DUP2 MSTORE PUSH1 0x20 PUSH1 0x4 DUP3 ADD MSTORE PUSH1 0x2D PUSH1 0x24 DUP3 ADD MSTORE PUSH32 0x574C533A2043616C6C6572206E6F7420616C6C6F77656420746F20706572666F PUSH1 0x44 DUP3 ADD MSTORE PUSH13 0x3936903A34329030B1BA34B7B7 PUSH1 0x99 SHL PUSH1 0x64 DUP3 ADD MSTORE PUSH1 0x84 ADD PUSH2 0x968 JUMP JUMPDEST PUSH1 0x6 DUP1 SLOAD PUSH20 0xFFFFFFFFFFFFFFFFFFFFFFFFFFFFFFFFFFFFFFFF NOT AND PUSH1 0x1 PUSH1 0x1 PUSH1 0xA0 SHL SUB SWAP3 SWAP1 SWAP3 AND SWAP2 SWAP1 SWAP2 OR SWAP1 SSTORE JUMP JUMPDEST PUSH1 0x0 DUP1 SLOAD PUSH1 0x1 PUSH1 0x1 PUSH1 0xA0 SHL SUB AND CALLER EQ DUP1 PUSH2 0x156C JUMPI POP CALLER PUSH1 0x0 SWAP1 DUP2 MSTORE PUSH1 0x1 PUSH1 0x20 MSTORE PUSH1 0x40 SWAP1 KECCAK256 SLOAD PUSH1 0xFF AND JUMPDEST PUSH2 0x15CE JUMPI PUSH1 0x40 MLOAD PUSH3 0x461BCD PUSH1 0xE5 SHL DUP2 MSTORE PUSH1 0x20 PUSH1 0x4 DUP3 ADD MSTORE PUSH1 0x2D PUSH1 0x24 DUP3 ADD MSTORE PUSH32 0x574C533A2043616C6C6572206E6F7420616C6C6F77656420746F20706572666F PUSH1 0x44 DUP3 ADD MSTORE PUSH13 0x3936903A34329030B1BA34B7B7 PUSH1 0x99 SHL PUSH1 0x64 DUP3 ADD MSTORE PUSH1 0x84 ADD PUSH2 0x968 JUMP JUMPDEST PUSH1 0x1 PUSH1 0x1 PUSH1 0xA0 SHL SUB DUP3 AND PUSH1 0x0 SWAP1 DUP2 MSTORE PUSH1 0x9 PUSH1 0x20 MSTORE PUSH1 0x40 SWAP1 KECCAK256 DUP1 SLOAD PUSH1 0xFF AND DUP1 ISZERO PUSH2 0x163A JUMPI DUP2 SLOAD PUSH1 0xFF NOT AND DUP3 SSTORE PUSH1 0x40 MLOAD PUSH1 0x0 DUP2 MSTORE PUSH1 0x1 PUSH1 0x1 PUSH1 0xA0 SHL SUB DUP6 AND SWAP1 PUSH32 0xF66BA78954208CBD523E44F3C7C490D8D4D2B13E4C257ECF87C3002F7282DE65 SWAP1 PUSH1 0x20 ADD JUMPDEST PUSH1 0x40 MLOAD DUP1 SWAP2 SUB SWAP1 LOG2 JUMPDEST PUSH1 0x1 SWAP3 POP POP POP JUMPDEST SWAP2 SWAP1 POP JUMP JUMPDEST PUSH1 0x0 DUP1 SLOAD PUSH1 0x1 PUSH1 0x1 PUSH1 0xA0 SHL SUB AND CALLER EQ DUP1 PUSH2 0x166F JUMPI POP CALLER PUSH1 0x0 SWAP1 DUP2 MSTORE PUSH1 0x1 PUSH1 0x20 MSTORE PUSH1 0x40 SWAP1 KECCAK256 SLOAD PUSH1 0xFF AND JUMPDEST PUSH2 0x16D1 JUMPI PUSH1 0x40 MLOAD PUSH3 0x461BCD PUSH1 0xE5 SHL DUP2 MSTORE PUSH1 0x20 PUSH1 0x4 DUP3 ADD MSTORE PUSH1 0x2D PUSH1 0x24 DUP3 ADD MSTORE PUSH32 0x574C533A2043616C6C6572206E6F7420616C6C6F77656420746F20706572666F PUSH1 0x44 DUP3 ADD MSTORE PUSH13 0x3936903A34329030B1BA34B7B7 PUSH1 0x99 SHL PUSH1 0x64 DUP3 ADD MSTORE PUSH1 0x84 ADD PUSH2 0x968 JUMP JUMPDEST PUSH1 0x40 DUP1 MLOAD PUSH1 0x60 DUP2 ADD DUP3 MSTORE PUSH1 0x0 DUP1 DUP3 MSTORE PUSH1 0x20 DUP1 DUP4 ADD DUP3 SWAP1 MSTORE DUP3 DUP5 ADD DUP3 SWAP1 MSTORE DUP4 MLOAD PUSH1 0x1F DUP8 ADD DUP3 SWAP1 DIV DUP3 MUL DUP2 ADD DUP3 ADD SWAP1 SWAP5 MSTORE DUP6 DUP5 MSTORE SWAP1 SWAP3 PUSH2 0x172F SWAP3 DUP10 SWAP3 SWAP1 SWAP2 DUP10 SWAP2 DUP10 SWAP1 DUP10 SWAP1 DUP2 SWAP1 DUP5 ADD DUP4 DUP3 DUP1 DUP3 DUP5 CALLDATACOPY PUSH1 0x0 SWAP3 ADD SWAP2 SWAP1 SWAP2 MSTORE POP PUSH2 0x441F SWAP3 POP POP POP JUMP JUMPDEST SWAP1 POP PUSH1 0x0 PUSH2 0x173E DUP8 DUP8 DUP5 PUSH2 0x4CBB JUMP JUMPDEST SWAP1 POP PUSH2 0x113A DUP8 DUP8 PUSH1 0x0 DUP6 PUSH2 0x46E8 JUMP JUMPDEST CALLER PUSH1 0x0 SWAP1 DUP2 MSTORE PUSH1 0x7 PUSH1 0x20 MSTORE PUSH1 0x40 DUP2 KECCAK256 SLOAD PUSH1 0xFF AND PUSH2 0x17D2 JUMPI PUSH1 0x40 MLOAD PUSH3 0x461BCD PUSH1 0xE5 SHL DUP2 MSTORE PUSH1 0x20 PUSH1 0x4 DUP3 ADD MSTORE PUSH1 0x35 PUSH1 0x24 DUP3 ADD MSTORE PUSH32 0x536F433A204F6E6C7920612072656769737465726564206163636F756E742063 PUSH1 0x44 DUP3 ADD MSTORE PUSH32 0x616E2063616C6C20746869732066756E6374696F6E0000000000000000000000 PUSH1 0x64 DUP3 ADD MSTORE PUSH1 0x84 ADD PUSH2 0x968 JUMP JUMPDEST PUSH2 0xB24 CALLER DUP4 PUSH2 0x4DD5 JUMP JUMPDEST PUSH1 0x0 PUSH1 0x1 PUSH1 0x1 PUSH1 0xA0 SHL SUB DUP4 AND PUSH2 0x185A JUMPI PUSH1 0x40 MLOAD PUSH3 0x461BCD PUSH1 0xE5 SHL DUP2 MSTORE PUSH1 0x20 PUSH1 0x4 DUP3 ADD MSTORE PUSH1 0x3A PUSH1 0x24 DUP3 ADD MSTORE PUSH32 0x536F433A2043616E6E6F742072657175657374206E657474696E672077697468 PUSH1 0x44 DUP3 ADD MSTORE PUSH32 0x2061206E756C6C20636F72726573706F6E64656E742062616E6B000000000000 PUSH1 0x64 DUP3 ADD MSTORE PUSH1 0x84 ADD PUSH2 0x968 JUMP JUMPDEST PUSH1 0x1 PUSH1 0x1 PUSH1 0xA0 SHL SUB DUP4 AND PUSH1 0x0 SWAP1 DUP2 MSTORE PUSH1 0x9 PUSH1 0x20 MSTORE PUSH1 0x40 SWAP1 KECCAK256 DUP1 SLOAD PUSH1 0xFF AND PUSH2 0x18E9 JUMPI PUSH1 0x40 MLOAD PUSH3 0x461BCD PUSH1 0xE5 SHL DUP2 MSTORE PUSH1 0x20 PUSH1 0x4 DUP3 ADD MSTORE PUSH1 0x2D PUSH1 0x24 DUP3 ADD MSTORE PUSH32 0x536F433A2054686520636F72726573706F6E64656E742062616E6B206973206E PUSH1 0x44 DUP3 ADD MSTORE PUSH32 0x6F74207265676973746572656400000000000000000000000000000000000000 PUSH1 0x64 DUP3 ADD MSTORE PUSH1 0x84 ADD PUSH2 0x968 JUMP JUMPDEST DUP1 SLOAD PUSH2 0x100 SWAP1 DIV PUSH1 0x1 PUSH1 0x1 PUSH1 0xA0 SHL SUB AND PUSH2 0x196B JUMPI PUSH1 0x40 MLOAD PUSH3 0x461BCD PUSH1 0xE5 SHL DUP2 MSTORE PUSH1 0x20 PUSH1 0x4 DUP3 ADD MSTORE PUSH1 0x38 PUSH1 0x24 DUP3 ADD MSTORE PUSH32 0x536F433A2054686520636F72726573706F6E64656E742062616E6B2068617320 PUSH1 0x44 DUP3 ADD MSTORE PUSH32 0x6E6F206C6F726F206163636F756E74207769746820796F750000000000000000 PUSH1 0x64 DUP3 ADD MSTORE PUSH1 0x84 ADD PUSH2 0x968 JUMP JUMPDEST PUSH1 0x1 DUP2 ADD SLOAD PUSH1 0x1 PUSH1 0x1 PUSH1 0xA0 SHL SUB AND PUSH2 0x19EB JUMPI PUSH1 0x40 MLOAD PUSH3 0x461BCD PUSH1 0xE5 SHL DUP2 MSTORE PUSH1 0x20 PUSH1 0x4 DUP3 ADD MSTORE PUSH1 0x3A PUSH1 0x24 DUP3 ADD MSTORE PUSH32 0x536F433A2054686520636F72726573706F6E64656E742062616E6B2068617320 PUSH1 0x44 DUP3 ADD MSTORE PUSH32 0x6E6F206E6F7374726F206163636F756E74207769746820796F75000000000000 PUSH1 0x64 DUP3 ADD MSTORE PUSH1 0x84 ADD PUSH2 0x968 JUMP JUMPDEST DUP1 SLOAD PUSH2 0x100 SWAP1 DIV PUSH1 0x1 PUSH1 0x1 PUSH1 0xA0 SHL SUB AND PUSH1 0x0 SWAP1 DUP2 MSTORE PUSH1 0x7 PUSH1 0x20 MSTORE PUSH1 0x40 SWAP1 KECCAK256 PUSH1 0x1 ADD SLOAD DUP4 GT ISZERO PUSH2 0x1A82 JUMPI PUSH1 0x40 MLOAD PUSH3 0x461BCD PUSH1 0xE5 SHL DUP2 MSTORE PUSH1 0x20 PUSH1 0x4 DUP3 ADD MSTORE PUSH1 0x23 PUSH1 0x24 DUP3 ADD MSTORE PUSH32 0x536F433A20496E73756666696369656E742066756E647320666F72206E657474 PUSH1 0x44 DUP3 ADD MSTORE PUSH32 0x696E670000000000000000000000000000000000000000000000000000000000 PUSH1 0x64 DUP3 ADD MSTORE PUSH1 0x84 ADD PUSH2 0x968 JUMP JUMPDEST DUP1 SLOAD PUSH1 0x40 DUP1 MLOAD PUSH1 0x60 DUP2 ADD DUP3 MSTORE PUSH1 0x1 DUP5 ADD SLOAD PUSH1 0x1 PUSH1 0x1 PUSH1 0xA0 SHL SUB SWAP1 DUP2 AND DUP3 MSTORE PUSH1 0x0 PUSH1 0x20 DUP1 DUP5 ADD DUP3 SWAP1 MSTORE DUP4 DUP6 ADD DUP3 SWAP1 MSTORE DUP5 MLOAD DUP1 DUP7 ADD SWAP1 SWAP6 MSTORE PUSH1 0xF DUP6 MSTORE PUSH32 0x4E657474696E6720726571756573740000000000000000000000000000000000 SWAP1 DUP6 ADD MSTORE SWAP4 PUSH2 0x1AF8 SWAP4 PUSH2 0x100 SWAP1 SWAP2 DIV SWAP1 SWAP2 AND SWAP2 SWAP1 DUP8 SWAP1 PUSH2 0x441F JUMP JUMPDEST DUP3 SLOAD SWAP1 SWAP2 POP PUSH1 0x0 SWAP1 PUSH2 0x1B19 SWAP1 PUSH2 0x100 SWAP1 DIV PUSH1 0x1 PUSH1 0x1 PUSH1 0xA0 SHL SUB AND DUP7 DUP5 PUSH2 0x4CBB JUMP JUMPDEST SWAP1 POP DUP1 DUP1 ISZERO PUSH2 0x1BB1 JUMPI POP DUP6 PUSH1 0x40 MLOAD PUSH32 0xC3C4B16700000000000000000000000000000000000000000000000000000000 DUP2 MSTORE PUSH1 0x4 DUP2 ADD DUP8 SWAP1 MSTORE PUSH1 0x24 DUP2 ADD DUP5 SWAP1 MSTORE PUSH1 0x1 PUSH1 0x1 PUSH1 0xA0 SHL SUB SWAP2 SWAP1 SWAP2 AND SWAP1 PUSH4 0xC3C4B167 SWAP1 PUSH1 0x44 ADD PUSH1 0x20 PUSH1 0x40 MLOAD DUP1 DUP4 SUB DUP2 PUSH1 0x0 DUP8 GAS CALL ISZERO DUP1 ISZERO PUSH2 0x1B8D JUMPI RETURNDATASIZE PUSH1 0x0 DUP1 RETURNDATACOPY RETURNDATASIZE PUSH1 0x0 REVERT JUMPDEST POP POP POP POP PUSH1 0x40 MLOAD RETURNDATASIZE PUSH1 0x1F NOT PUSH1 0x1F DUP3 ADD AND DUP3 ADD DUP1 PUSH1 0x40 MSTORE POP DUP2 ADD SWAP1 PUSH2 0x1BB1 SWAP2 SWAP1 PUSH2 0x6633 JUMP JUMPDEST PUSH1 0x1 DUP5 ADD SLOAD SWAP1 SWAP2 POP PUSH1 0x0 SWAP1 PUSH1 0x1 PUSH1 0x1 PUSH1 0xA0 SHL SUB AND PUSH1 0x1 PUSH1 0x1 PUSH1 0xA0 SHL SUB AND PUSH4 0xB69EF8A8 PUSH1 0x40 MLOAD DUP2 PUSH4 0xFFFFFFFF AND PUSH1 0xE0 SHL DUP2 MSTORE PUSH1 0x4 ADD PUSH1 0x20 PUSH1 0x40 MLOAD DUP1 DUP4 SUB DUP2 DUP7 GAS STATICCALL ISZERO DUP1 ISZERO PUSH2 0x1C02 JUMPI RETURNDATASIZE PUSH1 0x0 DUP1 RETURNDATACOPY RETURNDATASIZE PUSH1 0x0 REVERT JUMPDEST POP POP POP POP PUSH1 0x40 MLOAD RETURNDATASIZE PUSH1 0x1F NOT PUSH1 0x1F DUP3 ADD AND DUP3 ADD DUP1 PUSH1 0x40 MSTORE POP DUP2 ADD SWAP1 PUSH2 0x1C26 SWAP2 SWAP1 PUSH2 0x6516 JUMP JUMPDEST PUSH1 0x2 SWAP1 SWAP5 ADD SWAP4 SWAP1 SWAP4 SSTORE SWAP3 POP POP POP SWAP3 SWAP2 POP POP JUMP JUMPDEST PUSH1 0x1 PUSH1 0x1 PUSH1 0xA0 SHL SUB DUP2 AND PUSH1 0x0 SWAP1 DUP2 MSTORE PUSH1 0x7 PUSH1 0x20 MSTORE PUSH1 0x40 DUP2 KECCAK256 PUSH1 0x1 DUP2 ADD SLOAD PUSH1 0x3 DUP3 ADD SLOAD GT ISZERO PUSH2 0x1C6A JUMPI POP PUSH1 0x0 SWAP3 SWAP2 POP POP JUMP JUMPDEST PUSH1 0x3 DUP2 ADD SLOAD PUSH1 0x1 SWAP1 SWAP2 ADD SLOAD SUB SWAP3 SWAP2 POP POP JUMP JUMPDEST POP SWAP2 SWAP1 POP JUMP JUMPDEST PUSH2 0x1C8A PUSH2 0x4EF0 JUMP JUMPDEST PUSH2 0x1C94 PUSH1 0x0 PUSH2 0x4F4A JUMP JUMPDEST JUMP JUMPDEST PUSH1 0x0 DUP1 SLOAD PUSH1 0x1 PUSH1 0x1 PUSH1 0xA0 SHL SUB AND CALLER EQ DUP1 PUSH2 0x1CBF JUMPI POP CALLER PUSH1 0x0 SWAP1 DUP2 MSTORE PUSH1 0x1 PUSH1 0x20 MSTORE PUSH1 0x40 SWAP1 KECCAK256 SLOAD PUSH1 0xFF AND JUMPDEST PUSH2 0x1D21 JUMPI PUSH1 0x40 MLOAD PUSH3 0x461BCD PUSH1 0xE5 SHL DUP2 MSTORE PUSH1 0x20 PUSH1 0x4 DUP3 ADD MSTORE PUSH1 0x2D PUSH1 0x24 DUP3 ADD MSTORE PUSH32 0x574C533A2043616C6C6572206E6F7420616C6C6F77656420746F20706572666F PUSH1 0x44 DUP3 ADD MSTORE PUSH13 0x3936903A34329030B1BA34B7B7 PUSH1 0x99 SHL PUSH1 0x64 DUP3 ADD MSTORE PUSH1 0x84 ADD PUSH2 0x968 JUMP JUMPDEST PUSH1 0x0 DUP5 DUP2 MSTORE PUSH1 0xB PUSH1 0x20 MSTORE PUSH1 0x40 SWAP1 KECCAK256 PUSH1 0x2 PUSH1 0x4 DUP1 DUP4 ADD SLOAD PUSH1 0xFF AND SWAP1 DUP2 GT ISZERO PUSH2 0x1D4A JUMPI PUSH2 0x1D4A PUSH2 0x623A JUMP JUMPDEST EQ PUSH2 0x1D97 JUMPI PUSH1 0x40 MLOAD PUSH3 0x461BCD PUSH1 0xE5 SHL DUP2 MSTORE PUSH1 0x20 PUSH1 0x4 DUP3 ADD DUP2 SWAP1 MSTORE PUSH1 0x24 DUP3 ADD MSTORE PUSH32 0x536F433A20546865207472616E73666572206973206E6F742070656E64696E67 PUSH1 0x44 DUP3 ADD MSTORE PUSH1 0x64 ADD PUSH2 0x968 JUMP JUMPDEST PUSH1 0x3 DUP5 PUSH1 0x4 DUP2 GT ISZERO PUSH2 0x1DAB JUMPI PUSH2 0x1DAB PUSH2 0x623A JUMP JUMPDEST EQ DUP1 PUSH2 0x1DC8 JUMPI POP PUSH1 0x4 DUP5 PUSH1 0x4 DUP2 GT ISZERO PUSH2 0x1DC6 JUMPI PUSH2 0x1DC6 PUSH2 0x623A JUMP JUMPDEST EQ JUMPDEST PUSH2 0x1E14 JUMPI PUSH1 0x40 MLOAD PUSH3 0x461BCD PUSH1 0xE5 SHL DUP2 MSTORE PUSH1 0x20 PUSH1 0x4 DUP3 ADD MSTORE PUSH1 0x13 PUSH1 0x24 DUP3 ADD MSTORE PUSH32 0x536F433A20496E76616C69642073746174757300000000000000000000000000 PUSH1 0x44 DUP3 ADD MSTORE PUSH1 0x64 ADD PUSH2 0x968 JUMP JUMPDEST PUSH2 0x1EE0 DUP2 PUSH1 0x6 ADD DUP1 SLOAD PUSH2 0x1E26 SWAP1 PUSH2 0x664E JUMP JUMPDEST DUP1 PUSH1 0x1F ADD PUSH1 0x20 DUP1 SWAP2 DIV MUL PUSH1 0x20 ADD PUSH1 0x40 MLOAD SWAP1 DUP2 ADD PUSH1 0x40 MSTORE DUP1 SWAP3 SWAP2 SWAP1 DUP2 DUP2 MSTORE PUSH1 0x20 ADD DUP3 DUP1 SLOAD PUSH2 0x1E52 SWAP1 PUSH2 0x664E JUMP JUMPDEST DUP1 ISZERO PUSH2 0x1E9F JUMPI DUP1 PUSH1 0x1F LT PUSH2 0x1E74 JUMPI PUSH2 0x100 DUP1 DUP4 SLOAD DIV MUL DUP4 MSTORE SWAP2 PUSH1 0x20 ADD SWAP2 PUSH2 0x1E9F JUMP JUMPDEST DUP3 ADD SWAP2 SWAP1 PUSH1 0x0 MSTORE PUSH1 0x20 PUSH1 0x0 KECCAK256 SWAP1 JUMPDEST DUP2 SLOAD DUP2 MSTORE SWAP1 PUSH1 0x1 ADD SWAP1 PUSH1 0x20 ADD DUP1 DUP4 GT PUSH2 0x1E82 JUMPI DUP3 SWAP1 SUB PUSH1 0x1F AND DUP3 ADD SWAP2 JUMPDEST POP POP POP POP POP PUSH1 0x40 MLOAD DUP1 PUSH1 0x40 ADD PUSH1 0x40 MSTORE DUP1 PUSH1 0x4 DUP2 MSTORE PUSH1 0x20 ADD PUSH32 0x2C203D3E00000000000000000000000000000000000000000000000000000000 DUP2 MSTORE POP DUP6 PUSH2 0x4FA7 JUMP JUMPDEST PUSH1 0x6 DUP3 ADD SWAP1 PUSH2 0x1EEF SWAP1 DUP3 PUSH2 0x66D0 JUMP JUMPDEST POP PUSH1 0x3 DUP5 PUSH1 0x4 DUP2 GT ISZERO PUSH2 0x1F04 JUMPI PUSH2 0x1F04 PUSH2 0x623A JUMP JUMPDEST SUB PUSH2 0x1F5E JUMPI PUSH1 0x4 DUP2 ADD DUP1 SLOAD PUSH1 0xFF NOT AND PUSH1 0x3 SWAP1 DUP2 OR SWAP1 SWAP2 SSTORE PUSH1 0x40 MLOAD DUP7 SWAP2 PUSH32 0xDAF55112D5C5FE5C33B5A1798ECF71D462C3B5EC5855ABB929D4266CE8C79C02 SWAP2 PUSH2 0x1F4C SWAP2 SWAP1 PUSH2 0x6790 JUMP JUMPDEST PUSH1 0x40 MLOAD DUP1 SWAP2 SUB SWAP1 LOG2 PUSH1 0x1 SWAP2 POP POP PUSH2 0x144C JUMP JUMPDEST DUP1 SLOAD PUSH1 0x1 PUSH1 0x1 PUSH1 0xA0 SHL SUB AND ISZERO PUSH2 0x20DB JUMPI DUP1 SLOAD PUSH1 0x0 SWAP1 PUSH2 0x1F85 SWAP1 PUSH1 0x1 PUSH1 0x1 PUSH1 0xA0 SHL SUB AND PUSH2 0x4FE4 JUMP JUMPDEST SWAP1 POP ADDRESS PUSH1 0x1 PUSH1 0x1 PUSH1 0xA0 SHL SUB DUP3 AND SUB PUSH2 0x208A JUMPI PUSH1 0x1 DUP3 ADD SLOAD PUSH1 0x1 PUSH1 0x1 PUSH1 0xA0 SHL SUB AND ISZERO PUSH2 0x200B JUMPI DUP2 SLOAD PUSH1 0x40 DUP1 MLOAD PUSH1 0x60 DUP2 ADD DUP3 MSTORE PUSH1 0x1 DUP6 ADD SLOAD PUSH1 0x1 PUSH1 0x1 PUSH1 0xA0 SHL SUB DUP1 DUP3 AND DUP4 MSTORE PUSH1 0x1 PUSH1 0xA0 SHL SWAP1 SWAP2 DIV PUSH1 0xA8 SHL PUSH1 0x1 PUSH1 0x1 PUSH1 0xA8 SHL SUB NOT AND PUSH1 0x20 DUP4 ADD MSTORE PUSH1 0x2 DUP7 ADD SLOAD SWAP3 DUP3 ADD SWAP3 SWAP1 SWAP3 MSTORE PUSH1 0x3 DUP6 ADD SLOAD PUSH2 0x2002 SWAP4 SWAP3 SWAP1 SWAP3 AND SWAP2 DUP10 PUSH2 0x47CF JUMP JUMPDEST SWAP3 POP POP POP PUSH2 0x144C JUMP JUMPDEST PUSH1 0x2 DUP3 ADD SLOAD PUSH1 0x0 SUB PUSH2 0x2032 JUMPI DUP2 SLOAD PUSH1 0x3 DUP4 ADD SLOAD PUSH2 0x2002 SWAP2 PUSH1 0x1 PUSH1 0x1 PUSH1 0xA0 SHL SUB AND SWAP1 DUP9 PUSH2 0x4CBB JUMP JUMPDEST DUP2 SLOAD PUSH1 0x40 DUP1 MLOAD PUSH1 0x60 DUP2 ADD DUP3 MSTORE PUSH1 0x1 DUP6 ADD SLOAD PUSH1 0x1 PUSH1 0x1 PUSH1 0xA0 SHL SUB DUP1 DUP3 AND DUP4 MSTORE PUSH1 0x1 PUSH1 0xA0 SHL SWAP1 SWAP2 DIV PUSH1 0xA8 SHL PUSH1 0x1 PUSH1 0x1 PUSH1 0xA8 SHL SUB NOT AND PUSH1 0x20 DUP4 ADD MSTORE PUSH1 0x2 DUP7 ADD SLOAD SWAP3 DUP3 ADD SWAP3 SWAP1 SWAP3 MSTORE PUSH1 0x3 DUP6 ADD SLOAD PUSH2 0x2002 SWAP4 SWAP3 SWAP1 SWAP3 AND SWAP2 DUP10 PUSH2 0x47CF JUMP JUMPDEST PUSH1 0x40 DUP1 MLOAD PUSH1 0x60 DUP2 ADD DUP3 MSTORE PUSH1 0x1 DUP5 ADD SLOAD PUSH1 0x1 PUSH1 0x1 PUSH1 0xA0 SHL SUB DUP2 AND DUP3 MSTORE PUSH1 0x1 PUSH1 0xA0 SHL SWAP1 DIV PUSH1 0xA8 SHL PUSH1 0x1 PUSH1 0x1 PUSH1 0xA8 SHL SUB NOT AND PUSH1 0x20 DUP3 ADD MSTORE PUSH1 0x2 DUP5 ADD SLOAD SWAP2 DUP2 ADD SWAP2 SWAP1 SWAP2 MSTORE PUSH1 0x3 DUP4 ADD SLOAD PUSH2 0x2002 SWAP2 DUP4 SWAP2 DUP10 PUSH2 0x50E1 JUMP JUMPDEST PUSH1 0x1 DUP2 ADD SLOAD PUSH1 0x1 PUSH1 0x1 PUSH1 0xA0 SHL SUB AND ISZERO PUSH2 0x2114 JUMPI PUSH1 0x1 DUP2 ADD SLOAD PUSH1 0x3 DUP3 ADD SLOAD PUSH2 0x210C SWAP2 PUSH1 0x1 PUSH1 0x1 PUSH1 0xA0 SHL SUB AND SWAP1 DUP8 PUSH2 0x4583 JUMP JUMPDEST SWAP2 POP POP PUSH2 0x144C JUMP JUMPDEST PUSH1 0x40 MLOAD PUSH3 0x461BCD PUSH1 0xE5 SHL DUP2 MSTORE PUSH1 0x20 PUSH1 0x4 DUP3 ADD MSTORE PUSH1 0x1B PUSH1 0x24 DUP3 ADD MSTORE PUSH32 0x536F433A20536974756174696F6E206E6F742065787065637465640000000000 PUSH1 0x44 DUP3 ADD MSTORE PUSH1 0x64 ADD PUSH2 0x968 JUMP JUMPDEST PUSH1 0x1 PUSH1 0x1 PUSH1 0xA0 SHL SUB DUP2 AND PUSH1 0x0 SWAP1 DUP2 MSTORE PUSH1 0x7 PUSH1 0x20 MSTORE PUSH1 0x40 DUP2 KECCAK256 PUSH1 0x2 DUP2 ADD SLOAD PUSH1 0x1 SWAP1 SWAP2 ADD SLOAD LT PUSH2 0x21AB JUMPI POP PUSH1 0x1 PUSH1 0x1 PUSH1 0xA0 SHL SUB AND PUSH1 0x0 SWAP1 DUP2 MSTORE PUSH1 0x7 PUSH1 0x20 MSTORE PUSH1 0x40 SWAP1 KECCAK256 PUSH1 0x2 DUP2 ADD SLOAD PUSH1 0x1 SWAP1 SWAP2 ADD SLOAD SUB SWAP1 JUMP JUMPDEST POP PUSH1 0x0 SWAP2 SWAP1 POP JUMP JUMPDEST PUSH1 0x0 DUP1 SLOAD PUSH1 0x1 PUSH1 0x1 PUSH1 0xA0 SHL SUB AND CALLER EQ DUP1 PUSH2 0x21DC JUMPI POP CALLER PUSH1 0x0 SWAP1 DUP2 MSTORE PUSH1 0x1 PUSH1 0x20 MSTORE PUSH1 0x40 SWAP1 KECCAK256 SLOAD PUSH1 0xFF AND JUMPDEST PUSH2 0x223E JUMPI PUSH1 0x40 MLOAD PUSH3 0x461BCD PUSH1 0xE5 SHL DUP2 MSTORE PUSH1 0x20 PUSH1 0x4 DUP3 ADD MSTORE PUSH1 0x2D PUSH1 0x24 DUP3 ADD MSTORE PUSH32 0x574C533A2043616C6C6572206E6F7420616C6C6F77656420746F20706572666F PUSH1 0x44 DUP3 ADD MSTORE PUSH13 0x3936903A34329030B1BA34B7B7 PUSH1 0x99 SHL PUSH1 0x64 DUP3 ADD MSTORE PUSH1 0x84 ADD PUSH2 0x968 JUMP JUMPDEST PUSH2 0xB21 DUP4 DUP4 PUSH2 0x4DD5 JUMP JUMPDEST CALLER PUSH1 0x0 SWAP1 DUP2 MSTORE PUSH1 0x7 PUSH1 0x20 MSTORE PUSH1 0x40 DUP2 KECCAK256 SLOAD PUSH1 0xFF AND PUSH2 0x22CD JUMPI PUSH1 0x40 MLOAD PUSH3 0x461BCD PUSH1 0xE5 SHL DUP2 MSTORE PUSH1 0x20 PUSH1 0x4 DUP3 ADD MSTORE PUSH1 0x35 PUSH1 0x24 DUP3 ADD MSTORE PUSH32 0x536F433A204F6E6C7920612072656769737465726564206163636F756E742063 PUSH1 0x44 DUP3 ADD MSTORE PUSH32 0x616E2063616C6C20746869732066756E6374696F6E0000000000000000000000 PUSH1 0x64 DUP3 ADD MSTORE PUSH1 0x84 ADD PUSH2 0x968 JUMP JUMPDEST PUSH2 0xB24 CALLER DUP4 PUSH2 0x4304 JUMP JUMPDEST PUSH1 0x0 DUP1 SLOAD PUSH1 0x1 PUSH1 0x1 PUSH1 0xA0 SHL SUB AND CALLER EQ DUP1 PUSH2 0x2300 JUMPI POP CALLER PUSH1 0x0 SWAP1 DUP2 MSTORE PUSH1 0x1 PUSH1 0x20 MSTORE PUSH1 0x40 SWAP1 KECCAK256 SLOAD PUSH1 0xFF AND JUMPDEST PUSH2 0x2362 JUMPI PUSH1 0x40 MLOAD PUSH3 0x461BCD PUSH1 0xE5 SHL DUP2 MSTORE PUSH1 0x20 PUSH1 0x4 DUP3 ADD MSTORE PUSH1 0x2D PUSH1 0x24 DUP3 ADD MSTORE PUSH32 0x574C533A2043616C6C6572206E6F7420616C6C6F77656420746F20706572666F PUSH1 0x44 DUP3 ADD MSTORE PUSH13 0x3936903A34329030B1BA34B7B7 PUSH1 0x99 SHL PUSH1 0x64 DUP3 ADD MSTORE PUSH1 0x84 ADD PUSH2 0x968 JUMP JUMPDEST PUSH1 0x1 PUSH1 0x1 PUSH1 0xA0 SHL SUB DUP3 AND PUSH2 0x23C9 JUMPI PUSH1 0x40 MLOAD PUSH3 0x461BCD PUSH1 0xE5 SHL DUP2 MSTORE PUSH1 0x20 PUSH1 0x4 DUP3 ADD MSTORE PUSH1 0x28 PUSH1 0x24 DUP3 ADD MSTORE PUSH32 0x536F433A2043616E6E6F74206372656469742061206E756C6C206E6F7374726F PUSH1 0x44 DUP3 ADD MSTORE PUSH8 0x81858D8DBDD5B9D PUSH1 0xC2 SHL PUSH1 0x64 DUP3 ADD MSTORE PUSH1 0x84 ADD PUSH2 0x968 JUMP JUMPDEST PUSH1 0x0 PUSH2 0x23D4 DUP4 PUSH2 0x4FE4 JUMP JUMPDEST SWAP1 POP PUSH2 0x23F8 DUP2 PUSH1 0x1 PUSH1 0x1 PUSH1 0xA0 SHL SUB AND PUSH1 0x0 SWAP1 DUP2 MSTORE PUSH1 0x9 PUSH1 0x20 MSTORE PUSH1 0x40 SWAP1 KECCAK256 SLOAD PUSH1 0xFF AND SWAP1 JUMP JUMPDEST PUSH2 0x2490 JUMPI PUSH1 0x40 MLOAD PUSH3 0x461BCD PUSH1 0xE5 SHL DUP2 MSTORE PUSH1 0x20 PUSH1 0x4 DUP3 ADD MSTORE PUSH1 0x43 PUSH1 0x24 DUP3 ADD MSTORE PUSH32 0x536F433A20546865206163636F756E74206973206E6F742061206E6F7374726F PUSH1 0x44 DUP3 ADD MSTORE PUSH32 0x206F662061207265676973746572656420636F72726573706F6E64656E742062 PUSH1 0x64 DUP3 ADD MSTORE PUSH32 0x616E6B0000000000000000000000000000000000000000000000000000000000 PUSH1 0x84 DUP3 ADD MSTORE PUSH1 0xA4 ADD PUSH2 0x968 JUMP JUMPDEST PUSH1 0x1 PUSH1 0x1 PUSH1 0xA0 SHL SUB DUP2 DUP2 AND PUSH1 0x0 SWAP1 DUP2 MSTORE PUSH1 0x9 PUSH1 0x20 MSTORE PUSH1 0x40 SWAP1 KECCAK256 PUSH1 0x1 DUP2 ADD SLOAD SWAP1 SWAP2 DUP6 DUP2 AND SWAP2 AND EQ PUSH2 0x2528 JUMPI PUSH1 0x40 MLOAD PUSH3 0x461BCD PUSH1 0xE5 SHL DUP2 MSTORE PUSH1 0x20 PUSH1 0x4 DUP3 ADD MSTORE PUSH1 0x3D PUSH1 0x24 DUP3 ADD MSTORE PUSH32 0x536F433A20546865206163636F756E74206973206E6F7420796F7572206E6F73 PUSH1 0x44 DUP3 ADD MSTORE PUSH32 0x74726F2061742074686520636F72726573706F6E64656E742062616E6B000000 PUSH1 0x64 DUP3 ADD MSTORE PUSH1 0x84 ADD PUSH2 0x968 JUMP JUMPDEST DUP4 PUSH1 0x1 PUSH1 0x1 PUSH1 0xA0 SHL SUB AND PUSH4 0xB69EF8A8 PUSH1 0x40 MLOAD DUP2 PUSH4 0xFFFFFFFF AND PUSH1 0xE0 SHL DUP2 MSTORE PUSH1 0x4 ADD PUSH1 0x20 PUSH1 0x40 MLOAD DUP1 DUP4 SUB DUP2 DUP7 GAS STATICCALL ISZERO DUP1 ISZERO PUSH2 0x2566 JUMPI RETURNDATASIZE PUSH1 0x0 DUP1 RETURNDATACOPY RETURNDATASIZE PUSH1 0x0 REVERT JUMPDEST POP POP POP POP PUSH1 0x40 MLOAD RETURNDATASIZE PUSH1 0x1F NOT PUSH1 0x1F DUP3 ADD AND DUP3 ADD DUP1 PUSH1 0x40 MSTORE POP DUP2 ADD SWAP1 PUSH2 0x258A SWAP2 SWAP1 PUSH2 0x6516 JUMP JUMPDEST PUSH1 0x2 SWAP1 SWAP2 ADD SSTORE POP PUSH1 0x1 SWAP1 POP SWAP2 SWAP1 POP JUMP JUMPDEST PUSH1 0x2 SLOAD PUSH1 0x40 MLOAD PUSH1 0x1 PUSH1 0xA8 SHL SWAP1 SWAP2 DIV PUSH1 0xE8 SHL PUSH32 0xFFFFFF0000000000000000000000000000000000000000000000000000000000 AND PUSH1 0x20 DUP3 ADD MSTORE PUSH1 0x60 SWAP1 PUSH1 0x23 ADD PUSH2 0x8DA JUMP JUMPDEST PUSH1 0x0 DUP1 SLOAD PUSH1 0x1 PUSH1 0x1 PUSH1 0xA0 SHL SUB AND CALLER EQ DUP1 PUSH2 0x2606 JUMPI POP CALLER PUSH1 0x0 SWAP1 DUP2 MSTORE PUSH1 0x1 PUSH1 0x20 MSTORE PUSH1 0x40 SWAP1 KECCAK256 SLOAD PUSH1 0xFF AND JUMPDEST PUSH2 0x2668 JUMPI PUSH1 0x40 MLOAD PUSH3 0x461BCD PUSH1 0xE5 SHL DUP2 MSTORE PUSH1 0x20 PUSH1 0x4 DUP3 ADD MSTORE PUSH1 0x2D PUSH1 0x24 DUP3 ADD MSTORE PUSH32 0x574C533A2043616C6C6572206E6F7420616C6C6F77656420746F20706572666F PUSH1 0x44 DUP3 ADD MSTORE PUSH13 0x3936903A34329030B1BA34B7B7 PUSH1 0x99 SHL PUSH1 0x64 DUP3 ADD MSTORE PUSH1 0x84 ADD PUSH2 0x968 JUMP JUMPDEST PUSH1 0x1 PUSH1 0x1 PUSH1 0xA0 SHL SUB DUP3 AND PUSH2 0x26E4 JUMPI PUSH1 0x40 MLOAD PUSH3 0x461BCD PUSH1 0xE5 SHL DUP2 MSTORE PUSH1 0x20 PUSH1 0x4 DUP3 ADD MSTORE PUSH1 0x23 PUSH1 0x24 DUP3 ADD MSTORE PUSH32 0x536F433A2043616E6E6F742072656769737465722061206E756C6C206163636F PUSH1 0x44 DUP3 ADD MSTORE PUSH32 0x756E740000000000000000000000000000000000000000000000000000000000 PUSH1 0x64 DUP3 ADD MSTORE PUSH1 0x84 ADD PUSH2 0x968 JUMP JUMPDEST ADDRESS DUP3 PUSH1 0x1 PUSH1 0x1 PUSH1 0xA0 SHL SUB AND PUSH4 0x76CDB03B PUSH1 0x40 MLOAD DUP2 PUSH4 0xFFFFFFFF AND PUSH1 0xE0 SHL DUP2 MSTORE PUSH1 0x4 ADD PUSH1 0x20 PUSH1 0x40 MLOAD DUP1 DUP4 SUB DUP2 DUP7 GAS STATICCALL ISZERO DUP1 ISZERO PUSH2 0x2723 JUMPI RETURNDATASIZE PUSH1 0x0 DUP1 RETURNDATACOPY RETURNDATASIZE PUSH1 0x0 REVERT JUMPDEST POP POP POP POP PUSH1 0x40 MLOAD RETURNDATASIZE PUSH1 0x1F NOT PUSH1 0x1F DUP3 ADD AND DUP3 ADD DUP1 PUSH1 0x40 MSTORE POP DUP2 ADD SWAP1 PUSH2 0x2747 SWAP2 SWAP1 PUSH2 0x655E JUMP JUMPDEST PUSH1 0x1 PUSH1 0x1 PUSH1 0xA0 SHL SUB AND EQ PUSH2 0x27E9 JUMPI PUSH1 0x40 MLOAD PUSH3 0x461BCD PUSH1 0xE5 SHL DUP2 MSTORE PUSH1 0x20 PUSH1 0x4 DUP3 ADD MSTORE PUSH1 0x54 PUSH1 0x24 DUP3 ADD MSTORE PUSH32 0x536F433A2043616E6E6F7420726567697374657220616E206163636F756E7420 PUSH1 0x44 DUP3 ADD MSTORE PUSH32 0x6E6F74206F776E656420627920746869732062616E6B2E20557365207472616E PUSH1 0x64 DUP3 ADD MSTORE PUSH32 0x736665724F776E6572736869702066697273742E000000000000000000000000 PUSH1 0x84 DUP3 ADD MSTORE PUSH1 0xA4 ADD PUSH2 0x968 JUMP JUMPDEST PUSH1 0x1 PUSH1 0x1 PUSH1 0xA0 SHL SUB DUP3 AND PUSH1 0x0 SWAP1 DUP2 MSTORE PUSH1 0x7 PUSH1 0x20 MSTORE PUSH1 0x40 SWAP1 KECCAK256 DUP1 SLOAD PUSH1 0xFF AND DUP1 ISZERO PUSH2 0x2816 JUMPI POP PUSH1 0x1 SWAP4 SWAP3 POP POP POP JUMP JUMPDEST DUP2 SLOAD PUSH2 0x100 SWAP1 DIV PUSH1 0xFF AND PUSH2 0x2923 JUMPI DUP2 SLOAD PUSH32 0xFFFFFFFFFFFFFFFFFFFFFFFFFFFFFFFFFFFFFFFFFFFFFFFFFFFFFFFFFFFF0000 AND PUSH2 0x101 OR DUP3 SSTORE PUSH1 0x5 DUP1 SLOAD SWAP1 PUSH1 0x0 PUSH2 0x285E DUP4 PUSH2 0x64CD JUMP JUMPDEST SWAP1 SWAP2 SSTORE POP DUP3 SLOAD PUSH32 0xFFFFFFFFFFFFFFFFFFFFFFFFFFFFFFFFFFFFFFFFFFFFFFFFFFFF00000000FFFF AND PUSH3 0x10000 PUSH4 0xFFFFFFFF SWAP3 DUP4 AND DUP2 MUL SWAP2 SWAP1 SWAP2 OR DUP1 DUP6 SSTORE PUSH1 0x0 PUSH1 0x1 DUP1 DUP8 ADD DUP3 SWAP1 SSTORE PUSH1 0x2 DUP8 ADD DUP3 SWAP1 SSTORE PUSH1 0x3 DUP8 ADD DUP3 SWAP1 SSTORE SWAP3 SWAP1 SWAP2 DIV SWAP1 SWAP3 AND DUP3 MSTORE PUSH1 0x8 PUSH1 0x20 SWAP1 DUP2 MSTORE PUSH1 0x40 SWAP3 DUP4 SWAP1 KECCAK256 DUP1 SLOAD PUSH20 0xFFFFFFFFFFFFFFFFFFFFFFFFFFFFFFFFFFFFFFFF NOT AND PUSH1 0x1 PUSH1 0x1 PUSH1 0xA0 SHL SUB DUP10 AND SWAP1 DUP2 OR SWAP1 SWAP2 SSTORE SWAP3 MLOAD SWAP2 DUP3 MSTORE PUSH32 0xE9F66121638D3451750BEF8F65A4FC027B5ABDDFF38717C75278B1114A68C327 SWAP2 ADD PUSH1 0x40 MLOAD DUP1 SWAP2 SUB SWAP1 LOG2 JUMPDEST PUSH1 0x40 MLOAD PUSH1 0x1 DUP2 MSTORE PUSH1 0x1 PUSH1 0x1 PUSH1 0xA0 SHL SUB DUP6 AND SWAP1 PUSH32 0x9D26F700287350F2EB871FDCF5B52A588ABEFE0ADD47C4E509E835FA4C9A294A SWAP1 PUSH1 0x20 ADD PUSH1 0x40 MLOAD DUP1 SWAP2 SUB SWAP1 LOG2 DUP4 PUSH1 0x40 MLOAD PUSH32 0x9B19251A00000000000000000000000000000000000000000000000000000000 DUP2 MSTORE CALLER PUSH1 0x4 DUP3 ADD MSTORE PUSH1 0x1 PUSH1 0x1 PUSH1 0xA0 SHL SUB SWAP2 SWAP1 SWAP2 AND SWAP1 PUSH4 0x9B19251A SWAP1 PUSH1 0x24 ADD PUSH1 0x0 PUSH1 0x40 MLOAD DUP1 DUP4 SUB DUP2 PUSH1 0x0 DUP8 DUP1 EXTCODESIZE ISZERO DUP1 ISZERO PUSH2 0x29BF JUMPI PUSH1 0x0 DUP1 REVERT JUMPDEST POP GAS CALL ISZERO DUP1 ISZERO PUSH2 0x29D3 JUMPI RETURNDATASIZE PUSH1 0x0 DUP1 RETURNDATACOPY RETURNDATASIZE PUSH1 0x0 REVERT JUMPDEST POP PUSH1 0x1 SWAP8 SWAP7 POP POP POP POP POP POP POP JUMP JUMPDEST PUSH1 0x0 SLOAD PUSH1 0x1 PUSH1 0x1 PUSH1 0xA0 SHL SUB AND CALLER EQ DUP1 PUSH2 0x2A09 JUMPI POP CALLER PUSH1 0x0 SWAP1 DUP2 MSTORE PUSH1 0x1 PUSH1 0x20 MSTORE PUSH1 0x40 SWAP1 KECCAK256 SLOAD PUSH1 0xFF AND JUMPDEST PUSH2 0x2A6B JUMPI PUSH1 0x40 MLOAD PUSH3 0x461BCD PUSH1 0xE5 SHL DUP2 MSTORE PUSH1 0x20 PUSH1 0x4 DUP3 ADD MSTORE PUSH1 0x2D PUSH1 0x24 DUP3 ADD MSTORE PUSH32 0x574C533A2043616C6C6572206E6F7420616C6C6F77656420746F20706572666F PUSH1 0x44 DUP3 ADD MSTORE PUSH13 0x3936903A34329030B1BA34B7B7 PUSH1 0x99 SHL PUSH1 0x64 DUP3 ADD MSTORE PUSH1 0x84 ADD PUSH2 0x968 JUMP JUMPDEST PUSH1 0x0 SLOAD PUSH1 0x1 PUSH1 0x1 PUSH1 0xA0 SHL SUB AND CALLER EQ DUP1 PUSH2 0x2A93 JUMPI POP CALLER PUSH1 0x0 SWAP1 DUP2 MSTORE PUSH1 0x1 PUSH1 0x20 MSTORE PUSH1 0x40 SWAP1 KECCAK256 SLOAD PUSH1 0xFF AND JUMPDEST PUSH2 0x2AF5 JUMPI PUSH1 0x40 MLOAD PUSH3 0x461BCD PUSH1 0xE5 SHL DUP2 MSTORE PUSH1 0x20 PUSH1 0x4 DUP3 ADD MSTORE PUSH1 0x2D PUSH1 0x24 DUP3 ADD MSTORE PUSH32 0x574C533A2043616C6C6572206E6F7420616C6C6F77656420746F20706572666F PUSH1 0x44 DUP3 ADD MSTORE PUSH13 0x3936903A34329030B1BA34B7B7 PUSH1 0x99 SHL PUSH1 0x64 DUP3 ADD MSTORE PUSH1 0x84 ADD PUSH2 0x968 JUMP JUMPDEST PUSH1 0x1 PUSH1 0x1 PUSH1 0xA0 SHL SUB DUP2 AND PUSH1 0x0 DUP2 DUP2 MSTORE PUSH1 0x1 PUSH1 0x20 DUP2 DUP2 MSTORE PUSH1 0x40 SWAP3 DUP4 SWAP1 KECCAK256 DUP1 SLOAD PUSH1 0xFF NOT AND DUP4 OR SWAP1 SSTORE SWAP2 MLOAD SWAP1 DUP2 MSTORE PUSH32 0xA54714518C5D275FDCD3D2A461E4858E4E8CB04FB93CD0BCA9D6D34115F26440 SWAP2 ADD JUMPDEST PUSH1 0x40 MLOAD DUP1 SWAP2 SUB SWAP1 LOG2 POP JUMP JUMPDEST PUSH1 0x0 DUP1 SLOAD PUSH1 0x1 PUSH1 0x1 PUSH1 0xA0 SHL SUB AND CALLER EQ DUP1 PUSH2 0x2B78 JUMPI POP CALLER PUSH1 0x0 SWAP1 DUP2 MSTORE PUSH1 0x1 PUSH1 0x20 MSTORE PUSH1 0x40 SWAP1 KECCAK256 SLOAD PUSH1 0xFF AND JUMPDEST PUSH2 0x2BDA JUMPI PUSH1 0x40 MLOAD PUSH3 0x461BCD PUSH1 0xE5 SHL DUP2 MSTORE PUSH1 0x20 PUSH1 0x4 DUP3 ADD MSTORE PUSH1 0x2D PUSH1 0x24 DUP3 ADD MSTORE PUSH32 0x574C533A2043616C6C6572206E6F7420616C6C6F77656420746F20706572666F PUSH1 0x44 DUP3 ADD MSTORE PUSH13 0x3936903A34329030B1BA34B7B7 PUSH1 0x99 SHL PUSH1 0x64 DUP3 ADD MSTORE PUSH1 0x84 ADD PUSH2 0x968 JUMP JUMPDEST PUSH1 0x1 PUSH1 0x1 PUSH1 0xA0 SHL SUB DUP3 AND PUSH2 0x2C56 JUMPI PUSH1 0x40 MLOAD PUSH3 0x461BCD PUSH1 0xE5 SHL DUP2 MSTORE PUSH1 0x20 PUSH1 0x4 DUP3 ADD MSTORE PUSH1 0x25 PUSH1 0x24 DUP3 ADD MSTORE PUSH32 0x536F433A2043616E6E6F7420756E72656769737465722061206E756C6C206163 PUSH1 0x44 DUP3 ADD MSTORE PUSH32 0x636F756E74000000000000000000000000000000000000000000000000000000 PUSH1 0x64 DUP3 ADD MSTORE PUSH1 0x84 ADD PUSH2 0x968 JUMP JUMPDEST PUSH1 0x1 PUSH1 0x1 PUSH1 0xA0 SHL SUB DUP3 AND PUSH1 0x0 SWAP1 DUP2 MSTORE PUSH1 0x7 PUSH1 0x20 MSTORE PUSH1 0x40 SWAP1 KECCAK256 DUP1 SLOAD PUSH1 0xFF AND DUP1 PUSH2 0x2C82 JUMPI POP PUSH1 0x1 SWAP4 SWAP3 POP POP POP JUMP JUMPDEST DUP2 PUSH1 0x3 ADD SLOAD DUP3 PUSH1 0x1 ADD SLOAD PUSH2 0x2C96 SWAP2 SWAP1 PUSH2 0x65FC JUMP JUMPDEST ISZERO PUSH2 0x2D09 JUMPI PUSH1 0x40 MLOAD PUSH3 0x461BCD PUSH1 0xE5 SHL DUP2 MSTORE PUSH1 0x20 PUSH1 0x4 DUP3 ADD MSTORE PUSH1 0x30 PUSH1 0x24 DUP3 ADD MSTORE PUSH32 0x536F433A2043616E6E6F7420756E726567697374657220616E206163636F756E PUSH1 0x44 DUP3 ADD MSTORE PUSH32 0x74207769746820612062616C616E636500000000000000000000000000000000 PUSH1 0x64 DUP3 ADD MSTORE PUSH1 0x84 ADD PUSH2 0x968 JUMP JUMPDEST PUSH1 0x1 PUSH1 0x1 PUSH1 0xA0 SHL SUB DUP5 AND PUSH1 0x0 DUP2 DUP2 MSTORE PUSH1 0x7 PUSH1 0x20 SWAP1 DUP2 MSTORE PUSH1 0x40 DUP1 DUP4 KECCAK256 DUP1 SLOAD PUSH32 0xFFFFFFFFFFFFFFFFFFFFFFFFFFFFFFFFFFFFFFFFFFFFFFFFFFFF000000000000 AND DUP2 SSTORE PUSH1 0x1 DUP2 ADD DUP5 SWAP1 SSTORE PUSH1 0x2 DUP2 ADD DUP5 SWAP1 SSTORE PUSH1 0x3 DUP2 ADD DUP5 SWAP1 SSTORE PUSH1 0x4 ADD DUP1 SLOAD PUSH20 0xFFFFFFFFFFFFFFFFFFFFFFFFFFFFFFFFFFFFFFFF NOT AND SWAP1 SSTORE MLOAD SWAP2 DUP3 MSTORE PUSH32 0x9D26F700287350F2EB871FDCF5B52A588ABEFE0ADD47C4E509E835FA4C9A294A SWAP2 ADD PUSH2 0x1631 JUMP JUMPDEST CALLER PUSH1 0x0 SWAP1 DUP2 MSTORE PUSH1 0x9 PUSH1 0x20 MSTORE PUSH1 0x40 DUP2 KECCAK256 SLOAD PUSH1 0xFF AND PUSH2 0x2E2E JUMPI PUSH1 0x40 MLOAD PUSH3 0x461BCD PUSH1 0xE5 SHL DUP2 MSTORE PUSH1 0x20 PUSH1 0x4 DUP3 ADD MSTORE PUSH1 0x35 PUSH1 0x24 DUP3 ADD MSTORE PUSH32 0x536F433A204F6E6C79206120636F72726573706F6E64656E742062616E6B2063 PUSH1 0x44 DUP3 ADD MSTORE PUSH32 0x616E2063616C6C20746869732066756E6374696F6E0000000000000000000000 PUSH1 0x64 DUP3 ADD MSTORE PUSH1 0x84 ADD PUSH2 0x968 JUMP JUMPDEST CALLER PUSH1 0x0 DUP2 DUP2 MSTORE PUSH1 0x9 PUSH1 0x20 MSTORE PUSH1 0x40 DUP1 DUP3 KECCAK256 SWAP1 MLOAD PUSH32 0xCC47E9BD00000000000000000000000000000000000000000000000000000000 DUP2 MSTORE PUSH1 0x4 DUP2 ADD DUP7 SWAP1 MSTORE SWAP1 SWAP3 SWAP2 SWAP1 PUSH2 0x2EC7 SWAP1 DUP4 SWAP1 PUSH4 0xCC47E9BD SWAP1 PUSH1 0x24 ADD PUSH1 0x0 PUSH1 0x40 MLOAD DUP1 DUP4 SUB DUP2 DUP7 GAS STATICCALL ISZERO DUP1 ISZERO PUSH2 0x2E9A JUMPI RETURNDATASIZE PUSH1 0x0 DUP1 RETURNDATACOPY RETURNDATASIZE PUSH1 0x0 REVERT JUMPDEST POP POP POP POP PUSH1 0x40 MLOAD RETURNDATASIZE PUSH1 0x0 DUP3 RETURNDATACOPY PUSH1 0x1F RETURNDATASIZE SWAP1 DUP2 ADD PUSH1 0x1F NOT AND DUP3 ADD PUSH1 0x40 MSTORE PUSH2 0x2EC2 SWAP2 SWAP1 DUP2 ADD SWAP1 PUSH2 0x6817 JUMP JUMPDEST PUSH2 0x520B JUMP JUMPDEST PUSH1 0x1 DUP5 ADD SLOAD SWAP1 SWAP2 POP PUSH1 0x0 SWAP1 PUSH1 0x1 PUSH1 0x1 PUSH1 0xA0 SHL SUB AND PUSH1 0x1 PUSH1 0x1 PUSH1 0xA0 SHL SUB AND PUSH4 0xB69EF8A8 PUSH1 0x40 MLOAD DUP2 PUSH4 0xFFFFFFFF AND PUSH1 0xE0 SHL DUP2 MSTORE PUSH1 0x4 ADD PUSH1 0x20 PUSH1 0x40 MLOAD DUP1 DUP4 SUB DUP2 DUP7 GAS STATICCALL ISZERO DUP1 ISZERO PUSH2 0x2F18 JUMPI RETURNDATASIZE PUSH1 0x0 DUP1 RETURNDATACOPY RETURNDATASIZE PUSH1 0x0 REVERT JUMPDEST POP POP POP POP PUSH1 0x40 MLOAD RETURNDATASIZE PUSH1 0x1F NOT PUSH1 0x1F DUP3 ADD AND DUP3 ADD DUP1 PUSH1 0x40 MSTORE POP DUP2 ADD SWAP1 PUSH2 0x2F3C SWAP2 SWAP1 PUSH2 0x6516 JUMP JUMPDEST SWAP1 POP DUP1 DUP8 DUP6 PUSH1 0x2 ADD SLOAD PUSH2 0x2F4F SWAP2 SWAP1 PUSH2 0x65FC JUMP JUMPDEST EQ PUSH2 0x2FC2 JUMPI PUSH1 0x40 MLOAD PUSH3 0x461BCD PUSH1 0xE5 SHL DUP2 MSTORE PUSH1 0x20 PUSH1 0x4 DUP3 ADD MSTORE PUSH1 0x25 PUSH1 0x24 DUP3 ADD MSTORE PUSH32 0x536F433A204F7572206E6F7374726F20686173206E6F74206265656E20637265 PUSH1 0x44 DUP3 ADD MSTORE PUSH32 0x6469746564000000000000000000000000000000000000000000000000000000 PUSH1 0x64 DUP3 ADD MSTORE PUSH1 0x84 ADD PUSH2 0x968 JUMP JUMPDEST PUSH1 0x2 DUP5 ADD DUP2 SWAP1 SSTORE PUSH2 0x2FE3 DUP4 PUSH2 0x2FDC CALLDATASIZE DUP12 SWAP1 SUB DUP12 ADD DUP12 PUSH2 0x6591 JUMP JUMPDEST DUP10 DUP6 PUSH2 0x50E1 JUMP JUMPDEST SWAP9 SWAP8 POP POP POP POP POP POP POP POP JUMP JUMPDEST CALLER PUSH1 0x0 SWAP1 DUP2 MSTORE PUSH1 0x9 PUSH1 0x20 MSTORE PUSH1 0x40 DUP2 KECCAK256 SLOAD PUSH1 0xFF AND PUSH2 0x3074 JUMPI PUSH1 0x40 MLOAD PUSH3 0x461BCD PUSH1 0xE5 SHL DUP2 MSTORE PUSH1 0x20 PUSH1 0x4 DUP3 ADD MSTORE PUSH1 0x35 PUSH1 0x24 DUP3 ADD MSTORE PUSH32 0x536F433A204F6E6C79206120636F72726573706F6E64656E742062616E6B2063 PUSH1 0x44 DUP3 ADD MSTORE PUSH32 0x616E2063616C6C20746869732066756E6374696F6E0000000000000000000000 PUSH1 0x64 DUP3 ADD MSTORE PUSH1 0x84 ADD PUSH2 0x968 JUMP JUMPDEST CALLER PUSH1 0x0 SWAP1 DUP2 MSTORE PUSH1 0x9 PUSH1 0x20 SWAP1 DUP2 MSTORE PUSH1 0x40 DUP1 DUP4 KECCAK256 DUP1 SLOAD DUP3 MLOAD PUSH1 0x60 DUP2 ADD DUP5 MSTORE PUSH1 0x1 DUP4 ADD SLOAD PUSH1 0x1 PUSH1 0x1 PUSH1 0xA0 SHL SUB SWAP1 DUP2 AND DUP3 MSTORE DUP2 DUP7 ADD DUP8 SWAP1 MSTORE DUP2 DUP6 ADD DUP8 SWAP1 MSTORE DUP5 MLOAD DUP1 DUP7 ADD SWAP1 SWAP6 MSTORE PUSH1 0xF DUP6 MSTORE PUSH32 0x4E657474696E6720726571756573740000000000000000000000000000000000 SWAP6 DUP6 ADD SWAP6 SWAP1 SWAP6 MSTORE SWAP2 SWAP5 SWAP4 PUSH2 0x30F9 SWAP4 PUSH2 0x100 SWAP1 SWAP3 DIV AND SWAP2 SWAP1 DUP9 SWAP1 PUSH2 0x441F JUMP JUMPDEST PUSH1 0x1 DUP4 ADD SLOAD SWAP1 SWAP2 POP PUSH1 0x0 SWAP1 PUSH1 0x1 PUSH1 0x1 PUSH1 0xA0 SHL SUB AND PUSH1 0x1 PUSH1 0x1 PUSH1 0xA0 SHL SUB AND PUSH4 0xB69EF8A8 PUSH1 0x40 MLOAD DUP2 PUSH4 0xFFFFFFFF AND PUSH1 0xE0 SHL DUP2 MSTORE PUSH1 0x4 ADD PUSH1 0x20 PUSH1 0x40 MLOAD DUP1 DUP4 SUB DUP2 DUP7 GAS STATICCALL ISZERO DUP1 ISZERO PUSH2 0x314A JUMPI RETURNDATASIZE PUSH1 0x0 DUP1 RETURNDATACOPY RETURNDATASIZE PUSH1 0x0 REVERT JUMPDEST POP POP POP POP PUSH1 0x40 MLOAD RETURNDATASIZE PUSH1 0x1F NOT PUSH1 0x1F DUP3 ADD AND DUP3 ADD DUP1 PUSH1 0x40 MSTORE POP DUP2 ADD SWAP1 PUSH2 0x316E SWAP2 SWAP1 PUSH2 0x6516 JUMP JUMPDEST SWAP1 POP PUSH2 0x317A DUP7 DUP3 PUSH2 0x65FC JUMP JUMPDEST DUP4 PUSH1 0x2 ADD SLOAD EQ PUSH2 0x31F2 JUMPI PUSH1 0x40 MLOAD PUSH3 0x461BCD PUSH1 0xE5 SHL DUP2 MSTORE PUSH1 0x20 PUSH1 0x4 DUP3 ADD MSTORE PUSH1 0x35 PUSH1 0x24 DUP3 ADD MSTORE PUSH32 0x536F433A204F7572206E6F7374726F20686173206E6F74206265656E20646562 PUSH1 0x44 DUP3 ADD MSTORE PUSH32 0x69746564206265666F726520746869732063616C6C0000000000000000000000 PUSH1 0x64 DUP3 ADD MSTORE PUSH1 0x84 ADD PUSH2 0x968 JUMP JUMPDEST DUP3 SLOAD PUSH1 0x0 SWAP1 PUSH2 0x3210 SWAP1 PUSH2 0x100 SWAP1 DIV PUSH1 0x1 PUSH1 0x1 PUSH1 0xA0 SHL SUB AND DUP9 DUP6 PUSH2 0x4CBB JUMP JUMPDEST PUSH1 0x2 SWAP1 SWAP5 ADD SWAP2 SWAP1 SWAP2 SSTORE POP SWAP1 SWAP2 POP POP SWAP3 SWAP2 POP POP JUMP JUMPDEST PUSH1 0x40 DUP1 MLOAD PUSH1 0xC0 DUP2 ADD DUP3 MSTORE PUSH1 0x0 DUP1 DUP3 MSTORE DUP3 MLOAD PUSH1 0x60 DUP1 DUP3 ADD DUP6 MSTORE DUP3 DUP3 MSTORE PUSH1 0x20 DUP1 DUP4 ADD DUP5 SWAP1 MSTORE DUP3 DUP7 ADD DUP5 SWAP1 MSTORE DUP5 ADD SWAP2 SWAP1 SWAP2 MSTORE SWAP3 DUP3 ADD DUP2 SWAP1 MSTORE DUP3 DUP3 ADD MSTORE PUSH1 0x80 DUP2 ADD DUP3 SWAP1 MSTORE PUSH1 0xA0 DUP2 ADD SWAP2 SWAP1 SWAP2 MSTORE PUSH1 0x0 DUP3 DUP2 MSTORE PUSH1 0xB PUSH1 0x20 SWAP1 DUP2 MSTORE PUSH1 0x40 SWAP2 DUP3 SWAP1 KECCAK256 DUP3 MLOAD PUSH1 0xC0 DUP2 ADD DUP5 MSTORE DUP2 SLOAD PUSH1 0x1 PUSH1 0x1 PUSH1 0xA0 SHL SUB SWAP1 DUP2 AND DUP3 MSTORE DUP5 MLOAD PUSH1 0x60 DUP1 DUP3 ADD DUP8 MSTORE PUSH1 0x1 DUP6 ADD SLOAD SWAP3 DUP4 AND DUP3 MSTORE PUSH1 0x1 PUSH1 0xA0 SHL SWAP1 SWAP3 DIV PUSH1 0xA8 SHL PUSH1 0x1 PUSH1 0x1 PUSH1 0xA8 SHL SUB NOT AND DUP2 DUP7 ADD MSTORE PUSH1 0x2 DUP5 ADD SLOAD DUP2 DUP8 ADD MSTORE SWAP4 DUP3 ADD SWAP4 SWAP1 SWAP4 MSTORE PUSH1 0x3 DUP3 ADD SLOAD SWAP4 DUP2 ADD SWAP4 SWAP1 SWAP4 MSTORE PUSH1 0x4 DUP1 DUP3 ADD SLOAD SWAP2 SWAP3 DUP5 ADD SWAP2 PUSH1 0xFF AND SWAP1 DUP2 GT ISZERO PUSH2 0x32FB JUMPI PUSH2 0x32FB PUSH2 0x623A JUMP JUMPDEST PUSH1 0x4 DUP2 GT ISZERO PUSH2 0x330C JUMPI PUSH2 0x330C PUSH2 0x623A JUMP JUMPDEST DUP2 MSTORE PUSH1 0x20 ADD PUSH1 0x5 DUP3 ADD DUP1 SLOAD PUSH2 0x3320 SWAP1 PUSH2 0x664E JUMP JUMPDEST DUP1 PUSH1 0x1F ADD PUSH1 0x20 DUP1 SWAP2 DIV MUL PUSH1 0x20 ADD PUSH1 0x40 MLOAD SWAP1 DUP2 ADD PUSH1 0x40 MSTORE DUP1 SWAP3 SWAP2 SWAP1 DUP2 DUP2 MSTORE PUSH1 0x20 ADD DUP3 DUP1 SLOAD PUSH2 0x334C SWAP1 PUSH2 0x664E JUMP JUMPDEST DUP1 ISZERO PUSH2 0x3399 JUMPI DUP1 PUSH1 0x1F LT PUSH2 0x336E JUMPI PUSH2 0x100 DUP1 DUP4 SLOAD DIV MUL DUP4 MSTORE SWAP2 PUSH1 0x20 ADD SWAP2 PUSH2 0x3399 JUMP JUMPDEST DUP3 ADD SWAP2 SWAP1 PUSH1 0x0 MSTORE PUSH1 0x20 PUSH1 0x0 KECCAK256 SWAP1 JUMPDEST DUP2 SLOAD DUP2 MSTORE SWAP1 PUSH1 0x1 ADD SWAP1 PUSH1 0x20 ADD DUP1 DUP4 GT PUSH2 0x337C JUMPI DUP3 SWAP1 SUB PUSH1 0x1F AND DUP3 ADD SWAP2 JUMPDEST POP POP POP POP POP DUP2 MSTORE PUSH1 0x20 ADD PUSH1 0x6 DUP3 ADD DUP1 SLOAD PUSH2 0x33B2 SWAP1 PUSH2 0x664E JUMP JUMPDEST DUP1 PUSH1 0x1F ADD PUSH1 0x20 DUP1 SWAP2 DIV MUL PUSH1 0x20 ADD PUSH1 0x40 MLOAD SWAP1 DUP2 ADD PUSH1 0x40 MSTORE DUP1 SWAP3 SWAP2 SWAP1 DUP2 DUP2 MSTORE PUSH1 0x20 ADD DUP3 DUP1 SLOAD PUSH2 0x33DE SWAP1 PUSH2 0x664E JUMP JUMPDEST DUP1 ISZERO PUSH2 0x342B JUMPI DUP1 PUSH1 0x1F LT PUSH2 0x3400 JUMPI PUSH2 0x100 DUP1 DUP4 SLOAD DIV MUL DUP4 MSTORE SWAP2 PUSH1 0x20 ADD SWAP2 PUSH2 0x342B JUMP JUMPDEST DUP3 ADD SWAP2 SWAP1 PUSH1 0x0 MSTORE PUSH1 0x20 PUSH1 0x0 KECCAK256 SWAP1 JUMPDEST DUP2 SLOAD DUP2 MSTORE SWAP1 PUSH1 0x1 ADD SWAP1 PUSH1 0x20 ADD DUP1 DUP4 GT PUSH2 0x340E JUMPI DUP3 SWAP1 SUB PUSH1 0x1F AND DUP3 ADD SWAP2 JUMPDEST POP POP POP POP POP DUP2 MSTORE POP POP SWAP1 POP SWAP2 SWAP1 POP JUMP JUMPDEST CALLER PUSH1 0x0 SWAP1 DUP2 MSTORE PUSH1 0x7 PUSH1 0x20 MSTORE PUSH1 0x40 DUP2 KECCAK256 SLOAD PUSH1 0xFF AND PUSH2 0x34C0 JUMPI PUSH1 0x40 MLOAD PUSH3 0x461BCD PUSH1 0xE5 SHL DUP2 MSTORE PUSH1 0x20 PUSH1 0x4 DUP3 ADD MSTORE PUSH1 0x35 PUSH1 0x24 DUP3 ADD MSTORE PUSH32 0x536F433A204F6E6C7920612072656769737465726564206163636F756E742063 PUSH1 0x44 DUP3 ADD MSTORE PUSH32 0x616E2063616C6C20746869732066756E6374696F6E0000000000000000000000 PUSH1 0x64 DUP3 ADD MSTORE PUSH1 0x84 ADD PUSH2 0x968 JUMP JUMPDEST PUSH1 0x0 PUSH2 0x34D5 CALLER PUSH2 0x11E7 CALLDATASIZE DUP10 SWAP1 SUB DUP10 ADD DUP10 PUSH2 0x6591 JUMP JUMPDEST SWAP1 POP PUSH2 0x34EA CALLER PUSH2 0x1239 CALLDATASIZE DUP10 SWAP1 SUB DUP10 ADD DUP10 PUSH2 0x6591 JUMP JUMPDEST SWAP7 SWAP6 POP POP POP POP POP POP JUMP JUMPDEST PUSH1 0x0 DUP1 SLOAD PUSH1 0x1 PUSH1 0x1 PUSH1 0xA0 SHL SUB AND CALLER EQ DUP1 PUSH2 0x351D JUMPI POP CALLER PUSH1 0x0 SWAP1 DUP2 MSTORE PUSH1 0x1 PUSH1 0x20 MSTORE PUSH1 0x40 SWAP1 KECCAK256 SLOAD PUSH1 0xFF AND JUMPDEST PUSH2 0x357F JUMPI PUSH1 0x40 MLOAD PUSH3 0x461BCD PUSH1 0xE5 SHL DUP2 MSTORE PUSH1 0x20 PUSH1 0x4 DUP3 ADD MSTORE PUSH1 0x2D PUSH1 0x24 DUP3 ADD MSTORE PUSH32 0x574C533A2043616C6C6572206E6F7420616C6C6F77656420746F20706572666F PUSH1 0x44 DUP3 ADD MSTORE PUSH13 0x3936903A34329030B1BA34B7B7 PUSH1 0x99 SHL PUSH1 0x64 DUP3 ADD MSTORE PUSH1 0x84 ADD PUSH2 0x968 JUMP JUMPDEST PUSH1 0x1 PUSH1 0x1 PUSH1 0xA0 SHL SUB DUP5 AND PUSH2 0x35D5 JUMPI PUSH1 0x40 MLOAD PUSH3 0x461BCD PUSH1 0xE5 SHL DUP2 MSTORE PUSH1 0x20 PUSH1 0x4 DUP3 ADD DUP2 SWAP1 MSTORE PUSH1 0x24 DUP3 ADD MSTORE PUSH32 0x536F433A2043616E6E6F742072656769737465722061206E756C6C2062616E6B PUSH1 0x44 DUP3 ADD MSTORE PUSH1 0x64 ADD PUSH2 0x968 JUMP JUMPDEST PUSH2 0x35DE DUP5 PUSH2 0x5229 JUMP JUMPDEST PUSH2 0x3650 JUMPI PUSH1 0x40 MLOAD PUSH3 0x461BCD PUSH1 0xE5 SHL DUP2 MSTORE PUSH1 0x20 PUSH1 0x4 DUP3 ADD MSTORE PUSH1 0x3C PUSH1 0x24 DUP3 ADD MSTORE PUSH32 0x536F433A205468652062616E6B20646F6573206E6F7420686176652074686520 PUSH1 0x44 DUP3 ADD MSTORE PUSH32 0x73616D6520646566696E6974696F6E20617320746869732062616E6B00000000 PUSH1 0x64 DUP3 ADD MSTORE PUSH1 0x84 ADD PUSH2 0x968 JUMP JUMPDEST PUSH1 0x1 PUSH1 0x1 PUSH1 0xA0 SHL SUB DUP5 DUP2 AND PUSH1 0x0 DUP2 DUP2 MSTORE PUSH1 0x9 PUSH1 0x20 MSTORE PUSH1 0x40 DUP1 DUP3 KECCAK256 DUP1 SLOAD PUSH32 0xFFFFFFFFFFFFFFFFFFFFFF0000000000000000000000000000000000000000FF DUP2 AND PUSH2 0x100 DUP11 DUP9 AND MUL OR DUP3 SSTORE PUSH1 0x1 DUP3 ADD DUP1 SLOAD PUSH20 0xFFFFFFFFFFFFFFFFFFFFFFFFFFFFFFFFFFFFFFFF NOT AND SWAP7 DUP10 AND SWAP7 SWAP1 SWAP7 OR SWAP1 SWAP6 SSTORE DUP2 MLOAD PUSH32 0xDC01929700000000000000000000000000000000000000000000000000000000 DUP2 MSTORE DUP3 MLOAD SWAP2 SWAP6 PUSH1 0xFF AND SWAP5 DUP5 SWAP4 SWAP1 SWAP3 PUSH4 0xDC019297 SWAP3 PUSH1 0x4 DUP1 DUP3 ADD SWAP4 SWAP3 SWAP2 DUP3 SWAP1 SUB ADD DUP2 DUP7 GAS STATICCALL ISZERO DUP1 ISZERO PUSH2 0x3718 JUMPI RETURNDATASIZE PUSH1 0x0 DUP1 RETURNDATACOPY RETURNDATASIZE PUSH1 0x0 REVERT JUMPDEST POP POP POP POP PUSH1 0x40 MLOAD RETURNDATASIZE PUSH1 0x1F NOT PUSH1 0x1F DUP3 ADD AND DUP3 ADD DUP1 PUSH1 0x40 MSTORE POP DUP2 ADD SWAP1 PUSH2 0x373C SWAP2 SWAP1 PUSH2 0x6915 JUMP JUMPDEST PUSH32 0xFFFFFFFFFF000000000000000000000000000000000000000000000000000000 DUP3 DUP2 AND PUSH1 0x0 SWAP1 DUP2 MSTORE PUSH1 0xA PUSH1 0x20 SWAP1 DUP2 MSTORE PUSH1 0x40 DUP1 DUP4 KECCAK256 SWAP4 DUP6 AND DUP4 MSTORE SWAP3 SWAP1 MSTORE KECCAK256 DUP1 SLOAD PUSH20 0xFFFFFFFFFFFFFFFFFFFFFFFFFFFFFFFFFFFFFFFF NOT AND PUSH1 0x1 PUSH1 0x1 PUSH1 0xA0 SHL SUB DUP13 AND OR SWAP1 SSTORE SWAP1 SWAP3 POP SWAP1 POP DUP3 PUSH2 0x29D3 JUMPI DUP4 SLOAD PUSH1 0xFF NOT AND PUSH1 0x1 SWAP1 DUP2 OR DUP6 SSTORE PUSH1 0x40 MLOAD SWAP1 DUP2 MSTORE PUSH1 0x1 PUSH1 0x1 PUSH1 0xA0 SHL SUB DUP10 AND SWAP1 PUSH32 0xF66BA78954208CBD523E44F3C7C490D8D4D2B13E4C257ECF87C3002F7282DE65 SWAP1 PUSH1 0x20 ADD PUSH1 0x40 MLOAD DUP1 SWAP2 SUB SWAP1 LOG2 PUSH1 0x1 PUSH1 0x1 PUSH1 0xA0 SHL SUB DUP8 AND PUSH1 0x0 SWAP1 DUP2 MSTORE PUSH1 0x7 PUSH1 0x20 MSTORE PUSH1 0x40 SWAP1 KECCAK256 SLOAD PUSH1 0xFF AND ISZERO PUSH2 0x29D3 JUMPI PUSH1 0x1 PUSH1 0x1 PUSH1 0xA0 SHL SUB DUP8 DUP2 AND PUSH1 0x0 SWAP1 DUP2 MSTORE PUSH1 0x7 PUSH1 0x20 MSTORE PUSH1 0x40 SWAP1 KECCAK256 PUSH1 0x4 ADD DUP1 SLOAD PUSH20 0xFFFFFFFFFFFFFFFFFFFFFFFFFFFFFFFFFFFFFFFF NOT AND SWAP2 DUP11 AND SWAP2 SWAP1 SWAP2 OR SWAP1 SSTORE POP PUSH1 0x1 SWAP8 SWAP7 POP POP POP POP POP POP POP JUMP JUMPDEST PUSH2 0x386A PUSH2 0x4EF0 JUMP JUMPDEST PUSH1 0x1 PUSH1 0x1 PUSH1 0xA0 SHL SUB DUP2 AND PUSH2 0x38E6 JUMPI PUSH1 0x40 MLOAD PUSH3 0x461BCD PUSH1 0xE5 SHL DUP2 MSTORE PUSH1 0x20 PUSH1 0x4 DUP3 ADD MSTORE PUSH1 0x26 PUSH1 0x24 DUP3 ADD MSTORE PUSH32 0x4F776E61626C653A206E6577206F776E657220697320746865207A65726F2061 PUSH1 0x44 DUP3 ADD MSTORE PUSH32 0x6464726573730000000000000000000000000000000000000000000000000000 PUSH1 0x64 DUP3 ADD MSTORE PUSH1 0x84 ADD PUSH2 0x968 JUMP JUMPDEST PUSH2 0x38EF DUP2 PUSH2 0x4F4A JUMP JUMPDEST POP JUMP JUMPDEST PUSH1 0x1 PUSH1 0x1 PUSH1 0xA0 SHL SUB DUP2 AND PUSH1 0x0 SWAP1 DUP2 MSTORE PUSH1 0x7 PUSH1 0x20 MSTORE PUSH1 0x40 DUP2 KECCAK256 SLOAD PUSH1 0x60 SWAP2 PUSH3 0x10000 SWAP1 SWAP2 DIV PUSH4 0xFFFFFFFF AND SWAP1 DUP2 SWAP1 SUB PUSH2 0x396B JUMPI PUSH1 0x40 MLOAD PUSH3 0x461BCD PUSH1 0xE5 SHL DUP2 MSTORE PUSH1 0x20 PUSH1 0x4 DUP3 ADD MSTORE PUSH1 0x1B PUSH1 0x24 DUP3 ADD MSTORE PUSH32 0x536F433A204163636F756E74206E6F7420726567697374657265640000000000 PUSH1 0x44 DUP3 ADD MSTORE PUSH1 0x64 ADD PUSH2 0x968 JUMP JUMPDEST PUSH1 0x6 SLOAD PUSH1 0x1 PUSH1 0x1 PUSH1 0xA0 SHL SUB AND PUSH2 0x39C3 JUMPI PUSH1 0x40 MLOAD PUSH3 0x461BCD PUSH1 0xE5 SHL DUP2 MSTORE PUSH1 0x20 PUSH1 0x4 DUP3 ADD MSTORE PUSH1 0x1C PUSH1 0x24 DUP3 ADD MSTORE PUSH32 0x536F433A204942414E2063616C63756C61746F72206E6F742073657400000000 PUSH1 0x44 DUP3 ADD MSTORE PUSH1 0x64 ADD PUSH2 0x968 JUMP JUMPDEST PUSH1 0x2 SLOAD PUSH1 0x40 MLOAD PUSH12 0x10000000000000000000000 SWAP1 SWAP2 DIV PUSH1 0xD8 SHL PUSH32 0xFFFFFFFFFF000000000000000000000000000000000000000000000000000000 AND PUSH1 0x20 DUP3 ADD MSTORE PUSH1 0x0 SWAP1 PUSH1 0x25 ADD PUSH1 0x40 DUP1 MLOAD PUSH1 0x1F NOT DUP2 DUP5 SUB ADD DUP2 MSTORE SWAP1 DUP3 SWAP1 MSTORE PUSH1 0x2 SLOAD PUSH17 0x100000000000000000000000000000000 SWAP1 DIV PUSH1 0xD8 SHL PUSH32 0xFFFFFFFFFF000000000000000000000000000000000000000000000000000000 AND PUSH1 0x20 DUP4 ADD MSTORE SWAP2 POP PUSH1 0x0 SWAP1 PUSH1 0x25 ADD PUSH1 0x40 DUP1 MLOAD DUP1 DUP4 SUB PUSH1 0x1F NOT ADD DUP2 MSTORE SWAP1 DUP3 SWAP1 MSTORE PUSH1 0x6 SLOAD PUSH32 0xE939567900000000000000000000000000000000000000000000000000000000 DUP4 MSTORE PUSH4 0xFFFFFFFF DUP7 AND PUSH1 0x4 DUP5 ADD MSTORE SWAP1 SWAP3 POP PUSH1 0x0 SWAP2 PUSH1 0x1 PUSH1 0x1 PUSH1 0xA0 SHL SUB SWAP1 SWAP2 AND SWAP1 PUSH4 0xE9395679 SWAP1 PUSH1 0x24 ADD PUSH1 0x0 PUSH1 0x40 MLOAD DUP1 DUP4 SUB DUP2 DUP7 GAS STATICCALL ISZERO DUP1 ISZERO PUSH2 0x3ADE JUMPI RETURNDATASIZE PUSH1 0x0 DUP1 RETURNDATACOPY RETURNDATASIZE PUSH1 0x0 REVERT JUMPDEST POP POP POP POP PUSH1 0x40 MLOAD RETURNDATASIZE PUSH1 0x0 DUP3 RETURNDATACOPY PUSH1 0x1F RETURNDATASIZE SWAP1 DUP2 ADD PUSH1 0x1F NOT AND DUP3 ADD PUSH1 0x40 MSTORE PUSH2 0x3B06 SWAP2 SWAP1 DUP2 ADD SWAP1 PUSH2 0x694F JUMP JUMPDEST PUSH1 0x2 SLOAD PUSH1 0x40 MLOAD PUSH1 0x1 PUSH1 0xA8 SHL SWAP1 SWAP2 DIV PUSH1 0xE8 SHL PUSH32 0xFFFFFF0000000000000000000000000000000000000000000000000000000000 AND PUSH1 0x20 DUP3 ADD MSTORE SWAP1 SWAP2 POP PUSH1 0x0 SWAP1 PUSH1 0x23 ADD PUSH1 0x40 DUP1 MLOAD PUSH1 0x1F NOT DUP2 DUP5 SUB ADD DUP2 MSTORE SWAP1 DUP3 SWAP1 MSTORE PUSH1 0x6 SLOAD PUSH32 0x830A35BF00000000000000000000000000000000000000000000000000000000 DUP4 MSTORE SWAP1 SWAP3 POP PUSH1 0x1 PUSH1 0x1 PUSH1 0xA0 SHL SUB AND SWAP1 PUSH4 0x830A35BF SWAP1 PUSH2 0x3BA2 SWAP1 DUP6 SWAP1 PUSH1 0x8 SWAP1 PUSH1 0x4 ADD PUSH2 0x6984 JUMP JUMPDEST PUSH1 0x0 PUSH1 0x40 MLOAD DUP1 DUP4 SUB DUP2 DUP7 GAS STATICCALL ISZERO DUP1 ISZERO PUSH2 0x3BBF JUMPI RETURNDATASIZE PUSH1 0x0 DUP1 RETURNDATACOPY RETURNDATASIZE PUSH1 0x0 REVERT JUMPDEST POP POP POP POP PUSH1 0x40 MLOAD RETURNDATASIZE PUSH1 0x0 DUP3 RETURNDATACOPY PUSH1 0x1F RETURNDATASIZE SWAP1 DUP2 ADD PUSH1 0x1F NOT AND DUP3 ADD PUSH1 0x40 MSTORE PUSH2 0x3BE7 SWAP2 SWAP1 DUP2 ADD SWAP1 PUSH2 0x694F JUMP JUMPDEST SWAP2 POP DUP1 PUSH1 0x0 DUP2 MLOAD DUP2 LT PUSH2 0x3BFC JUMPI PUSH2 0x3BFC PUSH2 0x64A1 JUMP JUMPDEST PUSH1 0x20 ADD ADD MLOAD PUSH1 0xF8 SHR PUSH1 0xF8 SHL DUP2 PUSH1 0x1 DUP2 MLOAD DUP2 LT PUSH2 0x3C1A JUMPI PUSH2 0x3C1A PUSH2 0x64A1 JUMP JUMPDEST PUSH1 0x20 ADD ADD MLOAD PUSH1 0xF8 SHR PUSH1 0xF8 SHL DUP3 PUSH1 0x2 DUP2 MLOAD DUP2 LT PUSH2 0x3C38 JUMPI PUSH2 0x3C38 PUSH2 0x64A1 JUMP JUMPDEST PUSH1 0x20 ADD ADD MLOAD PUSH1 0xF8 SHR PUSH1 0xF8 SHL DUP5 PUSH1 0x40 MLOAD PUSH1 0x20 ADD PUSH2 0x3C57 SWAP5 SWAP4 SWAP3 SWAP2 SWAP1 PUSH2 0x69A9 JUMP JUMPDEST PUSH1 0x40 DUP1 MLOAD PUSH1 0x1F NOT DUP2 DUP5 SUB ADD DUP2 MSTORE SWAP1 DUP3 SWAP1 MSTORE PUSH1 0x6 SLOAD PUSH32 0xAF3DA95700000000000000000000000000000000000000000000000000000000 DUP4 MSTORE SWAP1 SWAP4 POP PUSH1 0x0 SWAP2 PUSH1 0x1 PUSH1 0x1 PUSH1 0xA0 SHL SUB SWAP1 SWAP2 AND SWAP1 PUSH4 0xAF3DA957 SWAP1 PUSH2 0x3CB8 SWAP1 DUP9 SWAP1 DUP9 SWAP1 DUP9 SWAP1 PUSH1 0x4 ADD PUSH2 0x6A04 JUMP JUMPDEST PUSH1 0x0 PUSH1 0x40 MLOAD DUP1 DUP4 SUB DUP2 DUP7 GAS STATICCALL ISZERO DUP1 ISZERO PUSH2 0x3CD5 JUMPI RETURNDATASIZE PUSH1 0x0 DUP1 RETURNDATACOPY RETURNDATASIZE PUSH1 0x0 REVERT JUMPDEST POP POP POP POP PUSH1 0x40 MLOAD RETURNDATASIZE PUSH1 0x0 DUP3 RETURNDATACOPY PUSH1 0x1F RETURNDATASIZE SWAP1 DUP2 ADD PUSH1 0x1F NOT AND DUP3 ADD PUSH1 0x40 MSTORE PUSH2 0x2FE3 SWAP2 SWAP1 DUP2 ADD SWAP1 PUSH2 0x694F JUMP JUMPDEST PUSH1 0x0 SLOAD PUSH1 0x1 PUSH1 0x1 PUSH1 0xA0 SHL SUB AND CALLER EQ DUP1 PUSH2 0x3D25 JUMPI POP CALLER PUSH1 0x0 SWAP1 DUP2 MSTORE PUSH1 0x1 PUSH1 0x20 MSTORE PUSH1 0x40 SWAP1 KECCAK256 SLOAD PUSH1 0xFF AND JUMPDEST PUSH2 0x3D87 JUMPI PUSH1 0x40 MLOAD PUSH3 0x461BCD PUSH1 0xE5 SHL DUP2 MSTORE PUSH1 0x20 PUSH1 0x4 DUP3 ADD MSTORE PUSH1 0x2D PUSH1 0x24 DUP3 ADD MSTORE PUSH32 0x574C533A2043616C6C6572206E6F7420616C6C6F77656420746F20706572666F PUSH1 0x44 DUP3 ADD MSTORE PUSH13 0x3936903A34329030B1BA34B7B7 PUSH1 0x99 SHL PUSH1 0x64 DUP3 ADD MSTORE PUSH1 0x84 ADD PUSH2 0x968 JUMP JUMPDEST PUSH1 0x0 SLOAD PUSH1 0x1 PUSH1 0x1 PUSH1 0xA0 SHL SUB AND CALLER EQ DUP1 PUSH2 0x3DAF JUMPI POP CALLER PUSH1 0x0 SWAP1 DUP2 MSTORE PUSH1 0x1 PUSH1 0x20 MSTORE PUSH1 0x40 SWAP1 KECCAK256 SLOAD PUSH1 0xFF AND JUMPDEST PUSH2 0x3E11 JUMPI PUSH1 0x40 MLOAD PUSH3 0x461BCD PUSH1 0xE5 SHL DUP2 MSTORE PUSH1 0x20 PUSH1 0x4 DUP3 ADD MSTORE PUSH1 0x2D PUSH1 0x24 DUP3 ADD MSTORE PUSH32 0x574C533A2043616C6C6572206E6F7420616C6C6F77656420746F20706572666F PUSH1 0x44 DUP3 ADD MSTORE PUSH13 0x3936903A34329030B1BA34B7B7 PUSH1 0x99 SHL PUSH1 0x64 DUP3 ADD MSTORE PUSH1 0x84 ADD PUSH2 0x968 JUMP JUMPDEST PUSH1 0x1 PUSH1 0x1 PUSH1 0xA0 SHL SUB DUP2 AND PUSH1 0x0 DUP2 DUP2 MSTORE PUSH1 0x1 PUSH1 0x20 SWAP1 DUP2 MSTORE PUSH1 0x40 DUP1 DUP4 KECCAK256 DUP1 SLOAD PUSH1 0xFF NOT AND SWAP1 SSTORE MLOAD SWAP2 DUP3 MSTORE PUSH32 0xA54714518C5D275FDCD3D2A461E4858E4E8CB04FB93CD0BCA9D6D34115F26440 SWAP2 ADD PUSH2 0x2B44 JUMP JUMPDEST PUSH1 0x0 DUP1 SLOAD PUSH1 0x1 PUSH1 0x1 PUSH1 0xA0 SHL SUB AND CALLER EQ DUP1 PUSH2 0x3E89 JUMPI POP CALLER PUSH1 0x0 SWAP1 DUP2 MSTORE PUSH1 0x1 PUSH1 0x20 MSTORE PUSH1 0x40 SWAP1 KECCAK256 SLOAD PUSH1 0xFF AND JUMPDEST PUSH2 0x3EEB JUMPI PUSH1 0x40 MLOAD PUSH3 0x461BCD PUSH1 0xE5 SHL DUP2 MSTORE PUSH1 0x20 PUSH1 0x4 DUP3 ADD MSTORE PUSH1 0x2D PUSH1 0x24 DUP3 ADD MSTORE PUSH32 0x574C533A2043616C6C6572206E6F7420616C6C6F77656420746F20706572666F PUSH1 0x44 DUP3 ADD MSTORE PUSH13 0x3936903A34329030B1BA34B7B7 PUSH1 0x99 SHL PUSH1 0x64 DUP3 ADD MSTORE PUSH1 0x84 ADD PUSH2 0x968 JUMP JUMPDEST PUSH1 0x1 PUSH1 0x1 PUSH1 0xA0 SHL SUB DUP6 AND PUSH2 0x3F52 JUMPI PUSH1 0x40 MLOAD PUSH3 0x461BCD PUSH1 0xE5 SHL DUP2 MSTORE PUSH1 0x20 PUSH1 0x4 DUP3 ADD MSTORE PUSH1 0x28 PUSH1 0x24 DUP3 ADD MSTORE PUSH32 0x536F433A2043616E6E6F74206372656469742061206E756C6C206E6F7374726F PUSH1 0x44 DUP3 ADD MSTORE PUSH8 0x81858D8DBDD5B9D PUSH1 0xC2 SHL PUSH1 0x64 DUP3 ADD MSTORE PUSH1 0x84 ADD PUSH2 0x968 JUMP JUMPDEST PUSH1 0x0 PUSH2 0x3F5D DUP7 PUSH2 0x4FE4 JUMP JUMPDEST SWAP1 POP PUSH2 0x3F81 DUP2 PUSH1 0x1 PUSH1 0x1 PUSH1 0xA0 SHL SUB AND PUSH1 0x0 SWAP1 DUP2 MSTORE PUSH1 0x9 PUSH1 0x20 MSTORE PUSH1 0x40 SWAP1 KECCAK256 SLOAD PUSH1 0xFF AND SWAP1 JUMP JUMPDEST PUSH2 0x4019 JUMPI PUSH1 0x40 MLOAD PUSH3 0x461BCD PUSH1 0xE5 SHL DUP2 MSTORE PUSH1 0x20 PUSH1 0x4 DUP3 ADD MSTORE PUSH1 0x43 PUSH1 0x24 DUP3 ADD MSTORE PUSH32 0x536F433A20546865206163636F756E74206973206E6F742061206E6F7374726F PUSH1 0x44 DUP3 ADD MSTORE PUSH32 0x206F662061207265676973746572656420636F72726573706F6E64656E742062 PUSH1 0x64 DUP3 ADD MSTORE PUSH32 0x616E6B0000000000000000000000000000000000000000000000000000000000 PUSH1 0x84 DUP3 ADD MSTORE PUSH1 0xA4 ADD PUSH2 0x968 JUMP JUMPDEST PUSH1 0x1 PUSH1 0x1 PUSH1 0xA0 SHL SUB DUP2 DUP2 AND PUSH1 0x0 SWAP1 DUP2 MSTORE PUSH1 0x9 PUSH1 0x20 MSTORE PUSH1 0x40 SWAP1 KECCAK256 PUSH1 0x1 DUP2 ADD SLOAD SWAP1 SWAP2 DUP9 DUP2 AND SWAP2 AND EQ PUSH2 0x40B1 JUMPI PUSH1 0x40 MLOAD PUSH3 0x461BCD PUSH1 0xE5 SHL DUP2 MSTORE PUSH1 0x20 PUSH1 0x4 DUP3 ADD MSTORE PUSH1 0x3D PUSH1 0x24 DUP3 ADD MSTORE PUSH32 0x536F433A20546865206163636F756E74206973206E6F7420796F7572206E6F73 PUSH1 0x44 DUP3 ADD MSTORE PUSH32 0x74726F2061742074686520636F72726573706F6E64656E742062616E6B000000 PUSH1 0x64 DUP3 ADD MSTORE PUSH1 0x84 ADD PUSH2 0x968 JUMP JUMPDEST DUP1 SLOAD PUSH2 0x100 SWAP1 DIV PUSH1 0x1 PUSH1 0x1 PUSH1 0xA0 SHL SUB AND PUSH2 0x4133 JUMPI PUSH1 0x40 MLOAD PUSH3 0x461BCD PUSH1 0xE5 SHL DUP2 MSTORE PUSH1 0x20 PUSH1 0x4 DUP3 ADD MSTORE PUSH1 0x38 PUSH1 0x24 DUP3 ADD MSTORE PUSH32 0x536F433A2054686520636F72726573706F6E64656E742062616E6B2068617320 PUSH1 0x44 DUP3 ADD MSTORE PUSH32 0x6E6F206C6F726F206163636F756E74207769746820796F750000000000000000 PUSH1 0x64 DUP3 ADD MSTORE PUSH1 0x84 ADD PUSH2 0x968 JUMP JUMPDEST PUSH1 0x40 DUP1 MLOAD PUSH1 0x60 DUP2 ADD DUP3 MSTORE PUSH1 0x1 PUSH1 0x1 PUSH1 0xA0 SHL SUB DUP10 AND DUP2 MSTORE PUSH1 0x0 PUSH1 0x20 DUP1 DUP4 ADD DUP3 SWAP1 MSTORE DUP3 DUP5 ADD DUP3 SWAP1 MSTORE DUP4 MLOAD PUSH1 0x1F DUP10 ADD DUP3 SWAP1 DIV DUP3 MUL DUP2 ADD DUP3 ADD SWAP1 SWAP5 MSTORE DUP8 DUP5 MSTORE SWAP2 SWAP3 SWAP1 SWAP2 PUSH2 0x419C SWAP2 DUP4 SWAP2 DUP6 SWAP2 DUP13 SWAP2 DUP13 SWAP1 DUP13 SWAP1 DUP2 SWAP1 DUP5 ADD DUP4 DUP3 DUP1 DUP3 DUP5 CALLDATACOPY PUSH1 0x0 SWAP3 ADD SWAP2 SWAP1 SWAP2 MSTORE POP PUSH2 0x441F SWAP3 POP POP POP JUMP JUMPDEST DUP4 SLOAD SWAP1 SWAP2 POP PUSH1 0x0 SWAP1 PUSH2 0x41BD SWAP1 PUSH2 0x100 SWAP1 DIV PUSH1 0x1 PUSH1 0x1 PUSH1 0xA0 SHL SUB AND DUP11 DUP5 PUSH2 0x4583 JUMP JUMPDEST SWAP1 POP DUP1 DUP1 ISZERO PUSH2 0x427B JUMPI POP PUSH1 0x40 DUP1 MLOAD PUSH32 0xB8DA243E00000000000000000000000000000000000000000000000000000000 DUP2 MSTORE DUP5 MLOAD PUSH1 0x1 PUSH1 0x1 PUSH1 0xA0 SHL SUB SWAP1 DUP2 AND PUSH1 0x4 DUP4 ADD MSTORE PUSH1 0x20 DUP7 ADD MLOAD PUSH1 0x1 PUSH1 0x1 PUSH1 0xA8 SHL SUB NOT AND PUSH1 0x24 DUP4 ADD MSTORE SWAP2 DUP6 ADD MLOAD PUSH1 0x44 DUP3 ADD MSTORE PUSH1 0x64 DUP2 ADD DUP12 SWAP1 MSTORE PUSH1 0x84 DUP2 ADD DUP5 SWAP1 MSTORE SWAP1 DUP7 AND SWAP1 PUSH4 0xB8DA243E SWAP1 PUSH1 0xA4 ADD PUSH1 0x20 PUSH1 0x40 MLOAD DUP1 DUP4 SUB DUP2 PUSH1 0x0 DUP8 GAS CALL ISZERO DUP1 ISZERO PUSH2 0x4257 JUMPI RETURNDATASIZE PUSH1 0x0 DUP1 RETURNDATACOPY RETURNDATASIZE PUSH1 0x0 REVERT JUMPDEST POP POP POP POP PUSH1 0x40 MLOAD RETURNDATASIZE PUSH1 0x1F NOT PUSH1 0x1F DUP3 ADD AND DUP3 ADD DUP1 PUSH1 0x40 MSTORE POP DUP2 ADD SWAP1 PUSH2 0x427B SWAP2 SWAP1 PUSH2 0x6633 JUMP JUMPDEST PUSH1 0x1 DUP6 ADD SLOAD SWAP1 SWAP2 POP PUSH1 0x1 PUSH1 0x1 PUSH1 0xA0 SHL SUB AND PUSH1 0x1 PUSH1 0x1 PUSH1 0xA0 SHL SUB AND PUSH4 0xB69EF8A8 PUSH1 0x40 MLOAD DUP2 PUSH4 0xFFFFFFFF AND PUSH1 0xE0 SHL DUP2 MSTORE PUSH1 0x4 ADD PUSH1 0x20 PUSH1 0x40 MLOAD DUP1 DUP4 SUB DUP2 DUP7 GAS STATICCALL ISZERO DUP1 ISZERO PUSH2 0x42C9 JUMPI RETURNDATASIZE PUSH1 0x0 DUP1 RETURNDATACOPY RETURNDATASIZE PUSH1 0x0 REVERT JUMPDEST POP POP POP POP PUSH1 0x40 MLOAD RETURNDATASIZE PUSH1 0x1F NOT PUSH1 0x1F DUP3 ADD AND DUP3 ADD DUP1 PUSH1 0x40 MSTORE POP DUP2 ADD SWAP1 PUSH2 0x42ED SWAP2 SWAP1 PUSH2 0x6516 JUMP JUMPDEST PUSH1 0x2 SWAP1 SWAP5 ADD SWAP4 SWAP1 SWAP4 SSTORE POP SWAP1 SWAP3 POP POP POP SWAP5 SWAP4 POP POP POP POP JUMP JUMPDEST PUSH1 0x0 PUSH1 0x1 PUSH1 0x1 PUSH1 0xA0 SHL SUB DUP4 AND PUSH2 0x436D JUMPI PUSH1 0x40 MLOAD PUSH3 0x461BCD PUSH1 0xE5 SHL DUP2 MSTORE PUSH1 0x20 PUSH1 0x4 DUP3 ADD MSTORE PUSH1 0x28 PUSH1 0x24 DUP3 ADD MSTORE PUSH32 0x536F433A2043616E6E6F74206C6F636B2066756E6473206F662061206E756C6C PUSH1 0x44 DUP3 ADD MSTORE PUSH8 0x81858D8DBDD5B9D PUSH1 0xC2 SHL PUSH1 0x64 DUP3 ADD MSTORE PUSH1 0x84 ADD PUSH2 0x968 JUMP JUMPDEST PUSH1 0x1 PUSH1 0x1 PUSH1 0xA0 SHL SUB DUP4 AND PUSH1 0x0 SWAP1 DUP2 MSTORE PUSH1 0x7 PUSH1 0x20 MSTORE PUSH1 0x40 SWAP1 KECCAK256 SLOAD PUSH1 0xFF AND PUSH2 0x43FB JUMPI PUSH1 0x40 MLOAD PUSH3 0x461BCD PUSH1 0xE5 SHL DUP2 MSTORE PUSH1 0x20 PUSH1 0x4 DUP3 ADD MSTORE PUSH1 0x31 PUSH1 0x24 DUP3 ADD MSTORE PUSH32 0x536F433A2043616E6E6F74206C6F636B2066756E6473206F6620616E20756E72 PUSH1 0x44 DUP3 ADD MSTORE PUSH32 0x656769737465726564206163636F756E74000000000000000000000000000000 PUSH1 0x64 DUP3 ADD MSTORE PUSH1 0x84 ADD PUSH2 0x968 JUMP JUMPDEST PUSH2 0x440A DUP4 PUSH1 0x0 DUP1 DUP6 PUSH1 0x0 PUSH2 0x536E JUMP JUMPDEST POP PUSH1 0x1 SWAP3 SWAP2 POP POP JUMP JUMPDEST PUSH1 0x0 PUSH2 0xB21 DUP4 DUP4 PUSH2 0x5792 JUMP JUMPDEST PUSH1 0x4 DUP1 SLOAD PUSH1 0x0 SWAP2 DUP3 SWAP2 SWAP1 DUP3 PUSH2 0x4433 DUP4 PUSH2 0x64CD JUMP JUMPDEST SWAP2 SWAP1 POP SSTORE SWAP1 POP PUSH1 0x40 MLOAD DUP1 PUSH1 0xC0 ADD PUSH1 0x40 MSTORE DUP1 DUP8 PUSH1 0x1 PUSH1 0x1 PUSH1 0xA0 SHL SUB AND DUP2 MSTORE PUSH1 0x20 ADD DUP7 DUP2 MSTORE PUSH1 0x20 ADD DUP6 DUP2 MSTORE PUSH1 0x20 ADD PUSH1 0x0 PUSH1 0x4 DUP2 GT ISZERO PUSH2 0x4472 JUMPI PUSH2 0x4472 PUSH2 0x623A JUMP JUMPDEST DUP2 MSTORE PUSH1 0x20 DUP1 DUP3 ADD DUP7 SWAP1 MSTORE PUSH1 0x40 DUP1 MLOAD DUP1 DUP4 ADD DUP3 MSTORE PUSH1 0x0 DUP1 DUP3 MSTORE SWAP4 DUP3 ADD MSTORE DUP5 DUP4 MSTORE PUSH1 0xB DUP3 MSTORE SWAP2 DUP3 SWAP1 KECCAK256 DUP4 MLOAD DUP2 SLOAD PUSH1 0x1 PUSH1 0x1 PUSH1 0xA0 SHL SUB SWAP2 DUP3 AND PUSH20 0xFFFFFFFFFFFFFFFFFFFFFFFFFFFFFFFFFFFFFFFF NOT SWAP1 SWAP2 AND OR DUP3 SSTORE DUP5 DUP4 ADD MLOAD DUP1 MLOAD PUSH1 0x1 DUP1 DUP6 ADD DUP1 SLOAD SWAP7 DUP5 ADD MLOAD PUSH1 0xA8 SHR PUSH1 0x1 PUSH1 0xA0 SHL MUL PUSH32 0xFF00000000000000000000000000000000000000000000000000000000000000 SWAP1 SWAP8 AND SWAP3 SWAP1 SWAP5 AND SWAP2 SWAP1 SWAP2 OR SWAP5 SWAP1 SWAP5 OR SWAP1 SWAP2 SSTORE DUP4 ADD MLOAD PUSH1 0x2 DUP3 ADD SSTORE SWAP2 DUP4 ADD MLOAD PUSH1 0x3 DUP4 ADD SSTORE PUSH1 0x60 DUP4 ADD MLOAD PUSH1 0x4 DUP1 DUP5 ADD DUP1 SLOAD SWAP3 SWAP4 SWAP1 SWAP3 PUSH1 0xFF NOT AND SWAP2 DUP5 SWAP1 DUP2 GT ISZERO PUSH2 0x4548 JUMPI PUSH2 0x4548 PUSH2 0x623A JUMP JUMPDEST MUL OR SWAP1 SSTORE POP PUSH1 0x80 DUP3 ADD MLOAD PUSH1 0x5 DUP3 ADD SWAP1 PUSH2 0x4561 SWAP1 DUP3 PUSH2 0x66D0 JUMP JUMPDEST POP PUSH1 0xA0 DUP3 ADD MLOAD PUSH1 0x6 DUP3 ADD SWAP1 PUSH2 0x4576 SWAP1 DUP3 PUSH2 0x66D0 JUMP JUMPDEST POP SWAP2 SWAP8 SWAP7 POP POP POP POP POP POP POP JUMP JUMPDEST PUSH1 0x0 PUSH1 0x1 PUSH1 0x1 PUSH1 0xA0 SHL SUB DUP5 AND PUSH2 0x4601 JUMPI PUSH1 0x40 MLOAD PUSH3 0x461BCD PUSH1 0xE5 SHL DUP2 MSTORE PUSH1 0x20 PUSH1 0x4 DUP3 ADD MSTORE PUSH1 0x21 PUSH1 0x24 DUP3 ADD MSTORE PUSH32 0x536F433A2043616E6E6F74206372656469742061206E756C6C206163636F756E PUSH1 0x44 DUP3 ADD MSTORE PUSH32 0x7400000000000000000000000000000000000000000000000000000000000000 PUSH1 0x64 DUP3 ADD MSTORE PUSH1 0x84 ADD PUSH2 0x968 JUMP JUMPDEST PUSH1 0x0 DUP3 DUP2 MSTORE PUSH1 0xB PUSH1 0x20 MSTORE PUSH1 0x40 DUP2 KECCAK256 PUSH2 0x461C SWAP2 SWAP1 DUP7 SWAP1 DUP3 PUSH2 0x57B7 JUMP JUMPDEST ISZERO PUSH2 0x4634 JUMPI PUSH2 0x462C DUP3 PUSH1 0x2 PUSH2 0x596A JUMP JUMPDEST POP PUSH1 0x0 PUSH2 0x144C JUMP JUMPDEST PUSH2 0x4643 DUP5 DUP5 PUSH1 0x0 DUP1 PUSH1 0x0 PUSH2 0x536E JUMP JUMPDEST PUSH1 0x40 MLOAD DUP4 DUP2 MSTORE PUSH1 0x1 PUSH1 0x1 PUSH1 0xA0 SHL SUB DUP6 AND SWAP1 PUSH1 0x0 SWAP1 PUSH32 0xDDF252AD1BE2C89B69C2B068FC378DAA952BA7F163C4A11628F55A4DF523B3EF SWAP1 PUSH1 0x20 ADD PUSH1 0x40 MLOAD DUP1 SWAP2 SUB SWAP1 LOG3 DUP2 DUP5 PUSH1 0x1 PUSH1 0x1 PUSH1 0xA0 SHL SUB AND PUSH1 0x0 PUSH1 0x1 PUSH1 0x1 PUSH1 0xA0 SHL SUB AND PUSH32 0xEBF4E2ACF0DEB5CB995E1905CD9BE5A9E8388A9F08B1473A730437DE1EBA7996 DUP7 PUSH1 0x40 MLOAD PUSH2 0x46CB SWAP2 DUP2 MSTORE PUSH1 0x20 ADD SWAP1 JUMP JUMPDEST PUSH1 0x40 MLOAD DUP1 SWAP2 SUB SWAP1 LOG4 PUSH2 0x46DE DUP3 PUSH1 0x1 PUSH2 0x596A JUMP JUMPDEST POP PUSH1 0x1 SWAP4 SWAP3 POP POP POP JUMP JUMPDEST PUSH1 0x1 PUSH1 0x1 PUSH1 0xA0 SHL SUB DUP1 DUP6 AND PUSH1 0x0 SWAP1 DUP2 MSTORE PUSH1 0x7 PUSH1 0x20 MSTORE PUSH1 0x40 DUP2 KECCAK256 PUSH1 0x4 ADD SLOAD SWAP1 SWAP2 AND PUSH2 0x472A DUP2 PUSH1 0x1 PUSH1 0x1 PUSH1 0xA0 SHL SUB AND PUSH1 0x0 SWAP1 DUP2 MSTORE PUSH1 0x9 PUSH1 0x20 MSTORE PUSH1 0x40 SWAP1 KECCAK256 SLOAD PUSH1 0xFF AND SWAP1 JUMP JUMPDEST ISZERO PUSH2 0x47C3 JUMPI PUSH1 0x40 MLOAD PUSH32 0x36C30CC100000000000000000000000000000000000000000000000000000000 DUP2 MSTORE PUSH1 0x1 PUSH1 0x1 PUSH1 0xA0 SHL SUB DUP3 AND SWAP1 PUSH4 0x36C30CC1 SWAP1 PUSH2 0x4778 SWAP1 DUP9 SWAP1 DUP9 SWAP1 DUP9 SWAP1 PUSH1 0x4 ADD PUSH2 0x6A3D JUMP JUMPDEST PUSH1 0x20 PUSH1 0x40 MLOAD DUP1 DUP4 SUB DUP2 PUSH1 0x0 DUP8 GAS CALL ISZERO DUP1 ISZERO PUSH2 0x4797 JUMPI RETURNDATASIZE PUSH1 0x0 DUP1 RETURNDATACOPY RETURNDATASIZE PUSH1 0x0 REVERT JUMPDEST POP POP POP POP PUSH1 0x40 MLOAD RETURNDATASIZE PUSH1 0x1F NOT PUSH1 0x1F DUP3 ADD AND DUP3 ADD DUP1 PUSH1 0x40 MSTORE POP DUP2 ADD SWAP1 PUSH2 0x47BB SWAP2 SWAP1 PUSH2 0x6633 JUMP JUMPDEST SWAP2 POP POP PUSH2 0x113F JUMP JUMPDEST POP PUSH1 0x0 SWAP6 SWAP5 POP POP POP POP POP JUMP JUMPDEST PUSH1 0x0 PUSH1 0x1 PUSH1 0x1 PUSH1 0xA0 SHL SUB DUP6 AND PUSH2 0x4838 JUMPI PUSH1 0x40 MLOAD PUSH3 0x461BCD PUSH1 0xE5 SHL DUP2 MSTORE PUSH1 0x20 PUSH1 0x4 DUP3 ADD MSTORE PUSH1 0x28 PUSH1 0x24 DUP3 ADD MSTORE PUSH32 0x536F433A2043616E6E6F74207472616E736665722066726F6D2061206E756C6C PUSH1 0x44 DUP3 ADD MSTORE PUSH8 0x81858D8DBDD5B9D PUSH1 0xC2 SHL PUSH1 0x64 DUP3 ADD MSTORE PUSH1 0x84 ADD PUSH2 0x968 JUMP JUMPDEST DUP4 MLOAD PUSH1 0x1 PUSH1 0x1 PUSH1 0xA0 SHL SUB AND ISZERO PUSH2 0x4B7E JUMPI DUP4 PUSH1 0x0 ADD MLOAD PUSH1 0x1 PUSH1 0x1 PUSH1 0xA0 SHL SUB AND DUP6 PUSH1 0x1 PUSH1 0x1 PUSH1 0xA0 SHL SUB AND SUB PUSH2 0x486D JUMPI POP PUSH1 0x1 PUSH2 0x113F JUMP JUMPDEST DUP4 MLOAD PUSH2 0x4879 SWAP1 ADDRESS PUSH2 0x5A5E JUMP JUMPDEST PUSH2 0x4911 JUMPI PUSH1 0x40 MLOAD PUSH3 0x461BCD PUSH1 0xE5 SHL DUP2 MSTORE PUSH1 0x20 PUSH1 0x4 DUP3 ADD MSTORE PUSH1 0x4C PUSH1 0x24 DUP3 ADD MSTORE PUSH32 0x536F433A204578706563742074686520726563697069656E7420746F20686176 PUSH1 0x44 DUP3 ADD MSTORE PUSH32 0x65207468652073616D652063757272656E637920616E6420646563696D616C73 PUSH1 0x64 DUP3 ADD MSTORE PUSH32 0x206173207468652062616E6B0000000000000000000000000000000000000000 PUSH1 0x84 DUP3 ADD MSTORE PUSH1 0xA4 ADD PUSH2 0x968 JUMP JUMPDEST PUSH1 0x0 PUSH2 0x4920 DUP6 PUSH1 0x0 ADD MLOAD PUSH2 0x4FE4 JUMP JUMPDEST SWAP1 POP ADDRESS PUSH1 0x1 PUSH1 0x1 PUSH1 0xA0 SHL SUB DUP3 AND SUB PUSH2 0x496D JUMPI PUSH1 0x0 PUSH2 0x4944 DUP8 DUP8 PUSH1 0x0 ADD MLOAD DUP8 DUP8 PUSH2 0x5C0D JUMP JUMPDEST SWAP1 POP PUSH2 0x4953 DUP8 DUP7 PUSH1 0x0 DUP8 PUSH2 0x46E8 JUMP JUMPDEST POP DUP6 MLOAD PUSH2 0x4963 SWAP1 DUP7 PUSH1 0x1 DUP8 PUSH2 0x46E8 JUMP JUMPDEST POP SWAP2 POP PUSH2 0x113F SWAP1 POP JUMP JUMPDEST PUSH1 0x1 PUSH1 0x1 PUSH1 0xA0 SHL SUB DUP2 AND PUSH1 0x0 SWAP1 DUP2 MSTORE PUSH1 0x9 PUSH1 0x20 MSTORE PUSH1 0x40 SWAP1 KECCAK256 DUP1 SLOAD PUSH1 0xFF AND ISZERO PUSH2 0x4B10 JUMPI DUP5 DUP2 PUSH1 0x2 ADD SLOAD LT PUSH2 0x4A70 JUMPI PUSH1 0x0 PUSH2 0x49A7 DUP9 DUP8 DUP8 PUSH2 0x4CBB JUMP JUMPDEST SWAP1 POP DUP1 DUP1 ISZERO PUSH2 0x4A56 JUMPI POP PUSH1 0x1 DUP3 ADD SLOAD PUSH1 0x0 DUP7 DUP2 MSTORE PUSH1 0xB PUSH1 0x20 MSTORE PUSH1 0x40 SWAP1 DUP2 SWAP1 KECCAK256 SWAP1 MLOAD PUSH32 0xA5472F8500000000000000000000000000000000000000000000000000000000 DUP2 MSTORE PUSH1 0x1 PUSH1 0x1 PUSH1 0xA0 SHL SUB SWAP1 SWAP3 AND SWAP2 PUSH4 0xA5472F85 SWAP2 PUSH2 0x4A13 SWAP2 DUP12 SWAP2 DUP12 SWAP2 PUSH1 0x5 SWAP1 SWAP2 ADD SWAP1 PUSH1 0x4 ADD PUSH2 0x6A5F JUMP JUMPDEST PUSH1 0x20 PUSH1 0x40 MLOAD DUP1 DUP4 SUB DUP2 PUSH1 0x0 DUP8 GAS CALL ISZERO DUP1 ISZERO PUSH2 0x4A32 JUMPI RETURNDATASIZE PUSH1 0x0 DUP1 RETURNDATACOPY RETURNDATASIZE PUSH1 0x0 REVERT JUMPDEST POP POP POP POP PUSH1 0x40 MLOAD RETURNDATASIZE PUSH1 0x1F NOT PUSH1 0x1F DUP3 ADD AND DUP3 ADD DUP1 PUSH1 0x40 MSTORE POP DUP2 ADD SWAP1 PUSH2 0x4A56 SWAP2 SWAP1 PUSH2 0x6633 JUMP JUMPDEST SWAP1 POP PUSH2 0x4A65 DUP9 DUP8 PUSH1 0x0 DUP9 PUSH2 0x46E8 JUMP JUMPDEST POP SWAP3 POP PUSH2 0x113F SWAP2 POP POP JUMP JUMPDEST DUP1 SLOAD PUSH1 0x0 SWAP1 PUSH2 0x4A90 SWAP1 DUP10 SWAP1 PUSH2 0x100 SWAP1 DIV PUSH1 0x1 PUSH1 0x1 PUSH1 0xA0 SHL SUB AND DUP9 DUP9 PUSH2 0x5C0D JUMP JUMPDEST SWAP1 POP DUP1 DUP1 ISZERO PUSH2 0x4A56 JUMPI POP PUSH1 0x40 DUP1 MLOAD PUSH32 0xB8DA243E00000000000000000000000000000000000000000000000000000000 DUP2 MSTORE DUP9 MLOAD PUSH1 0x1 PUSH1 0x1 PUSH1 0xA0 SHL SUB SWAP1 DUP2 AND PUSH1 0x4 DUP4 ADD MSTORE PUSH1 0x20 DUP11 ADD MLOAD PUSH1 0x1 PUSH1 0x1 PUSH1 0xA8 SHL SUB NOT AND PUSH1 0x24 DUP4 ADD MSTORE SWAP2 DUP10 ADD MLOAD PUSH1 0x44 DUP3 ADD MSTORE PUSH1 0x64 DUP2 ADD DUP9 SWAP1 MSTORE PUSH1 0x84 DUP2 ADD DUP8 SWAP1 MSTORE SWAP1 DUP5 AND SWAP1 PUSH4 0xB8DA243E SWAP1 PUSH1 0xA4 ADD PUSH2 0x4A13 JUMP JUMPDEST PUSH1 0x40 MLOAD PUSH3 0x461BCD PUSH1 0xE5 SHL DUP2 MSTORE PUSH1 0x20 PUSH1 0x4 DUP3 ADD MSTORE PUSH1 0x38 PUSH1 0x24 DUP3 ADD MSTORE PUSH32 0x536F433A204E6F6E20636F72726573706F6E64656E742062616E6B20736F6C75 PUSH1 0x44 DUP3 ADD MSTORE PUSH32 0x74696F6E206E6F7420696D706C656D656E746564207965740000000000000000 PUSH1 0x64 DUP3 ADD MSTORE PUSH1 0x84 ADD PUSH2 0x968 JUMP JUMPDEST PUSH1 0x20 DUP5 ADD MLOAD PUSH1 0x1 PUSH1 0x1 PUSH1 0xA8 SHL SUB NOT AND ISZERO DUP1 ISZERO SWAP1 PUSH2 0x4B9D JUMPI POP PUSH1 0x40 DUP5 ADD MLOAD ISZERO JUMPDEST ISZERO PUSH2 0x4BC6 JUMPI PUSH1 0x0 PUSH2 0x4BAF DUP7 DUP6 DUP6 PUSH2 0x4CBB JUMP JUMPDEST SWAP1 POP PUSH2 0x4BBE DUP7 DUP6 PUSH1 0x0 DUP7 PUSH2 0x46E8 JUMP JUMPDEST POP SWAP1 POP PUSH2 0x113F JUMP JUMPDEST PUSH1 0x0 DUP5 PUSH1 0x40 ADD MLOAD PUSH1 0x40 MLOAD PUSH1 0x20 ADD PUSH2 0x4BDF SWAP2 DUP2 MSTORE PUSH1 0x20 ADD SWAP1 JUMP JUMPDEST PUSH1 0x40 MLOAD PUSH1 0x20 DUP2 DUP4 SUB SUB DUP2 MSTORE SWAP1 PUSH1 0x40 MSTORE SWAP1 POP PUSH1 0x0 PUSH2 0x4C1A DUP3 PUSH1 0x40 MLOAD PUSH1 0x20 ADD PUSH2 0x4C06 SWAP2 SWAP1 PUSH2 0x64FA JUMP JUMPDEST PUSH1 0x40 MLOAD PUSH1 0x20 DUP2 DUP4 SUB SUB DUP2 MSTORE SWAP1 PUSH1 0x40 MSTORE PUSH2 0xB2A JUMP JUMPDEST SWAP2 POP POP PUSH1 0x1 PUSH1 0x1 PUSH1 0xA0 SHL SUB DUP2 AND ISZERO PUSH2 0x4C4D JUMPI PUSH1 0x1 PUSH1 0x1 PUSH1 0xA0 SHL SUB DUP2 AND DUP7 MSTORE PUSH2 0x4C44 DUP8 DUP8 DUP8 DUP8 PUSH2 0x47CF JUMP JUMPDEST SWAP3 POP POP POP PUSH2 0x113F JUMP JUMPDEST PUSH1 0x40 MLOAD PUSH3 0x461BCD PUSH1 0xE5 SHL DUP2 MSTORE PUSH1 0x20 PUSH1 0x4 DUP3 ADD MSTORE PUSH1 0x31 PUSH1 0x24 DUP3 ADD MSTORE PUSH32 0x536F433A204249432F4942414E20726563697069656E74206E6F742066756C6C PUSH1 0x44 DUP3 ADD MSTORE PUSH32 0x7920696D706C656D656E74656420796574000000000000000000000000000000 PUSH1 0x64 DUP3 ADD MSTORE PUSH1 0x84 ADD PUSH2 0x968 JUMP JUMPDEST PUSH1 0x0 PUSH1 0x1 PUSH1 0x1 PUSH1 0xA0 SHL SUB DUP5 AND PUSH2 0x4D13 JUMPI PUSH1 0x40 MLOAD PUSH3 0x461BCD PUSH1 0xE5 SHL DUP2 MSTORE PUSH1 0x20 PUSH1 0x4 DUP3 ADD DUP2 SWAP1 MSTORE PUSH1 0x24 DUP3 ADD MSTORE PUSH32 0x536F433A2043616E6E6F742064656269742061206E756C6C206163636F756E74 PUSH1 0x44 DUP3 ADD MSTORE PUSH1 0x64 ADD PUSH2 0x968 JUMP JUMPDEST PUSH1 0x0 DUP3 DUP2 MSTORE PUSH1 0xB PUSH1 0x20 MSTORE PUSH1 0x40 DUP2 KECCAK256 PUSH2 0x4D2E SWAP2 DUP7 SWAP2 PUSH1 0x1 PUSH2 0x57B7 JUMP JUMPDEST ISZERO PUSH2 0x4D3E JUMPI PUSH2 0x462C DUP3 PUSH1 0x2 PUSH2 0x596A JUMP JUMPDEST PUSH2 0x4D4D DUP5 PUSH1 0x0 DUP6 PUSH1 0x0 DUP1 PUSH2 0x536E JUMP JUMPDEST PUSH1 0x40 MLOAD DUP4 DUP2 MSTORE PUSH1 0x0 SWAP1 PUSH1 0x1 PUSH1 0x1 PUSH1 0xA0 SHL SUB DUP7 AND SWAP1 PUSH32 0xDDF252AD1BE2C89B69C2B068FC378DAA952BA7F163C4A11628F55A4DF523B3EF SWAP1 PUSH1 0x20 ADD PUSH1 0x40 MLOAD DUP1 SWAP2 SUB SWAP1 LOG3 DUP2 PUSH1 0x0 PUSH1 0x1 PUSH1 0x1 PUSH1 0xA0 SHL SUB AND DUP6 PUSH1 0x1 PUSH1 0x1 PUSH1 0xA0 SHL SUB AND PUSH32 0xEBF4E2ACF0DEB5CB995E1905CD9BE5A9E8388A9F08B1473A730437DE1EBA7996 DUP7 PUSH1 0x40 MLOAD PUSH2 0x46CB SWAP2 DUP2 MSTORE PUSH1 0x20 ADD SWAP1 JUMP JUMPDEST PUSH1 0x0 PUSH1 0x1 PUSH1 0x1 PUSH1 0xA0 SHL SUB DUP4 AND PUSH2 0x4E53 JUMPI PUSH1 0x40 MLOAD PUSH3 0x461BCD PUSH1 0xE5 SHL DUP2 MSTORE PUSH1 0x20 PUSH1 0x4 DUP3 ADD MSTORE PUSH1 0x2A PUSH1 0x24 DUP3 ADD MSTORE PUSH32 0x536F433A2043616E6E6F7420756E6C6F636B2066756E6473206F662061206E75 PUSH1 0x44 DUP3 ADD MSTORE PUSH32 0x6C6C206163636F756E7400000000000000000000000000000000000000000000 PUSH1 0x64 DUP3 ADD MSTORE PUSH1 0x84 ADD PUSH2 0x968 JUMP JUMPDEST PUSH1 0x1 PUSH1 0x1 PUSH1 0xA0 SHL SUB DUP4 AND PUSH1 0x0 SWAP1 DUP2 MSTORE PUSH1 0x7 PUSH1 0x20 MSTORE PUSH1 0x40 SWAP1 KECCAK256 SLOAD PUSH1 0xFF AND PUSH2 0x4EE1 JUMPI PUSH1 0x40 MLOAD PUSH3 0x461BCD PUSH1 0xE5 SHL DUP2 MSTORE PUSH1 0x20 PUSH1 0x4 DUP3 ADD MSTORE PUSH1 0x33 PUSH1 0x24 DUP3 ADD MSTORE PUSH32 0x536F433A2043616E6E6F7420756E6C6F636B2066756E6473206F6620616E2075 PUSH1 0x44 DUP3 ADD MSTORE PUSH32 0x6E72656769737465726564206163636F756E7400000000000000000000000000 PUSH1 0x64 DUP3 ADD MSTORE PUSH1 0x84 ADD PUSH2 0x968 JUMP JUMPDEST PUSH2 0x440A DUP4 PUSH1 0x0 DUP1 PUSH1 0x0 DUP7 PUSH2 0x536E JUMP JUMPDEST PUSH1 0x0 SLOAD PUSH1 0x1 PUSH1 0x1 PUSH1 0xA0 SHL SUB AND CALLER EQ PUSH2 0x1C94 JUMPI PUSH1 0x40 MLOAD PUSH3 0x461BCD PUSH1 0xE5 SHL DUP2 MSTORE PUSH1 0x20 PUSH1 0x4 DUP3 ADD DUP2 SWAP1 MSTORE PUSH1 0x24 DUP3 ADD MSTORE PUSH32 0x4F776E61626C653A2063616C6C6572206973206E6F7420746865206F776E6572 PUSH1 0x44 DUP3 ADD MSTORE PUSH1 0x64 ADD PUSH2 0x968 JUMP JUMPDEST PUSH1 0x0 DUP1 SLOAD PUSH1 0x1 PUSH1 0x1 PUSH1 0xA0 SHL SUB DUP4 DUP2 AND PUSH20 0xFFFFFFFFFFFFFFFFFFFFFFFFFFFFFFFFFFFFFFFF NOT DUP4 AND DUP2 OR DUP5 SSTORE PUSH1 0x40 MLOAD SWAP2 SWAP1 SWAP3 AND SWAP3 DUP4 SWAP2 PUSH32 0x8BE0079C531659141344CD1FD0A4F28419497F9722A3DAAFE3B4186F6B6457E0 SWAP2 SWAP1 LOG3 POP POP JUMP JUMPDEST PUSH1 0x60 DUP4 MLOAD PUSH1 0x0 SUB PUSH2 0x4FB9 JUMPI POP DUP1 PUSH2 0x144C JUMP JUMPDEST DUP4 DUP4 DUP4 PUSH1 0x40 MLOAD PUSH1 0x20 ADD PUSH2 0x4FCE SWAP4 SWAP3 SWAP2 SWAP1 PUSH2 0x6B21 JUMP JUMPDEST PUSH1 0x40 MLOAD PUSH1 0x20 DUP2 DUP4 SUB SUB DUP2 MSTORE SWAP1 PUSH1 0x40 MSTORE SWAP1 POP PUSH2 0x144C JUMP JUMPDEST PUSH1 0x0 DUP2 EXTCODESIZE PUSH4 0xFFFFFFFF AND PUSH2 0x5060 JUMPI PUSH1 0x40 MLOAD PUSH3 0x461BCD PUSH1 0xE5 SHL DUP2 MSTORE PUSH1 0x20 PUSH1 0x4 DUP3 ADD MSTORE PUSH1 0x3D PUSH1 0x24 DUP3 ADD MSTORE PUSH32 0x4342433A205468652061646472657373206973206E6F74206120636F6E747261 PUSH1 0x44 DUP3 ADD MSTORE PUSH32 0x637420736F2069742063616E6E6F7420626520616E206163636F756E74000000 PUSH1 0x64 DUP3 ADD MSTORE PUSH1 0x84 ADD PUSH2 0x968 JUMP JUMPDEST PUSH1 0x0 DUP3 PUSH1 0x1 PUSH1 0x1 PUSH1 0xA0 SHL SUB AND PUSH4 0x8DA5CB5B PUSH1 0x40 MLOAD DUP2 PUSH4 0xFFFFFFFF AND PUSH1 0xE0 SHL DUP2 MSTORE PUSH1 0x4 ADD PUSH1 0x20 PUSH1 0x40 MLOAD DUP1 DUP4 SUB DUP2 DUP7 GAS STATICCALL ISZERO DUP1 ISZERO PUSH2 0x50A0 JUMPI RETURNDATASIZE PUSH1 0x0 DUP1 RETURNDATACOPY RETURNDATASIZE PUSH1 0x0 REVERT JUMPDEST POP POP POP POP PUSH1 0x40 MLOAD RETURNDATASIZE PUSH1 0x1F NOT PUSH1 0x1F DUP3 ADD AND DUP3 ADD DUP1 PUSH1 0x40 MSTORE POP DUP2 ADD SWAP1 PUSH2 0x50C4 SWAP2 SWAP1 PUSH2 0x655E JUMP JUMPDEST SWAP1 POP DUP1 EXTCODESIZE PUSH4 0xFFFFFFFF AND ISZERO PUSH2 0x50D9 JUMPI SWAP3 SWAP2 POP POP JUMP JUMPDEST POP ADDRESS SWAP3 SWAP2 POP POP JUMP JUMPDEST PUSH1 0x0 PUSH1 0x1 PUSH1 0x1 PUSH1 0xA0 SHL SUB DUP6 AND PUSH2 0x515F JUMPI PUSH1 0x40 MLOAD PUSH3 0x461BCD PUSH1 0xE5 SHL DUP2 MSTORE PUSH1 0x20 PUSH1 0x4 DUP3 ADD MSTORE PUSH1 0x25 PUSH1 0x24 DUP3 ADD MSTORE PUSH32 0x536F433A2043616E6E6F74207472616E736665722066726F6D2061206E756C6C PUSH1 0x44 DUP3 ADD MSTORE PUSH32 0x2062616E6B000000000000000000000000000000000000000000000000000000 PUSH1 0x64 DUP3 ADD MSTORE PUSH1 0x84 ADD PUSH2 0x968 JUMP JUMPDEST DUP4 MLOAD PUSH1 0x1 PUSH1 0x1 PUSH1 0xA0 SHL SUB AND ISZERO PUSH2 0x519D JUMPI PUSH1 0x0 PUSH2 0x517E DUP6 PUSH1 0x0 ADD MLOAD PUSH2 0x4FE4 JUMP JUMPDEST SWAP1 POP ADDRESS PUSH1 0x1 PUSH1 0x1 PUSH1 0xA0 SHL SUB DUP3 AND SUB PUSH2 0x4B10 JUMPI DUP5 MLOAD PUSH2 0x47BB SWAP1 DUP6 DUP6 PUSH2 0x4583 JUMP JUMPDEST PUSH1 0x40 MLOAD PUSH3 0x461BCD PUSH1 0xE5 SHL DUP2 MSTORE PUSH1 0x20 PUSH1 0x4 DUP3 ADD MSTORE PUSH1 0x2B PUSH1 0x24 DUP3 ADD MSTORE PUSH32 0x536F433A204249432F4942414E20726563697069656E74206E6F7420696D706C PUSH1 0x44 DUP3 ADD MSTORE PUSH32 0x656D656E74656420796574000000000000000000000000000000000000000000 PUSH1 0x64 DUP3 ADD MSTORE PUSH1 0x84 ADD PUSH2 0x968 JUMP JUMPDEST PUSH1 0x0 PUSH2 0xB24 DUP3 PUSH1 0x0 ADD MLOAD DUP4 PUSH1 0x20 ADD MLOAD DUP5 PUSH1 0x40 ADD MLOAD DUP6 PUSH1 0x80 ADD MLOAD PUSH2 0x441F JUMP JUMPDEST PUSH1 0x0 DUP2 EXTCODESIZE PUSH4 0xFFFFFFFF AND PUSH2 0x523F JUMPI POP PUSH1 0x0 SWAP2 SWAP1 POP JUMP JUMPDEST PUSH2 0x52E8 DUP3 PUSH1 0x1 PUSH1 0x1 PUSH1 0xA0 SHL SUB AND PUSH4 0x95D89B41 PUSH1 0x40 MLOAD DUP2 PUSH4 0xFFFFFFFF AND PUSH1 0xE0 SHL DUP2 MSTORE PUSH1 0x4 ADD PUSH1 0x0 PUSH1 0x40 MLOAD DUP1 DUP4 SUB DUP2 DUP7 GAS STATICCALL ISZERO DUP1 ISZERO PUSH2 0x5280 JUMPI RETURNDATASIZE PUSH1 0x0 DUP1 RETURNDATACOPY RETURNDATASIZE PUSH1 0x0 REVERT JUMPDEST POP POP POP POP PUSH1 0x40 MLOAD RETURNDATASIZE PUSH1 0x0 DUP3 RETURNDATACOPY PUSH1 0x1F RETURNDATASIZE SWAP1 DUP2 ADD PUSH1 0x1F NOT AND DUP3 ADD PUSH1 0x40 MSTORE PUSH2 0x52A8 SWAP2 SWAP1 DUP2 ADD SWAP1 PUSH2 0x694F JUMP JUMPDEST PUSH1 0x2 SLOAD PUSH1 0x40 MLOAD PUSH1 0x1 PUSH1 0xA8 SHL SWAP1 SWAP2 DIV PUSH1 0xE8 SHL PUSH32 0xFFFFFF0000000000000000000000000000000000000000000000000000000000 AND PUSH1 0x20 DUP3 ADD MSTORE PUSH1 0x23 ADD PUSH2 0xCFB JUMP JUMPDEST DUP1 ISZERO PUSH2 0xB24 JUMPI POP PUSH1 0x2 PUSH1 0x18 SWAP1 SLOAD SWAP1 PUSH2 0x100 EXP SWAP1 DIV PUSH1 0xFF AND PUSH1 0xFF AND DUP3 PUSH1 0x1 PUSH1 0x1 PUSH1 0xA0 SHL SUB AND PUSH4 0x313CE567 PUSH1 0x40 MLOAD DUP2 PUSH4 0xFFFFFFFF AND PUSH1 0xE0 SHL DUP2 MSTORE PUSH1 0x4 ADD PUSH1 0x20 PUSH1 0x40 MLOAD DUP1 DUP4 SUB DUP2 DUP7 GAS STATICCALL ISZERO DUP1 ISZERO PUSH2 0x5340 JUMPI RETURNDATASIZE PUSH1 0x0 DUP1 RETURNDATACOPY RETURNDATASIZE PUSH1 0x0 REVERT JUMPDEST POP POP POP POP PUSH1 0x40 MLOAD RETURNDATASIZE PUSH1 0x1F NOT PUSH1 0x1F DUP3 ADD AND DUP3 ADD DUP1 PUSH1 0x40 MSTORE POP DUP2 ADD SWAP1 PUSH2 0x5364 SWAP2 SWAP1 PUSH2 0x6B64 JUMP JUMPDEST PUSH1 0xFF AND EQ SWAP3 SWAP2 POP POP JUMP JUMPDEST PUSH1 0x1 PUSH1 0x1 PUSH1 0xA0 SHL SUB DUP6 AND PUSH1 0x0 SWAP1 DUP2 MSTORE PUSH1 0x7 PUSH1 0x20 MSTORE PUSH1 0x40 SWAP1 KECCAK256 DUP5 ISZERO PUSH2 0x540E JUMPI PUSH1 0x3 DUP2 ADD SLOAD DUP6 SWAP1 DUP2 GT PUSH2 0x53A8 JUMPI PUSH1 0x3 DUP3 ADD DUP1 SLOAD SWAP2 SWAP1 SWAP2 SUB SWAP1 SSTORE PUSH1 0x0 JUMPDEST PUSH1 0x3 DUP3 ADD SLOAD ISZERO PUSH2 0x53D9 JUMPI PUSH1 0x3 DUP1 DUP4 ADD DUP1 SLOAD PUSH1 0x0 SWAP1 SWAP2 SSTORE PUSH1 0x1 DUP5 ADD DUP1 SLOAD SWAP2 SWAP1 SWAP4 SUB SWAP1 DUP2 ADD SWAP1 SWAP3 SSTORE DUP1 SLOAD DUP3 ADD SWAP1 SSTORE PUSH2 0x540C JUMP JUMPDEST DUP1 DUP3 PUSH1 0x1 ADD PUSH1 0x0 DUP3 DUP3 SLOAD PUSH2 0x53ED SWAP2 SWAP1 PUSH2 0x65FC JUMP JUMPDEST SWAP3 POP POP DUP2 SWAP1 SSTORE POP DUP1 PUSH1 0x3 PUSH1 0x0 DUP3 DUP3 SLOAD PUSH2 0x5406 SWAP2 SWAP1 PUSH2 0x65FC JUMP JUMPDEST SWAP1 SWAP2 SSTORE POP POP JUMPDEST POP JUMPDEST DUP2 ISZERO PUSH2 0x54F3 JUMPI DUP2 DUP2 PUSH1 0x2 ADD SLOAD LT ISZERO PUSH2 0x5468 JUMPI PUSH1 0x40 MLOAD PUSH3 0x461BCD PUSH1 0xE5 SHL DUP2 MSTORE PUSH1 0x20 PUSH1 0x4 DUP3 ADD MSTORE PUSH1 0x1E PUSH1 0x24 DUP3 ADD MSTORE PUSH32 0x536F433A20496E73756666696369656E74206C6F636B65642066756E64730000 PUSH1 0x44 DUP3 ADD MSTORE PUSH1 0x64 ADD PUSH2 0x968 JUMP JUMPDEST PUSH1 0x2 DUP2 ADD DUP1 SLOAD DUP4 SWAP1 SUB SWAP1 SSTORE PUSH1 0x3 DUP2 ADD SLOAD ISZERO PUSH2 0x54F3 JUMPI DUP1 PUSH1 0x1 ADD SLOAD DUP2 PUSH1 0x2 ADD SLOAD LT ISZERO PUSH2 0x54F3 JUMPI PUSH1 0x0 DUP2 PUSH1 0x2 ADD SLOAD DUP3 PUSH1 0x1 ADD SLOAD PUSH2 0x54A3 SWAP2 SWAP1 PUSH2 0x64E7 JUMP JUMPDEST SWAP1 POP DUP1 DUP3 PUSH1 0x3 ADD SLOAD GT ISZERO PUSH2 0x54D4 JUMPI PUSH1 0x3 DUP1 DUP4 ADD DUP1 SLOAD DUP4 SWAP1 SUB SWAP1 SSTORE PUSH1 0x1 DUP4 ADD DUP1 SLOAD DUP4 SWAP1 SUB SWAP1 SSTORE DUP1 SLOAD DUP3 SWAP1 SUB SWAP1 SSTORE PUSH2 0x54F1 JUMP JUMPDEST PUSH1 0x3 DUP1 DUP4 ADD DUP1 SLOAD PUSH1 0x1 DUP6 ADD DUP1 SLOAD DUP3 SWAP1 SUB SWAP1 SSTORE DUP3 SLOAD SUB SWAP1 SWAP2 SSTORE PUSH1 0x0 SWAP1 SSTORE JUMPDEST POP JUMPDEST DUP3 ISZERO PUSH2 0x5565 JUMPI DUP3 DUP2 PUSH1 0x2 ADD SLOAD PUSH2 0x5509 SWAP2 SWAP1 PUSH2 0x65FC JUMP JUMPDEST DUP2 PUSH1 0x1 ADD SLOAD GT ISZERO PUSH2 0x5533 JUMPI DUP3 DUP2 PUSH1 0x2 ADD PUSH1 0x0 DUP3 DUP3 SLOAD PUSH2 0x5528 SWAP2 SWAP1 PUSH2 0x65FC JUMP JUMPDEST SWAP1 SWAP2 SSTORE POP PUSH2 0x5565 SWAP1 POP JUMP JUMPDEST PUSH1 0x1 DUP2 ADD DUP1 SLOAD PUSH1 0x2 DUP4 ADD DUP1 SLOAD PUSH1 0x3 DUP1 DUP7 ADD DUP1 SLOAD SWAP3 DUP10 ADD DUP6 SWAP1 SUB SWAP3 DUP4 ADD SWAP1 SSTORE SWAP3 DUP2 ADD SWAP1 SWAP4 SSTORE DUP2 SLOAD SWAP1 SWAP3 ADD SWAP1 SSTORE DUP1 SLOAD DUP5 ADD SWAP1 SSTORE JUMPDEST DUP4 ISZERO PUSH2 0x55CF JUMPI PUSH1 0x2 DUP2 ADD SLOAD PUSH1 0x1 DUP3 ADD SLOAD SUB DUP5 DUP2 LT PUSH2 0x559B JUMPI PUSH1 0x1 DUP3 ADD DUP1 SLOAD DUP7 SWAP1 SUB SWAP1 SSTORE PUSH1 0x3 DUP1 SLOAD SWAP6 SWAP1 SWAP6 SUB SWAP1 SWAP5 SSTORE PUSH1 0x0 SWAP4 PUSH2 0x55BC JUMP JUMPDEST DUP1 ISZERO PUSH2 0x55BC JUMPI PUSH1 0x1 DUP3 ADD DUP1 SLOAD DUP3 SWAP1 SUB SWAP1 SSTORE PUSH1 0x3 DUP1 SLOAD DUP3 SWAP1 SUB SWAP1 SSTORE SWAP1 SWAP4 SUB SWAP3 PUSH1 0x0 JUMPDEST DUP5 ISZERO PUSH2 0x55CD JUMPI PUSH1 0x3 DUP3 ADD DUP1 SLOAD DUP7 ADD SWAP1 SSTORE JUMPDEST POP JUMPDEST PUSH1 0x0 DUP7 PUSH1 0x40 MLOAD PUSH32 0x76FC300500000000000000000000000000000000000000000000000000000000 DUP2 MSTORE PUSH32 0x6F7665726472616674416D6F756E740000000000000000000000000000000000 PUSH1 0x4 DUP3 ADD MSTORE PUSH1 0x1 PUSH1 0x1 PUSH1 0xA0 SHL SUB SWAP2 SWAP1 SWAP2 AND SWAP1 PUSH4 0x76FC3005 SWAP1 PUSH1 0x24 ADD PUSH1 0x20 PUSH1 0x40 MLOAD DUP1 DUP4 SUB DUP2 DUP7 GAS STATICCALL ISZERO DUP1 ISZERO PUSH2 0x5651 JUMPI RETURNDATASIZE PUSH1 0x0 DUP1 RETURNDATACOPY RETURNDATASIZE PUSH1 0x0 REVERT JUMPDEST POP POP POP POP PUSH1 0x40 MLOAD RETURNDATASIZE PUSH1 0x1F NOT PUSH1 0x1F DUP3 ADD AND DUP3 ADD DUP1 PUSH1 0x40 MSTORE POP DUP2 ADD SWAP1 PUSH2 0x5675 SWAP2 SWAP1 PUSH2 0x6516 JUMP JUMPDEST SWAP1 POP PUSH1 0x0 DUP2 SGT ISZERO PUSH2 0x56EC JUMPI DUP1 DUP3 PUSH1 0x3 ADD SLOAD GT ISZERO PUSH1 0x0 DUP6 GT PUSH2 0x56AE JUMPI PUSH1 0x40 MLOAD DUP1 PUSH1 0x60 ADD PUSH1 0x40 MSTORE DUP1 PUSH1 0x3B DUP2 MSTORE PUSH1 0x20 ADD PUSH2 0x6CB5 PUSH1 0x3B SWAP2 CODECOPY PUSH2 0x56C8 JUMP JUMPDEST PUSH1 0x40 MLOAD DUP1 PUSH1 0x60 ADD PUSH1 0x40 MSTORE DUP1 PUSH1 0x3D DUP2 MSTORE PUSH1 0x20 ADD PUSH2 0x6C78 PUSH1 0x3D SWAP2 CODECOPY JUMPDEST SWAP1 PUSH2 0x56E6 JUMPI PUSH1 0x40 MLOAD PUSH3 0x461BCD PUSH1 0xE5 SHL DUP2 MSTORE PUSH1 0x4 ADD PUSH2 0x968 SWAP2 SWAP1 PUSH2 0x5E46 JUMP JUMPDEST POP PUSH2 0x5789 JUMP JUMPDEST PUSH1 0x3 DUP3 ADD SLOAD ISZERO DUP5 PUSH2 0x5732 JUMPI PUSH1 0x40 MLOAD DUP1 PUSH1 0x40 ADD PUSH1 0x40 MSTORE DUP1 PUSH1 0x17 DUP2 MSTORE PUSH1 0x20 ADD PUSH32 0x536F433A20496E73756666696369656E742066756E6473000000000000000000 DUP2 MSTORE POP PUSH2 0x5769 JUMP JUMPDEST PUSH1 0x40 MLOAD DUP1 PUSH1 0x40 ADD PUSH1 0x40 MSTORE DUP1 PUSH1 0x20 DUP2 MSTORE PUSH1 0x20 ADD PUSH32 0x536F433A20496E73756666696369656E7420756E6C6F636B65642066756E6473 DUP2 MSTORE POP JUMPDEST SWAP1 PUSH2 0x5787 JUMPI PUSH1 0x40 MLOAD PUSH3 0x461BCD PUSH1 0xE5 SHL DUP2 MSTORE PUSH1 0x4 ADD PUSH2 0x968 SWAP2 SWAP1 PUSH2 0x5E46 JUMP JUMPDEST POP JUMPDEST POP POP POP POP POP POP POP JUMP JUMPDEST PUSH1 0x0 DUP2 MLOAD DUP4 MLOAD EQ DUP1 ISZERO PUSH2 0xB21 JUMPI POP POP DUP1 MLOAD PUSH1 0x20 SWAP2 DUP3 ADD KECCAK256 DUP3 MLOAD SWAP3 SWAP1 SWAP2 ADD SWAP2 SWAP1 SWAP2 KECCAK256 EQ SWAP1 JUMP JUMPDEST PUSH1 0x0 DUP1 PUSH1 0x4 DUP1 DUP6 ADD SLOAD PUSH1 0xFF AND SWAP1 DUP2 GT ISZERO PUSH2 0x57D3 JUMPI PUSH2 0x57D3 PUSH2 0x623A JUMP JUMPDEST EQ PUSH2 0x57E0 JUMPI POP PUSH1 0x0 PUSH2 0x113F JUMP JUMPDEST PUSH1 0x0 PUSH1 0x1 PUSH1 0x1 PUSH1 0xA0 SHL SUB DUP7 AND ISZERO PUSH2 0x58A4 JUMPI PUSH1 0x1 PUSH1 0x1 PUSH1 0xA0 SHL SUB DUP7 AND PUSH1 0x0 SWAP1 DUP2 MSTORE PUSH1 0x7 PUSH1 0x20 MSTORE PUSH1 0x40 SWAP1 KECCAK256 DUP1 SLOAD PUSH2 0x100 SWAP1 DIV PUSH1 0xFF AND PUSH2 0x58A2 JUMPI DUP5 PUSH1 0x6 ADD DUP3 PUSH2 0x5835 JUMPI PUSH1 0x40 MLOAD DUP1 PUSH1 0x20 ADD PUSH1 0x40 MSTORE DUP1 PUSH1 0x0 DUP2 MSTORE POP PUSH2 0x586C JUMP JUMPDEST PUSH1 0x40 MLOAD DUP1 PUSH1 0x40 ADD PUSH1 0x40 MSTORE DUP1 PUSH1 0x2 DUP2 MSTORE PUSH1 0x20 ADD PUSH32 0x2C20000000000000000000000000000000000000000000000000000000000000 DUP2 MSTORE POP JUMPDEST PUSH1 0x40 MLOAD PUSH1 0x20 ADD PUSH2 0x587D SWAP3 SWAP2 SWAP1 PUSH2 0x6B87 JUMP JUMPDEST PUSH1 0x40 MLOAD PUSH1 0x20 DUP2 DUP4 SUB SUB DUP2 MSTORE SWAP1 PUSH1 0x40 MSTORE DUP6 PUSH1 0x6 ADD SWAP1 DUP2 PUSH2 0x589C SWAP2 SWAP1 PUSH2 0x66D0 JUMP JUMPDEST POP PUSH1 0x1 SWAP2 POP JUMPDEST POP JUMPDEST PUSH1 0x1 PUSH1 0x1 PUSH1 0xA0 SHL SUB DUP6 AND ISZERO PUSH2 0x5961 JUMPI PUSH1 0x1 PUSH1 0x1 PUSH1 0xA0 SHL SUB DUP6 AND PUSH1 0x0 SWAP1 DUP2 MSTORE PUSH1 0x7 PUSH1 0x20 MSTORE PUSH1 0x40 SWAP1 KECCAK256 DUP1 SLOAD PUSH2 0x100 SWAP1 DIV PUSH1 0xFF AND PUSH2 0x595F JUMPI DUP2 PUSH2 0x58F3 JUMPI PUSH1 0x40 MLOAD DUP1 PUSH1 0x20 ADD PUSH1 0x40 MSTORE DUP1 PUSH1 0x0 DUP2 MSTORE POP PUSH2 0x592A JUMP JUMPDEST PUSH1 0x40 MLOAD DUP1 PUSH1 0x40 ADD PUSH1 0x40 MSTORE DUP1 PUSH1 0x2 DUP2 MSTORE PUSH1 0x20 ADD PUSH32 0x2C20000000000000000000000000000000000000000000000000000000000000 DUP2 MSTORE POP JUMPDEST PUSH1 0x40 MLOAD PUSH1 0x20 ADD PUSH2 0x593A SWAP2 SWAP1 PUSH2 0x6C36 JUMP JUMPDEST PUSH1 0x40 MLOAD PUSH1 0x20 DUP2 DUP4 SUB SUB DUP2 MSTORE SWAP1 PUSH1 0x40 MSTORE DUP6 PUSH1 0x6 ADD SWAP1 DUP2 PUSH2 0x5959 SWAP2 SWAP1 PUSH2 0x66D0 JUMP JUMPDEST POP PUSH1 0x1 SWAP2 POP JUMPDEST POP JUMPDEST SWAP6 SWAP5 POP POP POP POP POP JUMP JUMPDEST PUSH1 0x0 DUP3 DUP2 MSTORE PUSH1 0xB PUSH1 0x20 MSTORE PUSH1 0x40 SWAP1 KECCAK256 PUSH1 0x2 PUSH1 0x4 DUP1 DUP4 ADD SLOAD PUSH1 0xFF AND SWAP1 DUP2 GT ISZERO PUSH2 0x5993 JUMPI PUSH2 0x5993 PUSH2 0x623A JUMP JUMPDEST EQ DUP1 ISZERO PUSH2 0x59B1 JUMPI POP PUSH1 0x1 DUP3 PUSH1 0x4 DUP2 GT ISZERO PUSH2 0x59AF JUMPI PUSH2 0x59AF PUSH2 0x623A JUMP JUMPDEST EQ JUMPDEST ISZERO PUSH2 0x59CB JUMPI PUSH1 0x4 DUP2 DUP2 ADD DUP1 SLOAD PUSH1 0xFF NOT AND SWAP1 SWAP2 OR SWAP1 SSTORE PUSH2 0x59F7 JUMP JUMPDEST DUP2 DUP2 PUSH1 0x4 ADD PUSH1 0x0 PUSH2 0x100 EXP DUP2 SLOAD DUP2 PUSH1 0xFF MUL NOT AND SWAP1 DUP4 PUSH1 0x4 DUP2 GT ISZERO PUSH2 0x59F1 JUMPI PUSH2 0x59F1 PUSH2 0x623A JUMP JUMPDEST MUL OR SWAP1 SSTORE POP JUMPDEST PUSH1 0x2 PUSH1 0x4 DUP1 DUP4 ADD SLOAD PUSH1 0xFF AND SWAP1 DUP2 GT ISZERO PUSH2 0x5A12 JUMPI PUSH2 0x5A12 PUSH2 0x623A JUMP JUMPDEST LT PUSH2 0x5A59 JUMPI PUSH1 0x4 DUP2 ADD SLOAD PUSH1 0x40 MLOAD DUP5 SWAP2 PUSH32 0xDAF55112D5C5FE5C33B5A1798ECF71D462C3B5EC5855ABB929D4266CE8C79C02 SWAP2 PUSH2 0x5A50 SWAP2 PUSH1 0xFF AND SWAP1 PUSH2 0x6790 JUMP JUMPDEST PUSH1 0x40 MLOAD DUP1 SWAP2 SUB SWAP1 LOG2 JUMPDEST POP POP POP JUMP JUMPDEST PUSH1 0x0 PUSH2 0x5B34 DUP4 PUSH1 0x1 PUSH1 0x1 PUSH1 0xA0 SHL SUB AND PUSH4 0x95D89B41 PUSH1 0x40 MLOAD DUP2 PUSH4 0xFFFFFFFF AND PUSH1 0xE0 SHL DUP2 MSTORE PUSH1 0x4 ADD PUSH1 0x0 PUSH1 0x40 MLOAD DUP1 DUP4 SUB DUP2 DUP7 GAS STATICCALL ISZERO DUP1 ISZERO PUSH2 0x5AA1 JUMPI RETURNDATASIZE PUSH1 0x0 DUP1 RETURNDATACOPY RETURNDATASIZE PUSH1 0x0 REVERT JUMPDEST POP POP POP POP PUSH1 0x40 MLOAD RETURNDATASIZE PUSH1 0x0 DUP3 RETURNDATACOPY PUSH1 0x1F RETURNDATASIZE SWAP1 DUP2 ADD PUSH1 0x1F NOT AND DUP3 ADD PUSH1 0x40 MSTORE PUSH2 0x5AC9 SWAP2 SWAP1 DUP2 ADD SWAP1 PUSH2 0x694F JUMP JUMPDEST DUP4 PUSH1 0x1 PUSH1 0x1 PUSH1 0xA0 SHL SUB AND PUSH4 0x95D89B41 PUSH1 0x40 MLOAD DUP2 PUSH4 0xFFFFFFFF AND PUSH1 0xE0 SHL DUP2 MSTORE PUSH1 0x4 ADD PUSH1 0x0 PUSH1 0x40 MLOAD DUP1 DUP4 SUB DUP2 DUP7 GAS STATICCALL ISZERO DUP1 ISZERO PUSH2 0x5B07 JUMPI RETURNDATASIZE PUSH1 0x0 DUP1 RETURNDATACOPY RETURNDATASIZE PUSH1 0x0 REVERT JUMPDEST POP POP POP POP PUSH1 0x40 MLOAD RETURNDATASIZE PUSH1 0x0 DUP3 RETURNDATACOPY PUSH1 0x1F RETURNDATASIZE SWAP1 DUP2 ADD PUSH1 0x1F NOT AND DUP3 ADD PUSH1 0x40 MSTORE PUSH2 0x5B2F SWAP2 SWAP1 DUP2 ADD SWAP1 PUSH2 0x694F JUMP JUMPDEST PUSH2 0x4413 JUMP JUMPDEST DUP1 ISZERO PUSH2 0xB21 JUMPI POP DUP2 PUSH1 0x1 PUSH1 0x1 PUSH1 0xA0 SHL SUB AND PUSH4 0x313CE567 PUSH1 0x40 MLOAD DUP2 PUSH4 0xFFFFFFFF AND PUSH1 0xE0 SHL DUP2 MSTORE PUSH1 0x4 ADD PUSH1 0x20 PUSH1 0x40 MLOAD DUP1 DUP4 SUB DUP2 DUP7 GAS STATICCALL ISZERO DUP1 ISZERO PUSH2 0x5B79 JUMPI RETURNDATASIZE PUSH1 0x0 DUP1 RETURNDATACOPY RETURNDATASIZE PUSH1 0x0 REVERT JUMPDEST POP POP POP POP PUSH1 0x40 MLOAD RETURNDATASIZE PUSH1 0x1F NOT PUSH1 0x1F DUP3 ADD AND DUP3 ADD DUP1 PUSH1 0x40 MSTORE POP DUP2 ADD SWAP1 PUSH2 0x5B9D SWAP2 SWAP1 PUSH2 0x6B64 JUMP JUMPDEST PUSH1 0xFF AND DUP4 PUSH1 0x1 PUSH1 0x1 PUSH1 0xA0 SHL SUB AND PUSH4 0x313CE567 PUSH1 0x40 MLOAD DUP2 PUSH4 0xFFFFFFFF AND PUSH1 0xE0 SHL DUP2 MSTORE PUSH1 0x4 ADD PUSH1 0x20 PUSH1 0x40 MLOAD DUP1 DUP4 SUB DUP2 DUP7 GAS STATICCALL ISZERO DUP1 ISZERO PUSH2 0x5BDE JUMPI RETURNDATASIZE PUSH1 0x0 DUP1 RETURNDATACOPY RETURNDATASIZE PUSH1 0x0 REVERT JUMPDEST POP POP POP POP PUSH1 0x40 MLOAD RETURNDATASIZE PUSH1 0x1F NOT PUSH1 0x1F DUP3 ADD AND DUP3 ADD DUP1 PUSH1 0x40 MSTORE POP DUP2 ADD SWAP1 PUSH2 0x5C02 SWAP2 SWAP1 PUSH2 0x6B64 JUMP JUMPDEST PUSH1 0xFF AND EQ SWAP4 SWAP3 POP POP POP JUMP JUMPDEST PUSH1 0x0 PUSH1 0x1 PUSH1 0x1 PUSH1 0xA0 SHL SUB DUP6 AND PUSH2 0x5C76 JUMPI PUSH1 0x40 MLOAD PUSH3 0x461BCD PUSH1 0xE5 SHL DUP2 MSTORE PUSH1 0x20 PUSH1 0x4 DUP3 ADD MSTORE PUSH1 0x28 PUSH1 0x24 DUP3 ADD MSTORE PUSH32 0x536F433A2043616E6E6F74207472616E736665722066726F6D2061206E756C6C PUSH1 0x44 DUP3 ADD MSTORE PUSH8 0x81858D8DBDD5B9D PUSH1 0xC2 SHL PUSH1 0x64 DUP3 ADD MSTORE PUSH1 0x84 ADD PUSH2 0x968 JUMP JUMPDEST PUSH1 0x1 PUSH1 0x1 PUSH1 0xA0 SHL SUB DUP5 AND PUSH2 0x5CF2 JUMPI PUSH1 0x40 MLOAD PUSH3 0x461BCD PUSH1 0xE5 SHL DUP2 MSTORE PUSH1 0x20 PUSH1 0x4 DUP3 ADD MSTORE PUSH1 0x26 PUSH1 0x24 DUP3 ADD MSTORE PUSH32 0x536F433A2043616E6E6F74207472616E7366657220746F2061206E756C6C2061 PUSH1 0x44 DUP3 ADD MSTORE PUSH32 0x63636F756E740000000000000000000000000000000000000000000000000000 PUSH1 0x64 DUP3 ADD MSTORE PUSH1 0x84 ADD PUSH2 0x968 JUMP JUMPDEST PUSH1 0x0 DUP3 DUP2 MSTORE PUSH1 0xB PUSH1 0x20 MSTORE PUSH1 0x40 SWAP1 KECCAK256 PUSH2 0x5D0F SWAP1 DUP7 SWAP1 DUP7 SWAP1 PUSH1 0x2 PUSH2 0x57B7 JUMP JUMPDEST ISZERO PUSH2 0x5D27 JUMPI PUSH2 0x5D1F DUP3 PUSH1 0x2 PUSH2 0x596A JUMP JUMPDEST POP PUSH1 0x0 PUSH2 0x113F JUMP JUMPDEST PUSH2 0x5D36 DUP6 PUSH1 0x0 DUP6 PUSH1 0x0 DUP1 PUSH2 0x536E JUMP JUMPDEST PUSH2 0x5D45 DUP5 DUP5 PUSH1 0x0 DUP1 PUSH1 0x0 PUSH2 0x536E JUMP JUMPDEST DUP4 PUSH1 0x1 PUSH1 0x1 PUSH1 0xA0 SHL SUB AND DUP6 PUSH1 0x1 PUSH1 0x1 PUSH1 0xA0 SHL SUB AND PUSH32 0xDDF252AD1BE2C89B69C2B068FC378DAA952BA7F163C4A11628F55A4DF523B3EF DUP6 PUSH1 0x40 MLOAD PUSH2 0x5D8A SWAP2 DUP2 MSTORE PUSH1 0x20 ADD SWAP1 JUMP JUMPDEST PUSH1 0x40 MLOAD DUP1 SWAP2 SUB SWAP1 LOG3 DUP2 DUP5 PUSH1 0x1 PUSH1 0x1 PUSH1 0xA0 SHL SUB AND DUP7 PUSH1 0x1 PUSH1 0x1 PUSH1 0xA0 SHL SUB AND PUSH32 0xEBF4E2ACF0DEB5CB995E1905CD9BE5A9E8388A9F08B1473A730437DE1EBA7996 DUP7 PUSH1 0x40 MLOAD PUSH2 0x5DD8 SWAP2 DUP2 MSTORE PUSH1 0x20 ADD SWAP1 JUMP JUMPDEST PUSH1 0x40 MLOAD DUP1 SWAP2 SUB SWAP1 LOG4 PUSH2 0x5DEB DUP3 PUSH1 0x1 PUSH2 0x596A JUMP JUMPDEST POP PUSH1 0x1 SWAP5 SWAP4 POP POP POP POP JUMP JUMPDEST PUSH1 0x0 JUMPDEST DUP4 DUP2 LT ISZERO PUSH2 0x5E11 JUMPI DUP2 DUP2 ADD MLOAD DUP4 DUP3 ADD MSTORE PUSH1 0x20 ADD PUSH2 0x5DF9 JUMP JUMPDEST POP POP PUSH1 0x0 SWAP2 ADD MSTORE JUMP JUMPDEST PUSH1 0x0 DUP2 MLOAD DUP1 DUP5 MSTORE PUSH2 0x5E32 DUP2 PUSH1 0x20 DUP7 ADD PUSH1 0x20 DUP7 ADD PUSH2 0x5DF6 JUMP JUMPDEST PUSH1 0x1F ADD PUSH1 0x1F NOT AND SWAP3 SWAP1 SWAP3 ADD PUSH1 0x20 ADD SWAP3 SWAP2 POP POP JUMP JUMPDEST PUSH1 0x20 DUP2 MSTORE PUSH1 0x0 PUSH2 0xB21 PUSH1 0x20 DUP4 ADD DUP5 PUSH2 0x5E1A JUMP JUMPDEST PUSH1 0x0 PUSH1 0x20 DUP3 DUP5 SUB SLT ISZERO PUSH2 0x5E6B JUMPI PUSH1 0x0 DUP1 REVERT JUMPDEST DUP2 CALLDATALOAD PUSH4 0xFFFFFFFF DUP2 AND DUP2 EQ PUSH2 0x144C JUMPI PUSH1 0x0 DUP1 REVERT JUMPDEST PUSH1 0x1 PUSH1 0x1 PUSH1 0xA0 SHL SUB DUP2 AND DUP2 EQ PUSH2 0x38EF JUMPI PUSH1 0x0 DUP1 REVERT JUMPDEST PUSH1 0x0 PUSH1 0x20 DUP3 DUP5 SUB SLT ISZERO PUSH2 0x5EA6 JUMPI PUSH1 0x0 DUP1 REVERT JUMPDEST DUP2 CALLDATALOAD PUSH2 0x144C DUP2 PUSH2 0x5E7F JUMP JUMPDEST PUSH1 0x0 DUP1 PUSH1 0x40 DUP4 DUP6 SUB SLT ISZERO PUSH2 0x5EC4 JUMPI PUSH1 0x0 DUP1 REVERT JUMPDEST DUP3 CALLDATALOAD PUSH2 0x5ECF DUP2 PUSH2 0x5E7F JUMP JUMPDEST SWAP5 PUSH1 0x20 SWAP4 SWAP1 SWAP4 ADD CALLDATALOAD SWAP4 POP POP POP JUMP JUMPDEST PUSH4 0x4E487B71 PUSH1 0xE0 SHL PUSH1 0x0 MSTORE PUSH1 0x41 PUSH1 0x4 MSTORE PUSH1 0x24 PUSH1 0x0 REVERT JUMPDEST PUSH1 0x40 MLOAD PUSH1 0xC0 DUP2 ADD PUSH8 0xFFFFFFFFFFFFFFFF DUP2 GT DUP3 DUP3 LT OR ISZERO PUSH2 0x5F16 JUMPI PUSH2 0x5F16 PUSH2 0x5EDD JUMP JUMPDEST PUSH1 0x40 MSTORE SWAP1 JUMP JUMPDEST PUSH1 0x40 MLOAD PUSH1 0x1F DUP3 ADD PUSH1 0x1F NOT AND DUP2 ADD PUSH8 0xFFFFFFFFFFFFFFFF DUP2 GT DUP3 DUP3 LT OR ISZERO PUSH2 0x5F45 JUMPI PUSH2 0x5F45 PUSH2 0x5EDD JUMP JUMPDEST PUSH1 0x40 MSTORE SWAP2 SWAP1 POP JUMP JUMPDEST PUSH1 0x0 PUSH8 0xFFFFFFFFFFFFFFFF DUP3 GT ISZERO PUSH2 0x5F67 JUMPI PUSH2 0x5F67 PUSH2 0x5EDD JUMP JUMPDEST POP PUSH1 0x1F ADD PUSH1 0x1F NOT AND PUSH1 0x20 ADD SWAP1 JUMP JUMPDEST PUSH1 0x0 DUP3 PUSH1 0x1F DUP4 ADD SLT PUSH2 0x5F86 JUMPI PUSH1 0x0 DUP1 REVERT JUMPDEST DUP2 CALLDATALOAD PUSH2 0x5F99 PUSH2 0x5F94 DUP3 PUSH2 0x5F4D JUMP JUMPDEST PUSH2 0x5F1C JUMP JUMPDEST DUP2 DUP2 MSTORE DUP5 PUSH1 0x20 DUP4 DUP7 ADD ADD GT ISZERO PUSH2 0x5FAE JUMPI PUSH1 0x0 DUP1 REVERT JUMPDEST DUP2 PUSH1 0x20 DUP6 ADD PUSH1 0x20 DUP4 ADD CALLDATACOPY PUSH1 0x0 SWAP2 DUP2 ADD PUSH1 0x20 ADD SWAP2 SWAP1 SWAP2 MSTORE SWAP4 SWAP3 POP POP POP JUMP JUMPDEST PUSH1 0x0 PUSH1 0x20 DUP3 DUP5 SUB SLT ISZERO PUSH2 0x5FDD JUMPI PUSH1 0x0 DUP1 REVERT JUMPDEST DUP2 CALLDATALOAD PUSH8 0xFFFFFFFFFFFFFFFF DUP2 GT ISZERO PUSH2 0x5FF4 JUMPI PUSH1 0x0 DUP1 REVERT JUMPDEST PUSH2 0x113F DUP5 DUP3 DUP6 ADD PUSH2 0x5F75 JUMP JUMPDEST PUSH1 0x0 DUP1 DUP4 PUSH1 0x1F DUP5 ADD SLT PUSH2 0x6012 JUMPI PUSH1 0x0 DUP1 REVERT JUMPDEST POP DUP2 CALLDATALOAD PUSH8 0xFFFFFFFFFFFFFFFF DUP2 GT ISZERO PUSH2 0x602A JUMPI PUSH1 0x0 DUP1 REVERT JUMPDEST PUSH1 0x20 DUP4 ADD SWAP2 POP DUP4 PUSH1 0x20 DUP3 DUP6 ADD ADD GT ISZERO PUSH2 0x6042 JUMPI PUSH1 0x0 DUP1 REVERT JUMPDEST SWAP3 POP SWAP3 SWAP1 POP JUMP JUMPDEST PUSH1 0x0 DUP1 PUSH1 0x0 DUP1 PUSH1 0x60 DUP6 DUP8 SUB SLT ISZERO PUSH2 0x605F JUMPI PUSH1 0x0 DUP1 REVERT JUMPDEST DUP5 CALLDATALOAD PUSH2 0x606A DUP2 PUSH2 0x5E7F JUMP JUMPDEST SWAP4 POP PUSH1 0x20 DUP6 ADD CALLDATALOAD SWAP3 POP PUSH1 0x40 DUP6 ADD CALLDATALOAD PUSH8 0xFFFFFFFFFFFFFFFF DUP2 GT ISZERO PUSH2 0x608D JUMPI PUSH1 0x0 DUP1 REVERT JUMPDEST PUSH2 0x6099 DUP8 DUP3 DUP9 ADD PUSH2 0x6000 JUMP JUMPDEST SWAP6 SWAP9 SWAP5 SWAP8 POP SWAP6 POP POP POP POP JUMP JUMPDEST PUSH1 0x0 PUSH1 0x60 DUP3 DUP5 SUB SLT ISZERO PUSH2 0x1C7C JUMPI PUSH1 0x0 DUP1 REVERT JUMPDEST PUSH1 0x0 DUP1 PUSH1 0x0 DUP1 PUSH1 0x0 PUSH1 0xC0 DUP7 DUP9 SUB SLT ISZERO PUSH2 0x60CF JUMPI PUSH1 0x0 DUP1 REVERT JUMPDEST DUP6 CALLDATALOAD PUSH2 0x60DA DUP2 PUSH2 0x5E7F JUMP JUMPDEST SWAP5 POP PUSH2 0x60E9 DUP8 PUSH1 0x20 DUP9 ADD PUSH2 0x60A5 JUMP JUMPDEST SWAP4 POP PUSH1 0x80 DUP7 ADD CALLDATALOAD SWAP3 POP PUSH1 0xA0 DUP7 ADD CALLDATALOAD PUSH8 0xFFFFFFFFFFFFFFFF DUP2 GT ISZERO PUSH2 0x610C JUMPI PUSH1 0x0 DUP1 REVERT JUMPDEST PUSH2 0x6118 DUP9 DUP3 DUP10 ADD PUSH2 0x6000 JUMP JUMPDEST SWAP7 SWAP10 SWAP6 SWAP9 POP SWAP4 SWAP7 POP SWAP3 SWAP5 SWAP4 SWAP3 POP POP POP JUMP JUMPDEST PUSH1 0x0 DUP1 PUSH1 0x0 PUSH1 0x60 DUP5 DUP7 SUB SLT ISZERO PUSH2 0x613E JUMPI PUSH1 0x0 DUP1 REVERT JUMPDEST DUP4 CALLDATALOAD SWAP3 POP PUSH1 0x20 DUP5 ADD CALLDATALOAD PUSH1 0x2 DUP2 LT PUSH2 0x6154 JUMPI PUSH1 0x0 DUP1 REVERT JUMPDEST SWAP3 SWAP6 SWAP3 SWAP5 POP POP POP PUSH1 0x40 SWAP2 SWAP1 SWAP2 ADD CALLDATALOAD SWAP1 JUMP JUMPDEST PUSH1 0x0 PUSH1 0x20 DUP3 DUP5 SUB SLT ISZERO PUSH2 0x6177 JUMPI PUSH1 0x0 DUP1 REVERT JUMPDEST POP CALLDATALOAD SWAP2 SWAP1 POP JUMP JUMPDEST PUSH1 0x5 DUP2 LT PUSH2 0x38EF JUMPI PUSH1 0x0 DUP1 REVERT JUMPDEST PUSH1 0x0 DUP1 PUSH1 0x0 PUSH1 0x60 DUP5 DUP7 SUB SLT ISZERO PUSH2 0x61A0 JUMPI PUSH1 0x0 DUP1 REVERT JUMPDEST DUP4 CALLDATALOAD SWAP3 POP PUSH1 0x20 DUP5 ADD CALLDATALOAD PUSH2 0x61B2 DUP2 PUSH2 0x617E JUMP JUMPDEST SWAP2 POP PUSH1 0x40 DUP5 ADD CALLDATALOAD PUSH8 0xFFFFFFFFFFFFFFFF DUP2 GT ISZERO PUSH2 0x61CE JUMPI PUSH1 0x0 DUP1 REVERT JUMPDEST PUSH2 0x61DA DUP7 DUP3 DUP8 ADD PUSH2 0x5F75 JUMP JUMPDEST SWAP2 POP POP SWAP3 POP SWAP3 POP SWAP3 JUMP JUMPDEST PUSH1 0x0 DUP1 PUSH1 0x0 PUSH1 0xA0 DUP5 DUP7 SUB SLT ISZERO PUSH2 0x61F9 JUMPI PUSH1 0x0 DUP1 REVERT JUMPDEST PUSH2 0x6203 DUP6 DUP6 PUSH2 0x60A5 JUMP JUMPDEST SWAP6 PUSH1 0x60 DUP6 ADD CALLDATALOAD SWAP6 POP PUSH1 0x80 SWAP1 SWAP5 ADD CALLDATALOAD SWAP4 SWAP3 POP POP POP JUMP JUMPDEST PUSH1 0x0 DUP1 PUSH1 0x40 DUP4 DUP6 SUB SLT ISZERO PUSH2 0x622B JUMPI PUSH1 0x0 DUP1 REVERT JUMPDEST POP POP DUP1 CALLDATALOAD SWAP3 PUSH1 0x20 SWAP1 SWAP2 ADD CALLDATALOAD SWAP2 POP JUMP JUMPDEST PUSH4 0x4E487B71 PUSH1 0xE0 SHL PUSH1 0x0 MSTORE PUSH1 0x21 PUSH1 0x4 MSTORE PUSH1 0x24 PUSH1 0x0 REVERT JUMPDEST PUSH1 0x5 DUP2 LT PUSH2 0x6260 JUMPI PUSH2 0x6260 PUSH2 0x623A JUMP JUMPDEST SWAP1 MSTORE JUMP JUMPDEST PUSH1 0x20 DUP2 MSTORE PUSH1 0x1 PUSH1 0x1 PUSH1 0xA0 SHL SUB DUP3 MLOAD AND PUSH1 0x20 DUP3 ADD MSTORE PUSH1 0x0 PUSH1 0x20 DUP4 ADD MLOAD PUSH2 0x62B3 PUSH1 0x40 DUP5 ADD DUP3 DUP1 MLOAD PUSH1 0x1 PUSH1 0x1 PUSH1 0xA0 SHL SUB AND DUP3 MSTORE PUSH1 0x20 DUP1 DUP3 ADD MLOAD PUSH1 0x1 PUSH1 0x1 PUSH1 0xA8 SHL SUB NOT AND SWAP1 DUP4 ADD MSTORE PUSH1 0x40 SWAP1 DUP2 ADD MLOAD SWAP2 ADD MSTORE JUMP JUMPDEST POP PUSH1 0x40 DUP4 ADD MLOAD PUSH1 0xA0 DUP4 ADD MSTORE PUSH1 0x60 DUP4 ADD MLOAD PUSH2 0x62D0 PUSH1 0xC0 DUP5 ADD DUP3 PUSH2 0x6250 JUMP JUMPDEST POP PUSH1 0x80 DUP4 ADD MLOAD PUSH2 0x100 DUP1 PUSH1 0xE0 DUP6 ADD MSTORE PUSH2 0x62ED PUSH2 0x120 DUP6 ADD DUP4 PUSH2 0x5E1A JUMP JUMPDEST SWAP2 POP PUSH1 0xA0 DUP6 ADD MLOAD PUSH1 0x1F NOT DUP6 DUP5 SUB ADD DUP3 DUP7 ADD MSTORE PUSH2 0x34EA DUP4 DUP3 PUSH2 0x5E1A JUMP JUMPDEST PUSH1 0x0 DUP1 PUSH1 0x0 DUP1 PUSH1 0xA0 DUP6 DUP8 SUB SLT ISZERO PUSH2 0x631F JUMPI PUSH1 0x0 DUP1 REVERT JUMPDEST PUSH2 0x6329 DUP7 DUP7 PUSH2 0x60A5 JUMP JUMPDEST SWAP4 POP PUSH1 0x60 DUP6 ADD CALLDATALOAD SWAP3 POP PUSH1 0x80 DUP6 ADD CALLDATALOAD PUSH8 0xFFFFFFFFFFFFFFFF DUP2 GT ISZERO PUSH2 0x608D JUMPI PUSH1 0x0 DUP1 REVERT JUMPDEST PUSH1 0x0 DUP1 PUSH1 0x0 PUSH1 0x60 DUP5 DUP7 SUB SLT ISZERO PUSH2 0x6361 JUMPI PUSH1 0x0 DUP1 REVERT JUMPDEST DUP4 CALLDATALOAD PUSH2 0x636C DUP2 PUSH2 0x5E7F JUMP JUMPDEST SWAP3 POP PUSH1 0x20 DUP5 ADD CALLDATALOAD PUSH2 0x637C DUP2 PUSH2 0x5E7F JUMP JUMPDEST SWAP2 POP PUSH1 0x40 DUP5 ADD CALLDATALOAD PUSH2 0x638C DUP2 PUSH2 0x5E7F JUMP JUMPDEST DUP1 SWAP2 POP POP SWAP3 POP SWAP3 POP SWAP3 JUMP JUMPDEST DUP1 MLOAD DUP1 ISZERO ISZERO DUP2 EQ PUSH2 0x1641 JUMPI PUSH1 0x0 DUP1 REVERT JUMPDEST PUSH1 0x0 DUP3 PUSH1 0x1F DUP4 ADD SLT PUSH2 0x63B8 JUMPI PUSH1 0x0 DUP1 REVERT JUMPDEST DUP2 MLOAD PUSH2 0x63C6 PUSH2 0x5F94 DUP3 PUSH2 0x5F4D JUMP JUMPDEST DUP2 DUP2 MSTORE DUP5 PUSH1 0x20 DUP4 DUP7 ADD ADD GT ISZERO PUSH2 0x63DB JUMPI PUSH1 0x0 DUP1 REVERT JUMPDEST PUSH2 0x113F DUP3 PUSH1 0x20 DUP4 ADD PUSH1 0x20 DUP8 ADD PUSH2 0x5DF6 JUMP JUMPDEST PUSH1 0x0 DUP1 PUSH1 0x0 DUP1 PUSH1 0x0 PUSH1 0xA0 DUP7 DUP9 SUB SLT ISZERO PUSH2 0x6404 JUMPI PUSH1 0x0 DUP1 REVERT JUMPDEST PUSH2 0x640D DUP7 PUSH2 0x6397 JUMP JUMPDEST SWAP5 POP PUSH1 0x20 DUP7 ADD MLOAD PUSH8 0xFFFFFFFFFFFFFFFF DUP1 DUP3 GT ISZERO PUSH2 0x642A JUMPI PUSH1 0x0 DUP1 REVERT JUMPDEST PUSH2 0x6436 DUP10 DUP4 DUP11 ADD PUSH2 0x63A7 JUMP JUMPDEST SWAP6 POP PUSH1 0x40 DUP9 ADD MLOAD SWAP2 POP DUP1 DUP3 GT ISZERO PUSH2 0x644C JUMPI PUSH1 0x0 DUP1 REVERT JUMPDEST PUSH2 0x6458 DUP10 DUP4 DUP11 ADD PUSH2 0x63A7 JUMP JUMPDEST SWAP5 POP PUSH1 0x60 DUP9 ADD MLOAD SWAP2 POP DUP1 DUP3 GT ISZERO PUSH2 0x646E JUMPI PUSH1 0x0 DUP1 REVERT JUMPDEST POP PUSH2 0x647B DUP9 DUP3 DUP10 ADD PUSH2 0x63A7 JUMP JUMPDEST SWAP3 POP POP PUSH1 0x80 DUP7 ADD MLOAD PUSH2 0xFFFF DUP2 AND DUP2 EQ PUSH2 0x6493 JUMPI PUSH1 0x0 DUP1 REVERT JUMPDEST DUP1 SWAP2 POP POP SWAP3 SWAP6 POP SWAP3 SWAP6 SWAP1 SWAP4 POP JUMP JUMPDEST PUSH4 0x4E487B71 PUSH1 0xE0 SHL PUSH1 0x0 MSTORE PUSH1 0x32 PUSH1 0x4 MSTORE PUSH1 0x24 PUSH1 0x0 REVERT JUMPDEST PUSH4 0x4E487B71 PUSH1 0xE0 SHL PUSH1 0x0 MSTORE PUSH1 0x11 PUSH1 0x4 MSTORE PUSH1 0x24 PUSH1 0x0 REVERT JUMPDEST PUSH1 0x0 PUSH1 0x0 NOT DUP3 SUB PUSH2 0x64E0 JUMPI PUSH2 0x64E0 PUSH2 0x64B7 JUMP JUMPDEST POP PUSH1 0x1 ADD SWAP1 JUMP JUMPDEST DUP2 DUP2 SUB DUP2 DUP2 GT ISZERO PUSH2 0xB24 JUMPI PUSH2 0xB24 PUSH2 0x64B7 JUMP JUMPDEST PUSH1 0x0 DUP3 MLOAD PUSH2 0x650C DUP2 DUP5 PUSH1 0x20 DUP8 ADD PUSH2 0x5DF6 JUMP JUMPDEST SWAP2 SWAP1 SWAP2 ADD SWAP3 SWAP2 POP POP JUMP JUMPDEST PUSH1 0x0 PUSH1 0x20 DUP3 DUP5 SUB SLT ISZERO PUSH2 0x6528 JUMPI PUSH1 0x0 DUP1 REVERT JUMPDEST POP MLOAD SWAP2 SWAP1 POP JUMP JUMPDEST DUP1 MLOAD PUSH1 0x20 DUP1 DUP4 ADD MLOAD SWAP2 SWAP1 DUP2 LT ISZERO PUSH2 0x1C7C JUMPI PUSH1 0x0 NOT PUSH1 0x20 SWAP2 SWAP1 SWAP2 SUB PUSH1 0x3 SHL SHL AND SWAP2 SWAP1 POP JUMP JUMPDEST DUP1 MLOAD PUSH2 0x1641 DUP2 PUSH2 0x5E7F JUMP JUMPDEST PUSH1 0x0 PUSH1 0x20 DUP3 DUP5 SUB SLT ISZERO PUSH2 0x6570 JUMPI PUSH1 0x0 DUP1 REVERT JUMPDEST DUP2 MLOAD PUSH2 0x144C DUP2 PUSH2 0x5E7F JUMP JUMPDEST PUSH1 0x1 PUSH1 0x1 PUSH1 0xA8 SHL SUB NOT DUP2 AND DUP2 EQ PUSH2 0x38EF JUMPI PUSH1 0x0 DUP1 REVERT JUMPDEST PUSH1 0x0 PUSH1 0x60 DUP3 DUP5 SUB SLT ISZERO PUSH2 0x65A3 JUMPI PUSH1 0x0 DUP1 REVERT JUMPDEST PUSH1 0x40 MLOAD PUSH1 0x60 DUP2 ADD DUP2 DUP2 LT PUSH8 0xFFFFFFFFFFFFFFFF DUP3 GT OR ISZERO PUSH2 0x65C6 JUMPI PUSH2 0x65C6 PUSH2 0x5EDD JUMP JUMPDEST PUSH1 0x40 MSTORE DUP3 CALLDATALOAD PUSH2 0x65D4 DUP2 PUSH2 0x5E7F JUMP JUMPDEST DUP2 MSTORE PUSH1 0x20 DUP4 ADD CALLDATALOAD PUSH2 0x65E4 DUP2 PUSH2 0x657B JUMP JUMPDEST PUSH1 0x20 DUP3 ADD MSTORE PUSH1 0x40 SWAP3 DUP4 ADD CALLDATALOAD SWAP3 DUP2 ADD SWAP3 SWAP1 SWAP3 MSTORE POP SWAP2 SWAP1 POP JUMP JUMPDEST DUP1 DUP3 ADD DUP1 DUP3 GT ISZERO PUSH2 0xB24 JUMPI PUSH2 0xB24 PUSH2 0x64B7 JUMP JUMPDEST PUSH1 0x2 DUP2 LT PUSH2 0x6260 JUMPI PUSH2 0x6260 PUSH2 0x623A JUMP JUMPDEST DUP3 DUP2 MSTORE PUSH1 0x40 DUP2 ADD PUSH2 0x144C PUSH1 0x20 DUP4 ADD DUP5 PUSH2 0x660F JUMP JUMPDEST PUSH1 0x0 PUSH1 0x20 DUP3 DUP5 SUB SLT ISZERO PUSH2 0x6645 JUMPI PUSH1 0x0 DUP1 REVERT JUMPDEST PUSH2 0xB21 DUP3 PUSH2 0x6397 JUMP JUMPDEST PUSH1 0x1 DUP2 DUP2 SHR SWAP1 DUP3 AND DUP1 PUSH2 0x6662 JUMPI PUSH1 0x7F DUP3 AND SWAP2 POP JUMPDEST PUSH1 0x20 DUP3 LT DUP2 SUB PUSH2 0x1C7C JUMPI PUSH4 0x4E487B71 PUSH1 0xE0 SHL PUSH1 0x0 MSTORE PUSH1 0x22 PUSH1 0x4 MSTORE PUSH1 0x24 PUSH1 0x0 REVERT JUMPDEST PUSH1 0x1F DUP3 GT ISZERO PUSH2 0x5A59 JUMPI PUSH1 0x0 DUP2 DUP2 MSTORE PUSH1 0x20 DUP2 KECCAK256 PUSH1 0x1F DUP6 ADD PUSH1 0x5 SHR DUP2 ADD PUSH1 0x20 DUP7 LT ISZERO PUSH2 0x66A9 JUMPI POP DUP1 JUMPDEST PUSH1 0x1F DUP6 ADD PUSH1 0x5 SHR DUP3 ADD SWAP2 POP JUMPDEST DUP2 DUP2 LT ISZERO PUSH2 0x66C8 JUMPI DUP3 DUP2 SSTORE PUSH1 0x1 ADD PUSH2 0x66B5 JUMP JUMPDEST POP POP POP POP POP POP JUMP JUMPDEST DUP2 MLOAD PUSH8 0xFFFFFFFFFFFFFFFF DUP2 GT ISZERO PUSH2 0x66EA JUMPI PUSH2 0x66EA PUSH2 0x5EDD JUMP JUMPDEST PUSH2 0x66FE DUP2 PUSH2 0x66F8 DUP5 SLOAD PUSH2 0x664E JUMP JUMPDEST DUP5 PUSH2 0x6682 JUMP JUMPDEST PUSH1 0x20 DUP1 PUSH1 0x1F DUP4 GT PUSH1 0x1 DUP2 EQ PUSH2 0x6733 JUMPI PUSH1 0x0 DUP5 ISZERO PUSH2 0x671B JUMPI POP DUP6 DUP4 ADD MLOAD JUMPDEST PUSH1 0x0 NOT PUSH1 0x3 DUP7 SWAP1 SHL SHR NOT AND PUSH1 0x1 DUP6 SWAP1 SHL OR DUP6 SSTORE PUSH2 0x66C8 JUMP JUMPDEST PUSH1 0x0 DUP6 DUP2 MSTORE PUSH1 0x20 DUP2 KECCAK256 PUSH1 0x1F NOT DUP7 AND SWAP2 JUMPDEST DUP3 DUP2 LT ISZERO PUSH2 0x6762 JUMPI DUP9 DUP7 ADD MLOAD DUP3 SSTORE SWAP5 DUP5 ADD SWAP5 PUSH1 0x1 SWAP1 SWAP2 ADD SWAP1 DUP5 ADD PUSH2 0x6743 JUMP JUMPDEST POP DUP6 DUP3 LT ISZERO PUSH2 0x6780 JUMPI DUP8 DUP6 ADD MLOAD PUSH1 0x0 NOT PUSH1 0x3 DUP9 SWAP1 SHL PUSH1 0xF8 AND SHR NOT AND DUP2 SSTORE JUMPDEST POP POP POP POP POP PUSH1 0x1 SWAP1 DUP2 SHL ADD SWAP1 SSTORE POP JUMP JUMPDEST PUSH1 0x20 DUP2 ADD PUSH2 0xB24 DUP3 DUP5 PUSH2 0x6250 JUMP JUMPDEST PUSH1 0x0 PUSH1 0x60 DUP3 DUP5 SUB SLT ISZERO PUSH2 0x67B0 JUMPI PUSH1 0x0 DUP1 REVERT JUMPDEST PUSH1 0x40 MLOAD PUSH1 0x60 DUP2 ADD DUP2 DUP2 LT PUSH8 0xFFFFFFFFFFFFFFFF DUP3 GT OR ISZERO PUSH2 0x67D3 JUMPI PUSH2 0x67D3 PUSH2 0x5EDD JUMP JUMPDEST DUP1 PUSH1 0x40 MSTORE POP DUP1 SWAP2 POP DUP3 MLOAD PUSH2 0x67E6 DUP2 PUSH2 0x5E7F JUMP JUMPDEST DUP2 MSTORE PUSH1 0x20 DUP4 ADD MLOAD PUSH2 0x67F6 DUP2 PUSH2 0x657B JUMP JUMPDEST PUSH1 0x20 DUP3 ADD MSTORE PUSH1 0x40 SWAP3 DUP4 ADD MLOAD SWAP3 ADD SWAP2 SWAP1 SWAP2 MSTORE SWAP2 SWAP1 POP JUMP JUMPDEST DUP1 MLOAD PUSH2 0x1641 DUP2 PUSH2 0x617E JUMP JUMPDEST PUSH1 0x0 PUSH1 0x20 DUP3 DUP5 SUB SLT ISZERO PUSH2 0x6829 JUMPI PUSH1 0x0 DUP1 REVERT JUMPDEST DUP2 MLOAD PUSH8 0xFFFFFFFFFFFFFFFF DUP1 DUP3 GT ISZERO PUSH2 0x6841 JUMPI PUSH1 0x0 DUP1 REVERT JUMPDEST SWAP1 DUP4 ADD SWAP1 PUSH2 0x100 DUP3 DUP7 SUB SLT ISZERO PUSH2 0x6856 JUMPI PUSH1 0x0 DUP1 REVERT JUMPDEST PUSH2 0x685E PUSH2 0x5EF3 JUMP JUMPDEST PUSH2 0x6867 DUP4 PUSH2 0x6553 JUMP JUMPDEST DUP2 MSTORE PUSH2 0x6876 DUP7 PUSH1 0x20 DUP6 ADD PUSH2 0x679E JUMP JUMPDEST PUSH1 0x20 DUP3 ADD MSTORE PUSH1 0x80 DUP4 ADD MLOAD PUSH1 0x40 DUP3 ADD MSTORE PUSH2 0x6891 PUSH1 0xA0 DUP5 ADD PUSH2 0x680C JUMP JUMPDEST PUSH1 0x60 DUP3 ADD MSTORE PUSH1 0xC0 DUP4 ADD MLOAD DUP3 DUP2 GT ISZERO PUSH2 0x68A8 JUMPI PUSH1 0x0 DUP1 REVERT JUMPDEST PUSH2 0x68B4 DUP8 DUP3 DUP7 ADD PUSH2 0x63A7 JUMP JUMPDEST PUSH1 0x80 DUP4 ADD MSTORE POP PUSH1 0xE0 DUP4 ADD MLOAD DUP3 DUP2 GT ISZERO PUSH2 0x68CC JUMPI PUSH1 0x0 DUP1 REVERT JUMPDEST PUSH2 0x68D8 DUP8 DUP3 DUP7 ADD PUSH2 0x63A7 JUMP JUMPDEST PUSH1 0xA0 DUP4 ADD MSTORE POP SWAP6 SWAP5 POP POP POP POP POP JUMP JUMPDEST PUSH32 0xFFFFFFFFFF000000000000000000000000000000000000000000000000000000 DUP2 AND DUP2 EQ PUSH2 0x38EF JUMPI PUSH1 0x0 DUP1 REVERT JUMPDEST PUSH1 0x0 DUP1 PUSH1 0x40 DUP4 DUP6 SUB SLT ISZERO PUSH2 0x6928 JUMPI PUSH1 0x0 DUP1 REVERT JUMPDEST DUP3 MLOAD PUSH2 0x6933 DUP2 PUSH2 0x68E7 JUMP JUMPDEST PUSH1 0x20 DUP5 ADD MLOAD SWAP1 SWAP3 POP PUSH2 0x6944 DUP2 PUSH2 0x68E7 JUMP JUMPDEST DUP1 SWAP2 POP POP SWAP3 POP SWAP3 SWAP1 POP JUMP JUMPDEST PUSH1 0x0 PUSH1 0x20 DUP3 DUP5 SUB SLT ISZERO PUSH2 0x6961 JUMPI PUSH1 0x0 DUP1 REVERT JUMPDEST DUP2 MLOAD PUSH8 0xFFFFFFFFFFFFFFFF DUP2 GT ISZERO PUSH2 0x6978 JUMPI PUSH1 0x0 DUP1 REVERT JUMPDEST PUSH2 0x113F DUP5 DUP3 DUP6 ADD PUSH2 0x63A7 JUMP JUMPDEST PUSH1 0x40 DUP2 MSTORE PUSH1 0x0 PUSH2 0x6997 PUSH1 0x40 DUP4 ADD DUP6 PUSH2 0x5E1A JUMP JUMPDEST SWAP1 POP PUSH1 0xFF DUP4 AND PUSH1 0x20 DUP4 ADD MSTORE SWAP4 SWAP3 POP POP POP JUMP JUMPDEST PUSH32 0xFF00000000000000000000000000000000000000000000000000000000000000 DUP6 DUP2 AND DUP3 MSTORE DUP5 DUP2 AND PUSH1 0x1 DUP4 ADD MSTORE DUP4 AND PUSH1 0x2 DUP3 ADD MSTORE DUP2 MLOAD PUSH1 0x0 SWAP1 PUSH2 0x69F4 DUP2 PUSH1 0x3 DUP6 ADD PUSH1 0x20 DUP8 ADD PUSH2 0x5DF6 JUMP JUMPDEST SWAP2 SWAP1 SWAP2 ADD PUSH1 0x3 ADD SWAP6 SWAP5 POP POP POP POP POP JUMP JUMPDEST PUSH1 0x60 DUP2 MSTORE PUSH1 0x0 PUSH2 0x6A17 PUSH1 0x60 DUP4 ADD DUP7 PUSH2 0x5E1A JUMP JUMPDEST DUP3 DUP2 SUB PUSH1 0x20 DUP5 ADD MSTORE PUSH2 0x6A29 DUP2 DUP7 PUSH2 0x5E1A JUMP JUMPDEST SWAP1 POP DUP3 DUP2 SUB PUSH1 0x40 DUP5 ADD MSTORE PUSH2 0x34EA DUP2 DUP6 PUSH2 0x5E1A JUMP JUMPDEST DUP4 DUP2 MSTORE PUSH1 0x60 DUP2 ADD PUSH2 0x6A51 PUSH1 0x20 DUP4 ADD DUP6 PUSH2 0x660F JUMP JUMPDEST DUP3 PUSH1 0x40 DUP4 ADD MSTORE SWAP5 SWAP4 POP POP POP POP JUMP JUMPDEST DUP4 MLOAD PUSH1 0x1 PUSH1 0x1 PUSH1 0xA0 SHL SUB AND DUP2 MSTORE PUSH1 0x20 DUP1 DUP6 ADD MLOAD PUSH1 0x1 PUSH1 0x1 PUSH1 0xA8 SHL SUB NOT AND SWAP1 DUP3 ADD MSTORE PUSH1 0x40 DUP1 DUP6 ADD MLOAD SWAP1 DUP3 ADD MSTORE DUP3 PUSH1 0x60 DUP3 ADD MSTORE PUSH1 0xA0 PUSH1 0x80 DUP3 ADD MSTORE PUSH1 0x0 DUP1 DUP4 SLOAD PUSH2 0x6AA5 DUP2 PUSH2 0x664E JUMP JUMPDEST DUP1 PUSH1 0xA0 DUP7 ADD MSTORE PUSH1 0xC0 PUSH1 0x1 DUP1 DUP5 AND PUSH1 0x0 DUP2 EQ PUSH2 0x6AC7 JUMPI PUSH1 0x1 DUP2 EQ PUSH2 0x6AE1 JUMPI PUSH2 0x6B12 JUMP JUMPDEST PUSH1 0xFF NOT DUP6 AND DUP4 DUP10 ADD MSTORE DUP3 DUP5 ISZERO ISZERO PUSH1 0x5 SHL DUP10 ADD ADD SWAP6 POP PUSH2 0x6B12 JUMP JUMPDEST DUP9 PUSH1 0x0 MSTORE PUSH1 0x20 DUP1 PUSH1 0x0 KECCAK256 PUSH1 0x0 JUMPDEST DUP7 DUP2 LT ISZERO PUSH2 0x6B09 JUMPI DUP2 SLOAD DUP12 DUP3 ADD DUP8 ADD MSTORE SWAP1 DUP5 ADD SWAP1 DUP3 ADD PUSH2 0x6AEE JUMP JUMPDEST DUP11 ADD DUP6 ADD SWAP8 POP POP POP JUMPDEST POP SWAP4 SWAP10 SWAP9 POP POP POP POP POP POP POP POP POP JUMP JUMPDEST PUSH1 0x0 DUP5 MLOAD PUSH2 0x6B33 DUP2 DUP5 PUSH1 0x20 DUP10 ADD PUSH2 0x5DF6 JUMP JUMPDEST DUP5 MLOAD SWAP1 DUP4 ADD SWAP1 PUSH2 0x6B47 DUP2 DUP4 PUSH1 0x20 DUP10 ADD PUSH2 0x5DF6 JUMP JUMPDEST DUP5 MLOAD SWAP2 ADD SWAP1 PUSH2 0x6B5A DUP2 DUP4 PUSH1 0x20 DUP9 ADD PUSH2 0x5DF6 JUMP JUMPDEST ADD SWAP6 SWAP5 POP POP POP POP POP JUMP JUMPDEST PUSH1 0x0 PUSH1 0x20 DUP3 DUP5 SUB SLT ISZERO PUSH2 0x6B76 JUMPI PUSH1 0x0 DUP1 REVERT JUMPDEST DUP2 MLOAD PUSH1 0xFF DUP2 AND DUP2 EQ PUSH2 0x144C JUMPI PUSH1 0x0 DUP1 REVERT JUMPDEST PUSH1 0x0 DUP1 DUP5 SLOAD PUSH2 0x6B95 DUP2 PUSH2 0x664E JUMP JUMPDEST PUSH1 0x1 DUP3 DUP2 AND DUP1 ISZERO PUSH2 0x6BAD JUMPI PUSH1 0x1 DUP2 EQ PUSH2 0x6BC2 JUMPI PUSH2 0x6BF1 JUMP JUMPDEST PUSH1 0xFF NOT DUP5 AND DUP8 MSTORE DUP3 ISZERO ISZERO DUP4 MUL DUP8 ADD SWAP5 POP PUSH2 0x6BF1 JUMP JUMPDEST DUP9 PUSH1 0x0 MSTORE PUSH1 0x20 DUP1 PUSH1 0x0 KECCAK256 PUSH1 0x0 JUMPDEST DUP6 DUP2 LT ISZERO PUSH2 0x6BE8 JUMPI DUP2 SLOAD DUP11 DUP3 ADD MSTORE SWAP1 DUP5 ADD SWAP1 DUP3 ADD PUSH2 0x6BCF JUMP JUMPDEST POP POP POP DUP3 DUP8 ADD SWAP5 POP JUMPDEST POP POP POP POP DUP4 MLOAD PUSH2 0x6C05 DUP2 DUP4 PUSH1 0x20 DUP9 ADD PUSH2 0x5DF6 JUMP JUMPDEST PUSH32 0x496E6163746976652073656E646572206163636F756E74000000000000000000 SWAP2 ADD SWAP1 DUP2 MSTORE PUSH1 0x17 ADD SWAP5 SWAP4 POP POP POP POP JUMP JUMPDEST PUSH1 0x0 DUP3 MLOAD PUSH2 0x6C48 DUP2 DUP5 PUSH1 0x20 DUP8 ADD PUSH2 0x5DF6 JUMP JUMPDEST PUSH32 0x496E61637469766520726563697069656E74206163636F756E74000000000000 SWAP3 ADD SWAP2 DUP3 MSTORE POP PUSH1 0x1A ADD SWAP2 SWAP1 POP JUMP INVALID MSTORE8 PUSH16 0x433A204F7665726472616674206C696D PUSH10 0x7420776F756C64206265 KECCAK256 PUSH19 0x6561636865642C2063616E6E6F74206C6F636B KECCAK256 PUSH21 0x686520616D6F756E74536F433A204F766572647261 PUSH7 0x74206C696D6974 KECCAK256 PUSH24 0x6F756C6420626520726561636865642C2063616E6E6F7420 PUSH5 0x6562697420 PUSH2 0x6363 PUSH16 0x756E74A2646970667358221220881A18 0xAB 0xD7 0xC8 LOG0 0x1F PUSH29 0x89D4C177EC930787330D38132B4F50F7232E6BD427EEB264736F6C6343 STOP ADDMOD GT STOP CALLER JUMPI 0x4C MSTORE8 GASPRICE KECCAK256 NUMBER PUSH2 0x6C6C PUSH6 0x72206E6F7420 PUSH2 0x6C6C PUSH16 0x77656420746F20706572666F00000000 "},"methodIdentifiers":{"accountNumberOf(address)":"e1fb7e23","addressOf(uint32)":"09fb37fc","advice(uint256,uint8,uint256)":"36c30cc1","balanceOf(address)":"70a08231","bic()":"2bcd0a7d","blacklist(address)":"f9f92be4","codes()":"dc019297","correspondent(address)":"cb8ea23c","credit(address,uint256,string)":"25e017af","creditNostro(address,uint256,string)":"fca8a1e0","debit(address,uint256,string)":"5a275810","decidePendingTransfer(uint256,uint8,string)":"79ce3699","decimals()":"313ce567","decodeIBAN(string)":"23dc38ff","fullBalanceOf(address)":"58b5dd72","ibanOf(address)":"f59bcbe5","interbankNetting(uint256,uint256)":"c3c4b167","interbankTransfer((address,bytes11,bytes32),uint256,uint256)":"b8da243e","isAccountActive(address)":"ab9d0cdd","isAccountRegistered(address)":"f5851493","isCorrespondentRegistered(address)":"a9ad2c58","isWhitelisted(address)":"3af32abf","lockFunds(address,uint256)":"12e382b4","lockFunds(uint256)":"8c8f95fb","lockedBalanceOf(address)":"59355736","name()":"06fdde03","owner()":"8da5cb5b","registerAccount(address)":"97c414df","registerCorrespondent(address,address,address)":"da696d0c","renounceOwnership()":"715018a6","requestNetting(address,uint256)":"6c5b1670","setIBANCalculator(address)":"3bdd11f6","symbol()":"95d89b41","synchroNostro(address)":"9087201c","toggleAccountActive(address)":"0a363c03","totalSupply()":"18160ddd","transfer((address,bytes11,bytes32),uint256,string)":"d7aa2167","transferFrom(address,(address,bytes11,bytes32),uint256,string)":"2c206e0a","transferInfo(uint256)":"cc47e9bd","transferOwnership(address)":"f2fde38b","unlockFunds(address,uint256)":"8a75eb04","unlockFunds(uint256)":"6894c950","unlockedBalanceOf(address)":"84955c88","unregisterAccount(address)":"afabeb2e","unregisterCorrespondent(address)":"4e72a724","whitelist(address)":"9b19251a"}}}}}