{"src/utilities/htlc-payments.sol":{"HTLCPaymentCapacity":{"abi":[{"anonymous":false,"inputs":[{"indexed":true,"internalType":"bytes32","name":"id","type":"bytes32"},{"indexed":true,"internalType":"bytes32","name":"hashlockPaid","type":"bytes32"},{"components":[{"components":[{"internalType":"contract ISoCashAccount","name":"account","type":"address"},{"internalType":"BIC","name":"bic","type":"bytes11"},{"internalType":"IBAN","name":"iban","type":"bytes32"}],"internalType":"struct RecipentInfo","name":"recipient","type":"tuple"},{"internalType":"uint256","name":"amount","type":"uint256"},{"internalType":"uint256","name":"deadline","type":"uint256"},{"internalType":"bytes32","name":"hashlockPaid","type":"bytes32"},{"internalType":"bytes32","name":"hashlockCancel","type":"bytes32"},{"internalType":"string","name":"opaque","type":"string"},{"internalType":"enum IHTLCPayment.HTLCState","name":"state","type":"uint8"}],"indexed":false,"internalType":"struct IHTLCPayment.HTLC","name":"htlc","type":"tuple"}],"name":"HTLCPaymentCreated","type":"event"},{"anonymous":false,"inputs":[{"indexed":true,"internalType":"bytes32","name":"id","type":"bytes32"},{"indexed":false,"internalType":"uint256","name":"amount","type":"uint256"},{"indexed":false,"internalType":"uint256","name":"deadline","type":"uint256"},{"indexed":false,"internalType":"string","name":"usingSecret","type":"string"},{"indexed":false,"internalType":"string","name":"opaque","type":"string"},{"indexed":false,"internalType":"bool","name":"cancelled","type":"bool"}],"name":"HTLCPaymentRemoved","type":"event"},{"inputs":[{"internalType":"bytes32","name":"id","type":"bytes32"}],"name":"getHTLCPayment","outputs":[{"components":[{"components":[{"internalType":"contract ISoCashAccount","name":"account","type":"address"},{"internalType":"BIC","name":"bic","type":"bytes11"},{"internalType":"IBAN","name":"iban","type":"bytes32"}],"internalType":"struct RecipentInfo","name":"recipient","type":"tuple"},{"internalType":"uint256","name":"amount","type":"uint256"},{"internalType":"uint256","name":"deadline","type":"uint256"},{"internalType":"bytes32","name":"hashlockPaid","type":"bytes32"},{"internalType":"bytes32","name":"hashlockCancel","type":"bytes32"},{"internalType":"string","name":"opaque","type":"string"},{"internalType":"enum IHTLCPayment.HTLCState","name":"state","type":"uint8"}],"internalType":"struct IHTLCPayment.HTLC","name":"","type":"tuple"}],"stateMutability":"view","type":"function"},{"inputs":[{"internalType":"bytes32","name":"id","type":"bytes32"},{"internalType":"string","name":"secret","type":"string"}],"name":"verifyHTLC","outputs":[{"internalType":"bool","name":"ok","type":"bool"},{"internalType":"string","name":"reason","type":"string"}],"stateMutability":"view","type":"function"},{"inputs":[{"internalType":"bytes32","name":"id","type":"bytes32"},{"internalType":"string","name":"secret","type":"string"}],"name":"verifyHTLCCancel","outputs":[{"internalType":"bool","name":"ok","type":"bool"},{"internalType":"string","name":"reason","type":"string"}],"stateMutability":"view","type":"function"}],"evm":{"bytecode":{"linkReferences":{},"object":"60806040526000805534801561001457600080fd5b50610847806100246000396000f3fe608060405234801561001057600080fd5b50600436106100415760003560e01c80631640968214610046578063777b71ff14610070578063ffd1503514610090575b600080fd5b6100596100543660046104ff565b6100a3565b6040516100679291906105cb565b60405180910390f35b61008361007e3660046105ee565b6101c4565b604051610067919061063f565b61005961009e3660046104ff565b61039d565b600083815260016020526040812060048101546060919083036100e557600060405180606001604052806028815260200161077d6028913992509250506101bc565b6000428260030154111590506000600287876040516020016101089291906106fd565b60408051601f19818403018152908290526101229161070d565b602060405180830381855afa15801561013f573d6000803e3d6000fd5b5050506040513d601f19601f820116820180604052508101906101629190610729565b836005015414905081158015610176575080155b156101a25760006040518060600160405280603781526020016107a560379139945094505050506101bc565b600160405180602001604052806000815250945094505050505b935093915050565b6040805161014081018252600060e082018181526101008301829052610120830182905282526020820181905291810182905260608082018390526080820183905260a082015260c0810191909152600082815260016020818152604092839020835161014081018552815473ffffffffffffffffffffffffffffffffffffffff811660e083019081527401000000000000000000000000000000000000000090910460a81b7fffffffffffffffffffffff0000000000000000000000000000000000000000001661010083015293820154610120820152928352600281015491830191909152600381015492820192909252600482015460608201526005820154608082015260068201805491929160a0840191906102e390610742565b80601f016020809104026020016040519081016040528092919081815260200182805461030f90610742565b801561035c5780601f106103315761010080835404028352916020019161035c565b820191906000526020600020905b81548152906001019060200180831161033f57829003601f168201915b5050509183525050600782015460209091019060ff16600281111561038357610383610607565b600281111561039457610394610607565b90525092915050565b600083815260016020526040812060048101546060919083036103df5760006040518060600160405280603681526020016107dc6036913992509250506101bc565b428160030154101561042a57505060408051808201909152601681527f48544c433a20646561646c696e652065787069726564000000000000000000006020820152600091506101bc565b6002858560405160200161043f9291906106fd565b60408051601f19818403018152908290526104599161070d565b602060405180830381855afa158015610476573d6000803e3d6000fd5b5050506040513d601f19601f820116820180604052508101906104999190610729565b8160040154146104e257505060408051808201909152601581527f48544c433a20736563726574206d69736d6174636800000000000000000000006020820152600091506101bc565b505060408051602081019091526000815260019150935093915050565b60008060006040848603121561051457600080fd5b83359250602084013567ffffffffffffffff8082111561053357600080fd5b818601915086601f83011261054757600080fd5b81358181111561055657600080fd5b87602082850101111561056857600080fd5b6020830194508093505050509250925092565b60005b8381101561059657818101518382015260200161057e565b50506000910152565b600081518084526105b781602086016020860161057b565b601f01601f19169290920160200192915050565b82151581526040602082015260006105e6604083018461059f565b949350505050565b60006020828403121561060057600080fd5b5035919050565b634e487b7160e01b600052602160045260246000fd5b6003811061063b57634e487b7160e01b600052602160045260246000fd5b9052565b602081526000825173ffffffffffffffffffffffffffffffffffffffff81511660208401527fffffffffffffffffffffff0000000000000000000000000000000000000000006020820151166040840152604081015160608401525060208301516080830152604083015160a0830152606083015160c0830152608083015160e083015260a0830151610120806101008501526106e061014085018361059f565b915060c08501516106f38286018261061d565b5090949350505050565b8183823760009101908152919050565b6000825161071f81846020870161057b565b9190910192915050565b60006020828403121561073b57600080fd5b5051919050565b600181811c9082168061075657607f821691505b60208210810361077657634e487b7160e01b600052602260045260246000fd5b5091905056fe48544c433a20696e76616c6964206964206f72206465627420616c726561647920636c656172656448544c433a20646561646c696e65206e6f74207965742065787069726564206f7220696e76616c69642063616e63656c2073656372657448544c433a20696e76616c6964206964206f72206465627420616c726561647920636c6561726564207768696c6520636c6f73696e67a2646970667358221220905e91fc5ead6fa5dcb1b7a48c49c844094e1a13e5523cc209569514f1c52e0864736f6c63430008110033","opcodes":"PUSH1 0x80 PUSH1 0x40 MSTORE PUSH1 0x0 DUP1 SSTORE CALLVALUE DUP1 ISZERO PUSH2 0x14 JUMPI PUSH1 0x0 DUP1 REVERT JUMPDEST POP PUSH2 0x847 DUP1 PUSH2 0x24 PUSH1 0x0 CODECOPY PUSH1 0x0 RETURN INVALID PUSH1 0x80 PUSH1 0x40 MSTORE CALLVALUE DUP1 ISZERO PUSH2 0x10 JUMPI PUSH1 0x0 DUP1 REVERT JUMPDEST POP PUSH1 0x4 CALLDATASIZE LT PUSH2 0x41 JUMPI PUSH1 0x0 CALLDATALOAD PUSH1 0xE0 SHR DUP1 PUSH4 0x16409682 EQ PUSH2 0x46 JUMPI DUP1 PUSH4 0x777B71FF EQ PUSH2 0x70 JUMPI DUP1 PUSH4 0xFFD15035 EQ PUSH2 0x90 JUMPI JUMPDEST PUSH1 0x0 DUP1 REVERT JUMPDEST PUSH2 0x59 PUSH2 0x54 CALLDATASIZE PUSH1 0x4 PUSH2 0x4FF JUMP JUMPDEST PUSH2 0xA3 JUMP JUMPDEST PUSH1 0x40 MLOAD PUSH2 0x67 SWAP3 SWAP2 SWAP1 PUSH2 0x5CB JUMP JUMPDEST PUSH1 0x40 MLOAD DUP1 SWAP2 SUB SWAP1 RETURN JUMPDEST PUSH2 0x83 PUSH2 0x7E CALLDATASIZE PUSH1 0x4 PUSH2 0x5EE JUMP JUMPDEST PUSH2 0x1C4 JUMP JUMPDEST PUSH1 0x40 MLOAD PUSH2 0x67 SWAP2 SWAP1 PUSH2 0x63F JUMP JUMPDEST PUSH2 0x59 PUSH2 0x9E CALLDATASIZE PUSH1 0x4 PUSH2 0x4FF JUMP JUMPDEST PUSH2 0x39D JUMP JUMPDEST PUSH1 0x0 DUP4 DUP2 MSTORE PUSH1 0x1 PUSH1 0x20 MSTORE PUSH1 0x40 DUP2 KECCAK256 PUSH1 0x4 DUP2 ADD SLOAD PUSH1 0x60 SWAP2 SWAP1 DUP4 SUB PUSH2 0xE5 JUMPI PUSH1 0x0 PUSH1 0x40 MLOAD DUP1 PUSH1 0x60 ADD PUSH1 0x40 MSTORE DUP1 PUSH1 0x28 DUP2 MSTORE PUSH1 0x20 ADD PUSH2 0x77D PUSH1 0x28 SWAP2 CODECOPY SWAP3 POP SWAP3 POP POP PUSH2 0x1BC JUMP JUMPDEST PUSH1 0x0 TIMESTAMP DUP3 PUSH1 0x3 ADD SLOAD GT ISZERO SWAP1 POP PUSH1 0x0 PUSH1 0x2 DUP8 DUP8 PUSH1 0x40 MLOAD PUSH1 0x20 ADD PUSH2 0x108 SWAP3 SWAP2 SWAP1 PUSH2 0x6FD JUMP JUMPDEST PUSH1 0x40 DUP1 MLOAD PUSH1 0x1F NOT DUP2 DUP5 SUB ADD DUP2 MSTORE SWAP1 DUP3 SWAP1 MSTORE PUSH2 0x122 SWAP2 PUSH2 0x70D JUMP JUMPDEST PUSH1 0x20 PUSH1 0x40 MLOAD DUP1 DUP4 SUB DUP2 DUP6 GAS STATICCALL ISZERO DUP1 ISZERO PUSH2 0x13F JUMPI RETURNDATASIZE PUSH1 0x0 DUP1 RETURNDATACOPY RETURNDATASIZE PUSH1 0x0 REVERT JUMPDEST POP POP POP PUSH1 0x40 MLOAD RETURNDATASIZE PUSH1 0x1F NOT PUSH1 0x1F DUP3 ADD AND DUP3 ADD DUP1 PUSH1 0x40 MSTORE POP DUP2 ADD SWAP1 PUSH2 0x162 SWAP2 SWAP1 PUSH2 0x729 JUMP JUMPDEST DUP4 PUSH1 0x5 ADD SLOAD EQ SWAP1 POP DUP2 ISZERO DUP1 ISZERO PUSH2 0x176 JUMPI POP DUP1 ISZERO JUMPDEST ISZERO PUSH2 0x1A2 JUMPI PUSH1 0x0 PUSH1 0x40 MLOAD DUP1 PUSH1 0x60 ADD PUSH1 0x40 MSTORE DUP1 PUSH1 0x37 DUP2 MSTORE PUSH1 0x20 ADD PUSH2 0x7A5 PUSH1 0x37 SWAP2 CODECOPY SWAP5 POP SWAP5 POP POP POP POP PUSH2 0x1BC JUMP JUMPDEST PUSH1 0x1 PUSH1 0x40 MLOAD DUP1 PUSH1 0x20 ADD PUSH1 0x40 MSTORE DUP1 PUSH1 0x0 DUP2 MSTORE POP SWAP5 POP SWAP5 POP POP POP POP JUMPDEST SWAP4 POP SWAP4 SWAP2 POP POP JUMP JUMPDEST PUSH1 0x40 DUP1 MLOAD PUSH2 0x140 DUP2 ADD DUP3 MSTORE PUSH1 0x0 PUSH1 0xE0 DUP3 ADD DUP2 DUP2 MSTORE PUSH2 0x100 DUP4 ADD DUP3 SWAP1 MSTORE PUSH2 0x120 DUP4 ADD DUP3 SWAP1 MSTORE DUP3 MSTORE PUSH1 0x20 DUP3 ADD DUP2 SWAP1 MSTORE SWAP2 DUP2 ADD DUP3 SWAP1 MSTORE PUSH1 0x60 DUP1 DUP3 ADD DUP4 SWAP1 MSTORE PUSH1 0x80 DUP3 ADD DUP4 SWAP1 MSTORE PUSH1 0xA0 DUP3 ADD MSTORE PUSH1 0xC0 DUP2 ADD SWAP2 SWAP1 SWAP2 MSTORE PUSH1 0x0 DUP3 DUP2 MSTORE PUSH1 0x1 PUSH1 0x20 DUP2 DUP2 MSTORE PUSH1 0x40 SWAP3 DUP4 SWAP1 KECCAK256 DUP4 MLOAD PUSH2 0x140 DUP2 ADD DUP6 MSTORE DUP2 SLOAD PUSH20 0xFFFFFFFFFFFFFFFFFFFFFFFFFFFFFFFFFFFFFFFF DUP2 AND PUSH1 0xE0 DUP4 ADD SWAP1 DUP2 MSTORE PUSH21 0x10000000000000000000000000000000000000000 SWAP1 SWAP2 DIV PUSH1 0xA8 SHL PUSH32 0xFFFFFFFFFFFFFFFFFFFFFF000000000000000000000000000000000000000000 AND PUSH2 0x100 DUP4 ADD MSTORE SWAP4 DUP3 ADD SLOAD PUSH2 0x120 DUP3 ADD MSTORE SWAP3 DUP4 MSTORE PUSH1 0x2 DUP2 ADD SLOAD SWAP2 DUP4 ADD SWAP2 SWAP1 SWAP2 MSTORE PUSH1 0x3 DUP2 ADD SLOAD SWAP3 DUP3 ADD SWAP3 SWAP1 SWAP3 MSTORE PUSH1 0x4 DUP3 ADD SLOAD PUSH1 0x60 DUP3 ADD MSTORE PUSH1 0x5 DUP3 ADD SLOAD PUSH1 0x80 DUP3 ADD MSTORE PUSH1 0x6 DUP3 ADD DUP1 SLOAD SWAP2 SWAP3 SWAP2 PUSH1 0xA0 DUP5 ADD SWAP2 SWAP1 PUSH2 0x2E3 SWAP1 PUSH2 0x742 JUMP JUMPDEST DUP1 PUSH1 0x1F ADD PUSH1 0x20 DUP1 SWAP2 DIV MUL PUSH1 0x20 ADD PUSH1 0x40 MLOAD SWAP1 DUP2 ADD PUSH1 0x40 MSTORE DUP1 SWAP3 SWAP2 SWAP1 DUP2 DUP2 MSTORE PUSH1 0x20 ADD DUP3 DUP1 SLOAD PUSH2 0x30F SWAP1 PUSH2 0x742 JUMP JUMPDEST DUP1 ISZERO PUSH2 0x35C JUMPI DUP1 PUSH1 0x1F LT PUSH2 0x331 JUMPI PUSH2 0x100 DUP1 DUP4 SLOAD DIV MUL DUP4 MSTORE SWAP2 PUSH1 0x20 ADD SWAP2 PUSH2 0x35C JUMP JUMPDEST DUP3 ADD SWAP2 SWAP1 PUSH1 0x0 MSTORE PUSH1 0x20 PUSH1 0x0 KECCAK256 SWAP1 JUMPDEST DUP2 SLOAD DUP2 MSTORE SWAP1 PUSH1 0x1 ADD SWAP1 PUSH1 0x20 ADD DUP1 DUP4 GT PUSH2 0x33F JUMPI DUP3 SWAP1 SUB PUSH1 0x1F AND DUP3 ADD SWAP2 JUMPDEST POP POP POP SWAP2 DUP4 MSTORE POP POP PUSH1 0x7 DUP3 ADD SLOAD PUSH1 0x20 SWAP1 SWAP2 ADD SWAP1 PUSH1 0xFF AND PUSH1 0x2 DUP2 GT ISZERO PUSH2 0x383 JUMPI PUSH2 0x383 PUSH2 0x607 JUMP JUMPDEST PUSH1 0x2 DUP2 GT ISZERO PUSH2 0x394 JUMPI PUSH2 0x394 PUSH2 0x607 JUMP JUMPDEST SWAP1 MSTORE POP SWAP3 SWAP2 POP POP JUMP JUMPDEST PUSH1 0x0 DUP4 DUP2 MSTORE PUSH1 0x1 PUSH1 0x20 MSTORE PUSH1 0x40 DUP2 KECCAK256 PUSH1 0x4 DUP2 ADD SLOAD PUSH1 0x60 SWAP2 SWAP1 DUP4 SUB PUSH2 0x3DF JUMPI PUSH1 0x0 PUSH1 0x40 MLOAD DUP1 PUSH1 0x60 ADD PUSH1 0x40 MSTORE DUP1 PUSH1 0x36 DUP2 MSTORE PUSH1 0x20 ADD PUSH2 0x7DC PUSH1 0x36 SWAP2 CODECOPY SWAP3 POP SWAP3 POP POP PUSH2 0x1BC JUMP JUMPDEST TIMESTAMP DUP2 PUSH1 0x3 ADD SLOAD LT ISZERO PUSH2 0x42A JUMPI POP POP PUSH1 0x40 DUP1 MLOAD DUP1 DUP3 ADD SWAP1 SWAP2 MSTORE PUSH1 0x16 DUP2 MSTORE PUSH32 0x48544C433A20646561646C696E65206578706972656400000000000000000000 PUSH1 0x20 DUP3 ADD MSTORE PUSH1 0x0 SWAP2 POP PUSH2 0x1BC JUMP JUMPDEST PUSH1 0x2 DUP6 DUP6 PUSH1 0x40 MLOAD PUSH1 0x20 ADD PUSH2 0x43F SWAP3 SWAP2 SWAP1 PUSH2 0x6FD JUMP JUMPDEST PUSH1 0x40 DUP1 MLOAD PUSH1 0x1F NOT DUP2 DUP5 SUB ADD DUP2 MSTORE SWAP1 DUP3 SWAP1 MSTORE PUSH2 0x459 SWAP2 PUSH2 0x70D JUMP JUMPDEST PUSH1 0x20 PUSH1 0x40 MLOAD DUP1 DUP4 SUB DUP2 DUP6 GAS STATICCALL ISZERO DUP1 ISZERO PUSH2 0x476 JUMPI RETURNDATASIZE PUSH1 0x0 DUP1 RETURNDATACOPY RETURNDATASIZE PUSH1 0x0 REVERT JUMPDEST POP POP POP PUSH1 0x40 MLOAD RETURNDATASIZE PUSH1 0x1F NOT PUSH1 0x1F DUP3 ADD AND DUP3 ADD DUP1 PUSH1 0x40 MSTORE POP DUP2 ADD SWAP1 PUSH2 0x499 SWAP2 SWAP1 PUSH2 0x729 JUMP JUMPDEST DUP2 PUSH1 0x4 ADD SLOAD EQ PUSH2 0x4E2 JUMPI POP POP PUSH1 0x40 DUP1 MLOAD DUP1 DUP3 ADD SWAP1 SWAP2 MSTORE PUSH1 0x15 DUP2 MSTORE PUSH32 0x48544C433A20736563726574206D69736D617463680000000000000000000000 PUSH1 0x20 DUP3 ADD MSTORE PUSH1 0x0 SWAP2 POP PUSH2 0x1BC JUMP JUMPDEST POP POP PUSH1 0x40 DUP1 MLOAD PUSH1 0x20 DUP2 ADD SWAP1 SWAP2 MSTORE PUSH1 0x0 DUP2 MSTORE PUSH1 0x1 SWAP2 POP SWAP4 POP SWAP4 SWAP2 POP POP JUMP JUMPDEST PUSH1 0x0 DUP1 PUSH1 0x0 PUSH1 0x40 DUP5 DUP7 SUB SLT ISZERO PUSH2 0x514 JUMPI PUSH1 0x0 DUP1 REVERT JUMPDEST DUP4 CALLDATALOAD SWAP3 POP PUSH1 0x20 DUP5 ADD CALLDATALOAD PUSH8 0xFFFFFFFFFFFFFFFF DUP1 DUP3 GT ISZERO PUSH2 0x533 JUMPI PUSH1 0x0 DUP1 REVERT JUMPDEST DUP2 DUP7 ADD SWAP2 POP DUP7 PUSH1 0x1F DUP4 ADD SLT PUSH2 0x547 JUMPI PUSH1 0x0 DUP1 REVERT JUMPDEST DUP2 CALLDATALOAD DUP2 DUP2 GT ISZERO PUSH2 0x556 JUMPI PUSH1 0x0 DUP1 REVERT JUMPDEST DUP8 PUSH1 0x20 DUP3 DUP6 ADD ADD GT ISZERO PUSH2 0x568 JUMPI PUSH1 0x0 DUP1 REVERT JUMPDEST PUSH1 0x20 DUP4 ADD SWAP5 POP DUP1 SWAP4 POP POP POP POP SWAP3 POP SWAP3 POP SWAP3 JUMP JUMPDEST PUSH1 0x0 JUMPDEST DUP4 DUP2 LT ISZERO PUSH2 0x596 JUMPI DUP2 DUP2 ADD MLOAD DUP4 DUP3 ADD MSTORE PUSH1 0x20 ADD PUSH2 0x57E JUMP JUMPDEST POP POP PUSH1 0x0 SWAP2 ADD MSTORE JUMP JUMPDEST PUSH1 0x0 DUP2 MLOAD DUP1 DUP5 MSTORE PUSH2 0x5B7 DUP2 PUSH1 0x20 DUP7 ADD PUSH1 0x20 DUP7 ADD PUSH2 0x57B JUMP JUMPDEST PUSH1 0x1F ADD PUSH1 0x1F NOT AND SWAP3 SWAP1 SWAP3 ADD PUSH1 0x20 ADD SWAP3 SWAP2 POP POP JUMP JUMPDEST DUP3 ISZERO ISZERO DUP2 MSTORE PUSH1 0x40 PUSH1 0x20 DUP3 ADD MSTORE PUSH1 0x0 PUSH2 0x5E6 PUSH1 0x40 DUP4 ADD DUP5 PUSH2 0x59F JUMP JUMPDEST SWAP5 SWAP4 POP POP POP POP JUMP JUMPDEST PUSH1 0x0 PUSH1 0x20 DUP3 DUP5 SUB SLT ISZERO PUSH2 0x600 JUMPI PUSH1 0x0 DUP1 REVERT JUMPDEST POP CALLDATALOAD SWAP2 SWAP1 POP JUMP JUMPDEST PUSH4 0x4E487B71 PUSH1 0xE0 SHL PUSH1 0x0 MSTORE PUSH1 0x21 PUSH1 0x4 MSTORE PUSH1 0x24 PUSH1 0x0 REVERT JUMPDEST PUSH1 0x3 DUP2 LT PUSH2 0x63B JUMPI PUSH4 0x4E487B71 PUSH1 0xE0 SHL PUSH1 0x0 MSTORE PUSH1 0x21 PUSH1 0x4 MSTORE PUSH1 0x24 PUSH1 0x0 REVERT JUMPDEST SWAP1 MSTORE JUMP JUMPDEST PUSH1 0x20 DUP2 MSTORE PUSH1 0x0 DUP3 MLOAD PUSH20 0xFFFFFFFFFFFFFFFFFFFFFFFFFFFFFFFFFFFFFFFF DUP2 MLOAD AND PUSH1 0x20 DUP5 ADD MSTORE PUSH32 0xFFFFFFFFFFFFFFFFFFFFFF000000000000000000000000000000000000000000 PUSH1 0x20 DUP3 ADD MLOAD AND PUSH1 0x40 DUP5 ADD MSTORE PUSH1 0x40 DUP2 ADD MLOAD PUSH1 0x60 DUP5 ADD MSTORE POP PUSH1 0x20 DUP4 ADD MLOAD PUSH1 0x80 DUP4 ADD MSTORE PUSH1 0x40 DUP4 ADD MLOAD PUSH1 0xA0 DUP4 ADD MSTORE PUSH1 0x60 DUP4 ADD MLOAD PUSH1 0xC0 DUP4 ADD MSTORE PUSH1 0x80 DUP4 ADD MLOAD PUSH1 0xE0 DUP4 ADD MSTORE PUSH1 0xA0 DUP4 ADD MLOAD PUSH2 0x120 DUP1 PUSH2 0x100 DUP6 ADD MSTORE PUSH2 0x6E0 PUSH2 0x140 DUP6 ADD DUP4 PUSH2 0x59F JUMP JUMPDEST SWAP2 POP PUSH1 0xC0 DUP6 ADD MLOAD PUSH2 0x6F3 DUP3 DUP7 ADD DUP3 PUSH2 0x61D JUMP JUMPDEST POP SWAP1 SWAP5 SWAP4 POP POP POP POP JUMP JUMPDEST DUP2 DUP4 DUP3 CALLDATACOPY PUSH1 0x0 SWAP2 ADD SWAP1 DUP2 MSTORE SWAP2 SWAP1 POP JUMP JUMPDEST PUSH1 0x0 DUP3 MLOAD PUSH2 0x71F DUP2 DUP5 PUSH1 0x20 DUP8 ADD PUSH2 0x57B JUMP JUMPDEST SWAP2 SWAP1 SWAP2 ADD SWAP3 SWAP2 POP POP JUMP JUMPDEST PUSH1 0x0 PUSH1 0x20 DUP3 DUP5 SUB SLT ISZERO PUSH2 0x73B JUMPI PUSH1 0x0 DUP1 REVERT JUMPDEST POP MLOAD SWAP2 SWAP1 POP JUMP JUMPDEST PUSH1 0x1 DUP2 DUP2 SHR SWAP1 DUP3 AND DUP1 PUSH2 0x756 JUMPI PUSH1 0x7F DUP3 AND SWAP2 POP JUMPDEST PUSH1 0x20 DUP3 LT DUP2 SUB PUSH2 0x776 JUMPI PUSH4 0x4E487B71 PUSH1 0xE0 SHL PUSH1 0x0 MSTORE PUSH1 0x22 PUSH1 0x4 MSTORE PUSH1 0x24 PUSH1 0x0 REVERT JUMPDEST POP SWAP2 SWAP1 POP JUMP INVALID BASEFEE SLOAD 0x4C NUMBER GASPRICE KECCAK256 PUSH10 0x6E76616C696420696420 PUSH16 0x72206465627420616C72656164792063 PUSH13 0x656172656448544C433A206465 PUSH2 0x646C PUSH10 0x6E65206E6F7420796574 KECCAK256 PUSH6 0x787069726564 KECCAK256 PUSH16 0x7220696E76616C69642063616E63656C KECCAK256 PUSH20 0x656372657448544C433A20696E76616C69642069 PUSH5 0x206F722064 PUSH6 0x627420616C72 PUSH6 0x61647920636C PUSH6 0x617265642077 PUSH9 0x696C6520636C6F7369 PUSH15 0x67A2646970667358221220905E91FC 0x5E 0xAD PUSH16 0xA5DCB1B7A48C49C844094E1A13E5523C 0xC2 MULMOD JUMP SWAP6 EQ CALL 0xC5 0x2E ADDMOD PUSH5 0x736F6C6343 STOP ADDMOD GT STOP CALLER "},"methodIdentifiers":{"getHTLCPayment(bytes32)":"777b71ff","verifyHTLC(bytes32,string)":"ffd15035","verifyHTLCCancel(bytes32,string)":"16409682"}}}}}