{
  "_format": "hh-sol-artifact-1",
  "contractName": "EIP712Mock",
  "sourceName": "contracts/cryptography/EIP712Mock.sol",
  "abi": [
    {
      "inputs": [
        {
          "internalType": "bytes32",
          "name": "nameHash",
          "type": "bytes32"
        },
        {
          "internalType": "bytes32",
          "name": "versionHash",
          "type": "bytes32"
        }
      ],
      "name": "calculateDomainSeparator",
      "outputs": [
        {
          "internalType": "bytes32",
          "name": "",
          "type": "bytes32"
        }
      ],
      "stateMutability": "view",
      "type": "function"
    }
  ],
  "bytecode": "0x608060405234801561001057600080fd5b5060f78061001f6000396000f3fe6080604052348015600f57600080fd5b506004361060285760003560e01c80638ec98aff14602d575b600080fd5b603c603836600460a0565b604e565b60405190815260200160405180910390f35b600060998383604080517f8b73c3c69bb8fe3d512ecc4cf759cc79239f7b179b0ffacaa9a75d522b39400f8152602081019390935282015246606082015230608082015260a0902090565b9392505050565b6000806040838503121560b257600080fd5b5050803592602090910135915056fea2646970667358221220857541e0fdd9773c16a3d0460673512e76dbb8bdaa47ebd72fc03ace50ec834c64736f6c63430008140033",
  "linkReferences": {},
  "deployedLinkReferences": {}
}