{
  "_format": "hh-sol-artifact-1",
  "contractName": "DoublyLinkedListUint256Mock",
  "sourceName": "contracts/data/DoublyLinkedListUint256Mock.sol",
  "abi": [
    {
      "inputs": [],
      "name": "DoublyLinkedList__InvalidInput",
      "type": "error"
    },
    {
      "inputs": [],
      "name": "DoublyLinkedList__NonExistentEntry",
      "type": "error"
    },
    {
      "inputs": [
        {
          "internalType": "uint256",
          "name": "value",
          "type": "uint256"
        }
      ],
      "name": "contains",
      "outputs": [
        {
          "internalType": "bool",
          "name": "",
          "type": "bool"
        }
      ],
      "stateMutability": "view",
      "type": "function"
    },
    {
      "inputs": [
        {
          "internalType": "uint256",
          "name": "prevValue",
          "type": "uint256"
        },
        {
          "internalType": "uint256",
          "name": "newValue",
          "type": "uint256"
        }
      ],
      "name": "insertAfter",
      "outputs": [
        {
          "internalType": "bool",
          "name": "",
          "type": "bool"
        }
      ],
      "stateMutability": "nonpayable",
      "type": "function"
    },
    {
      "inputs": [
        {
          "internalType": "uint256",
          "name": "nextValue",
          "type": "uint256"
        },
        {
          "internalType": "uint256",
          "name": "newValue",
          "type": "uint256"
        }
      ],
      "name": "insertBefore",
      "outputs": [
        {
          "internalType": "bool",
          "name": "",
          "type": "bool"
        }
      ],
      "stateMutability": "nonpayable",
      "type": "function"
    },
    {
      "inputs": [
        {
          "internalType": "uint256",
          "name": "value",
          "type": "uint256"
        }
      ],
      "name": "next",
      "outputs": [
        {
          "internalType": "uint256",
          "name": "",
          "type": "uint256"
        }
      ],
      "stateMutability": "view",
      "type": "function"
    },
    {
      "inputs": [],
      "name": "pop",
      "outputs": [
        {
          "internalType": "uint256",
          "name": "",
          "type": "uint256"
        }
      ],
      "stateMutability": "nonpayable",
      "type": "function"
    },
    {
      "inputs": [
        {
          "internalType": "uint256",
          "name": "value",
          "type": "uint256"
        }
      ],
      "name": "prev",
      "outputs": [
        {
          "internalType": "uint256",
          "name": "",
          "type": "uint256"
        }
      ],
      "stateMutability": "view",
      "type": "function"
    },
    {
      "inputs": [
        {
          "internalType": "uint256",
          "name": "value",
          "type": "uint256"
        }
      ],
      "name": "push",
      "outputs": [
        {
          "internalType": "bool",
          "name": "",
          "type": "bool"
        }
      ],
      "stateMutability": "nonpayable",
      "type": "function"
    },
    {
      "inputs": [
        {
          "internalType": "uint256",
          "name": "value",
          "type": "uint256"
        }
      ],
      "name": "remove",
      "outputs": [
        {
          "internalType": "bool",
          "name": "",
          "type": "bool"
        }
      ],
      "stateMutability": "nonpayable",
      "type": "function"
    },
    {
      "inputs": [
        {
          "internalType": "uint256",
          "name": "oldValue",
          "type": "uint256"
        },
        {
          "internalType": "uint256",
          "name": "newValue",
          "type": "uint256"
        }
      ],
      "name": "replace",
      "outputs": [
        {
          "internalType": "bool",
          "name": "",
          "type": "bool"
        }
      ],
      "stateMutability": "nonpayable",
      "type": "function"
    },
    {
      "inputs": [],
      "name": "shift",
      "outputs": [
        {
          "internalType": "uint256",
          "name": "",
          "type": "uint256"
        }
      ],
      "stateMutability": "nonpayable",
      "type": "function"
    },
    {
      "inputs": [
        {
          "internalType": "uint256",
          "name": "value",
          "type": "uint256"
        }
      ],
      "name": "unshift",
      "outputs": [
        {
          "internalType": "bool",
          "name": "",
          "type": "bool"
        }
      ],
      "stateMutability": "nonpayable",
      "type": "function"
    }
  ],
  "bytecode": "0x608060405234801561001057600080fd5b506105de806100206000396000f3fe608060405234801561001057600080fd5b50600436106100c95760003560e01c8063a4ece52c11610081578063e81cf24c1161005b578063e81cf24c14610173578063edd004e514610186578063f6b3e5851461019957600080fd5b8063a4ece52c14610145578063c0f0eddc1461014d578063c34052e01461016057600080fd5b80634cc82215116100b25780634cc82215146100fc5780635e77a33c1461011f578063959ac4841461013257600080fd5b806312fc41ca146100ce57806335671214146100e9575b600080fd5b6100d66101ac565b6040519081526020015b60405180910390f35b6100d66100f736600461056d565b6101bd565b61010f61010a36600461056d565b6101cf565b60405190151581526020016100e0565b61010f61012d366004610586565b6101db565b61010f61014036600461056d565b6101ef565b6100d66101fb565b61010f61015b366004610586565b610207565b61010f61016e36600461056d565b610214565b61010f610181366004610586565b610220565b6100d661019436600461056d565b61022d565b61010f6101a736600461056d565b610239565b60006101b86000610245565b905090565b60006101c98183610250565b92915050565b60006101c9818361025c565b60006101e8818484610268565b9392505050565b60006101c9818361027d565b60006101b86000610289565b60006101e8818484610294565b60006101c981836102a1565b60006101e88184846102ad565b60006101c981836102ba565b60006101c981836102c6565b60006101c9826102d2565b60006101e883836102f0565b60006101e88383610341565b60006102758484846103af565b949350505050565b60006101e883836103c6565b60006101c9826103de565b60006102758484846103ea565b60006101e88383610401565b600061027584848461043d565b60006101e883836104aa565b60006101e883836104d8565b60006102de82826104aa565b90506102ea8282610341565b50919050565b6000818152600183016020526040902054811580159061030e575080155b801561032357508161032084836104aa565b14155b156101c957604051630f71d89360e11b815260040160405180910390fd5b600061034d8383610401565b156101c95761038d8361036085856102f0565b61036a86866104aa565b600082815260208481526040808320849055928252600190940190935290912055565b5060009081526001828101602090815260408084208490559390529181205590565b600061027584846103c087876104aa565b856104e9565b60006101e8836103d681846102f0565b6000856104e9565b60006102de82826102f0565b6000610275846103fa86866102f0565b85856104e9565b600081158015906101e857506000828152602084905260409020541515806101e857505060008080526001929092016020526040909120541490565b60006104498484610401565b61046657604051630f71d89360e11b815260040160405180910390fd5b61047e8461047486866102f0565b6103c087876104aa565b905080156101e85760008381526001850160209081526040808320839055908690528120559392505050565b60008181526020839052604090205481158015906104c6575080155b801561032357508161032084836102f0565b60006101e883826103c082826104aa565b6000818103610524576040517f2ea5817800000000000000000000000000000000000000000000000000000000815260040160405180910390fd5b61052e8583610401565b61027557506000838152602085815260408083208490558383526001808801808452828520979097559682528083208590559382529390935291205590565b60006020828403121561057f57600080fd5b5035919050565b6000806040838503121561059957600080fd5b5050803592602090910135915056fea2646970667358221220c36f5cfb79d87bb1ff86f573d2f7ab1819971bccfa3394ed50eba49b0db04c6364736f6c63430008140033",
  "linkReferences": {},
  "deployedLinkReferences": {}
}