{
  "_format": "hh-sol-artifact-1",
  "contractName": "EnumerableMapUintToAddressMock",
  "sourceName": "contracts/data/EnumerableMapUintToAddressMock.sol",
  "abi": [
    {
      "inputs": [],
      "name": "EnumerableMap__IndexOutOfBounds",
      "type": "error"
    },
    {
      "inputs": [],
      "name": "EnumerableMap__NonExistentKey",
      "type": "error"
    },
    {
      "inputs": [
        {
          "internalType": "uint256",
          "name": "index",
          "type": "uint256"
        }
      ],
      "name": "at",
      "outputs": [
        {
          "internalType": "uint256",
          "name": "",
          "type": "uint256"
        },
        {
          "internalType": "address",
          "name": "",
          "type": "address"
        }
      ],
      "stateMutability": "view",
      "type": "function"
    },
    {
      "inputs": [
        {
          "internalType": "uint256",
          "name": "key",
          "type": "uint256"
        }
      ],
      "name": "contains",
      "outputs": [
        {
          "internalType": "bool",
          "name": "",
          "type": "bool"
        }
      ],
      "stateMutability": "view",
      "type": "function"
    },
    {
      "inputs": [
        {
          "internalType": "uint256",
          "name": "key",
          "type": "uint256"
        }
      ],
      "name": "get",
      "outputs": [
        {
          "internalType": "address",
          "name": "",
          "type": "address"
        }
      ],
      "stateMutability": "view",
      "type": "function"
    },
    {
      "inputs": [],
      "name": "keys",
      "outputs": [
        {
          "internalType": "uint256[]",
          "name": "keysOut",
          "type": "uint256[]"
        }
      ],
      "stateMutability": "view",
      "type": "function"
    },
    {
      "inputs": [],
      "name": "length",
      "outputs": [
        {
          "internalType": "uint256",
          "name": "",
          "type": "uint256"
        }
      ],
      "stateMutability": "view",
      "type": "function"
    },
    {
      "inputs": [
        {
          "internalType": "uint256",
          "name": "key",
          "type": "uint256"
        }
      ],
      "name": "remove",
      "outputs": [
        {
          "internalType": "bool",
          "name": "",
          "type": "bool"
        }
      ],
      "stateMutability": "nonpayable",
      "type": "function"
    },
    {
      "inputs": [
        {
          "internalType": "uint256",
          "name": "key",
          "type": "uint256"
        },
        {
          "internalType": "address",
          "name": "value",
          "type": "address"
        }
      ],
      "name": "set",
      "outputs": [
        {
          "internalType": "bool",
          "name": "",
          "type": "bool"
        }
      ],
      "stateMutability": "nonpayable",
      "type": "function"
    },
    {
      "inputs": [],
      "name": "toArray",
      "outputs": [
        {
          "internalType": "uint256[]",
          "name": "keysOut",
          "type": "uint256[]"
        },
        {
          "internalType": "address[]",
          "name": "valuesOut",
          "type": "address[]"
        }
      ],
      "stateMutability": "view",
      "type": "function"
    },
    {
      "inputs": [],
      "name": "values",
      "outputs": [
        {
          "internalType": "address[]",
          "name": "valuesOut",
          "type": "address[]"
        }
      ],
      "stateMutability": "view",
      "type": "function"
    }
  ],
  "bytecode": "0x608060405234801561001057600080fd5b5061095f806100206000396000f3fe608060405234801561001057600080fd5b50600436106100a35760003560e01c8063908ff30311610076578063971217b71161005b578063971217b71461014f578063c34052e014610164578063e0886f901461017757600080fd5b8063908ff3031461010e5780639507d39a1461012457600080fd5b80631f7b6d32146100a85780632f30c6f6146100c3578063307540f6146100e65780634cc82215146100fb575b600080fd5b6100b06101a7565b6040519081526020015b60405180910390f35b6100d66100d13660046107ca565b6101b8565b60405190151581526020016100ba565b6100ee6101ce565b6040516100ba9190610841565b6100d6610109366004610854565b6101da565b6101166101e6565b6040516100ba9291906108a6565b610137610132366004610854565b6101fc565b6040516001600160a01b0390911681526020016100ba565b610157610208565b6040516100ba91906108d4565b6100d6610172366004610854565b610214565b61018a610185366004610854565b610220565b604080519283526001600160a01b039091166020830152016100ba565b60006101b36000610236565b905090565b60006101c5818484610240565b90505b92915050565b60606101b36000610260565b60006101c8818361030a565b6060806101f36000610316565b90939092509050565b60006101c8818361045a565b60606101b36000610466565b60006101c88183610516565b60008061022d818461052e565b91509150915091565b60006101c8825490565b600061025684846001600160a01b03851661054a565b90505b9392505050565b80546060908067ffffffffffffffff81111561027e5761027e6108e7565b6040519080825280602002602001820160405280156102a7578160200160208202803683370190505b50915060005b818110156103035783548490829081106102c9576102c96108fd565b90600052602060002090600202016000015460001c8382815181106102f0576102f06108fd565b60209081029190910101526001016102ad565b5050919050565b60006101c583836105e9565b805460609081908067ffffffffffffffff811115610336576103366108e7565b60405190808252806020026020018201604052801561035f578160200160208202803683370190505b5092508067ffffffffffffffff81111561037b5761037b6108e7565b6040519080825280602002602001820160405280156103a4578160200160208202803683370190505b50915060005b818110156104535784548590829081106103c6576103c66108fd565b90600052602060002090600202016000015460001c8482815181106103ed576103ed6108fd565b6020908102919091010152845485908290811061040c5761040c6108fd565b90600052602060002090600202016001015460001c838281518110610433576104336108fd565b6001600160a01b03909216602092830291909101909101526001016103aa565b5050915091565b60006101c583836106d1565b80546060908067ffffffffffffffff811115610484576104846108e7565b6040519080825280602002602001820160405280156104ad578160200160208202803683370190505b50915060005b818110156103035783548490829081106104cf576104cf6108fd565b90600052602060002090600202016001015460001c8382815181106104f6576104f66108fd565b6001600160a01b03909216602092830291909101909101526001016104b3565b600081815260018301602052604081205415156101c5565b600080808061053d868661074e565b9097909650945050505050565b60008281526001840160205260408120548082036105b1575050604080518082018252838152602080820184815286546001818101895560008981528481209551600290930290950191825591519082015586548684528188019092529290912055610259565b828560000160018303815481106105ca576105ca6108fd565b9060005260206000209060020201600101819055506000915050610259565b600081815260018301602052604081205480156106c75783546000908590600019810190811061061b5761061b6108fd565b9060005260206000209060020201905080856000016001840381548110610644576106446108fd565b600091825260208083208454600290930201918255600193840154918401919091559254815290860190915260409020819055835484908061068857610688610913565b60008281526020808220600260001990940193840201828155600190810183905592909355858152868201909252604082209190915591506101c89050565b60009150506101c8565b600081815260018301602052604081205480820361071b576040517ff551fb1400000000000000000000000000000000000000000000000000000000815260040160405180910390fd5b836000016001820381548110610733576107336108fd565b90600052602060002090600202016001015491505092915050565b81546000908190831061078d576040517f117ec13800000000000000000000000000000000000000000000000000000000815260040160405180910390fd5b60008460000184815481106107a4576107a46108fd565b906000526020600020906002020190508060000154816001015492509250509250929050565b600080604083850312156107dd57600080fd5b8235915060208301356001600160a01b03811681146107fb57600080fd5b809150509250929050565b600081518084526020808501945080840160005b838110156108365781518752958201959082019060010161081a565b509495945050505050565b6020815260006101c56020830184610806565b60006020828403121561086657600080fd5b5035919050565b600081518084526020808501945080840160005b838110156108365781516001600160a01b031687529582019590820190600101610881565b6040815260006108b96040830185610806565b82810360208401526108cb818561086d565b95945050505050565b6020815260006101c5602083018461086d565b634e487b7160e01b600052604160045260246000fd5b634e487b7160e01b600052603260045260246000fd5b634e487b7160e01b600052603160045260246000fdfea2646970667358221220f62771a59ba5b1b388bdfae856dffd514bed48c6d5891712cc4985fd1b7490ad64736f6c63430008140033",
  "linkReferences": {},
  "deployedLinkReferences": {}
}