{
  "_format": "hh-sol-artifact-1",
  "contractName": "CouponSnapshotManagement",
  "sourceName": "contracts/register/snapshot/CouponSnapshotManagement.sol",
  "abi": [
    {
      "inputs": [],
      "name": "ERC20Base__ApproveFromZeroAddress",
      "type": "error"
    },
    {
      "inputs": [],
      "name": "ERC20Base__ApproveToZeroAddress",
      "type": "error"
    },
    {
      "inputs": [],
      "name": "ERC20Base__BurnExceedsBalance",
      "type": "error"
    },
    {
      "inputs": [],
      "name": "ERC20Base__BurnFromZeroAddress",
      "type": "error"
    },
    {
      "inputs": [],
      "name": "ERC20Base__InsufficientAllowance",
      "type": "error"
    },
    {
      "inputs": [],
      "name": "ERC20Base__MintToZeroAddress",
      "type": "error"
    },
    {
      "inputs": [],
      "name": "ERC20Base__TransferExceedsBalance",
      "type": "error"
    },
    {
      "inputs": [],
      "name": "ERC20Base__TransferFromZeroAddress",
      "type": "error"
    },
    {
      "inputs": [],
      "name": "ERC20Base__TransferToZeroAddress",
      "type": "error"
    },
    {
      "inputs": [],
      "name": "ERC20Snapshot__SnapshotIdDoesNotExists",
      "type": "error"
    },
    {
      "inputs": [],
      "name": "ERC20Snapshot__SnapshotIdIsZero",
      "type": "error"
    },
    {
      "inputs": [],
      "name": "EnumerableSet__IndexOutOfBounds",
      "type": "error"
    },
    {
      "inputs": [],
      "name": "ReentrancyGuard__ReentrantCall",
      "type": "error"
    },
    {
      "inputs": [],
      "name": "UintUtils__InsufficientHexLength",
      "type": "error"
    },
    {
      "anonymous": false,
      "inputs": [
        {
          "indexed": true,
          "internalType": "address",
          "name": "_addressForNewAdmin",
          "type": "address"
        }
      ],
      "name": "AdminChanged",
      "type": "event"
    },
    {
      "anonymous": false,
      "inputs": [
        {
          "indexed": true,
          "internalType": "address",
          "name": "owner",
          "type": "address"
        },
        {
          "indexed": true,
          "internalType": "address",
          "name": "spender",
          "type": "address"
        },
        {
          "indexed": false,
          "internalType": "uint256",
          "name": "value",
          "type": "uint256"
        }
      ],
      "name": "Approval",
      "type": "event"
    },
    {
      "anonymous": false,
      "inputs": [
        {
          "indexed": false,
          "internalType": "bytes32",
          "name": "contractHash",
          "type": "bytes32"
        }
      ],
      "name": "DisableContract",
      "type": "event"
    },
    {
      "anonymous": false,
      "inputs": [
        {
          "indexed": false,
          "internalType": "address",
          "name": "investor",
          "type": "address"
        }
      ],
      "name": "DisableInvestor",
      "type": "event"
    },
    {
      "anonymous": false,
      "inputs": [
        {
          "indexed": false,
          "internalType": "bytes32",
          "name": "contractHash",
          "type": "bytes32"
        }
      ],
      "name": "EnableContract",
      "type": "event"
    },
    {
      "anonymous": false,
      "inputs": [
        {
          "indexed": false,
          "internalType": "address",
          "name": "investor",
          "type": "address"
        }
      ],
      "name": "EnableInvestor",
      "type": "event"
    },
    {
      "anonymous": false,
      "inputs": [
        {
          "indexed": false,
          "internalType": "uint64",
          "name": "version",
          "type": "uint64"
        }
      ],
      "name": "Initialized",
      "type": "event"
    },
    {
      "anonymous": false,
      "inputs": [
        {
          "indexed": true,
          "internalType": "address",
          "name": "creator",
          "type": "address"
        },
        {
          "indexed": false,
          "internalType": "string",
          "name": "name",
          "type": "string"
        },
        {
          "indexed": false,
          "internalType": "string",
          "name": "isin",
          "type": "string"
        }
      ],
      "name": "NewBondDrafted",
      "type": "event"
    },
    {
      "anonymous": false,
      "inputs": [
        {
          "indexed": true,
          "internalType": "address",
          "name": "sender",
          "type": "address"
        },
        {
          "indexed": true,
          "internalType": "address",
          "name": "target",
          "type": "address"
        },
        {
          "indexed": false,
          "internalType": "string",
          "name": "message",
          "type": "string"
        }
      ],
      "name": "PublicMessage",
      "type": "event"
    },
    {
      "anonymous": false,
      "inputs": [
        {
          "indexed": true,
          "internalType": "address",
          "name": "emiter",
          "type": "address"
        },
        {
          "indexed": false,
          "internalType": "string",
          "name": "name",
          "type": "string"
        },
        {
          "indexed": false,
          "internalType": "string",
          "name": "isin",
          "type": "string"
        },
        {
          "indexed": false,
          "internalType": "enum IRegisterMetadataInternal.Status",
          "name": "status",
          "type": "uint8"
        }
      ],
      "name": "RegisterStatusChanged",
      "type": "event"
    },
    {
      "anonymous": false,
      "inputs": [
        {
          "indexed": true,
          "internalType": "bytes32",
          "name": "role",
          "type": "bytes32"
        },
        {
          "indexed": true,
          "internalType": "bytes32",
          "name": "previousAdminRole",
          "type": "bytes32"
        },
        {
          "indexed": true,
          "internalType": "bytes32",
          "name": "newAdminRole",
          "type": "bytes32"
        }
      ],
      "name": "RoleAdminChanged",
      "type": "event"
    },
    {
      "anonymous": false,
      "inputs": [
        {
          "indexed": true,
          "internalType": "bytes32",
          "name": "role",
          "type": "bytes32"
        },
        {
          "indexed": true,
          "internalType": "address",
          "name": "account",
          "type": "address"
        },
        {
          "indexed": true,
          "internalType": "address",
          "name": "sender",
          "type": "address"
        }
      ],
      "name": "RoleGranted",
      "type": "event"
    },
    {
      "anonymous": false,
      "inputs": [
        {
          "indexed": true,
          "internalType": "bytes32",
          "name": "role",
          "type": "bytes32"
        },
        {
          "indexed": true,
          "internalType": "address",
          "name": "account",
          "type": "address"
        },
        {
          "indexed": true,
          "internalType": "address",
          "name": "sender",
          "type": "address"
        }
      ],
      "name": "RoleRevoked",
      "type": "event"
    },
    {
      "anonymous": false,
      "inputs": [
        {
          "indexed": false,
          "internalType": "uint256",
          "name": "id",
          "type": "uint256"
        }
      ],
      "name": "Snapshot",
      "type": "event"
    },
    {
      "anonymous": false,
      "inputs": [
        {
          "indexed": true,
          "internalType": "uint256",
          "name": "couponDate",
          "type": "uint256"
        },
        {
          "indexed": true,
          "internalType": "uint256",
          "name": "currentTimestamp",
          "type": "uint256"
        },
        {
          "indexed": true,
          "internalType": "uint256",
          "name": "nextTimestamp",
          "type": "uint256"
        }
      ],
      "name": "SnapshotTimestampChange",
      "type": "event"
    },
    {
      "anonymous": false,
      "inputs": [
        {
          "indexed": true,
          "internalType": "address",
          "name": "from",
          "type": "address"
        },
        {
          "indexed": true,
          "internalType": "address",
          "name": "to",
          "type": "address"
        },
        {
          "indexed": false,
          "internalType": "uint256",
          "name": "value",
          "type": "uint256"
        }
      ],
      "name": "Transfer",
      "type": "event"
    },
    {
      "anonymous": false,
      "inputs": [
        {
          "indexed": true,
          "internalType": "address",
          "name": "toBeAdded",
          "type": "address"
        }
      ],
      "name": "WalletAddedToWhitelist",
      "type": "event"
    },
    {
      "anonymous": false,
      "inputs": [
        {
          "indexed": true,
          "internalType": "address",
          "name": "toBeDeleted",
          "type": "address"
        }
      ],
      "name": "WalletDeletedFromWhitelist",
      "type": "event"
    },
    {
      "inputs": [],
      "name": "BND_ROLE",
      "outputs": [
        {
          "internalType": "bytes32",
          "name": "",
          "type": "bytes32"
        }
      ],
      "stateMutability": "view",
      "type": "function"
    },
    {
      "inputs": [],
      "name": "CAK_ROLE",
      "outputs": [
        {
          "internalType": "bytes32",
          "name": "",
          "type": "bytes32"
        }
      ],
      "stateMutability": "view",
      "type": "function"
    },
    {
      "inputs": [],
      "name": "CST_ROLE",
      "outputs": [
        {
          "internalType": "bytes32",
          "name": "",
          "type": "bytes32"
        }
      ],
      "stateMutability": "view",
      "type": "function"
    },
    {
      "inputs": [],
      "name": "PAY_ROLE",
      "outputs": [
        {
          "internalType": "bytes32",
          "name": "",
          "type": "bytes32"
        }
      ],
      "stateMutability": "view",
      "type": "function"
    },
    {
      "inputs": [
        {
          "internalType": "uint256",
          "name": "_couponDate",
          "type": "uint256"
        }
      ],
      "name": "_totalSupplyAtCoupon",
      "outputs": [
        {
          "internalType": "uint256",
          "name": "",
          "type": "uint256"
        }
      ],
      "stateMutability": "view",
      "type": "function"
    },
    {
      "inputs": [
        {
          "internalType": "address",
          "name": "holder",
          "type": "address"
        },
        {
          "internalType": "address",
          "name": "spender",
          "type": "address"
        }
      ],
      "name": "allowance",
      "outputs": [
        {
          "internalType": "uint256",
          "name": "",
          "type": "uint256"
        }
      ],
      "stateMutability": "view",
      "type": "function"
    },
    {
      "inputs": [
        {
          "internalType": "address",
          "name": "",
          "type": "address"
        },
        {
          "internalType": "uint256",
          "name": "",
          "type": "uint256"
        }
      ],
      "name": "approve",
      "outputs": [
        {
          "internalType": "bool",
          "name": "",
          "type": "bool"
        }
      ],
      "stateMutability": "nonpayable",
      "type": "function"
    },
    {
      "inputs": [
        {
          "internalType": "address",
          "name": "account",
          "type": "address"
        }
      ],
      "name": "balanceOf",
      "outputs": [
        {
          "internalType": "uint256",
          "name": "",
          "type": "uint256"
        }
      ],
      "stateMutability": "view",
      "type": "function"
    },
    {
      "inputs": [
        {
          "internalType": "address",
          "name": "account",
          "type": "address"
        },
        {
          "internalType": "uint256",
          "name": "snapshotId",
          "type": "uint256"
        }
      ],
      "name": "balanceOfAt",
      "outputs": [
        {
          "internalType": "uint256",
          "name": "",
          "type": "uint256"
        }
      ],
      "stateMutability": "view",
      "type": "function"
    },
    {
      "inputs": [
        {
          "internalType": "address",
          "name": "account",
          "type": "address"
        },
        {
          "internalType": "uint256",
          "name": "_couponDate",
          "type": "uint256"
        }
      ],
      "name": "balanceOfCoupon",
      "outputs": [
        {
          "internalType": "uint256",
          "name": "",
          "type": "uint256"
        }
      ],
      "stateMutability": "view",
      "type": "function"
    },
    {
      "inputs": [
        {
          "internalType": "uint256",
          "name": "amount_",
          "type": "uint256"
        }
      ],
      "name": "burn",
      "outputs": [],
      "stateMutability": "nonpayable",
      "type": "function"
    },
    {
      "inputs": [],
      "name": "currentCouponDate",
      "outputs": [
        {
          "internalType": "uint256",
          "name": "",
          "type": "uint256"
        }
      ],
      "stateMutability": "view",
      "type": "function"
    },
    {
      "inputs": [],
      "name": "currentSnapshotDatetime",
      "outputs": [
        {
          "internalType": "uint256",
          "name": "",
          "type": "uint256"
        }
      ],
      "stateMutability": "view",
      "type": "function"
    },
    {
      "inputs": [],
      "name": "decimals",
      "outputs": [
        {
          "internalType": "uint8",
          "name": "",
          "type": "uint8"
        }
      ],
      "stateMutability": "view",
      "type": "function"
    },
    {
      "inputs": [
        {
          "internalType": "address",
          "name": "",
          "type": "address"
        },
        {
          "internalType": "uint256",
          "name": "",
          "type": "uint256"
        }
      ],
      "name": "decreaseAllowance",
      "outputs": [
        {
          "internalType": "bool",
          "name": "",
          "type": "bool"
        }
      ],
      "stateMutability": "nonpayable",
      "type": "function"
    },
    {
      "inputs": [
        {
          "internalType": "uint256",
          "name": "CouponDate",
          "type": "uint256"
        }
      ],
      "name": "getInvestorListAtCoupon",
      "outputs": [
        {
          "internalType": "address[]",
          "name": "",
          "type": "address[]"
        }
      ],
      "stateMutability": "view",
      "type": "function"
    },
    {
      "inputs": [
        {
          "internalType": "bytes32",
          "name": "role",
          "type": "bytes32"
        }
      ],
      "name": "getRoleAdmin",
      "outputs": [
        {
          "internalType": "bytes32",
          "name": "",
          "type": "bytes32"
        }
      ],
      "stateMutability": "view",
      "type": "function"
    },
    {
      "inputs": [
        {
          "internalType": "bytes32",
          "name": "role",
          "type": "bytes32"
        },
        {
          "internalType": "uint256",
          "name": "index",
          "type": "uint256"
        }
      ],
      "name": "getRoleMember",
      "outputs": [
        {
          "internalType": "address",
          "name": "",
          "type": "address"
        }
      ],
      "stateMutability": "view",
      "type": "function"
    },
    {
      "inputs": [
        {
          "internalType": "bytes32",
          "name": "role",
          "type": "bytes32"
        }
      ],
      "name": "getRoleMemberCount",
      "outputs": [
        {
          "internalType": "uint256",
          "name": "",
          "type": "uint256"
        }
      ],
      "stateMutability": "view",
      "type": "function"
    },
    {
      "inputs": [
        {
          "internalType": "bytes32",
          "name": "role",
          "type": "bytes32"
        },
        {
          "internalType": "address",
          "name": "account",
          "type": "address"
        }
      ],
      "name": "grantRole",
      "outputs": [],
      "stateMutability": "nonpayable",
      "type": "function"
    },
    {
      "inputs": [
        {
          "internalType": "bytes32",
          "name": "role",
          "type": "bytes32"
        },
        {
          "internalType": "address",
          "name": "account",
          "type": "address"
        }
      ],
      "name": "hasRole",
      "outputs": [
        {
          "internalType": "bool",
          "name": "",
          "type": "bool"
        }
      ],
      "stateMutability": "view",
      "type": "function"
    },
    {
      "inputs": [
        {
          "internalType": "address",
          "name": "",
          "type": "address"
        },
        {
          "internalType": "uint256",
          "name": "",
          "type": "uint256"
        }
      ],
      "name": "increaseAllowance",
      "outputs": [
        {
          "internalType": "bool",
          "name": "",
          "type": "bool"
        }
      ],
      "stateMutability": "nonpayable",
      "type": "function"
    },
    {
      "inputs": [
        {
          "internalType": "address",
          "name": "forwarder",
          "type": "address"
        }
      ],
      "name": "isTrustedForwarder",
      "outputs": [
        {
          "internalType": "bool",
          "name": "",
          "type": "bool"
        }
      ],
      "stateMutability": "view",
      "type": "function"
    },
    {
      "inputs": [
        {
          "internalType": "uint256",
          "name": "amount_",
          "type": "uint256"
        }
      ],
      "name": "mint",
      "outputs": [],
      "stateMutability": "nonpayable",
      "type": "function"
    },
    {
      "inputs": [],
      "name": "name",
      "outputs": [
        {
          "internalType": "string",
          "name": "",
          "type": "string"
        }
      ],
      "stateMutability": "view",
      "type": "function"
    },
    {
      "inputs": [],
      "name": "nextSnapshotDatetime",
      "outputs": [
        {
          "internalType": "uint256",
          "name": "",
          "type": "uint256"
        }
      ],
      "stateMutability": "view",
      "type": "function"
    },
    {
      "inputs": [
        {
          "internalType": "bytes32",
          "name": "role",
          "type": "bytes32"
        }
      ],
      "name": "renounceRole",
      "outputs": [],
      "stateMutability": "nonpayable",
      "type": "function"
    },
    {
      "inputs": [
        {
          "internalType": "bytes32",
          "name": "role",
          "type": "bytes32"
        },
        {
          "internalType": "address",
          "name": "account",
          "type": "address"
        }
      ],
      "name": "revokeRole",
      "outputs": [],
      "stateMutability": "nonpayable",
      "type": "function"
    },
    {
      "inputs": [],
      "name": "symbol",
      "outputs": [
        {
          "internalType": "string",
          "name": "",
          "type": "string"
        }
      ],
      "stateMutability": "view",
      "type": "function"
    },
    {
      "inputs": [],
      "name": "totalSupply",
      "outputs": [
        {
          "internalType": "uint256",
          "name": "",
          "type": "uint256"
        }
      ],
      "stateMutability": "view",
      "type": "function"
    },
    {
      "inputs": [
        {
          "internalType": "uint256",
          "name": "snapshotId",
          "type": "uint256"
        }
      ],
      "name": "totalSupplyAt",
      "outputs": [
        {
          "internalType": "uint256",
          "name": "",
          "type": "uint256"
        }
      ],
      "stateMutability": "view",
      "type": "function"
    },
    {
      "inputs": [
        {
          "internalType": "uint256",
          "name": "_couponDate",
          "type": "uint256"
        }
      ],
      "name": "totalSupplyAtCoupon",
      "outputs": [
        {
          "internalType": "uint256",
          "name": "",
          "type": "uint256"
        }
      ],
      "stateMutability": "view",
      "type": "function"
    },
    {
      "inputs": [
        {
          "internalType": "address",
          "name": "",
          "type": "address"
        },
        {
          "internalType": "uint256",
          "name": "",
          "type": "uint256"
        }
      ],
      "name": "transfer",
      "outputs": [
        {
          "internalType": "bool",
          "name": "",
          "type": "bool"
        }
      ],
      "stateMutability": "nonpayable",
      "type": "function"
    },
    {
      "inputs": [
        {
          "internalType": "address",
          "name": "from_",
          "type": "address"
        },
        {
          "internalType": "address",
          "name": "to_",
          "type": "address"
        },
        {
          "internalType": "uint256",
          "name": "amount_",
          "type": "uint256"
        }
      ],
      "name": "transferFrom",
      "outputs": [
        {
          "internalType": "bool",
          "name": "",
          "type": "bool"
        }
      ],
      "stateMutability": "nonpayable",
      "type": "function"
    },
    {
      "inputs": [],
      "name": "trustedForwarder",
      "outputs": [
        {
          "internalType": "address",
          "name": "",
          "type": "address"
        }
      ],
      "stateMutability": "view",
      "type": "function"
    }
  ],
  "bytecode": "0x608060405234801561001057600080fd5b50612dde806100206000396000f3fe608060405234801561001057600080fd5b50600436106102415760003560e01c80637cc7bcce11610145578063a0712d68116100bd578063cf5b36281161008c578063dd62ed3e11610071578063dd62ed3e14610526578063e5bf6dc814610539578063eeb4cee91461054157600080fd5b8063cf5b362814610500578063d547741f1461051357600080fd5b8063a0712d68146104b4578063a457c2d7146104c7578063a9059cbb146104da578063ca15c873146104ed57600080fd5b80639010d07c1161011457806395d89b41116100f957806395d89b4114610491578063981b24d0146104995780639ef986de146104ac57600080fd5b80639010d07c1461046b57806391d148541461047e57600080fd5b80637cc7bcce146103ec5780637da0a8771461040c5780638865f1e2146104315780638bb9c5bf1461045857600080fd5b80632f2ff15d116101d85780633e0abded116101a75780634ee2cd7e1161018c5780634ee2cd7e146103b3578063572b6c05146103c657806370a08231146103d957600080fd5b80633e0abded1461038d57806342966c68146103a057600080fd5b80632f2ff15d14610324578063313ce5671461033957806339509351146103535780633bf2a9f41461036657600080fd5b80631c67a363116102145780631c67a363146102b057806323b872dd146102d7578063248a9ca3146102ea5780632682ac91146102fd57600080fd5b806306fdde031461024657806307b2d9e314610264578063095ea7b31461028557806318160ddd146102a8575b600080fd5b61024e610549565b60405161025b9190612961565b60405180910390f35b6102776102723660046129b0565b610558565b60405190815260200161025b565b6102986102933660046129b0565b61056d565b604051901515815260200161025b565b6102776105bd565b6102777f6ba6f588bcdc2df8426603a466c98ab15e79f7fb7f37b53581ce39c1d01b724981565b6102986102e53660046129da565b6105e7565b6102776102f8366004612a16565b6105fe565b6102777ff698af62c65280e4949bceec64b760f3b7738217cbc536cdfc4c9463676b05c281565b610337610332366004612a2f565b610634565b005b61034161067d565b60405160ff909116815260200161025b565b6102986103613660046129b0565b6106aa565b6102777fd7aa2ddfa4e381128202bf365b7e0a176f2fca6cdf2f23c2b0a6f4393769589081565b61027761039b366004612a16565b6106f5565b6103376103ae366004612a16565b610783565b6102776103c13660046129b0565b610797565b6102986103d4366004612a5b565b6107a3565b6102776103e7366004612a5b565b6107ba565b6103ff6103fa366004612a16565b6107f7565b60405161025b9190612a76565b6000546001600160a01b03165b6040516001600160a01b03909116815260200161025b565b6102777fa75205b8583660bdad375c0ccde11af17668d76a408a9a5e739251b0f7c5987081565b610337610466366004612a16565b610802565b610419610479366004612ac3565b61080b565b61029861048c366004612a2f565b610817565b61024e610823565b6102776104a7366004612a16565b61082d565b610277610838565b6103376104c2366004612a16565b610862565b6102986104d53660046129b0565b61086b565b6102986104e83660046129b0565b6108b6565b6102776104fb366004612a16565b610901565b61027761050e366004612a16565b61090c565b610337610521366004612a2f565b610917565b610277610534366004612ae5565b61095b565b6102776109a7565b6102776109d1565b60606105536109fb565b905090565b60006105648383610aac565b90505b92915050565b60405162461bcd60e51b815260206004820152601360248201527f617070726f76652069732064697361626c65640000000000000000000000000060448201526000906064015b60405180910390fd5b60006105537fbbbdc1476a0878f2ef9a893c81f5b6f6ea1b3acaf18ff47ccb69cd4267d50c885490565b60006105f4848484610b52565b90505b9392505050565b60008181527f2e59e4c2e927cdddbb64e181e0668d9a0fa70dd88f94d999cd87d5496a20da626020526040812060020154610567565b60008281527f2e59e4c2e927cdddbb64e181e0668d9a0fa70dd88f94d999cd87d5496a20da62602052604090206002015461066e81610fce565b6106788383610fdf565b505050565b60006105537f8c998f45074727a62053813302c526655913012298b223f931495bf68495bf685460ff1690565b60405162461bcd60e51b815260206004820152601d60248201527f696e637265617365416c6c6f77616e63652069732064697361626c656400000060448201526000906064016105b4565b60008181527f95d8298a3d25370298f52eb5e4c2caa68ca2492c02741ad9ada9443a021d759160205260408120547f95d8298a3d25370298f52eb5e4c2caa68ca2492c02741ad9ada9443a021d758d90801561075c57610754816111a0565b949350505050565b7fbbbdc1476a0878f2ef9a893c81f5b6f6ea1b3acaf18ff47ccb69cd4267d50c8854610754565b61079461078e6111fe565b82611208565b50565b60006105648383611346565b600080546001600160a01b03838116911614610567565b6001600160a01b03811660009081527fbbbdc1476a0878f2ef9a893c81f5b6f6ea1b3acaf18ff47ccb69cd4267d50c866020526040812054610567565b6060610567826113de565b610794816115c4565b600061056483836115d5565b6000610564838361160c565b6060610553611643565b6000610567826111a0565b60006105537f95d8298a3d25370298f52eb5e4c2caa68ca2492c02741ad9ada9443a021d758d5490565b61079481611674565b60405162461bcd60e51b815260206004820152601d60248201527f6465637265617365416c6c6f77616e63652069732064697361626c656400000060448201526000906064016105b4565b60405162461bcd60e51b815260206004820152601460248201527f7472616e736665722069732064697361626c656400000000000000000000000060448201526000906064016105b4565b6000610567826117c3565b6000610567826106f5565b60008281527f2e59e4c2e927cdddbb64e181e0668d9a0fa70dd88f94d999cd87d5496a20da62602052604090206002015461095181610fce565b61067883836117f9565b6001600160a01b0380831660009081527fbbbdc1476a0878f2ef9a893c81f5b6f6ea1b3acaf18ff47ccb69cd4267d50c8760209081526040808320938516835292905290812054610564565b60006105537f95d8298a3d25370298f52eb5e4c2caa68ca2492c02741ad9ada9443a021d758f5490565b60006105537f95d8298a3d25370298f52eb5e4c2caa68ca2492c02741ad9ada9443a021d758e5490565b60607f8c998f45074727a62053813302c526655913012298b223f931495bf68495bf668054610a2990612b0f565b80601f0160208091040260200160405190810160405280929190818152602001828054610a5590612b0f565b8015610aa25780601f10610a7757610100808354040283529160200191610aa2565b820191906000526020600020905b815481529060010190602001808311610a8557829003601f168201915b5050505050905090565b60008181527f95d8298a3d25370298f52eb5e4c2caa68ca2492c02741ad9ada9443a021d759160205260408120547f95d8298a3d25370298f52eb5e4c2caa68ca2492c02741ad9ada9443a021d758d908015610b1557610b0c8582611346565b92505050610567565b6001600160a01b03851660009081527fbbbdc1476a0878f2ef9a893c81f5b6f6ea1b3acaf18ff47ccb69cd4267d50c866020526040902054610b0c565b60007fe02854d75ca0f6b56099fb1e1546a75ef76f441f4e6082f2e3cbb1e8dc5591a0610b9f7fa75205b8583660bdad375c0ccde11af17668d76a408a9a5e739251b0f7c598703361160c565b15610bba57610baf8585856119a4565b5060019150506105f7565b610bc333611b3d565b610c0f5760405162461bcd60e51b815260206004820181905260248201527f5468697320636f6e7472616374206973206e6f742077686974656c697374656460448201526064016105b4565b6004815460ff166004811115610c2757610c27612b49565b03610c9a5760405162461bcd60e51b815260206004820152603360248201527f4e6f207472616e736665722063616e20626520646f6e65207768656e2074686560448201527f2072656769737465722069732046726f7a656e0000000000000000000000000060648201526084016105b4565b6001815460ff166004811115610cb257610cb2612b49565b148015610ce45750610ce47ff698af62c65280e4949bceec64b760f3b7738217cbc536cdfc4c9463676b05c28561160c565b8015610cff5750600c8101546001600160a01b038681169116145b15610e61578054600260ff19909116811782557f332cf6b129284e49df93f4be38bb1959bb5fa7d7d0ce3d4ad668f566f35f6fd4805460018181019092557f3b5a704516de56a4fa30eb29b0bf899a47de4e07d715ffde30cee9d593da4416810180546001600160a01b0389167fffffffffffffffffffffffff0000000000000000000000000000000000000000918216811790925560008281527f332cf6b129284e49df93f4be38bb1959bb5fa7d7d0ce3d4ad668f566f35f6fd56020526040902093840192909255825493830180549092169091557fffffffffffffffffffffff0000000000000000000000000000000000000000009092169091179055610e076111fe565b81546040516001600160a01b0392909216917fda2010acfda7a262372331cb3b57e3f648f63eb009a423a2b5602cfa4f9bff5191610e54916001860191600287019160ff90911690612c03565b60405180910390a2610fc3565b610ea9846001600160a01b031660009081527f332cf6b129284e49df93f4be38bb1959bb5fa7d7d0ce3d4ad668f566f35f6fd56020526040902054600160a01b900460ff1690565b1515600114610efa5760405162461bcd60e51b815260206004820152601b60248201527f546865207265636569766572206973206e6f7420616c6c6f776564000000000060448201526064016105b4565b610f42856001600160a01b031660009081527f332cf6b129284e49df93f4be38bb1959bb5fa7d7d0ce3d4ad668f566f35f6fd56020526040902054600160a01b900460ff1690565b151560011480610f775750610f777ff698af62c65280e4949bceec64b760f3b7738217cbc536cdfc4c9463676b05c28661160c565b610fc35760405162461bcd60e51b815260206004820152601960248201527f5468652073656e646572206973206e6f7420616c6c6f7765640000000000000060448201526064016105b4565b610baf8585856119a4565b61079481610fda6111fe565b611b84565b8161103d5760405162461bcd60e51b8152602060048201526024808201527f5573652066756e6374696f6e206368616e676541646d696e526f6c6520696e736044820152631d19585960e21b60648201526084016105b4565b611192565b7fa75205b8583660bdad375c0ccde11af17668d76a408a9a5e739251b0f7c59870820361111a576110957fa75205b8583660bdad375c0ccde11af17668d76a408a9a5e739251b0f7c598706110906111fe565b61160c565b806110a857506110a860006110906111fe565b6110385760405162461bcd60e51b815260206004820152602e60248201527f43616c6c6572206d7573742062652043414b206f722041444d494e20746f207360448201527f657420616e6f746865722043414b00000000000000000000000000000000000060648201526084016105b4565b6111467fa75205b8583660bdad375c0ccde11af17668d76a408a9a5e739251b0f7c598706110906111fe565b6111925760405162461bcd60e51b815260206004820181905260248201527f43616c6c6572206d7573742062652043414b20746f20736574206120726f6c6560448201526064016105b4565b61119c8282611be6565b5050565b600080806111ce847fcd7a55ef023eb5931cc022a9bdc64cb5b46c3a6e53bcaa84915eea6084f1c7b5611c6a565b91509150816105f7577fbbbdc1476a0878f2ef9a893c81f5b6f6ea1b3acaf18ff47ccb69cd4267d50c8854610754565b6000610553611d79565b6001600160a01b038216611248576040517ff1e2c4ee00000000000000000000000000000000000000000000000000000000815260040160405180910390fd5b61125482600083611dac565b6001600160a01b03821660009081527fbbbdc1476a0878f2ef9a893c81f5b6f6ea1b3acaf18ff47ccb69cd4267d50c866020819052604090912054808311156112c9576040517fb1d35b2300000000000000000000000000000000000000000000000000000000815260040160405180910390fd5b6001600160a01b038416600090815260208390526040812084830390556002830180548592906112fa908490612c6d565b90915550506040518381526000906001600160a01b038616907fddf252ad1be2c89b69c2b068fc378daa952ba7f163c4a11628f55a4df523b3ef9060200160405180910390a350505050565b6000808061138d847fcd7a55ef023eb5931cc022a9bdc64cb5b46c3a6e53bcaa84915eea6084f1c7b46001600160a01b038816600090815260209190915260409020611c6a565b91509150816113d3576001600160a01b03851660009081527fbbbdc1476a0878f2ef9a893c81f5b6f6ea1b3acaf18ff47ccb69cd4267d50c8660205260409020546113d5565b805b95945050505050565b7f332cf6b129284e49df93f4be38bb1959bb5fa7d7d0ce3d4ad668f566f35f6fd480546060919060009067ffffffffffffffff81111561142057611420612c80565b604051908082528060200260200182016040528015611449578160200160208202803683370190505b5090506000805b835481101561151157600061148e85600001838154811061147357611473612c96565b6000918252602090912001546001600160a01b031688610aac565b11156114ff578360000181815481106114a9576114a9612c96565b9060005260206000200160009054906101000a90046001600160a01b03168383815181106114d9576114d9612c96565b6001600160a01b0390921660209283029190910190910152816114fb81612cac565b9250505b8061150981612cac565b915050611450565b5060008167ffffffffffffffff81111561152d5761152d612c80565b604051908082528060200260200182016040528015611556578160200160208202803683370190505b50905060005b828110156115ba5783818151811061157657611576612c96565b602002602001015182828151811061159057611590612c96565b6001600160a01b0390921660209283029190910190910152806115b281612cac565b91505061155c565b5095945050505050565b610794816115d06111fe565b6117f9565b60008281527f2e59e4c2e927cdddbb64e181e0668d9a0fa70dd88f94d999cd87d5496a20da62602052604081206105649083611fc3565b60008281527f2e59e4c2e927cdddbb64e181e0668d9a0fa70dd88f94d999cd87d5496a20da62602052604081206105649083611fcf565b60607f8c998f45074727a62053813302c526655913012298b223f931495bf68495bf666001018054610a2990612b0f565b6116a07fa75205b8583660bdad375c0ccde11af17668d76a408a9a5e739251b0f7c598706110906111fe565b6116ec5760405162461bcd60e51b815260206004820152601260248201527f43616c6c6572206d7573742062652043414b000000000000000000000000000060448201526064016105b4565b7fe02854d75ca0f6b56099fb1e1546a75ef76f441f4e6082f2e3cbb1e8dc5591ac547fe02854d75ca0f6b56099fb1e1546a75ef76f441f4e6082f2e3cbb1e8dc5591a0906001600160a01b03166117ab5760405162461bcd60e51b815260206004820152602660248201527f596f75206d7573742073657420746865206d696e74207265636569766572206160448201527f646472657373000000000000000000000000000000000000000000000000000060648201526084016105b4565b600c81015461119c906001600160a01b031683611ff1565b60008181527f2e59e4c2e927cdddbb64e181e0668d9a0fa70dd88f94d999cd87d5496a20da62602052604081206105679061210a565b816118525760405162461bcd60e51b8152602060048201526024808201527f5573652066756e6374696f6e206368616e676541646d696e526f6c6520696e736044820152631d19585960e21b60648201526084016105b4565b7fa75205b8583660bdad375c0ccde11af17668d76a408a9a5e739251b0f7c5987082036118fc5761188660006110906111fe565b6118f75760405162461bcd60e51b8152602060048201526024808201527f43616c6c6572206d7573742062652041444d494e20746f2072656d6f7665206160448201527f2043414b0000000000000000000000000000000000000000000000000000000060648201526084016105b4565b61199a565b6119287fa75205b8583660bdad375c0ccde11af17668d76a408a9a5e739251b0f7c598706110906111fe565b61199a5760405162461bcd60e51b815260206004820152602360248201527f43616c6c6572206d7573742062652043414b20746f2072656d6f76652061207260448201527f6f6c65000000000000000000000000000000000000000000000000000000000060648201526084016105b4565b61119c8282612114565b60006001600160a01b0384166119e6576040517f68551d5f00000000000000000000000000000000000000000000000000000000815260040160405180910390fd5b6001600160a01b038316611a26576040517f8289914400000000000000000000000000000000000000000000000000000000815260040160405180910390fd5b611a31848484611dac565b6001600160a01b03841660009081527fbbbdc1476a0878f2ef9a893c81f5b6f6ea1b3acaf18ff47ccb69cd4267d50c86602081905260409091205480841115611aa6576040517f7183160b00000000000000000000000000000000000000000000000000000000815260040160405180910390fd5b6001600160a01b03808716600090815260208490526040808220878503905591871681529081208054869290611add908490612cc5565b92505081905550846001600160a01b0316866001600160a01b03167fddf252ad1be2c89b69c2b068fc378daa952ba7f163c4a11628f55a4df523b3ef86604051611b2991815260200190565b60405180910390a350600195945050505050565b60007f3ab46f175c5f1d1c97765e87ec0d68e6241fafc1b077d060ce0c29744cd3616d81611b6a84612198565b600090815260209290925250604090205460ff1692915050565b611b8e828261160c565b61119c57611ba4816001600160a01b03166121c9565b611baf8360206121db565b604051602001611bc0929190612cd8565b60408051601f198184030181529082905262461bcd60e51b82526105b491600401612961565b60008281527f2e59e4c2e927cdddbb64e181e0668d9a0fa70dd88f94d999cd87d5496a20da6260205260409020611c1d908261238c565b50611c266111fe565b6001600160a01b0316816001600160a01b0316837f2f8788117e7eff1d82e926ec794901d17c78024a50270940304540a733656f0d60405160405180910390a45050565b60008083600003611ca7576040517f6e6ae24700000000000000000000000000000000000000000000000000000000815260040160405180910390fd5b7fcd7a55ef023eb5931cc022a9bdc64cb5b46c3a6e53bcaa84915eea6084f1c7b7547fcd7a55ef023eb5931cc022a9bdc64cb5b46c3a6e53bcaa84915eea6084f1c7b490851115611d24576040517f3609372a00000000000000000000000000000000000000000000000000000000815260040160405180910390fd5b6000611d3085876123a1565b85549091508103611d4957600080935093505050611d72565b6001856001018281548110611d6057611d60612c96565b90600052602060002001549350935050505b9250929050565b600080546001600160a01b031633148015611d95575060143610155b15611da7575060131936013560601c90565b503390565b60037fe02854d75ca0f6b56099fb1e1546a75ef76f441f4e6082f2e3cbb1e8dc5591a05460ff166004811115611de457611de4612b49565b03611e315760405162461bcd60e51b815260206004820152601660248201527f74686520526567697374657220697320636c6f7365640000000000000000000060448201526064016105b4565b7f95d8298a3d25370298f52eb5e4c2caa68ca2492c02741ad9ada9443a021d7590547f95d8298a3d25370298f52eb5e4c2caa68ca2492c02741ad9ada9443a021d758d9060ff1615611e8e5760038101805460ff19169055611fa9565b8054611f285760405162461bcd60e51b815260206004820152604f60248201527f746865207265676973746572206973206c6f636b65642062656361757365206e60448201527f6f20636f75706f6e206973207072657061726564206f7220746865206d61747560648201527f7269747920697320726561636865640000000000000000000000000000000000608482015260a4016105b4565b80544210611fa9576000816001015411611fa95760405162461bcd60e51b8152602060048201526024808201527f746865206d61747572697479206375742d6f66662074696d652068617320706160448201527f737365640000000000000000000000000000000000000000000000000000000060648201526084016105b4565b611fb161244d565b50611fbd848484612545565b50505050565b6000610564838361258d565b6001600160a01b03811660009081526001830160205260408120541515610564565b6001600160a01b038216612031576040517fda007acd00000000000000000000000000000000000000000000000000000000815260040160405180910390fd5b61203d60008383611dac565b7fbbbdc1476a0878f2ef9a893c81f5b6f6ea1b3acaf18ff47ccb69cd4267d50c8880547fbbbdc1476a0878f2ef9a893c81f5b6f6ea1b3acaf18ff47ccb69cd4267d50c86918391600090612092908490612cc5565b90915550506001600160a01b038316600090815260208290526040812080548492906120bf908490612cc5565b90915550506040518281526001600160a01b038416906000907fddf252ad1be2c89b69c2b068fc378daa952ba7f163c4a11628f55a4df523b3ef9060200160405180910390a3505050565b6000610567825490565b60008281527f2e59e4c2e927cdddbb64e181e0668d9a0fa70dd88f94d999cd87d5496a20da626020526040902061214b90826125f2565b506121546111fe565b6001600160a01b0316816001600160a01b0316837ff6391f5c32d9c69d2a47ea670b442974b53935d1edc7fd64eb21e047a839171b60405160405180910390a45050565b60408051603f833b908101601f19168201909252818152600091808360208401863c50805160209091012092915050565b60606105676001600160a01b03831660145b606060006121ea836002612d59565b6121f5906002612cc5565b67ffffffffffffffff81111561220d5761220d612c80565b6040519080825280601f01601f191660200182016040528015612237576020820181803683370190505b5090507f30000000000000000000000000000000000000000000000000000000000000008160008151811061226e5761226e612c96565b60200101906001600160f81b031916908160001a9053507f7800000000000000000000000000000000000000000000000000000000000000816001815181106122b9576122b9612c96565b60200101906001600160f81b031916908160001a905350600160028402015b6001811115612353577f303132333435363738396162636465660000000000000000000000000000000085600f166010811061231657612316612c96565b1a60f81b82828151811061232c5761232c612c96565b60200101906001600160f81b031916908160001a90535060049490941c93600019016122d8565b508315610564576040517fc913478500000000000000000000000000000000000000000000000000000000815260040160405180910390fd5b6000610564836001600160a01b038416612607565b815460009081036123b457506000610567565b82546000905b8082101561240957600081831682841860011c019050848682815481106123e3576123e3612c96565b906000526020600020015411156123fc57809150612403565b8060010192505b506123ba565b60008211801561243757508385600184038154811061242a5761242a612c96565b9060005260206000200154145b61244157816113d5565b50600019019392505050565b7f95d8298a3d25370298f52eb5e4c2caa68ca2492c02741ad9ada9443a021d758d80546000919015801590612495575060028101546000908152600482016020526040902054155b80156124a2575080544210155b1561253d5760006124b161264a565b60028301546000908152600484016020526040902081905560018301549091506124dc5760006124ee565b6124ee826001015483600001546126e0565b8083556124fc9060006126e0565b6002830181905560018301548354604051919290917f4d1d74d5cbfc13e02ef05af3a30d8721e87a00d20bc3dc42198917139944def390600090a492915050565b600091505090565b6001600160a01b0383166125645761255c82612717565b610678612788565b6001600160a01b03821661257b5761255c83612717565b61258482612717565b61067883612717565b815460009082106125ca576040517fe637bf3b00000000000000000000000000000000000000000000000000000000815260040160405180910390fd5b8260000182815481106125df576125df612c96565b9060005260206000200154905092915050565b6000610564836001600160a01b0384166127d6565b6000818152600183016020526040812054610567575081546001808201845560008481526020808220909301849055845493815293810190915260409092205590565b7fcd7a55ef023eb5931cc022a9bdc64cb5b46c3a6e53bcaa84915eea6084f1c7b780546000917fcd7a55ef023eb5931cc022a9bdc64cb5b46c3a6e53bcaa84915eea6084f1c7b491908361269d83612cac565b909155505060038101546040518181527f8030e83b04d87bef53480e26263266d6ca66863aa8506aca6f2559d18aa1cb679060200160405180910390a192915050565b6000806126f06201518085612d70565b90506126fc8185612c6d565b915061270b6201518084612d70565b90506107548183612cc5565b6001600160a01b03811660009081527fcd7a55ef023eb5931cc022a9bdc64cb5b46c3a6e53bcaa84915eea6084f1c7b4602090815260408083207fbbbdc1476a0878f2ef9a893c81f5b6f6ea1b3acaf18ff47ccb69cd4267d50c8690925290912054610794919061289b565b61289b565b6127d47fcd7a55ef023eb5931cc022a9bdc64cb5b46c3a6e53bcaa84915eea6084f1c7b56127837fbbbdc1476a0878f2ef9a893c81f5b6f6ea1b3acaf18ff47ccb69cd4267d50c885490565b565b600081815260018301602052604081205480156128945783546000908590600019810190811061280857612808612c96565b906000526020600020015490508085600001600184038154811061282e5761282e612c96565b600091825260208083209091019290925591825260018601905260409020819055835484908061286057612860612d92565b6001900381819060005260206000200160009055905583600101600084815260200190815260200160002060009055600191505b5092915050565b7fcd7a55ef023eb5931cc022a9bdc64cb5b46c3a6e53bcaa84915eea6084f1c7b754806128c7846128fb565b1015610678578254600180820185556000858152602080822090930193909355938401805494850181558252902090910155565b805460009015612935578154829061291590600190612c6d565b8154811061292557612925612c96565b9060005260206000200154610567565b600092915050565b60005b83811015612958578181015183820152602001612940565b50506000910152565b602081526000825180602084015261298081604085016020870161293d565b601f01601f19169190910160400192915050565b80356001600160a01b03811681146129ab57600080fd5b919050565b600080604083850312156129c357600080fd5b6129cc83612994565b946020939093013593505050565b6000806000606084860312156129ef57600080fd5b6129f884612994565b9250612a0660208501612994565b9150604084013590509250925092565b600060208284031215612a2857600080fd5b5035919050565b60008060408385031215612a4257600080fd5b82359150612a5260208401612994565b90509250929050565b600060208284031215612a6d57600080fd5b61056482612994565b6020808252825182820181905260009190848201906040850190845b81811015612ab75783516001600160a01b031683529284019291840191600101612a92565b50909695505050505050565b60008060408385031215612ad657600080fd5b50508035926020909101359150565b60008060408385031215612af857600080fd5b612b0183612994565b9150612a5260208401612994565b600181811c90821680612b2357607f821691505b602082108103612b4357634e487b7160e01b600052602260045260246000fd5b50919050565b634e487b7160e01b600052602160045260246000fd5b8054600090600181811c9080831680612b7957607f831692505b60208084108203612b9a57634e487b7160e01b600052602260045260246000fd5b83885260208801828015612bb55760018114612bcb57612bf6565b60ff198716825285151560051b82019750612bf6565b60008981526020902060005b87811015612bf057815484820152908601908401612bd7565b83019850505b5050505050505092915050565b606081526000612c166060830186612b5f565b8281036020840152612c288186612b5f565b91505060058310612c4957634e487b7160e01b600052602160045260246000fd5b826040830152949350505050565b634e487b7160e01b600052601160045260246000fd5b8181038181111561056757610567612c57565b634e487b7160e01b600052604160045260246000fd5b634e487b7160e01b600052603260045260246000fd5b600060018201612cbe57612cbe612c57565b5060010190565b8082018082111561056757610567612c57565b7f416363657373436f6e74726f6c3a206163636f756e7420000000000000000000815260008351612d1081601785016020880161293d565b7f206973206d697373696e6720726f6c65200000000000000000000000000000006017918401918201528351612d4d81602884016020880161293d565b01602801949350505050565b808202811582820484141761056757610567612c57565b600082612d8d57634e487b7160e01b600052601260045260246000fd5b500690565b634e487b7160e01b600052603160045260246000fdfea26469706673582212206dbe4fb3dcf39d64ab2ea40b9faf7f2511318adf15674b80acba6372b057e1c364736f6c63430008140033",
  "linkReferences": {},
  "deployedLinkReferences": {}
}