{
  "_format": "hh-sol-artifact-1",
  "contractName": "BinaryHeapAddressMock",
  "sourceName": "contracts/data/BinaryHeapAddressMock.sol",
  "abi": [
    {
      "inputs": [
        {
          "internalType": "address",
          "name": "value",
          "type": "address"
        }
      ],
      "name": "add",
      "outputs": [
        {
          "internalType": "bool",
          "name": "",
          "type": "bool"
        }
      ],
      "stateMutability": "nonpayable",
      "type": "function"
    },
    {
      "inputs": [
        {
          "internalType": "uint256",
          "name": "index",
          "type": "uint256"
        }
      ],
      "name": "at",
      "outputs": [
        {
          "internalType": "address",
          "name": "",
          "type": "address"
        }
      ],
      "stateMutability": "view",
      "type": "function"
    },
    {
      "inputs": [
        {
          "internalType": "address",
          "name": "value",
          "type": "address"
        }
      ],
      "name": "contains",
      "outputs": [
        {
          "internalType": "bool",
          "name": "",
          "type": "bool"
        }
      ],
      "stateMutability": "view",
      "type": "function"
    },
    {
      "inputs": [
        {
          "internalType": "address",
          "name": "value",
          "type": "address"
        }
      ],
      "name": "indexOf",
      "outputs": [
        {
          "internalType": "uint256",
          "name": "",
          "type": "uint256"
        }
      ],
      "stateMutability": "view",
      "type": "function"
    },
    {
      "inputs": [],
      "name": "length",
      "outputs": [
        {
          "internalType": "uint256",
          "name": "",
          "type": "uint256"
        }
      ],
      "stateMutability": "view",
      "type": "function"
    },
    {
      "inputs": [
        {
          "internalType": "address",
          "name": "value",
          "type": "address"
        }
      ],
      "name": "remove",
      "outputs": [
        {
          "internalType": "bool",
          "name": "",
          "type": "bool"
        }
      ],
      "stateMutability": "nonpayable",
      "type": "function"
    },
    {
      "inputs": [],
      "name": "root",
      "outputs": [
        {
          "internalType": "address",
          "name": "",
          "type": "address"
        }
      ],
      "stateMutability": "view",
      "type": "function"
    },
    {
      "inputs": [],
      "name": "toArray",
      "outputs": [
        {
          "internalType": "address[]",
          "name": "",
          "type": "address[]"
        }
      ],
      "stateMutability": "view",
      "type": "function"
    }
  ],
  "bytecode": "0x608060405234801561001057600080fd5b50610671806100206000396000f3fe608060405234801561001057600080fd5b50600436106100885760003560e01c8063908ff3031161005b578063908ff303146100f1578063e0886f9014610106578063ebf0c71714610131578063fd6aad251461013957600080fd5b80630a3b0a4f1461008d5780631f7b6d32146100b557806329092d0e146100cb5780635dbe47e8146100de575b600080fd5b6100a061009b366004610580565b61014c565b60405190151581526020015b60405180910390f35b6100bd61015e565b6040519081526020016100ac565b6100a06100d9366004610580565b61016f565b6100a06100ec366004610580565b61017b565b6100f9610187565b6040516100ac91906105a9565b6101196101143660046105f6565b610193565b6040516001600160a01b0390911681526020016100ac565b61011961019f565b6100bd610147366004610580565b6101ab565b600061015881836101b7565b92915050565b600061016a60006101d3565b905090565b600061015881836101dd565b600061015881836101f2565b606061016a6000610214565b6000610158818361027a565b600061016a6000610286565b60006101588183610291565b60006101cc836001600160a01b0384166102b5565b9392505050565b6000610158825490565b60006101cc836001600160a01b038416610304565b6001600160a01b038116600090815260018301602052604081205415156101cc565b8054604080516020808402820181019092528281526060928492839291839183018282801561026c57602002820191906000526020600020905b81546001600160a01b0316815260019091019060200180831161024e575b505050505092505050919050565b60006101cc8383610393565b6000610158826103bd565b6001600160a01b0381166000908152600183016020526040812054600019016101cc565b600081815260018301602052604081205461015857825460018101845560008481526020902001829055825460008381526001850160205260409020556102fb836103ca565b50600192915050565b60008181526001830160205260408120541561015857600082815260018401602052604081205460001901905061034684826001610340885490565b036103fa565b83548490806103575761035761060f565b6000828152602080822083016000199081018390559092019092558482526001860190526040812055610389846103ca565b5060019392505050565b60008260000182815481106103aa576103aa610625565b9060005260206000200154905092915050565b6000610158826000610393565b60006103d4825490565b9050600281045b80156103f557600019016103f08383836104b0565b6103db565b505050565b8254839060009082908590811061041357610413610625565b90600052602060002001549050600082848154811061043457610434610625565b90600052602060002001549050808284878154811061045557610455610625565b90600052602060002001600086888154811061047357610473610625565b6000918252602080832090910194909455939091555082825260019097019096526040808720805493885290872080549290975255909355505050565b8083600182811b8117908101858210801561050257508282815481106104d8576104d8610625565b90600052602060002001548385815481106104f5576104f5610625565b9060005260206000200154105b1561050b578193505b8581108015610551575082818154811061052757610527610625565b906000526020600020015483858154811061054457610544610625565b9060005260206000200154105b1561055a578093505b50508282146105795761056e8584846103fa565b6105798585846104b0565b5050505050565b60006020828403121561059257600080fd5b81356001600160a01b03811681146101cc57600080fd5b6020808252825182820181905260009190848201906040850190845b818110156105ea5783516001600160a01b0316835292840192918401916001016105c5565b50909695505050505050565b60006020828403121561060857600080fd5b5035919050565b634e487b7160e01b600052603160045260246000fd5b634e487b7160e01b600052603260045260246000fdfea264697066735822122012bc7237b705d2640a7d1076bce129521a701510123225d82a5d0497215c5af764736f6c63430008140033",
  "linkReferences": {},
  "deployedLinkReferences": {}
}