{
  "_format": "hh-sol-artifact-1",
  "contractName": "MulticallMock",
  "sourceName": "contracts/utils/MulticallMock.sol",
  "abi": [
    {
      "inputs": [],
      "name": "callRevertTest",
      "outputs": [],
      "stateMutability": "pure",
      "type": "function"
    },
    {
      "inputs": [],
      "name": "callTest",
      "outputs": [
        {
          "internalType": "uint256",
          "name": "",
          "type": "uint256"
        }
      ],
      "stateMutability": "pure",
      "type": "function"
    },
    {
      "inputs": [
        {
          "internalType": "bytes[]",
          "name": "data",
          "type": "bytes[]"
        }
      ],
      "name": "multicall",
      "outputs": [
        {
          "internalType": "bytes[]",
          "name": "results",
          "type": "bytes[]"
        }
      ],
      "stateMutability": "nonpayable",
      "type": "function"
    }
  ],
  "bytecode": "0x608060405234801561001057600080fd5b506103cc806100206000396000f3fe608060405234801561001057600080fd5b50600436106100415760003560e01c806321615e9c146100465780633c6768451461005a578063ac9650d814610064575b600080fd5b604051600181526020015b60405180910390f35b610062610084565b005b610077610072366004610205565b6100ea565b604051610051919061027a565b6040517f08c379a000000000000000000000000000000000000000000000000000000000815260206004820152600660248201527f7265766572740000000000000000000000000000000000000000000000000000604482015260640160405180910390fd5b60608167ffffffffffffffff8111156101055761010561030c565b60405190808252806020026020018201604052801561013857816020015b60608152602001906001900390816101235790505b50905060005b828110156101fe576000803086868581811061015c5761015c610322565b905060200281019061016e9190610338565b60405161017c929190610386565b600060405180830381855af49150503d80600081146101b7576040519150601f19603f3d011682016040523d82523d6000602084013e6101bc565b606091505b509150915081156101ea57808484815181106101da576101da610322565b60200260200101819052506101f4565b3d6000803e3d6000fd5b505060010161013e565b5092915050565b6000806020838503121561021857600080fd5b823567ffffffffffffffff8082111561023057600080fd5b818501915085601f83011261024457600080fd5b81358181111561025357600080fd5b8660208260051b850101111561026857600080fd5b60209290920196919550909350505050565b6000602080830181845280855180835260408601915060408160051b87010192508387016000805b838110156102fe57888603603f1901855282518051808852835b818110156102d7578281018a01518982018b015289016102bc565b508781018901849052601f01601f19169096018701955093860193918601916001016102a2565b509398975050505050505050565b634e487b7160e01b600052604160045260246000fd5b634e487b7160e01b600052603260045260246000fd5b6000808335601e1984360301811261034f57600080fd5b83018035915067ffffffffffffffff82111561036a57600080fd5b60200191503681900382131561037f57600080fd5b9250929050565b818382376000910190815291905056fea2646970667358221220305e6069c3a390f52d402a4fa944b83f6b340d3f28e079d3d8b033f2a08fa8ab64736f6c63430008140033",
  "linkReferences": {},
  "deployedLinkReferences": {}
}