{
  "_format": "hh-sol-artifact-1",
  "contractName": "IncrementalMerkleTreeMock",
  "sourceName": "contracts/data/IncrementalMerkleTreeMock.sol",
  "abi": [
    {
      "inputs": [
        {
          "internalType": "uint256",
          "name": "index",
          "type": "uint256"
        }
      ],
      "name": "at",
      "outputs": [
        {
          "internalType": "bytes32",
          "name": "",
          "type": "bytes32"
        }
      ],
      "stateMutability": "view",
      "type": "function"
    },
    {
      "inputs": [],
      "name": "height",
      "outputs": [
        {
          "internalType": "uint256",
          "name": "",
          "type": "uint256"
        }
      ],
      "stateMutability": "view",
      "type": "function"
    },
    {
      "inputs": [],
      "name": "pop",
      "outputs": [],
      "stateMutability": "nonpayable",
      "type": "function"
    },
    {
      "inputs": [
        {
          "internalType": "bytes32",
          "name": "hash",
          "type": "bytes32"
        }
      ],
      "name": "push",
      "outputs": [],
      "stateMutability": "nonpayable",
      "type": "function"
    },
    {
      "inputs": [],
      "name": "root",
      "outputs": [
        {
          "internalType": "bytes32",
          "name": "",
          "type": "bytes32"
        }
      ],
      "stateMutability": "view",
      "type": "function"
    },
    {
      "inputs": [
        {
          "internalType": "uint256",
          "name": "index",
          "type": "uint256"
        },
        {
          "internalType": "bytes32",
          "name": "hash",
          "type": "bytes32"
        }
      ],
      "name": "set",
      "outputs": [],
      "stateMutability": "nonpayable",
      "type": "function"
    },
    {
      "inputs": [],
      "name": "size",
      "outputs": [
        {
          "internalType": "uint256",
          "name": "",
          "type": "uint256"
        }
      ],
      "stateMutability": "view",
      "type": "function"
    }
  ],
  "bytecode": "0x608060405234801561001057600080fd5b50610634806100206000396000f3fe608060405234801561001057600080fd5b506004361061007d5760003560e01c8063a4ece52c1161005b578063a4ece52c146100b5578063b298e36b146100bd578063e0886f90146100d0578063ebf0c717146100e357600080fd5b80630ef267431461008257806364c4ef1a14610098578063949d225d146100ad575b600080fd5b6000545b60405190815260200160405180910390f35b6100ab6100a636600461052b565b6100f0565b005b610086610100565b6100ab61010c565b6100ab6100cb36600461054d565b610118565b6100866100de36600461054d565b610126565b610086610138565b905090565b6100fc60008383610144565b5050565b60006100eb6000610161565b610116600061019c565b565b6101236000826102e4565b50565b6000610132818361039d565b92915050565b60006100eb60006103e3565b61015c836000846001610155845490565b038561043e565b505050565b60008061016c835490565b1115610197578160000160008154811061018857610188610566565b60009182526020909120015490505b919050565b60006101a6825490565b9050600060016101b584610161565b6101bf9190610592565b90506001821b60021c810361020d57816101d8816105a5565b925050826000018054806101ee576101ee6105bc565b60019003818190600052602060002001600061020a91906104f9565b90555b6000815b838210801561023f57508085600001838154811061023157610231610566565b600091825260209091200154115b156102ac5784600001828154811061025957610259610566565b90600052602060002001805480610272576102726105bc565b600190038181906000526020600020016000905590558180610293906105d2565b9250600190506102a382826105eb565b901c9050610211565b82156102dd576102dd6102c0600185610592565b6102d56102ce600187610592565b889061039d565b879190610144565b5050505050565b60006102ee835490565b905060006102fb84610161565b9050600180831b901c810361031e57835460019081018555600085905291909101905b6000815b838210801561035157508086600001838154811061034257610342610566565b60009182526020909120015411155b1561038a5785600001828154811061036b5761036b610566565b600091825260208220018054600190810182559152918201911c610322565b610395868487610144565b505050505050565b6000826000016000815481106103b5576103b5610566565b9060005260206000200182815481106103d0576103d0610566565b9060005260206000200154905092915050565b6000806103ee835490565b905080156104385782600001600182038154811061040e5761040e610566565b9060005260206000200160008154811061042a5761042a610566565b906000526020600020015491505b50919050565b600085858154811061045257610452610566565b9060005260206000200190508181858154811061047157610471610566565b60009182526020909120015582850361048a57506102dd565b836001166001036104b957806000526001840360206000200154806000525081602052604060002091506104e5565b80546001850110156104e557806000526001840160206000200154826000528060205250604060002091505b6103958686600101600187901c868661043e565b508054600082559060005260206000209081019061012391905b808211156105275760008155600101610513565b5090565b6000806040838503121561053e57600080fd5b50508035926020909101359150565b60006020828403121561055f57600080fd5b5035919050565b634e487b7160e01b600052603260045260246000fd5b634e487b7160e01b600052601160045260246000fd5b818103818111156101325761013261057c565b6000816105b4576105b461057c565b506000190190565b634e487b7160e01b600052603160045260246000fd5b6000600182016105e4576105e461057c565b5060010190565b808201808211156101325761013261057c56fea2646970667358221220381ccce17942476ff4bec9f94bd50e0e16c0537356dee20c2e41f53b691ca98d64736f6c63430008140033",
  "linkReferences": {},
  "deployedLinkReferences": {}
}