{
  "_format": "hh-sol-artifact-1",
  "contractName": "InvestorManagement",
  "sourceName": "contracts/register/investors/InvestorManagement.sol",
  "abi": [
    {
      "inputs": [],
      "name": "EnumerableSet__IndexOutOfBounds",
      "type": "error"
    },
    {
      "inputs": [],
      "name": "UintUtils__InsufficientHexLength",
      "type": "error"
    },
    {
      "anonymous": false,
      "inputs": [
        {
          "indexed": true,
          "internalType": "address",
          "name": "_addressForNewAdmin",
          "type": "address"
        }
      ],
      "name": "AdminChanged",
      "type": "event"
    },
    {
      "anonymous": false,
      "inputs": [
        {
          "indexed": false,
          "internalType": "address",
          "name": "investor",
          "type": "address"
        }
      ],
      "name": "DisableInvestor",
      "type": "event"
    },
    {
      "anonymous": false,
      "inputs": [
        {
          "indexed": false,
          "internalType": "address",
          "name": "investor",
          "type": "address"
        }
      ],
      "name": "EnableInvestor",
      "type": "event"
    },
    {
      "anonymous": false,
      "inputs": [
        {
          "indexed": false,
          "internalType": "uint64",
          "name": "version",
          "type": "uint64"
        }
      ],
      "name": "Initialized",
      "type": "event"
    },
    {
      "anonymous": false,
      "inputs": [
        {
          "indexed": true,
          "internalType": "bytes32",
          "name": "role",
          "type": "bytes32"
        },
        {
          "indexed": true,
          "internalType": "bytes32",
          "name": "previousAdminRole",
          "type": "bytes32"
        },
        {
          "indexed": true,
          "internalType": "bytes32",
          "name": "newAdminRole",
          "type": "bytes32"
        }
      ],
      "name": "RoleAdminChanged",
      "type": "event"
    },
    {
      "anonymous": false,
      "inputs": [
        {
          "indexed": true,
          "internalType": "bytes32",
          "name": "role",
          "type": "bytes32"
        },
        {
          "indexed": true,
          "internalType": "address",
          "name": "account",
          "type": "address"
        },
        {
          "indexed": true,
          "internalType": "address",
          "name": "sender",
          "type": "address"
        }
      ],
      "name": "RoleGranted",
      "type": "event"
    },
    {
      "anonymous": false,
      "inputs": [
        {
          "indexed": true,
          "internalType": "bytes32",
          "name": "role",
          "type": "bytes32"
        },
        {
          "indexed": true,
          "internalType": "address",
          "name": "account",
          "type": "address"
        },
        {
          "indexed": true,
          "internalType": "address",
          "name": "sender",
          "type": "address"
        }
      ],
      "name": "RoleRevoked",
      "type": "event"
    },
    {
      "anonymous": false,
      "inputs": [
        {
          "indexed": true,
          "internalType": "address",
          "name": "toBeAdded",
          "type": "address"
        }
      ],
      "name": "WalletAddedToWhitelist",
      "type": "event"
    },
    {
      "anonymous": false,
      "inputs": [
        {
          "indexed": true,
          "internalType": "address",
          "name": "toBeDeleted",
          "type": "address"
        }
      ],
      "name": "WalletDeletedFromWhitelist",
      "type": "event"
    },
    {
      "inputs": [],
      "name": "BND_ROLE",
      "outputs": [
        {
          "internalType": "bytes32",
          "name": "",
          "type": "bytes32"
        }
      ],
      "stateMutability": "view",
      "type": "function"
    },
    {
      "inputs": [],
      "name": "CAK_ROLE",
      "outputs": [
        {
          "internalType": "bytes32",
          "name": "",
          "type": "bytes32"
        }
      ],
      "stateMutability": "view",
      "type": "function"
    },
    {
      "inputs": [],
      "name": "CST_ROLE",
      "outputs": [
        {
          "internalType": "bytes32",
          "name": "",
          "type": "bytes32"
        }
      ],
      "stateMutability": "view",
      "type": "function"
    },
    {
      "inputs": [],
      "name": "PAY_ROLE",
      "outputs": [
        {
          "internalType": "bytes32",
          "name": "",
          "type": "bytes32"
        }
      ],
      "stateMutability": "view",
      "type": "function"
    },
    {
      "inputs": [
        {
          "internalType": "address",
          "name": "investor_",
          "type": "address"
        }
      ],
      "name": "disableInvestorFromWhitelist",
      "outputs": [],
      "stateMutability": "nonpayable",
      "type": "function"
    },
    {
      "inputs": [
        {
          "internalType": "address",
          "name": "investor_",
          "type": "address"
        }
      ],
      "name": "enableInvestorToWhitelist",
      "outputs": [],
      "stateMutability": "nonpayable",
      "type": "function"
    },
    {
      "inputs": [],
      "name": "getAllInvestors",
      "outputs": [
        {
          "internalType": "address[]",
          "name": "",
          "type": "address[]"
        }
      ],
      "stateMutability": "view",
      "type": "function"
    },
    {
      "inputs": [
        {
          "internalType": "bytes32",
          "name": "role",
          "type": "bytes32"
        }
      ],
      "name": "getRoleAdmin",
      "outputs": [
        {
          "internalType": "bytes32",
          "name": "",
          "type": "bytes32"
        }
      ],
      "stateMutability": "view",
      "type": "function"
    },
    {
      "inputs": [
        {
          "internalType": "bytes32",
          "name": "role",
          "type": "bytes32"
        },
        {
          "internalType": "uint256",
          "name": "index",
          "type": "uint256"
        }
      ],
      "name": "getRoleMember",
      "outputs": [
        {
          "internalType": "address",
          "name": "",
          "type": "address"
        }
      ],
      "stateMutability": "view",
      "type": "function"
    },
    {
      "inputs": [
        {
          "internalType": "bytes32",
          "name": "role",
          "type": "bytes32"
        }
      ],
      "name": "getRoleMemberCount",
      "outputs": [
        {
          "internalType": "uint256",
          "name": "",
          "type": "uint256"
        }
      ],
      "stateMutability": "view",
      "type": "function"
    },
    {
      "inputs": [
        {
          "internalType": "bytes32",
          "name": "role",
          "type": "bytes32"
        },
        {
          "internalType": "address",
          "name": "account",
          "type": "address"
        }
      ],
      "name": "grantRole",
      "outputs": [],
      "stateMutability": "nonpayable",
      "type": "function"
    },
    {
      "inputs": [
        {
          "internalType": "bytes32",
          "name": "role",
          "type": "bytes32"
        },
        {
          "internalType": "address",
          "name": "account",
          "type": "address"
        }
      ],
      "name": "hasRole",
      "outputs": [
        {
          "internalType": "bool",
          "name": "",
          "type": "bool"
        }
      ],
      "stateMutability": "view",
      "type": "function"
    },
    {
      "inputs": [
        {
          "internalType": "address",
          "name": "investor",
          "type": "address"
        }
      ],
      "name": "investorCustodian",
      "outputs": [
        {
          "internalType": "address",
          "name": "",
          "type": "address"
        }
      ],
      "stateMutability": "view",
      "type": "function"
    },
    {
      "inputs": [
        {
          "internalType": "address",
          "name": "investor",
          "type": "address"
        }
      ],
      "name": "investorsAllowed",
      "outputs": [
        {
          "internalType": "bool",
          "name": "",
          "type": "bool"
        }
      ],
      "stateMutability": "view",
      "type": "function"
    },
    {
      "inputs": [
        {
          "internalType": "bytes32",
          "name": "role",
          "type": "bytes32"
        }
      ],
      "name": "renounceRole",
      "outputs": [],
      "stateMutability": "nonpayable",
      "type": "function"
    },
    {
      "inputs": [
        {
          "internalType": "bytes32",
          "name": "role",
          "type": "bytes32"
        },
        {
          "internalType": "address",
          "name": "account",
          "type": "address"
        }
      ],
      "name": "revokeRole",
      "outputs": [],
      "stateMutability": "nonpayable",
      "type": "function"
    }
  ],
  "bytecode": "0x608060405234801561001057600080fd5b50611742806100206000396000f3fe608060405234801561001057600080fd5b50600436106101005760003560e01c80639010d07c11610097578063d0a2f2c411610066578063d0a2f2c414610276578063d1ec6de81461028b578063d547741f1461029e578063d5c0beeb146102b157600080fd5b80639010d07c1461021a57806391d148541461022d578063c41251a114610250578063ca15c8731461026357600080fd5b80633bf2a9f4116100d35780633bf2a9f41461018e5780638865f1e2146101b55780638bb9c5bf146101dc5780638f92f490146101ef57600080fd5b80631c67a36314610105578063248a9ca31461013f5780632682ac91146101525780632f2ff15d14610179575b600080fd5b61012c7f6ba6f588bcdc2df8426603a466c98ab15e79f7fb7f37b53581ce39c1d01b724981565b6040519081526020015b60405180910390f35b61012c61014d3660046114c7565b6102c4565b61012c7ff698af62c65280e4949bceec64b760f3b7738217cbc536cdfc4c9463676b05c281565b61018c6101873660046114fc565b6102fc565b005b61012c7fd7aa2ddfa4e381128202bf365b7e0a176f2fca6cdf2f23c2b0a6f4393769589081565b61012c7fa75205b8583660bdad375c0ccde11af17668d76a408a9a5e739251b0f7c5987081565b61018c6101ea3660046114c7565b610345565b6102026101fd366004611528565b610351565b6040516001600160a01b039091168152602001610136565b610202610228366004611543565b610395565b61024061023b3660046114fc565b6103a8565b6040519015158152602001610136565b61024061025e366004611528565b6103b4565b61012c6102713660046114c7565b6103fb565b61027e610406565b6040516101369190611565565b61018c610299366004611528565b610415565b61018c6102ac3660046114fc565b61041e565b61018c6102bf366004611528565b610462565b60008181527f2e59e4c2e927cdddbb64e181e0668d9a0fa70dd88f94d999cd87d5496a20da6260205260408120600201545b92915050565b60008281527f2e59e4c2e927cdddbb64e181e0668d9a0fa70dd88f94d999cd87d5496a20da6260205260409020600201546103368161046b565b6103408383610475565b505050565b61034e81610630565b50565b6001600160a01b0380821660009081527f332cf6b129284e49df93f4be38bb1959bb5fa7d7d0ce3d4ad668f566f35f6fd560205260408120600201549091166102f6565b60006103a1838361063a565b9392505050565b60006103a18383610671565b6001600160a01b03811660009081527f332cf6b129284e49df93f4be38bb1959bb5fa7d7d0ce3d4ad668f566f35f6fd56020526040812054600160a01b900460ff166102f6565b60006102f6826106a8565b60606104106106de565b905090565b61034e81610762565b60008281527f2e59e4c2e927cdddbb64e181e0668d9a0fa70dd88f94d999cd87d5496a20da6260205260409020600201546104588161046b565b6103408383610928565b61034e81610acf565b61034e8133610d60565b816104d85760405162461bcd60e51b8152602060048201526024808201527f5573652066756e6374696f6e206368616e676541646d696e526f6c6520696e736044820152631d19585960e21b60648201526084015b60405180910390fd5b610622565b7fa75205b8583660bdad375c0ccde11af17668d76a408a9a5e739251b0f7c5987082036105ac576105297fa75205b8583660bdad375c0ccde11af17668d76a408a9a5e739251b0f7c5987033610671565b8061053a575061053a600033610671565b6104d35760405162461bcd60e51b815260206004820152602e60248201527f43616c6c6572206d7573742062652043414b206f722041444d494e20746f207360448201527f657420616e6f746865722043414b00000000000000000000000000000000000060648201526084016104ca565b6105d67fa75205b8583660bdad375c0ccde11af17668d76a408a9a5e739251b0f7c5987033610671565b6106225760405162461bcd60e51b815260206004820181905260248201527f43616c6c6572206d7573742062652043414b20746f20736574206120726f6c6560448201526064016104ca565b61062c8282610dc2565b5050565b61034e8133610928565b60008281527f2e59e4c2e927cdddbb64e181e0668d9a0fa70dd88f94d999cd87d5496a20da62602052604081206103a19083610e36565b60008281527f2e59e4c2e927cdddbb64e181e0668d9a0fa70dd88f94d999cd87d5496a20da62602052604081206103a19083610e42565b60008181527f2e59e4c2e927cdddbb64e181e0668d9a0fa70dd88f94d999cd87d5496a20da62602052604081206102f690610e64565b606060007f332cf6b129284e49df93f4be38bb1959bb5fa7d7d0ce3d4ad668f566f35f6fd480546040805160208084028201810190925282815292935083919083018282801561075757602002820191906000526020600020905b81546001600160a01b03168152600190910190602001808311610739575b505050505091505090565b7f332cf6b129284e49df93f4be38bb1959bb5fa7d7d0ce3d4ad668f566f35f6fd46001600160a01b0382166107d95760405162461bcd60e51b815260206004820152601f60248201527f696e766573746f7220616464726573732063616e6e6f74206265207a65726f0060448201526064016104ca565b6001600160a01b03828116600090815260018301602052604090206002015416156108247fa75205b8583660bdad375c0ccde11af17668d76a408a9a5e739251b0f7c5987033610671565b156108a85780156108775760405162461bcd60e51b815260206004820152601d60248201527f696e766573746f72206d7573742062652073657420757020666972737400000060448201526064016104ca565b506001600160a01b03909116600090815260019190910160205260409020805460ff60a01b1916600160a01b179055565b6108d27f6ba6f588bcdc2df8426603a466c98ab15e79f7fb7f37b53581ce39c1d01b724933610671565b61091e5760405162461bcd60e51b815260206004820152601260248201527f43616c6c6572206d75737420626520435354000000000000000000000000000060448201526064016104ca565b6103408333610e6e565b816109815760405162461bcd60e51b8152602060048201526024808201527f5573652066756e6374696f6e206368616e676541646d696e526f6c6520696e736044820152631d19585960e21b60648201526084016104ca565b7fa75205b8583660bdad375c0ccde11af17668d76a408a9a5e739251b0f7c598708203610a29576109b3600033610671565b610a245760405162461bcd60e51b8152602060048201526024808201527f43616c6c6572206d7573742062652041444d494e20746f2072656d6f7665206160448201527f2043414b0000000000000000000000000000000000000000000000000000000060648201526084016104ca565b610ac5565b610a537fa75205b8583660bdad375c0ccde11af17668d76a408a9a5e739251b0f7c5987033610671565b610ac55760405162461bcd60e51b815260206004820152602360248201527f43616c6c6572206d7573742062652043414b20746f2072656d6f76652061207260448201527f6f6c65000000000000000000000000000000000000000000000000000000000060648201526084016104ca565b61062c82826110f9565b7f332cf6b129284e49df93f4be38bb1959bb5fa7d7d0ce3d4ad668f566f35f6fd46001600160a01b038216610b465760405162461bcd60e51b815260206004820152601f60248201527f696e766573746f7220616464726573732063616e6e6f74206265207a65726f0060448201526064016104ca565b610b707fa75205b8583660bdad375c0ccde11af17668d76a408a9a5e739251b0f7c5987033610671565b15610c0a576001600160a01b03828116600090815260018301602052604090206002015416610be15760405162461bcd60e51b815260206004820152601d60248201527f696e766573746f72206d7573742062652073657420757020666972737400000060448201526064016104ca565b6001600160a01b039091166000908152600190910160205260409020805460ff60a01b19169055565b610c347f6ba6f588bcdc2df8426603a466c98ab15e79f7fb7f37b53581ce39c1d01b724933610671565b610c805760405162461bcd60e51b815260206004820152601260248201527f43616c6c6572206d75737420626520435354000000000000000000000000000060448201526064016104ca565b6001600160a01b038281166000908152600183016020526040902060020154163314610d035760405162461bcd60e51b815260206004820152602c60248201527f6f6e6c792074686520637573746f6469616e2063616e20646973616c6c6f772060448201526b3a34329034b73b32b9ba37b960a11b60648201526084016104ca565b6001600160a01b0382166000818152600183016020908152604091829020805460ff60a01b1916905590519182527ffeae65559f65b7c3f804001ac3371fbb83cf05e8344bc2b66588084bfe9250a8910160405180910390a15050565b610d6a8282610671565b61062c57610d80816001600160a01b031661116d565b610d8b83602061117f565b604051602001610d9c9291906115d6565b60408051601f198184030181529082905262461bcd60e51b82526104ca91600401611657565b60008281527f2e59e4c2e927cdddbb64e181e0668d9a0fa70dd88f94d999cd87d5496a20da6260205260409020610df99082611330565b5060405133906001600160a01b0383169084907f2f8788117e7eff1d82e926ec794901d17c78024a50270940304540a733656f0d90600090a45050565b60006103a18383611345565b6001600160a01b038116600090815260018301602052604081205415156103a1565b60006102f6825490565b7f332cf6b129284e49df93f4be38bb1959bb5fa7d7d0ce3d4ad668f566f35f6fd4610ed7836001600160a01b031660009081527f332cf6b129284e49df93f4be38bb1959bb5fa7d7d0ce3d4ad668f566f35f6fd56020526040902054600160a01b900460ff1690565b15610ee157505050565b6001600160a01b03838116600090815260018301602052604090206002015416158015611005577f332cf6b129284e49df93f4be38bb1959bb5fa7d7d0ce3d4ad668f566f35f6fd4805460018082019092557f3b5a704516de56a4fa30eb29b0bf899a47de4e07d715ffde30cee9d593da4416810180547fffffffffffffffffffffffff00000000000000000000000000000000000000009081166001600160a01b0389811691821790935560008181527f332cf6b129284e49df93f4be38bb1959bb5fa7d7d0ce3d4ad668f566f35f6fd5602052604090209485019390935583546002850180549092169288169290921790557fffffffffffffffffffffff0000000000000000000000000000000000000000001617600160a01b1790556110b7565b6001600160a01b03848116600090815260018401602052604090206002015481169084161461108b5760405162461bcd60e51b815260206004820152602c60248201527f6f6e6c792074686520637573746f6469616e2063616e20646973616c6c6f772060448201526b3a34329034b73b32b9ba37b960a11b60648201526084016104ca565b6001600160a01b03841660009081526001830160205260409020805460ff60a01b1916600160a01b1790555b6040516001600160a01b03851681527ff96a35a7272aecca4e6ac04b9ecbc33e3c2655f1fa104a4604d8f50370e6beb39060200160405180910390a150505050565b60008281527f2e59e4c2e927cdddbb64e181e0668d9a0fa70dd88f94d999cd87d5496a20da626020526040902061113090826113aa565b5060405133906001600160a01b0383169084907ff6391f5c32d9c69d2a47ea670b442974b53935d1edc7fd64eb21e047a839171b90600090a45050565b60606102f66001600160a01b03831660145b6060600061118e8360026116a0565b6111999060026116b7565b67ffffffffffffffff8111156111b1576111b16116ca565b6040519080825280601f01601f1916602001820160405280156111db576020820181803683370190505b5090507f300000000000000000000000000000000000000000000000000000000000000081600081518110611212576112126116e0565b60200101906001600160f81b031916908160001a9053507f78000000000000000000000000000000000000000000000000000000000000008160018151811061125d5761125d6116e0565b60200101906001600160f81b031916908160001a905350600160028402015b60018111156112f7577f303132333435363738396162636465660000000000000000000000000000000085600f16601081106112ba576112ba6116e0565b1a60f81b8282815181106112d0576112d06116e0565b60200101906001600160f81b031916908160001a90535060049490941c936000190161127c565b5083156103a1576040517fc913478500000000000000000000000000000000000000000000000000000000815260040160405180910390fd5b60006103a1836001600160a01b0384166113bf565b81546000908210611382576040517fe637bf3b00000000000000000000000000000000000000000000000000000000815260040160405180910390fd5b826000018281548110611397576113976116e0565b9060005260206000200154905092915050565b60006103a1836001600160a01b038416611402565b60008181526001830160205260408120546102f6575081546001808201845560008481526020808220909301849055845493815293810190915260409092205590565b600081815260018301602052604081205480156114c057835460009085906000198101908110611434576114346116e0565b906000526020600020015490508085600001600184038154811061145a5761145a6116e0565b600091825260208083209091019290925591825260018601905260409020819055835484908061148c5761148c6116f6565b6001900381819060005260206000200160009055905583600101600084815260200190815260200160002060009055600191505b5092915050565b6000602082840312156114d957600080fd5b5035919050565b80356001600160a01b03811681146114f757600080fd5b919050565b6000806040838503121561150f57600080fd5b8235915061151f602084016114e0565b90509250929050565b60006020828403121561153a57600080fd5b6103a1826114e0565b6000806040838503121561155657600080fd5b50508035926020909101359150565b6020808252825182820181905260009190848201906040850190845b818110156115a65783516001600160a01b031683529284019291840191600101611581565b50909695505050505050565b60005b838110156115cd5781810151838201526020016115b5565b50506000910152565b7f416363657373436f6e74726f6c3a206163636f756e742000000000000000000081526000835161160e8160178501602088016115b2565b7f206973206d697373696e6720726f6c6520000000000000000000000000000000601791840191820152835161164b8160288401602088016115b2565b01602801949350505050565b60208152600082518060208401526116768160408501602087016115b2565b601f01601f19169190910160400192915050565b634e487b7160e01b600052601160045260246000fd5b80820281158282048414176102f6576102f661168a565b808201808211156102f6576102f661168a565b634e487b7160e01b600052604160045260246000fd5b634e487b7160e01b600052603260045260246000fd5b634e487b7160e01b600052603160045260246000fdfea2646970667358221220aeee44f8eb3c16ac7c3b1215c1b75e49b045eae4ee5625e0ab2f566423b6e21164736f6c63430008140033",
  "linkReferences": {},
  "deployedLinkReferences": {}
}