{
  "_format": "hh-sol-artifact-1",
  "contractName": "Coupon",
  "sourceName": "contracts/register/coupon/Coupon.sol",
  "abi": [
    {
      "inputs": [
        {
          "internalType": "address",
          "name": "_registerContract",
          "type": "address"
        },
        {
          "internalType": "uint256",
          "name": "_couponDate",
          "type": "uint256"
        },
        {
          "internalType": "uint256",
          "name": "_nbDays",
          "type": "uint256"
        },
        {
          "internalType": "uint256",
          "name": "_recordDate",
          "type": "uint256"
        },
        {
          "internalType": "uint256",
          "name": "_cutOfTime",
          "type": "uint256"
        }
      ],
      "stateMutability": "nonpayable",
      "type": "constructor"
    },
    {
      "inputs": [],
      "name": "ReentrancyGuardReentrantCall",
      "type": "error"
    },
    {
      "anonymous": false,
      "inputs": [
        {
          "indexed": true,
          "internalType": "contract IRegister",
          "name": "register",
          "type": "address"
        },
        {
          "indexed": true,
          "internalType": "uint256",
          "name": "couponDate",
          "type": "uint256"
        },
        {
          "indexed": true,
          "internalType": "enum ICoupon.CouponStatus",
          "name": "status",
          "type": "uint8"
        }
      ],
      "name": "CouponChanged",
      "type": "event"
    },
    {
      "anonymous": false,
      "inputs": [
        {
          "indexed": true,
          "internalType": "contract IRegister",
          "name": "register",
          "type": "address"
        },
        {
          "indexed": true,
          "internalType": "uint256",
          "name": "couponDate",
          "type": "uint256"
        },
        {
          "indexed": true,
          "internalType": "address",
          "name": "investor",
          "type": "address"
        },
        {
          "indexed": false,
          "internalType": "enum ICoupon.PaymentStatus",
          "name": "status",
          "type": "uint8"
        },
        {
          "indexed": false,
          "internalType": "enum ICoupon.PaymentStatus",
          "name": "previousStatus",
          "type": "uint8"
        }
      ],
      "name": "CouponPaymentStatusChanged",
      "type": "event"
    },
    {
      "inputs": [],
      "name": "couponDate",
      "outputs": [
        {
          "internalType": "uint256",
          "name": "",
          "type": "uint256"
        }
      ],
      "stateMutability": "view",
      "type": "function"
    },
    {
      "inputs": [],
      "name": "cutOfTime",
      "outputs": [
        {
          "internalType": "uint256",
          "name": "",
          "type": "uint256"
        }
      ],
      "stateMutability": "view",
      "type": "function"
    },
    {
      "inputs": [
        {
          "internalType": "address",
          "name": "_investor",
          "type": "address"
        }
      ],
      "name": "getInvestorPayments",
      "outputs": [
        {
          "internalType": "enum ICoupon.PaymentStatus",
          "name": "",
          "type": "uint8"
        }
      ],
      "stateMutability": "view",
      "type": "function"
    },
    {
      "inputs": [
        {
          "internalType": "address",
          "name": "_investor",
          "type": "address"
        }
      ],
      "name": "getPaymentAmountForInvestor",
      "outputs": [
        {
          "internalType": "uint256",
          "name": "paymentAmount",
          "type": "uint256"
        }
      ],
      "stateMutability": "view",
      "type": "function"
    },
    {
      "inputs": [],
      "name": "getTotalPaymentAmount",
      "outputs": [
        {
          "internalType": "uint256",
          "name": "paymentAmount",
          "type": "uint256"
        }
      ],
      "stateMutability": "view",
      "type": "function"
    },
    {
      "inputs": [
        {
          "internalType": "address",
          "name": "",
          "type": "address"
        }
      ],
      "name": "investorPayments",
      "outputs": [
        {
          "internalType": "enum ICoupon.PaymentStatus",
          "name": "",
          "type": "uint8"
        }
      ],
      "stateMutability": "view",
      "type": "function"
    },
    {
      "inputs": [],
      "name": "nbDays",
      "outputs": [
        {
          "internalType": "uint256",
          "name": "",
          "type": "uint256"
        }
      ],
      "stateMutability": "view",
      "type": "function"
    },
    {
      "inputs": [],
      "name": "payingAgent",
      "outputs": [
        {
          "internalType": "address",
          "name": "",
          "type": "address"
        }
      ],
      "stateMutability": "view",
      "type": "function"
    },
    {
      "inputs": [
        {
          "internalType": "address",
          "name": "_investor",
          "type": "address"
        }
      ],
      "name": "paymentIdForInvest",
      "outputs": [
        {
          "internalType": "bytes8",
          "name": "",
          "type": "bytes8"
        }
      ],
      "stateMutability": "view",
      "type": "function"
    },
    {
      "inputs": [],
      "name": "recordDate",
      "outputs": [
        {
          "internalType": "uint256",
          "name": "",
          "type": "uint256"
        }
      ],
      "stateMutability": "view",
      "type": "function"
    },
    {
      "inputs": [],
      "name": "register",
      "outputs": [
        {
          "internalType": "contract IRegister",
          "name": "",
          "type": "address"
        }
      ],
      "stateMutability": "view",
      "type": "function"
    },
    {
      "inputs": [],
      "name": "rejectCoupon",
      "outputs": [],
      "stateMutability": "nonpayable",
      "type": "function"
    },
    {
      "inputs": [
        {
          "internalType": "uint256",
          "name": "_recordDate",
          "type": "uint256"
        },
        {
          "internalType": "uint256",
          "name": "_cutOfTime",
          "type": "uint256"
        }
      ],
      "name": "setCutOffTime",
      "outputs": [],
      "stateMutability": "nonpayable",
      "type": "function"
    },
    {
      "inputs": [],
      "name": "setDateAsCurrentCoupon",
      "outputs": [],
      "stateMutability": "nonpayable",
      "type": "function"
    },
    {
      "inputs": [
        {
          "internalType": "uint256",
          "name": "_nbDays",
          "type": "uint256"
        }
      ],
      "name": "setNbDays",
      "outputs": [],
      "stateMutability": "nonpayable",
      "type": "function"
    },
    {
      "inputs": [],
      "name": "status",
      "outputs": [
        {
          "internalType": "enum ICoupon.CouponStatus",
          "name": "",
          "type": "uint8"
        }
      ],
      "stateMutability": "view",
      "type": "function"
    },
    {
      "inputs": [
        {
          "internalType": "address",
          "name": "_investor",
          "type": "address"
        }
      ],
      "name": "toggleCouponPayment",
      "outputs": [],
      "stateMutability": "nonpayable",
      "type": "function"
    }
  ],
  "bytecode": "0x60806040523480156200001157600080fd5b5060405162001b9b38038062001b9b8339810160408190526200003491620002a7565b6001600055600780546001600160a01b0387166001600160a01b0319918216811790925560088054909116821790556040516338e5975560e21b815233600482015263e3965d5490602401602060405180830381865afa1580156200009d573d6000803e3d6000fd5b505050506040513d601f19601f82011682018060405250810190620000c39190620002fe565b620001275760405162461bcd60e51b815260206004820152602960248201527f53656e646572206d757374206265206120506179696e672063616c63756c61746044820152681a5bdb881859d95b9d60ba1b60648201526084015b60405180910390fd5b6007546040516338e20fc560e11b8152600481018690526001600160a01b03909116906371c41f8a906024016020604051808303816000875af115801562000173573d6000803e3d6000fd5b505050506040513d601f19601f82011682018060405250810190620001999190620002fe565b620001e75760405162461bcd60e51b815260206004820152601f60248201527f7468697320636f75706f6e4461746520646f6573206e6f74206578697374730060448201526064016200011e565b6001849055600283905562000200620151808362000329565b6200020c90836200034c565b6003556200021e620151808262000329565b6004908155600580546001600160a01b031916331790556008805460ff60a01b191690819055600160a01b900460ff169081111562000261576200026162000374565b6001546007546040516001600160a01b03909116907fee1a084aa36acdbc1c32f808f87c6ef8ae26d4ad59293c32244b1b72466bb76090600090a450505050506200038a565b600080600080600060a08688031215620002c057600080fd5b85516001600160a01b0381168114620002d857600080fd5b602087015160408801516060890151608090990151929a91995097965090945092505050565b6000602082840312156200031157600080fd5b815180151581146200032257600080fd5b9392505050565b6000826200034757634e487b7160e01b600052601260045260246000fd5b500690565b818103818111156200036e57634e487b7160e01b600052601160045260246000fd5b92915050565b634e487b7160e01b600052602160045260246000fd5b611801806200039a6000396000f3fe608060405234801561001057600080fd5b506004361061011b5760003560e01c80637c610024116100b2578063d64c058711610081578063f4bcf20911610066578063f4bcf209146102dd578063f68a3ab4146102e5578063fd3b4442146102f857600080fd5b8063d64c05871461029e578063d927a606146102b157600080fd5b80637c6100241461024957806386d49f771461025c578063c4fa96b014610265578063ccc5d7e91461026e57600080fd5b8063532e91cc116100ee578063532e91cc146101905780635e4795a9146102195780636969a06f1461022c57806369fb125e1461023657600080fd5b80631aa3a00814610120578063200d2ed21461015057806323bfa0f01461017157806350cc453214610187575b600080fd5b600754610133906001600160a01b031681565b6040516001600160a01b0390911681526020015b60405180910390f35b60085461016490600160a01b900460ff1681565b604051610147919061160e565b610179610301565b604051908152602001610147565b61017960035481565b6101e861019e366004611640565b6040516bffffffffffffffffffffffff1930606090811b8216602084015283901b166034820152600090604801604051602081830303815290604052805190602001209050919050565b6040517fffffffffffffffff0000000000000000000000000000000000000000000000009091168152602001610147565b600554610133906001600160a01b031681565b6102346104af565b005b610179610244366004611640565b610888565b610234610257366004611664565b610a53565b61017960025481565b61017960015481565b61029161027c366004611640565b60096020526000908152604090205460ff1681565b6040516101479190611691565b6102346102ac366004611640565b610bc3565b6102916102bf366004611640565b6001600160a01b031660009081526009602052604090205460ff1690565b6102346112d4565b6102346102f33660046116a5565b61141c565b61017960045481565b600080600760009054906101000a90046001600160a01b03166001600160a01b031663a7f2f6ec6040518163ffffffff1660e01b8152600401602060405180830381865afa158015610357573d6000803e3d6000fd5b505050506040513d601f19601f8201168201806040525081019061037b91906116c7565b90506000600760009054906101000a90046001600160a01b03166001600160a01b03166339027f7c6040518163ffffffff1660e01b8152600401602060405180830381865afa1580156103d2573d6000803e3d6000fd5b505050506040513d601f19601f820116820180604052508101906103f691906116c7565b90506000600760009054906101000a90046001600160a01b03166001600160a01b03166318160ddd6040518163ffffffff1660e01b8152600401602060405180830381865afa15801561044d573d6000803e3d6000fd5b505050506040513d601f19601f8201168201806040525081019061047191906116c7565b9050600061016860025484848761048891906116f6565b61049291906116f6565b61049c91906116f6565b6104a69190611723565b95945050505050565b6104b76115b5565b6007546040516338e5975560e21b81523360048201526001600160a01b039091169063e3965d5490602401602060405180830381865afa1580156104ff573d6000803e3d6000fd5b505050506040513d601f19601f820116820180604052508101906105239190611737565b6105865760405162461bcd60e51b815260206004820152602960248201527f53656e646572206d757374206265206120506179696e672063616c63756c61746044820152681a5bdb881859d95b9d60ba1b60648201526084015b60405180910390fd5b6000600854600160a01b900460ff1660048111156105a6576105a66115f8565b146106275760405162461bcd60e51b8152602060048201526044602482018190527f54686520636f75706f6e20646174652063616e206265206d6f64696669656420908201527f6f6e6c792069662074686520636f6e74726163742073746174757320697320446064820152631c98599d60e21b608482015260a40161057d565b6007546001546040517f71c41f8a0000000000000000000000000000000000000000000000000000000081526001600160a01b03909216916371c41f8a916106759160040190815260200190565b6020604051808303816000875af1158015610694573d6000803e3d6000fd5b505050506040513d601f19601f820116820180604052508101906106b89190611737565b6107045760405162461bcd60e51b815260206004820152601f60248201527f7468697320636f75706f6e4461746520646f6573206e6f742065786973747300604482015260640161057d565b6007546001546004546003546001600160a01b0390931692633052974c929161072c91611759565b6040517fffffffff0000000000000000000000000000000000000000000000000000000060e085901b16815260048101929092526024820152604401600060405180830381600087803b15801561078257600080fd5b505af1158015610796573d6000803e3d6000fd5b50505050600860009054906101000a90046001600160a01b03166001600160a01b0316639ef986de6040518163ffffffff1660e01b8152600401602060405180830381865afa1580156107ed573d6000803e3d6000fd5b505050506040513d601f19601f8201168201806040525081019061081191906116c7565b6006556008805460ff60a01b1916600160a01b90811791829055900460ff166004811115610841576108416115f8565b6001546007546040516001600160a01b03909116907fee1a084aa36acdbc1c32f808f87c6ef8ae26d4ad59293c32244b1b72466bb76090600090a46108866001600055565b565b600080600760009054906101000a90046001600160a01b03166001600160a01b031663a7f2f6ec6040518163ffffffff1660e01b8152600401602060405180830381865afa1580156108de573d6000803e3d6000fd5b505050506040513d601f19601f8201168201806040525081019061090291906116c7565b90506000600760009054906101000a90046001600160a01b03166001600160a01b03166339027f7c6040518163ffffffff1660e01b8152600401602060405180830381865afa158015610959573d6000803e3d6000fd5b505050506040513d601f19601f8201168201806040525081019061097d91906116c7565b6008546001546040517f07b2d9e30000000000000000000000000000000000000000000000000000000081526001600160a01b03888116600483015260248201929092529293506000929116906307b2d9e390604401602060405180830381865afa1580156109f0573d6000803e3d6000fd5b505050506040513d601f19601f82011682018060405250810190610a1491906116c7565b90506000610168600254848487610a2b91906116f6565b610a3591906116f6565b610a3f91906116f6565b610a499190611723565b9695505050505050565b6007546040516338e5975560e21b81523360048201526001600160a01b039091169063e3965d5490602401602060405180830381865afa158015610a9b573d6000803e3d6000fd5b505050506040513d601f19601f82011682018060405250810190610abf9190611737565b610b1d5760405162461bcd60e51b815260206004820152602960248201527f53656e646572206d757374206265206120506179696e672063616c63756c61746044820152681a5bdb881859d95b9d60ba1b606482015260840161057d565b6000600854600160a01b900460ff166004811115610b3d57610b3d6115f8565b14610bbe5760405162461bcd60e51b8152602060048201526044602482018190527f54686520636f75706f6e20646174652063616e206265206d6f64696669656420908201527f6f6e6c792069662074686520636f6e74726163742073746174757320697320446064820152631c98599d60e21b608482015260a40161057d565b600255565b6007546040517fc41251a10000000000000000000000000000000000000000000000000000000081526001600160a01b0383811660048301529091169063c41251a190602401602060405180830381865afa158015610c26573d6000803e3d6000fd5b505050506040513d601f19601f82011682018060405250810190610c4a9190611737565b610c965760405162461bcd60e51b815260206004820152601c60248201527f5468697320696e766573746f72206973206e6f7420616c6c6f77656400000000604482015260640161057d565b6001600854600160a01b900460ff166004811115610cb657610cb66115f8565b14610d295760405162461bcd60e51b815260206004820152602860248201527f54686520737461747573206f662074686520636f75706f6e2073686f756c642060448201527f6265205265616479000000000000000000000000000000000000000000000000606482015260840161057d565b6001600160a01b03818116600090815260096020526040908190205460075491517f4361f92a00000000000000000000000000000000000000000000000000000000815233600482015260ff909116929190911690634361f92a90602401602060405180830381865afa158015610da4573d6000803e3d6000fd5b505050506040513d601f19601f82011682018060405250810190610dc89190611737565b15610f6e576001600160a01b03821660009081526009602052604081205460ff166002811115610dfa57610dfa6115f8565b03610ea5576006544211610e765760405162461bcd60e51b815260206004820152602560248201527f74686520636f75706f6e20637574206f662074696d6520686173206e6f74207060448201527f6173736564000000000000000000000000000000000000000000000000000000606482015260840161057d565b6001600160a01b038216600090815260096020526040902080546001919060ff191682805b021790555061126c565b60016001600160a01b03831660009081526009602052604090205460ff166002811115610ed457610ed46115f8565b03610efe576001600160a01b0382166000908152600960205260409020805460ff1916905561126c565b6040805162461bcd60e51b81526020600482015260248101919091527f54686520737461747573206f66207468697320696e766573746f72277320706160448201527f796d656e742073686f756c642062652050616964206f7220546f426550616964606482015260840161057d565b6007546040517f35c80c8c0000000000000000000000000000000000000000000000000000000081523360048201526001600160a01b03909116906335c80c8c90602401602060405180830381865afa158015610fcf573d6000803e3d6000fd5b505050506040513d601f19601f82011682018060405250810190610ff39190611737565b156111fe576007546040517f8f92f4900000000000000000000000000000000000000000000000000000000081526001600160a01b03848116600483015233921690638f92f49090602401602060405180830381865afa15801561105b573d6000803e3d6000fd5b505050506040513d601f19601f8201168201806040525081019061107f919061176c565b6001600160a01b0316146110fb5760405162461bcd60e51b815260206004820152602660248201527f596f7520617265206e6f7420637573746f6469616e206f66207468697320696e60448201527f766573746f720000000000000000000000000000000000000000000000000000606482015260840161057d565b60016001600160a01b03831660009081526009602052604090205460ff16600281111561112a5761112a6115f8565b03611159576001600160a01b038216600090815260096020526040902080546002919060ff1916600183610e9b565b60026001600160a01b03831660009081526009602052604090205460ff166002811115611188576111886115f8565b036111b6576001600160a01b038216600090815260096020526040902080546001919060ff19168280610e9b565b60405162461bcd60e51b815260206004820152601d60248201527f496e76616c696420436f75706f6e207061796d656e7420737461747573000000604482015260640161057d565b60405162461bcd60e51b815260206004820152603260248201527f73656e646572206d7573742062652043656e7472616c204163636f756e74204b60448201527f6565706572206f7220437573746f6469616e0000000000000000000000000000606482015260840161057d565b6001546007546001600160a01b0380851660008181526009602052604090819020549051919493909216917f71a813fb36e2b43b4fcd5b541937f3501c4bb733759aa470d700efb9b7fd5b14916112c89160ff16908790611789565b60405180910390a45050565b6007546040516338e5975560e21b81523360048201526001600160a01b039091169063e3965d5490602401602060405180830381865afa15801561131c573d6000803e3d6000fd5b505050506040513d601f19601f820116820180604052508101906113409190611737565b61139e5760405162461bcd60e51b815260206004820152602960248201527f53656e646572206d757374206265206120506179696e672063616c63756c61746044820152681a5bdb881859d95b9d60ba1b606482015260840161057d565b6008805460ff60a01b1916740200000000000000000000000000000000000000001790819055600160a01b900460ff1660048111156113df576113df6115f8565b6001546007546040516001600160a01b03909116907fee1a084aa36acdbc1c32f808f87c6ef8ae26d4ad59293c32244b1b72466bb76090600090a4565b6007546040516338e5975560e21b81523360048201526001600160a01b039091169063e3965d5490602401602060405180830381865afa158015611464573d6000803e3d6000fd5b505050506040513d601f19601f820116820180604052508101906114889190611737565b6114e65760405162461bcd60e51b815260206004820152602960248201527f53656e646572206d757374206265206120506179696e672063616c63756c61746044820152681a5bdb881859d95b9d60ba1b606482015260840161057d565b6000600854600160a01b900460ff166004811115611506576115066115f8565b146115875760405162461bcd60e51b8152602060048201526044602482018190527f54686520636f75706f6e20646174652063616e206265206d6f64696669656420908201527f6f6e6c792069662074686520636f6e74726163742073746174757320697320446064820152631c98599d60e21b608482015260a40161057d565b61159462015180836117a4565b61159e90836117b8565b6003556115ae62015180826117a4565b6004555050565b6002600054036115f1576040517f3ee5aeb500000000000000000000000000000000000000000000000000000000815260040160405180910390fd5b6002600055565b634e487b7160e01b600052602160045260246000fd5b6020810160058310611622576116226115f8565b91905290565b6001600160a01b038116811461163d57600080fd5b50565b60006020828403121561165257600080fd5b813561165d81611628565b9392505050565b60006020828403121561167657600080fd5b5035919050565b6003811061168d5761168d6115f8565b9052565b6020810161169f828461167d565b92915050565b600080604083850312156116b857600080fd5b50508035926020909101359150565b6000602082840312156116d957600080fd5b5051919050565b634e487b7160e01b600052601160045260246000fd5b808202811582820484141761169f5761169f6116e0565b634e487b7160e01b600052601260045260246000fd5b6000826117325761173261170d565b500490565b60006020828403121561174957600080fd5b8151801515811461165d57600080fd5b8082018082111561169f5761169f6116e0565b60006020828403121561177e57600080fd5b815161165d81611628565b60408101611797828561167d565b61165d602083018461167d565b6000826117b3576117b361170d565b500690565b8181038181111561169f5761169f6116e056fea2646970667358221220ad2e235d7bfc3ae09d230dc3fbfd94cc6ab631490ea1d3a4ed87853c29e3c2cd64736f6c63430008140033",
  "linkReferences": {},
  "deployedLinkReferences": {}
}