{
  "_format": "hh-sol-artifact-1",
  "contractName": "ArrayUtilsMock",
  "sourceName": "contracts/utils/ArrayUtilsMock.sol",
  "abi": [
    {
      "inputs": [
        {
          "internalType": "uint256[]",
          "name": "array",
          "type": "uint256[]"
        }
      ],
      "name": "max",
      "outputs": [
        {
          "internalType": "uint256",
          "name": "",
          "type": "uint256"
        }
      ],
      "stateMutability": "pure",
      "type": "function"
    },
    {
      "inputs": [
        {
          "internalType": "bytes32[]",
          "name": "array",
          "type": "bytes32[]"
        }
      ],
      "name": "max",
      "outputs": [
        {
          "internalType": "bytes32",
          "name": "",
          "type": "bytes32"
        }
      ],
      "stateMutability": "pure",
      "type": "function"
    },
    {
      "inputs": [
        {
          "internalType": "address[]",
          "name": "array",
          "type": "address[]"
        }
      ],
      "name": "max",
      "outputs": [
        {
          "internalType": "address",
          "name": "",
          "type": "address"
        }
      ],
      "stateMutability": "pure",
      "type": "function"
    },
    {
      "inputs": [
        {
          "internalType": "bytes32[]",
          "name": "array",
          "type": "bytes32[]"
        }
      ],
      "name": "min",
      "outputs": [
        {
          "internalType": "bytes32",
          "name": "",
          "type": "bytes32"
        }
      ],
      "stateMutability": "pure",
      "type": "function"
    },
    {
      "inputs": [
        {
          "internalType": "address[]",
          "name": "array",
          "type": "address[]"
        }
      ],
      "name": "min",
      "outputs": [
        {
          "internalType": "address",
          "name": "",
          "type": "address"
        }
      ],
      "stateMutability": "pure",
      "type": "function"
    },
    {
      "inputs": [
        {
          "internalType": "uint256[]",
          "name": "array",
          "type": "uint256[]"
        }
      ],
      "name": "min",
      "outputs": [
        {
          "internalType": "uint256",
          "name": "",
          "type": "uint256"
        }
      ],
      "stateMutability": "pure",
      "type": "function"
    }
  ],
  "bytecode": "0x608060405234801561001057600080fd5b50610573806100206000396000f3fe608060405234801561001057600080fd5b50600436106100725760003560e01c806386d6e5941161005057806386d6e594146100c3578063abf91ea4146100ee578063d834e6191461010157600080fd5b80631bfe664d146100775780633bf6de961461009d57806377c5ca71146100b0575b600080fd5b61008a6100853660046103f5565b610114565b6040519081526020015b60405180910390f35b61008a6100ab3660046103f5565b610125565b61008a6100be3660046103f5565b610130565b6100d66100d136600461048b565b61013b565b6040516001600160a01b039091168152602001610094565b6100d66100fc36600461048b565b610146565b61008a61010f3660046103f5565b610151565b600061011f8261015c565b92915050565b600061011f826101b9565b600061011f8261020d565b600061011f82610261565b600061011f826102c7565b600061011f82610334565b6000600019815b83518110156101b2578184828151811061017f5761017f610527565b602002602001015110156101aa5783818151811061019f5761019f610527565b602002602001015191505b600101610163565b5092915050565b600080805b83518110156101b257818482815181106101da576101da610527565b60200260200101511115610205578381815181106101fa576101fa610527565b602002602001015191505b6001016101be565b600080805b83518110156101b2578184828151811061022e5761022e610527565b602002602001015111156102595783818151811061024e5761024e610527565b602002602001015191505b600101610212565b600080805b83518110156101b257816001600160a01b031684828151811061028b5761028b610527565b60200260200101516001600160a01b031611156102bf578381815181106102b4576102b4610527565b602002602001015191505b600101610266565b60006001600160a01b03815b83518110156101b257816001600160a01b03168482815181106102f8576102f8610527565b60200260200101516001600160a01b0316101561032c5783818151811061032157610321610527565b602002602001015191505b6001016102d3565b6000600019815b83518110156101b2578184828151811061035757610357610527565b602002602001015110156103825783818151811061037757610377610527565b602002602001015191505b60010161033b565b634e487b7160e01b600052604160045260246000fd5b604051601f8201601f1916810167ffffffffffffffff811182821017156103c9576103c961038a565b604052919050565b600067ffffffffffffffff8211156103eb576103eb61038a565b5060051b60200190565b6000602080838503121561040857600080fd5b823567ffffffffffffffff81111561041f57600080fd5b8301601f8101851361043057600080fd5b803561044361043e826103d1565b6103a0565b81815260059190911b8201830190838101908783111561046257600080fd5b928401925b8284101561048057833582529284019290840190610467565b979650505050505050565b6000602080838503121561049e57600080fd5b823567ffffffffffffffff8111156104b557600080fd5b8301601f810185136104c657600080fd5b80356104d461043e826103d1565b81815260059190911b820183019083810190878311156104f357600080fd5b928401925b828410156104805783356001600160a01b03811681146105185760008081fd5b825292840192908401906104f8565b634e487b7160e01b600052603260045260246000fdfea26469706673582212203b5c0a603bc005945497b93dc53a825e6dbb0ad975d3834634efe920bc1089eb64736f6c63430008140033",
  "linkReferences": {},
  "deployedLinkReferences": {}
}