{
  "_format": "hh-sol-artifact-1",
  "contractName": "EnumerableSetAddressMock",
  "sourceName": "contracts/data/EnumerableSetAddressMock.sol",
  "abi": [
    {
      "inputs": [],
      "name": "EnumerableSet__IndexOutOfBounds",
      "type": "error"
    },
    {
      "inputs": [
        {
          "internalType": "address",
          "name": "value",
          "type": "address"
        }
      ],
      "name": "add",
      "outputs": [
        {
          "internalType": "bool",
          "name": "",
          "type": "bool"
        }
      ],
      "stateMutability": "nonpayable",
      "type": "function"
    },
    {
      "inputs": [
        {
          "internalType": "uint256",
          "name": "index",
          "type": "uint256"
        }
      ],
      "name": "at",
      "outputs": [
        {
          "internalType": "address",
          "name": "",
          "type": "address"
        }
      ],
      "stateMutability": "view",
      "type": "function"
    },
    {
      "inputs": [
        {
          "internalType": "address",
          "name": "value",
          "type": "address"
        }
      ],
      "name": "contains",
      "outputs": [
        {
          "internalType": "bool",
          "name": "",
          "type": "bool"
        }
      ],
      "stateMutability": "view",
      "type": "function"
    },
    {
      "inputs": [
        {
          "internalType": "address",
          "name": "value",
          "type": "address"
        }
      ],
      "name": "indexOf",
      "outputs": [
        {
          "internalType": "uint256",
          "name": "",
          "type": "uint256"
        }
      ],
      "stateMutability": "view",
      "type": "function"
    },
    {
      "inputs": [],
      "name": "length",
      "outputs": [
        {
          "internalType": "uint256",
          "name": "",
          "type": "uint256"
        }
      ],
      "stateMutability": "view",
      "type": "function"
    },
    {
      "inputs": [
        {
          "internalType": "address",
          "name": "value",
          "type": "address"
        }
      ],
      "name": "remove",
      "outputs": [
        {
          "internalType": "bool",
          "name": "",
          "type": "bool"
        }
      ],
      "stateMutability": "nonpayable",
      "type": "function"
    },
    {
      "inputs": [],
      "name": "toArray",
      "outputs": [
        {
          "internalType": "address[]",
          "name": "",
          "type": "address[]"
        }
      ],
      "stateMutability": "view",
      "type": "function"
    }
  ],
  "bytecode": "0x608060405234801561001057600080fd5b506104e9806100206000396000f3fe608060405234801561001057600080fd5b506004361061007d5760003560e01c80635dbe47e81161005b5780635dbe47e8146100d3578063908ff303146100e6578063e0886f90146100fb578063fd6aad251461012657600080fd5b80630a3b0a4f146100825780631f7b6d32146100aa57806329092d0e146100c0575b600080fd5b6100956100903660046103f8565b610139565b60405190151581526020015b60405180910390f35b6100b261014b565b6040519081526020016100a1565b6100956100ce3660046103f8565b61015c565b6100956100e13660046103f8565b610168565b6100ee610174565b6040516100a19190610421565b61010e61010936600461046e565b610180565b6040516001600160a01b0390911681526020016100a1565b6100b26101343660046103f8565b61018c565b60006101458183610198565b92915050565b600061015760006101b4565b905090565b600061014581836101be565b600061014581836101d3565b606061015760006101f5565b6000610145818361025b565b60006101458183610267565b60006101ad836001600160a01b03841661028b565b9392505050565b6000610145825490565b60006101ad836001600160a01b0384166102ce565b6001600160a01b038116600090815260018301602052604081205415156101ad565b8054604080516020808402820181019092528281526060928492839291839183018282801561024d57602002820191906000526020600020905b81546001600160a01b0316815260019091019060200180831161022f575b505050505092505050919050565b60006101ad8383610393565b6001600160a01b0381166000908152600183016020526040812054600019016101ad565b6000818152600183016020526040812054610145575081546001808201845560008481526020808220909301849055845493815293810190915260409092205590565b6000818152600183016020526040812054801561038c5783546000908590600019810190811061030057610300610487565b906000526020600020015490508085600001600184038154811061032657610326610487565b60009182526020808320909101929092559182526001860190526040902081905583548490806103585761035861049d565b6001900381819060005260206000200160009055905583600101600084815260200190815260200160002060009055600191505b5092915050565b815460009082106103d0576040517fe637bf3b00000000000000000000000000000000000000000000000000000000815260040160405180910390fd5b8260000182815481106103e5576103e5610487565b9060005260206000200154905092915050565b60006020828403121561040a57600080fd5b81356001600160a01b03811681146101ad57600080fd5b6020808252825182820181905260009190848201906040850190845b818110156104625783516001600160a01b03168352928401929184019160010161043d565b50909695505050505050565b60006020828403121561048057600080fd5b5035919050565b634e487b7160e01b600052603260045260246000fd5b634e487b7160e01b600052603160045260246000fdfea2646970667358221220c3daf7ec9856838f03a7d44bd7a5f93b53a5960617e991811e062fcd11fd363d64736f6c63430008140033",
  "linkReferences": {},
  "deployedLinkReferences": {}
}