{
  "_format": "hh-sol-artifact-1",
  "contractName": "EnumerableMapAddressToAddressMock",
  "sourceName": "contracts/data/EnumerableMapAddressToAddressMock.sol",
  "abi": [
    {
      "inputs": [],
      "name": "EnumerableMap__IndexOutOfBounds",
      "type": "error"
    },
    {
      "inputs": [],
      "name": "EnumerableMap__NonExistentKey",
      "type": "error"
    },
    {
      "inputs": [
        {
          "internalType": "uint256",
          "name": "index",
          "type": "uint256"
        }
      ],
      "name": "at",
      "outputs": [
        {
          "internalType": "address",
          "name": "",
          "type": "address"
        },
        {
          "internalType": "address",
          "name": "",
          "type": "address"
        }
      ],
      "stateMutability": "view",
      "type": "function"
    },
    {
      "inputs": [
        {
          "internalType": "address",
          "name": "key",
          "type": "address"
        }
      ],
      "name": "contains",
      "outputs": [
        {
          "internalType": "bool",
          "name": "",
          "type": "bool"
        }
      ],
      "stateMutability": "view",
      "type": "function"
    },
    {
      "inputs": [
        {
          "internalType": "address",
          "name": "key",
          "type": "address"
        }
      ],
      "name": "get",
      "outputs": [
        {
          "internalType": "address",
          "name": "",
          "type": "address"
        }
      ],
      "stateMutability": "view",
      "type": "function"
    },
    {
      "inputs": [],
      "name": "keys",
      "outputs": [
        {
          "internalType": "address[]",
          "name": "keysOut",
          "type": "address[]"
        }
      ],
      "stateMutability": "view",
      "type": "function"
    },
    {
      "inputs": [],
      "name": "length",
      "outputs": [
        {
          "internalType": "uint256",
          "name": "",
          "type": "uint256"
        }
      ],
      "stateMutability": "view",
      "type": "function"
    },
    {
      "inputs": [
        {
          "internalType": "address",
          "name": "key",
          "type": "address"
        }
      ],
      "name": "remove",
      "outputs": [
        {
          "internalType": "bool",
          "name": "",
          "type": "bool"
        }
      ],
      "stateMutability": "nonpayable",
      "type": "function"
    },
    {
      "inputs": [
        {
          "internalType": "address",
          "name": "key",
          "type": "address"
        },
        {
          "internalType": "address",
          "name": "value",
          "type": "address"
        }
      ],
      "name": "set",
      "outputs": [
        {
          "internalType": "bool",
          "name": "",
          "type": "bool"
        }
      ],
      "stateMutability": "nonpayable",
      "type": "function"
    },
    {
      "inputs": [],
      "name": "toArray",
      "outputs": [
        {
          "internalType": "address[]",
          "name": "keysOut",
          "type": "address[]"
        },
        {
          "internalType": "address[]",
          "name": "valuesOut",
          "type": "address[]"
        }
      ],
      "stateMutability": "view",
      "type": "function"
    },
    {
      "inputs": [],
      "name": "values",
      "outputs": [
        {
          "internalType": "address[]",
          "name": "valuesOut",
          "type": "address[]"
        }
      ],
      "stateMutability": "view",
      "type": "function"
    }
  ],
  "bytecode": "0x608060405234801561001057600080fd5b5061097b806100206000396000f3fe608060405234801561001057600080fd5b50600436106100a35760003560e01c806389675cac11610076578063971217b71161005b578063971217b714610137578063c2bc2efc1461013f578063e0886f901461016a57600080fd5b806389675cac1461010e578063908ff3031461012157600080fd5b80631f7b6d32146100a857806329092d0e146100c3578063307540f6146100e65780635dbe47e8146100fb575b600080fd5b6100b061019d565b6040519081526020015b60405180910390f35b6100d66100d1366004610817565b6101ae565b60405190151581526020016100ba565b6100ee6101c0565b6040516100ba9190610876565b6100d6610109366004610817565b6101cc565b6100d661011c366004610889565b6101d8565b6101296101ec565b6040516100ba9291906108bc565b6100ee610202565b61015261014d366004610817565b61020e565b6040516001600160a01b0390911681526020016100ba565b61017d6101783660046108ea565b61021a565b604080516001600160a01b039384168152929091166020830152016100ba565b60006101a96000610230565b905090565b60006101ba818361023a565b92915050565b60606101a9600061024f565b60006101ba8183610306565b60006101e5818484610328565b9392505050565b6060806101f96000610349565b90939092509050565b60606101a9600061049a565b60006101ba818361054a565b600080610227818461055f565b91509150915091565b60006101ba825490565b60006101e5836001600160a01b03841661057b565b80546060908067ffffffffffffffff81111561026d5761026d610903565b604051908082528060200260200182016040528015610296578160200160208202803683370190505b50915060005b818110156102ff5783548490829081106102b8576102b8610919565b90600052602060002090600202016000015460001c8382815181106102df576102df610919565b6001600160a01b039092166020928302919091019091015260010161029c565b5050919050565b6001600160a01b038116600090815260018301602052604081205415156101e5565b6000610341846001600160a01b03808616908516610663565b949350505050565b805460609081908067ffffffffffffffff81111561036957610369610903565b604051908082528060200260200182016040528015610392578160200160208202803683370190505b5092508067ffffffffffffffff8111156103ae576103ae610903565b6040519080825280602002602001820160405280156103d7578160200160208202803683370190505b50915060005b818110156104935784548590829081106103f9576103f9610919565b90600052602060002090600202016000015460001c84828151811061042057610420610919565b6001600160a01b0390921660209283029190910190910152845485908290811061044c5761044c610919565b90600052602060002090600202016001015460001c83828151811061047357610473610919565b6001600160a01b03909216602092830291909101909101526001016103dd565b5050915091565b80546060908067ffffffffffffffff8111156104b8576104b8610903565b6040519080825280602002602001820160405280156104e1578160200160208202803683370190505b50915060005b818110156102ff57835484908290811061050357610503610919565b90600052602060002090600202016001015460001c83828151811061052a5761052a610919565b6001600160a01b03909216602092830291909101909101526001016104e7565b60006101e5836001600160a01b038416610702565b600080808061056e868661077f565b9097909650945050505050565b60008181526001830160205260408120548015610659578354600090859060001981019081106105ad576105ad610919565b90600052602060002090600202019050808560000160018403815481106105d6576105d6610919565b600091825260208083208454600290930201918255600193840154918401919091559254815290860190915260409020819055835484908061061a5761061a61092f565b60008281526020808220600260001990940193840201828155600190810183905592909355858152868201909252604082209190915591506101ba9050565b60009150506101ba565b60008281526001840160205260408120548082036106ca5750506040805180820182528381526020808201848152865460018181018955600089815284812095516002909302909501918255915190820155865486845281880190925292909120556101e5565b828560000160018303815481106106e3576106e3610919565b90600052602060002090600202016001018190555060009150506101e5565b600081815260018301602052604081205480820361074c576040517ff551fb1400000000000000000000000000000000000000000000000000000000815260040160405180910390fd5b83600001600182038154811061076457610764610919565b90600052602060002090600202016001015491505092915050565b8154600090819083106107be576040517f117ec13800000000000000000000000000000000000000000000000000000000815260040160405180910390fd5b60008460000184815481106107d5576107d5610919565b906000526020600020906002020190508060000154816001015492509250509250929050565b80356001600160a01b038116811461081257600080fd5b919050565b60006020828403121561082957600080fd5b6101e5826107fb565b600081518084526020808501945080840160005b8381101561086b5781516001600160a01b031687529582019590820190600101610846565b509495945050505050565b6020815260006101e56020830184610832565b6000806040838503121561089c57600080fd5b6108a5836107fb565b91506108b3602084016107fb565b90509250929050565b6040815260006108cf6040830185610832565b82810360208401526108e18185610832565b95945050505050565b6000602082840312156108fc57600080fd5b5035919050565b634e487b7160e01b600052604160045260246000fd5b634e487b7160e01b600052603260045260246000fd5b634e487b7160e01b600052603160045260246000fdfea2646970667358221220fbd0fe710242fac6a42ab4672b0bab7e2a28c6f64693ed4590e2fd1d6867fab964736f6c63430008140033",
  "linkReferences": {},
  "deployedLinkReferences": {}
}