{
  "_format": "hh-sol-artifact-1",
  "contractName": "SmartContractAccessManagement",
  "sourceName": "contracts/register/access/SmartContractAccessManagement.sol",
  "abi": [
    {
      "inputs": [],
      "name": "EnumerableSet__IndexOutOfBounds",
      "type": "error"
    },
    {
      "inputs": [],
      "name": "UintUtils__InsufficientHexLength",
      "type": "error"
    },
    {
      "anonymous": false,
      "inputs": [
        {
          "indexed": true,
          "internalType": "address",
          "name": "_addressForNewAdmin",
          "type": "address"
        }
      ],
      "name": "AdminChanged",
      "type": "event"
    },
    {
      "anonymous": false,
      "inputs": [
        {
          "indexed": false,
          "internalType": "bytes32",
          "name": "contractHash",
          "type": "bytes32"
        }
      ],
      "name": "DisableContract",
      "type": "event"
    },
    {
      "anonymous": false,
      "inputs": [
        {
          "indexed": false,
          "internalType": "bytes32",
          "name": "contractHash",
          "type": "bytes32"
        }
      ],
      "name": "EnableContract",
      "type": "event"
    },
    {
      "anonymous": false,
      "inputs": [
        {
          "indexed": false,
          "internalType": "uint64",
          "name": "version",
          "type": "uint64"
        }
      ],
      "name": "Initialized",
      "type": "event"
    },
    {
      "anonymous": false,
      "inputs": [
        {
          "indexed": true,
          "internalType": "bytes32",
          "name": "role",
          "type": "bytes32"
        },
        {
          "indexed": true,
          "internalType": "bytes32",
          "name": "previousAdminRole",
          "type": "bytes32"
        },
        {
          "indexed": true,
          "internalType": "bytes32",
          "name": "newAdminRole",
          "type": "bytes32"
        }
      ],
      "name": "RoleAdminChanged",
      "type": "event"
    },
    {
      "anonymous": false,
      "inputs": [
        {
          "indexed": true,
          "internalType": "bytes32",
          "name": "role",
          "type": "bytes32"
        },
        {
          "indexed": true,
          "internalType": "address",
          "name": "account",
          "type": "address"
        },
        {
          "indexed": true,
          "internalType": "address",
          "name": "sender",
          "type": "address"
        }
      ],
      "name": "RoleGranted",
      "type": "event"
    },
    {
      "anonymous": false,
      "inputs": [
        {
          "indexed": true,
          "internalType": "bytes32",
          "name": "role",
          "type": "bytes32"
        },
        {
          "indexed": true,
          "internalType": "address",
          "name": "account",
          "type": "address"
        },
        {
          "indexed": true,
          "internalType": "address",
          "name": "sender",
          "type": "address"
        }
      ],
      "name": "RoleRevoked",
      "type": "event"
    },
    {
      "inputs": [],
      "name": "BND_ROLE",
      "outputs": [
        {
          "internalType": "bytes32",
          "name": "",
          "type": "bytes32"
        }
      ],
      "stateMutability": "view",
      "type": "function"
    },
    {
      "inputs": [],
      "name": "CAK_ROLE",
      "outputs": [
        {
          "internalType": "bytes32",
          "name": "",
          "type": "bytes32"
        }
      ],
      "stateMutability": "view",
      "type": "function"
    },
    {
      "inputs": [],
      "name": "CST_ROLE",
      "outputs": [
        {
          "internalType": "bytes32",
          "name": "",
          "type": "bytes32"
        }
      ],
      "stateMutability": "view",
      "type": "function"
    },
    {
      "inputs": [],
      "name": "PAY_ROLE",
      "outputs": [
        {
          "internalType": "bytes32",
          "name": "",
          "type": "bytes32"
        }
      ],
      "stateMutability": "view",
      "type": "function"
    },
    {
      "inputs": [
        {
          "internalType": "address",
          "name": "addr_",
          "type": "address"
        }
      ],
      "name": "atReturningHash",
      "outputs": [
        {
          "internalType": "bytes32",
          "name": "hash",
          "type": "bytes32"
        }
      ],
      "stateMutability": "view",
      "type": "function"
    },
    {
      "inputs": [
        {
          "internalType": "bytes32",
          "name": "contractHash",
          "type": "bytes32"
        }
      ],
      "name": "disableContractFromWhitelist",
      "outputs": [],
      "stateMutability": "nonpayable",
      "type": "function"
    },
    {
      "inputs": [
        {
          "internalType": "bytes32",
          "name": "contractHash",
          "type": "bytes32"
        }
      ],
      "name": "enableContractToWhitelist",
      "outputs": [],
      "stateMutability": "nonpayable",
      "type": "function"
    },
    {
      "inputs": [
        {
          "internalType": "bytes32",
          "name": "role",
          "type": "bytes32"
        }
      ],
      "name": "getRoleAdmin",
      "outputs": [
        {
          "internalType": "bytes32",
          "name": "",
          "type": "bytes32"
        }
      ],
      "stateMutability": "view",
      "type": "function"
    },
    {
      "inputs": [
        {
          "internalType": "bytes32",
          "name": "role",
          "type": "bytes32"
        },
        {
          "internalType": "uint256",
          "name": "index",
          "type": "uint256"
        }
      ],
      "name": "getRoleMember",
      "outputs": [
        {
          "internalType": "address",
          "name": "",
          "type": "address"
        }
      ],
      "stateMutability": "view",
      "type": "function"
    },
    {
      "inputs": [
        {
          "internalType": "bytes32",
          "name": "role",
          "type": "bytes32"
        }
      ],
      "name": "getRoleMemberCount",
      "outputs": [
        {
          "internalType": "uint256",
          "name": "",
          "type": "uint256"
        }
      ],
      "stateMutability": "view",
      "type": "function"
    },
    {
      "inputs": [
        {
          "internalType": "bytes32",
          "name": "role",
          "type": "bytes32"
        },
        {
          "internalType": "address",
          "name": "account",
          "type": "address"
        }
      ],
      "name": "grantRole",
      "outputs": [],
      "stateMutability": "nonpayable",
      "type": "function"
    },
    {
      "inputs": [
        {
          "internalType": "bytes32",
          "name": "role",
          "type": "bytes32"
        },
        {
          "internalType": "address",
          "name": "account",
          "type": "address"
        }
      ],
      "name": "hasRole",
      "outputs": [
        {
          "internalType": "bool",
          "name": "",
          "type": "bool"
        }
      ],
      "stateMutability": "view",
      "type": "function"
    },
    {
      "inputs": [],
      "name": "isCallerApprovedSmartContract",
      "outputs": [
        {
          "internalType": "bool",
          "name": "",
          "type": "bool"
        }
      ],
      "stateMutability": "view",
      "type": "function"
    },
    {
      "inputs": [
        {
          "internalType": "address",
          "name": "contractAddress_",
          "type": "address"
        }
      ],
      "name": "isContractAllowed",
      "outputs": [
        {
          "internalType": "bool",
          "name": "",
          "type": "bool"
        }
      ],
      "stateMutability": "view",
      "type": "function"
    },
    {
      "inputs": [
        {
          "internalType": "bytes32",
          "name": "role",
          "type": "bytes32"
        }
      ],
      "name": "renounceRole",
      "outputs": [],
      "stateMutability": "nonpayable",
      "type": "function"
    },
    {
      "inputs": [
        {
          "internalType": "bytes32",
          "name": "role",
          "type": "bytes32"
        },
        {
          "internalType": "address",
          "name": "account",
          "type": "address"
        }
      ],
      "name": "revokeRole",
      "outputs": [],
      "stateMutability": "nonpayable",
      "type": "function"
    }
  ],
  "bytecode": "0x608060405234801561001057600080fd5b5061117d806100206000396000f3fe608060405234801561001057600080fd5b50600436106101005760003560e01c80639010d07c11610097578063ca15c87311610066578063ca15c8731461026b578063d547741f1461027e578063d614284a14610291578063d696fb0b146102a457600080fd5b80639010d07c1461021257806391d148541461023d578063a196218314610250578063c2faae591461026357600080fd5b80633bf2a9f4116100d35780633bf2a9f41461018e5780636f2ddb5f146101b55780638865f1e2146101d85780638bb9c5bf146101ff57600080fd5b80631c67a36314610105578063248a9ca31461013f5780632682ac91146101525780632f2ff15d14610179575b600080fd5b61012c7f6ba6f588bcdc2df8426603a466c98ab15e79f7fb7f37b53581ce39c1d01b724981565b6040519081526020015b60405180910390f35b61012c61014d366004610f4f565b6102b7565b61012c7ff698af62c65280e4949bceec64b760f3b7738217cbc536cdfc4c9463676b05c281565b61018c610187366004610f84565b6102ef565b005b61012c7fd7aa2ddfa4e381128202bf365b7e0a176f2fca6cdf2f23c2b0a6f4393769589081565b6101c86101c3366004610fb0565b610338565b6040519015158152602001610136565b61012c7fa75205b8583660bdad375c0ccde11af17668d76a408a9a5e739251b0f7c5987081565b61018c61020d366004610f4f565b610343565b610225610220366004610fcb565b61034f565b6040516001600160a01b039091168152602001610136565b6101c861024b366004610f84565b610362565b61012c61025e366004610fb0565b61036e565b6101c8610379565b61012c610279366004610f4f565b610388565b61018c61028c366004610f84565b610393565b61018c61029f366004610f4f565b6103d7565b61018c6102b2366004610f4f565b6103e0565b60008181527f2e59e4c2e927cdddbb64e181e0668d9a0fa70dd88f94d999cd87d5496a20da6260205260408120600201545b92915050565b60008281527f2e59e4c2e927cdddbb64e181e0668d9a0fa70dd88f94d999cd87d5496a20da626020526040902060020154610329816103e9565b61033383836103f3565b505050565b60006102e9826105ae565b61034c816105f5565b50565b600061035b83836105ff565b9392505050565b600061035b8383610636565b60006102e98261066d565b600061038361069e565b905090565b60006102e9826106e4565b60008281527f2e59e4c2e927cdddbb64e181e0668d9a0fa70dd88f94d999cd87d5496a20da6260205260409020600201546103cd816103e9565b610333838361071a565b61034c816108c1565b61034c8161098d565b61034c8133610a47565b816104565760405162461bcd60e51b8152602060048201526024808201527f5573652066756e6374696f6e206368616e676541646d696e526f6c6520696e736044820152631d19585960e21b60648201526084015b60405180910390fd5b6105a0565b7fa75205b8583660bdad375c0ccde11af17668d76a408a9a5e739251b0f7c59870820361052a576104a77fa75205b8583660bdad375c0ccde11af17668d76a408a9a5e739251b0f7c5987033610636565b806104b857506104b8600033610636565b6104515760405162461bcd60e51b815260206004820152602e60248201527f43616c6c6572206d7573742062652043414b206f722041444d494e20746f207360448201527f657420616e6f746865722043414b0000000000000000000000000000000000006064820152608401610448565b6105547fa75205b8583660bdad375c0ccde11af17668d76a408a9a5e739251b0f7c5987033610636565b6105a05760405162461bcd60e51b815260206004820181905260248201527f43616c6c6572206d7573742062652043414b20746f20736574206120726f6c656044820152606401610448565b6105aa8282610aa9565b5050565b60007f3ab46f175c5f1d1c97765e87ec0d68e6241fafc1b077d060ce0c29744cd3616d816105db8461066d565b600090815260209290925250604090205460ff1692915050565b61034c813361071a565b60008281527f2e59e4c2e927cdddbb64e181e0668d9a0fa70dd88f94d999cd87d5496a20da626020526040812061035b9083610b1d565b60008281527f2e59e4c2e927cdddbb64e181e0668d9a0fa70dd88f94d999cd87d5496a20da626020526040812061035b9083610b29565b60408051603f833b908101601f19168201909252818152600091808360208401863c50805160209091012092915050565b60007f3ab46f175c5f1d1c97765e87ec0d68e6241fafc1b077d060ce0c29744cd3616d816106cb3361066d565b600090815260209290925250604090205460ff16919050565b60008181527f2e59e4c2e927cdddbb64e181e0668d9a0fa70dd88f94d999cd87d5496a20da62602052604081206102e990610b4b565b816107735760405162461bcd60e51b8152602060048201526024808201527f5573652066756e6374696f6e206368616e676541646d696e526f6c6520696e736044820152631d19585960e21b6064820152608401610448565b7fa75205b8583660bdad375c0ccde11af17668d76a408a9a5e739251b0f7c59870820361081b576107a5600033610636565b6108165760405162461bcd60e51b8152602060048201526024808201527f43616c6c6572206d7573742062652041444d494e20746f2072656d6f7665206160448201527f2043414b000000000000000000000000000000000000000000000000000000006064820152608401610448565b6108b7565b6108457fa75205b8583660bdad375c0ccde11af17668d76a408a9a5e739251b0f7c5987033610636565b6108b75760405162461bcd60e51b815260206004820152602360248201527f43616c6c6572206d7573742062652043414b20746f2072656d6f76652061207260448201527f6f6c6500000000000000000000000000000000000000000000000000000000006064820152608401610448565b6105aa8282610b55565b7f3ab46f175c5f1d1c97765e87ec0d68e6241fafc1b077d060ce0c29744cd3616d6108ea610bc9565b6109365760405162461bcd60e51b815260206004820152601260248201527f43616c6c6572206d7573742062652043414b00000000000000000000000000006044820152606401610448565b60008281526020829052604090819020805460ff19166001179055517fbaf2f827de189827a9b5ea8781dbbffcad675a367dccaad8b9ada866795598d7906109819084815260200190565b60405180910390a15050565b7f3ab46f175c5f1d1c97765e87ec0d68e6241fafc1b077d060ce0c29744cd3616d6109b6610bc9565b610a025760405162461bcd60e51b815260206004820152601260248201527f43616c6c6572206d7573742062652043414b00000000000000000000000000006044820152606401610448565b60008281526020828152604091829020805460ff1916905590518381527f2876b9bd97a638025f28a0d50cb5f3cd9e5c0b85624fb7ee15267149452c2d749101610981565b610a518282610636565b6105aa57610a67816001600160a01b0316610bf5565b610a72836020610c07565b604051602001610a83929190611011565b60408051601f198184030181529082905262461bcd60e51b825261044891600401611092565b60008281527f2e59e4c2e927cdddbb64e181e0668d9a0fa70dd88f94d999cd87d5496a20da6260205260409020610ae09082610db8565b5060405133906001600160a01b0383169084907f2f8788117e7eff1d82e926ec794901d17c78024a50270940304540a733656f0d90600090a45050565b600061035b8383610dcd565b6001600160a01b0381166000908152600183016020526040812054151561035b565b60006102e9825490565b60008281527f2e59e4c2e927cdddbb64e181e0668d9a0fa70dd88f94d999cd87d5496a20da6260205260409020610b8c9082610e32565b5060405133906001600160a01b0383169084907ff6391f5c32d9c69d2a47ea670b442974b53935d1edc7fd64eb21e047a839171b90600090a45050565b60006103837fa75205b8583660bdad375c0ccde11af17668d76a408a9a5e739251b0f7c5987033610636565b60606102e96001600160a01b03831660145b60606000610c168360026110db565b610c219060026110f2565b67ffffffffffffffff811115610c3957610c39611105565b6040519080825280601f01601f191660200182016040528015610c63576020820181803683370190505b5090507f300000000000000000000000000000000000000000000000000000000000000081600081518110610c9a57610c9a61111b565b60200101906001600160f81b031916908160001a9053507f780000000000000000000000000000000000000000000000000000000000000081600181518110610ce557610ce561111b565b60200101906001600160f81b031916908160001a905350600160028402015b6001811115610d7f577f303132333435363738396162636465660000000000000000000000000000000085600f1660108110610d4257610d4261111b565b1a60f81b828281518110610d5857610d5861111b565b60200101906001600160f81b031916908160001a90535060049490941c9360001901610d04565b50831561035b576040517fc913478500000000000000000000000000000000000000000000000000000000815260040160405180910390fd5b600061035b836001600160a01b038416610e47565b81546000908210610e0a576040517fe637bf3b00000000000000000000000000000000000000000000000000000000815260040160405180910390fd5b826000018281548110610e1f57610e1f61111b565b9060005260206000200154905092915050565b600061035b836001600160a01b038416610e8a565b60008181526001830160205260408120546102e9575081546001808201845560008481526020808220909301849055845493815293810190915260409092205590565b60008181526001830160205260408120548015610f4857835460009085906000198101908110610ebc57610ebc61111b565b9060005260206000200154905080856000016001840381548110610ee257610ee261111b565b6000918252602080832090910192909255918252600186019052604090208190558354849080610f1457610f14611131565b6001900381819060005260206000200160009055905583600101600084815260200190815260200160002060009055600191505b5092915050565b600060208284031215610f6157600080fd5b5035919050565b80356001600160a01b0381168114610f7f57600080fd5b919050565b60008060408385031215610f9757600080fd5b82359150610fa760208401610f68565b90509250929050565b600060208284031215610fc257600080fd5b61035b82610f68565b60008060408385031215610fde57600080fd5b50508035926020909101359150565b60005b83811015611008578181015183820152602001610ff0565b50506000910152565b7f416363657373436f6e74726f6c3a206163636f756e7420000000000000000000815260008351611049816017850160208801610fed565b7f206973206d697373696e6720726f6c65200000000000000000000000000000006017918401918201528351611086816028840160208801610fed565b01602801949350505050565b60208152600082518060208401526110b1816040850160208701610fed565b601f01601f19169190910160400192915050565b634e487b7160e01b600052601160045260246000fd5b80820281158282048414176102e9576102e96110c5565b808201808211156102e9576102e96110c5565b634e487b7160e01b600052604160045260246000fd5b634e487b7160e01b600052603260045260246000fd5b634e487b7160e01b600052603160045260246000fdfea264697066735822122070cdae65d49d8dba259f0a18e6e106dc0f3f05b80b7380c21e7db8fc97ef099164736f6c63430008140033",
  "linkReferences": {},
  "deployedLinkReferences": {}
}