{
  "_format": "hh-sol-artifact-1",
  "contractName": "GreenBondIssuance",
  "sourceName": "contracts/GreenBondIssuance.sol",
  "abi": [
    {
      "anonymous": false,
      "inputs": [
        {
          "indexed": false,
          "internalType": "uint256",
          "name": "id",
          "type": "uint256"
        },
        {
          "indexed": false,
          "internalType": "address",
          "name": "issuer",
          "type": "address"
        },
        {
          "indexed": false,
          "internalType": "uint256",
          "name": "amount",
          "type": "uint256"
        },
        {
          "indexed": false,
          "internalType": "uint256",
          "name": "maturity",
          "type": "uint256"
        }
      ],
      "name": "BondIssued",
      "type": "event"
    },
    {
      "anonymous": false,
      "inputs": [
        {
          "indexed": false,
          "internalType": "uint256",
          "name": "id",
          "type": "uint256"
        }
      ],
      "name": "BondRedeemed",
      "type": "event"
    },
    {
      "inputs": [
        {
          "internalType": "uint256",
          "name": "",
          "type": "uint256"
        }
      ],
      "name": "bonds",
      "outputs": [
        {
          "internalType": "uint256",
          "name": "id",
          "type": "uint256"
        },
        {
          "internalType": "address",
          "name": "issuer",
          "type": "address"
        },
        {
          "internalType": "uint256",
          "name": "amount",
          "type": "uint256"
        },
        {
          "internalType": "uint256",
          "name": "maturity",
          "type": "uint256"
        },
        {
          "internalType": "bool",
          "name": "redeemed",
          "type": "bool"
        }
      ],
      "stateMutability": "view",
      "type": "function"
    },
    {
      "inputs": [
        {
          "internalType": "uint256",
          "name": "amount",
          "type": "uint256"
        },
        {
          "internalType": "uint256",
          "name": "maturity",
          "type": "uint256"
        }
      ],
      "name": "issueBond",
      "outputs": [],
      "stateMutability": "nonpayable",
      "type": "function"
    },
    {
      "inputs": [],
      "name": "nextBondId",
      "outputs": [
        {
          "internalType": "uint256",
          "name": "",
          "type": "uint256"
        }
      ],
      "stateMutability": "view",
      "type": "function"
    },
    {
      "inputs": [
        {
          "internalType": "uint256",
          "name": "bondId",
          "type": "uint256"
        }
      ],
      "name": "redeemBond",
      "outputs": [],
      "stateMutability": "nonpayable",
      "type": "function"
    }
  ],
  "bytecode": "0x6080604052348015600f57600080fd5b506107de8061001f6000396000f3fe608060405234801561001057600080fd5b506004361061004c5760003560e01c8063042a2077146100515780635f1c17c01461006d578063ee53a423146100a1578063f844a31c146100bf575b600080fd5b61006b60048036038101906100669190610451565b6100db565b005b61008760048036038101906100829190610451565b610275565b6040516100989594939291906104e9565b60405180910390f35b6100a96102d8565b6040516100b6919061053c565b60405180910390f35b6100d960048036038101906100d49190610557565b6102de565b005b60006001600083815260200190815260200160002090508060010160009054906101000a900473ffffffffffffffffffffffffffffffffffffffff1673ffffffffffffffffffffffffffffffffffffffff163373ffffffffffffffffffffffffffffffffffffffff1614610184576040517f08c379a000000000000000000000000000000000000000000000000000000000815260040161017b906105f4565b60405180910390fd5b8060040160009054906101000a900460ff16156101d6576040517f08c379a00000000000000000000000000000000000000000000000000000000081526004016101cd90610660565b60405180910390fd5b806003015442101561021d576040517f08c379a0000000000000000000000000000000000000000000000000000000008152600401610214906106cc565b60405180910390fd5b60018160040160006101000a81548160ff0219169083151502179055507fbd82a9940f188699a12ca8792f7c5e518188780cbb457b8d81e8c72fc0c12a9b82604051610269919061053c565b60405180910390a15050565b60016020528060005260406000206000915090508060000154908060010160009054906101000a900473ffffffffffffffffffffffffffffffffffffffff16908060020154908060030154908060040160009054906101000a900460ff16905085565b60005481565b6040518060a0016040528060005481526020013373ffffffffffffffffffffffffffffffffffffffff1681526020018381526020018281526020016000151581525060016000805481526020019081526020016000206000820151816000015560208201518160010160006101000a81548173ffffffffffffffffffffffffffffffffffffffff021916908373ffffffffffffffffffffffffffffffffffffffff160217905550604082015181600201556060820151816003015560808201518160040160006101000a81548160ff0219169083151502179055509050507f5da458acbbbbdd1ec07b172b17ddd97599915d827f519ed2456a614be6e41bdf6000543384846040516103f394939291906106ec565b60405180910390a160008081548092919061040d90610760565b91905055505050565b600080fd5b6000819050919050565b61042e8161041b565b811461043957600080fd5b50565b60008135905061044b81610425565b92915050565b60006020828403121561046757610466610416565b5b60006104758482850161043c565b91505092915050565b6104878161041b565b82525050565b600073ffffffffffffffffffffffffffffffffffffffff82169050919050565b60006104b88261048d565b9050919050565b6104c8816104ad565b82525050565b60008115159050919050565b6104e3816104ce565b82525050565b600060a0820190506104fe600083018861047e565b61050b60208301876104bf565b610518604083018661047e565b610525606083018561047e565b61053260808301846104da565b9695505050505050565b6000602082019050610551600083018461047e565b92915050565b6000806040838503121561056e5761056d610416565b5b600061057c8582860161043c565b925050602061058d8582860161043c565b9150509250929050565b600082825260208201905092915050565b7f4e6f7420626f6e64206973737565720000000000000000000000000000000000600082015250565b60006105de600f83610597565b91506105e9826105a8565b602082019050919050565b6000602082019050818103600083015261060d816105d1565b9050919050565b7f426f6e6420616c72656164792072656465656d65640000000000000000000000600082015250565b600061064a601583610597565b915061065582610614565b602082019050919050565b600060208201905081810360008301526106798161063d565b9050919050565b7f426f6e64206e6f74206d61747572656420796574000000000000000000000000600082015250565b60006106b6601483610597565b91506106c182610680565b602082019050919050565b600060208201905081810360008301526106e5816106a9565b9050919050565b6000608082019050610701600083018761047e565b61070e60208301866104bf565b61071b604083018561047e565b610728606083018461047e565b95945050505050565b7f4e487b7100000000000000000000000000000000000000000000000000000000600052601160045260246000fd5b600061076b8261041b565b91507fffffffffffffffffffffffffffffffffffffffffffffffffffffffffffffffff820361079d5761079c610731565b5b60018201905091905056fea2646970667358221220352cf641cdba8ff3213cc34b33176130a62130e43315657f41a92b95e4973a2664736f6c634300081b0033",
  "linkReferences": {},
  "deployedLinkReferences": {}
}