{
  "_format": "hh-sol-artifact-1",
  "contractName": "CertifiedResourceExchange",
  "sourceName": "contracts/CertifiedResourceExchange.sol",
  "abi": [
    {
      "anonymous": false,
      "inputs": [
        {
          "indexed": false,
          "internalType": "uint256",
          "name": "id",
          "type": "uint256"
        },
        {
          "indexed": false,
          "internalType": "address",
          "name": "owner",
          "type": "address"
        },
        {
          "indexed": false,
          "internalType": "uint256",
          "name": "price",
          "type": "uint256"
        }
      ],
      "name": "ResourceListed",
      "type": "event"
    },
    {
      "anonymous": false,
      "inputs": [
        {
          "indexed": false,
          "internalType": "uint256",
          "name": "id",
          "type": "uint256"
        },
        {
          "indexed": false,
          "internalType": "address",
          "name": "newOwner",
          "type": "address"
        },
        {
          "indexed": false,
          "internalType": "uint256",
          "name": "price",
          "type": "uint256"
        }
      ],
      "name": "ResourceSold",
      "type": "event"
    },
    {
      "inputs": [
        {
          "internalType": "uint256",
          "name": "resourceId",
          "type": "uint256"
        }
      ],
      "name": "buyResource",
      "outputs": [],
      "stateMutability": "payable",
      "type": "function"
    },
    {
      "inputs": [
        {
          "internalType": "uint256",
          "name": "price",
          "type": "uint256"
        }
      ],
      "name": "listResource",
      "outputs": [],
      "stateMutability": "nonpayable",
      "type": "function"
    },
    {
      "inputs": [],
      "name": "nextResourceId",
      "outputs": [
        {
          "internalType": "uint256",
          "name": "",
          "type": "uint256"
        }
      ],
      "stateMutability": "view",
      "type": "function"
    },
    {
      "inputs": [
        {
          "internalType": "uint256",
          "name": "",
          "type": "uint256"
        }
      ],
      "name": "resources",
      "outputs": [
        {
          "internalType": "uint256",
          "name": "id",
          "type": "uint256"
        },
        {
          "internalType": "address",
          "name": "owner",
          "type": "address"
        },
        {
          "internalType": "uint256",
          "name": "price",
          "type": "uint256"
        },
        {
          "internalType": "bool",
          "name": "forSale",
          "type": "bool"
        }
      ],
      "stateMutability": "view",
      "type": "function"
    }
  ],
  "bytecode": "0x6080604052348015600f57600080fd5b5061073f8061001f6000396000f3fe60806040526004361061003f5760003560e01c80631be40a0b14610044578063244d6daa1461006d5780634cabd462146100ad578063efad29bf146100c9575b600080fd5b34801561005057600080fd5b5061006b6004803603810190610066919061047a565b6100f4565b005b34801561007957600080fd5b50610094600480360381019061008f919061047a565b610219565b6040516100a49493929190610512565b60405180910390f35b6100c760048036038101906100c2919061047a565b610276565b005b3480156100d557600080fd5b506100de610439565b6040516100eb9190610557565b60405180910390f35b604051806080016040528060005481526020013373ffffffffffffffffffffffffffffffffffffffff1681526020018281526020016001151581525060016000805481526020019081526020016000206000820151816000015560208201518160010160006101000a81548173ffffffffffffffffffffffffffffffffffffffff021916908373ffffffffffffffffffffffffffffffffffffffff1602179055506040820151816002015560608201518160030160006101000a81548160ff0219169083151502179055509050507f4784d0ec7b281996d27e2532c474fbc6992bd8df862ddb0c9d8bfa5917041ee960005433836040516101f793929190610572565b60405180910390a1600080815480929190610211906105d8565b919050555050565b60016020528060005260406000206000915090508060000154908060010160009054906101000a900473ffffffffffffffffffffffffffffffffffffffff16908060020154908060030160009054906101000a900460ff16905084565b60006001600083815260200190815260200160002090508060030160009054906101000a900460ff166102de576040517f08c379a00000000000000000000000000000000000000000000000000000000081526004016102d59061067d565b60405180910390fd5b8060020154341015610325576040517f08c379a000000000000000000000000000000000000000000000000000000000815260040161031c906106e9565b60405180910390fd5b60008160010160009054906101000a900473ffffffffffffffffffffffffffffffffffffffff169050338260010160006101000a81548173ffffffffffffffffffffffffffffffffffffffff021916908373ffffffffffffffffffffffffffffffffffffffff16021790555060008260030160006101000a81548160ff0219169083151502179055508073ffffffffffffffffffffffffffffffffffffffff166108fc349081150290604051600060405180830381858888f193505050501580156103f4573d6000803e3d6000fd5b507f7cabf2f7dfc4e7af40568d00fb1b334c3a064888d5377e98e09689a4c7b49e1a8333846002015460405161042c93929190610572565b60405180910390a1505050565b60005481565b600080fd5b6000819050919050565b61045781610444565b811461046257600080fd5b50565b6000813590506104748161044e565b92915050565b6000602082840312156104905761048f61043f565b5b600061049e84828501610465565b91505092915050565b6104b081610444565b82525050565b600073ffffffffffffffffffffffffffffffffffffffff82169050919050565b60006104e1826104b6565b9050919050565b6104f1816104d6565b82525050565b60008115159050919050565b61050c816104f7565b82525050565b600060808201905061052760008301876104a7565b61053460208301866104e8565b61054160408301856104a7565b61054e6060830184610503565b95945050505050565b600060208201905061056c60008301846104a7565b92915050565b600060608201905061058760008301866104a7565b61059460208301856104e8565b6105a160408301846104a7565b949350505050565b7f4e487b7100000000000000000000000000000000000000000000000000000000600052601160045260246000fd5b60006105e382610444565b91507fffffffffffffffffffffffffffffffffffffffffffffffffffffffffffffffff8203610615576106146105a9565b5b600182019050919050565b600082825260208201905092915050565b7f5265736f75726365206e6f7420666f722073616c650000000000000000000000600082015250565b6000610667601583610620565b915061067282610631565b602082019050919050565b600060208201905081810360008301526106968161065a565b9050919050565b7f496e73756666696369656e74207061796d656e74000000000000000000000000600082015250565b60006106d3601483610620565b91506106de8261069d565b602082019050919050565b60006020820190508181036000830152610702816106c6565b905091905056fea2646970667358221220a4d381da951b83bde69449baf07e4274e7dcf6b162d0199269785ee5381c9df064736f6c634300081b0033",
  "linkReferences": {},
  "deployedLinkReferences": {}
}