{
  "_format": "hh-sol-artifact-1",
  "contractName": "HybridESGMultiToken",
  "sourceName": "contracts/HybridESGMultiToken.sol",
  "abi": [
    {
      "inputs": [
        {
          "internalType": "string",
          "name": "uri",
          "type": "string"
        }
      ],
      "stateMutability": "nonpayable",
      "type": "constructor"
    },
    {
      "inputs": [
        {
          "internalType": "address",
          "name": "sender",
          "type": "address"
        },
        {
          "internalType": "uint256",
          "name": "balance",
          "type": "uint256"
        },
        {
          "internalType": "uint256",
          "name": "needed",
          "type": "uint256"
        },
        {
          "internalType": "uint256",
          "name": "tokenId",
          "type": "uint256"
        }
      ],
      "name": "ERC1155InsufficientBalance",
      "type": "error"
    },
    {
      "inputs": [
        {
          "internalType": "address",
          "name": "approver",
          "type": "address"
        }
      ],
      "name": "ERC1155InvalidApprover",
      "type": "error"
    },
    {
      "inputs": [
        {
          "internalType": "uint256",
          "name": "idsLength",
          "type": "uint256"
        },
        {
          "internalType": "uint256",
          "name": "valuesLength",
          "type": "uint256"
        }
      ],
      "name": "ERC1155InvalidArrayLength",
      "type": "error"
    },
    {
      "inputs": [
        {
          "internalType": "address",
          "name": "operator",
          "type": "address"
        }
      ],
      "name": "ERC1155InvalidOperator",
      "type": "error"
    },
    {
      "inputs": [
        {
          "internalType": "address",
          "name": "receiver",
          "type": "address"
        }
      ],
      "name": "ERC1155InvalidReceiver",
      "type": "error"
    },
    {
      "inputs": [
        {
          "internalType": "address",
          "name": "sender",
          "type": "address"
        }
      ],
      "name": "ERC1155InvalidSender",
      "type": "error"
    },
    {
      "inputs": [
        {
          "internalType": "address",
          "name": "operator",
          "type": "address"
        },
        {
          "internalType": "address",
          "name": "owner",
          "type": "address"
        }
      ],
      "name": "ERC1155MissingApprovalForAll",
      "type": "error"
    },
    {
      "anonymous": false,
      "inputs": [
        {
          "indexed": true,
          "internalType": "address",
          "name": "account",
          "type": "address"
        },
        {
          "indexed": true,
          "internalType": "address",
          "name": "operator",
          "type": "address"
        },
        {
          "indexed": false,
          "internalType": "bool",
          "name": "approved",
          "type": "bool"
        }
      ],
      "name": "ApprovalForAll",
      "type": "event"
    },
    {
      "anonymous": false,
      "inputs": [
        {
          "indexed": true,
          "internalType": "uint256",
          "name": "batchId",
          "type": "uint256"
        },
        {
          "components": [
            {
              "internalType": "uint8",
              "name": "environmental",
              "type": "uint8"
            },
            {
              "internalType": "uint8",
              "name": "social",
              "type": "uint8"
            },
            {
              "internalType": "uint8",
              "name": "governance",
              "type": "uint8"
            }
          ],
          "indexed": false,
          "internalType": "struct HybridESGMultiToken.ESGCriteria",
          "name": "criteria",
          "type": "tuple"
        }
      ],
      "name": "ESGCriteriaUpdated",
      "type": "event"
    },
    {
      "anonymous": false,
      "inputs": [
        {
          "indexed": true,
          "internalType": "address",
          "name": "operator",
          "type": "address"
        },
        {
          "indexed": true,
          "internalType": "address",
          "name": "from",
          "type": "address"
        },
        {
          "indexed": true,
          "internalType": "address",
          "name": "to",
          "type": "address"
        },
        {
          "indexed": false,
          "internalType": "uint256[]",
          "name": "ids",
          "type": "uint256[]"
        },
        {
          "indexed": false,
          "internalType": "uint256[]",
          "name": "values",
          "type": "uint256[]"
        }
      ],
      "name": "TransferBatch",
      "type": "event"
    },
    {
      "anonymous": false,
      "inputs": [
        {
          "indexed": true,
          "internalType": "address",
          "name": "operator",
          "type": "address"
        },
        {
          "indexed": true,
          "internalType": "address",
          "name": "from",
          "type": "address"
        },
        {
          "indexed": true,
          "internalType": "address",
          "name": "to",
          "type": "address"
        },
        {
          "indexed": false,
          "internalType": "uint256",
          "name": "id",
          "type": "uint256"
        },
        {
          "indexed": false,
          "internalType": "uint256",
          "name": "value",
          "type": "uint256"
        }
      ],
      "name": "TransferSingle",
      "type": "event"
    },
    {
      "anonymous": false,
      "inputs": [
        {
          "indexed": false,
          "internalType": "string",
          "name": "value",
          "type": "string"
        },
        {
          "indexed": true,
          "internalType": "uint256",
          "name": "id",
          "type": "uint256"
        }
      ],
      "name": "URI",
      "type": "event"
    },
    {
      "inputs": [
        {
          "internalType": "address",
          "name": "account",
          "type": "address"
        },
        {
          "internalType": "uint256",
          "name": "id",
          "type": "uint256"
        }
      ],
      "name": "balanceOf",
      "outputs": [
        {
          "internalType": "uint256",
          "name": "",
          "type": "uint256"
        }
      ],
      "stateMutability": "view",
      "type": "function"
    },
    {
      "inputs": [
        {
          "internalType": "address[]",
          "name": "accounts",
          "type": "address[]"
        },
        {
          "internalType": "uint256[]",
          "name": "ids",
          "type": "uint256[]"
        }
      ],
      "name": "balanceOfBatch",
      "outputs": [
        {
          "internalType": "uint256[]",
          "name": "",
          "type": "uint256[]"
        }
      ],
      "stateMutability": "view",
      "type": "function"
    },
    {
      "inputs": [
        {
          "internalType": "uint256",
          "name": "batchId",
          "type": "uint256"
        },
        {
          "internalType": "uint256",
          "name": "amount",
          "type": "uint256"
        },
        {
          "internalType": "bytes",
          "name": "data",
          "type": "bytes"
        }
      ],
      "name": "createBatch",
      "outputs": [],
      "stateMutability": "nonpayable",
      "type": "function"
    },
    {
      "inputs": [
        {
          "internalType": "uint256",
          "name": "batchId",
          "type": "uint256"
        }
      ],
      "name": "getBatchESGCriteria",
      "outputs": [
        {
          "components": [
            {
              "internalType": "uint8",
              "name": "environmental",
              "type": "uint8"
            },
            {
              "internalType": "uint8",
              "name": "social",
              "type": "uint8"
            },
            {
              "internalType": "uint8",
              "name": "governance",
              "type": "uint8"
            }
          ],
          "internalType": "struct HybridESGMultiToken.ESGCriteria",
          "name": "",
          "type": "tuple"
        }
      ],
      "stateMutability": "view",
      "type": "function"
    },
    {
      "inputs": [
        {
          "internalType": "address",
          "name": "account",
          "type": "address"
        },
        {
          "internalType": "address",
          "name": "operator",
          "type": "address"
        }
      ],
      "name": "isApprovedForAll",
      "outputs": [
        {
          "internalType": "bool",
          "name": "",
          "type": "bool"
        }
      ],
      "stateMutability": "view",
      "type": "function"
    },
    {
      "inputs": [
        {
          "internalType": "address",
          "name": "from",
          "type": "address"
        },
        {
          "internalType": "address",
          "name": "to",
          "type": "address"
        },
        {
          "internalType": "uint256[]",
          "name": "ids",
          "type": "uint256[]"
        },
        {
          "internalType": "uint256[]",
          "name": "values",
          "type": "uint256[]"
        },
        {
          "internalType": "bytes",
          "name": "data",
          "type": "bytes"
        }
      ],
      "name": "safeBatchTransferFrom",
      "outputs": [],
      "stateMutability": "nonpayable",
      "type": "function"
    },
    {
      "inputs": [
        {
          "internalType": "address",
          "name": "from",
          "type": "address"
        },
        {
          "internalType": "address",
          "name": "to",
          "type": "address"
        },
        {
          "internalType": "uint256",
          "name": "id",
          "type": "uint256"
        },
        {
          "internalType": "uint256",
          "name": "value",
          "type": "uint256"
        },
        {
          "internalType": "bytes",
          "name": "data",
          "type": "bytes"
        }
      ],
      "name": "safeTransferFrom",
      "outputs": [],
      "stateMutability": "nonpayable",
      "type": "function"
    },
    {
      "inputs": [
        {
          "internalType": "address",
          "name": "operator",
          "type": "address"
        },
        {
          "internalType": "bool",
          "name": "approved",
          "type": "bool"
        }
      ],
      "name": "setApprovalForAll",
      "outputs": [],
      "stateMutability": "nonpayable",
      "type": "function"
    },
    {
      "inputs": [
        {
          "internalType": "uint256",
          "name": "batchId",
          "type": "uint256"
        },
        {
          "internalType": "uint8",
          "name": "environmental",
          "type": "uint8"
        },
        {
          "internalType": "uint8",
          "name": "social",
          "type": "uint8"
        },
        {
          "internalType": "uint8",
          "name": "governance",
          "type": "uint8"
        }
      ],
      "name": "setBatchESGCriteria",
      "outputs": [],
      "stateMutability": "nonpayable",
      "type": "function"
    },
    {
      "inputs": [
        {
          "internalType": "bytes4",
          "name": "interfaceId",
          "type": "bytes4"
        }
      ],
      "name": "supportsInterface",
      "outputs": [
        {
          "internalType": "bool",
          "name": "",
          "type": "bool"
        }
      ],
      "stateMutability": "view",
      "type": "function"
    },
    {
      "inputs": [
        {
          "internalType": "uint256",
          "name": "",
          "type": "uint256"
        }
      ],
      "name": "uri",
      "outputs": [
        {
          "internalType": "string",
          "name": "",
          "type": "string"
        }
      ],
      "stateMutability": "view",
      "type": "function"
    }
  ],
  "bytecode": "0x608060405234801561001057600080fd5b5060405161294a38038061294a833981810160405281019061003291906101d1565b806100428161004960201b60201c565b505061050d565b8060029081610058919061043b565b5050565b6000604051905090565b600080fd5b600080fd5b600080fd5b600080fd5b6000601f19601f8301169050919050565b7f4e487b7100000000000000000000000000000000000000000000000000000000600052604160045260246000fd5b6100c38261007a565b810181811067ffffffffffffffff821117156100e2576100e161008b565b5b80604052505050565b60006100f561005c565b905061010182826100ba565b919050565b600067ffffffffffffffff8211156101215761012061008b565b5b61012a8261007a565b9050602081019050919050565b60005b8381101561015557808201518184015260208101905061013a565b60008484015250505050565b600061017461016f84610106565b6100eb565b9050828152602081018484840111156101905761018f610075565b5b61019b848285610137565b509392505050565b600082601f8301126101b8576101b7610070565b5b81516101c8848260208601610161565b91505092915050565b6000602082840312156101e7576101e6610066565b5b600082015167ffffffffffffffff8111156102055761020461006b565b5b610211848285016101a3565b91505092915050565b600081519050919050565b7f4e487b7100000000000000000000000000000000000000000000000000000000600052602260045260246000fd5b6000600282049050600182168061026c57607f821691505b60208210810361027f5761027e610225565b5b50919050565b60008190508160005260206000209050919050565b60006020601f8301049050919050565b600082821b905092915050565b6000600883026102e77fffffffffffffffffffffffffffffffffffffffffffffffffffffffffffffffff826102aa565b6102f186836102aa565b95508019841693508086168417925050509392505050565b6000819050919050565b6000819050919050565b600061033861033361032e84610309565b610313565b610309565b9050919050565b6000819050919050565b6103528361031d565b61036661035e8261033f565b8484546102b7565b825550505050565b600090565b61037b61036e565b610386818484610349565b505050565b5b818110156103aa5761039f600082610373565b60018101905061038c565b5050565b601f8211156103ef576103c081610285565b6103c98461029a565b810160208510156103d8578190505b6103ec6103e48561029a565b83018261038b565b50505b505050565b600082821c905092915050565b6000610412600019846008026103f4565b1980831691505092915050565b600061042b8383610401565b9150826002028217905092915050565b6104448261021a565b67ffffffffffffffff81111561045d5761045c61008b565b5b6104678254610254565b6104728282856103ae565b600060209050601f8311600181146104a55760008415610493578287015190505b61049d858261041f565b865550610505565b601f1984166104b386610285565b60005b828110156104db578489015182556001820191506020850194506020810190506104b6565b868310156104f857848901516104f4601f891682610401565b8355505b6001600288020188555050505b505050505050565b61242e8061051c6000396000f3fe608060405234801561001057600080fd5b50600436106100a85760003560e01c80636b6c5ee9116100715780636b6c5ee914610189578063a22cb465146101a5578063b3e1094b146101c1578063cb4d6fa0146101f1578063e985e9c51461020d578063f242432a1461023d576100a8565b8062fdd58e146100ad57806301ffc9a7146100dd5780630e89341c1461010d5780632eb2c2d61461013d5780634e1273f414610159575b600080fd5b6100c760048036038101906100c29190611618565b610259565b6040516100d49190611667565b60405180910390f35b6100f760048036038101906100f291906116da565b6102b3565b6040516101049190611722565b60405180910390f35b6101276004803603810190610122919061173d565b610395565b60405161013491906117fa565b60405180910390f35b61015760048036038101906101529190611a19565b610429565b005b610173600480360381019061016e9190611bab565b6104d1565b6040516101809190611ce1565b60405180910390f35b6101a3600480360381019061019e9190611d3c565b6105da565b005b6101bf60048036038101906101ba9190611dcf565b6106c7565b005b6101db60048036038101906101d6919061173d565b6106dd565b6040516101e89190611e60565b60405180910390f35b61020b60048036038101906102069190611e7b565b610761565b005b61022760048036038101906102229190611eea565b610772565b6040516102349190611722565b60405180910390f35b61025760048036038101906102529190611f2a565b610806565b005b600080600083815260200190815260200160002060008473ffffffffffffffffffffffffffffffffffffffff1673ffffffffffffffffffffffffffffffffffffffff16815260200190815260200160002054905092915050565b60007fd9b67a26000000000000000000000000000000000000000000000000000000007bffffffffffffffffffffffffffffffffffffffffffffffffffffffff1916827bffffffffffffffffffffffffffffffffffffffffffffffffffffffff1916148061037e57507f0e89341c000000000000000000000000000000000000000000000000000000007bffffffffffffffffffffffffffffffffffffffffffffffffffffffff1916827bffffffffffffffffffffffffffffffffffffffffffffffffffffffff1916145b8061038e575061038d826108ae565b5b9050919050565b6060600280546103a490611ff0565b80601f01602080910402602001604051908101604052809291908181526020018280546103d090611ff0565b801561041d5780601f106103f25761010080835404028352916020019161041d565b820191906000526020600020905b81548152906001019060200180831161040057829003601f168201915b50505050509050919050565b6000610433610918565b90508073ffffffffffffffffffffffffffffffffffffffff168673ffffffffffffffffffffffffffffffffffffffff161415801561047857506104768682610772565b155b156104bc5780866040517fe237d9220000000000000000000000000000000000000000000000000000000081526004016104b3929190612030565b60405180910390fd5b6104c98686868686610920565b505050505050565b6060815183511461051d57815183516040517f5b059991000000000000000000000000000000000000000000000000000000008152600401610514929190612059565b60405180910390fd5b6000835167ffffffffffffffff81111561053a57610539611821565b5b6040519080825280602002602001820160405280156105685781602001602082028036833780820191505090505b50905060005b84518110156105cf576105a561058d8287610a1890919063ffffffff16565b6105a08387610a2c90919063ffffffff16565b610259565b8282815181106105b8576105b7612082565b5b60200260200101818152505080600101905061056e565b508091505092915050565b60405180606001604052808460ff1681526020018360ff1681526020018260ff168152506003600086815260200190815260200160002060008201518160000160006101000a81548160ff021916908360ff16021790555060208201518160000160016101000a81548160ff021916908360ff16021790555060408201518160000160026101000a81548160ff021916908360ff160217905550905050837fb41377db2912ea2fb51e9dd65c768e198c199b5dd86b8269a7f98da2f212d339600360008781526020019081526020016000206040516106b9919061218a565b60405180910390a250505050565b6106d96106d2610918565b8383610a40565b5050565b6106e5611546565b600360008381526020019081526020016000206040518060600160405290816000820160009054906101000a900460ff1660ff1660ff1681526020016000820160019054906101000a900460ff1660ff1660ff1681526020016000820160029054906101000a900460ff1660ff1660ff16815250509050919050565b61076d33848484610bb0565b505050565b6000600160008473ffffffffffffffffffffffffffffffffffffffff1673ffffffffffffffffffffffffffffffffffffffff16815260200190815260200160002060008373ffffffffffffffffffffffffffffffffffffffff1673ffffffffffffffffffffffffffffffffffffffff16815260200190815260200160002060009054906101000a900460ff16905092915050565b6000610810610918565b90508073ffffffffffffffffffffffffffffffffffffffff168673ffffffffffffffffffffffffffffffffffffffff161415801561085557506108538682610772565b155b156108995780866040517fe237d922000000000000000000000000000000000000000000000000000000008152600401610890929190612030565b60405180910390fd5b6108a68686868686610c49565b505050505050565b60007f01ffc9a7000000000000000000000000000000000000000000000000000000007bffffffffffffffffffffffffffffffffffffffffffffffffffffffff1916827bffffffffffffffffffffffffffffffffffffffffffffffffffffffff1916149050919050565b600033905090565b600073ffffffffffffffffffffffffffffffffffffffff168473ffffffffffffffffffffffffffffffffffffffff16036109925760006040517f57f447ce00000000000000000000000000000000000000000000000000000000815260040161098991906121a5565b60405180910390fd5b600073ffffffffffffffffffffffffffffffffffffffff168573ffffffffffffffffffffffffffffffffffffffff1603610a045760006040517f01a835140000000000000000000000000000000000000000000000000000000081526004016109fb91906121a5565b60405180910390fd5b610a118585858585610d54565b5050505050565b600060208202602084010151905092915050565b600060208202602084010151905092915050565b600073ffffffffffffffffffffffffffffffffffffffff168273ffffffffffffffffffffffffffffffffffffffff1603610ab25760006040517fced3e100000000000000000000000000000000000000000000000000000000008152600401610aa991906121a5565b60405180910390fd5b80600160008573ffffffffffffffffffffffffffffffffffffffff1673ffffffffffffffffffffffffffffffffffffffff16815260200190815260200160002060008473ffffffffffffffffffffffffffffffffffffffff1673ffffffffffffffffffffffffffffffffffffffff16815260200190815260200160002060006101000a81548160ff0219169083151502179055508173ffffffffffffffffffffffffffffffffffffffff168373ffffffffffffffffffffffffffffffffffffffff167f17307eab39ab6107e8899845ad3d59bd9653f200f220920489ca2b5937696c3183604051610ba39190611722565b60405180910390a3505050565b600073ffffffffffffffffffffffffffffffffffffffff168473ffffffffffffffffffffffffffffffffffffffff1603610c225760006040517f57f447ce000000000000000000000000000000000000000000000000000000008152600401610c1991906121a5565b60405180910390fd5b600080610c2f8585610e06565b91509150610c41600087848487610d54565b505050505050565b600073ffffffffffffffffffffffffffffffffffffffff168473ffffffffffffffffffffffffffffffffffffffff1603610cbb5760006040517f57f447ce000000000000000000000000000000000000000000000000000000008152600401610cb291906121a5565b60405180910390fd5b600073ffffffffffffffffffffffffffffffffffffffff168573ffffffffffffffffffffffffffffffffffffffff1603610d2d5760006040517f01a83514000000000000000000000000000000000000000000000000000000008152600401610d2491906121a5565b60405180910390fd5b600080610d3a8585610e06565b91509150610d4b8787848487610d54565b50505050505050565b610d6085858585610e36565b600073ffffffffffffffffffffffffffffffffffffffff168473ffffffffffffffffffffffffffffffffffffffff1614610dff576000610d9e610918565b90506001845103610dee576000610dbf600086610a2c90919063ffffffff16565b90506000610dd7600086610a2c90919063ffffffff16565b9050610de78389898585896111de565b5050610dfd565b610dfc818787878787611392565b5b505b5050505050565b60608060405191506001825283602083015260408201905060018152826020820152604081016040529250929050565b8051825114610e8057815181516040517f5b059991000000000000000000000000000000000000000000000000000000008152600401610e77929190612059565b60405180910390fd5b6000610e8a610918565b905060005b8351811015611099576000610ead8286610a2c90919063ffffffff16565b90506000610ec48386610a2c90919063ffffffff16565b9050600073ffffffffffffffffffffffffffffffffffffffff168873ffffffffffffffffffffffffffffffffffffffff1614610ff157600080600084815260200190815260200160002060008a73ffffffffffffffffffffffffffffffffffffffff1673ffffffffffffffffffffffffffffffffffffffff16815260200190815260200160002054905081811015610f9957888183856040517f03dee4c5000000000000000000000000000000000000000000000000000000008152600401610f9094939291906121c0565b60405180910390fd5b81810360008085815260200190815260200160002060008b73ffffffffffffffffffffffffffffffffffffffff1673ffffffffffffffffffffffffffffffffffffffff16815260200190815260200160002081905550505b600073ffffffffffffffffffffffffffffffffffffffff168773ffffffffffffffffffffffffffffffffffffffff161461108c578060008084815260200190815260200160002060008973ffffffffffffffffffffffffffffffffffffffff1673ffffffffffffffffffffffffffffffffffffffff16815260200190815260200160002060008282546110849190612234565b925050819055505b5050806001019050610e8f565b5060018351036111585760006110b9600085610a2c90919063ffffffff16565b905060006110d1600085610a2c90919063ffffffff16565b90508573ffffffffffffffffffffffffffffffffffffffff168773ffffffffffffffffffffffffffffffffffffffff168473ffffffffffffffffffffffffffffffffffffffff167fc3d58168c5ae7397731d063d5bbf3d657854427343f4c083240f7aacaa2d0f628585604051611149929190612059565b60405180910390a450506111d7565b8373ffffffffffffffffffffffffffffffffffffffff168573ffffffffffffffffffffffffffffffffffffffff168273ffffffffffffffffffffffffffffffffffffffff167f4a39dc06d4c0dbc64b70af90fd698a233a518aa5d07e595d983b8c0526c8f7fb86866040516111ce929190612268565b60405180910390a45b5050505050565b60008473ffffffffffffffffffffffffffffffffffffffff163b111561138a578373ffffffffffffffffffffffffffffffffffffffff1663f23a6e6187878686866040518663ffffffff1660e01b815260040161123f9594939291906122f4565b6020604051808303816000875af192505050801561127b57506040513d601f19601f820116820180604052508101906112789190612363565b60015b6112ff573d80600081146112ab576040519150601f19603f3d011682016040523d82523d6000602084013e6112b0565b606091505b5060008151036112f757846040517f57f447ce0000000000000000000000000000000000000000000000000000000081526004016112ee91906121a5565b60405180910390fd5b805181602001fd5b63f23a6e6160e01b7bffffffffffffffffffffffffffffffffffffffffffffffffffffffff1916817bffffffffffffffffffffffffffffffffffffffffffffffffffffffff19161461138857846040517f57f447ce00000000000000000000000000000000000000000000000000000000815260040161137f91906121a5565b60405180910390fd5b505b505050505050565b60008473ffffffffffffffffffffffffffffffffffffffff163b111561153e578373ffffffffffffffffffffffffffffffffffffffff1663bc197c8187878686866040518663ffffffff1660e01b81526004016113f3959493929190612390565b6020604051808303816000875af192505050801561142f57506040513d601f19601f8201168201806040525081019061142c9190612363565b60015b6114b3573d806000811461145f576040519150601f19603f3d011682016040523d82523d6000602084013e611464565b606091505b5060008151036114ab57846040517f57f447ce0000000000000000000000000000000000000000000000000000000081526004016114a291906121a5565b60405180910390fd5b805181602001fd5b63bc197c8160e01b7bffffffffffffffffffffffffffffffffffffffffffffffffffffffff1916817bffffffffffffffffffffffffffffffffffffffffffffffffffffffff19161461153c57846040517f57f447ce00000000000000000000000000000000000000000000000000000000815260040161153391906121a5565b60405180910390fd5b505b505050505050565b6040518060600160405280600060ff168152602001600060ff168152602001600060ff1681525090565b6000604051905090565b600080fd5b600080fd5b600073ffffffffffffffffffffffffffffffffffffffff82169050919050565b60006115af82611584565b9050919050565b6115bf816115a4565b81146115ca57600080fd5b50565b6000813590506115dc816115b6565b92915050565b6000819050919050565b6115f5816115e2565b811461160057600080fd5b50565b600081359050611612816115ec565b92915050565b6000806040838503121561162f5761162e61157a565b5b600061163d858286016115cd565b925050602061164e85828601611603565b9150509250929050565b611661816115e2565b82525050565b600060208201905061167c6000830184611658565b92915050565b60007fffffffff0000000000000000000000000000000000000000000000000000000082169050919050565b6116b781611682565b81146116c257600080fd5b50565b6000813590506116d4816116ae565b92915050565b6000602082840312156116f0576116ef61157a565b5b60006116fe848285016116c5565b91505092915050565b60008115159050919050565b61171c81611707565b82525050565b60006020820190506117376000830184611713565b92915050565b6000602082840312156117535761175261157a565b5b600061176184828501611603565b91505092915050565b600081519050919050565b600082825260208201905092915050565b60005b838110156117a4578082015181840152602081019050611789565b60008484015250505050565b6000601f19601f8301169050919050565b60006117cc8261176a565b6117d68185611775565b93506117e6818560208601611786565b6117ef816117b0565b840191505092915050565b6000602082019050818103600083015261181481846117c1565b905092915050565b600080fd5b7f4e487b7100000000000000000000000000000000000000000000000000000000600052604160045260246000fd5b611859826117b0565b810181811067ffffffffffffffff8211171561187857611877611821565b5b80604052505050565b600061188b611570565b90506118978282611850565b919050565b600067ffffffffffffffff8211156118b7576118b6611821565b5b602082029050602081019050919050565b600080fd5b60006118e06118db8461189c565b611881565b90508083825260208201905060208402830185811115611903576119026118c8565b5b835b8181101561192c57806119188882611603565b845260208401935050602081019050611905565b5050509392505050565b600082601f83011261194b5761194a61181c565b5b813561195b8482602086016118cd565b91505092915050565b600080fd5b600067ffffffffffffffff82111561198457611983611821565b5b61198d826117b0565b9050602081019050919050565b82818337600083830152505050565b60006119bc6119b784611969565b611881565b9050828152602081018484840111156119d8576119d7611964565b5b6119e384828561199a565b509392505050565b600082601f830112611a00576119ff61181c565b5b8135611a108482602086016119a9565b91505092915050565b600080600080600060a08688031215611a3557611a3461157a565b5b6000611a43888289016115cd565b9550506020611a54888289016115cd565b945050604086013567ffffffffffffffff811115611a7557611a7461157f565b5b611a8188828901611936565b935050606086013567ffffffffffffffff811115611aa257611aa161157f565b5b611aae88828901611936565b925050608086013567ffffffffffffffff811115611acf57611ace61157f565b5b611adb888289016119eb565b9150509295509295909350565b600067ffffffffffffffff821115611b0357611b02611821565b5b602082029050602081019050919050565b6000611b27611b2284611ae8565b611881565b90508083825260208201905060208402830185811115611b4a57611b496118c8565b5b835b81811015611b735780611b5f88826115cd565b845260208401935050602081019050611b4c565b5050509392505050565b600082601f830112611b9257611b9161181c565b5b8135611ba2848260208601611b14565b91505092915050565b60008060408385031215611bc257611bc161157a565b5b600083013567ffffffffffffffff811115611be057611bdf61157f565b5b611bec85828601611b7d565b925050602083013567ffffffffffffffff811115611c0d57611c0c61157f565b5b611c1985828601611936565b9150509250929050565b600081519050919050565b600082825260208201905092915050565b6000819050602082019050919050565b611c58816115e2565b82525050565b6000611c6a8383611c4f565b60208301905092915050565b6000602082019050919050565b6000611c8e82611c23565b611c988185611c2e565b9350611ca383611c3f565b8060005b83811015611cd4578151611cbb8882611c5e565b9750611cc683611c76565b925050600181019050611ca7565b5085935050505092915050565b60006020820190508181036000830152611cfb8184611c83565b905092915050565b600060ff82169050919050565b611d1981611d03565b8114611d2457600080fd5b50565b600081359050611d3681611d10565b92915050565b60008060008060808587031215611d5657611d5561157a565b5b6000611d6487828801611603565b9450506020611d7587828801611d27565b9350506040611d8687828801611d27565b9250506060611d9787828801611d27565b91505092959194509250565b611dac81611707565b8114611db757600080fd5b50565b600081359050611dc981611da3565b92915050565b60008060408385031215611de657611de561157a565b5b6000611df4858286016115cd565b9250506020611e0585828601611dba565b9150509250929050565b611e1881611d03565b82525050565b606082016000820151611e346000850182611e0f565b506020820151611e476020850182611e0f565b506040820151611e5a6040850182611e0f565b50505050565b6000606082019050611e756000830184611e1e565b92915050565b600080600060608486031215611e9457611e9361157a565b5b6000611ea286828701611603565b9350506020611eb386828701611603565b925050604084013567ffffffffffffffff811115611ed457611ed361157f565b5b611ee0868287016119eb565b9150509250925092565b60008060408385031215611f0157611f0061157a565b5b6000611f0f858286016115cd565b9250506020611f20858286016115cd565b9150509250929050565b600080600080600060a08688031215611f4657611f4561157a565b5b6000611f54888289016115cd565b9550506020611f65888289016115cd565b9450506040611f7688828901611603565b9350506060611f8788828901611603565b925050608086013567ffffffffffffffff811115611fa857611fa761157f565b5b611fb4888289016119eb565b9150509295509295909350565b7f4e487b7100000000000000000000000000000000000000000000000000000000600052602260045260246000fd5b6000600282049050600182168061200857607f821691505b60208210810361201b5761201a611fc1565b5b50919050565b61202a816115a4565b82525050565b60006040820190506120456000830185612021565b6120526020830184612021565b9392505050565b600060408201905061206e6000830185611658565b61207b6020830184611658565b9392505050565b7f4e487b7100000000000000000000000000000000000000000000000000000000600052603260045260246000fd5b60008160001c9050919050565b600060ff82169050919050565b60006120de6120d9836120b1565b6120be565b9050919050565b60008160081c9050919050565b6000612105612100836120e5565b6120be565b9050919050565b60008160101c9050919050565b600061212c6121278361210c565b6120be565b9050919050565b606082016000808301549050612148816120cb565b6121556000860182611e0f565b5061215f816120f2565b61216c6020860182611e0f565b5061217681612119565b6121836040860182611e0f565b5050505050565b600060608201905061219f6000830184612133565b92915050565b60006020820190506121ba6000830184612021565b92915050565b60006080820190506121d56000830187612021565b6121e26020830186611658565b6121ef6040830185611658565b6121fc6060830184611658565b95945050505050565b7f4e487b7100000000000000000000000000000000000000000000000000000000600052601160045260246000fd5b600061223f826115e2565b915061224a836115e2565b925082820190508082111561226257612261612205565b5b92915050565b600060408201905081810360008301526122828185611c83565b905081810360208301526122968184611c83565b90509392505050565b600081519050919050565b600082825260208201905092915050565b60006122c68261229f565b6122d081856122aa565b93506122e0818560208601611786565b6122e9816117b0565b840191505092915050565b600060a0820190506123096000830188612021565b6123166020830187612021565b6123236040830186611658565b6123306060830185611658565b818103608083015261234281846122bb565b90509695505050505050565b60008151905061235d816116ae565b92915050565b6000602082840312156123795761237861157a565b5b60006123878482850161234e565b91505092915050565b600060a0820190506123a56000830188612021565b6123b26020830187612021565b81810360408301526123c48186611c83565b905081810360608301526123d88185611c83565b905081810360808301526123ec81846122bb565b9050969550505050505056fea264697066735822122069ca01783334295200ab629ebbc313c56953a61083e7300f3b86d423fcd776b464736f6c634300081b0033",
  "linkReferences": {},
  "deployedLinkReferences": {}
}