{
  "_format": "hh-sol-artifact-1",
  "contractName": "HybridESGMultiToken",
  "sourceName": "contracts/HybridESGMultiToken.sol",
  "abi": [
    {
      "inputs": [
        {
          "internalType": "string",
          "name": "uri",
          "type": "string"
        }
      ],
      "stateMutability": "nonpayable",
      "type": "constructor"
    },
    {
      "inputs": [
        {
          "internalType": "address",
          "name": "sender",
          "type": "address"
        },
        {
          "internalType": "uint256",
          "name": "balance",
          "type": "uint256"
        },
        {
          "internalType": "uint256",
          "name": "needed",
          "type": "uint256"
        },
        {
          "internalType": "uint256",
          "name": "tokenId",
          "type": "uint256"
        }
      ],
      "name": "ERC1155InsufficientBalance",
      "type": "error"
    },
    {
      "inputs": [
        {
          "internalType": "address",
          "name": "approver",
          "type": "address"
        }
      ],
      "name": "ERC1155InvalidApprover",
      "type": "error"
    },
    {
      "inputs": [
        {
          "internalType": "uint256",
          "name": "idsLength",
          "type": "uint256"
        },
        {
          "internalType": "uint256",
          "name": "valuesLength",
          "type": "uint256"
        }
      ],
      "name": "ERC1155InvalidArrayLength",
      "type": "error"
    },
    {
      "inputs": [
        {
          "internalType": "address",
          "name": "operator",
          "type": "address"
        }
      ],
      "name": "ERC1155InvalidOperator",
      "type": "error"
    },
    {
      "inputs": [
        {
          "internalType": "address",
          "name": "receiver",
          "type": "address"
        }
      ],
      "name": "ERC1155InvalidReceiver",
      "type": "error"
    },
    {
      "inputs": [
        {
          "internalType": "address",
          "name": "sender",
          "type": "address"
        }
      ],
      "name": "ERC1155InvalidSender",
      "type": "error"
    },
    {
      "inputs": [
        {
          "internalType": "address",
          "name": "operator",
          "type": "address"
        },
        {
          "internalType": "address",
          "name": "owner",
          "type": "address"
        }
      ],
      "name": "ERC1155MissingApprovalForAll",
      "type": "error"
    },
    {
      "anonymous": false,
      "inputs": [
        {
          "indexed": true,
          "internalType": "address",
          "name": "account",
          "type": "address"
        },
        {
          "indexed": true,
          "internalType": "address",
          "name": "operator",
          "type": "address"
        },
        {
          "indexed": false,
          "internalType": "bool",
          "name": "approved",
          "type": "bool"
        }
      ],
      "name": "ApprovalForAll",
      "type": "event"
    },
    {
      "anonymous": false,
      "inputs": [
        {
          "indexed": true,
          "internalType": "uint256",
          "name": "batchId",
          "type": "uint256"
        },
        {
          "components": [
            {
              "internalType": "uint8",
              "name": "environmental",
              "type": "uint8"
            },
            {
              "internalType": "uint8",
              "name": "social",
              "type": "uint8"
            },
            {
              "internalType": "uint8",
              "name": "governance",
              "type": "uint8"
            }
          ],
          "indexed": false,
          "internalType": "struct HybridESGMultiToken.ESGCriteria",
          "name": "criteria",
          "type": "tuple"
        }
      ],
      "name": "ESGCriteriaUpdated",
      "type": "event"
    },
    {
      "anonymous": false,
      "inputs": [
        {
          "indexed": true,
          "internalType": "address",
          "name": "operator",
          "type": "address"
        },
        {
          "indexed": true,
          "internalType": "address",
          "name": "from",
          "type": "address"
        },
        {
          "indexed": true,
          "internalType": "address",
          "name": "to",
          "type": "address"
        },
        {
          "indexed": false,
          "internalType": "uint256[]",
          "name": "ids",
          "type": "uint256[]"
        },
        {
          "indexed": false,
          "internalType": "uint256[]",
          "name": "values",
          "type": "uint256[]"
        }
      ],
      "name": "TransferBatch",
      "type": "event"
    },
    {
      "anonymous": false,
      "inputs": [
        {
          "indexed": true,
          "internalType": "address",
          "name": "operator",
          "type": "address"
        },
        {
          "indexed": true,
          "internalType": "address",
          "name": "from",
          "type": "address"
        },
        {
          "indexed": true,
          "internalType": "address",
          "name": "to",
          "type": "address"
        },
        {
          "indexed": false,
          "internalType": "uint256",
          "name": "id",
          "type": "uint256"
        },
        {
          "indexed": false,
          "internalType": "uint256",
          "name": "value",
          "type": "uint256"
        }
      ],
      "name": "TransferSingle",
      "type": "event"
    },
    {
      "anonymous": false,
      "inputs": [
        {
          "indexed": false,
          "internalType": "string",
          "name": "value",
          "type": "string"
        },
        {
          "indexed": true,
          "internalType": "uint256",
          "name": "id",
          "type": "uint256"
        }
      ],
      "name": "URI",
      "type": "event"
    },
    {
      "inputs": [
        {
          "internalType": "address",
          "name": "account",
          "type": "address"
        },
        {
          "internalType": "uint256",
          "name": "id",
          "type": "uint256"
        }
      ],
      "name": "balanceOf",
      "outputs": [
        {
          "internalType": "uint256",
          "name": "",
          "type": "uint256"
        }
      ],
      "stateMutability": "view",
      "type": "function"
    },
    {
      "inputs": [
        {
          "internalType": "address[]",
          "name": "accounts",
          "type": "address[]"
        },
        {
          "internalType": "uint256[]",
          "name": "ids",
          "type": "uint256[]"
        }
      ],
      "name": "balanceOfBatch",
      "outputs": [
        {
          "internalType": "uint256[]",
          "name": "",
          "type": "uint256[]"
        }
      ],
      "stateMutability": "view",
      "type": "function"
    },
    {
      "inputs": [
        {
          "internalType": "uint256",
          "name": "batchId",
          "type": "uint256"
        },
        {
          "internalType": "uint256",
          "name": "amount",
          "type": "uint256"
        },
        {
          "internalType": "bytes",
          "name": "data",
          "type": "bytes"
        }
      ],
      "name": "createBatch",
      "outputs": [],
      "stateMutability": "nonpayable",
      "type": "function"
    },
    {
      "inputs": [],
      "name": "getAllBatchIds",
      "outputs": [
        {
          "internalType": "uint256[]",
          "name": "",
          "type": "uint256[]"
        }
      ],
      "stateMutability": "view",
      "type": "function"
    },
    {
      "inputs": [
        {
          "internalType": "uint256",
          "name": "batchId",
          "type": "uint256"
        }
      ],
      "name": "getBatchESGCriteria",
      "outputs": [
        {
          "components": [
            {
              "internalType": "uint8",
              "name": "environmental",
              "type": "uint8"
            },
            {
              "internalType": "uint8",
              "name": "social",
              "type": "uint8"
            },
            {
              "internalType": "uint8",
              "name": "governance",
              "type": "uint8"
            }
          ],
          "internalType": "struct HybridESGMultiToken.ESGCriteria",
          "name": "",
          "type": "tuple"
        }
      ],
      "stateMutability": "view",
      "type": "function"
    },
    {
      "inputs": [
        {
          "internalType": "address",
          "name": "account",
          "type": "address"
        },
        {
          "internalType": "address",
          "name": "operator",
          "type": "address"
        }
      ],
      "name": "isApprovedForAll",
      "outputs": [
        {
          "internalType": "bool",
          "name": "",
          "type": "bool"
        }
      ],
      "stateMutability": "view",
      "type": "function"
    },
    {
      "inputs": [
        {
          "internalType": "address",
          "name": "from",
          "type": "address"
        },
        {
          "internalType": "address",
          "name": "to",
          "type": "address"
        },
        {
          "internalType": "uint256[]",
          "name": "ids",
          "type": "uint256[]"
        },
        {
          "internalType": "uint256[]",
          "name": "values",
          "type": "uint256[]"
        },
        {
          "internalType": "bytes",
          "name": "data",
          "type": "bytes"
        }
      ],
      "name": "safeBatchTransferFrom",
      "outputs": [],
      "stateMutability": "nonpayable",
      "type": "function"
    },
    {
      "inputs": [
        {
          "internalType": "address",
          "name": "from",
          "type": "address"
        },
        {
          "internalType": "address",
          "name": "to",
          "type": "address"
        },
        {
          "internalType": "uint256",
          "name": "id",
          "type": "uint256"
        },
        {
          "internalType": "uint256",
          "name": "value",
          "type": "uint256"
        },
        {
          "internalType": "bytes",
          "name": "data",
          "type": "bytes"
        }
      ],
      "name": "safeTransferFrom",
      "outputs": [],
      "stateMutability": "nonpayable",
      "type": "function"
    },
    {
      "inputs": [
        {
          "internalType": "address",
          "name": "operator",
          "type": "address"
        },
        {
          "internalType": "bool",
          "name": "approved",
          "type": "bool"
        }
      ],
      "name": "setApprovalForAll",
      "outputs": [],
      "stateMutability": "nonpayable",
      "type": "function"
    },
    {
      "inputs": [
        {
          "internalType": "uint256",
          "name": "batchId",
          "type": "uint256"
        },
        {
          "internalType": "uint8",
          "name": "environmental",
          "type": "uint8"
        },
        {
          "internalType": "uint8",
          "name": "social",
          "type": "uint8"
        },
        {
          "internalType": "uint8",
          "name": "governance",
          "type": "uint8"
        }
      ],
      "name": "setBatchESGCriteria",
      "outputs": [],
      "stateMutability": "nonpayable",
      "type": "function"
    },
    {
      "inputs": [
        {
          "internalType": "bytes4",
          "name": "interfaceId",
          "type": "bytes4"
        }
      ],
      "name": "supportsInterface",
      "outputs": [
        {
          "internalType": "bool",
          "name": "",
          "type": "bool"
        }
      ],
      "stateMutability": "view",
      "type": "function"
    },
    {
      "inputs": [
        {
          "internalType": "uint256",
          "name": "",
          "type": "uint256"
        }
      ],
      "name": "uri",
      "outputs": [
        {
          "internalType": "string",
          "name": "",
          "type": "string"
        }
      ],
      "stateMutability": "view",
      "type": "function"
    }
  ],
  "bytecode": "0x608060405234801561001057600080fd5b506040516129f43803806129f4833981810160405281019061003291906101d1565b806100428161004960201b60201c565b505061050d565b8060029081610058919061043b565b5050565b6000604051905090565b600080fd5b600080fd5b600080fd5b600080fd5b6000601f19601f8301169050919050565b7f4e487b7100000000000000000000000000000000000000000000000000000000600052604160045260246000fd5b6100c38261007a565b810181811067ffffffffffffffff821117156100e2576100e161008b565b5b80604052505050565b60006100f561005c565b905061010182826100ba565b919050565b600067ffffffffffffffff8211156101215761012061008b565b5b61012a8261007a565b9050602081019050919050565b60005b8381101561015557808201518184015260208101905061013a565b60008484015250505050565b600061017461016f84610106565b6100eb565b9050828152602081018484840111156101905761018f610075565b5b61019b848285610137565b509392505050565b600082601f8301126101b8576101b7610070565b5b81516101c8848260208601610161565b91505092915050565b6000602082840312156101e7576101e6610066565b5b600082015167ffffffffffffffff8111156102055761020461006b565b5b610211848285016101a3565b91505092915050565b600081519050919050565b7f4e487b7100000000000000000000000000000000000000000000000000000000600052602260045260246000fd5b6000600282049050600182168061026c57607f821691505b60208210810361027f5761027e610225565b5b50919050565b60008190508160005260206000209050919050565b60006020601f8301049050919050565b600082821b905092915050565b6000600883026102e77fffffffffffffffffffffffffffffffffffffffffffffffffffffffffffffffff826102aa565b6102f186836102aa565b95508019841693508086168417925050509392505050565b6000819050919050565b6000819050919050565b600061033861033361032e84610309565b610313565b610309565b9050919050565b6000819050919050565b6103528361031d565b61036661035e8261033f565b8484546102b7565b825550505050565b600090565b61037b61036e565b610386818484610349565b505050565b5b818110156103aa5761039f600082610373565b60018101905061038c565b5050565b601f8211156103ef576103c081610285565b6103c98461029a565b810160208510156103d8578190505b6103ec6103e48561029a565b83018261038b565b50505b505050565b600082821c905092915050565b6000610412600019846008026103f4565b1980831691505092915050565b600061042b8383610401565b9150826002028217905092915050565b6104448261021a565b67ffffffffffffffff81111561045d5761045c61008b565b5b6104678254610254565b6104728282856103ae565b600060209050601f8311600181146104a55760008415610493578287015190505b61049d858261041f565b865550610505565b601f1984166104b386610285565b60005b828110156104db578489015182556001820191506020850194506020810190506104b6565b868310156104f857848901516104f4601f891682610401565b8355505b6001600288020188555050505b505050505050565b6124d88061051c6000396000f3fe608060405234801561001057600080fd5b50600436106100b35760003560e01c8063a22cb46511610071578063a22cb465146101b0578063b3e1094b146101cc578063bce06947146101fc578063cb4d6fa01461021a578063e985e9c514610236578063f242432a14610266576100b3565b8062fdd58e146100b857806301ffc9a7146100e85780630e89341c146101185780632eb2c2d6146101485780634e1273f4146101645780636b6c5ee914610194575b600080fd5b6100d260048036038101906100cd91906116c2565b610282565b6040516100df9190611711565b60405180910390f35b61010260048036038101906100fd9190611784565b6102dc565b60405161010f91906117cc565b60405180910390f35b610132600480360381019061012d91906117e7565b6103be565b60405161013f91906118a4565b60405180910390f35b610162600480360381019061015d9190611ac3565b610452565b005b61017e60048036038101906101799190611c55565b6104fa565b60405161018b9190611d8b565b60405180910390f35b6101ae60048036038101906101a99190611de6565b610603565b005b6101ca60048036038101906101c59190611e79565b6106f0565b005b6101e660048036038101906101e191906117e7565b610706565b6040516101f39190611f0a565b60405180910390f35b61020461078a565b6040516102119190611d8b565b60405180910390f35b610234600480360381019061022f9190611f25565b6107e2565b005b610250600480360381019061024b9190611f94565b61081c565b60405161025d91906117cc565b60405180910390f35b610280600480360381019061027b9190611fd4565b6108b0565b005b600080600083815260200190815260200160002060008473ffffffffffffffffffffffffffffffffffffffff1673ffffffffffffffffffffffffffffffffffffffff16815260200190815260200160002054905092915050565b60007fd9b67a26000000000000000000000000000000000000000000000000000000007bffffffffffffffffffffffffffffffffffffffffffffffffffffffff1916827bffffffffffffffffffffffffffffffffffffffffffffffffffffffff191614806103a757507f0e89341c000000000000000000000000000000000000000000000000000000007bffffffffffffffffffffffffffffffffffffffffffffffffffffffff1916827bffffffffffffffffffffffffffffffffffffffffffffffffffffffff1916145b806103b757506103b682610958565b5b9050919050565b6060600280546103cd9061209a565b80601f01602080910402602001604051908101604052809291908181526020018280546103f99061209a565b80156104465780601f1061041b57610100808354040283529160200191610446565b820191906000526020600020905b81548152906001019060200180831161042957829003601f168201915b50505050509050919050565b600061045c6109c2565b90508073ffffffffffffffffffffffffffffffffffffffff168673ffffffffffffffffffffffffffffffffffffffff16141580156104a1575061049f868261081c565b155b156104e55780866040517fe237d9220000000000000000000000000000000000000000000000000000000081526004016104dc9291906120da565b60405180910390fd5b6104f286868686866109ca565b505050505050565b6060815183511461054657815183516040517f5b05999100000000000000000000000000000000000000000000000000000000815260040161053d929190612103565b60405180910390fd5b6000835167ffffffffffffffff811115610563576105626118cb565b5b6040519080825280602002602001820160405280156105915781602001602082028036833780820191505090505b50905060005b84518110156105f8576105ce6105b68287610ac290919063ffffffff16565b6105c98387610ad690919063ffffffff16565b610282565b8282815181106105e1576105e061212c565b5b602002602001018181525050806001019050610597565b508091505092915050565b60405180606001604052808460ff1681526020018360ff1681526020018260ff168152506003600086815260200190815260200160002060008201518160000160006101000a81548160ff021916908360ff16021790555060208201518160000160016101000a81548160ff021916908360ff16021790555060408201518160000160026101000a81548160ff021916908360ff160217905550905050837fb41377db2912ea2fb51e9dd65c768e198c199b5dd86b8269a7f98da2f212d339600360008781526020019081526020016000206040516106e29190612234565b60405180910390a250505050565b6107026106fb6109c2565b8383610aea565b5050565b61070e6115f0565b600360008381526020019081526020016000206040518060600160405290816000820160009054906101000a900460ff1660ff1660ff1681526020016000820160019054906101000a900460ff1660ff1660ff1681526020016000820160029054906101000a900460ff1660ff1660ff16815250509050919050565b606060048054806020026020016040519081016040528092919081815260200182805480156107d857602002820191906000526020600020905b8154815260200190600101908083116107c4575b5050505050905090565b6107ee33848484610c5a565b6004839080600181540180825580915050600190039060005260206000200160009091909190915055505050565b6000600160008473ffffffffffffffffffffffffffffffffffffffff1673ffffffffffffffffffffffffffffffffffffffff16815260200190815260200160002060008373ffffffffffffffffffffffffffffffffffffffff1673ffffffffffffffffffffffffffffffffffffffff16815260200190815260200160002060009054906101000a900460ff16905092915050565b60006108ba6109c2565b90508073ffffffffffffffffffffffffffffffffffffffff168673ffffffffffffffffffffffffffffffffffffffff16141580156108ff57506108fd868261081c565b155b156109435780866040517fe237d92200000000000000000000000000000000000000000000000000000000815260040161093a9291906120da565b60405180910390fd5b6109508686868686610cf3565b505050505050565b60007f01ffc9a7000000000000000000000000000000000000000000000000000000007bffffffffffffffffffffffffffffffffffffffffffffffffffffffff1916827bffffffffffffffffffffffffffffffffffffffffffffffffffffffff1916149050919050565b600033905090565b600073ffffffffffffffffffffffffffffffffffffffff168473ffffffffffffffffffffffffffffffffffffffff1603610a3c5760006040517f57f447ce000000000000000000000000000000000000000000000000000000008152600401610a33919061224f565b60405180910390fd5b600073ffffffffffffffffffffffffffffffffffffffff168573ffffffffffffffffffffffffffffffffffffffff1603610aae5760006040517f01a83514000000000000000000000000000000000000000000000000000000008152600401610aa5919061224f565b60405180910390fd5b610abb8585858585610dfe565b5050505050565b600060208202602084010151905092915050565b600060208202602084010151905092915050565b600073ffffffffffffffffffffffffffffffffffffffff168273ffffffffffffffffffffffffffffffffffffffff1603610b5c5760006040517fced3e100000000000000000000000000000000000000000000000000000000008152600401610b53919061224f565b60405180910390fd5b80600160008573ffffffffffffffffffffffffffffffffffffffff1673ffffffffffffffffffffffffffffffffffffffff16815260200190815260200160002060008473ffffffffffffffffffffffffffffffffffffffff1673ffffffffffffffffffffffffffffffffffffffff16815260200190815260200160002060006101000a81548160ff0219169083151502179055508173ffffffffffffffffffffffffffffffffffffffff168373ffffffffffffffffffffffffffffffffffffffff167f17307eab39ab6107e8899845ad3d59bd9653f200f220920489ca2b5937696c3183604051610c4d91906117cc565b60405180910390a3505050565b600073ffffffffffffffffffffffffffffffffffffffff168473ffffffffffffffffffffffffffffffffffffffff1603610ccc5760006040517f57f447ce000000000000000000000000000000000000000000000000000000008152600401610cc3919061224f565b60405180910390fd5b600080610cd98585610eb0565b91509150610ceb600087848487610dfe565b505050505050565b600073ffffffffffffffffffffffffffffffffffffffff168473ffffffffffffffffffffffffffffffffffffffff1603610d655760006040517f57f447ce000000000000000000000000000000000000000000000000000000008152600401610d5c919061224f565b60405180910390fd5b600073ffffffffffffffffffffffffffffffffffffffff168573ffffffffffffffffffffffffffffffffffffffff1603610dd75760006040517f01a83514000000000000000000000000000000000000000000000000000000008152600401610dce919061224f565b60405180910390fd5b600080610de48585610eb0565b91509150610df58787848487610dfe565b50505050505050565b610e0a85858585610ee0565b600073ffffffffffffffffffffffffffffffffffffffff168473ffffffffffffffffffffffffffffffffffffffff1614610ea9576000610e486109c2565b90506001845103610e98576000610e69600086610ad690919063ffffffff16565b90506000610e81600086610ad690919063ffffffff16565b9050610e91838989858589611288565b5050610ea7565b610ea681878787878761143c565b5b505b5050505050565b60608060405191506001825283602083015260408201905060018152826020820152604081016040529250929050565b8051825114610f2a57815181516040517f5b059991000000000000000000000000000000000000000000000000000000008152600401610f21929190612103565b60405180910390fd5b6000610f346109c2565b905060005b8351811015611143576000610f578286610ad690919063ffffffff16565b90506000610f6e8386610ad690919063ffffffff16565b9050600073ffffffffffffffffffffffffffffffffffffffff168873ffffffffffffffffffffffffffffffffffffffff161461109b57600080600084815260200190815260200160002060008a73ffffffffffffffffffffffffffffffffffffffff1673ffffffffffffffffffffffffffffffffffffffff1681526020019081526020016000205490508181101561104357888183856040517f03dee4c500000000000000000000000000000000000000000000000000000000815260040161103a949392919061226a565b60405180910390fd5b81810360008085815260200190815260200160002060008b73ffffffffffffffffffffffffffffffffffffffff1673ffffffffffffffffffffffffffffffffffffffff16815260200190815260200160002081905550505b600073ffffffffffffffffffffffffffffffffffffffff168773ffffffffffffffffffffffffffffffffffffffff1614611136578060008084815260200190815260200160002060008973ffffffffffffffffffffffffffffffffffffffff1673ffffffffffffffffffffffffffffffffffffffff168152602001908152602001600020600082825461112e91906122de565b925050819055505b5050806001019050610f39565b506001835103611202576000611163600085610ad690919063ffffffff16565b9050600061117b600085610ad690919063ffffffff16565b90508573ffffffffffffffffffffffffffffffffffffffff168773ffffffffffffffffffffffffffffffffffffffff168473ffffffffffffffffffffffffffffffffffffffff167fc3d58168c5ae7397731d063d5bbf3d657854427343f4c083240f7aacaa2d0f6285856040516111f3929190612103565b60405180910390a45050611281565b8373ffffffffffffffffffffffffffffffffffffffff168573ffffffffffffffffffffffffffffffffffffffff168273ffffffffffffffffffffffffffffffffffffffff167f4a39dc06d4c0dbc64b70af90fd698a233a518aa5d07e595d983b8c0526c8f7fb8686604051611278929190612312565b60405180910390a45b5050505050565b60008473ffffffffffffffffffffffffffffffffffffffff163b1115611434578373ffffffffffffffffffffffffffffffffffffffff1663f23a6e6187878686866040518663ffffffff1660e01b81526004016112e995949392919061239e565b6020604051808303816000875af192505050801561132557506040513d601f19601f82011682018060405250810190611322919061240d565b60015b6113a9573d8060008114611355576040519150601f19603f3d011682016040523d82523d6000602084013e61135a565b606091505b5060008151036113a157846040517f57f447ce000000000000000000000000000000000000000000000000000000008152600401611398919061224f565b60405180910390fd5b805181602001fd5b63f23a6e6160e01b7bffffffffffffffffffffffffffffffffffffffffffffffffffffffff1916817bffffffffffffffffffffffffffffffffffffffffffffffffffffffff19161461143257846040517f57f447ce000000000000000000000000000000000000000000000000000000008152600401611429919061224f565b60405180910390fd5b505b505050505050565b60008473ffffffffffffffffffffffffffffffffffffffff163b11156115e8578373ffffffffffffffffffffffffffffffffffffffff1663bc197c8187878686866040518663ffffffff1660e01b815260040161149d95949392919061243a565b6020604051808303816000875af19250505080156114d957506040513d601f19601f820116820180604052508101906114d6919061240d565b60015b61155d573d8060008114611509576040519150601f19603f3d011682016040523d82523d6000602084013e61150e565b606091505b50600081510361155557846040517f57f447ce00000000000000000000000000000000000000000000000000000000815260040161154c919061224f565b60405180910390fd5b805181602001fd5b63bc197c8160e01b7bffffffffffffffffffffffffffffffffffffffffffffffffffffffff1916817bffffffffffffffffffffffffffffffffffffffffffffffffffffffff1916146115e657846040517f57f447ce0000000000000000000000000000000000000000000000000000000081526004016115dd919061224f565b60405180910390fd5b505b505050505050565b6040518060600160405280600060ff168152602001600060ff168152602001600060ff1681525090565b6000604051905090565b600080fd5b600080fd5b600073ffffffffffffffffffffffffffffffffffffffff82169050919050565b60006116598261162e565b9050919050565b6116698161164e565b811461167457600080fd5b50565b60008135905061168681611660565b92915050565b6000819050919050565b61169f8161168c565b81146116aa57600080fd5b50565b6000813590506116bc81611696565b92915050565b600080604083850312156116d9576116d8611624565b5b60006116e785828601611677565b92505060206116f8858286016116ad565b9150509250929050565b61170b8161168c565b82525050565b60006020820190506117266000830184611702565b92915050565b60007fffffffff0000000000000000000000000000000000000000000000000000000082169050919050565b6117618161172c565b811461176c57600080fd5b50565b60008135905061177e81611758565b92915050565b60006020828403121561179a57611799611624565b5b60006117a88482850161176f565b91505092915050565b60008115159050919050565b6117c6816117b1565b82525050565b60006020820190506117e160008301846117bd565b92915050565b6000602082840312156117fd576117fc611624565b5b600061180b848285016116ad565b91505092915050565b600081519050919050565b600082825260208201905092915050565b60005b8381101561184e578082015181840152602081019050611833565b60008484015250505050565b6000601f19601f8301169050919050565b600061187682611814565b611880818561181f565b9350611890818560208601611830565b6118998161185a565b840191505092915050565b600060208201905081810360008301526118be818461186b565b905092915050565b600080fd5b7f4e487b7100000000000000000000000000000000000000000000000000000000600052604160045260246000fd5b6119038261185a565b810181811067ffffffffffffffff82111715611922576119216118cb565b5b80604052505050565b600061193561161a565b905061194182826118fa565b919050565b600067ffffffffffffffff821115611961576119606118cb565b5b602082029050602081019050919050565b600080fd5b600061198a61198584611946565b61192b565b905080838252602082019050602084028301858111156119ad576119ac611972565b5b835b818110156119d657806119c288826116ad565b8452602084019350506020810190506119af565b5050509392505050565b600082601f8301126119f5576119f46118c6565b5b8135611a05848260208601611977565b91505092915050565b600080fd5b600067ffffffffffffffff821115611a2e57611a2d6118cb565b5b611a378261185a565b9050602081019050919050565b82818337600083830152505050565b6000611a66611a6184611a13565b61192b565b905082815260208101848484011115611a8257611a81611a0e565b5b611a8d848285611a44565b509392505050565b600082601f830112611aaa57611aa96118c6565b5b8135611aba848260208601611a53565b91505092915050565b600080600080600060a08688031215611adf57611ade611624565b5b6000611aed88828901611677565b9550506020611afe88828901611677565b945050604086013567ffffffffffffffff811115611b1f57611b1e611629565b5b611b2b888289016119e0565b935050606086013567ffffffffffffffff811115611b4c57611b4b611629565b5b611b58888289016119e0565b925050608086013567ffffffffffffffff811115611b7957611b78611629565b5b611b8588828901611a95565b9150509295509295909350565b600067ffffffffffffffff821115611bad57611bac6118cb565b5b602082029050602081019050919050565b6000611bd1611bcc84611b92565b61192b565b90508083825260208201905060208402830185811115611bf457611bf3611972565b5b835b81811015611c1d5780611c098882611677565b845260208401935050602081019050611bf6565b5050509392505050565b600082601f830112611c3c57611c3b6118c6565b5b8135611c4c848260208601611bbe565b91505092915050565b60008060408385031215611c6c57611c6b611624565b5b600083013567ffffffffffffffff811115611c8a57611c89611629565b5b611c9685828601611c27565b925050602083013567ffffffffffffffff811115611cb757611cb6611629565b5b611cc3858286016119e0565b9150509250929050565b600081519050919050565b600082825260208201905092915050565b6000819050602082019050919050565b611d028161168c565b82525050565b6000611d148383611cf9565b60208301905092915050565b6000602082019050919050565b6000611d3882611ccd565b611d428185611cd8565b9350611d4d83611ce9565b8060005b83811015611d7e578151611d658882611d08565b9750611d7083611d20565b925050600181019050611d51565b5085935050505092915050565b60006020820190508181036000830152611da58184611d2d565b905092915050565b600060ff82169050919050565b611dc381611dad565b8114611dce57600080fd5b50565b600081359050611de081611dba565b92915050565b60008060008060808587031215611e0057611dff611624565b5b6000611e0e878288016116ad565b9450506020611e1f87828801611dd1565b9350506040611e3087828801611dd1565b9250506060611e4187828801611dd1565b91505092959194509250565b611e56816117b1565b8114611e6157600080fd5b50565b600081359050611e7381611e4d565b92915050565b60008060408385031215611e9057611e8f611624565b5b6000611e9e85828601611677565b9250506020611eaf85828601611e64565b9150509250929050565b611ec281611dad565b82525050565b606082016000820151611ede6000850182611eb9565b506020820151611ef16020850182611eb9565b506040820151611f046040850182611eb9565b50505050565b6000606082019050611f1f6000830184611ec8565b92915050565b600080600060608486031215611f3e57611f3d611624565b5b6000611f4c868287016116ad565b9350506020611f5d868287016116ad565b925050604084013567ffffffffffffffff811115611f7e57611f7d611629565b5b611f8a86828701611a95565b9150509250925092565b60008060408385031215611fab57611faa611624565b5b6000611fb985828601611677565b9250506020611fca85828601611677565b9150509250929050565b600080600080600060a08688031215611ff057611fef611624565b5b6000611ffe88828901611677565b955050602061200f88828901611677565b9450506040612020888289016116ad565b9350506060612031888289016116ad565b925050608086013567ffffffffffffffff81111561205257612051611629565b5b61205e88828901611a95565b9150509295509295909350565b7f4e487b7100000000000000000000000000000000000000000000000000000000600052602260045260246000fd5b600060028204905060018216806120b257607f821691505b6020821081036120c5576120c461206b565b5b50919050565b6120d48161164e565b82525050565b60006040820190506120ef60008301856120cb565b6120fc60208301846120cb565b9392505050565b60006040820190506121186000830185611702565b6121256020830184611702565b9392505050565b7f4e487b7100000000000000000000000000000000000000000000000000000000600052603260045260246000fd5b60008160001c9050919050565b600060ff82169050919050565b60006121886121838361215b565b612168565b9050919050565b60008160081c9050919050565b60006121af6121aa8361218f565b612168565b9050919050565b60008160101c9050919050565b60006121d66121d1836121b6565b612168565b9050919050565b6060820160008083015490506121f281612175565b6121ff6000860182611eb9565b506122098161219c565b6122166020860182611eb9565b50612220816121c3565b61222d6040860182611eb9565b5050505050565b600060608201905061224960008301846121dd565b92915050565b600060208201905061226460008301846120cb565b92915050565b600060808201905061227f60008301876120cb565b61228c6020830186611702565b6122996040830185611702565b6122a66060830184611702565b95945050505050565b7f4e487b7100000000000000000000000000000000000000000000000000000000600052601160045260246000fd5b60006122e98261168c565b91506122f48361168c565b925082820190508082111561230c5761230b6122af565b5b92915050565b6000604082019050818103600083015261232c8185611d2d565b905081810360208301526123408184611d2d565b90509392505050565b600081519050919050565b600082825260208201905092915050565b600061237082612349565b61237a8185612354565b935061238a818560208601611830565b6123938161185a565b840191505092915050565b600060a0820190506123b360008301886120cb565b6123c060208301876120cb565b6123cd6040830186611702565b6123da6060830185611702565b81810360808301526123ec8184612365565b90509695505050505050565b60008151905061240781611758565b92915050565b60006020828403121561242357612422611624565b5b6000612431848285016123f8565b91505092915050565b600060a08201905061244f60008301886120cb565b61245c60208301876120cb565b818103604083015261246e8186611d2d565b905081810360608301526124828185611d2d565b905081810360808301526124968184612365565b9050969550505050505056fea26469706673582212201539444a19f161c98246133bac83d3f4de42369f2a5e13d470b5e98422c1afdb64736f6c634300081b0033",
  "linkReferences": {},
  "deployedLinkReferences": {}
}