{
  "_format": "hh-sol-artifact-1",
  "contractName": "BinaryHeapBytes32Mock",
  "sourceName": "contracts/data/BinaryHeapBytes32Mock.sol",
  "abi": [
    {
      "inputs": [
        {
          "internalType": "bytes32",
          "name": "value",
          "type": "bytes32"
        }
      ],
      "name": "add",
      "outputs": [
        {
          "internalType": "bool",
          "name": "",
          "type": "bool"
        }
      ],
      "stateMutability": "nonpayable",
      "type": "function"
    },
    {
      "inputs": [
        {
          "internalType": "uint256",
          "name": "index",
          "type": "uint256"
        }
      ],
      "name": "at",
      "outputs": [
        {
          "internalType": "bytes32",
          "name": "",
          "type": "bytes32"
        }
      ],
      "stateMutability": "view",
      "type": "function"
    },
    {
      "inputs": [
        {
          "internalType": "bytes32",
          "name": "value",
          "type": "bytes32"
        }
      ],
      "name": "contains",
      "outputs": [
        {
          "internalType": "bool",
          "name": "",
          "type": "bool"
        }
      ],
      "stateMutability": "view",
      "type": "function"
    },
    {
      "inputs": [
        {
          "internalType": "bytes32",
          "name": "value",
          "type": "bytes32"
        }
      ],
      "name": "indexOf",
      "outputs": [
        {
          "internalType": "uint256",
          "name": "",
          "type": "uint256"
        }
      ],
      "stateMutability": "view",
      "type": "function"
    },
    {
      "inputs": [],
      "name": "length",
      "outputs": [
        {
          "internalType": "uint256",
          "name": "",
          "type": "uint256"
        }
      ],
      "stateMutability": "view",
      "type": "function"
    },
    {
      "inputs": [
        {
          "internalType": "bytes32",
          "name": "value",
          "type": "bytes32"
        }
      ],
      "name": "remove",
      "outputs": [
        {
          "internalType": "bool",
          "name": "",
          "type": "bool"
        }
      ],
      "stateMutability": "nonpayable",
      "type": "function"
    },
    {
      "inputs": [],
      "name": "root",
      "outputs": [
        {
          "internalType": "bytes32",
          "name": "",
          "type": "bytes32"
        }
      ],
      "stateMutability": "view",
      "type": "function"
    },
    {
      "inputs": [],
      "name": "toArray",
      "outputs": [
        {
          "internalType": "bytes32[]",
          "name": "",
          "type": "bytes32[]"
        }
      ],
      "stateMutability": "view",
      "type": "function"
    }
  ],
  "bytecode": "0x608060405234801561001057600080fd5b506105ef806100206000396000f3fe608060405234801561001057600080fd5b50600436106100885760003560e01c8063908ff3031161005b578063908ff303146100f157806395bc267314610106578063e0886f9014610119578063ebf0c7171461012c57600080fd5b80631d1a696d1461008d5780631f7b6d32146100b5578063446bffba146100cb5780636f4ce56a146100de575b600080fd5b6100a061009b366004610530565b610134565b60405190151581526020015b60405180910390f35b6100bd610146565b6040519081526020016100ac565b6100a06100d9366004610530565b610157565b6100bd6100ec366004610530565b610163565b6100f961016f565b6040516100ac9190610549565b6100a0610114366004610530565b61017b565b6100bd610127366004610530565b610187565b6100bd610193565b6000610140818361019f565b92915050565b600061015260006101ba565b905090565b600061014081836101c4565b600061014081836101d0565b606061015260006101ea565b60006101408183610242565b6000610140818361024e565b6000610152600061025a565b600081815260018301602052604081205415155b9392505050565b6000610140825490565b60006101b38383610265565b6000818152600183016020526040812054600019016101b3565b805460408051602080840282018101909252828152606092909184919083018282801561023657602002820191906000526020600020905b815481526020019060010190808311610222575b50505050509050919050565b60006101b383836102b4565b60006101b38383610343565b60006101408261036d565b600081815260018301602052604081205461014057825460018101845560008481526020902001829055825460008381526001850160205260409020556102ab8361037a565b50600192915050565b6000818152600183016020526040812054156101405760008281526001840160205260408120546000190190506102f6848260016102f0885490565b036103aa565b83548490806103075761030761058d565b60008281526020808220830160001990810183905590920190925584825260018601905260408120556103398461037a565b5060019392505050565b600082600001828154811061035a5761035a6105a3565b9060005260206000200154905092915050565b6000610140826000610343565b6000610384825490565b9050600281045b80156103a557600019016103a0838383610460565b61038b565b505050565b825483906000908290859081106103c3576103c36105a3565b9060005260206000200154905060008284815481106103e4576103e46105a3565b906000526020600020015490508082848781548110610405576104056105a3565b906000526020600020016000868881548110610423576104236105a3565b6000918252602080832090910194909455939091555082825260019097019096526040808720805493885290872080549290975255909355505050565b8083600182811b811790810185821080156104b25750828281548110610488576104886105a3565b90600052602060002001548385815481106104a5576104a56105a3565b9060005260206000200154105b156104bb578193505b858110801561050157508281815481106104d7576104d76105a3565b90600052602060002001548385815481106104f4576104f46105a3565b9060005260206000200154105b1561050a578093505b50508282146105295761051e8584846103aa565b610529858584610460565b5050505050565b60006020828403121561054257600080fd5b5035919050565b6020808252825182820181905260009190848201906040850190845b8181101561058157835183529284019291840191600101610565565b50909695505050505050565b634e487b7160e01b600052603160045260246000fd5b634e487b7160e01b600052603260045260246000fdfea26469706673582212204c0435bad56767fcbfd75d83504191b705f5d65a354cb86eea3ef15abb65fb1d64736f6c63430008140033",
  "linkReferences": {},
  "deployedLinkReferences": {}
}