{
  "_format": "hh-sol-artifact-1",
  "contractName": "BilateralTrade",
  "sourceName": "contracts/trade/bilateral/BilateralTrade.sol",
  "abi": [
    {
      "inputs": [
        {
          "internalType": "contract IRegister",
          "name": "_register",
          "type": "address"
        },
        {
          "internalType": "address",
          "name": "_buyer",
          "type": "address"
        },
        {
          "internalType": "address",
          "name": "_forwarder",
          "type": "address"
        }
      ],
      "stateMutability": "nonpayable",
      "type": "constructor"
    },
    {
      "inputs": [],
      "name": "ReentrancyGuardReentrantCall",
      "type": "error"
    },
    {
      "anonymous": false,
      "inputs": [
        {
          "indexed": true,
          "internalType": "address",
          "name": "seller",
          "type": "address"
        },
        {
          "indexed": true,
          "internalType": "address",
          "name": "buyer",
          "type": "address"
        },
        {
          "indexed": true,
          "internalType": "enum ITrade.Status",
          "name": "status",
          "type": "uint8"
        },
        {
          "indexed": false,
          "internalType": "uint256",
          "name": "quantity",
          "type": "uint256"
        }
      ],
      "name": "NotifyTrade",
      "type": "event"
    },
    {
      "inputs": [],
      "name": "approve",
      "outputs": [
        {
          "internalType": "enum ITrade.Status",
          "name": "",
          "type": "uint8"
        }
      ],
      "stateMutability": "nonpayable",
      "type": "function"
    },
    {
      "inputs": [],
      "name": "buyerAccount",
      "outputs": [
        {
          "internalType": "address",
          "name": "",
          "type": "address"
        }
      ],
      "stateMutability": "view",
      "type": "function"
    },
    {
      "inputs": [],
      "name": "details",
      "outputs": [
        {
          "internalType": "uint256",
          "name": "quantity",
          "type": "uint256"
        },
        {
          "internalType": "address",
          "name": "buyer",
          "type": "address"
        },
        {
          "internalType": "uint256",
          "name": "tradeDate",
          "type": "uint256"
        },
        {
          "internalType": "uint256",
          "name": "valueDate",
          "type": "uint256"
        },
        {
          "internalType": "uint256",
          "name": "price",
          "type": "uint256"
        }
      ],
      "stateMutability": "view",
      "type": "function"
    },
    {
      "inputs": [],
      "name": "executeTransfer",
      "outputs": [
        {
          "internalType": "bool",
          "name": "",
          "type": "bool"
        }
      ],
      "stateMutability": "nonpayable",
      "type": "function"
    },
    {
      "inputs": [],
      "name": "getDetails",
      "outputs": [
        {
          "components": [
            {
              "internalType": "uint256",
              "name": "quantity",
              "type": "uint256"
            },
            {
              "internalType": "address",
              "name": "buyer",
              "type": "address"
            },
            {
              "internalType": "uint256",
              "name": "tradeDate",
              "type": "uint256"
            },
            {
              "internalType": "uint256",
              "name": "valueDate",
              "type": "uint256"
            },
            {
              "internalType": "uint256",
              "name": "price",
              "type": "uint256"
            }
          ],
          "internalType": "struct ITrade.TradeDetail",
          "name": "",
          "type": "tuple"
        }
      ],
      "stateMutability": "view",
      "type": "function"
    },
    {
      "inputs": [
        {
          "internalType": "address",
          "name": "forwarder",
          "type": "address"
        }
      ],
      "name": "isTrustedForwarder",
      "outputs": [
        {
          "internalType": "bool",
          "name": "",
          "type": "bool"
        }
      ],
      "stateMutability": "view",
      "type": "function"
    },
    {
      "inputs": [],
      "name": "paymentID",
      "outputs": [
        {
          "internalType": "bytes8",
          "name": "",
          "type": "bytes8"
        }
      ],
      "stateMutability": "view",
      "type": "function"
    },
    {
      "inputs": [],
      "name": "register",
      "outputs": [
        {
          "internalType": "contract IRegister",
          "name": "",
          "type": "address"
        }
      ],
      "stateMutability": "view",
      "type": "function"
    },
    {
      "inputs": [],
      "name": "reject",
      "outputs": [],
      "stateMutability": "nonpayable",
      "type": "function"
    },
    {
      "inputs": [],
      "name": "sellerAccount",
      "outputs": [
        {
          "internalType": "address",
          "name": "",
          "type": "address"
        }
      ],
      "stateMutability": "view",
      "type": "function"
    },
    {
      "inputs": [
        {
          "components": [
            {
              "internalType": "uint256",
              "name": "quantity",
              "type": "uint256"
            },
            {
              "internalType": "address",
              "name": "buyer",
              "type": "address"
            },
            {
              "internalType": "uint256",
              "name": "tradeDate",
              "type": "uint256"
            },
            {
              "internalType": "uint256",
              "name": "valueDate",
              "type": "uint256"
            },
            {
              "internalType": "uint256",
              "name": "price",
              "type": "uint256"
            }
          ],
          "internalType": "struct ITrade.TradeDetail",
          "name": "_details",
          "type": "tuple"
        }
      ],
      "name": "setDetails",
      "outputs": [],
      "stateMutability": "nonpayable",
      "type": "function"
    },
    {
      "inputs": [],
      "name": "status",
      "outputs": [
        {
          "internalType": "enum ITrade.Status",
          "name": "",
          "type": "uint8"
        }
      ],
      "stateMutability": "view",
      "type": "function"
    },
    {
      "inputs": [],
      "name": "trustedForwarder",
      "outputs": [
        {
          "internalType": "address",
          "name": "",
          "type": "address"
        }
      ],
      "stateMutability": "view",
      "type": "function"
    }
  ],
  "bytecode": "0x60a06040523480156200001157600080fd5b506040516200158c3803806200158c8339810160408190526200003491620003d9565b6001600160a01b038082166080526001600055831663c41251a1620000586200033d565b6040516001600160e01b031960e084901b1681526001600160a01b039091166004820152602401602060405180830381865afa1580156200009d573d6000803e3d6000fd5b505050506040513d601f19601f82011682018060405250810190620000c391906200042d565b806200014e57506001600160a01b03831663a55234b8620000e36200033d565b6040516001600160e01b031960e084901b1681526001600160a01b039091166004820152602401602060405180830381865afa15801562000128573d6000803e3d6000fd5b505050506040513d601f19601f820116820180604052508101906200014e91906200042d565b620001a05760405162461bcd60e51b815260206004820152601f60248201527f53656e646572206d75737420626520612076616c696420696e766573746f720060448201526064015b60405180910390fd5b60405163c41251a160e01b81526001600160a01b03838116600483015284169063c41251a190602401602060405180830381865afa158015620001e7573d6000803e3d6000fd5b505050506040513d601f19601f820116820180604052508101906200020d91906200042d565b6200025b5760405162461bcd60e51b815260206004820152601e60248201527f4275796572206d75737420626520612076616c696420696e766573746f720000604482015260640162000197565b600180546001600160a01b0319166001600160a01b038516179055620002806200033d565b600280546001600160a01b03199081166001600160a01b0393841617909155600480549091169184169190911790556001805460ff60a01b191690819055600160a01b900460ff166005811115620002dc57620002dc62000458565b6001600160a01b038316620002f06200033d565b6001600160a01b03167fb04efa95c2e317d8afba4237350a971f1ce59ef6fbbf2eb3f1a7e3f3f106a8f460006040516200032c91815260200190565b60405180910390a4505050620004f3565b60003660146200034d3362000399565b80156200035a5750808210155b1562000391576000366200036f83856200046e565b6200037c92829062000496565b6200038791620004c2565b60601c9250505090565b339250505090565b6000620003a560805190565b6001600160a01b0316826001600160a01b0316149050919050565b6001600160a01b0381168114620003d657600080fd5b50565b600080600060608486031215620003ef57600080fd5b8351620003fc81620003c0565b60208501519093506200040f81620003c0565b60408501519092506200042281620003c0565b809150509250925092565b6000602082840312156200044057600080fd5b815180151581146200045157600080fd5b9392505050565b634e487b7160e01b600052602160045260246000fd5b818103818111156200049057634e487b7160e01b600052601160045260246000fd5b92915050565b60008085851115620004a757600080fd5b83861115620004b557600080fd5b5050820193919092039150565b6001600160601b03198135818116916014851015620004eb5780818660140360031b1b83161692505b505092915050565b60805161106f6200051d600039600081816101ce015281816102100152610de1015261106f6000f3fe608060405234801561001057600080fd5b50600436106100df5760003560e01c8063565974d31161008c578063835d2d2e11610066578063835d2d2e14610234578063b787cfe61461023c578063d84ffb411461024f578063fbbf93a01461028257600080fd5b8063565974d31461016b578063572b6c05146101be5780637da0a8771461020e57600080fd5b8063200d2ed2116100bd578063200d2ed21461013c578063489147d7146101505780634dc415de1461016157600080fd5b806310547851146100e457806312424e3f146101145780631aa3a00814610129575b600080fd5b6002546100f7906001600160a01b031681565b6040516001600160a01b0390911681526020015b60405180910390f35b61011c6102d5565b60405161010b9190610ea8565b6001546100f7906001600160a01b031681565b60015461011c90600160a01b900460ff1681565b6004546001600160a01b03166100f7565b61016961057d565b005b60035460045460055460065460075461018e94936001600160a01b031692919085565b604080519586526001600160a01b039094166020860152928401919091526060830152608082015260a00161010b565b6101fe6101cc366004610eec565b7f00000000000000000000000000000000000000000000000000000000000000006001600160a01b0390811691161490565b604051901515815260200161010b565b7f00000000000000000000000000000000000000000000000000000000000000006100f7565b6101fe6107b8565b61016961024a366004610f0e565b610a79565b6040517fffffffffffffffff0000000000000000000000000000000000000000000000003060c01b16815260200161010b565b61028a610d61565b60405161010b9190600060a082019050825182526001600160a01b03602084015116602083015260408301516040830152606083015160608301526080830151608083015292915050565b6002546000906001600160a01b03166102ec610dda565b6001600160a01b031614801561031f57506000600154600160a01b900460ff16600581111561031d5761031d610e92565b145b156104aa576003546103785760405162461bcd60e51b815260206004820152601460248201527f7175616e74697479206e6f7420646566696e656400000000000000000000000060448201526064015b60405180910390fd5b6005546103c75760405162461bcd60e51b815260206004820152601660248201527f74726164652064617465206e6f7420646566696e656400000000000000000000604482015260640161036f565b6006546104165760405162461bcd60e51b815260206004820152601660248201527f76616c75652064617465206e6f7420646566696e656400000000000000000000604482015260640161036f565b60018054819060ff60a01b1916600160a01b825b0217905550600154600160a01b900460ff16600581111561044d5761044d610e92565b6004546002546003546040519081526001600160a01b0392831692909116907fb04efa95c2e317d8afba4237350a971f1ce59ef6fbbf2eb3f1a7e3f3f106a8f49060200160405180910390a450600154600160a01b900460ff1690565b6004546001600160a01b03166104be610dda565b6001600160a01b03161480156104f0575060018054600160a01b900460ff1660058111156104ee576104ee610e92565b145b1561050f57600180546003919060ff60a01b1916600160a01b8361042a565b60405162461bcd60e51b815260206004820152603360248201527f7468652074726164652063616e6e6f7420626520617070726f76656420696e2060448201527f746869732063757272656e742073746174757300000000000000000000000000606482015260840161036f565b6002600154600160a01b900460ff16600581111561059d5761059d610e92565b036105ea5760405162461bcd60e51b815260206004820152601660248201527f547261646520616c72656164792072656a656374656400000000000000000000604482015260640161036f565b6002546001600160a01b03166105fe610dda565b6001600160a01b031614801561063257506004600154600160a01b900460ff16600581111561062f5761062f610e92565b14155b156106be57600180546002919060ff60a01b1916600160a01b835b0217905550600154600160a01b900460ff16600581111561067057610670610e92565b6004546002546003546040519081526001600160a01b0392831692909116907fb04efa95c2e317d8afba4237350a971f1ce59ef6fbbf2eb3f1a7e3f3f106a8f49060200160405180910390a4565b6004546001600160a01b03166106d2610dda565b6001600160a01b031614801561072b575060018054600160a01b900460ff16600581111561070257610702610e92565b148061072b57506003600154600160a01b900460ff16600581111561072957610729610e92565b145b1561074a57600180546002919060ff60a01b1916600160a01b8361064d565b60405162461bcd60e51b815260206004820152603360248201527f7468652074726164652063616e6e6f742062652072656a656374656420696e2060448201527f746869732063757272656e742073746174757300000000000000000000000000606482015260840161036f565b60006107c2610e4f565b6002546001600160a01b03166107d6610dda565b6001600160a01b0316146108525760405162461bcd60e51b815260206004820152603560248201527f4f6e6c79207468652073656c6c65722063616e20636f6e6669726d207468652060448201527f7061796d656e74206f6e20746869732074726164650000000000000000000000606482015260840161036f565b6003600154600160a01b900460ff16600581111561087257610872610e92565b146108e55760405162461bcd60e51b815260206004820152602e60248201527f546865207472616465206d75737420626520616363657074656420627920746860448201527f65206275796572206265666f7265000000000000000000000000000000000000606482015260840161036f565b600180547404000000000000000000000000000000000000000060ff60a01b19821617909155600254600480546003546040517f23b872dd0000000000000000000000000000000000000000000000000000000081526001600160a01b03948516938101939093529083166024830152604482015260009291909116906323b872dd906064016020604051808303816000875af115801561098a573d6000803e3d6000fd5b505050506040513d601f19601f820116820180604052508101906109ae9190610f91565b9050806109fd5760405162461bcd60e51b815260206004820152601760248201527f746865207472616e7366657220686173206661696c6564000000000000000000604482015260640161036f565b600154600160a01b900460ff166005811115610a1b57610a1b610e92565b6004546002546003546040519081526001600160a01b0392831692909116907fb04efa95c2e317d8afba4237350a971f1ce59ef6fbbf2eb3f1a7e3f3f106a8f49060200160405180910390a46001915050610a766001600055565b90565b6002546001600160a01b0316610a8d610dda565b6001600160a01b031614610b095760405162461bcd60e51b815260206004820152602560248201527f4f6e6c79207468652073656c6c65722063616e2075706461746520746869732060448201527f7472616465000000000000000000000000000000000000000000000000000000606482015260840161036f565b6000600154600160a01b900460ff166005811115610b2957610b29610e92565b14610b9c5760405162461bcd60e51b815260206004820152603660248201527f43616e6e6f74206368616e6765207468652074726164652064657461696c732060448201527f756e6c65737320696e2064726166742073746174757300000000000000000000606482015260840161036f565b60015460208201516040517fc41251a10000000000000000000000000000000000000000000000000000000081526001600160a01b03918216600482015291169063c41251a190602401602060405180830381865afa158015610c03573d6000803e3d6000fd5b505050506040513d601f19601f82011682018060405250810190610c279190610f91565b610c995760405162461bcd60e51b815260206004820152603760248201527f4275796572206d75737420626520612076616c696420696e766573746f72206560448201527f76656e206f6e206368616e67696e672064657461696c73000000000000000000606482015260840161036f565b80516003556020810151600480547fffffffffffffffffffffffff0000000000000000000000000000000000000000166001600160a01b039092169190911790556040810151600590815560608201516006556080820151600755600154600160a01b900460ff1690811115610d1157610d11610e92565b60208281015160025484516040519081526001600160a01b039283169392909116917fb04efa95c2e317d8afba4237350a971f1ce59ef6fbbf2eb3f1a7e3f3f106a8f4910160405180910390a450565b610d9c6040518060a001604052806000815260200160006001600160a01b031681526020016000815260200160008152602001600081525090565b506040805160a08101825260035481526004546001600160a01b03166020820152600554918101919091526006546060820152600754608082015290565b60003660147f00000000000000000000000000000000000000000000000000000000000000006001600160a01b031633148015610e175750808210155b15610e4757600036610e298385610fb3565b610e34928290610fda565b610e3d91611004565b60601c9250505090565b339250505090565b600260005403610e8b576040517f3ee5aeb500000000000000000000000000000000000000000000000000000000815260040160405180910390fd5b6002600055565b634e487b7160e01b600052602160045260246000fd5b6020810160068310610eca57634e487b7160e01b600052602160045260246000fd5b91905290565b80356001600160a01b0381168114610ee757600080fd5b919050565b600060208284031215610efe57600080fd5b610f0782610ed0565b9392505050565b600060a08284031215610f2057600080fd5b60405160a0810181811067ffffffffffffffff82111715610f5157634e487b7160e01b600052604160045260246000fd5b60405282358152610f6460208401610ed0565b60208201526040830135604082015260608301356060820152608083013560808201528091505092915050565b600060208284031215610fa357600080fd5b81518015158114610f0757600080fd5b81810381811115610fd457634e487b7160e01b600052601160045260246000fd5b92915050565b60008085851115610fea57600080fd5b83861115610ff757600080fd5b5050820193919092039150565b6bffffffffffffffffffffffff1981358181169160148510156110315780818660140360031b1b83161692505b50509291505056fea264697066735822122024d73423c3e4eb7743ff62e5ed9dfa696ce5df5849c689083028f4bbfc477e5c64736f6c63430008140033",
  "linkReferences": {},
  "deployedLinkReferences": {}
}