{
  "_format": "hh-sol-artifact-1",
  "contractName": "RegisterMetadata",
  "sourceName": "contracts/register/metadata/RegisterMetadata.sol",
  "abi": [
    {
      "inputs": [],
      "name": "ERC20Base__ApproveFromZeroAddress",
      "type": "error"
    },
    {
      "inputs": [],
      "name": "ERC20Base__ApproveToZeroAddress",
      "type": "error"
    },
    {
      "inputs": [],
      "name": "ERC20Base__BurnExceedsBalance",
      "type": "error"
    },
    {
      "inputs": [],
      "name": "ERC20Base__BurnFromZeroAddress",
      "type": "error"
    },
    {
      "inputs": [],
      "name": "ERC20Base__InsufficientAllowance",
      "type": "error"
    },
    {
      "inputs": [],
      "name": "ERC20Base__MintToZeroAddress",
      "type": "error"
    },
    {
      "inputs": [],
      "name": "ERC20Base__TransferExceedsBalance",
      "type": "error"
    },
    {
      "inputs": [],
      "name": "ERC20Base__TransferFromZeroAddress",
      "type": "error"
    },
    {
      "inputs": [],
      "name": "ERC20Base__TransferToZeroAddress",
      "type": "error"
    },
    {
      "inputs": [],
      "name": "ERC20Snapshot__SnapshotIdDoesNotExists",
      "type": "error"
    },
    {
      "inputs": [],
      "name": "ERC20Snapshot__SnapshotIdIsZero",
      "type": "error"
    },
    {
      "inputs": [],
      "name": "EnumerableSet__IndexOutOfBounds",
      "type": "error"
    },
    {
      "inputs": [],
      "name": "ReentrancyGuard__ReentrantCall",
      "type": "error"
    },
    {
      "inputs": [],
      "name": "UintUtils__InsufficientHexLength",
      "type": "error"
    },
    {
      "anonymous": false,
      "inputs": [
        {
          "indexed": true,
          "internalType": "address",
          "name": "_addressForNewAdmin",
          "type": "address"
        }
      ],
      "name": "AdminChanged",
      "type": "event"
    },
    {
      "anonymous": false,
      "inputs": [
        {
          "indexed": true,
          "internalType": "address",
          "name": "owner",
          "type": "address"
        },
        {
          "indexed": true,
          "internalType": "address",
          "name": "spender",
          "type": "address"
        },
        {
          "indexed": false,
          "internalType": "uint256",
          "name": "value",
          "type": "uint256"
        }
      ],
      "name": "Approval",
      "type": "event"
    },
    {
      "anonymous": false,
      "inputs": [
        {
          "indexed": false,
          "internalType": "bytes32",
          "name": "contractHash",
          "type": "bytes32"
        }
      ],
      "name": "DisableContract",
      "type": "event"
    },
    {
      "anonymous": false,
      "inputs": [
        {
          "indexed": false,
          "internalType": "address",
          "name": "investor",
          "type": "address"
        }
      ],
      "name": "DisableInvestor",
      "type": "event"
    },
    {
      "anonymous": false,
      "inputs": [
        {
          "indexed": false,
          "internalType": "bytes32",
          "name": "contractHash",
          "type": "bytes32"
        }
      ],
      "name": "EnableContract",
      "type": "event"
    },
    {
      "anonymous": false,
      "inputs": [
        {
          "indexed": false,
          "internalType": "address",
          "name": "investor",
          "type": "address"
        }
      ],
      "name": "EnableInvestor",
      "type": "event"
    },
    {
      "anonymous": false,
      "inputs": [
        {
          "indexed": false,
          "internalType": "uint64",
          "name": "version",
          "type": "uint64"
        }
      ],
      "name": "Initialized",
      "type": "event"
    },
    {
      "anonymous": false,
      "inputs": [
        {
          "indexed": true,
          "internalType": "address",
          "name": "creator",
          "type": "address"
        },
        {
          "indexed": false,
          "internalType": "string",
          "name": "name",
          "type": "string"
        },
        {
          "indexed": false,
          "internalType": "string",
          "name": "isin",
          "type": "string"
        }
      ],
      "name": "NewBondDrafted",
      "type": "event"
    },
    {
      "anonymous": false,
      "inputs": [
        {
          "indexed": true,
          "internalType": "address",
          "name": "sender",
          "type": "address"
        },
        {
          "indexed": true,
          "internalType": "address",
          "name": "target",
          "type": "address"
        },
        {
          "indexed": false,
          "internalType": "string",
          "name": "message",
          "type": "string"
        }
      ],
      "name": "PublicMessage",
      "type": "event"
    },
    {
      "anonymous": false,
      "inputs": [
        {
          "indexed": true,
          "internalType": "address",
          "name": "emiter",
          "type": "address"
        },
        {
          "indexed": false,
          "internalType": "string",
          "name": "name",
          "type": "string"
        },
        {
          "indexed": false,
          "internalType": "string",
          "name": "isin",
          "type": "string"
        },
        {
          "indexed": false,
          "internalType": "enum IRegisterMetadataInternal.Status",
          "name": "status",
          "type": "uint8"
        }
      ],
      "name": "RegisterStatusChanged",
      "type": "event"
    },
    {
      "anonymous": false,
      "inputs": [
        {
          "indexed": true,
          "internalType": "bytes32",
          "name": "role",
          "type": "bytes32"
        },
        {
          "indexed": true,
          "internalType": "bytes32",
          "name": "previousAdminRole",
          "type": "bytes32"
        },
        {
          "indexed": true,
          "internalType": "bytes32",
          "name": "newAdminRole",
          "type": "bytes32"
        }
      ],
      "name": "RoleAdminChanged",
      "type": "event"
    },
    {
      "anonymous": false,
      "inputs": [
        {
          "indexed": true,
          "internalType": "bytes32",
          "name": "role",
          "type": "bytes32"
        },
        {
          "indexed": true,
          "internalType": "address",
          "name": "account",
          "type": "address"
        },
        {
          "indexed": true,
          "internalType": "address",
          "name": "sender",
          "type": "address"
        }
      ],
      "name": "RoleGranted",
      "type": "event"
    },
    {
      "anonymous": false,
      "inputs": [
        {
          "indexed": true,
          "internalType": "bytes32",
          "name": "role",
          "type": "bytes32"
        },
        {
          "indexed": true,
          "internalType": "address",
          "name": "account",
          "type": "address"
        },
        {
          "indexed": true,
          "internalType": "address",
          "name": "sender",
          "type": "address"
        }
      ],
      "name": "RoleRevoked",
      "type": "event"
    },
    {
      "anonymous": false,
      "inputs": [
        {
          "indexed": false,
          "internalType": "uint256",
          "name": "id",
          "type": "uint256"
        }
      ],
      "name": "Snapshot",
      "type": "event"
    },
    {
      "anonymous": false,
      "inputs": [
        {
          "indexed": true,
          "internalType": "uint256",
          "name": "couponDate",
          "type": "uint256"
        },
        {
          "indexed": true,
          "internalType": "uint256",
          "name": "currentTimestamp",
          "type": "uint256"
        },
        {
          "indexed": true,
          "internalType": "uint256",
          "name": "nextTimestamp",
          "type": "uint256"
        }
      ],
      "name": "SnapshotTimestampChange",
      "type": "event"
    },
    {
      "anonymous": false,
      "inputs": [
        {
          "indexed": true,
          "internalType": "address",
          "name": "from",
          "type": "address"
        },
        {
          "indexed": true,
          "internalType": "address",
          "name": "to",
          "type": "address"
        },
        {
          "indexed": false,
          "internalType": "uint256",
          "name": "value",
          "type": "uint256"
        }
      ],
      "name": "Transfer",
      "type": "event"
    },
    {
      "anonymous": false,
      "inputs": [
        {
          "indexed": true,
          "internalType": "address",
          "name": "toBeAdded",
          "type": "address"
        }
      ],
      "name": "WalletAddedToWhitelist",
      "type": "event"
    },
    {
      "anonymous": false,
      "inputs": [
        {
          "indexed": true,
          "internalType": "address",
          "name": "toBeDeleted",
          "type": "address"
        }
      ],
      "name": "WalletDeletedFromWhitelist",
      "type": "event"
    },
    {
      "inputs": [],
      "name": "BND_ROLE",
      "outputs": [
        {
          "internalType": "bytes32",
          "name": "",
          "type": "bytes32"
        }
      ],
      "stateMutability": "view",
      "type": "function"
    },
    {
      "inputs": [],
      "name": "CAK_ROLE",
      "outputs": [
        {
          "internalType": "bytes32",
          "name": "",
          "type": "bytes32"
        }
      ],
      "stateMutability": "view",
      "type": "function"
    },
    {
      "inputs": [],
      "name": "CST_ROLE",
      "outputs": [
        {
          "internalType": "bytes32",
          "name": "",
          "type": "bytes32"
        }
      ],
      "stateMutability": "view",
      "type": "function"
    },
    {
      "inputs": [],
      "name": "PAY_ROLE",
      "outputs": [
        {
          "internalType": "bytes32",
          "name": "",
          "type": "bytes32"
        }
      ],
      "stateMutability": "view",
      "type": "function"
    },
    {
      "inputs": [
        {
          "internalType": "uint256",
          "name": "_couponDate",
          "type": "uint256"
        }
      ],
      "name": "_totalSupplyAtCoupon",
      "outputs": [
        {
          "internalType": "uint256",
          "name": "",
          "type": "uint256"
        }
      ],
      "stateMutability": "view",
      "type": "function"
    },
    {
      "inputs": [
        {
          "internalType": "uint256",
          "name": "date",
          "type": "uint256"
        }
      ],
      "name": "addCouponDate",
      "outputs": [],
      "stateMutability": "nonpayable",
      "type": "function"
    },
    {
      "inputs": [
        {
          "internalType": "address",
          "name": "holder",
          "type": "address"
        },
        {
          "internalType": "address",
          "name": "spender",
          "type": "address"
        }
      ],
      "name": "allowance",
      "outputs": [
        {
          "internalType": "uint256",
          "name": "",
          "type": "uint256"
        }
      ],
      "stateMutability": "view",
      "type": "function"
    },
    {
      "inputs": [
        {
          "internalType": "address",
          "name": "spender",
          "type": "address"
        },
        {
          "internalType": "uint256",
          "name": "amount",
          "type": "uint256"
        }
      ],
      "name": "approve",
      "outputs": [
        {
          "internalType": "bool",
          "name": "",
          "type": "bool"
        }
      ],
      "stateMutability": "nonpayable",
      "type": "function"
    },
    {
      "inputs": [
        {
          "internalType": "address",
          "name": "account",
          "type": "address"
        }
      ],
      "name": "balanceOf",
      "outputs": [
        {
          "internalType": "uint256",
          "name": "",
          "type": "uint256"
        }
      ],
      "stateMutability": "view",
      "type": "function"
    },
    {
      "inputs": [
        {
          "internalType": "address",
          "name": "account",
          "type": "address"
        },
        {
          "internalType": "uint256",
          "name": "snapshotId",
          "type": "uint256"
        }
      ],
      "name": "balanceOfAt",
      "outputs": [
        {
          "internalType": "uint256",
          "name": "",
          "type": "uint256"
        }
      ],
      "stateMutability": "view",
      "type": "function"
    },
    {
      "inputs": [
        {
          "internalType": "uint256",
          "name": "_couponDate",
          "type": "uint256"
        }
      ],
      "name": "checkIfCouponDateExists",
      "outputs": [
        {
          "internalType": "bool",
          "name": "",
          "type": "bool"
        }
      ],
      "stateMutability": "view",
      "type": "function"
    },
    {
      "inputs": [
        {
          "internalType": "uint256",
          "name": "_maturityDate",
          "type": "uint256"
        }
      ],
      "name": "checkIfMaturityDateExists",
      "outputs": [
        {
          "internalType": "bool",
          "name": "",
          "type": "bool"
        }
      ],
      "stateMutability": "view",
      "type": "function"
    },
    {
      "inputs": [],
      "name": "decimals",
      "outputs": [
        {
          "internalType": "uint8",
          "name": "",
          "type": "uint8"
        }
      ],
      "stateMutability": "view",
      "type": "function"
    },
    {
      "inputs": [
        {
          "internalType": "address",
          "name": "spender",
          "type": "address"
        },
        {
          "internalType": "uint256",
          "name": "subtractedValue",
          "type": "uint256"
        }
      ],
      "name": "decreaseAllowance",
      "outputs": [
        {
          "internalType": "bool",
          "name": "",
          "type": "bool"
        }
      ],
      "stateMutability": "nonpayable",
      "type": "function"
    },
    {
      "inputs": [
        {
          "internalType": "uint256",
          "name": "date",
          "type": "uint256"
        }
      ],
      "name": "delCouponDate",
      "outputs": [],
      "stateMutability": "nonpayable",
      "type": "function"
    },
    {
      "inputs": [],
      "name": "getBondCouponRate",
      "outputs": [
        {
          "internalType": "uint256",
          "name": "",
          "type": "uint256"
        }
      ],
      "stateMutability": "view",
      "type": "function"
    },
    {
      "inputs": [],
      "name": "getBondData",
      "outputs": [
        {
          "components": [
            {
              "internalType": "string",
              "name": "name",
              "type": "string"
            },
            {
              "internalType": "string",
              "name": "isin",
              "type": "string"
            },
            {
              "internalType": "uint256",
              "name": "expectedSupply",
              "type": "uint256"
            },
            {
              "internalType": "bytes32",
              "name": "currency",
              "type": "bytes32"
            },
            {
              "internalType": "uint256",
              "name": "unitValue",
              "type": "uint256"
            },
            {
              "internalType": "uint256",
              "name": "couponRate",
              "type": "uint256"
            },
            {
              "internalType": "uint256",
              "name": "creationDate",
              "type": "uint256"
            },
            {
              "internalType": "uint256",
              "name": "issuanceDate",
              "type": "uint256"
            },
            {
              "internalType": "uint256",
              "name": "maturityDate",
              "type": "uint256"
            },
            {
              "internalType": "uint256[]",
              "name": "couponDates",
              "type": "uint256[]"
            },
            {
              "internalType": "uint256",
              "name": "cutOffTime",
              "type": "uint256"
            }
          ],
          "internalType": "struct IRegisterMetadataInternal.BondData",
          "name": "",
          "type": "tuple"
        }
      ],
      "stateMutability": "view",
      "type": "function"
    },
    {
      "inputs": [],
      "name": "getBondUnitValue",
      "outputs": [
        {
          "internalType": "uint256",
          "name": "",
          "type": "uint256"
        }
      ],
      "stateMutability": "view",
      "type": "function"
    },
    {
      "inputs": [],
      "name": "getCreationDate",
      "outputs": [
        {
          "internalType": "uint256",
          "name": "",
          "type": "uint256"
        }
      ],
      "stateMutability": "view",
      "type": "function"
    },
    {
      "inputs": [],
      "name": "getIssuanceDate",
      "outputs": [
        {
          "internalType": "uint256",
          "name": "",
          "type": "uint256"
        }
      ],
      "stateMutability": "view",
      "type": "function"
    },
    {
      "inputs": [
        {
          "internalType": "bytes32",
          "name": "role",
          "type": "bytes32"
        }
      ],
      "name": "getRoleAdmin",
      "outputs": [
        {
          "internalType": "bytes32",
          "name": "",
          "type": "bytes32"
        }
      ],
      "stateMutability": "view",
      "type": "function"
    },
    {
      "inputs": [
        {
          "internalType": "bytes32",
          "name": "role",
          "type": "bytes32"
        },
        {
          "internalType": "uint256",
          "name": "index",
          "type": "uint256"
        }
      ],
      "name": "getRoleMember",
      "outputs": [
        {
          "internalType": "address",
          "name": "",
          "type": "address"
        }
      ],
      "stateMutability": "view",
      "type": "function"
    },
    {
      "inputs": [
        {
          "internalType": "bytes32",
          "name": "role",
          "type": "bytes32"
        }
      ],
      "name": "getRoleMemberCount",
      "outputs": [
        {
          "internalType": "uint256",
          "name": "",
          "type": "uint256"
        }
      ],
      "stateMutability": "view",
      "type": "function"
    },
    {
      "inputs": [
        {
          "internalType": "bytes32",
          "name": "role",
          "type": "bytes32"
        },
        {
          "internalType": "address",
          "name": "account",
          "type": "address"
        }
      ],
      "name": "grantRole",
      "outputs": [],
      "stateMutability": "nonpayable",
      "type": "function"
    },
    {
      "inputs": [
        {
          "internalType": "bytes32",
          "name": "role",
          "type": "bytes32"
        },
        {
          "internalType": "address",
          "name": "account",
          "type": "address"
        }
      ],
      "name": "hasRole",
      "outputs": [
        {
          "internalType": "bool",
          "name": "",
          "type": "bool"
        }
      ],
      "stateMutability": "view",
      "type": "function"
    },
    {
      "inputs": [
        {
          "internalType": "address",
          "name": "spender",
          "type": "address"
        },
        {
          "internalType": "uint256",
          "name": "addedValue",
          "type": "uint256"
        }
      ],
      "name": "increaseAllowance",
      "outputs": [
        {
          "internalType": "bool",
          "name": "",
          "type": "bool"
        }
      ],
      "stateMutability": "nonpayable",
      "type": "function"
    },
    {
      "inputs": [
        {
          "internalType": "address",
          "name": "forwarder",
          "type": "address"
        }
      ],
      "name": "isTrustedForwarder",
      "outputs": [
        {
          "internalType": "bool",
          "name": "",
          "type": "bool"
        }
      ],
      "stateMutability": "view",
      "type": "function"
    },
    {
      "inputs": [],
      "name": "makeReady",
      "outputs": [],
      "stateMutability": "nonpayable",
      "type": "function"
    },
    {
      "inputs": [],
      "name": "name",
      "outputs": [
        {
          "internalType": "string",
          "name": "",
          "type": "string"
        }
      ],
      "stateMutability": "view",
      "type": "function"
    },
    {
      "inputs": [],
      "name": "primaryIssuanceAccount",
      "outputs": [
        {
          "internalType": "address",
          "name": "",
          "type": "address"
        }
      ],
      "stateMutability": "view",
      "type": "function"
    },
    {
      "inputs": [
        {
          "internalType": "address",
          "name": "to",
          "type": "address"
        },
        {
          "internalType": "string",
          "name": "message",
          "type": "string"
        }
      ],
      "name": "publicMessage",
      "outputs": [],
      "stateMutability": "nonpayable",
      "type": "function"
    },
    {
      "inputs": [
        {
          "internalType": "bytes32",
          "name": "role",
          "type": "bytes32"
        }
      ],
      "name": "renounceRole",
      "outputs": [],
      "stateMutability": "nonpayable",
      "type": "function"
    },
    {
      "inputs": [
        {
          "internalType": "address",
          "name": "investor",
          "type": "address"
        }
      ],
      "name": "returnBalanceToPrimaryIssuanceAccount",
      "outputs": [
        {
          "internalType": "bool",
          "name": "",
          "type": "bool"
        }
      ],
      "stateMutability": "nonpayable",
      "type": "function"
    },
    {
      "inputs": [],
      "name": "revertReady",
      "outputs": [],
      "stateMutability": "nonpayable",
      "type": "function"
    },
    {
      "inputs": [
        {
          "internalType": "bytes32",
          "name": "role",
          "type": "bytes32"
        },
        {
          "internalType": "address",
          "name": "account",
          "type": "address"
        }
      ],
      "name": "revokeRole",
      "outputs": [],
      "stateMutability": "nonpayable",
      "type": "function"
    },
    {
      "inputs": [
        {
          "internalType": "string",
          "name": "name_",
          "type": "string"
        },
        {
          "internalType": "uint256",
          "name": "expectedSupply_",
          "type": "uint256"
        },
        {
          "internalType": "bytes32",
          "name": "currency_",
          "type": "bytes32"
        },
        {
          "internalType": "uint256",
          "name": "unitVal_",
          "type": "uint256"
        },
        {
          "internalType": "uint256",
          "name": "couponRate_",
          "type": "uint256"
        },
        {
          "internalType": "uint256",
          "name": "issuanceDate_",
          "type": "uint256"
        },
        {
          "internalType": "uint256",
          "name": "maturityDate_",
          "type": "uint256"
        },
        {
          "internalType": "uint256",
          "name": "cutOffTime_",
          "type": "uint256"
        }
      ],
      "name": "setBondData",
      "outputs": [],
      "stateMutability": "nonpayable",
      "type": "function"
    },
    {
      "inputs": [
        {
          "internalType": "uint256",
          "name": "creationDate",
          "type": "uint256"
        }
      ],
      "name": "setCreationDate",
      "outputs": [],
      "stateMutability": "nonpayable",
      "type": "function"
    },
    {
      "inputs": [
        {
          "internalType": "bytes32",
          "name": "currency",
          "type": "bytes32"
        }
      ],
      "name": "setCurrency",
      "outputs": [],
      "stateMutability": "nonpayable",
      "type": "function"
    },
    {
      "inputs": [
        {
          "internalType": "uint256",
          "name": "couponDate_",
          "type": "uint256"
        },
        {
          "internalType": "uint256",
          "name": "recordDatetime_",
          "type": "uint256"
        }
      ],
      "name": "setCurrentCouponDate",
      "outputs": [],
      "stateMutability": "nonpayable",
      "type": "function"
    },
    {
      "inputs": [
        {
          "internalType": "uint256",
          "name": "expectedSupply",
          "type": "uint256"
        }
      ],
      "name": "setExpectedSupply",
      "outputs": [],
      "stateMutability": "nonpayable",
      "type": "function"
    },
    {
      "inputs": [
        {
          "internalType": "string",
          "name": "isinSymbol",
          "type": "string"
        }
      ],
      "name": "setIsinSymbol",
      "outputs": [],
      "stateMutability": "nonpayable",
      "type": "function"
    },
    {
      "inputs": [
        {
          "internalType": "uint256",
          "name": "issuanceDate",
          "type": "uint256"
        }
      ],
      "name": "setIssuanceDate",
      "outputs": [],
      "stateMutability": "nonpayable",
      "type": "function"
    },
    {
      "inputs": [
        {
          "internalType": "string",
          "name": "name_",
          "type": "string"
        }
      ],
      "name": "setName",
      "outputs": [],
      "stateMutability": "nonpayable",
      "type": "function"
    },
    {
      "inputs": [],
      "name": "status",
      "outputs": [
        {
          "internalType": "enum IRegisterMetadataInternal.Status",
          "name": "",
          "type": "uint8"
        }
      ],
      "stateMutability": "view",
      "type": "function"
    },
    {
      "inputs": [],
      "name": "symbol",
      "outputs": [
        {
          "internalType": "string",
          "name": "",
          "type": "string"
        }
      ],
      "stateMutability": "view",
      "type": "function"
    },
    {
      "inputs": [],
      "name": "toggleFrozen",
      "outputs": [],
      "stateMutability": "nonpayable",
      "type": "function"
    },
    {
      "inputs": [],
      "name": "totalSupply",
      "outputs": [
        {
          "internalType": "uint256",
          "name": "",
          "type": "uint256"
        }
      ],
      "stateMutability": "view",
      "type": "function"
    },
    {
      "inputs": [
        {
          "internalType": "uint256",
          "name": "snapshotId",
          "type": "uint256"
        }
      ],
      "name": "totalSupplyAt",
      "outputs": [
        {
          "internalType": "uint256",
          "name": "",
          "type": "uint256"
        }
      ],
      "stateMutability": "view",
      "type": "function"
    },
    {
      "inputs": [
        {
          "internalType": "address",
          "name": "recipient",
          "type": "address"
        },
        {
          "internalType": "uint256",
          "name": "amount",
          "type": "uint256"
        }
      ],
      "name": "transfer",
      "outputs": [
        {
          "internalType": "bool",
          "name": "",
          "type": "bool"
        }
      ],
      "stateMutability": "nonpayable",
      "type": "function"
    },
    {
      "inputs": [
        {
          "internalType": "address",
          "name": "holder",
          "type": "address"
        },
        {
          "internalType": "address",
          "name": "recipient",
          "type": "address"
        },
        {
          "internalType": "uint256",
          "name": "amount",
          "type": "uint256"
        }
      ],
      "name": "transferFrom",
      "outputs": [
        {
          "internalType": "bool",
          "name": "",
          "type": "bool"
        }
      ],
      "stateMutability": "nonpayable",
      "type": "function"
    },
    {
      "inputs": [],
      "name": "trustedForwarder",
      "outputs": [
        {
          "internalType": "address",
          "name": "",
          "type": "address"
        }
      ],
      "stateMutability": "view",
      "type": "function"
    }
  ],
  "bytecode": "0x608060405234801561001057600080fd5b50614fed806100206000396000f3fe608060405234801561001057600080fd5b50600436106103415760003560e01c806371c41f8a116101bd578063a9059cbb116100f9578063d4cdda91116100a2578063d8eab9a51161007c578063d8eab9a5146106e6578063d9a79978146106f9578063dc16722b1461070c578063dd62ed3e1461071457600080fd5b8063d4cdda91146106ad578063d547741f146106c0578063d58c80b4146106d357600080fd5b8063c47f0027116100d3578063c47f00271461067f578063ca15c87314610692578063d46be608146106a557600080fd5b8063a9059cbb14610651578063abc2cf2a14610664578063b90c1dbb1461067757600080fd5b80639010d07c1161016657806395d89b411161014057806395d89b411461061b578063981b24d014610623578063a457c2d714610636578063a7f2f6ec1461064957600080fd5b80639010d07c146105e257806391d14854146105f557806393c393931461060857600080fd5b80638784ff18116101975780638784ff18146105b25780638865f1e2146105ba5780638bb9c5bf146105cf57600080fd5b806371c41f8a146105675780637469538a1461057a5780637da0a8771461058d57600080fd5b80633052974c1161028c5780633e4be639116102355780634ee2cd7e1161020f5780634ee2cd7e14610519578063572b6c051461052c57806363896d191461053f57806370a082311461055457600080fd5b80633e4be639146104eb5780633e7e8713146104f35780634e0b0dcf1461050657600080fd5b80633950935111610266578063395093511461049e5780633bf2a9f4146104b15780633e0abded146104d857600080fd5b80633052974c14610469578063313ce5671461047c57806339027f7c1461049657600080fd5b8063200d2ed2116102ee5780632682ac91116102c85780632682ac91146104275780632877d4731461044e5780632f2ff15d1461045657600080fd5b8063200d2ed2146103ec57806323b872dd14610401578063248a9ca31461041457600080fd5b806317559df01161031f57806317559df01461039c57806318160ddd146103af5780631c67a363146103c557600080fd5b806306ec8ca61461034657806306fdde031461035b578063095ea7b314610379575b600080fd5b6103596103543660046147a3565b610727565b005b610363610733565b604051610370919061480c565b60405180910390f35b61038c61038736600461483b565b610742565b6040519015158152602001610370565b6103596103aa366004614908565b61075f565b6103b7610779565b604051908152602001610370565b6103b77f6ba6f588bcdc2df8426603a466c98ab15e79f7fb7f37b53581ce39c1d01b724981565b6103f46107a3565b60405161037091906149b7565b61038c61040f3660046149c5565b6107be565b6103b76104223660046147a3565b6107d5565b6103b77ff698af62c65280e4949bceec64b760f3b7738217cbc536cdfc4c9463676b05c281565b6103b761080b565b610359610464366004614a01565b610835565b610359610477366004614a2d565b61087e565b61048461088c565b60405160ff9091168152602001610370565b6103b76108b9565b61038c6104ac36600461483b565b6108e3565b6103b77fd7aa2ddfa4e381128202bf365b7e0a176f2fca6cdf2f23c2b0a6f4393769589081565b6103b76104e63660046147a3565b6108ef565b61035961097d565b6103596105013660046147a3565b610987565b610359610514366004614a4f565b610990565b6103b761052736600461483b565b610999565b61038c61053a366004614a84565b6109a5565b6105476109bc565b6040516103709190614ada565b6103b7610562366004614a84565b610a24565b61038c6105753660046147a3565b610a61565b6103596105883660046147a3565b610a6c565b6000546001600160a01b03165b6040516001600160a01b039091168152602001610370565b61059a610a75565b6103b7600080516020614f7883398151915281565b6103596105dd3660046147a3565b610aa8565b61059a6105f0366004614a2d565b610ab1565b61038c610603366004614a01565b610abd565b6103596106163660046147a3565b610ac9565b610363610ad2565b6103b76106313660046147a3565b610adc565b61038c61064436600461483b565b610ae7565b6103b7610af3565b61038c61065f36600461483b565b610b1d565b61038c610672366004614a84565b610b31565b6103b7610b3c565b61035961068d366004614a4f565b610b66565b6103b76106a03660046147a3565b610b6f565b610359610b7a565b61038c6106bb3660046147a3565b610b82565b6103596106ce366004614a01565b610bae565b6103596106e13660046147a3565b610bf2565b6103596106f43660046147a3565b610bfb565b610359610707366004614b9a565b610c04565b610359610c0e565b6103b7610722366004614be8565b610c16565b61073081610c62565b50565b606061073d610ceb565b905090565b600061075661074f610d9c565b8484610da6565b90505b92915050565b61076f8888888888888888610eae565b5050505050505050565b600061073d7fbbbdc1476a0878f2ef9a893c81f5b6f6ea1b3acaf18ff47ccb69cd4267d50c885490565b600061073d600080516020614f988339815191525460ff1690565b60006107cb8484846110bf565b90505b9392505050565b60008181527f2e59e4c2e927cdddbb64e181e0668d9a0fa70dd88f94d999cd87d5496a20da626020526040812060020154610759565b600061073d7fe02854d75ca0f6b56099fb1e1546a75ef76f441f4e6082f2e3cbb1e8dc5591a85490565b60008281527f2e59e4c2e927cdddbb64e181e0668d9a0fa70dd88f94d999cd87d5496a20da62602052604090206002015461086f81611517565b6108798383611528565b505050565b61088882826116aa565b5050565b600061073d7f8c998f45074727a62053813302c526655913012298b223f931495bf68495bf685460ff1690565b600061073d7fe02854d75ca0f6b56099fb1e1546a75ef76f441f4e6082f2e3cbb1e8dc5591a65490565b600061075683836117a4565b60008181527f95d8298a3d25370298f52eb5e4c2caa68ca2492c02741ad9ada9443a021d759160205260408120547f95d8298a3d25370298f52eb5e4c2caa68ca2492c02741ad9ada9443a021d758d9080156109565761094e8161181a565b949350505050565b7fbbbdc1476a0878f2ef9a893c81f5b6f6ea1b3acaf18ff47ccb69cd4267d50c885461094e565b610985611878565b565b61073081611a3c565b61073081611c02565b60006107568383611c97565b600080546001600160a01b03838116911614610759565b610a1c60405180610160016040528060608152602001606081526020016000815260200160008019168152602001600081526020016000815260200160008152602001600081526020016000815260200160608152602001600081525090565b61073d611d2f565b6001600160a01b03811660009081527fbbbdc1476a0878f2ef9a893c81f5b6f6ea1b3acaf18ff47ccb69cd4267d50c866020526040812054610759565b600061075982611f9f565b61073081611fed565b600061073d7fe02854d75ca0f6b56099fb1e1546a75ef76f441f4e6082f2e3cbb1e8dc5591ac546001600160a01b031690565b61073081612322565b60006107568383612333565b6000610756838361236a565b610730816123a1565b606061073d612420565b60006107598261181a565b60006107568383612451565b600061073d7fe02854d75ca0f6b56099fb1e1546a75ef76f441f4e6082f2e3cbb1e8dc5591a55490565b6000610756610b2a610d9c565b84846124eb565b600061075982612684565b600061073d7fe02854d75ca0f6b56099fb1e1546a75ef76f441f4e6082f2e3cbb1e8dc5591a75490565b610730816129d2565b600061075982612a67565b610985612a9d565b6000610759827fe02854d75ca0f6b56099fb1e1546a75ef76f441f4e6082f2e3cbb1e8dc5591a9541490565b60008281527f2e59e4c2e927cdddbb64e181e0668d9a0fa70dd88f94d999cd87d5496a20da626020526040902060020154610be881611517565b6108798383612baf565b61073081612d36565b61073081612e32565b6108888282612eb1565b610985613029565b6001600160a01b0380831660009081527fbbbdc1476a0878f2ef9a893c81f5b6f6ea1b3acaf18ff47ccb69cd4267d50c8760209081526040808320938516835292905290812054610756565b610c81600080516020614f78833981519152610c7c610d9c565b61236a565b610cc75760405162461bcd60e51b815260206004820152601260248201527143616c6c6572206d7573742062652043414b60701b60448201526064015b60405180910390fd5b7fe02854d75ca0f6b56099fb1e1546a75ef76f441f4e6082f2e3cbb1e8dc5591a455565b60607f8c998f45074727a62053813302c526655913012298b223f931495bf68495bf668054610d1990614c12565b80601f0160208091040260200160405190810160405280929190818152602001828054610d4590614c12565b8015610d925780601f10610d6757610100808354040283529160200191610d92565b820191906000526020600020905b815481529060010190602001808311610d7557829003601f168201915b5050505050905090565b600061073d613202565b60006001600160a01b038416610de8576040517f5a68b7ab00000000000000000000000000000000000000000000000000000000815260040160405180910390fd5b6001600160a01b038316610e28576040517fc524160000000000000000000000000000000000000000000000000000000000815260040160405180910390fd5b6001600160a01b0384811660008181527fbbbdc1476a0878f2ef9a893c81f5b6f6ea1b3acaf18ff47ccb69cd4267d50c876020908152604080832094881680845294825291829020869055815186815291517f8c5be1e5ebec7d5bd14f71427d1e84f3dd0314c0f7b2291e5b200ac8c7c3b9259281900390910190a35060019392505050565b610ec8600080516020614f78833981519152610c7c610d9c565b610f095760405162461bcd60e51b815260206004820152601260248201527143616c6c6572206d7573742062652043414b60701b6044820152606401610cbe565b7fe02854d75ca0f6b56099fb1e1546a75ef76f441f4e6082f2e3cbb1e8dc5591aa54600080516020614f98833981519152901561107d576008810154600a82018054600090610f5a57610f5a614c4c565b906000526020600020015411610fd85760405162461bcd60e51b815260206004820152603660248201527f43616e6e6f742073657420612069737375616e6365206461746520616674657260448201527f2074686520666972737420636f75706f6e2064617465000000000000000000006064820152608401610cbe565b6009810154600a82018054610fef90600190614c78565b81548110610fff57610fff614c4c565b90600052602060002001541061107d5760405162461bcd60e51b815260206004820152603660248201527f43616e6e6f74207365742061206d617475726974792064617465206265666f7260448201527f6520746865206c61737420636f75706f6e2064617465000000000000000000006064820152608401610cbe565b6001810161108b8a82614cd9565b50600381019790975560048701959095556005860193909355600685019190915560088401556009830155600b9091015550565b6000600080516020614f988339815191526110e8600080516020614f788339815191523361236a565b15611103576110f88585856124eb565b5060019150506107ce565b61110c3361320c565b6111585760405162461bcd60e51b815260206004820181905260248201527f5468697320636f6e7472616374206973206e6f742077686974656c69737465646044820152606401610cbe565b6004815460ff1660048111156111705761117061497f565b036111e35760405162461bcd60e51b815260206004820152603360248201527f4e6f207472616e736665722063616e20626520646f6e65207768656e2074686560448201527f2072656769737465722069732046726f7a656e000000000000000000000000006064820152608401610cbe565b6001815460ff1660048111156111fb576111fb61497f565b14801561122d575061122d7ff698af62c65280e4949bceec64b760f3b7738217cbc536cdfc4c9463676b05c28561236a565b80156112485750600c8101546001600160a01b038681169116145b156113aa578054600260ff19909116811782557f332cf6b129284e49df93f4be38bb1959bb5fa7d7d0ce3d4ad668f566f35f6fd4805460018181019092557f3b5a704516de56a4fa30eb29b0bf899a47de4e07d715ffde30cee9d593da4416810180546001600160a01b0389167fffffffffffffffffffffffff0000000000000000000000000000000000000000918216811790925560008281527f332cf6b129284e49df93f4be38bb1959bb5fa7d7d0ce3d4ad668f566f35f6fd56020526040902093840192909255825493830180549092169091557fffffffffffffffffffffff0000000000000000000000000000000000000000009092169091179055611350610d9c565b81546040516001600160a01b0392909216917fda2010acfda7a262372331cb3b57e3f648f63eb009a423a2b5602cfa4f9bff519161139d916001860191600287019160ff90911690614e16565b60405180910390a261150c565b6113f2846001600160a01b031660009081527f332cf6b129284e49df93f4be38bb1959bb5fa7d7d0ce3d4ad668f566f35f6fd56020526040902054600160a01b900460ff1690565b15156001146114435760405162461bcd60e51b815260206004820152601b60248201527f546865207265636569766572206973206e6f7420616c6c6f77656400000000006044820152606401610cbe565b61148b856001600160a01b031660009081527f332cf6b129284e49df93f4be38bb1959bb5fa7d7d0ce3d4ad668f566f35f6fd56020526040902054600160a01b900460ff1690565b1515600114806114c057506114c07ff698af62c65280e4949bceec64b760f3b7738217cbc536cdfc4c9463676b05c28661236a565b61150c5760405162461bcd60e51b815260206004820152601960248201527f5468652073656e646572206973206e6f7420616c6c6f776564000000000000006044820152606401610cbe565b6110f88585856124eb565b61073081611523610d9c565b613253565b816115865760405162461bcd60e51b8152602060048201526024808201527f5573652066756e6374696f6e206368616e676541646d696e526f6c6520696e736044820152631d19585960e21b6064820152608401610cbe565b6116a0565b600080516020614f78833981519152820361163a576115b5600080516020614f78833981519152610c7c610d9c565b806115c857506115c86000610c7c610d9c565b6115815760405162461bcd60e51b815260206004820152602e60248201527f43616c6c6572206d7573742062652043414b206f722041444d494e20746f207360448201527f657420616e6f746865722043414b0000000000000000000000000000000000006064820152608401610cbe565b611654600080516020614f78833981519152610c7c610d9c565b6116a05760405162461bcd60e51b815260206004820181905260248201527f43616c6c6572206d7573742062652043414b20746f20736574206120726f6c656044820152606401610cbe565b61088882826132b5565b6116ba6116b5610d9c565b61320c565b6117065760405162461bcd60e51b815260206004820181905260248201527f5468697320636f6e7472616374206973206e6f742077686974656c69737465646044820152606401610cbe565b8161171482620d2f00614e4b565b116117915760405162461bcd60e51b815260206004820152604160248201527f496e636f6e73697374656e74207265636f72642064617465206d6f726520746860448201527f616e2031302064617973206265666f726520736574746c656d656e74206461746064820152606560f81b608482015260a401610cbe565b610888828261179f85613339565b6133e7565b6000806117af610d9c565b6001600160a01b0381811660009081527fbbbdc1476a0878f2ef9a893c81f5b6f6ea1b3acaf18ff47ccb69cd4267d50c876020908152604080832093891683529290522054909150600019811461180f5761180d8286868401610da6565b505b506001949350505050565b60008080611848847fcd7a55ef023eb5931cc022a9bdc64cb5b46c3a6e53bcaa84915eea6084f1c7b5613678565b91509150816107ce577fbbbdc1476a0878f2ef9a893c81f5b6f6ea1b3acaf18ff47ccb69cd4267d50c885461094e565b600080516020614f988339815191526118a1600080516020614f78833981519152610c7c610d9c565b6118e25760405162461bcd60e51b815260206004820152601260248201527143616c6c6572206d7573742062652043414b60701b6044820152606401610cbe565b6002815460ff1660048111156118fa576118fa61497f565b03611918578054600490829060ff19166001835b02179055506119dc565b6004815460ff1660048111156119305761193061497f565b03611948578054600290829060ff191660018361190e565b60405162461bcd60e51b815260206004820152604b60248201527f43616e6e6f7420467265657a65202f20556e667265657a65207468652072656760448201527f69737465722061732074686520737461747573206973206e6f7420497373756560648201527f64206f722046726f7a656e000000000000000000000000000000000000000000608482015260a401610cbe565b6119e4610d9c565b81546040516001600160a01b0392909216917fda2010acfda7a262372331cb3b57e3f648f63eb009a423a2b5602cfa4f9bff5191611a31916001860191600287019160ff90911690614e16565b60405180910390a250565b611a56600080516020614f78833981519152610c7c610d9c565b611a975760405162461bcd60e51b815260206004820152601260248201527143616c6c6572206d7573742062652043414b60701b6044820152606401610cbe565b600080516020614f98833981519152600080611ab284613787565b915091508015611bfc57611ac584613831565b611b375760405162461bcd60e51b815260206004820152602260248201527f5468697320636f75706f6e20646174652063616e6e6f742062652064656c657460448201527f65640000000000000000000000000000000000000000000000000000000000006064820152608401610cbe565b600a830154611b4890600190614c78565b821015611bcb57815b600a840154611b6290600190614c78565b811015611bc957600a8401611b78826001614e4b565b81548110611b8857611b88614c4c565b9060005260206000200154846001016009018281548110611bab57611bab614c4c565b60009182526020909120015580611bc181614e5e565b915050611b51565b505b600a8301805480611bde57611bde614e77565b60019003818190600052602060002001600090559055611bfc61387c565b50505050565b611c1c600080516020614f78833981519152610c7c610d9c565b611c5d5760405162461bcd60e51b815260206004820152601260248201527143616c6c6572206d7573742062652043414b60701b6044820152606401610cbe565b600080516020614f988339815191527fe02854d75ca0f6b56099fb1e1546a75ef76f441f4e6082f2e3cbb1e8dc5591a26108798382614cd9565b60008080611cde847fcd7a55ef023eb5931cc022a9bdc64cb5b46c3a6e53bcaa84915eea6084f1c7b46001600160a01b038816600090815260209190915260409020613678565b9150915081611d24576001600160a01b03851660009081527fbbbdc1476a0878f2ef9a893c81f5b6f6ea1b3acaf18ff47ccb69cd4267d50c866020526040902054611d26565b805b95945050505050565b611d8f60405180610160016040528060608152602001606081526020016000815260200160008019168152602001600081526020016000815260200160008152602001600081526020016000815260200160608152602001600081525090565b6040805161016081019091527fe02854d75ca0f6b56099fb1e1546a75ef76f441f4e6082f2e3cbb1e8dc5591a18054600080516020614f9883398151915292919082908290611ddd90614c12565b80601f0160208091040260200160405190810160405280929190818152602001828054611e0990614c12565b8015611e565780601f10611e2b57610100808354040283529160200191611e56565b820191906000526020600020905b815481529060010190602001808311611e3957829003601f168201915b50505050508152602001600182018054611e6f90614c12565b80601f0160208091040260200160405190810160405280929190818152602001828054611e9b90614c12565b8015611ee85780601f10611ebd57610100808354040283529160200191611ee8565b820191906000526020600020905b815481529060010190602001808311611ecb57829003601f168201915b505050505081526020016002820154815260200160038201548152602001600482015481526020016005820154815260200160068201548152602001600782015481526020016008820154815260200160098201805480602002602001604051908101604052809291908181526020018280548015611f8657602002820191906000526020600020905b815481526020019060010190808311611f72575b50505050508152602001600a8201548152505091505090565b6000600080516020614f9883398151915281611fba84613787565b9150508015611fcd575060019392505050565b6009820154849003611fe3575060019392505050565b5060009392505050565b612007600080516020614f78833981519152610c7c610d9c565b6120485760405162461bcd60e51b815260206004820152601260248201527143616c6c6572206d7573742062652043414b60701b6044820152606401610cbe565b7fe02854d75ca0f6b56099fb1e1546a75ef76f441f4e6082f2e3cbb1e8dc5591a854600080516020614f988339815191529082116120ee5760405162461bcd60e51b815260206004820152603e60248201527f43616e6e6f7420736574206120636f75706f6e206461746520736d616c6c657260448201527f206f7220657175616c20746f207468652069737375616e6365206461746500006064820152608401610cbe565b600981015482106121675760405162461bcd60e51b815260206004820152603e60248201527f43616e6e6f7420736574206120636f75706f6e2064617465206772656174657260448201527f206f7220657175616c20746f20746865206d61747572697479206461746500006064820152608401610cbe565b60008061217384613787565b9150915080611bfc576121858461394e565b6121f75760405162461bcd60e51b815260206004820152602a60248201527f43616e6e6f7420696e73657274207468697320646174652c206974206973206960448201527f6e207468652070617374000000000000000000000000000000000000000000006064820152608401610cbe565b600a830154156122ff57600a83018054819061221590600190614c78565b8154811061222557612225614c4c565b60009182526020808320909101548354600181018555938352912090910155600a8301546003116122d557600a83015460009061226490600390614c78565b90505b8281106122d357600a840180548290811061228457612284614c4c565b600091825260209091200154600a850161229f836001614e4b565b815481106122af576122af614c4c565b60009182526020909120015580156122d357806122cb81614e8d565b915050612267565b505b838360010160090183815481106122ee576122ee614c4c565b60009182526020909120015561231a565b600a8301805460018101825560009182526020909120018490555b611bfc61387c565b6107308161232e610d9c565b612baf565b60008281527f2e59e4c2e927cdddbb64e181e0668d9a0fa70dd88f94d999cd87d5496a20da62602052604081206107569083613963565b60008281527f2e59e4c2e927cdddbb64e181e0668d9a0fa70dd88f94d999cd87d5496a20da6260205260408120610756908361396f565b6123bb600080516020614f78833981519152610c7c610d9c565b6123fc5760405162461bcd60e51b815260206004820152601260248201527143616c6c6572206d7573742062652043414b60701b6044820152606401610cbe565b7fe02854d75ca0f6b56099fb1e1546a75ef76f441f4e6082f2e3cbb1e8dc5591a755565b60607f8c998f45074727a62053813302c526655913012298b223f931495bf68495bf666001018054610d1990614c12565b60008061245c610d9c565b6001600160a01b0381811660009081527fbbbdc1476a0878f2ef9a893c81f5b6f6ea1b3acaf18ff47ccb69cd4267d50c876020908152604080832093891683529290522054909150808411156124de576040517f01c2999e00000000000000000000000000000000000000000000000000000000815260040160405180910390fd5b61180d8286868403610da6565b60006001600160a01b03841661252d576040517f68551d5f00000000000000000000000000000000000000000000000000000000815260040160405180910390fd5b6001600160a01b03831661256d576040517f8289914400000000000000000000000000000000000000000000000000000000815260040160405180910390fd5b612578848484613991565b6001600160a01b03841660009081527fbbbdc1476a0878f2ef9a893c81f5b6f6ea1b3acaf18ff47ccb69cd4267d50c866020819052604090912054808411156125ed576040517f7183160b00000000000000000000000000000000000000000000000000000000815260040160405180910390fd5b6001600160a01b03808716600090815260208490526040808220878503905591871681529081208054869290612624908490614e4b565b92505081905550846001600160a01b0316866001600160a01b03167fddf252ad1be2c89b69c2b068fc378daa952ba7f163c4a11628f55a4df523b3ef8660405161267091815260200190565b60405180910390a350600195945050505050565b6000600080516020614f988339815191526126a06116b5610d9c565b6126ec5760405162461bcd60e51b815260206004820181905260248201527f5468697320636f6e7472616374206973206e6f742077686974656c69737465646044820152606401610cbe565b612734836001600160a01b031660009081527f332cf6b129284e49df93f4be38bb1959bb5fa7d7d0ce3d4ad668f566f35f6fd56020526040902054600160a01b900460ff1690565b15156001146127855760405162461bcd60e51b815260206004820152601f60248201527f54686520696e766573746f72206973206e6f742077686974656c6973746564006044820152606401610cbe565b60006127af7f95d8298a3d25370298f52eb5e4c2caa68ca2492c02741ad9ada9443a021d758f5490565b60098301549091508114806127c2575080155b80156127ee57507f95d8298a3d25370298f52eb5e4c2caa68ca2492c02741ad9ada9443a021d758d5442115b6128865760405162461bcd60e51b815260206004820152605e60248201527f72657475726e696e67207468652062616c616e636520746f207468652070726960448201527f6d6172792069737375616e63652063616e206f6e6c7920626520646f6e65206160648201527f6674657220746865206d6174757269747920637574206f66662074696d650000608482015260a401610cbe565b6040517f70a082310000000000000000000000000000000000000000000000000000000081526001600160a01b038516600482015260009030906370a0823190602401602060405180830381865afa1580156128e6573d6000803e3d6000fd5b505050506040513d601f19601f8201168201806040525081019061290a9190614ea4565b9050600081116129825760405162461bcd60e51b815260206004820152602660248201527f6e6f2062616c616e636520746f2072657475726e20666f72207468697320696e60448201527f766573746f7200000000000000000000000000000000000000000000000000006064820152608401610cbe565b61298a613b90565b506129c6856129c07fe02854d75ca0f6b56099fb1e1546a75ef76f441f4e6082f2e3cbb1e8dc5591ac546001600160a01b031690565b836124eb565b50600195945050505050565b6129ec600080516020614f78833981519152610c7c610d9c565b612a2d5760405162461bcd60e51b815260206004820152601260248201527143616c6c6572206d7573742062652043414b60701b6044820152606401610cbe565b600080516020614f988339815191527fe02854d75ca0f6b56099fb1e1546a75ef76f441f4e6082f2e3cbb1e8dc5591a16108798382614cd9565b60008181527f2e59e4c2e927cdddbb64e181e0668d9a0fa70dd88f94d999cd87d5496a20da626020526040812061075990613c63565b600080516020614f98833981519152612ac6600080516020614f78833981519152610c7c610d9c565b612b075760405162461bcd60e51b815260206004820152601260248201527143616c6c6572206d7573742062652043414b60701b6044820152606401610cbe565b6001815460ff166004811115612b1f57612b1f61497f565b14612b765760405162461bcd60e51b815260206004820152602160248201527f52656769737465722073686f756c6420626520696e20526561647920737461746044820152606560f81b6064820152608401610cbe565b600c8101546003820154612b93916001600160a01b031690613c6d565b8054600090829060ff19166001835b02179055506119e4610d9c565b81612c085760405162461bcd60e51b8152602060048201526024808201527f5573652066756e6374696f6e206368616e676541646d696e526f6c6520696e736044820152631d19585960e21b6064820152608401610cbe565b600080516020614f788339815191528203612ca057612c2a6000610c7c610d9c565b612c9b5760405162461bcd60e51b8152602060048201526024808201527f43616c6c6572206d7573742062652041444d494e20746f2072656d6f7665206160448201527f2043414b000000000000000000000000000000000000000000000000000000006064820152608401610cbe565b612d2c565b612cba600080516020614f78833981519152610c7c610d9c565b612d2c5760405162461bcd60e51b815260206004820152602360248201527f43616c6c6572206d7573742062652043414b20746f2072656d6f76652061207260448201527f6f6c6500000000000000000000000000000000000000000000000000000000006064820152608401610cbe565b6108888282613dab565b612d50600080516020614f78833981519152610c7c610d9c565b612d915760405162461bcd60e51b815260206004820152601260248201527143616c6c6572206d7573742062652043414b60701b6044820152606401610cbe565b600080516020614f98833981519152805460009060ff166004811115612db957612db961497f565b14612e2c5760405162461bcd60e51b815260206004820152603a60248201527f6c6966656379636c652076696f6c6174696f6e202d206f6e6c7920616c6c6f7760448201527f6564207768656e2073746174757320697320696e2064726166740000000000006064820152608401610cbe565b60030155565b612e4c600080516020614f78833981519152610c7c610d9c565b612e8d5760405162461bcd60e51b815260206004820152601260248201527143616c6c6572206d7573742062652043414b60701b6044820152606401610cbe565b7fe02854d75ca0f6b56099fb1e1546a75ef76f441f4e6082f2e3cbb1e8dc5591a855565b612ecb600080516020614f78833981519152610c7c610d9c565b80612efd5750612efd7ff698af62c65280e4949bceec64b760f3b7738217cbc536cdfc4c9463676b05c2610c7c610d9c565b80612f2f5750612f2f7f6ba6f588bcdc2df8426603a466c98ab15e79f7fb7f37b53581ce39c1d01b7249610c7c610d9c565b80612f615750612f617fd7aa2ddfa4e381128202bf365b7e0a176f2fca6cdf2f23c2b0a6f43937695890610c7c610d9c565b612fd35760405162461bcd60e51b815260206004820152602e60248201527f5468652063616c6c6572206d7573742068617665206120726f6c6520696e207460448201527f6865207472616e73616374696f6e0000000000000000000000000000000000006064820152608401610cbe565b816001600160a01b0316612fe5610d9c565b6001600160a01b03167fa923df1773651806246e73e1e43342c4845d608ad54e2606d3c1a50124d66e718360405161301d919061480c565b60405180910390a35050565b600080516020614f98833981519152613052600080516020614f78833981519152610c7c610d9c565b6130935760405162461bcd60e51b815260206004820152601260248201527143616c6c6572206d7573742062652043414b60701b6044820152606401610cbe565b6000815460ff1660048111156130ab576130ab61497f565b146131025760405162461bcd60e51b815260206004820152602160248201527f52656769737465722073686f756c6420626520696e20447261667420737461746044820152606560f81b6064820152608401610cbe565b60038101546131535760405162461bcd60e51b815260206004820152601e60248201527f657870656374656420737570706c792063616e6e6f74206265207a65726f00006044820152606401610cbe565b600c8101546001600160a01b03166131d35760405162461bcd60e51b815260206004820152602660248201527f596f75206d7573742073657420746865206d696e74207265636569766572206160448201527f64647265737300000000000000000000000000000000000000000000000000006064820152608401610cbe565b600c81015460038201546131f0916001600160a01b031690613e2f565b8054600190829060ff19168280612ba2565b600061073d613f48565b60007f3ab46f175c5f1d1c97765e87ec0d68e6241fafc1b077d060ce0c29744cd3616d8161323984613f7b565b600090815260209290925250604090205460ff1692915050565b61325d828261236a565b61088857613273816001600160a01b0316613fac565b61327e836020613fbe565b60405160200161328f929190614ebd565b60408051601f198184030181529082905262461bcd60e51b8252610cbe9160040161480c565b60008281527f2e59e4c2e927cdddbb64e181e0668d9a0fa70dd88f94d999cd87d5496a20da62602052604090206132ec908261416f565b506132f5610d9c565b6001600160a01b0316816001600160a01b0316837f2f8788117e7eff1d82e926ec794901d17c78024a50270940304540a733656f0d60405160405180910390a45050565b6000600080516020614f98833981519152815b600a820154811015611fe3578382600101600901828154811061337157613371614c4c565b9060005260206000200154036133d557600a820154613391826001614e4b565b10156133ca57600a82016133a6826001614e4b565b815481106133b6576133b6614c4c565b906000526020600020015492505050919050565b506009015492915050565b806133df81614e5e565b91505061334c565b60006133f4836000614184565b90508381111561346c5760405162461bcd60e51b815260206004820152603360248201527f746865207265636f726420646174652063616e6e6f742062652061667465722060448201527f74686520736574746c656d656e742064617465000000000000000000000000006064820152608401610cbe565b81158061347857508382115b6134ea5760405162461bcd60e51b815260206004820152603c60248201527f696e76616c6964206e6578742064617465207768656e2073657474696e67207460448201527f68652063757272656e7420736e617073686f74206461746574696d65000000006064820152608401610cbe565b7f95d8298a3d25370298f52eb5e4c2caa68ca2492c02741ad9ada9443a021d758d60006135178682614184565b905083801561352d5761352a8187614184565b90505b6000828152600484016020526040902054156135b15760405162461bcd60e51b815260206004820152602860248201527f44617465206f6620636f75706f6e206f72206d6174757269747920616c72656160448201527f64792074616b656e0000000000000000000000000000000000000000000000006064820152608401610cbe565b8542106136265760405162461bcd60e51b815260206004820152603d60248201527f796f75206861766520746f20646566696e652061206e657720706572696f642060448201527f656e64696e67206166746572207468652063757272656e742074696d650000006064820152608401610cbe565b61362e6141bb565b5085835560028301829055600183018190556040518190879084907f4d1d74d5cbfc13e02ef05af3a30d8721e87a00d20bc3dc42198917139944def390600090a450505050505050565b600080836000036136b5576040517f6e6ae24700000000000000000000000000000000000000000000000000000000815260040160405180910390fd5b7fcd7a55ef023eb5931cc022a9bdc64cb5b46c3a6e53bcaa84915eea6084f1c7b7547fcd7a55ef023eb5931cc022a9bdc64cb5b46c3a6e53bcaa84915eea6084f1c7b490851115613732576040517f3609372a00000000000000000000000000000000000000000000000000000000815260040160405180910390fd5b600061373e85876142b3565b8554909150810361375757600080935093505050613780565b600185600101828154811061376e5761376e614c4c565b90600052602060002001549350935050505b9250929050565b600080600080516020614f98833981519152815b600a82015481101561382257848260010160090182815481106137c0576137c0614c4c565b9060005260206000200154036137db57946001945092505050565b848260010160090182815481106137f4576137f4614c4c565b9060005260206000200154111561381057946000945092505050565b8061381a81614e5e565b91505061379b565b50600a01549360009350915050565b60007f95d8298a3d25370298f52eb5e4c2caa68ca2492c02741ad9ada9443a021d758d61385e4283614184565b831180156107ce575060009283526004016020525060409020541590565b600080516020614f98833981519152600061389642613787565b50600a830154909150600090819083101561392257600a84018054849081106138c1576138c1614c4c565b600091825260209091200154600a8501549092506138e0846001614e4b565b101561391757600a84016138f5846001614e4b565b8154811061390557613905614c4c565b9060005260206000200154905061392c565b50600983015461392c565b5050600982015460005b600b8401546139479083906139419082614e4b565b8361435f565b5050505050565b600061395b426000614184565b909111919050565b600061075683836143e4565b6001600160a01b03811660009081526001830160205260408120541515610756565b6003600080516020614f988339815191525460ff1660048111156139b7576139b761497f565b03613a045760405162461bcd60e51b815260206004820152601660248201527f74686520526567697374657220697320636c6f736564000000000000000000006044820152606401610cbe565b7f95d8298a3d25370298f52eb5e4c2caa68ca2492c02741ad9ada9443a021d7590547f95d8298a3d25370298f52eb5e4c2caa68ca2492c02741ad9ada9443a021d758d9060ff1615613a615760038101805460ff19169055613b7c565b8054613afb5760405162461bcd60e51b815260206004820152604f60248201527f746865207265676973746572206973206c6f636b65642062656361757365206e60448201527f6f20636f75706f6e206973207072657061726564206f7220746865206d61747560648201527f7269747920697320726561636865640000000000000000000000000000000000608482015260a401610cbe565b80544210613b7c576000816001015411613b7c5760405162461bcd60e51b8152602060048201526024808201527f746865206d61747572697479206375742d6f66662074696d652068617320706160448201527f73736564000000000000000000000000000000000000000000000000000000006064820152608401610cbe565b613b846141bb565b50611bfc848484614449565b7f95d8298a3d25370298f52eb5e4c2caa68ca2492c02741ad9ada9443a021d7590546000907f95d8298a3d25370298f52eb5e4c2caa68ca2492c02741ad9ada9443a021d758d9060ff1615613c4d5760405162461bcd60e51b815260206004820152602260248201527f666f72636520666c616720616c7265616479207365742c20636865636b20636f60448201527f64650000000000000000000000000000000000000000000000000000000000006064820152608401610cbe565b600301805460ff19166001908117909155919050565b6000610759825490565b6001600160a01b038216613cad576040517ff1e2c4ee00000000000000000000000000000000000000000000000000000000815260040160405180910390fd5b613cb982600083613991565b6001600160a01b03821660009081527fbbbdc1476a0878f2ef9a893c81f5b6f6ea1b3acaf18ff47ccb69cd4267d50c86602081905260409091205480831115613d2e576040517fb1d35b2300000000000000000000000000000000000000000000000000000000815260040160405180910390fd5b6001600160a01b03841660009081526020839052604081208483039055600283018054859290613d5f908490614c78565b90915550506040518381526000906001600160a01b038616907fddf252ad1be2c89b69c2b068fc378daa952ba7f163c4a11628f55a4df523b3ef9060200160405180910390a350505050565b60008281527f2e59e4c2e927cdddbb64e181e0668d9a0fa70dd88f94d999cd87d5496a20da6260205260409020613de29082614491565b50613deb610d9c565b6001600160a01b0316816001600160a01b0316837ff6391f5c32d9c69d2a47ea670b442974b53935d1edc7fd64eb21e047a839171b60405160405180910390a45050565b6001600160a01b038216613e6f576040517fda007acd00000000000000000000000000000000000000000000000000000000815260040160405180910390fd5b613e7b60008383613991565b7fbbbdc1476a0878f2ef9a893c81f5b6f6ea1b3acaf18ff47ccb69cd4267d50c8880547fbbbdc1476a0878f2ef9a893c81f5b6f6ea1b3acaf18ff47ccb69cd4267d50c86918391600090613ed0908490614e4b565b90915550506001600160a01b03831660009081526020829052604081208054849290613efd908490614e4b565b90915550506040518281526001600160a01b038416906000907fddf252ad1be2c89b69c2b068fc378daa952ba7f163c4a11628f55a4df523b3ef9060200160405180910390a3505050565b600080546001600160a01b031633148015613f64575060143610155b15613f76575060131936013560601c90565b503390565b60408051603f833b908101601f19168201909252818152600091808360208401863c50805160209091012092915050565b60606107596001600160a01b03831660145b60606000613fcd836002614f3e565b613fd8906002614e4b565b67ffffffffffffffff811115613ff057613ff0614865565b6040519080825280601f01601f19166020018201604052801561401a576020820181803683370190505b5090507f30000000000000000000000000000000000000000000000000000000000000008160008151811061405157614051614c4c565b60200101906001600160f81b031916908160001a9053507f78000000000000000000000000000000000000000000000000000000000000008160018151811061409c5761409c614c4c565b60200101906001600160f81b031916908160001a905350600160028402015b6001811115614136577f303132333435363738396162636465660000000000000000000000000000000085600f16601081106140f9576140f9614c4c565b1a60f81b82828151811061410f5761410f614c4c565b60200101906001600160f81b031916908160001a90535060049490941c93600019016140bb565b508315610756576040517fc913478500000000000000000000000000000000000000000000000000000000815260040160405180910390fd5b6000610756836001600160a01b0384166144a6565b6000806141946201518085614f55565b90506141a08185614c78565b91506141af6201518084614f55565b905061094e8183614e4b565b7f95d8298a3d25370298f52eb5e4c2caa68ca2492c02741ad9ada9443a021d758d80546000919015801590614203575060028101546000908152600482016020526040902054155b8015614210575080544210155b156142ab57600061421f6144e9565b600283015460009081526004840160205260409020819055600183015490915061424a57600061425c565b61425c82600101548360000154614184565b80835561426a906000614184565b6002830181905560018301548354604051919290917f4d1d74d5cbfc13e02ef05af3a30d8721e87a00d20bc3dc42198917139944def390600090a492915050565b600091505090565b815460009081036142c657506000610759565b82546000905b8082101561431b57600081831682841860011c019050848682815481106142f5576142f5614c4c565b9060005260206000200154111561430e57809150614315565b8060010192505b506142cc565b60008211801561434957508385600184038154811061433c5761433c614c4c565b9060005260206000200154145b6143535781611d26565b50600019019392505050565b7f95d8298a3d25370298f52eb5e4c2caa68ca2492c02741ad9ada9443a021d758f546000907f95d8298a3d25370298f52eb5e4c2caa68ca2492c02741ad9ada9443a021d758d9085146143bc576143b78585856133e7565b61180f565b6143cb81600101546000614184565b831461180f5761180f81600201548260000154856133e7565b81546000908210614421576040517fe637bf3b00000000000000000000000000000000000000000000000000000000815260040160405180910390fd5b82600001828154811061443657614436614c4c565b9060005260206000200154905092915050565b6001600160a01b038316614468576144608261457f565b6108796145f0565b6001600160a01b03821661447f576144608361457f565b6144888261457f565b6108798361457f565b6000610756836001600160a01b03841661463c565b6000818152600183016020526040812054610759575081546001808201845560008481526020808220909301849055845493815293810190915260409092205590565b7fcd7a55ef023eb5931cc022a9bdc64cb5b46c3a6e53bcaa84915eea6084f1c7b780546000917fcd7a55ef023eb5931cc022a9bdc64cb5b46c3a6e53bcaa84915eea6084f1c7b491908361453c83614e5e565b909155505060038101546040518181527f8030e83b04d87bef53480e26263266d6ca66863aa8506aca6f2559d18aa1cb679060200160405180910390a192915050565b6001600160a01b03811660009081527fcd7a55ef023eb5931cc022a9bdc64cb5b46c3a6e53bcaa84915eea6084f1c7b4602090815260408083207fbbbdc1476a0878f2ef9a893c81f5b6f6ea1b3acaf18ff47ccb69cd4267d50c86909252909120546107309190614701565b614701565b6109857fcd7a55ef023eb5931cc022a9bdc64cb5b46c3a6e53bcaa84915eea6084f1c7b56145eb7fbbbdc1476a0878f2ef9a893c81f5b6f6ea1b3acaf18ff47ccb69cd4267d50c885490565b600081815260018301602052604081205480156146fa5783546000908590600019810190811061466e5761466e614c4c565b906000526020600020015490508085600001600184038154811061469457614694614c4c565b60009182526020808320909101929092559182526001860190526040902081905583548490806146c6576146c6614e77565b6001900381819060005260206000200160009055905583600101600084815260200190815260200160002060009055600191505b5092915050565b7fcd7a55ef023eb5931cc022a9bdc64cb5b46c3a6e53bcaa84915eea6084f1c7b7548061472d84614761565b1015610879578254600180820185556000858152602080822090930193909355938401805494850181558252902090910155565b80546000901561479b578154829061477b90600190614c78565b8154811061478b5761478b614c4c565b9060005260206000200154610759565b600092915050565b6000602082840312156147b557600080fd5b5035919050565b60005b838110156147d75781810151838201526020016147bf565b50506000910152565b600081518084526147f88160208601602086016147bc565b601f01601f19169290920160200192915050565b60208152600061075660208301846147e0565b80356001600160a01b038116811461483657600080fd5b919050565b6000806040838503121561484e57600080fd5b6148578361481f565b946020939093013593505050565b634e487b7160e01b600052604160045260246000fd5b600082601f83011261488c57600080fd5b813567ffffffffffffffff808211156148a7576148a7614865565b604051601f8301601f19908116603f011681019082821181831017156148cf576148cf614865565b816040528381528660208588010111156148e857600080fd5b836020870160208301376000602085830101528094505050505092915050565b600080600080600080600080610100898b03121561492557600080fd5b883567ffffffffffffffff81111561493c57600080fd5b6149488b828c0161487b565b9b60208b01359b5060408b01359a60608101359a506080810135995060a0810135985060c0810135975060e0013595509350505050565b634e487b7160e01b600052602160045260246000fd5b600581106149b357634e487b7160e01b600052602160045260246000fd5b9052565b602081016107598284614995565b6000806000606084860312156149da57600080fd5b6149e38461481f565b92506149f16020850161481f565b9150604084013590509250925092565b60008060408385031215614a1457600080fd5b82359150614a246020840161481f565b90509250929050565b60008060408385031215614a4057600080fd5b50508035926020909101359150565b600060208284031215614a6157600080fd5b813567ffffffffffffffff811115614a7857600080fd5b61094e8482850161487b565b600060208284031215614a9657600080fd5b6107568261481f565b600081518084526020808501945080840160005b83811015614acf57815187529582019590820190600101614ab3565b509495945050505050565b6020815260008251610160806020850152614af96101808501836147e0565b91506020850151601f1980868503016040870152614b1784836147e0565b93506040870151606087015260608701516080870152608087015160a087015260a087015160c087015260c087015160e087015260e08701519150610100828188015280880151925050610120828188015280880151925050610140818786030181880152614b868584614a9f565b970151959092019490945250929392505050565b60008060408385031215614bad57600080fd5b614bb68361481f565b9150602083013567ffffffffffffffff811115614bd257600080fd5b614bde8582860161487b565b9150509250929050565b60008060408385031215614bfb57600080fd5b614c048361481f565b9150614a246020840161481f565b600181811c90821680614c2657607f821691505b602082108103614c4657634e487b7160e01b600052602260045260246000fd5b50919050565b634e487b7160e01b600052603260045260246000fd5b634e487b7160e01b600052601160045260246000fd5b8181038181111561075957610759614c62565b601f82111561087957600081815260208120601f850160051c81016020861015614cb25750805b601f850160051c820191505b81811015614cd157828155600101614cbe565b505050505050565b815167ffffffffffffffff811115614cf357614cf3614865565b614d0781614d018454614c12565b84614c8b565b602080601f831160018114614d3c5760008415614d245750858301515b600019600386901b1c1916600185901b178555614cd1565b600085815260208120601f198616915b82811015614d6b57888601518255948401946001909101908401614d4c565b5085821015614d895787850151600019600388901b60f8161c191681555b5050505050600190811b01905550565b60008154614da681614c12565b808552602060018381168015614dc35760018114614ddd57614e0b565b60ff1985168884015283151560051b880183019550614e0b565b866000528260002060005b85811015614e035781548a8201860152908301908401614de8565b890184019650505b505050505092915050565b606081526000614e296060830186614d99565b8281036020840152614e3b8186614d99565b91505061094e6040830184614995565b8082018082111561075957610759614c62565b600060018201614e7057614e70614c62565b5060010190565b634e487b7160e01b600052603160045260246000fd5b600081614e9c57614e9c614c62565b506000190190565b600060208284031215614eb657600080fd5b5051919050565b7f416363657373436f6e74726f6c3a206163636f756e7420000000000000000000815260008351614ef58160178501602088016147bc565b7f206973206d697373696e6720726f6c65200000000000000000000000000000006017918401918201528351614f328160288401602088016147bc565b01602801949350505050565b808202811582820484141761075957610759614c62565b600082614f7257634e487b7160e01b600052601260045260246000fd5b50069056fea75205b8583660bdad375c0ccde11af17668d76a408a9a5e739251b0f7c59870e02854d75ca0f6b56099fb1e1546a75ef76f441f4e6082f2e3cbb1e8dc5591a0a2646970667358221220b6606195cbf7b98137b0ce4c441b9bef8d1af966f7c19dc42d74a5bb73e93d7f64736f6c63430008140033",
  "linkReferences": {},
  "deployedLinkReferences": {}
}