{
  "_format": "hh-sol-artifact-1",
  "contractName": "RegisterRoleManagement",
  "sourceName": "src/RegisterRoleManagement.sol",
  "abi": [
    {
      "inputs": [],
      "stateMutability": "nonpayable",
      "type": "constructor"
    },
    {
      "anonymous": false,
      "inputs": [
        {
          "indexed": true,
          "internalType": "address",
          "name": "_addressForNewAdmin",
          "type": "address"
        }
      ],
      "name": "AdminChanged",
      "type": "event"
    },
    {
      "anonymous": false,
      "inputs": [
        {
          "indexed": true,
          "internalType": "bytes32",
          "name": "role",
          "type": "bytes32"
        },
        {
          "indexed": true,
          "internalType": "bytes32",
          "name": "previousAdminRole",
          "type": "bytes32"
        },
        {
          "indexed": true,
          "internalType": "bytes32",
          "name": "newAdminRole",
          "type": "bytes32"
        }
      ],
      "name": "RoleAdminChanged",
      "type": "event"
    },
    {
      "anonymous": false,
      "inputs": [
        {
          "indexed": true,
          "internalType": "bytes32",
          "name": "role",
          "type": "bytes32"
        },
        {
          "indexed": true,
          "internalType": "address",
          "name": "account",
          "type": "address"
        },
        {
          "indexed": true,
          "internalType": "address",
          "name": "sender",
          "type": "address"
        }
      ],
      "name": "RoleGranted",
      "type": "event"
    },
    {
      "anonymous": false,
      "inputs": [
        {
          "indexed": true,
          "internalType": "bytes32",
          "name": "role",
          "type": "bytes32"
        },
        {
          "indexed": true,
          "internalType": "address",
          "name": "account",
          "type": "address"
        },
        {
          "indexed": true,
          "internalType": "address",
          "name": "sender",
          "type": "address"
        }
      ],
      "name": "RoleRevoked",
      "type": "event"
    },
    {
      "inputs": [],
      "name": "BND_ROLE",
      "outputs": [
        {
          "internalType": "bytes32",
          "name": "",
          "type": "bytes32"
        }
      ],
      "stateMutability": "view",
      "type": "function"
    },
    {
      "inputs": [],
      "name": "CAK_ROLE",
      "outputs": [
        {
          "internalType": "bytes32",
          "name": "",
          "type": "bytes32"
        }
      ],
      "stateMutability": "view",
      "type": "function"
    },
    {
      "inputs": [],
      "name": "CST_ROLE",
      "outputs": [
        {
          "internalType": "bytes32",
          "name": "",
          "type": "bytes32"
        }
      ],
      "stateMutability": "view",
      "type": "function"
    },
    {
      "inputs": [],
      "name": "DEFAULT_ADMIN_ROLE",
      "outputs": [
        {
          "internalType": "bytes32",
          "name": "",
          "type": "bytes32"
        }
      ],
      "stateMutability": "view",
      "type": "function"
    },
    {
      "inputs": [],
      "name": "PAY_ROLE",
      "outputs": [
        {
          "internalType": "bytes32",
          "name": "",
          "type": "bytes32"
        }
      ],
      "stateMutability": "view",
      "type": "function"
    },
    {
      "inputs": [],
      "name": "_addressForNewAdmin",
      "outputs": [
        {
          "internalType": "address",
          "name": "",
          "type": "address"
        }
      ],
      "stateMutability": "view",
      "type": "function"
    },
    {
      "inputs": [],
      "name": "_firstVoterForNewAdmin",
      "outputs": [
        {
          "internalType": "address",
          "name": "",
          "type": "address"
        }
      ],
      "stateMutability": "view",
      "type": "function"
    },
    {
      "inputs": [],
      "name": "_votesForNewAdmin",
      "outputs": [
        {
          "internalType": "uint8",
          "name": "",
          "type": "uint8"
        }
      ],
      "stateMutability": "view",
      "type": "function"
    },
    {
      "inputs": [
        {
          "internalType": "address",
          "name": "account_",
          "type": "address"
        }
      ],
      "name": "changeAdminRole",
      "outputs": [],
      "stateMutability": "nonpayable",
      "type": "function"
    },
    {
      "inputs": [
        {
          "internalType": "bytes32",
          "name": "role",
          "type": "bytes32"
        }
      ],
      "name": "getRoleAdmin",
      "outputs": [
        {
          "internalType": "bytes32",
          "name": "",
          "type": "bytes32"
        }
      ],
      "stateMutability": "view",
      "type": "function"
    },
    {
      "inputs": [
        {
          "internalType": "address",
          "name": "bndAddress_",
          "type": "address"
        }
      ],
      "name": "grantBndRole",
      "outputs": [],
      "stateMutability": "nonpayable",
      "type": "function"
    },
    {
      "inputs": [
        {
          "internalType": "address",
          "name": "cakAddress_",
          "type": "address"
        }
      ],
      "name": "grantCakRole",
      "outputs": [],
      "stateMutability": "nonpayable",
      "type": "function"
    },
    {
      "inputs": [
        {
          "internalType": "address",
          "name": "cstAddress_",
          "type": "address"
        }
      ],
      "name": "grantCstRole",
      "outputs": [],
      "stateMutability": "nonpayable",
      "type": "function"
    },
    {
      "inputs": [
        {
          "internalType": "address",
          "name": "payAddress_",
          "type": "address"
        }
      ],
      "name": "grantPayRole",
      "outputs": [],
      "stateMutability": "nonpayable",
      "type": "function"
    },
    {
      "inputs": [
        {
          "internalType": "bytes32",
          "name": "role",
          "type": "bytes32"
        },
        {
          "internalType": "address",
          "name": "account",
          "type": "address"
        }
      ],
      "name": "grantRole",
      "outputs": [],
      "stateMutability": "nonpayable",
      "type": "function"
    },
    {
      "inputs": [
        {
          "internalType": "bytes32",
          "name": "role",
          "type": "bytes32"
        },
        {
          "internalType": "address",
          "name": "account",
          "type": "address"
        }
      ],
      "name": "hasRole",
      "outputs": [
        {
          "internalType": "bool",
          "name": "",
          "type": "bool"
        }
      ],
      "stateMutability": "view",
      "type": "function"
    },
    {
      "inputs": [
        {
          "internalType": "address",
          "name": "account",
          "type": "address"
        }
      ],
      "name": "isBnD",
      "outputs": [
        {
          "internalType": "bool",
          "name": "",
          "type": "bool"
        }
      ],
      "stateMutability": "view",
      "type": "function"
    },
    {
      "inputs": [
        {
          "internalType": "address",
          "name": "account",
          "type": "address"
        }
      ],
      "name": "isCAK",
      "outputs": [
        {
          "internalType": "bool",
          "name": "",
          "type": "bool"
        }
      ],
      "stateMutability": "view",
      "type": "function"
    },
    {
      "inputs": [
        {
          "internalType": "address",
          "name": "account",
          "type": "address"
        }
      ],
      "name": "isCustodian",
      "outputs": [
        {
          "internalType": "bool",
          "name": "",
          "type": "bool"
        }
      ],
      "stateMutability": "view",
      "type": "function"
    },
    {
      "inputs": [
        {
          "internalType": "address",
          "name": "account",
          "type": "address"
        }
      ],
      "name": "isPay",
      "outputs": [
        {
          "internalType": "bool",
          "name": "",
          "type": "bool"
        }
      ],
      "stateMutability": "view",
      "type": "function"
    },
    {
      "inputs": [],
      "name": "registerAdmin",
      "outputs": [
        {
          "internalType": "address",
          "name": "",
          "type": "address"
        }
      ],
      "stateMutability": "view",
      "type": "function"
    },
    {
      "inputs": [
        {
          "internalType": "bytes32",
          "name": "role",
          "type": "bytes32"
        },
        {
          "internalType": "address",
          "name": "account",
          "type": "address"
        }
      ],
      "name": "renounceRole",
      "outputs": [],
      "stateMutability": "nonpayable",
      "type": "function"
    },
    {
      "inputs": [
        {
          "internalType": "address",
          "name": "bndAddress_",
          "type": "address"
        }
      ],
      "name": "revokeBndRole",
      "outputs": [],
      "stateMutability": "nonpayable",
      "type": "function"
    },
    {
      "inputs": [
        {
          "internalType": "address",
          "name": "cakAddress_",
          "type": "address"
        }
      ],
      "name": "revokeCakRole",
      "outputs": [],
      "stateMutability": "nonpayable",
      "type": "function"
    },
    {
      "inputs": [
        {
          "internalType": "address",
          "name": "cstAddress_",
          "type": "address"
        }
      ],
      "name": "revokeCstRole",
      "outputs": [],
      "stateMutability": "nonpayable",
      "type": "function"
    },
    {
      "inputs": [
        {
          "internalType": "address",
          "name": "payAddress_",
          "type": "address"
        }
      ],
      "name": "revokePayRole",
      "outputs": [],
      "stateMutability": "nonpayable",
      "type": "function"
    },
    {
      "inputs": [
        {
          "internalType": "bytes32",
          "name": "role",
          "type": "bytes32"
        },
        {
          "internalType": "address",
          "name": "account",
          "type": "address"
        }
      ],
      "name": "revokeRole",
      "outputs": [],
      "stateMutability": "nonpayable",
      "type": "function"
    },
    {
      "inputs": [
        {
          "internalType": "bytes4",
          "name": "interfaceId",
          "type": "bytes4"
        }
      ],
      "name": "supportsInterface",
      "outputs": [
        {
          "internalType": "bool",
          "name": "",
          "type": "bool"
        }
      ],
      "stateMutability": "view",
      "type": "function"
    }
  ],
  "bytecode": "0x60806040523480156200001157600080fd5b506200001f60003362000122565b6200003a600080516020620014548339815191528062000132565b600180546001600160a01b031916339081179091556200006b90600080516020620014548339815191529062000122565b620000a67ff698af62c65280e4949bceec64b760f3b7738217cbc536cdfc4c9463676b05c26000805160206200145483398151915262000132565b620000e17f6ba6f588bcdc2df8426603a466c98ab15e79f7fb7f37b53581ce39c1d01b72496000805160206200145483398151915262000132565b6200011c7fd7aa2ddfa4e381128202bf365b7e0a176f2fca6cdf2f23c2b0a6f439376958906000805160206200145483398151915262000132565b6200021d565b6200012e82826200017d565b5050565b600082815260208190526040808220600101805490849055905190918391839186917fbd79b86ffe0ab8e8776151514217cd7cacd52c909f66475c3af44e129f0b00ff9190a4505050565b6000828152602081815260408083206001600160a01b038516845290915290205460ff166200012e576000828152602081815260408083206001600160a01b03851684529091529020805460ff19166001179055620001d93390565b6001600160a01b0316816001600160a01b0316837f2f8788117e7eff1d82e926ec794901d17c78024a50270940304540a733656f0d60405160405180910390a45050565b611227806200022d6000396000f3fe608060405234801561001057600080fd5b50600436106101c35760003560e01c80637dc35505116100f9578063c1f4250b11610097578063e336c59011610071578063e336c59014610459578063e3965d541461046c578063f60d9ea11461047f578063f690c6c51461049257600080fd5b8063c1f4250b14610420578063cc80473c14610433578063d547741f1461044657600080fd5b806391d14854116100d357806391d14854146103bb578063a217fddf146103f2578063a28f78f8146103fa578063a55234b81461040d57600080fd5b80637dc355051461035b5780638865f1e2146103815780638e1305de146103a857600080fd5b80632f2ff15d1161016657806336568abe1161014057806336568abe146102fb5780633bf2a9f41461030e5780634361f92a146103355780635ab6f71b1461034857600080fd5b80632f2ff15d146102aa5780632f962866146102bd57806335c80c8c146102e857600080fd5b80631c67a363116101a25780631c67a36314610218578063222ca3401461024d578063248a9ca3146102605780632682ac911461028357600080fd5b8062a9303d146101c857806301ffc9a7146101dd57806304b8c47114610205575b600080fd5b6101db6101d6366004611148565b6104a5565b005b6101f06101eb36600461116a565b6104d2565b60405190151581526020015b60405180910390f35b6101db610213366004611148565b61056b565b61023f7f6ba6f588bcdc2df8426603a466c98ab15e79f7fb7f37b53581ce39c1d01b724981565b6040519081526020016101fc565b6101db61025b366004611148565b610975565b61023f61026e3660046111ac565b60009081526020819052604090206001015490565b61023f7ff698af62c65280e4949bceec64b760f3b7738217cbc536cdfc4c9463676b05c281565b6101db6102b83660046111c5565b61099f565b6003546102d0906001600160a01b031681565b6040516001600160a01b0390911681526020016101fc565b6101f06102f6366004611148565b610ba6565b6101db6103093660046111c5565b610be6565b61023f7fd7aa2ddfa4e381128202bf365b7e0a176f2fca6cdf2f23c2b0a6f4393769589081565b6101f0610343366004611148565b610c6e565b6001546102d0906001600160a01b031681565b60015461036f90600160a01b900460ff1681565b60405160ff90911681526020016101fc565b61023f7fa75205b8583660bdad375c0ccde11af17668d76a408a9a5e739251b0f7c5987081565b6101db6103b6366004611148565b610cae565b6101f06103c93660046111c5565b6000918252602082815260408084206001600160a01b0393909316845291905290205460ff1690565b61023f600081565b6101db610408366004611148565b610cd8565b6101f061041b366004611148565b610d02565b6101db61042e366004611148565b610d42565b6101db610441366004611148565b610d6c565b6101db6104543660046111c5565b610d96565b6002546102d0906001600160a01b031681565b6101f061047a366004611148565b610f7b565b6101db61048d366004611148565b610fbb565b6101db6104a0366004611148565b610fe5565b6104cf7fd7aa2ddfa4e381128202bf365b7e0a176f2fca6cdf2f23c2b0a6f439376958908261099f565b50565b60007fffffffff0000000000000000000000000000000000000000000000000000000082167f7965db0b00000000000000000000000000000000000000000000000000000000148061056557507f01ffc9a7000000000000000000000000000000000000000000000000000000007fffffffff000000000000000000000000000000000000000000000000000000008316145b92915050565b3360009081527fc9ad3c3856e2fb65fb198b30c791323dd8b1427dcd15151c11e71e9095ef413e602052604090205460ff166105ee5760405162461bcd60e51b815260206004820152601260248201527f43616c6c6572206d7573742062652043414b000000000000000000000000000060448201526064015b60405180910390fd5b6001546001600160a01b03908116908216036106715760405162461bcd60e51b8152602060048201526024808201527f4e65772061646d696e206973207468652073616d652061732063757272656e7460448201527f206f6e650000000000000000000000000000000000000000000000000000000060648201526084016105e5565b6001600160a01b038116158015610693575060018054600160a01b900460ff16145b156106fb57600180547fffffffffffffffffffffff00ffffffffffffffffffffffffffffffffffffffff1690556003805473ffffffffffffffffffffffffffffffffffffffff19908116909155600280549091166001600160a01b0392909216919091179055565b6001600160a01b0381166107775760405162461bcd60e51b815260206004820152603160248201527f5468652070726f706f736564206e65772061646d696e2063616e6e6f7420626560448201527f20746865207a65726f206164647265737300000000000000000000000000000060648201526084016105e5565b600154600160a01b900460ff166000036107f757600180547fffffffffffffffffffffff00ffffffffffffffffffffffffffffffffffffffff16600160a01b1790556003805473ffffffffffffffffffffffffffffffffffffffff199081163317909155600280546001600160a01b039390931692909116919091179055565b60018054600160a01b900460ff1690036104cf576002546001600160a01b0382811691161461085d57600380543373ffffffffffffffffffffffffffffffffffffffff1991821617909155600280549091166001600160a01b0392909216919091179055565b600354336001600160a01b03909116036108b95760405162461bcd60e51b815260206004820152601a60248201527f546869732043414b2068617320616c726561647920766f74656400000000000060448201526064016105e5565b6001546108d1906000906001600160a01b031661100f565b6002546108e9906000906001600160a01b0316610b98565b60028054600180547fffffffffffffffffffffff000000000000000000000000000000000000000000166001600160a01b0383169081179091556003805473ffffffffffffffffffffffffffffffffffffffff199081169091559091169091556040517f7ce7ec0b50378fb6c0186ffb5f48325f6593fcb4ca4386f21861af3129188f5c90600090a250565b6104cf7f6ba6f588bcdc2df8426603a466c98ab15e79f7fb7f37b53581ce39c1d01b724982610d96565b81610a165760405162461bcd60e51b8152602060048201526024808201527f5573652066756e6374696f6e206368616e676541646d696e526f6c6520696e7360448201527f746561640000000000000000000000000000000000000000000000000000000060648201526084016105e5565b610b98565b7fa75205b8583660bdad375c0ccde11af17668d76a408a9a5e739251b0f7c598708203610b1a573360009081527fc9ad3c3856e2fb65fb198b30c791323dd8b1427dcd15151c11e71e9095ef413e602052604090205460ff1680610aa857503360009081527fad3228b676f7d3cd4284a5443f17f1962b36e491b30a40b2405849e597ba5fb5602052604090205460ff165b610a115760405162461bcd60e51b815260206004820152602e60248201527f43616c6c6572206d7573742062652043414b206f722041444d494e20746f207360448201527f657420616e6f746865722043414b00000000000000000000000000000000000060648201526084016105e5565b3360009081527fc9ad3c3856e2fb65fb198b30c791323dd8b1427dcd15151c11e71e9095ef413e602052604090205460ff16610b985760405162461bcd60e51b815260206004820181905260248201527f43616c6c6572206d7573742062652043414b20746f20736574206120726f6c6560448201526064016105e5565b610ba2828261108e565b5050565b6001600160a01b03811660009081527f3f628cef444bdc369632caca437e4f3ec9969198499b834e9533a987c9fe78a1602052604081205460ff16610565565b6001600160a01b0381163314610c645760405162461bcd60e51b815260206004820152602f60248201527f416363657373436f6e74726f6c3a2063616e206f6e6c792072656e6f756e636560448201527f20726f6c657320666f722073656c66000000000000000000000000000000000060648201526084016105e5565b610ba2828261100f565b6001600160a01b03811660009081527fc9ad3c3856e2fb65fb198b30c791323dd8b1427dcd15151c11e71e9095ef413e602052604081205460ff16610565565b6104cf7fa75205b8583660bdad375c0ccde11af17668d76a408a9a5e739251b0f7c5987082610d96565b6104cf7fa75205b8583660bdad375c0ccde11af17668d76a408a9a5e739251b0f7c598708261099f565b6001600160a01b03811660009081527f84c01ed70f5e7c041e4ab11e916ca8b10fe991afd983136c4dae2fd259f286bc602052604081205460ff16610565565b6104cf7ff698af62c65280e4949bceec64b760f3b7738217cbc536cdfc4c9463676b05c282610d96565b6104cf7ff698af62c65280e4949bceec64b760f3b7738217cbc536cdfc4c9463676b05c28261099f565b81610e085760405162461bcd60e51b8152602060048201526024808201527f5573652066756e6374696f6e206368616e676541646d696e526f6c6520696e7360448201527f746561640000000000000000000000000000000000000000000000000000000060648201526084016105e5565b7fa75205b8583660bdad375c0ccde11af17668d76a408a9a5e739251b0f7c598708203610ed7573360009081527fad3228b676f7d3cd4284a5443f17f1962b36e491b30a40b2405849e597ba5fb5602052604090205460ff16610ed25760405162461bcd60e51b8152602060048201526024808201527f43616c6c6572206d7573742062652041444d494e20746f2072656d6f7665206160448201527f2043414b0000000000000000000000000000000000000000000000000000000060648201526084016105e5565b610c64565b3360009081527fc9ad3c3856e2fb65fb198b30c791323dd8b1427dcd15151c11e71e9095ef413e602052604090205460ff16610c645760405162461bcd60e51b815260206004820152602360248201527f43616c6c6572206d7573742062652043414b20746f2072656d6f76652061207260448201527f6f6c65000000000000000000000000000000000000000000000000000000000060648201526084016105e5565b6001600160a01b03811660009081527f65fe3b020b8344f941c38c55dd9364153e4a5d4d8e613ac6dc7f2bca3a4b4421602052604081205460ff16610565565b6104cf7fd7aa2ddfa4e381128202bf365b7e0a176f2fca6cdf2f23c2b0a6f4393769589082610d96565b6104cf7f6ba6f588bcdc2df8426603a466c98ab15e79f7fb7f37b53581ce39c1d01b72498261099f565b6000828152602081815260408083206001600160a01b038516845290915290205460ff1615610ba2576000828152602081815260408083206001600160a01b0385168085529252808320805460ff1916905551339285917ff6391f5c32d9c69d2a47ea670b442974b53935d1edc7fd64eb21e047a839171b9190a45050565b6000828152602081815260408083206001600160a01b038516845290915290205460ff16610ba2576000828152602081815260408083206001600160a01b03851684529091529020805460ff191660011790556110e83390565b6001600160a01b0316816001600160a01b0316837f2f8788117e7eff1d82e926ec794901d17c78024a50270940304540a733656f0d60405160405180910390a45050565b80356001600160a01b038116811461114357600080fd5b919050565b60006020828403121561115a57600080fd5b6111638261112c565b9392505050565b60006020828403121561117c57600080fd5b81357fffffffff000000000000000000000000000000000000000000000000000000008116811461116357600080fd5b6000602082840312156111be57600080fd5b5035919050565b600080604083850312156111d857600080fd5b823591506111e86020840161112c565b9050925092905056fea2646970667358221220fcd10565ae92146987d3f9afa4a0c1db454033d9b1681ab49fd1a0b316e83c8264736f6c63430008110033a75205b8583660bdad375c0ccde11af17668d76a408a9a5e739251b0f7c59870",
  "linkReferences": {},
  "deployedLinkReferences": {}
}